:020000040800F2
:1000000060850024F90300086B7500081B6B00086D
:100010006975000809090008C19700080000000080
:10002000000000000000000000000000390300088C
:10003000E10D000800000000950300080D8600088F
:100040001304000813040008130400081304000834
:100050001304000813040008130400081304000824
:1000600013040008130400081304000855090008CD
:10007000610900086D090008790900088509000870
:10008000910900089D0900081304000813040008E2
:1000900013040008130400081304000813040008E4
:1000A00013040008130400081304000813040008D4
:1000B00013040008130400081304000813040008C4
:1000C00013040008130400081304000813040008B4
:1000D000130400082995000835950008A595000827
:1000E00013040008130400080000000013040008B3
:1000F0001304000813040008130400081304000884
:1001000013040008AD770008130400081304000866
:1001100013040008858C0008D5870008F5870008BF
:100120001304000813040008130400081304000853
:100130001304000813040008130400081304000843
:1001400000000000000000000000000000000000AF
:10015000130400081304000813040008B1960008F3
:100160001304000813040008130400081304000813
:100170001304000813040008130400080000000022
:10018000130400081304000813040008FD8C000881
:1001900013040008130400081304000813040008E3
:1001A00013040008130400081304000813040008D3
:1001B00013040008130400081304000813040008C3
:1001C00013040008130400081304000813040008B3
:1001D00013040008130400081304000813040008A3
:1001E0001304000813040008130400081304000893
:1001F0001304000813040008130400081304000883
:100200001304000813040008130400081304000872
:100210001304000813040008C98700081304000829
:100220001304000813040008130400080000000071
:100230001304000813040008000000001304000861
:100240001304000813040008130400081304000832
:100250001304000813040008130400081304000822
:100260001304000813040008130400081304000812
:100270001304000813040008130400080000000021
:100280001304000813040008130400080000000011
:10029000000000001304000800F002F800F03CF831
:1002A0000AA090E8000C82448344AAF10107DA45D1
:1002B00001D100F031F8AFF2090EBAE80F0013F0E7
:1002C000010F18BFFB1A43F00103184734AC0000BC
:1002D00054AC0000103A24BF78C878C1FAD852074D
:1002E00024BF30C830C144BF04680C6070470000B0
:1002F0000023002400250026103A28BF78C1FBD82F
:10030000520728BF30C148BF0B6070471FB50AF0C5
:10031000A3FD1FBD10B510BD00F0D6F91146FFF7C3
:10032000F5FF09F06FFA00F0F4F903B4FFF7F2FFFC
:1003300003BC09F057FA00002C4B19680868B0E8B4
:10034000F04F80F30988BFF36F8F4FF0000080F308
:10035000118870470000000008480068006880F3BA
:1003600008884FF0000080F3148862B661B6BFF3CE
:100370004F8FBFF36F8F00DF00BF00BF08ED00E0BD
:10038000DFF80C00016841F470010160704700BFA4
:1003900088ED00E0EFF30980BFF36F8F134B1A680D
:1003A0001EF0100F08BF20ED108A20E9F04F1060FA
:1003B00009B44FF0500080F31188BFF34F8FBFF3A3
:1003C0006F8F09F0F5FF4FF0000080F3118809BC32
:1003D00019680868B0E8F04F1EF0100F08BFB0ECC5
:1003E000108A80F30988BFF36F8F70472C000024B8
:1003F000EFF305807047000009488047094800472F
:10040000FEE7FEE7FEE7FEE7FEE7FEE7FEE7FEE7C4
:10041000FEE7FEE704480549054A064B7047000021
:10042000ED860008990200086055002460850024CC
:100430006065002460650024704753EA020C00F0F8
:1004400069802DE9F04B4FF00006002B1FBFB3FA77
:1004500083F503FA05F424FA05F65E4012BF16434D
:10046000B2FA82F502FA05F4C5F120051EBF22FAA0
:1004700005FC44EA0C04203556EA044C4FEA1444C7
:1004800018BF641C4FF000084FF00009904271EB58
:10049000030C39D3002919BFB1FA81F701FA07F625
:1004A000B0FA80F700FA07F6C7F120071EBF20FA5E
:1004B00007FC46EA0C062037B6FBF4FCA7EB050761
:1004C000103F07F01F0BCBF120060CFA0BFB2CFAA8
:1004D00006F644BFB3460026202FA4BF5E464FF069
:1004E000000B5BEA060C08BF4FF0010B19EB0B0980
:1004F000ABFB027C48EB0608C01B06FB02CC0BFBE7
:1005000003CC71EB0C01C1E70B460246414648465D
:10051000BDE8F08B13B54FF000004FF00001AFF3D2
:100520000080BDE81C407047032A40F2308010F084
:10053000030C00F0158011F8013BBCF1020F62447E
:1005400098BF11F801CB00F8013B38BF11F8013B0F
:10055000A2F1040298BF00F801CB38BF00F8013BBC
:1005600011F0030300F02580083AC0F0088051F82C
:10057000043B083A51F804CBA0E80810F5E7121D37
:100580005CBF51F8043B40F8043BAFF30080D20756
:1005900024BF11F8013B11F801CB48BF11F8012B22
:1005A00024BF00F8013B00F801CB48BF00F8012B45
:1005B000704710B5203AC0F00B80B1E81850203ACF
:1005C000A0E81850B1E81850A0E81850BFF4F5AFF3
:1005D0005FEA027C24BFB1E81850A0E8185044BF7D
:1005E00018C918C0BDE810405FEA827C24BF51F8EA
:1005F000043B40F8043B08BF7047D20728BF31F8DE
:10060000023B48BF11F8012B28BF20F8023B48BF2E
:1006100000F8012B704702F0FF0343EA032242EA8D
:10062000024200F002B84FF000020429C0F012802C
:1006300010F0030C00F01B80CCF1040CBCF1020F95
:1006400018BF00F8012BA8BF20F8022BA1EB0C016A
:1006500000F00DB85FEAC17C24BF00F8012B00F860
:10066000012B48BF00F8012B70474FF0000200B586
:10067000134694469646203922BFA0E80C50A0E8C5
:100680000C50B1F12001BFF4F7AF090728BFA0E873
:100690000C5048BF0CC05DF804EB890028BF40F83F
:1006A000042B08BF704748BF20F8022B11F0804F81
:1006B00018BF00F8012B70477047704770477047AC
:1006C00000487047FC5400247546FFF7F9FFAE461A
:1006D00005006946534620F00700854618B020B54E
:1006E000FFF798FEBDE820404FF000064FF00007EE
:1006F0004FF000084FF0000B21F00701AC46ACE8CA
:10070000C009ACE8C009ACE8C009ACE8C0098D4636
:10071000704710B50446AFF300802046BDE8104096
:10072000FFF703BE70B53A4905460068884202D01B
:10073000384A904202D1D1F8080302E03648D0F896
:10074000080310F4403F11D003F01CFD0446686814
:10075000B0F5803F06D0B0F5003F03D0B0F5403F84
:1007600027D101E0000C18E0A40822E000214FF49A
:10077000002002F071FD044668688103890B18D1DE
:1007800081140C2915D2DFE801F0140606060606CE
:10079000060B0D0F1113800C4000B4FBF0F408E0C1
:1007A000240906E0640904E0A40902E0E40900E089
:1007B000240A02F063F941F20301884208D817487D
:1007C00084422868816813D821F48071816070BDEB
:1007D00013496008884204D82868816821F4407170
:1007E000F4E71049884206D82868816821F44071EE
:1007F00041F48071EAE70C4988422868816804D88E
:1008000021F4407141F40071E0E741F44071DDE70B
:10081000002002400021024000600258002D3101FA
:10082000105E5F0020BCBE0040787D0110B5012441
:100830000348E10302F018F900B10024204610BD7E
:10084000000002580146014804F032BAD8010024E1
:1008500010B5044804F03EFA042801D0012010BD70
:10086000002010BDD801002410B500F015F80128B3
:1008700001D0022010BD074804F0C8FB044634B97B
:1008800004484FF4804104F06FF800B10124204681
:1008900010BD0000D801002408B501200090FFF72A
:1008A000C5FF08B9002000909DF8000008BD0000B9
:1008B00010B5002413460A460146034804F0ACFC78
:1008C00000B10124204610BDD801002402480022B6
:1008D0000121406809F022B91C00002410B5002451
:1008E00013460A460146034804F00AFD00B10124FC
:1008F000204610BDD8010024024800220221406891
:1009000009F00CB91C000024FEE7000010B50D4CE6
:100910009FED0D1B04F1080194ED0A0B30EE010B65
:1009200084ED0A0B606809F038FFA068002807D042
:1009300007494FF080500860BFF34F8FBFF36F8FB0
:1009400010BD0000B80000247B14AE47E17A843F5C
:1009500004ED00E0014801F0AFB80000440A0024B3
:10096000014801F0A9B80000240C0024014801F05E
:10097000A3B80000CC090024014801F09DB8000094
:10098000AC0B0024014801F097B80000BC0A002419
:10099000014801F091B800009C0C0024014801F0CE
:1009A0008BB80000340B0024294A016891423AD0E8
:1009B000274A1832914236D0254A3032914232D0FD
:1009C000234A483291422ED0214A603291422AD0A5
:1009D0001F4A7832914226D01D4A9032914222D04D
:1009E0001B4AA83291421ED01A4A91421BD0194A82
:1009F0001832914217D0174A3032914213D0154A1B
:100A0000483291420FD0134A603291420BD0114AC2
:100A10007832914207D00F4A9032914203D00D4A6A
:100A2000A832914211D1CAB21823103AB2FBF3F2A4
:100A30006FF30901032A02F00703074AD25CC2657B
:100A400000D9091D81650846704721F0FF01F9E7CB
:100A5000100002401004024080AE000830B5224A67
:100A6000012301689142CAB21BD01F4C1434A14229
:100A700017D01D4C2834A14213D01B4C3C34A1424A
:100A80000FD0194C5034A1420BD0174C6434A14202
:100A900007D0154C7834A14203D0134C8C34A142BA
:100AA0000CD11421114C083AB2FBF1F10F4A8032FB
:100AB00001F01F0504EB8101AB4010E00C4D182440
:100AC000103A0D44B2FBF4F1A82D00D80831094AC0
:100AD00001F01F0402EB8101064AA340803260301E
:100AE00080E80E0030BD000008540258005802583B
:100AF000F0FBFDBF0008024010B50279531E072B22
:100B00002DD8174C0168A1421BD0154C1434A142BA
:100B100017D0134C2834A14213D0114C3C34A142BD
:100B20000FD00F4C5034A1420BD00D4C6434A14275
:100B300007D00B4C7834A14203D0094C8C34A1422D
:100B400003D10849074C443102E00749064C4431BF
:100B500004EB8202C0E91B2101219940416710BDCD
:100B600008540258FC580258FC08024010B583692A
:100B70004FF0C074826A0146002053B1B3F5005FA4
:100B800015D072B1012A0CD0022A0AD0032A09D149
:100B900004E01AB1012A06D0022A03D1C96AC901A8
:100BA00000D5012010BDC96AA142FAD010BD002AAB
:100BB000F7D0012AF2D0022AF3D0032AF3D010BDD5
:100BC0002DE9F04F804E804FDFF8FC911836DFF8AA
:100BD000F8A148370468856D0AF1300ADFF8ECB1F6
:100BE0004C45DFF8ECC1DFF8ECE16DD0B4426BD0DE
:100BF000544569D0BC4267D0DFF8D081A8F118080D
:100C0000444561D05C455FD064455DD074455BD0A0
:100C1000DFF8C481444557D0DFF8BC8108F11808DB
:100C2000444551D0DFF8B08108F1300844454BD03D
:100C3000DFF8A48108F14808444545D0DFF89881E1
:100C400008F1600844453FD0DFF88C8108F178084E
:100C5000444539D0DFF8808108F19008444533D00D
:100C6000DFF8748108F1A80844452DD0DFF86C81C5
:100C7000444529D0DFF8648108F11408444523D0A5
:100C8000DFF8588108F1280844451DD0DFF84C8171
:100C900008F13C08444517D0DFF8408108F15008BE
:100CA000444511D0DFF8348108F1640844450BD085
:100CB000DFF8288108F17808444505D0DFF81C8169
:100CC00008F18C08444509D1D0E91948C4F80480DA
:100CD000C46E1CB1D0E91C48C4F8048004684C45BB
:100CE0002ED0B4422CD054452AD0BC4228D0374E06
:100CF000183EB44224D05C4522D0644520D07445CF
:100D00001ED0354EB4421BD0334E1836B44217D0E5
:100D1000314E3036B44213D02F4E4836B4420FD045
:100D20002D4E6036B4420BD02B4E7836B44207D0ED
:100D3000294E9036B44203D0274EA836B44215D17E
:100D400090F85C603F2406F01F06B440AC60046875
:100D5000256825F4802525602EE09A600068C16032
:100D6000BDE8F08F99600068C260F9E71B4EB4429D
:100D70001BD01A4E1436B44217D0184E2836B4423F
:100D800013D0164E3C36B4420FD0144E5036B442F7
:100D90000BD0124E6436B44207D0104E7836B442AF
:100DA00003D00E4E8C36B442DAD190F85C60012448
:100DB00006F01F06B4406C60046863608368402BD3
:100DC0000368CFD1C9E7000010000240880002404C
:100DD000A0000240B800024010040240085402582B
:100DE000704772B6FEE70022AFF3008084464DF8EC
:100DF000044D01200E4B5C7A002C16D1587A1C54FD
:100E0000587A03EB8000C0F804C0587A03F1080C4C
:100E100000F80C20587A421C5A72303008703A2080
:100E200048702F208870CC7000205DF8044B70470C
:100E3000600D00242DE9F84F4FF0000B0446E54EFD
:100E40000D46CDF800B05F4690F85000DFF888A35B
:100E5000012808D04FF0010984F85090206805F06F
:100E600061FE18B169E10220BDE8F88F21682868A9
:100E7000CA69030328D090FAA0F0B0FA80F000BF4E
:100E800000F01F0309FA03F00243CA61D5E900121A
:100E90004FF00C0C20681F23C1F384610CEA921CF4
:100EA00002F01F02604493409140026B9A430A4350
:100EB0000263206805F036FE8046206805F02EFEAD
:100EC00058EA000003D07FE0C0F38460D8E72068D0
:100ED000AA68296805F02AFEC0490968B9EB117FA4
:100EE00006D121686869C968C1F38201490008E038
:100EF0002068C168C906C1686869F5D501F01001AC
:100F000049088840296904292ED022682B6802EB01
:100F1000810103F0F8420B6E024303F000401043DE
:100F20000866697E22682869012917D05FF00001F0
:100F300002EB8000026E22F000420A430266287E25
:100F400021682A6901280CD000200B6902F01F02D9
:100F5000904023F4F04202430A6135E04FF0004133
:100F6000E6E74FF40060F0E720682978026E02F0AF
:100F7000F842B2EB816F03D1016E21F000410166AE
:100F800020682978426E02F0F842B2EB816F03D1FB
:100F9000416E21F00041416620682978826E02F09E
:100FA000F842B2EB816F03D1816E21F0004181667E
:100FB00020682978C26E02F0F842B2EB816F03D14B
:100FC000C16E21F00041C1662068816811F0010FF7
:100FD00076D150F8C02F95F80CC0814B29680CF0E1
:100FE000180C23FA0CF3C1F313080B4022EA080291
:100FF0001A4302607B48E968814277D1286801037F
:101000001BD090FAA0F1B1FA81F1491C01F01F0147
:1010100009294FEA003131D8002911D090FAA0F106
:10102000B1FA81F101F1010101F01F0109FA01F2A8
:1010300009D100BFC0F3846109E0C0F38461E4E733
:10104000C0F38461EEE790FAA0F1B1FA81F101F109
:10105000010101F01F0142EA816102D1C0F3846005
:1010600003E090FAA0F0B0FA80F000F1010000F087
:101070001F0000EB400041EA005133E000290ED090
:1010800090FAA0F1B1FA81F101F1010101F01F0123
:1010900009FA01F206D100BFC0F3846106E0C0F393
:1010A0008461F1E790FAA0F1B1FA81F101F1010157
:1010B00001F01F0142EA816103D1C0F3846004E0C2
:1010C00040E090FAA0F0B0FA80F0474A00F1010049
:1010D00000F01F0000EB400002EB005041EA00016D
:1010E00041F00071AA68206805F020FDD5F800C025
:1010F000BCF1000F26DA3D4B20683D49DFF8F49043
:10110000984201D0B04201D10A4600E04A469268B6
:10111000984202F0E07201D0B04209D19D68D6F841
:10112000088005F0010508F0010845EA080503E01C
:10113000DAF8085005F0010545B1606D012740F06F
:1011400020006065384684F850B08DE62A4DAC45E5
:101150001CD115021AD45045F4D1984202D0B042A5
:1011600000D049468B6842F4000023F0E07202434D
:101170008A60234921480968B1FBF0F04000801CD7
:1011800000E0401E00900028FBD1DBE71D4DAC4580
:101190000CD1D5010AD45045D4D1984202D0B042E6
:1011A00000D049468B6842F080700EE0164DAC4589
:1011B000C8D15502C6D45045C4D1984202D0B042DD
:1011C00000D049468B6842F4800023F0E07202436D
:1011D0008A60B7E700210240006002580010005CFE
:1011E000FFFF0F000000FF47000020FE002002402C
:1011F0000023024000630258000084CB400D03002E
:1012000014000024000052C70000B8CFF8B54FF01A
:10121000000604003546009602D0606D10B107E06C
:101220000120F8BD204600F005F9A66584F850605D
:1012300020688168C1F3407119B18168704A11401A
:10124000816020688168C1F3007181B981686D4A4D
:10125000114041F0805181606C496B480968B1FBD5
:10126000F0F0401C00E0401E00900028FBD12068F8
:101270008168C1F3007141B9616D012541F0100130
:101280006165A16D41F00101A16505F04BFC616D47
:10129000C90600D420B1606D012540F0100093E034
:1012A000606D20F4807040F0020060652068816805
:1012B00011F0010F1FD1564A564B904201D098426F
:1012C00007D191689E6801F0010106F001063143E3
:1012D00003E05149896801F0010161B9904201D0F0
:1012E000984201D14D4800E04D488268616822F47F
:1012F0007C120A43826001F0C1FB41F20301884283
:1013000002D9A06810280CD0617D227FA368206BD1
:10131000490341EA024118430843217F01290CD0C7
:1013200010E0607D227F216B400340EA024241F0E1
:101330001000104340F00C00EFE7218C394A02EB1B
:1013400041410843616A29B1A26A01F478710143FD
:1013500042EA01002168344BCA681A400243CA605D
:10136000206805F0DFFB0646206805F0D7FB304318
:101370001DD1216844F20303267DE26AC86842EA6F
:10138000863298431043C86094F8380001281ED074
:101390002068016921F0010101612068626B016927
:1013A00021F07041114301612046FFF7BBF9E0686D
:1013B000012820681CD0016B21F00F010163606DD2
:1013C00020F0020040F0010060652846F8BD20686A
:1013D000A28F164FD4E9101C154E07EB0247A36CE1
:1013E000026941EA0C013B43324019431143D3E700
:1013F000A269016B521E21F00F011143DEE70000CC
:10140000C0FFFF5FC0FFFF7F400D030014000024FA
:1014100000200240002102400060025800230240E8
:10142000006302580000FEFF03C0F0FF0100FFFF51
:101430001EF800FC70B5B6B00446142130A8FFF7C2
:1014400014F9C0216846FFF710F91E492068884248
:1014500035D104202423002201251446CDE9033090
:101460004FF400218DE82600C026CDE907620992DD
:101470002992CDE90505684602F052F808B1FFF758
:10148000B0FC1148016841F080710160016801F011
:1014900080713591016841F004010160006830A954
:1014A00000F00400359003203095CDE93104074861
:1014B00001F0C4F94FF00060014604F0CDF836B0F9
:1014C00070BD000000600258E04402580008025855
:1014D0002DE9F84F044601F0D7FA00903CB194F89A
:1014E0003500022806D0802161650020E4E001205B
:1014F000BDE8F88FC74DC74EC6491835206830364D
:10150000DFF81483DFF814938842DFF814A3DFF8C0
:1015100014B32ED0A8422CD0B0422AD0404528D0B7
:10152000484526D0504524D0584522D0BD4A1832CF
:1015300090421ED0BC4A90421BD0BB4A1832904207
:1015400017D0B94A3032904213D0B74A483290424D
:101550000FD0B54A603290420BD0B34A78329042F5
:1015600007D0B14A9032904203D0AF4AA83290429D
:1015700009D1026822F01E0202602068426922F04E
:101580008002426103E0026822F00E0202602768D6
:101590008F4238464DD0A8424BD0B04249D040454A
:1015A00047D0484545D0504543D0584541D09D4A45
:1015B000183290423DD09C4A90423AD09A4A183212
:1015C000904236D0984A3032904232D0964A4832D1
:1015D00090422ED0944A603290422AD0924A783279
:1015E000904226D0904A9032904222D08E4AA83221
:1015F00090421ED08D4A90421BD08C4A14329042A9
:1016000017D08A4A2832904213D0884A3C329042FE
:101610000FD0864A503290420BD0844A64329042B6
:1016200007D0824A7832904203D0804A8C32974267
:1016300004D1206E026822F480720260754920682D
:10164000884228D0A84226D0B04224D0404522D09B
:10165000484520D050451ED058451CD071491831FE
:10166000884218D07049884215D06F491831884295
:1016700011D06D49303188420DD06B4948318842D4
:1016800009D069496031884205D06749783188427C
:1016900001D065499031016821F0010101600EE03F
:1016A00001F0F2F90099401A052808D92022626554
:1016B0000321002084F8351084F8340017E73868D7
:1016C000C007EDD1534A0121206890422ED0A84294
:1016D0002CD0B0422AD0404528D0484526D050458D
:1016E00024D0584522D04F4B183398421ED04E4B31
:1016F00098421BD04C4B1833984217D04A4B30338A
:10170000984213D0484B483398420FD0464B603331
:1017100098420BD0444B7833984207D0424B9033D9
:10172000984203D0404BA833984208D194F85C709B
:101730003F23A06D07F01F07BB40836007E094F8CC
:101740005C30A06D03F01F0301FA03F343602068CF
:1017500090424DD0A8424BD0B04249D0404547D0EE
:10176000484545D0504543D0584541D02D4A1832C0
:1017700090423DD02C4A90423AD02B4A18329042A7
:1017800036D0294A3032904232D0274A48329042ED
:101790002ED0254A603290422AD0234A7832904295
:1017A00026D0214A9032904222D01F4AA83290423D
:1017B0001ED01E4A90421BD01C4A1432904217D0B1
:1017C0001A4A2832904213D0184A3C3290420FD025
:1017D000164A503290420BD0144A6432904207D0DD
:1017E000124A7832904203D0104A8C3290420BD188
:1017F000D4E919024260E06E30B1026822F48072CE
:101800000260D4E91C024260002084F8351084F89C
:1018100034006DE6100002405800024070000240A3
:1018200088000240A0000240100402400854025800
:101830002DE9F05F28B190F83510022904D08021FD
:1018400041650120BDE8F09F904C904B0168183C29
:1018500018338E4ADFF83C92A1428D4CDFF838E213
:101860008E4FDFF83CB2DFF83CA28F4D8F4E31D067
:1018700091422FD099422DD0A1422BD0494529D059
:10188000714527D0B94225D0DFF810C20CF1180CF1
:1018900061451FD0DFF808C2ACF1600C614519D07A
:1018A000DFF8FCC1ACF1480C614513D0DFF8F0C1A2
:1018B000ACF1300C61450DD0DFF8E4C1ACF1180C8F
:1018C000614507D0594505D0514503D0A94201D003
:1018D000B1422CD1DFF8B4C14FF0040880F8358054
:1018E000ACF1180C61451DD091421BD0994219D022
:1018F000A14217D0494515D0714513D0B94211D036
:101900006648183081420DD065486038814209D060
:1019100063484838814205D061483038814201D05F
:101920005F481838086820F001000860ABE0D1F883
:1019300000C02CF00E08DFF854C1C1F80080ACF1F3
:10194000180C0168614527D0914225D0994223D0D7
:10195000A14221D049451FD071451DD0B9421BD0AD
:10196000DFF838C10CF1180C614515D0DFF830C133
:10197000ACF1600C61450FD0DFF824C1ACF1480C2C
:10198000614509D0DFF818C1ACF1300C614503D0D6
:10199000DFF80CC1ACF1180CD1F800C02CF0010C30
:1019A000C1F800C0DFF8E4804FF0010C0168A8F135
:1019B0001808414546D0914244D0994242D0A142B4
:1019C00040D049453ED071453CD0B9423AD0334A27
:1019D0001832914236D0324A603A914232D0304A7F
:1019E000483A91422ED02E4A303A91422AD02C4A7F
:1019F000183A914226D0594524D0514522D0A942C7
:101A000020D0B1421ED02A4A91421BD0284A14321B
:101A1000914217D0264A2832914213D0244A3C32B0
:101A200091420FD0224A503291420BD0204A643268
:101A3000914207D01E4A7832914203D01C4A8C3220
:101A4000914218D1016E0A6822F480720A6090F8FF
:101A50005C20816D02F01F020CFA02F24A60D0E9AC
:101A600019124A60C16E31B10A6822F480720A60AC
:101A7000D0E91C124A600022016D80F835C080F860
:101A8000342001B188470020DCE600002800024035
:101A9000580002407000024088000240A00002404E
:101AA0007004024088040240A0040240B8040240CE
:101AB00008540258406D70472DE9FC5F0446F74E0C
:101AC0000020DFF8D88300904FF41652F44808F154
:101AD0001808A56DDFF8C493DFF8C0A3016809F109
:101AE000300920680AF1480AB1FBF2F1B0420191D5
:101AF0002F68D5F800C0DFF8ACB335D04146884236
:101B000032D0484530D050452ED058452CD0E549EC
:101B10001831884228D0E3493031884224D0E14945
:101B20004831884220D0E04988421DD0DE49183132
:101B3000884219D0DC493031884215D0DA49483121
:101B4000884211D0DFF860E30EF1600E70450BD0D3
:101B5000D54A7832904207D0D34B9033984203D085
:101B6000D149A83188427DD194F85C20082102F047
:101B70001F0201FA02F23A424AD0B04232D0404546
:101B800030D048452ED050452CD058452AD0C54A93
:101B90001832904226D0C34A3032904222D0C14AF5
:101BA000483290421ED0C04A90421BD0BE4A1832E2
:101BB000904217D0BC4A3032904213D0BA4A4832D1
:101BC00090420FD0B84A603290420BD0B64A783279
:101BD000904207D0B44A9032904203D0B24AA83221
:101BE000904203D1026802F0040202E0026802F0AF
:101BF00008026AB1026822F00402026094F85C00F4
:101C000000F01F008140A960606D40F00100606538
:101C100094F85C00012100F01F008140394240D05F
:101C20002068B04234D0404532D0484530D050458D
:101C30002ED058452CD09B4A1832904228D0994A31
:101C40003032904224D0974A4832904220D0964A6F
:101C500090421DD0944A1832904219D0924A3032A4
:101C6000904200E0AFE113D08F4A483290420FD04B
:101C70008D4A603290420BD08B4A7832904207D026
:101C8000894A9032904203D0874AA83290427DD14F
:101C9000406910F0800F04D0A960606D40F0020030
:101CA000606594F85C00042100F01F008140394217
:101CB0003ED02068B04232D0404530D048452ED08A
:101CC00050452CD058452AD0764A1832904226D01A
:101CD000744A3032904222D0724A483290421ED02A
:101CE000714A90421BD0704A1832904217D06E4A07
:101CF0003032904213D06C4A483290420FD06A4A38
:101D0000603290420BD0684A7832904207D0664ADF
:101D10009032904203D0644AA83290424ED100687B
:101D200010F0020F04D0A960606D40F004006065FF
:101D300094F85C00102100F01F008140394258D017
:101D40002068B04234D0404532D0484530D050456C
:101D50002ED058452CD0534A1832904228D0514AA0
:101D60003032904224D04F4A4832904220D04E4ADE
:101D700090421DD04C4A1832904219D04A4A303213
:101D8000904215D0484A4832904200E014E00FD00B
:101D9000454A603290420BD0434A7832904207D095
:101DA000414A9032904203D03F4AA832904207D134
:101DB000006800F0080006E0006872E70068B7E716
:101DC000006800F00400A0B1A96020680168490320
:101DD00004D50068000308D5A16C07E00168C905B7
:101DE00003D4016821F008010160216C09B120468B
:101DF000884794F85C00202100F01F0081403942A0
:101E000079D02068B04232D0404530D048452ED0FD
:101E100050452CD058452AD0224A1832904226D01C
:101E2000204A3032904222D01E4A483290421ED080
:101E30001D4A90421BD01C4A1832904217D01A4AB1
:101E40003032904213D0184A483290420FD0164A8E
:101E5000603290420BD0144A7832904207D0124A36
:101E60009032904203D0104AA832904203D10068C9
:101E700000F0100002E0006800F00200B0B3A960BA
:101E800094F835000428206801680FD049037ED5F6
:101E9000006800032BD4616C2AE0000010000240AF
:101EA00014000024700002401004024021F01601CA
:101EB00001602068416921F080014161206C08B90E
:101EC000A06C20B12068016821F00801016094F83D
:101ED0005C303F21012003F01F0300229940A960DC
:101EE00084F8350084F83420216D65E003E0E16B6F
:101EF00009B120468847606D00287DD0606DC0071D
:101F000059D02068042184F83510B0422BD04045C8
:101F100029D0484527D0504525D0584523D09D4944
:101F2000884220D09B49183188421CD099493031D1
:101F3000884218D09849884215D09749183188426C
:101F400011D09549303188420DD0934948318842AB
:101F500009D091496031884205D08F497831884253
:101F600001D08D499031016821F0010101602068A4
:101F70000099019A491C0091914202D80168C90751
:101F8000F6D10068C00710D003200FE0FFE701681A
:101F9000C905ACD403680121002223F010030360BB
:101FA00084F8351084F83420A1E7012084F8350046
:101FB000002084F83400E16C00291DD002B02046D6
:101FC000BDE8F05F0847754988421DD07349143158
:101FD000884219D071492831884215D06F493C3167
:101FE000884211D06D49503188420DD06B4964311F
:101FF000884209D0694900E084E07831884203D002
:1020000066498C3188427DD194F85C800427016850
:1020100008F01F0807FA08F717EA0C0F009746D0D8
:102020004F0744D500980F04686003D5C8033CD41B
:10203000A16CC1E7880638D42068B0422DD055493C
:102040006039884229D0484527D0504525D0584589
:1020500023D05049884220D04E49183188421CD0A4
:102060004C493031884218D04B49884215D04A49F2
:102070001831884211D04849303188420DD0464944
:102080004831884209D0704507D0904205D0984227
:1020900003D04149A831884203D1016821F00801E9
:1020A00002E0016821F004010160216C84E702274D
:1020B00007FA08F717EA0C0F00974ED08F074CD598
:1020C00000980F04686003D5C80344D4616C73E7BB
:1020D000880640D42068B0422FD02E49603988420B
:1020E0002BD0484529D0504527D0584525D02949DF
:1020F000884222D02749183188421ED025493031E4
:10210000884200E044E018D02349884215D0224993
:102110001831884211D02049303188420DD01E49F3
:102120004831884209D0704507D0904205D0984286
:1021300003D01949A831884203D1016821F0140164
:1021400002E0016821F00A010160012184F83510E4
:10215000002084F83400E16B2EE7082202FA08F22E
:1021600012EA0C0F14D0090712D5016821F00E01F4
:10217000016094F85C100120002201F01F0100FAB8
:1021800001F16960606584F8350084F8342012E755
:10219000BDE8FC9F88000240100402400854025829
:1021A0002DE9F05F044600F06FFC002C07467DD05F
:1021B000E34E022120684FF00308DFF888934FF0C8
:1021C0000005DFF884A3B042DFF880B334D0DC4AE6
:1021D0001832904230D048452ED050452CD058452A
:1021E0002AD0DA4A1832904226D0D84A3032904269
:1021F00022D0D64A483290421ED0D54A90421BD0B7
:10220000D34A1832904217D0D14A3032904213D07C
:10221000CF4A483290420FD0CD4A603290420BD024
:10222000CB4A7832904207D0C94A9032904203D0CC
:10223000C74AA83290427DD184F83510B04284F864
:1022400034502ED0BE49183188422AD0484528D073
:10225000504526D0584524D0BC491831884220D05A
:10226000BA49303188421CD0B8494831884218D028
:10227000B749884215D0B6491831884211D0B449BF
:10228000303188420DD0B2494831884209D0B04936
:102290006031884205D0AE497831884201D0AC49DE
:1022A0009031016821F00101016008E027E100BFE1
:1022B00000F0EAFBC01B052801D920211CE12068A1
:1022C0000068C007F4D104F108002168D4E9053C96
:1022D0008E4685C809681043D4E907281F43636AFE
:1022E00038439C4F40EA0C001043394040EA080054
:1022F000042B40EA010003D1D4E90B121143084337
:10230000954909686FF30F01B1F1005F0FD3616860
:10231000A1F12902052A08D9163A032A05D9083A53
:10232000012A02D94F39032901D840F48010CEF890
:10233000000000E023E02068676A4069042F20F075
:10234000070047EA00070DD1D4E90A01074349B164
:102350002046FEF70BFC28B140206065012184F87F
:102360003510CCE0206847612046FEF71DFB94F84D
:102370005C203F2102F01F029140816054E0774AC7
:1023800090421BD0754B1433984217D0734B2833AF
:10239000984213D0714B3C3398420FD06F4B50335F
:1023A00098420BD06D4B6433984207D06B4B783317
:1023B000984203D0694B8C3398427DD184F8351014
:1023C00084F83450664B0168A26801EA030E402A83
:1023D00073D0802A72D00022D4E90378D4E9053181
:1023E00042EAD70242EAD8085C4AD4E9077C48EAC4
:1023F000D30848EAD10141EAD701524241EA1C110F
:10240000142341EA0E01016020681044B0FBF3F090
:102410008000E0652046FEF7C7FA94F85C200121B1
:1024200002F01F02914041602068B04257D04449F9
:102430001831884253D0484551D050454FD0584567
:102440004DD042491831884249D040493031884204
:1024500045D03E494831884241D03D4988423ED02E
:102460003B49183188423AD039493031884236D018
:1024700037494831884232D03549603188422ED0C0
:102480003349783188422AD031499031884226D068
:102490002F49A831884222D0304988421FD02F4985
:1024A000143188421BD02D492831884217D02B493E
:1024B0003C31884213D002E01DE017E018E02749C4
:1024C000503188420BD025496431884207D02349D6
:1024D0007831884203D021498C31884229D1204665
:1024E000FEF7BCFAA06880280CD00CE0102273E73D
:1024F0004FF4804270E74021616584F83580012007
:10250000BDE8F09F6560216E20790860D4E919016B
:1025100041606068401E072808D82046FEF7ECFAA4
:10252000E06E0560D4E91C01416002E0E5662567C4
:1025300065670120656584F835000020E0E700004C
:10254000100002404000024058000240700002406B
:10255000100402403F8010FE0010005C0854025836
:102560000F00FEFF2DE9F84F04008C464FF00000ED
:10257000009014D094F83400012812D094F835500B
:102580000120002184F83400012D0CD0C0026065C8
:102590000120009084F834100098BDE8F88F0120E5
:1025A000FBE70220F9E78C4D0226206884F83560AD
:1025B000A8428A4D61658A4E8A4FDFF82C82DFF887
:1025C0002C92DFF82CA2DFF82CB226D0A84224D01F
:1025D000B04222D0B84220D040451ED048451CD041
:1025E00050451AD0584518D08349884215D08249A1
:1025F0001831884211D08049303188420DD07E494F
:102600004831884209D07C496031884205D07A49F6
:102610007831884201D078499031016821F0010178
:10262000016061462046FEF7CBFA6B49206888427C
:102630002CD0A8422AD0B04228D0B84226D040455B
:1026400024D0484522D0504520D058451ED06A4A53
:1026500090421BD0684A1832904217D0664A3032F6
:10266000904213D0644A483290420FD0624A60329E
:1026700090420BD0604A7832904207D05E4A903246
:10268000904203D05C4AA83290420CD1026822F0FA
:102690001E0242F016020260206C88B120680268B7
:1026A00042F008020BE0026822F00E0242F00A0239
:1026B0000260206C20B12068026842F004020260CF
:1026C000206888424BD0A84249D0B04247D0B84297
:1026D00045D0404543D0484541D050453FD058456E
:1026E0003DD0454A90423AD0434A1832904236D0C3
:1026F000414A3032904232D03F4A483290422ED046
:102700003D4A603290422AD03B4A7832904226D0ED
:10271000394A9032904222D0374AA83290421ED095
:10272000364A90421BD0354A1432904217D0334A71
:102730002832904213D0314A3C3290420FD02F4A77
:10274000503290420BD02D4A6432904207D02B4A2F
:102750007832904203D0294A8C3290420DD1206EBB
:102760000268D20303D5026842F480720260E06E10
:1027700018B1026842F4807202602068884226D054
:10278000A84224D0B04222D0B84220D040451ED02A
:1027900048451CD050451AD0584518D01649884293
:1027A00015D015491831884211D01349303188426B
:1027B0000DD011494831884209D00F496031884213
:1027C00005D00D497831884201D00B49903101681C
:1027D00041F001010160DFE61000024028000240E4
:1027E0004000024058000240700002408800024051
:1027F000A0000240B80002401004024008540258F1
:102800000D4900220B685A620A68136843F00103FD
:10281000136009684A6A8242FCD3086A41F21112C5
:10282000104207D1086A9210104203D1086820F0C4
:102830000100086070470000480400242DE9F84FAB
:1028400003247D4D00234FF001094FF0B04B4FF0B2
:102850000F0AE9E009FA03F73A4076D00E7906F05C
:102860000306012E01D0022E18D1D0F808C04FEA7D
:10287000430ECE6804FA0EF82CEA080C06FA0EF69F
:1028800046EA0C068660D0F804C00E792CEA070CE4
:10289000C6F300169E4046EA0C0646600E79F643E3
:1028A000B6070BD0C6684FEA43088F6804FA08FCE5
:1028B00026EA0C0607FA08F73743C7600E7906F0D8
:1028C0000306022E12D1DE080F694FEA437C00EBAB
:1028D0008606B646366A4FEADC6C0AFA0CF807FA46
:1028E0000CF726EA08063743CEF820700F79066801
:1028F0004FEA430807F0030704FA08FC07FA08F751
:1029000026EA0C06374307604E6816F4403F1CD099
:102910004A4E376847F00207376036689F0706F06F
:102920000206009623F0030606F1B046B6463F0FB6
:10293000D6F80864DFF808810AFA07FC404526EA61
:102940000C0603D14FF0000C41E06CE0DFF8F4C05E
:10295000604502D14FF0010C39E0DFF8ECC0604572
:1029600002D14FF0020C32E0DFF8E0C0604502D146
:102970004FF0030C2BE0DFF8D8C0604502D14FF0D8
:10298000040C24E0DFF8CCC0604502D14FF0050C08
:102990001DE0DFF8C4C0604502D14FF0060C16E020
:1029A000DFF8B8C0604502D14FF0070C0FE0DFF848
:1029B000B0C0604502D14FF0080C08E0DFF8A4C0B9
:1029C000604502D14FF0090C01E04FF00A0C0CFAFF
:1029D00007FC4CEA060CCEF808C44F68DBF8006030
:1029E000FF0226EA020600D516435F46CBF80060D8
:1029F000D1F804C0DBF804605FEA8C2C26EA0206FA
:102A000000D516437E606E684F6826EA0206BF0353
:102A100000D516436E602E684F6826EA0206FF0353
:102A200000D516432E605B1C0A6832FA03F67FF469
:102A300011AFBDE8F88F000080000058F444025840
:102A4000000002580004025800080258000C025806
:102A5000001002580014025800180258001C0258B6
:102A600000200258002402580069084000D00120CC
:102A700070470AB1816170470904FBE701480068AB
:102A8000000C70470010005C01488068704700002F
:102A90000800002430B590F84120202A24D190F875
:102AA0004020012A20D0012380F84030242280F8E1
:102AB0004120202300240268156825F001051560D7
:102AC0000268156825F480551560026815680D4385
:102AD000156001680A6842F001020A6080F841301E
:102AE00080F84040002030BD022030BD30B590F865
:102AF0004120202A22D190F84020012A1ED0012313
:102B000080F84030242280F84120202400250268EB
:102B1000136823F0010313600268136823F47063E1
:102B200043EA0121116001680A6842F001020A606B
:102B300080F8414080F84050002030BD022030BD78
:102B400070B5040004D094F84100002510B106E0EF
:102B5000012070BD204684F8405000F04DF824203C
:102B600084F841002068016821F001010160D4E986
:102B7000001020F0706008612068816821F4004135
:102B80008160E06821680128A06806D040F4044014
:102B90008860E068022803D006E040F40040F7E7D0
:102BA00021684FF40060486020212068114A436882
:102BB000134343602068C26822F40042C26054F8A4
:102BC000106B0DCC104340EA0320F06054F81C3C1D
:102BD000D4E900021043186054F81C0D026842F05A
:102BE00001020260656484F84110256384F8425054
:102BF000002070BD0080000210B5B6B0044614215C
:102C000030A8FDF732FDC0216846FDF72EFD1849BA
:102C1000206888422AD10020219008210446CDE96D
:102C20000010684600F07CFC08B1FEF7DAF81148A5
:102C3000016841F002010160006830AB122100F030
:102C400002003590C020042283E813000A4830A90E
:102C5000CDE93342FFF7F2FD06480830016841F440
:102C600000110160006800F40010359036B010BD0E
:102C700000540040E04402580004025802488168B1
:102C8000027811448160704708000024032010B5C9
:102C900000F0ACF801F0BCFA0F4A10491468136850
:102CA000C4F3032203F00F038A5CC95C02F01F0225
:102CB00001F01F01D0400A4A20FA01F111600949D0
:102CC00008600F2000F010F808B1012010BD00F0DE
:102CD0004DF8002010BD000018440258B0AE0008A6
:102CE000180000241400002410B5102804468AB0EF
:102CF0002AD200220146762000F058F8762000F013
:102D000047F8154804601548016841F480210160C6
:102D1000006808A900F480200990684601F004FAD0
:102D200001F064FA0E49400000220E4CB0FBF1F1B4
:102D30000D4840F2E7330460C0E90332491EC0E9A0
:102D4000011202F0E7FC10B101200AB010BD0648E4
:102D500002F0B6FDF9E700000C000024F044025830
:102D600040420F0000480140140D0024074882B083
:102D7000016841F002010160006800220F2100F0AB
:102D800002000090901E02B000F010B8F444025807
:102D9000002809DB410900F01F028900012001F130
:102DA000E0219040C1F80001704700000E4BF0B4E4
:102DB0001B680D46C3F30223C3F10706042E00D996
:102DC0000426191D072901D2002300E0DB1E01247F
:102DD00004FA06F19C40491E2940641E99401440A3
:102DE0002143F0BC06F0EDBC0CED00E0064900F01C
:102DF000070210B54FF6FF040868044B204040EA74
:102E000002201843086010BD0CED00E00000FA0538
:102E1000134970B50A68D243520705D5096801F015
:102E20000701814213D118E00A6822F00702024329
:102E30000A60FFF729FE0A4D4FF47A760446083DF2
:102E400007E000BFFFF720FE001BB04201D90120C0
:102E500070BD2868C0438004F4D4002070BD000019
:102E60000C48025810B501F08DF905490968054A6A
:102E7000C1F30211515C01F01F01C84010BD0000F8
:102E800020440258B0AE00084A4930B5494C0B1DE9
:102E90000A680C3409681D68246802F0030305F011
:102EA0000102C1F30511C4F3CC04002914FB02F2A2
:102EB00000EE102AF8EE400A76D0414A9FED3E1A05
:102EC000DFED3E1AB7EE000A23B1012B5AD0022BD8
:102ED00018D15CE0374C283C23689B0612D5394B4F
:102EE000246801EE901A1168C4F3C104F8EE612A57
:102EF000E34001EE903AC1F30801F8EE611A81EE69
:102F0000A22A07E002EE101A1168F8EE422A81EEBA
:102F1000A22A45E001EE901A1168F8EE611A40EE1F
:102F2000811A71EE800A62EE200AC1F3462101EE99
:102F3000101AB8EE411A31EE001AC0EE811ABCEE3A
:102F4000E11A80ED001A1168C1F3064101EE101A72
:102F5000B8EE411A31EE001AC0EE811ABCEEE11A49
:102F600080ED011A1168C1F3066101EE101AB8EE86
:102F7000411A31EE000A80EE801ABCEEC10A80EDE3
:102F8000020A30BD01EE901ADFED0F2A03E001EED8
:102F9000901ADFED0E2A1168F8EE611A82EEA12A6E
:102FA000C1F30801B6E7FFE70021016041608160DD
:102FB00030BD000028440258000000390024744C41
:102FC000304402580090D0030024744A0024F44A8C
:102FD000494930B5484C0B1D0A68143409681D680E
:102FE000246802F00303C5F30012C1F30531C4F3F2
:102FF000CC04002914FB02F200EE102AF8EE400A7D
:1030000075D03F4A9FED3D1AB7EE000A6BB1DFED78
:103010003D1A012B01D0022B64D002EE101A116868
:10302000F8EE422A81EEA22A21E0334C283C2368A4
:103030009B0612D5344B246801EE901A1168C4F334
:10304000C104F8EE612AE34001EE903AC1F30801B1
:10305000F8EE611A81EEA22A0BE001EE901ADFED84
:103060002B2A00BFF8EE611A116882EEA12AC1F383
:10307000080101EE901A1168F8EE611A40EE811A0B
:1030800071EE800A62EE200AC1F3462101EE101AA9
:10309000B8EE411A31EE001AC0EE811ABCEEE11A08
:1030A00080ED001A1168C1F3064101EE101AB8EE66
:1030B000411A31EE001AC0EE811ABCEEE11A80ED21
:1030C000011A1168C1F3066101EE101AB8EE411A37
:1030D00031EE000A80EE801ABCEEC10A80ED020AD1
:1030E00030BD04E001EE901ADFED092ABAE70021B5
:1030F000016041608160F3E7284402580000003914
:10310000384402580024744A0090D0030024744CC0
:103110000024F44A494930B5484C0B1D0A681C3458
:1031200009681D68246802F00303C5F30022C1F397
:103130000551C4F3CC04002914FB02F200EE102A5E
:10314000F8EE400A75D03F4A9FED3D1AB7EE000AEF
:103150006BB1DFED3D1A012B01D0022B64D002EEE2
:10316000101A1168F8EE422A81EEA22A21E0334CAF
:10317000283C23689B0612D5344B246801EE901A34
:103180001168C4F3C104F8EE612AE34001EE903AFD
:10319000C1F30801F8EE611A81EEA22A0BE001EEFC
:1031A000901ADFED2B2A00BFF8EE611A116882EE4B
:1031B000A12AC1F3080101EE901A1168F8EE611A14
:1031C00040EE811A71EE800A62EE200AC1F34621B8
:1031D00001EE101AB8EE411A31EE001AC0EE811A53
:1031E000BCEEE11A80ED001A1168C1F3064101EE50
:1031F000101AB8EE411A31EE001AC0EE811ABCEE78
:10320000E11A80ED011A1168C1F3066101EE101A8E
:10321000B8EE411A31EE000A80EE801ABCEEC10A07
:1032200080ED020A30BD04E001EE901ADFED092ABC
:10323000BAE70021016041608160F3E72844025849
:1032400000000039404402580024744A0090D00322
:103250000024744C0024F44A2DE9F04FAD4A054691
:10326000DFF8ACA280F48070DFF8AC9289B0131163
:10327000AA4C0843AAF104064FF0805C4FF00058B6
:103280004FEAE2002CD085F400770F4357D0DFF8E7
:1032900080B285F480670F430BF1080B61D085F491
:1032A00000670F4374D085F480570F436ED085F4C8
:1032B00000570F434FF480394FF4003E67D085F438
:1032C00000270F4371D085F480370F436ED085F40B
:1032D00080460E436BD085F400420A4368D02AE052
:1032E000DAF8001001F00701052924D2DFE801F027
:1032F00075BC7D25B10006A8FFF7C6FD079809B08B
:10330000BDE8F08F6846FFF763FE0098F7E703A873
:10331000FFF700FF0398F2E72068C0F3C10022FA2C
:1033200000F0ECE72268D20571D561456FD11846EF
:10333000E5E74145E3D00020E1E74846DFE7DAF87A
:10334000001001F4E07180294FD004DC002944D042
:103350004029F0D188E0C029EFD0B1F5807FEAD1D3
:1033600077E0DBF8001001F46001B1F5800F3CD08C
:1033700004DC91B3B1F5001FDDD175E0B1F5C00FEC
:10338000DBD0B1F5000FD6D163E001E018E030E00A
:10339000DBF8001001F0E061B1F1007F25D008DC1E
:1033A000D9B1B1F1807FC6D15EE049E06CE079E04F
:1033B0009CE0B1F1407FC0D0B1F1806FBBD148E05B
:1033C000DAF8001001F4E041B1F5005F0DD005DC42
:1033D00019B1B1F5805FAED146E094E0B1F5405F40
:1033E000ABD0B1F5804FA6D133E020688000A2D5E4
:1033F0008DE7DAF8001001F4E021B1F5403F6CD020
:1034000006DC61B149457AD0714594D157E037E087
:10341000B1F5802F65D0B1F5A02F8CD10CE000F074
:10342000D3FE6CE76846FFF7D3FD019867E703A872
:10343000FFF770FE049862E721688903F1D47AE708
:10344000DBF8001011F440310ED0494510D0714521
:10345000F5D13168256801F040516D077FF562AF05
:1034600000297FF45FAF57E720680001E7D549E7FF
:1034700020688000E3D503A8FFF74CFE05983EE7DF
:1034800022689203DBD554E7306810F480303AD0DC
:103490004845D4D120680001D1D56846FFF798FD92
:1034A00002982CE7DBF8001001F0E041B1F1405F39
:1034B00013D008DC71B1614521D04145BFD12068EE
:1034C0008000B4D437E7B1F1804F0AD0B1F1A04FFA
:1034D000B2D030E7FFF7C6FC11E720684007AED551
:1034E0001AE72068C005AAD521E708E0DAF800103D
:1034F00011F04051A0D0614505D041459FD12068D1
:1035000000018FD417E72068800198D5F3E600000A
:10351000504402580090D0030080BB000044025881
:103520002DE9FE4F0546DFF8E48350F8081B002420
:10353000F64FC943019005F12800264608F12408FA
:10354000009008011DD4A86E50B1B0F5801F0CD0BA
:10355000B0F5001F0ED0B0F5401F1ED001240FE0C3
:10356000386840F40030386017E00198022103F019
:10357000FDFF03E00098022104F088F804000CD05D
:1035800026462888C043C00523D4A86D05281ED22E
:10359000DFE800F00C11161B1B00AA6ED8F8001013
:1035A00021F440111143C8F80010EAE7386840F4EC
:1035B0000030386009E00198002103F0D7FF03E0F4
:1035C0000098002104F062F8044674B100E0012480
:1035D00026462888C043800528D4E86D80281ED060
:1035E0000CDC90B140280ED114E0AA6DD8F8001080
:1035F00021F007011143C8F80010EAE7C02813D0F2
:10360000B0F5807F10D001240FE0386840F400301E
:10361000386009E00198002103F0A8FF03E000985A
:10362000002104F033F804469CB126462888DFF8D0
:10363000DC92C04309F12C0940052CD4D5F8A80030
:10364000B0F5800F20D00DDCA0B1B0F5001F0FD178
:1036500015E0EA6DD8F8001021F4E0711143C8F8C4
:103660000010E3E7B0F5C00F13D0B0F5000F10D095
:1036700001240FE0386840F40030386009E0019818
:10368000002103F073FF03E00098002103F0FEFF28
:1036900004467CB126462888C04300052DD4D5F8C1
:1036A000AC00B0F1007F21D00EDCA8B1B0F1807F7A
:1036B00010D116E0D5F8A820D9F8001021F4600147
:1036C0001143C9F80010E6E7B0F1407F13D0B0F124
:1036D000806F10D001240FE0386840F4003038606B
:1036E00009E00198002103F041FF03E00098002168
:1036F00003F0CCFF044674B126462868C04380011D
:103700001FD4E86CD8B110280FD0202812D0302850
:1037100015D0012414E0D5F8AC20D9F8001021F020
:10372000E0611143C9F80010E7E7386840F4003061
:10373000386004E00198022103F018FF044674B1D8
:1037400026462888C043C0042BD4286EB0F5005FFD
:1037500020D00DDCA0B1B0F5805F0FD115E06B4833
:10376000EA6C2030016821F0300111430160E8E784
:10377000B0F5405F13D0B0F5804F10D001240FE0BA
:10378000386840F40030386009E00198002103F007
:10379000EDFE03E00098002103F078FF04468CB1B1
:1037A00026462888C043800429D4686EB0F5403F7F
:1037B00023D010DC08B3B0F5803F14D0B0F5003F43
:1037C0000FD115E02A6ED8F8001021F4E041114322
:1037D000C8F80010E5E7B0F5802F0ED0B0F5A02FA7
:1037E0000BD001240AE00198012103F0BFFE03E0A1
:1037F0000098012103F04AFF044694B12646288828
:10380000C04340042AD4D5F8B000B0F1405F23D0C3
:1038100010DC08B3B0F1805F14D0B0F1005F0FD1BD
:1038200015E06A6ED8F8001021F4E0211143C8F8C1
:103830000010E4E7B0F1804F0ED0B0F1A04F0BD0F4
:1038400001240AE00198012103F090FE03E00098B2
:10385000012103F01BFF044674B126462888C043AB
:1038600000041FD4286FD8B1B0F1805F0ED0B0F142
:10387000005F10D0012414E0D5F8B020D9F8001072
:1038800021F0E0411143C9F80010E7E7386840F43F
:103890000030386004E00198012103F067FE04461F
:1038A00074B126462868C043C0011ED4A86CD0B1AC
:1038B00001280ED0022811D0032814D0012413E0CF
:1038C0002A6FD8F8001021F040511143C8F80010B9
:1038D000E8E7386840F40030386004E001980221DD
:1038E00003F044FE0446ACB126462868DFF81CB05D
:1038F000C043ABF11C0B400252D40548016841F4AF
:1039000080710160FFF7C0F8824611E02C44025834
:1039100000480258FA48AA6C016821F003011143DB
:103920000160E2E7FFF7B0F8A0EB0A00642835D8A1
:10393000F4480068C005F5D58CBBDFF8C4A3B5F822
:10394000B4100AF1240ADAF8000001F4407100F41E
:103950004070884211D0DAF80010DAF8002021F423
:10396000407142F48032CAF80020DAF8002022F4D4
:103970008032CAF80020CAF80010D5F8B400B0F5BB
:10398000807F1AD1FFF780F8029012E0FFF77CF8F1
:103990000299411A41F2883081420AD9032426460D
:1039A0002878DFF85CA3C0430AF1080AC00721D0D9
:1039B0003CE0DAF800008007E8D5D5F8B410C1F390
:1039C0000120032858460DD0016821F47C51016084
:1039D000B5F8B420DAF80010C2F30B021143CAF8AC
:1039E0000010DDE7C84A036802EA111223F47C5193
:1039F0001143ECE7E86F182816D005DCA0B10828C1
:103A000008D0102804D10AE020280DD028280BD097
:103A100001240AE00198012103F0A8FD03E00098C9
:103A2000012103F033FE044664B126462878C043E2
:103A300080071ED4A86F062819D2DFE800F0160C04
:103A400011161616EA6FDAF8001021F0380111434A
:103A5000CAF80010EAE70198012103F087FD03E0AE
:103A60000098012103F012FE04467CB100E001241D
:103A700026462878C04340071FD4D5F8940006286E
:103A800019D2DFE800F0160C11161616AA6FDAF834
:103A9000001021F007011143CAF80010E9E701986E
:103AA000012103F063FD03E00098012103F0EEFD26
:103AB0000446A4B100E0012426462878C0438006CD
:103AC0002BD4D5F89000B0F1405F24D011DC10B3B6
:103AD000B0F1805F15D0B0F1005F10D116E0D5F8DD
:103AE0009420D9F8001021F007011143C9F8001003
:103AF000E3E7B0F1804F0ED0B0F1A04F0BD001241E
:103B00000AE00198002103F031FD03E00098022152
:103B100003F0BCFD044694B126462878C043400615
:103B20002BD4D5F89C00B0F5406F24D011DC10B335
:103B3000B0F5806F15D0B0F5006F10D116E0D5F854
:103B40009020DAF8001021F0E0411143CAF800108B
:103B5000E3E7B0F5805F0ED0B0F5A05F0BD0012495
:103B60000AE00198002103F001FD03E00098022122
:103B700003F08CFD044694B126462878C043000625
:103B80002BD4D5F8A000B0F5C04F24D011DC10B371
:103B9000B0F5005F15D0B0F5804F10D116E0D5F824
:103BA0009C20D9F8001021F4E0511143C9F800100D
:103BB000E3E7B0F5004F0ED0B0F5204F0BD0012455
:103BC0000AE00198002103F0D1FC03E000980221F3
:103BD00003F05CFD044654B126462878C043000734
:103BE0001ED4D5F88400B0F5805F0AD00FE0D5F878
:103BF000A020D9F8001021F460411143C9F8001049
:103C0000EBE70098022103F041FD00B10126D5F851
:103C10008420DAF8001021F440511143CAF8001052
:103C20002878C043C00613D4D5F89800B0F5807F3B
:103C300005D10098022103F029FD00B10126D5F835
:103C40009820D9F8001021F440711143C9F80010F0
:103C50002868C043000316D4D5F8A40038B1B0F5E5
:103C6000803F09D0B0F5003F0BD001240AE0019855
:103C7000002103F07BFC03E00098022103F006FD25
:103C800004468CB126462868C043400322D4D5F8A8
:103C90008800B0F5801F11D0B0F5001F13D0B0F52B
:103CA000401F15D0012414E0D5F8A420D9F8001045
:103CB00021F440311143C9F80010E4E7386840F4BA
:103CC0000030386004E00098012103F0DFFC044676
:103CD0005CB126462868C043C00323D4286DA8B130
:103CE000B0F5803F17D001241BE0D5F88820DAF822
:103CF000001021F440111143CAF80010EAE7000057
:103D00004C44025800480258CFFFFF00386840F486
:103D10000030386004E00198022103F027FC0446DB
:103D2000E4B126462868C043800005D400980221EB
:103D300003F0ACFC00B101262868C04380031BD40B
:103D4000D5F88000B0B1B0F5807F0FD0B0F5007F1E
:103D500010D0B0F5407F0DD001240CE05A482A6DF8
:103D6000016821F4803111430160DBE7386840F4D9
:103D700000303860ECB326462868C043C00207D440
:103D80006A6FD8F8001021F000411143C8F8001004
:103D90002868C043C00008D4D5F8B820DBF800106C
:103DA00021F480411143CBF800102868C043800201
:103DB00007D4EA6ED8F8001021F080711143C8F8DA
:103DC00000102868C04340000CD4DBF8001021F438
:103DD0000041CBF80010DBF80010D5F8BC201143EF
:103DE000CBF800102868C04308D437486A6D0168D2
:103DF00000E018E021F04051114301602868C04301
:103E0000000208D4D5F88C20DAF8001021F4400123
:103E10001143CAF8001028790024C04300F00100C3
:103E200020430AD00FE0D5F88020DAF8001021F402
:103E300040711143CAF800109EE70198002103F079
:103E400095FB00B106462879C04300F002002043EC
:103E500005D10198012103F089FB00B106462879BC
:103E6000C04300F00400204305D10198022103F073
:103E70007DFB00B106462879C04300F008002043CE
:103E800005D10098002103F001FC00B10646287915
:103E9000C04300F01000204305D10098012103F039
:103EA000F5FB00B106462879C04300F0200004432A
:103EB00004D10098022103F0E9FB00B916B10120FA
:103EC000BDE8FE8F0020FBE74C4402582DE9F05F6F
:103ED00004000F467ED0DFF83882D8F8000000F0EA
:103EE0000F00B8420CD2D8F8001021F00F0139436E
:103EF000C8F80010D8F8000000F00F00B84269D1EF
:103F00002078844D40070AD52069296801F07001A6
:103F1000884204D9296821F0700101432960207882
:103F20007C4E361D00070AD56069316801F07001CA
:103F3000884204D9316821F0700101433160207852
:103F4000C0060AD5A069316801F4E061884204D94D
:103F5000316821F4E061014331602078DFF8B4B1C9
:103F600080060BF1080B0CD5E1695846DBF8002000
:103F700002F07002914204D9026822F070020A43F2
:103F80000260207880070AD5E068296801F00F01F7
:103F9000884204D9296821F00F0101432960207863
:103FA000C0073ED05B49A2682868183920F47060C9
:103FB000104328606068022818D0032819D00968C7
:103FC000012819D0490700294ADADFF848A1AAF1E7
:103FD000080A00E044E0DAF8002022F00702024379
:103FE000CAF80020FEF750FD814612E009688903F7
:103FF000E9E709688901E6E7C905E4E7FEF744FD5A
:10400000A0EB090141F28830814202D90320BDE8CA
:10401000F09F6168DAF8000000F03800B0EBC10FE3
:10402000ECD1207880070AD5E068296801F00F01FB
:10403000884204D2296821F00F0101432960D8F891
:104040000010404601F00F01B9420BD9016821F080
:104050000F0139430160006800F00F00B84201D041
:104060000120D4E7207840070AD52069296801F0AB
:104070007001884204D2296821F07001014329604F
:10408000207800070AD56069316801F07001884224
:1040900004D2316821F07001014331602078C006FC
:1040A0000AD5A069316801F4E061884204D2316820
:1040B00021F4E06101433160207880060CD5E1698C
:1040C0005846DBF8002002F07002914204D20268E8
:1040D00022F070020A43026000F09AF80E492A6842
:1040E0002B68C2F3032203F00F038A5CC95C02F061
:1040F0001F0201F01F01D040084A20FA01F11160AF
:104100000749086007480068BDE8F05FFEF7ECBDAE
:104110000020005218440258B0AE000818000024D5
:10412000140000240C00002470B5144C3F220260DF
:10413000124A24680832131D114D04F0070444602C
:1041400016681C1D06F470668660166806F00F0679
:10415000C660126802F0700202611A6802F0700212
:1041600042611A6802F4E0628261226802F0700221
:10417000C261286800F00F00086070BD104402584A
:104180000020005230B500F043F80B4A0B490C4BAD
:1041900015681468C5F3032204F00F048A5C095DF6
:1041A00002F01F0201F01F01D040064A20FA01F17F
:1041B00019601060084630BD18440258B0AE0008BF
:1041C000180000241400002400B5FFF7DBFF0549A8
:1041D0000968054AC1F30211515C01F01F01C84092
:1041E00000BD00001C440258B0AE000800B5FFF747
:1041F000C9FF05490968054AC1F30221515C01F074
:104200001F01C84000BD00001C440258B0AE0008A9
:10421000454970B545480968434B103B11F03802D9
:1042200008D00111082A03D0102A0BD0182A0BD06D
:10423000084670BD19688906FBD51968C1F3C1012C
:10424000C84070BD3A4870BD3749374D18310C1D14
:1042500024350A68096826682D6802F0030406F010
:104260000102C1F30511C5F3CC0515FB02F200EE06
:10427000102AB8EE400AE9B32F4ADFED2E0AB7EE56
:10428000001A6CB1DFED2D1A012C01D0022C43D0A5
:1042900002EE101A1068F8EE422A81EEA22A1EE001
:1042A0001C68A40611D51B6801EE901A1168C3F3AF
:1042B000C103F8EE612AD84001EE900AC1F308006C
:1042C000F8EE611A81EEA22A0BE001EE901ADFED02
:1042D0001C2A00BFF8EE611A106882EEA12AC0F312
:1042E000080001EE900AF8EE611A40EE201A31EE55
:1042F000810A00E015E022EE000A1068C0F34620B3
:10430000401C00EE900AF8EE600A80EE201ABCEE27
:10431000C10A10EE100A70BD01EE901ADFED092AF5
:10432000D8E7002070BD0000104402580090D00370
:1043300000127A0000000039304402580024744A08
:104340000024744C0024F44AF0B50D461F49204C5B
:10435000002887B016464FF000004FF002020F68A9
:104360004FF0030319D047F004070F60096801F00C
:104370000401059111020091CDE90120CDE903303E
:1043800014486946FEF75AFA206845EAC61120F03B
:104390007E400843206007B0F0BD47F001070F6082
:1043A000096801F0010105914FF480710091CDE998
:1043B0000120CDE9033008486946FEF73FFA20683E
:1043C000354320F0FE702843E4E70000E044025843
:1043D0001044025800080258000002582DE9F05F0E
:1043E00004007DD0FF4F2078FE4D1837DFF8F4939E
:1043F000103DC00748D0D9F80000396800F03800F7
:10440000102815D0182803D101F0030002280FD07E
:104410006068B0F5803F12D010B1B0F5A02F18D071
:10442000286820F480302860286820F4802009E083
:104430002868800328D560680028D2D024E0286846
:1044400040F480302860606888B1FEF71DFB0646A6
:1044500009E0286840F480202860F0E7FEF714FBAC
:10446000801B64286FD828688003F7D50CE0FEF71E
:104470000BFB064605E000BFFEF706FB801B642829
:10448000F0D828688003F7D4207841F20308D54E8D
:104490000C3E800769D5D9F80000396810F0380063
:1044A0000ED0182801D188070AD0E06890B3296897
:1044B00021F0190101432960FEF7E6FA824631E056
:1044C0002868400702D5E06800288AD0E16828689B
:1044D00020F0190008432860FEF7D6FA824607E06C
:1044E000DFE000BFFEF7D0FAA0EB0A000228B9D83F
:1044F00028684007F6D500BFFEF7C0FA40451BD834
:104500002069402812D0316821F47C3141EA003022
:1045100030602AE018E000BFFEF7B6FAA0EB0A0010
:1045200002289FD828684007F6D5E5E7306820F4D0
:104530007C3040F40030EBE7207C316821F0FE4114
:1045400041EA0060E4E70DE1286820F001002860FE
:10455000FEF79AFA824605E0FEF796FAA0EB0A000B
:1045600002288DD828684007F6D42078C0065DD58B
:10457000D9F80000DFF86CB2396800F03800ABF110
:10458000040B082810D0182803D101F003000128DB
:104590000AD0E0690028286838D040F08000286000
:1045A000FEF772FA824623E02868C00523D5E06949
:1045B000802876D11FE0206A202821D0316821F0A0
:1045C000F84141EA8060306030E000BF94F820108C
:1045D000DBF8002022F07C5242EA0161CBF80010A7
:1045E00024E000BFFEF750FAA0EB0A00022898D89A
:1045F0002868C005F6D5FEF741FA4045E6D8DAE767
:10460000306820F0F84040F08040DCE720F0800087
:104610002860FEF739FA064605E000BFFEF734FAD7
:10462000801B02289DD82868C005F7D42078000791
:1046300029D56C486169643000298046016811D031
:1046400041F001010160FEF71FFA064605E000BFD8
:10465000FEF71AFA801B0228C9D8D8F80000800794
:10466000F6D510E021F001010160FEF70DFA0646D3
:1046700005E000BFFEF708FA801B022872D8D8F8C0
:1046800000008007F6D42078800623D5A069002892
:10469000286810D040F480502860FEF7F5F90646EF
:1046A00005E036E1FEF7F0F9801B02285AD82868A9
:1046B0008004F7D50EE020F480502860FEF7E4F97E
:1046C000064604E0FEF7E0F9801B02284AD8286875
:1046D0008004F7D4207840074FD5DFF80C81D8F854
:1046E000001041F48071C8F80010FEF7CDF90646BD
:1046F00005E000BFFEF7C8F9801B642832D8D8F85F
:104700000000C005F6D5374EA068603601280AD0F3
:1047100008B1052813D0306820F0010030603068FF
:1047200020F0040002E0306840F001003060A06832
:1047300041F2883A90B1FEF7A7F980460AE0306866
:1047400040F004003060EEE7FEF79EF9A0EB0801B0
:10475000514507D830688007F6D50EE0FEF794F98A
:10476000804607E084E000BFFEF78EF9A0EB080169
:1047700051457DD830688007F6D4606AB0B3DFF861
:104780006480D9F8001008F120084FF6F87B08F192
:104790000409C1F3C2010329A8F1040A69D002285F
:1047A000286820F08070286003D0FEF76DF9044679
:1047B00084E0FEF769F9064605E000BFFEF764F9FC
:1047C000801B022877D828688001F7D4E26A40F27B
:1047D000F331386854F8283F884340EA0210184300
:1047E000386004E01044025800480258B5E0217BCC
:1047F000434622894FF4FE0C208A4FF0FE474902BF
:10480000267D521E401EA1F50071C2F308088AB22F
:10481000761E0CEA004042EA08020243504607EACC
:1048200006610A431A60DAF8002022F00102CAF891
:104830000020D9F80020266A22EA0B0242EAC602CA
:10484000C9F80020DAF80010A26921F00C01114328
:10485000CAF800100168E26921F002011143016009
:10486000016841F480310160016841F4003101E0E8
:1048700021E027E00160016841F4802101600168C6
:1048800041F001010160286840F080702860FEF767
:10489000FBF8044605E000BFFEF7F6F8001B02280F
:1048A00009D828688001F7D557E000BFFEF7ECF87B
:1048B000001B022802D90320BDE8F09F2868800170
:1048C000F4D44AE039680128D8F8000021D0A26A5F
:1048D00001F0030393421CD1E26AC1F305118A423D
:1048E00017D1216BC0F30802491E8A4211D1616BB6
:1048F000C0F34622491E91420BD1A16BC0F3064280
:10490000491E914205D1E16BC0F30660491E814208
:1049100001D00120D0E7A16C4E46D9F80000C0F3C9
:10492000CC00814219D0DAF80000554620F0010091
:10493000CAF80000FEF7A8F84FEA0007FEF7A4F84F
:10494000B842FBD0A26C306820EA0B0040EAC200FB
:104950003060286840F0010028600020ACE7704714
:1049600070477047704700002DE9FC5F0446806B7C
:104970000E46032184F83010002703285CD0B6F5DA
:10498000004F59D0B6F5804F4FF000054FF4006846
:104990004FF0806904D006B3606B40F000603FE0E8
:1049A000009500210195206803F052FA80011CD483
:1049B0006946204603F0ACFA70BB019840032DD540
:1049C000B4F844102068090402F0F6FE20BB206809
:1049D00002211DE0606B284322E000950021019533
:1049E000206803F035FA800101D54546F2E76946B3
:1049F000204603F08DFA78B90198C0030ED5B4F8BB
:104A000044102068090402F0D7FE28B9206800216C
:104A100002F01CFF0028DDD00546DBE74D46D9E754
:104A20006063606B4FF4007BDFF8B8A040B1216891
:104A30000127C1F838A042E0606B40F08050EFE7FA
:104A400000214FF48030FEF707FC010032D0264DE4
:104A50003346D4E904C0B1FBF5F8D4E901928045AE
:104A600010D9A66D5E450DD0B6F5807F11D04FEA06
:104A70006506E0B14FEA4008B1FBF8F8B04501D94E
:104A8000B1FBF5F04946CDE900C0206803F0E4F938
:104A900015E0164E30B14FEA4008B1FBF8F8A845D2
:104AA00002D8EFE7A942EDD9B1FBF6F0EAE7B1424F
:104AB000E6D8E7E7606B012740F00060606320689C
:104AC000594602F0AAFE30B122680127C2F838A088
:104AD000616B01436163012084F830003846BDE812
:104AE000FC9F0000FF0FE01F80F0FA0200E1F505D7
:104AF00070470000F0B5C26D920F0A70C26DC2F32C
:104B000083624A70C26DC2F301628A70C26D120C78
:104B1000CA70B0F85C20120A0A7190F85C204A71E1
:104B2000026E120DCA80026EC2F303420A72B0F81E
:104B30006020C2F3C0324A72B0F86020C2F3803203
:104B40008A72B0F86020C2F34032CA72B0F86020B6
:104B50000026C2F300320A734E730122836B4FF4B6
:104B6000007463B1012B3AD0036850499963416BDB
:104B700041F08051416380F830200120F0BDB0F851
:104B80006030456E9B051B0D43EA95730B61436EC8
:104B9000C3F3C2630B75436EC3F302634B75436E7D
:104BA000C3F342538B75436EC3F38243CB75436E9D
:104BB000C3F3C2330B760D696D1C85640B7E03F065
:104BC00007039B1C9D4085640B7A446503F00F032B
:104BD00002FA03F35F0A7D43C0E913350EE090F853
:104BE0006050436EAD06AD0A45EA13430B610B6995
:104BF0005B1C9B028364C0E913434465B0F86430D6
:104C0000C3F380334B76B0F86430C3F3C6138B76AE
:104C100090F8643003F07F03CB76836EDB0F0B7765
:104C2000836EC3F341734B77836EC3F382638B77D9
:104C3000836EC3F38353CB77836EC3F3405381F802
:104C4000203081F82160836EC3F3004381F8223065
:104C5000B0F86830C3F3C03381F82330B0F868305F
:104C6000C3F3803381F82430B0F86830C3F34033A5
:104C700081F82530B0F86830C3F3003381F826306E
:104C8000B0F86830C3F3812381F82730B0F868307A
:104C9000C3F3012381F8283090F86800C0F3460080
:104CA00081F8290081F82A200020F0BDFF0FE01FC5
:104CB000826B0A60C26B4A60026C8A60426CCA6096
:104CC000826C0A61C26C4A61026D8A61406DC86182
:104CD0000020704770B5B0F8441000250446006805
:104CE000090402F0A0FE18B1616B0143616304E0A6
:104CF0002068002103F0ACF80546C5F3432070BDE1
:104D00002DE9F041054690F8300090B00C460026A1
:104D1000032810D06946284603F042FA2A4F4FF084
:104D2000010860B12A68012697636A6B02436A63CF
:104D300085F830803AE0012010B0BDE8F08100999C
:104D40004FF47F40C1F3811121700099C1F34011EC
:104D5000617000990A4600EA112141EA12616180FE
:104D6000019909BA6160029921720299090A617276
:104D70000299C1F30351A172DDE9022100EA124058
:104D8000C9B20843A0810398C0F38520A07303989B
:104D9000C0F30120E0730398C0F30310207403985C
:104DA00000F00F0060740498000EA07428684FF49F
:104DB000007102F032FD28B12A680126976368630A
:104DC00085F830803046B7E7FF0FE01F2DE9F84344
:104DD00004460068E56A416B09041BD5290719D50B
:104DE000D4E90950202813D30026206803F04AF89C
:104DF000020A2870010C6A70030EA970761CEB7011
:104E0000082E05F10405F0D3A06A2038C4E9095042
:104E1000BDE8F883416B0127DFF8EC810026C90566
:104E200051D539024CF23A12816329072068C16BCF
:104E300021EA0201C1632068C16B21F08051C16386
:104E40002068C16821F04001C16018D515F0220F1B
:104E500009D0206802F034FE28B1616B0143616320
:104E60002046FFF745FE2168AA07C1F8388084F87C
:104E70003070E66223D1204600F03EFAC8E72806EB
:104E8000C6D5206815F0220F86622068C6622068A9
:104E9000066509D0206802F013FE28B1616B01435A
:104EA00061632046FFF724FE15F0300F84F8307060
:104EB000E66202D0204600F01FFAA807A8D02046DC
:104EC00000F016FAA4E7416B490421D529071FD544
:104ED000D4E9075020289BD30026287800906978D1
:104EE00040EA01200090A97840EA01400090E9786A
:104EF0002D1D40EA016000902068694602F0DAFF4B
:104F0000761C082EE9D3206A2038C4E907507FE7D1
:104F1000416B11F03A0F416B58D0890703D5616B93
:104F200041F002016163416B090703D5616B41F0F8
:104F300008016163416B890603D5616B41F0200173
:104F40006163416BC90603D5616B41F01001616378
:104F5000C0F838802068C16B21F49D71C16320685E
:104F6000C16821F04001C1602068C16A41F400516C
:104F7000C1622068C16841F08001C160206802F010
:104F80009FFD626B2B074FF4006140EA02006063F3
:104F90002068C26822F08002C2602068816303D565
:104FA00084F83070E6620DE028068BD5606B00282F
:104FB00088D02068C16B21F08051C16320680665EC
:104FC00084F830702046FFF793FD21E7C9009ED595
:104FD0004FF0805181632068006D40074FEA856083
:104FE00008D40028204602DAFFF7BCFC10E7FFF7E0
:104FF000B7FC0DE70028204602DAFFF7B2FC07E70E
:10500000FFF7ADFC04E700003A0F0018F0B504000C
:1050100085B020D094F83000002518B920462576B8
:1050200000F098F8042084F83000204600F03CF8A6
:1050300088B969462046FFF763FE60B99DF81010F5
:10504000A26B9DF81100012A08D0A5652046E168F1
:10505000FFF78AFC58B1012005B0F0BD014302D032
:105060004FF4007001E04FF48070A065EEE7FDF7AB
:105070000BFD0127064604E0FDF706FD801B401CE2
:105080000AD02046FFF726FE0428F5D16563E562C5
:1050900084F830700020DFE74FF00040606384F850
:1050A00030700320D8E700002DE9FC414FF00008E4
:1050B00004464FF480304146FEF7CEF805004FF02D
:1050C000010723D02048434642464146B5FBF0F64F
:1050D000CDE90086206802F0BFFE206802F0CCFE19
:1050E0001EB17000B5FBF0F52DB11848B0FBF5F01E
:1050F000401CFDF785FB204602F0F8FF60B100BFC1
:1051000084F83070616B0143616319E04FF0006017
:1051100084F83070606313E0204602F06BFF0028D3
:10512000EED120684FF4007102F077FB002808D020
:10513000226807499163616B0143616384F83070B1
:105140000120BDE8FC81000000350C0010210100A9
:10515000FF0FE01FF0B5B7B00446142130A8FBF7ED
:1051600084FAC0216846FBF780FA27492068884204
:1051700047D1002014904FF480310446CDE900104F
:105180006846FEF7CDF908B1FBF72BFE1F48016812
:1051900041F480310160006800F4803035901B4894
:1051A0000C30016841F004010160016801F0040164
:1051B0003591016841F0080101600068022532AABA
:1051C00000F0080035904FF4F850CDE93005032683
:1051D0000F480C2782E8D00030A9FDF72FFB0420F0
:1051E00032AACDE930050B4830A982E8D000FDF79E
:1051F00025FB002206213120FDF7D8FD3120FDF7E7
:10520000C7FD37B0F0BD000000700052D444025812
:1052100000080258000C02582DE9F0430F001E460A
:1052200087B00446154607D094F83000012807D00F
:10523000022007B0BDE8F083606B40F0006008E03A
:10524000216D0020AA1960638A4204D9606B40F086
:105250000070606341E0032184F83010226871021D
:10526000D062C4E90971A26B012A00D06D024FF02F
:10527000020C90230293CDE903C04FF0FF3205905A
:10528000CDE9002180462068694602F077FC20685D
:10529000012E4FF00109C26842F04002C26020684E
:1052A00087652068C0F8509006D98220E0622068A7
:1052B000294602F023FB05E08120E06220682946B0
:1052C00002F036FB58B125680849A963616B0143B8
:1052D000616384F83090C4F82C800120A9E720682D
:1052E000C16B41F49571C1630020A2E7FF0FE01F7D
:1052F00010B5FBF7EBFA10BD10B5FBF7FDFA10BDCA
:105300002DE9F0470F001E4686B00446154607D02B
:1053100094F83000012807D0022006B0BDE8F087DD
:10532000606B40F0006008E0216D0020AA19606306
:105330008A4204D9606B40F00070606340E0032152
:1053400084F8301022687102D062C4E90771A26B40
:10535000012A00D06D024FF0FF324FF0900A059005
:10536000CDE902A0CDE9002104908046206869467D
:1053700002F004FC2068C16841F04001C16020686F
:105380004FF001098765012E2168C1F8509006D9B8
:10539000A020E0622068294602F0BCFB05E0C4F8CA
:1053A0002CA02946206802F0CFFB58B12568094A95
:1053B000AA63626B0243626384F83090C4F82C8065
:1053C0000120AAE72068C16B41F48D71C163002000
:1053D000A3E70000FF0FE01F2DE9F047040029D0EC
:1053E000594A4FF000092068584B594D9042C4F873
:1053F000289006D0984204D0A84202D0E1680F2934
:1054000018D8E1684FF0010AE76B0831C9080AEBC8
:1054100057167143904205D0984203D0A84201D05C
:10542000082907D8904203D0984201D0A84204D15D
:10543000102902D90120BDE8F08794F8810020B935
:10544000204684F8809000F085F8022084F88100DE
:105450002068016821F0010101602068A16982686B
:10546000B1F1806F02F4F81110D16268B2F5800FCB
:1054700001D01AB10AE0A26B22B107E0A26BB2F12F
:10548000805F03D1026842F480520260606840028B
:1054900009D5E068072806D32068236D026822F446
:1054A00080721A4303E02068026822F4807202606E
:1054B000A66AE069E26B25683043E3680A4310435B
:1054C0001843A860D4E90D02D4E90581636A25690F
:1054D0001843D4F820C00A43266810432843A56D1A
:1054E000D4E90172D4E9123140EA080040EA0C0024
:1054F00038430843104318432843F060606868B994
:105500002068816821F4C05141F400618160206805
:10551000816821F4C06141F4806181602068016D7F
:1055200021F0010101656068400206D52068626DC6
:10553000C16821F000411143C160C4F8849084F82F
:1055400081A0002077E700000030014000380040D3
:10555000003C0040F0B5B7B00446142130A8FBF77A
:1055600084F8C0216846FBF780F836490226206897
:105570000527334D0024884223D18114189400203C
:10558000CDE900106846FDF7CBFF08B1FBF729FC19
:105590002B481030016841F480510160006800F42C
:1055A00080503590286840F001002860286830A9B4
:1055B00000F001003590E02030902348CDE93164BF
:1055C00037E02249884238D1811418940020CDE96F
:1055D00000106846FDF7A4FF08B1FBF702FC18486D
:1055E0000830016841F480410160006800F48040A7
:1055F0003590286840F004002860286800F0040016
:105600003590286840F008002860286830A900F02C
:105610000800359006203090CDE931640C48CDE982
:105620003347FDF70BF9082030900A4830A9CDE93F
:105630003164CDE93347FDF701F937B0F0BD000023
:10564000E044025800300140000002580038004099
:1056500000080258000C0258024A136883430B43A7
:10566000136070470404005870477047704700008B
:10567000F0B590F83C20012A3BD01F4E012480F861
:105680003C40022280F83D2002681C4D5368B24223
:10569000D2F808C001D0AA4203D14F6823F47003A6
:1056A0003B430F6823F070031F4357600268B24208
:1056B00013D0B2F1804F10D0114B9A420DD0114B44
:1056C0009A420AD0104B9A4207D0AA4205D00F4BFB
:1056D0009A4202D00E4B9A4204D189682CF0800382
:1056E00019439160002180F83D4080F83C10084645
:1056F000F0BD0220F0BD00000000014000040140A8
:105700000004004000080040000C00400018004069
:105710000040014010B5040003D094F83D0010B1E2
:1057200007E0012010BD002084F83C00204600F076
:1057300023F8022084F83D002068211D03F060F862
:10574000012084F8480084F83E0084F83F0084F883
:10575000400084F8410084F8420084F8430084F853
:10576000440084F8450084F8460084F8470084F833
:105770003D00002010BD000008B501682A48B1F1C5
:10578000804F0BD0294A914210D1016841F00201AB
:105790000160006800F00200009008BD016841F05F
:1057A00001010160006800F00100F5E7204A914224
:1057B00007D1016841F004010160006800F00400B5
:1057C000EAE71C4A914207D1016841F008010160F3
:1057D000006800F00800DFE7174A91420ED1016827
:1057E00041F01001016000680022052100F0100066
:1057F00000903620FDF7DAFA362010E00F4A914289
:10580000CBD1016841F02001016000680022052130
:1058100000F0200000903720FDF7C8FA3720BDE8DF
:105820000840FDF7B5BA0000E84402580004004003
:1058300000080040000C0040001000400014004030
:1058400090F83D10012901D001207047144B02222D
:10585000016880F83D20994214D0B1F1804F11D0F9
:10586000104881420ED0104881420BD00F4881422F
:1058700008D00F48814205D00E48814202D00E4820
:10588000814207D188680D4A1040062806D0B0F53D
:10589000803F03D0086840F0010008600020704796
:1058A000000001400004004000080040000C0040DF
:1058B00000040140001800400040014007000100C2
:1058C00090F83D10012901D001207047174A0221AC
:1058D00080F83D100168CB6843F00103CB6000689D
:1058E000904214D0B0F1804F11D0114988420ED0AF
:1058F000104988420BD01049884208D00F4988428D
:1059000005D00F49884202D00E49884207D18168EC
:105910000D4A1140062906D0B1F5803F03D0016839
:1059200041F00101016000207047000000000140CB
:105930000004004000080040000C0040000401404A
:1059400000180040004001400700010070B5044607
:1059500090F83C000025012814D03A4B012684F829
:105960003C60022084F83D0022689068184020F4D2
:105970007F409060086870282FD010DC10F00F0F67
:1059800003D022E04FF0020070BD4FEA2012072A38
:105990001BD2DFE802F0535353534B394100B0F1AF
:1059A000101F4BD009DCB0F5805F0FD0B0F5005F61
:1059B0001ED0B0F5801F08D140E0A0F5801120393D
:1059C0003CD010293AD0202938D0012584F83D60F8
:1059D000002084F83C00284670BD4A682068D1E960
:1059E000021302F07CFF2068816841F0770109E032
:1059F0004A682068D1E9021302F071FF20688168CB
:105A000041F480418160E1E7CA684968206803F099
:105A100015F92068502106E0CA684968206803F03B
:105A20001EF92068602102F063FFCFE7CA68496869
:105A3000206803F003F920684021F4E7226801465A
:105A40001046F0E788FFCEFF704770B50446006847
:105A500000250169C943890715D4C168C94389076D
:105A600011D4EA1E02610121217720688069800734
:105A7000204602D0FFF7E8FF04E000F0FFF82046E0
:105A800000F0C1F9257720680169C943490717D497
:105A9000C168C943490713D402216FF004020261AF
:105AA00021772068806910F4407F204602D0FFF7FC
:105AB000CBFF04E000F0E2F8204600F0A4F92577DF
:105AC00020680169C943090716D4C168C943090799
:105AD00012D404216FF00802026121772068C069A6
