:020000040800F2
:10000000486A002415040008C37C0008D372000865
:10001000C17C0008450C000801B200080000000087
:100020000000000000000000000000005503000870
:10003000A510000800000000B1030008ED8C0008C6
:100040002F0400082F0400082F0400082F040008C4
:100050002F0400082F0400082F0400082F040008B4
:100060002F0400082F0400082F040008490C000882
:10007000550C0008610C00082F0400082F0400082C
:100080002F0400082F0400082F0400082F04000884
:100090002F0400082F0400082F0400082F04000874
:1000A0002F0400082F0400082F0400082F04000864
:1000B0002F0400082F0400082F0400082F04000854
:1000C0002F0400082F0400082F0400082F04000844
:1000D0002F0400082F0400082F040008719E000858
:1000E0002F0400082F040008000000002F0400085F
:1000F0002F0400082F0400082F0400082F04000814
:100100002F0400082F0400082F0400082F04000803
:1001100045930008559400082F040008B58E000888
:100120002F0400082F0400082F0400082F040008E3
:100130002F0400082F0400082F0400082F040008D3
:1001400000000000000000000000000000000000AF
:100150002F0400082F0400082F0400082F040008B3
:100160002F0400082F0400082F0400082F040008A3
:100170002F0400082F0400082F04000800000000CE
:100180002F0400082F0400082F0400082F04000883
:100190002F0400082F0400082F0400082F04000873
:1001A0002F0400082F0400082F0400082F04000863
:1001B0002F0400082F0400082F0400082F04000853
:1001C0002F0400082F0400082F0400082F04000843
:1001D0002F040008C57C00082F0400082F04000825
:1001E0002F0400082F0400082F0400082F04000823
:1001F0002F0400082F0400082F0400082F04000813
:100200002F0400082F0400082F0400082F04000802
:100210002F0400082F040008A98E00082F040008EE
:100220002F0400082F0400082F040008000000001D
:100230002F0400082F040008000000002F0400080D
:100240002F0400082F0400082F0400082F040008C2
:100250002F0400082F0400082F0400082F040008B2
:100260002F0400082F0400082F0400082F040008A2
:100270002F0400082F0400082F04000800000000CD
:100280002F0400082F0400082F04000800000000BD
:10029000000000002F04000800F002F800F04AF807
:1002A0000AA090E8000C82448344AAF10107DA45D1
:1002B00001D100F03FF8AFF2090EBAE80F0013F0D9
:1002C000010F18BFFB1A43F00103184754DF000069
:1002D00074DF0000103A24BF78C878C1FAD85207FA
:1002E00024BF30C830C144BF04680C6070470000B0
:1002F0000023002400250026103A28BF78C1FBD82F
:10030000520728BF30C148BF0B607047642900F016
:100310009781752900F09481632900F03A8373294D
:1003200000F03F83002070471FB50DF041FF1FBD57
:1003300010B510BD00F072FB1146FFF7F5FF0BF092
:1003400097FB00F090FB03B4FFF7F2FF03BC0AF049
:1003500069FF00002C4B19680868B0E8F04F80F383
:100360000988BFF36F8F4FF0000080F3118870474A
:100370000000000008480068006880F308884FF01B
:10038000000080F3148862B661B6BFF34F8FBFF3ED
:100390006F8F00DF00BF00BF08ED00E0DFF80C004A
:1003A000016841F470010160704700BF88ED00E012
:1003B000EFF30980BFF36F8F134B1A681EF0100F15
:1003C00008BF20ED108A20E9F04F106009B44FF00B
:1003D000500080F31188BFF34F8FBFF36F8F0CF085
:1003E0006FFF4FF0000080F3118809BC196808689E
:1003F000B0E8F04F1EF0100F08BFB0EC108A80F389
:100400000988BFF36F8F70475C000024EFF305800D
:10041000704700000948804709480047FEE7FEE7AB
:10042000FEE7FEE7FEE7FEE7FEE7FEE7FEE7FEE7A4
:1004300004480549054A064B70470000CD8D000869
:1004400099020008485A0024486A0024486200249F
:1004500048620024704753EA020C00F069802DE9DD
:10046000F04B4FF00006002B1FBFB3FA83F503FAE1
:1004700005F424FA05F65E4012BF1643B2FA82F57F
:1004800002FA05F4C5F120051EBF22FA05FC44EA74
:100490000C04203556EA044C4FEA144418BF641C7F
:1004A0004FF000084FF00009904271EB030C39D374
:1004B000002919BFB1FA81F701FA07F6B0FA80F7FF
:1004C00000FA07F6C7F120071EBF20FA07FC46EA2C
:1004D0000C062037B6FBF4FCA7EB0507103F07F02E
:1004E0001F0BCBF120060CFA0BFB2CFA06F644BFCF
:1004F000B3460026202FA4BF5E464FF0000B5BEAF8
:10050000060C08BF4FF0010B19EB0B09ABFB027C8B
:1005100048EB0608C01B06FB02CC0BFB03CC71EBBF
:100520000C01C1E70B46024641464846BDE8F08B48
:1005300013B54FF000004FF00001AFF30080BDE8AD
:100540001C4070470FB4044910B503AA029800F08C
:100550002DFA10BC5DF814FBE40000240FB41CB5A8
:10056000074B06AA7B4469460090059800F0EFF916
:100570000020694600F0FEF91CBC5DF814FB000089
:100580000D0400002DE9F0410E46044600202062D3
:100590002046E168884730B3252805D0D4E90121F9
:1005A0009047206A401CF2E7E16820460027884710
:1005B000050018D0A5F14100192802D820354FF4C4
:1005C00000673246294620462760FFF79FFE40B16C
:1005D000012804D0F61D26F007060836D8E7361D98
:1005E000D6E72846DAE7206ABDE8F08170B50C4608
:1005F0000546012A05D02878800600D5EA6900233F
:1006000002E0012305E05B1C934202D2E05C00287B
:10061000F9D1A869E618C01AA861286A18442862A6
:100620002846AFF3008004E0D5E9012114F8010B5E
:100630009047B442F8D32846AFF3008070BD000065
:100640002DE9F0410646002410687529314616A5AB
:1006500010D0AFF30080002802DA404213A507E073
:1006600031688A0701D512A502E0490704D511A512
:10067000012401E0AFF3008000210A2206F12407E3
:1006800009E0B0FBF2FCB0FBF2F302FB1C003030DF
:1006900078541846491C0028F3D123462A46304690
:1006A000BDE8F04100F0F5B8000000002D000000AA
:1006B0002B0000002000000040EA0103024630B594
:1006C0009B0710D14FF0013400E008C208C91D1B80
:1006D0009D4315EAC41FF8D013F0FF0102F8011B77
:1006E0000DD01B0AF8E711F8013B002B02F8013B83
:1006F00005D011F8013B002B02F8013BF3D130BDCE
:1007000010B5431C02E010F8011B71B18107FAD14A
:100710004FF0013202C88C1A8C4314EAC211F9D08E
:10072000C01A0A0603D0C01E10BDC01A10BD0A04AC
:1007300001D0801E10BD0902FCD0401E10BD032A4E
:1007400040F2308010F0030C00F0158011F8013BEE
:10075000BCF1020F624498BF11F801CB00F8013BD5
:1007600038BF11F8013BA2F1040298BF00F801CB99
:1007700038BF00F8013B11F0030300F02580083A70
:10078000C0F0088051F8043B083A51F804CBA0E8C7
:100790000810F5E7121D5CBF51F8043B40F8043B1C
:1007A000AFF30080D20724BF11F8013B11F801CB51
:1007B00048BF11F8012B24BF00F8013B00F801CB22
:1007C00048BF00F8012B704710B5203AC0F00B80ED
:1007D000B1E81850203AA0E81850B1E81850A0E845
:1007E0001850BFF4F5AF5FEA027C24BFB1E818509F
:1007F000A0E8185044BF18C918C0BDE810405FEA0F
:10080000827C24BF51F8043B40F8043B08BF70478A
:10081000D20728BF31F8023B48BF11F8012B28BF8F
:1008200020F8023B48BF00F8012B704702F0FF039D
:1008300043EA032242EA024200F0CCB84FF0000241
:1008400000B5134694469646203922BFA0E80C50C6
:10085000A0E80C50B1F12001BFF4F7AF090728BFA1
:10086000A0E80C5048BF0CC05DF804EB890028BF1D
:1008700040F8042B08BF704748BF20F8022B11F046
:10088000804F18BF00F8012B7047704770477047C2
:1008900070472DE9F0470D4699469246044600F10F
:1008A00024080168880604D5E06921F01001216060
:1008B00000E00120A84201DD471B00E00027A169FC
:1008C0007A1902EB0900081AA0612078C00602D448
:1008D0002046AFF30080002608E0D4E901211AF891
:1008E00006009047206A401C761C20624E45F4DBCF
:1008F0002078C0060AD52046AFF3008006E0D4E990
:10090000012130209047206A401C2062381EA7F148
:100910000107F4DC07E0D4E9012118F8050090474D
:10092000206A401C2062281EA5F10105F3DC204648
:10093000AFF300802078000602D50220BDE8F087E2
:100940000120FBE701694A1C02610878704700B585
:100950008FB0CDE901310021059105497944CDE9F8
:10096000031011466846FFF70DFE0FB000BD0000F2
:10097000E5FFFFFF0A6802F8010B0A60704710B537
:10098000436913B1AFF3008001E0FFF72FFE0120B0
:1009900010BD127800F124010A7000224A70012271
:1009A000EDE711684FF0FF32E9E70000074B70B543
:1009B0000D467B44FFF7CBFF0446284600F02AF89B
:1009C00010B14FF0FF3070BD204670BD87AF000002
:1009D0004FF000020429C0F0128010F0030C3FF425
:1009E0002FAFCCF1040CBCF1020F18BF00F8012BA3
:1009F000A8BF20F8022BA1EB0C01FFF721BF5FEA93
:100A0000C17C24BF00F8012B00F8012B48BF00F87F
:100A1000012B7047007B00F080007047754600F0A6
:100A20002BF8AE4605006946534620F00700854680
:100A300018B020B5FFF7FCFCBDE820404FF00006E1
:100A40004FF000074FF000084FF0000B21F00701B6
:100A5000AC46ACE8C009ACE8C009ACE8C009ACE8F9
:100A6000C0098D46704710B50446AFF3008020469C
:100A7000BDE81040FFF767BC00487047E459002408
:100A800070B53A4905460068884202D0384A90421B
:100A900002D1D1F8080302E03648D0F8080310F478
:100AA000403F11D004F0F8F804466868B0F5803F84
:100AB00006D0B0F5003F03D0B0F5403F27D101E0AC
:100AC000000C18E0A40822E000214FF4002003F0FD
:100AD0004DF9044668688103890B18D181140C29EB
:100AE00015D2DFE801F0140606060606060B0D0F08
:100AF0001113800C4000B4FBF0F408E0240906E078
:100B0000640904E0A40902E0E40900E0240A02F018
:100B10001FF941F20301884208D817488442286827
:100B2000816813D821F48071816070BD1349600819
:100B3000884204D82868816821F44071F4E710499C
:100B4000884206D82868816821F4407141F4807198
:100B5000EAE70C4988422868816804D821F440718A
:100B600041F40071E0E741F44071DDE7002002400C
:100B70000021024000600258002D3101105E5F002C
:100B800020BCBE0040787D0110B501240348E1037C
:100B900002F0CCF800B10024204610BD000002583D
:100BA0000146014804F008BEB001002410B5044815
:100BB00004F014FE042801D0012010BD002010BD57
:100BC000B001002410B500F015F8012801D0022072
:100BD00010BD074804F07EFE044634B904484FF4C3
:100BE000804104F047FC00B10124204610BD000004
:100BF000B001002408B501200090FFF7C5FF08B937
:100C0000002000909DF8000008BD000010B50024F1
:100C100013460A460146034804F05AFF00B1012476
:100C2000204610BDB001002410B5002413460A462A
:100C30000146034804F0B8FF00B10124204610BD6E
:100C4000B0010024FEE70000014801F097B8000061
:100C5000D0090024014801F091B80000480A00249E
:100C6000014801F08BB8000058090024294A0168A6
:100C700091423AD0274A1832914236D0254A303232
:100C8000914232D0234A483291422ED0214A6032DA
:100C900091422AD01F4A7832914226D01D4A903282
:100CA000914222D01B4AA83291421ED01A4A914248
:100CB0001BD0194A1832914217D0174A303291424C
:100CC00013D0154A483291420FD0134A60329142F4
:100CD0000BD0114A7832914207D00F4A903291429C
:100CE00003D00D4AA832914211D1CAB21823103A4A
:100CF000B2FBF3F26FF30901032A02F00703074A7C
:100D0000D25CC26500D9091D81650846704721F093
:100D1000FF01F9E71000024010040240BAE10008A8
:100D200030B5224A012301689142CAB21BD01F4C40
:100D30001434A14217D01D4C2834A14213D01B4CAF
:100D40003C34A1420FD0194C5034A1420BD0174C67
:100D50006434A14207D0154C7834A14203D0134C1F
:100D60008C34A1420CD11421114C083AB2FBF1F1A0
:100D70000F4A803201F01F0504EB8101AB4010E007
:100D80000C4D1824103A0D44B2FBF4F1A82D00D8F4
:100D90000831094A01F01F0402EB8101064AA34011
:100DA0008032603080E80E0030BD000008540258E8
:100DB00000580258F0FBFDBF0008024010B5027950
:100DC000531E072B2DD8174C0168A1421BD0154C80
:100DD0001434A14217D0134C2834A14213D0114C23
:100DE0003C34A1420FD00F4C5034A1420BD00D4CDB
:100DF0006434A14207D00B4C7834A14203D0094C93
:100E00008C34A14203D10849074C443102E0074920
:100E1000064C443104EB8202C0E91B2101219940B8
:100E2000416710BD08540258FC580258FC080240A3
:100E300010B583694FF0C074826A0146002053B137
:100E4000B3F5005F15D072B1012A0CD0022A0AD086
:100E5000032A09D104E01AB1012A06D0022A03D1DB
:100E6000C96AC90100D5012010BDC96AA142FAD0E2
:100E700010BD002AF7D0012AF2D0022AF3D0032AAB
:100E8000F3D010BD2DE9F04F804E804FDFF8FC917C
:100E90001836DFF8F8A148370468856D0AF1300A82
:100EA000DFF8ECB14C45DFF8ECC1DFF8ECE16DD0D8
:100EB000B4426BD0544569D0BC4267D0DFF8D081D2
:100EC000A8F11808444561D05C455FD064455DD009
:100ED00074455BD0DFF8C481444557D0DFF8BC814E
:100EE00008F11808444551D0DFF8B08108F1300806
:100EF00044454BD0DFF8A48108F14808444545D06B
:100F0000DFF8988108F1600844453FD0DFF88C8114
:100F100008F17808444539D0DFF8808108F190085D
:100F2000444533D0DFF8748108F1A80844452DD03A
:100F3000DFF86C81444529D0DFF8648108F114089A
:100F4000444523D0DFF8588108F1280844451DD0D6
:100F5000DFF84C8108F13C08444517D0DFF84081A8
:100F600008F15008444511D0DFF8348108F16408D5
:100F700044450BD0DFF8288108F17808444505D0B6
:100F8000DFF81C8108F18C08444509D1D0E91948E3
:100F9000C4F80480C46E1CB1D0E91C48C4F80480B5
:100FA00004684C452ED0B4422CD054452AD0BC42C3
:100FB00028D0374E183EB44224D05C4522D0644538
:100FC00020D074451ED0354EB4421BD0334E183657
:100FD000B44217D0314E3036B44213D02F4E48367B
:100FE000B4420FD02D4E6036B4420BD02B4E783623
:100FF000B44207D0294E9036B44203D0274EA836CB
:10100000B44215D190F85C603F2406F01F06B4404E
:10101000AC600468256825F4802525602EE09A6080
:101020000068C160BDE8F08F99600068C260F9E7B0
:101030001B4EB4421BD01A4E1436B44217D0184E71
:101040002836B44213D0164E3C36B4420FD0144E5C
:101050005036B4420BD0124E6436B44207D0104E14
:101060007836B44203D00E4E8C36B442DAD190F8C2
:101070005C60012406F01F06B4406C600468636085
:101080008368402B0368CFD1C9E7000010000240FD
:1010900088000240A0000240B80002401004024054
:1010A00008540258704772B6FEE70022AFF3008082
:1010B00084464DF8044D01200E4B5C7A002C16D16D
:1010C000587A1C54587A03EB8000C0F804C0587A50
:1010D00003F1080C00F80C20587A421C5A72303088
:1010E00008703A2048702F208870CC7000205DF87E
:1010F000044B7047B41400242DE9F84F4FF0000B57
:101100000446E54E0D46CDF800B05F4690F850001D
:10111000DFF888A3012808D04FF0010984F8509027
:10112000206806F0F3F818B169E10220BDE8F88FF5
:1011300021682868CA69030328D090FAA0F0B0FAA1
:1011400080F000BF00F01F0309FA03F00243CA61F8
:10115000D5E900124FF00C0C20681F23C1F3846105
:101160000CEA921C02F01F02604493409140026B13
:101170009A430A430263206806F0C8F88046206854
:1011800006F0C0F858EA000003D07FE0C0F38460A6
:10119000D8E72068AA68296806F0BCF8C049096841
:1011A000B9EB117F06D121686869C968C1F3820172
:1011B000490008E02068C168C906C1686869F5D5BA
:1011C00001F0100149088840296904292ED02268BD
:1011D0002B6802EB810103F0F8420B6E024303F02F
:1011E000004010430866697E22682869012917D0EB
:1011F0005FF0000102EB8000026E22F000420A4321
:101200000266287E21682A6901280CD000200B691B
:1012100002F01F02904023F4F04202430A6135E0DD
:101220004FF00041E6E74FF40060F0E720682978CE
:10123000026E02F0F842B2EB816F03D1016E21F031
:101240000041016620682978426E02F0F842B2EB54
:10125000816F03D1416E21F00041416620682978F9
:10126000826E02F0F842B2EB816F03D1816E21F001
:101270000041816620682978C26E02F0F842B2EB24
:10128000816F03D1C16E21F00041C1662068816881
:1012900011F0010F76D150F8C02F95F80CC0814B9A
:1012A00029680CF0180C23FA0CF3C1F313080B4057
:1012B00022EA08021A4302607B48E968814277D13A
:1012C000286801031BD090FAA0F1B1FA81F1491C02
:1012D00001F01F0109294FEA003131D8002911D04E
:1012E00090FAA0F1B1FA81F101F1010101F01F01C1
:1012F00009FA01F209D100BFC0F3846109E0C0F32B
:101300008461E4E7C0F38461EEE790FAA0F1B1FAFA
:1013100081F101F1010101F01F0142EA816102D175
:10132000C0F3846003E090FAA0F0B0FA80F000F11E
:10133000010000F01F0000EB400041EA005133E0E3
:1013400000290ED090FAA0F1B1FA81F101F101016A
:1013500001F01F0109FA01F206D100BFC0F3846158
:1013600006E0C0F38461F1E790FAA0F1B1FA81F1EF
:1013700001F1010101F01F0142EA816103D1C0F3D3
:10138000846004E040E090FAA0F0B0FA80F0474AB0
:1013900000F1010000F01F0000EB400002EB0050E4
:1013A00041EA000141F00071AA68206805F0B2FF2F
:1013B000D5F800C0BCF1000F26DA3D4B20683D494E
:1013C000DFF8F490984201D0B04201D10A4600E023
:1013D0004A469268984202F0E07201D0B04209D1C8
:1013E0009D68D6F8088005F0010508F0010845EA77
:1013F000080503E0DAF8085005F0010545B1606D15
:10140000012740F020006065384684F850B08DE632
:101410002A4DAC451CD115021AD45045F4D198423E
:1014200002D0B04200D049468B6842F4000023F05D
:10143000E07202438A60234921480968B1FBF0F059
:101440004000801C00E0401E00900028FBD1DBE73C
:101450001D4DAC450CD1D5010AD45045D4D198428C
:1014600002D0B04200D049468B6842F080700EE056
:10147000164DAC45C8D15502C6D45045C4D198428A
:1014800002D0B04200D049468B6842F4800023F07D
:10149000E07202438A60B7E7002102400060025810
:1014A0000010005CFFFF0F000000FF47000020FE5F
:1014B000002002400023024000630258000084CB59
:1014C000400D030044000024000052C70000B8CFC4
:1014D000F8B54FF0000604003546009602D0606D66
:1014E00010B107E00120F8BD204600F005F9A6651F
:1014F00084F8506020688168C1F3407119B1816837
:10150000704A1140816020688168C1F3007181B91F
:1015100081686D4A114041F0805181606C496B488F
:101520000968B1FBF0F0401C00E0401E009000286C
:10153000FBD120688168C1F3007141B9616D01255B
:1015400041F010016165A16D41F00101A16505F057
:10155000DDFE616DC90600D420B1606D012540F04B
:10156000100093E0606D20F4807040F00200606530
:101570002068816811F0010F1FD1564A564B9042E6
:1015800001D0984207D191689E6801F0010106F0F0
:101590000106314303E05149896801F0010161B955
:1015A000904201D0984201D14D4800E04D488268F8
:1015B000616822F47C120A43826001F0C9FB41F2A7
:1015C0000301884202D9A06810280CD0617D227FD7
:1015D000A368206B490341EA024118430843217F75
:1015E00001290CD010E0607D227F216B400340EA8E
:1015F000024241F01000104340F00C00EFE7218C54
:10160000394A02EB41410843616A29B1A26A01F4F7
:101610007871014342EA01002168344BCA681A40DC
:101620000243CA60206805F071FE0646206805F096
:1016300069FE30431DD1216844F20303267DE26A2E
:10164000C86842EA863298431043C86094F838006C
:1016500001281ED02068016921F001010161206884
:10166000626B016921F07041114301612046FFF76F
:1016700007FAE068012820681CD0016B21F00F01F7
:101680000163606D20F0020040F0010060652846B3
:10169000F8BD2068A28F164FD4E9101C154E07EB39
:1016A0000247A36C026941EA0C013B4332401943F3
:1016B0001143D3E7A269016B521E21F00F011143C0
:1016C000DEE70000C0FFFF5FC0FFFF7F400D0300AB
:1016D0004400002400200240002102400060025823
:1016E00000230240006302580000FEFF03C0F0FF29
:1016F0000100FFFF1EF800FC70B5B6B004461421CF
:1017000030A8FFF79BF8C0216846FFF797F81E49FD
:101710002068884235D10420242300220125144664
:10172000CDE903304FF400218DE82600C026CDE935
:10173000076209922992CDE90505684602F07AFC14
:1017400008B1FFF7B0FC1148016841F080710160F9
:10175000016801F080713591016841F00401016078
:10176000006830A900F00400359003203095CDE9E1
:101770003104074801F0C4F94FF00060014604F05D
:10178000BFFB36B070BD000000600258E044025854
:10179000000802582DE9F84F044601F0DFFA0090E6
:1017A0003CB194F83500022806D080216165002004
:1017B000E4E00120BDE8F88FC74DC74EC649183593
:1017C00020683036DFF81483DFF814938842DFF89E
:1017D00014A3DFF814B32ED0A8422CD0B0422AD0E4
:1017E000404528D0484526D0504524D0584522D0E1
:1017F000BD4A183290421ED0BC4A90421BD0BB4A10
:101800001832904217D0B94A3032904213D0B74ABA
:10181000483290420FD0B54A603290420BD0B34A62
:101820007832904207D0B14A9032904203D0AF4A0A
:10183000A832904209D1026822F01E02026020689C
:10184000426922F08002426103E0026822F00E0247
:10185000026027688F4238464DD0A8424BD0B04234
:1018600049D0404547D0484545D0504543D05845DC
:1018700041D09D4A183290423DD09C4A90423AD085
:101880009A4A1832904236D0984A3032904232D03A
:10189000964A483290422ED0944A603290422AD0E2
:1018A000924A7832904226D0904A9032904222D08A
:1018B0008E4AA83290421ED08D4A90421BD08C4A4C
:1018C0001432904217D08A4A2832904213D0884A64
:1018D0003C3290420FD0864A503290420BD0844A1C
:1018E0006432904207D0824A7832904203D0804AD4
:1018F0008C32974204D1206E026822F4807202601A
:1019000075492068884228D0A84226D0B04224D009
:10191000404522D0484520D050451ED058451CD0C7
:1019200071491831884218D07049884215D06F49E2
:101930001831884211D06D49303188420DD06B4941
:101940004831884209D069496031884205D06749E9
:101950007831884201D065499031016821F0010158
:1019600001600EE001F0FAF90099401A052808D943
:10197000202262650321002084F8351084F83400A9
:1019800017E73868C007EDD1534A0121206890421B
:101990002ED0A8422CD0B0422AD0404528D048456D
:1019A00026D0504524D0584522D04F4B183398426A
:1019B0001ED04E4B98421BD04C4B1833984217D038
:1019C0004A4B3033984213D0484B483398420FD09B
:1019D000464B603398420BD0444B7833984207D043
:1019E000424B9033984203D0404BA833984208D1E1
:1019F00094F85C703F23A06D07F01F07BB40836025
:101A000007E094F85C30A06D03F01F0301FA03F3C4
:101A10004360206890424DD0A8424BD0B04249D09C
:101A2000404547D0484545D0504543D0584541D022
:101A30002D4A183290423DD02C4A90423AD02B4A3F
:101A40001832904236D0294A3032904232D0274A5A
:101A5000483290422ED0254A603290422AD0234A02
:101A60007832904226D0214A9032904222D01F4AAA
:101A7000A83290421ED01E4A90421BD01C4A1432FB
:101A8000904217D01A4A2832904213D0184A3C325A
:101A900090420FD0164A503290420BD0144A643212
:101AA000904207D0124A7832904203D0104A8C32CA
:101AB00090420BD1D4E919024260E06E30B1026865
:101AC00022F480720260D4E91C024260002084F893
:101AD000351084F834006DE61000024058000240D2
:101AE0007000024088000240A00002401004024042
:101AF000085402582DE9F05F28B190F835100229FA
:101B000004D0802141650120BDE8F09F904C904BAE
:101B10000168183C18338E4ADFF83C92A1428D4C84
:101B2000DFF838E28E4FDFF83CB2DFF83CA28F4D91
:101B30008F4E31D091422FD099422DD0A1422BD03F
:101B4000494529D0714527D0B94225D0DFF810C2C8
:101B50000CF1180C61451FD0DFF808C2ACF1600C25
:101B6000614519D0DFF8FCC1ACF1480C614513D0D8
:101B7000DFF8F0C1ACF1300C61450DD0DFF8E4C105
:101B8000ACF1180C614507D0594505D0514503D03B
:101B9000A94201D0B1422CD1DFF8B4C14FF0040802
:101BA00080F83580ACF1180C61451DD091421BD0F6
:101BB000994219D0A14217D0494515D0714513D08B
:101BC000B94211D06648183081420DD0654860385E
:101BD000814209D063484838814205D06148303895
:101BE000814201D05F481838086820F00100086081
:101BF000ABE0D1F800C02CF00E08DFF854C1C1F8FA
:101C00000080ACF1180C0168614527D0914225D0C5
:101C1000994223D0A14221D049451FD071451DD002
:101C2000B9421BD0DFF838C10CF1180C614515D052
:101C3000DFF830C1ACF1600C61450FD0DFF824C192
:101C4000ACF1480C614509D0DFF818C1ACF1300C9B
:101C5000614503D0DFF80CC1ACF1180CD1F800C01D
:101C60002CF0010CC1F800C0DFF8E4804FF0010C4B
:101C70000168A8F11808414546D0914244D09942E4
:101C800042D0A14240D049453ED071453CD0B942F6
:101C90003AD0334A1832914236D0324A603A9142B1
:101CA00032D0304A483A91422ED02E4A303A9142B0
:101CB0002AD02C4A183A914226D0594524D0514571
:101CC00022D0A94220D0B1421ED02A4A91421BD034
:101CD000284A1432914217D0264A2832914213D012
:101CE000244A3C3291420FD0224A503291420BD0CA
:101CF000204A6432914207D01E4A7832914203D082
:101D00001C4A8C32914218D1016E0A6822F480720A
:101D10000A6090F85C20816D02F01F020CFA02F25A
:101D20004A60D0E919124A60C16E31B10A6822F4E2
:101D300080720A60D0E91C124A600022016D80F8AE
:101D400035C080F8342001B188470020DCE600006F
:101D50002800024058000240700002408800024003
:101D6000A00002407004024088040240A004024027
:101D7000B804024008540258406D70472DE9FC5FDA
:101D80000446F74E0020DFF8D88300904FF4165237
:101D9000F44808F11808A56DDFF8C493DFF8C0A374
:101DA000016809F1300920680AF1480AB1FBF2F133
:101DB000B04201912F68D5F800C0DFF8ACB335D040
:101DC0004146884232D0484530D050452ED0584503
:101DD0002CD0E5491831884228D0E3493031884277
:101DE00024D0E1494831884220D0E04988421DD0C2
:101DF000DE491831884219D0DC493031884215D08B
:101E0000DA494831884211D0DFF860E30EF1600E04
:101E100070450BD0D54A7832904207D0D34B9033DF
:101E2000984203D0D149A83188427DD194F85C20F2
:101E3000082102F01F0201FA02F23A424AD0B042EF
:101E400032D0404530D048452ED050452CD0584552
:101E50002AD0C54A1832904226D0C34A3032904226
:101E600022D0C14A483290421ED0C04A90421BD074
:101E7000BE4A1832904217D0BC4A3032904213D03A
:101E8000BA4A483290420FD0B84A603290420BD0E2
:101E9000B64A7832904207D0B44A9032904203D08A
:101EA000B24AA832904203D1026802F0040202E072
:101EB000026802F008026AB1026822F004020260BD
:101EC00094F85C0000F01F008140A960606D40F054
:101ED0000100606594F85C00012100F01F00814062
:101EE000394240D02068B04234D0404532D04845D5
:101EF00030D050452ED058452CD09B4A18329042B5
:101F000028D0994A3032904224D0974A48329042A1
:101F100020D0964A90421DD0944A1832904219D04F
:101F2000924A3032904200E0AFE113D08F4A4832FB
:101F300090420FD08D4A603290420BD08B4A78325B
:101F4000904207D0894A9032904203D0874AA83203
:101F500090427DD1406910F0800F04D0A960606D7F
:101F600040F00200606594F85C00042100F01F005E
:101F7000814039423ED02068B04232D0404530D016
:101F800048452ED050452CD058452AD0764A183294
:101F9000904226D0744A3032904222D0724A48325F
:101FA00090421ED0714A90421BD0704A1832904223
:101FB00017D06E4A3032904213D06C4A4832904269
:101FC0000FD06A4A603290420BD0684A7832904211
:101FD00007D0664A9032904203D0644AA8329042B9
:101FE0004ED1006810F0020F04D0A960606D40F07F
:101FF0000400606594F85C00102100F01F0081402F
:10200000394258D02068B04234D0404532D048459B
:1020100030D050452ED058452CD0534A18329042DB
:1020200028D0514A3032904224D04F4A4832904210
:1020300020D04E4A90421DD04C4A1832904219D0BE
:102040004A4A3032904215D0484A4832904200E025
:1020500014E00FD0454A603290420BD0434A7832A8
:10206000904207D0414A9032904203D03F4AA83272
:10207000904207D1006800F0080006E0006872E7AF
:102080000068B7E7006800F00400A0B1A96020680C
:102090000168490304D50068000308D5A16C07E076
:1020A0000168C90503D4016821F008010160216CB1
:1020B00009B12046884794F85C00202100F01F00F9
:1020C0008140394279D02068B04232D0404530D08A
:1020D00048452ED050452CD058452AD0224A183297
:1020E000904226D0204A3032904222D01E4A4832B6
:1020F00090421ED01D4A90421BD01C4A183290427A
:1021000017D01A4A3032904213D0184A48329042BF
:102110000FD0164A603290420BD0144A7832904267
:1021200007D0124A9032904203D0104AA83290420F
:1021300003D1006800F0100002E0006800F0020027
:10214000B0B3A96094F835000428206801680FD066
:1021500049037ED5006800032BD4616C2AE000009F
:1021600010000240440000247000024010040240AD
:1021700021F0160101602068416921F08001416170
:10218000206C08B9A06C20B12068016821F008011A
:10219000016094F85C303F21012003F01F0300220E
:1021A0009940A96084F8350084F83420216D65E0F9
:1021B00003E0E16B09B120468847606D00287DD0BF
:1021C000606DC00759D02068042184F83510B042F2
:1021D0002BD0404529D0484527D0504525D05845DB
:1021E00023D09D49884220D09B49183188421CD079
:1021F00099493031884218D09849884215D097497A
:102200001831884211D09549303188420DD0934918
:102210004831884209D091496031884205D08F49C0
:102220007831884201D08D499031016821F0010157
:10223000016020680099019A491C0091914202D8DE
:102240000168C907F6D10068C00710D003200FE06D
:10225000FFE70168C905ACD403680121002223F01F
:102260001003036084F8351084F83420A1E70120BE
:1022700084F83500002084F83400E16C00291DD07A
:1022800002B02046BDE8F05F0847754988421DD07E
:1022900073491431884219D071492831884215D0C8
:1022A0006F493C31884211D06D49503188420DD080
:1022B0006B496431884209D0694900E084E0783193
:1022C000884203D066498C3188427DD194F85C8085
:1022D0000427016808F01F0807FA08F717EA0C0F2F
:1022E000009746D04F0744D500980F04686003D587
:1022F000C8033CD4A16CC1E7880638D42068B0423A
:102300002DD055496039884229D0484527D05045BD
:1023100025D0584523D05049884220D04E49183105
:1023200088421CD04C493031884218D04B498842F1
:1023300015D04A491831884211D048493031884275
:102340000DD046494831884209D0704507D09042A7
:1023500005D0984203D04149A831884203D1016891
:1023600021F0080102E0016821F004010160216C04
:1023700084E7022707FA08F717EA0C0F00974ED0F8
:102380008F074CD500980F04686003D5C80344D468
:10239000616C73E7880640D42068B0422FD02E4984
:1023A000603988422BD0484529D0504527D0584520
:1023B00025D02949884222D02749183188421ED089
:1023C00025493031884200E044E018D02349884252
:1023D00015D022491831884211D020493031884225
:1023E0000DD01E494831884209D0704507D090422F
:1023F00005D0984203D01949A831884203D1016819
:1024000021F0140102E0016821F00A0101600121BC
:1024100084F83510002084F83400E16B2EE70822A0
:1024200002FA08F212EA0C0F14D0090712D501685B
:1024300021F00E01016094F85C100120002201F0EF
:102440001F0100FA01F16960606584F8350084F8C5
:10245000342012E7BDE8FC9F8800024010040240CF
:10246000085402582DE9F05F044600F077FC002C78
:1024700007467DD0E34E022120684FF00308DFF8C5
:1024800088934FF00005DFF884A3B042DFF880B3F3
:1024900034D0DC4A1832904230D048452ED05045D6
:1024A0002CD058452AD0DA4A1832904226D0D84A41
:1024B0003032904222D0D64A483290421ED0D54A7D
:1024C00090421BD0D34A1832904217D0D14A3032B2
:1024D000904213D0CF4A483290420FD0CD4A60325A
:1024E00090420BD0CB4A7832904207D0C94A903202
:1024F000904203D0C74AA83290427DD184F835106B
:10250000B04284F834502ED0BE49183188422AD0C7
:10251000484528D0504526D0584524D0BC491831CC
:10252000884220D0BA49303188421CD0B84948315D
:10253000884218D0B749884215D0B6491831884228
:1025400011D0B449303188420DD0B2494831884267
:1025500009D0B0496031884205D0AE49783188420F
:1025600001D0AC499031016821F00101016008E01F
:1025700027E100BF00F0F2FBC01B052801D9202194
:102580001CE120680068C007F4D104F1080021684C
:10259000D4E9053C8E4685C809681043D4E907286C
:1025A0001F43636A38439C4F40EA0C001043394094
:1025B00040EA0800042B40EA010003D1D4E90B12E1
:1025C00011430843954909686FF30F01B1F1005FAA
:1025D0000FD36168A1F12902052A08D9163A032A06
:1025E00005D9083A012A02D94F39032901D840F404
:1025F0008010CEF8000000E023E02068676A4069A0
:10260000042F20F0070047EA00070DD1D4E90A01A2
:10261000074349B12046FEF70BFC28B14020606516
:10262000012184F83510CCE0206847612046FEF790
:102630001DFB94F85C203F2102F01F029140816055
:1026400054E0774A90421BD0754B1433984217D010
:10265000734B2833984213D0714B3C3398420FD0C0
:102660006F4B503398420BD06D4B6433984207D078
:102670006B4B7833984203D0694B8C3398427DD1B1
:1026800084F8351084F83450664B0168A26801EA7A
:10269000030E402A73D0802A72D00022D4E9037836
:1026A000D4E9053142EAD70242EAD8085C4AD4E9C3
:1026B000077C48EAD30848EAD10141EAD7015242EF
:1026C00041EA1C11142341EA0E0101602068104404
:1026D000B0FBF3F08000E0652046FEF7C7FA94F8FF
:1026E0005C20012102F01F02914041602068B0424D
:1026F00057D044491831884253D0484551D05045AD
:102700004FD058454DD042491831884249D04049B0
:102710003031884245D03E494831884241D03D4918
:1027200088423ED03B49183188423AD0394930314D
:10273000884236D037494831884232D035496031F5
:1027400088422ED03349783188422AD0314990319D
:10275000884226D02F49A831884222D03049884269
:102760001FD02F49143188421BD02D49283188426F
:1027700017D02B493C31884213D002E01DE017E00E
:1027800018E02749503188420BD0254964318842EE
:1027900007D023497831884203D021498C318842BF
:1027A00029D12046FEF7BCFAA06880280CD00CE0A6
:1027B000102273E74FF4804270E74021616584F88E
:1027C00035800120BDE8F09F6560216E20790860AA
:1027D000D4E9190141606068401E072808D82046E6
:1027E000FEF7ECFAE06E0560D4E91C01416002E0FE
:1027F000E566256765670120656584F8350000207A
:10280000E0E7000010000240400002405800024093
:1028100070000240100402403F8010FE0010005C77
:10282000085402580F00FEFF2DE9F84F04008C46B3
:102830004FF00000009014D094F83400012812D01A
:1028400094F835500120002184F83400012D0CD07B
:10285000C00260650120009084F834100098BDE843
:10286000F88F0120FBE70220F9E78C4D0226206853
:1028700084F83560A8428A4D61658A4E8A4FDFF838
:102880002C82DFF82C92DFF82CA2DFF82CB226D0B5
:10289000A84224D0B04222D0B84220D040451ED019
:1028A00048451CD050451AD0584518D08349884215
:1028B00015D082491831884211D080493031884280
:1028C0000DD07E494831884209D07C496031884228
:1028D00005D07A497831884201D078499031016831
:1028E00021F00101016061462046FEF7CBFA6B49F9
:1028F000206888422CD0A8422AD0B04228D0B842C2
:1029000026D0404524D0484522D0504520D05845B7
:102910001ED06A4A90421BD0684A1832904217D0A3
:10292000664A3032904213D0644A483290420FD007
:10293000624A603290420BD0604A7832904207D0AF
:102940005E4A9032904203D05C4AA83290420CD149
:10295000026822F01E0242F016020260206C88B16A
:102960002068026842F008020BE0026822F00E02C2
:1029700042F00A020260206C20B12068026842F036
:1029800004020260206888424BD0A84249D0B0427D
:1029900047D0B84245D0404543D0484541D0504546
:1029A0003FD058453DD0454A90423AD0434A18322C
:1029B000904236D0414A3032904232D03F4A48327B
:1029C00090422ED03D4A603290422AD03B4A783223
:1029D000904226D0394A9032904222D0374AA832CB
:1029E00090421ED0364A90421BD0354A1432904253
:1029F00017D0334A2832904213D0314A3C329042A9
:102A00000FD02F4A503290420BD02D4A6432904260
:102A100007D02B4A7832904203D0294A8C32904218
:102A20000DD1206E0268D20303D5026842F4807291
:102A30000260E06E18B1026842F4807202602068A1
:102A4000884226D0A84224D0B04222D0B84220D01A
:102A500040451ED048451CD050451AD0584518D086
:102A60001649884215D015491831884211D01349AA
:102A7000303188420DD011494831884209D00F4980
:102A80006031884205D00D497831884201D00B4928
:102A90009031016841F001010160DFE61000024061
:102AA00028000240400002405800024070000240EE
:102AB00088000240A0000240B8000240100402401A
:102AC000085402580D4900220B685A620A681368BC
:102AD00043F00103136009684A6A8242FCD3086A22
:102AE00041F21112104207D1086A9210104203D12C
:102AF000086820F0010008607047000020040024EE
:102B00002DE9F84F03247D4D00234FF001094FF0CC
:102B1000B04B4FF00F0AE9E009FA03F73A4076D0DC
:102B20000E7906F00306012E01D0022E18D1D0F83E
:102B300008C04FEA430ECE6804FA0EF82CEA080CDF
:102B400006FA0EF646EA0C068660D0F804C00E7946
:102B50002CEA070CC6F300169E4046EA0C064660B7
:102B60000E79F643B6070BD0C6684FEA43088F6864
:102B700004FA08FC26EA0C0607FA08F73743C76090
:102B80000E7906F00306022E12D1DE080F694FEA15
:102B9000437C00EB8606B646366A4FEADC6C0AFADE
:102BA0000CF807FA0CF726EA08063743CEF820702F
:102BB0000F7906684FEA430807F0030704FA08FC98
:102BC00007FA08F726EA0C06374307604E6816F442
:102BD000403F1CD04A4E376847F0020737603668DE
:102BE0009F0706F00206009623F0030606F1B046A2
:102BF000B6463F0FD6F80864DFF808810AFA07FCEA
:102C0000404526EA0C0603D14FF0000C41E06CE091
:102C1000DFF8F4C0604502D14FF0010C39E0DFF875
:102C2000ECC0604502D14FF0020C32E0DFF8E0C0AA
:102C3000604502D14FF0030C2BE0DFF8D8C06045AF
:102C400002D14FF0040C24E0DFF8CCC0604502D183
:102C50004FF0050C1DE0DFF8C4C0604502D14FF015
:102C6000060C16E0DFF8B8C0604502D14FF0070C43
:102C70000FE0DFF8B0C0604502D14FF0080C08E06B
:102C8000DFF8A4C0604502D14FF0090C01E04FF01D
:102C90000A0C0CFA07FC4CEA060CCEF808C44F6884
:102CA000DBF80060FF0226EA020600D516435F4605
:102CB000CBF80060D1F804C0DBF804605FEA8C2C2C
:102CC00026EA020600D516437E606E684F6826EA43
:102CD0000206BF0300D516436E602E684F6826EAD1
:102CE0000206FF0300D516432E605B1C0A6832FA09
:102CF00003F67FF411AFBDE8F88F000080000058A4
:102D0000F444025800000258000402580008025817
:102D1000000C025800100258001402580018025803
:102D2000001C025800200258002402580069084084
:102D300000D001207047426921EA02030A4043EAB9
:102D40000241816170470AB1816170470904FBE764
:102D500001480068000C70470010005C0148806862
:102D6000704700003800002430B590F84120202A38
:102D700024D190F84020012A20D0012380F840304F
:102D8000242280F84120202300240268156825F0C1
:102D9000010515600268156825F480551560026804
:102DA00015680D43156001680A6842F001020A6067
:102DB00080F8413080F84040002030BD022030BD16
:102DC00030B590F84120202A22D190F84020012AE5
:102DD0001ED0012380F84030242280F84120202496
:102DE00000250268136823F001031360026813686A
:102DF00023F4706343EA0121116001680A6842F01C
:102E000001020A6080F8414080F84050002030BD47
:102E1000022030BD70B5040004D094F841000025B4
:102E200010B106E0012070BD204684F8405000F04B
:102E30004DF8242084F841002068016821F0010148
:102E40000160D4E9001020F070600861206881689A
:102E500021F400418160E06821680128A06806D063
:102E600040F404408860E068022803D006E040F4A3
:102E70000040F7E721684FF4006048602021206897
:102E8000114A4368134343602068C26822F4004239
:102E9000C26054F8106B0DCC104340EA0320F06080
:102EA00054F81C3CD4E900021043186054F81C0D7F
:102EB000026842F001020260656484F841102563F3
:102EC00084F84250002070BD0080000210B5B6B0FA
:102ED0000446142130A8FDF7B1FCC0216846FDF777
:102EE000ADFC1849206888422AD100202190082191
:102EF0000446CDE90010684601F09CF808B1FEF7E1
:102F0000D2F81148016841F002010160006830AB5D
:102F1000122100F002003590C020042283E8130043
:102F20000A4830A9CDE93342FFF7EAFD06480830E8
:102F3000016841F400110160006800F40010359050
:102F400036B010BD00540040E0440258000402585E
:102F5000024881680278114481607047380000247B
:102F6000032010B500F0ACF801F0DCFE0F4A104968
:102F700014681368C4F3032203F00F038A5CC95C6E
:102F800002F01F0201F01F01D0400A4A20FA01F1AD
:102F90001160094908600F2000F010F808B1012005
:102FA00010BD00F04DF8002010BD0000184402587C
:102FB000EAE10008480000244400002410B510286D
:102FC00004468AB02AD200220146762000F058F842
:102FD000762000F047F8154804601548016841F470
:102FE00080210160006808A900F4802009906846EB
:102FF00001F024FE01F084FE0E49400000220E4C38
:10300000B0FBF1F10D4840F2E7330460C0E9033250
:10301000491EC0E9011202F0D1FF10B101200AB02F
:1030200010BD064803F08CF8F9E700003C000024CE
:10303000F044025840420F0000480140381200247A
:10304000074882B0016841F0020101600068002277
:103050000F2100F002000090901E02B000F010B8A6
:10306000F4440258002809DB410900F01F028900DE
:10307000012001F1E0219040C1F8000170470000FB
:103080000E4BF0B41B680D46C3F30223C3F10706D1
:10309000042E00D90426191D072901D2002300E0BF
:1030A000DB1E012404FA06F19C40491E2940641EDF
:1030B000994014402143F0BC08F0A3B80CED00E0A7
:1030C000064900F0070210B54FF6FF040868044BEC
:1030D000204040EA02201843086010BD0CED00E0DB
:1030E0000000FA057047D0F8080507F0C3B901EBF6
:1030F000C10200EB8202D0F80805926C07F0E4B838
:1031000001EBC10200EB8202D0F80805D2F8882258
:1031100007F048B9D0F8080507F0AEB90A0601F083
:103120000F0101EBC10100EB810101D53C3101E050
:1031300001F51F71006807F0FDBE70B542680446D6
:1031400001F00F00904201D9012070BD01F00F0283
:103150004FF000050B0602EBC2014FF0010204EB39
:10316000810103D581F83D203C3103E081F87D5297
:1031700001F51F718D70087094F8BC04012808D007
:1031800084F8BC24206807F061FD002084F8BC545A
:1031900070BD022070BD2DE9F04101F00F0604461C
:1031A0000D064FF0010006EBC6014FF0000504EBE1
:1031B000810103D581F83D003C3103E081F87D5267
:1031C00001F51F714F788A600B710E7007B14E8345
:1031D000022B00D14D7194F8BC24012A09D084F847
:1031E000BC04206807F0B8FC284684F8BC54BDE84D
:1031F000F0810220FBE770B501F00F05002405EB1C
:10320000C50100EB810101F5227181E81C0001F884
:103210000B4C01F80C5DC368012B00D1CA61027B25
:10322000006807F06BFD002070BD70B50D46416869
:10323000044605F00F00884201D9012070BD29061F
:103240004FF000064FF0010207D500EBC00104EB80
:10325000810181F83D203C3107E005EBC50104EB1D
:10326000810181F87D6201F51F718A70087094F800
:10327000BC04012807D084F8BC24206807F012FDA4
:10328000280702D007E0022070BD217B04F2C4426F
:10329000206807F0AFFC002084F8BC6470BD70B5F6
:1032A00001F00F04002504EBC401012600EB8101AD
:1032B000483181E82C0001F80B6C01F80C4DC36813
:1032C000012B00D1CA61027B006807F017FD0020C6
:1032D00070BD00002DE9FC5F05680446284607F034
:1032E000A6FE00287ED1206807F0CDFE002879D008
:1032F000D5F80808C0F30D20C4F8FC04206807F0D6
:10330000C2FE800704D52068416901F002014161D5
:10331000206807F0B8FEC10604F2C440009034D51E
:103320002068816921F0100181612F6A07F00F0187
:10333000C7F3434001EBC101022804EB810606F507
:103340001F7602D0062811D01AE047F6F070074227
:1033500016D0C7F30A12F1681746284607F097FE01
:10336000F16870693944F160384408E00099082236
:10337000284607F08CFE7069C7F30A110844706193
:103380002068816941F010018161206807F07BFEAF
:1033900000034FF0000A4FF0020B4FF001097CD5FB
:1033A0002068002607F04EFE074674E0F80770D04C
:1033B0002068F1B207F05FFE8046C00707D005EB3A
:1033C0004611C1F8089B3146204604F081FC5FEAB3
:1033D000087025D505EB46110820C1F8080BFC49FB
:1033E000206800E042E2026C00EB461001928A4243
:1033F000D0F8081B05D9090403D54FF40041C0F8E3
:10340000081B204600F06FFAF1490198884207D95D
:10341000E068012804D120680121009A07F0EAFB46
:103420005FEAC86004D505EB46111020C1F8080B0F
:103430005FEA88701CD56869000605D5D5F80408D0
:1034400040F48061C5F8041806EBC60004EB800068
:1034500090F87F1200F51F70012905D180F803A0B4
:103460002046F1B200F008FA05EB4611C1F808BB9E
:103470005FEA886004D505EB46112020C1F8080BEF
:103480005FEA884005D505EB46114FF40050C1F8BE
:10349000080B7F08761C002F88D1206807F0F3FD09
:1034A00040036FD5206807F0C6FD0026074667E099
:1034B000F80763D02068F1B207F0CBFD8046C00763
:1034C00023D0D5F8342806F00F0C05EB461309FA83
:1034D0000CF08243C5F83428C3F80899E068012845
:1034E0000FD106EBC60004EB8000D0E911121144A5
:1034F000816436B9E06C20B920680121009A07F098
:1035000079FB2046F1B2FFF7F2FD5FEA087004D5BF
:1035100005EB46110820C1F808095FEAC86004D528
:1035200005EB46111020C1F808095FEA486004D590
:1035300005EB46114020C1F808095FEA887016D5EE
:103540003146284607F046FD06EBC60004EB800036
:1035500090F83F103C30012905D180F803A02046A7
:10356000F1B200F085F905EB4611C1F808B95FEA40
:10357000086003D53146204604F010FC7F08761C15
:10358000002F95D1206807F07EFD002811DAD5F8CC
:10359000040820F00101C5F8041894F8F404012887
:1035A0003BD0204600F083F92068416901F00041DA
:1035B0004161206807F067FD00050BD5D5F80808C4
:1035C000C00702D0204600F095F92068416901F457
:1035D00000614161206807F056FD00010AD52068AE
:1035E000416901F00061416194F8F404E0B12046C2
:1035F00000F080F9206807F046FDC00472D5D5F8C8
:10360000040820F00101C5F804182068102107F013
:10361000E1FC00214FF67F322DE00021204684F8A6
:10362000F4A4FFF75FFDBFE784F8F4942068406DD1
:103630000121C0F38300C4F8F8042046FFF752FDCF
:10364000D8E700BF05EB4110C0F80829D0F80039D1
:1036500023F40013C0F80039C0F8082BD0F8003B61
:1036600023F40013C0F8003BD0F8003B43F00063A4
:10367000C0F8003B491C60688842E3D8D5F81C08B4
:1036800040F00111C5F81C18206B68B1D5F884080A
:1036900040F00B01C5F88418D5F8440840F00B0140
:1036A0002846C5F844180DE0D5F8140842F22B015D
:1036B0000843C5F81408D5F8100840F00B01284657
:1036C000C5F81018D0F8000820F4FE61C5F80018FD
:1036D000217B2068009A07F08DFA2068416901F487
:1036E00080514161206807F0CEFC800417D5206826
:1036F00007F072FA206807F08DFC206101F0CCFA27
:10370000217C2368CAB20146184607F0F1FC204626
:1037100000F0B6F82068416901F400514161206869
:1037200007F0B1FC000707D5204600F0C4F8206878
:10373000416901F008014161206807F0A4FC00061E
:1037400016D5A869012620F08001A9610DE000BF0F
:1037500006EBC60004EB800090F87F02012803D13D
:103760002046F1B2FFF7DAFC761C6068B042EFD871
:10377000206807F088FCC00221D501264F4616E0DC
:1037800006EBC60105EB461004EB8101D0F80009F9
:1037900091F84020012A09D1002807DAF0B281F817
:1037A0003F7040F080012046FFF7B8FC761C60684F
:1037B000B042E5D82068416901F480114161206878
:1037C00007F061FC800234D501204B4629E000005F
:1037D0000A30544F00EBC00205EB401104EB8202AB
:1037E000D1F8001B92F88062012E19D1002917DA56
:1037F00094F8FC6401F4803106F00106B1420FD167
:1038000082F87F32A96941F08002AA6169690906DC
:1038100006D4D5F8040840F40070C5F8040803E0A5
:10382000401C61688142D5D82068416901F40011CB
:103830004161206807F027FC400007D52046FFF7CC
:1038400052FC2068416901F080414161206807F025
:103850001AFC40070AD520684568680702D520464B
:10386000FFF758FC2068416829434160BDE8FC9F90
:10387000D0F8080506F021BED0F8080506F032BEE3
:1038800070B504460125206900280ED0022801D019
:10389000FDF709FCD4F80805294606F094FED4F893
:1038A0000805BDE8704006F047BE0025F2E7D0F8F5
:1038B000080506F071BED0F8080506F077BE10B511
:1038C000044690F8BC0401280BD0012084F838107D
:1038D00084F8BC04206807F0FAFB002084F8BC04DC
:1038E00010BD022010BDD0F8082500F2C4411046DA
:1038F00006F075BE10B50446D4F8080506F0AAFE19
:103900002068D0F8001E41F00101C0F8001E206AB6
:10391000002804D00248016841F00601016010BD92
:1039200010ED00E0134970B50A68D243520705D57F
:10393000096801F00701814213D118E00A6822F0FA
:10394000070202430A60FFF709FA0A4D4FF47A763C
:103950000446083D07E000BFFFF700FA001BB04235
:1039600001D9012070BD2868C0438004F4D4002030
:1039700070BD00000C48025810B501F08DF90549E2
:103980000968054AC1F30211515C01F01F01C840EA
:1039900010BD000020440258EAE100084A4930B551
:1039A000494C0B1D0A680C3409681D68246802F034
:1039B000030305F00102C1F30511C4F3CC0400298F
:1039C00014FB02F200EE102AF8EE400A76D0414ACB
:1039D0009FED3E1ADFED3E1AB7EE000A23B1012B30
:1039E0005AD0022B18D15CE0374C283C23689B0648
:1039F00012D5394B246801EE901A1168C4F3C10442
:103A0000F8EE612AE34001EE903AC1F30801F8EEC6
:103A1000611A81EEA22A07E002EE101A1168F8EE90
:103A2000422A81EEA22A45E001EE901A1168F8EED2
:103A3000611A40EE811A71EE800A62EE200AC1F32B
:103A4000462101EE101AB8EE411A31EE001AC0EE0E
:103A5000811ABCEEE11A80ED001A1168C1F306412B
:103A600001EE101AB8EE411A31EE001AC0EE811ABA
:103A7000BCEEE11A80ED011A1168C1F3066101EE96
:103A8000101AB8EE411A31EE000A80EE801ABCEE30
:103A9000C10A80ED020A30BD01EE901ADFED0F2A57
:103AA00003E001EE901ADFED0E2A1168F8EE611ABC
:103AB00082EEA12AC1F30801B6E7FFE70021016009
:103AC0004160816030BD0000284402580000003988
:103AD0000024744C304402580090D0030024744AEF
:103AE0000024F44A494930B5484C0B1D0A68143487
:103AF00009681D68246802F00303C5F30012C1F3CE
:103B00000531C4F3CC04002914FB02F200EE102AA4
:103B1000F8EE400A75D03F4A9FED3D1AB7EE000A15
:103B20006BB1DFED3D1A012B01D0022B64D002EE08
:103B3000101A1168F8EE422A81EEA22A21E0334CD5
:103B4000283C23689B0612D5344B246801EE901A5A
:103B50001168C4F3C104F8EE612AE34001EE903A23
:103B6000C1F30801F8EE611A81EEA22A0BE001EE22
:103B7000901ADFED2B2A00BFF8EE611A116882EE71
:103B8000A12AC1F3080101EE901A1168F8EE611A3A
:103B900040EE811A71EE800A62EE200AC1F34621DE
:103BA00001EE101AB8EE411A31EE001AC0EE811A79
:103BB000BCEEE11A80ED001A1168C1F3064101EE76
:103BC000101AB8EE411A31EE001AC0EE811ABCEE9E
:103BD000E11A80ED011A1168C1F3066101EE101AB5
:103BE000B8EE411A31EE000A80EE801ABCEEC10A2E
:103BF00080ED020A30BD04E001EE901ADFED092AE3
:103C0000BAE70021016041608160F3E7284402586F
:103C100000000039384402580024744A0090D00350
:103C20000024744C0024F44A494930B5484C0B1D1B
:103C30000A681C3409681D68246802F00303C5F390
:103C40000022C1F30551C4F3CC04002914FB02F295
:103C500000EE102AF8EE400A75D03F4A9FED3D1A5B
:103C6000B7EE000A6BB1DFED3D1A012B01D0022B3C
:103C700064D002EE101A1168F8EE422A81EEA22AF0
:103C800021E0334C283C23689B0612D5344B246832
:103C900001EE901A1168C4F3C104F8EE612AE34002
:103CA00001EE903AC1F30801F8EE611A81EEA22A02
:103CB0000BE001EE901ADFED2B2A00BFF8EE611A3F
:103CC000116882EEA12AC1F3080101EE901A116871
:103CD000F8EE611A40EE811A71EE800A62EE200A57
:103CE000C1F3462101EE101AB8EE411A31EE001A66
:103CF000C0EE811ABCEEE11A80ED001A1168C1F322
:103D0000064101EE101AB8EE411A31EE001AC0EE6B
:103D1000811ABCEEE11A80ED011A1168C1F3066147
:103D200001EE101AB8EE411A31EE000A80EE801A48
:103D3000BCEEC10A80ED020A30BD04E001EE901A2B
:103D4000DFED092ABAE70021016041608160F3E7F5
:103D50002844025800000039404402580024744AA4
:103D60000090D0030024744C0024F44A2DE9F04F55
:103D7000AD4A0546DFF8ACA280F48070DFF8AC9263
:103D800089B01311AA4C0843AAF104064FF0805CD5
:103D90004FF000584FEAE2002CD085F400770F4333
:103DA00057D0DFF880B285F480670F430BF1080B22
:103DB00061D085F400670F4374D085F480570F43BA
:103DC0006ED085F400570F434FF480394FF4003E16
:103DD00067D085F400270F4371D085F480370F43F7
:103DE0006ED085F480460E436BD085F400420A43C2
:103DF00068D02AE0DAF8001001F00701052924D282
:103E0000DFE801F075BC7D25B10006A8FFF7C6FD0F
:103E1000079809B0BDE8F08F6846FFF763FE009889
:103E2000F7E703A8FFF700FF0398F2E72068C0F365
:103E3000C10022FA00F0ECE72268D20571D5614595
:103E40006FD11846E5E74145E3D00020E1E7484659
:103E5000DFE7DAF8001001F4E07180294FD004DCCC
:103E6000002944D04029F0D188E0C029EFD0B1F535
:103E7000807FEAD177E0DBF8001001F46001B1F552
:103E8000800F3CD004DC91B3B1F5001FDDD175E0AB
:103E9000B1F5C00FDBD0B1F5000FD6D163E001E082
:103EA00018E030E0DBF8001001F0E061B1F1007FD4
:103EB00025D008DCD9B1B1F1807FC6D15EE049E000
:103EC0006CE079E09CE0B1F1407FC0D0B1F1806F4F
:103ED000BBD148E0DAF8001001F4E041B1F5005F31
:103EE0000DD005DC19B1B1F5805FAED146E094E0AC
:103EF000B1F5405FABD0B1F5804FA6D133E020687B
:103F00008000A2D58DE7DAF8001001F4E021B1F5C8
:103F1000403F6CD006DC61B149457AD0714594D1FF
:103F200057E037E0B1F5802F65D0B1F5A02F8CD1E7
:103F30000CE000F0D3FE6CE76846FFF7D3FD019874
:103F400067E703A8FFF770FE049862E7216889031A
:103F5000F1D47AE7DBF8001011F440310ED0494576
:103F600010D07145F5D13168256801F040516D07D9
:103F70007FF562AF00297FF45FAF57E7206800014B
:103F8000E7D549E720688000E3D503A8FFF74CFE9A
:103F900005983EE722689203DBD554E7306810F4B9
:103FA00080303AD04845D4D120680001D1D5684648
:103FB000FFF798FD02982CE7DBF8001001F0E041D4
:103FC000B1F1405F13D008DC71B1614521D04145AA
:103FD000BFD120688000B4D437E7B1F1804F0AD058
:103FE000B1F1A04FB2D030E7FFF7C6FC11E720686F
:103FF0004007AED51AE72068C005AAD521E708E03A
:10400000DAF8001011F04051A0D0614505D04145CB
:104010009FD1206800018FD417E72068800198D5D0
:10402000F3E60000504402580090D0030080BB002B
:10403000004402582DE9FE4F0546DFF8E48350F8AE
:10404000081B0024F64FC943019005F128002646BD
:1040500008F12408009008011DD4A86E50B1B0F5F5
:10406000801F0CD0B0F5001F0ED0B0F5401F1ED041
:1040700001240FE0386840F40030386017E0019800
:10408000022103F0DDFE03E00098022103F068FF47
:1040900004000CD026462888C043C00523D4A86D50
:1040A00005281ED2DFE800F00C11161B1B00AA6EBB
:1040B000D8F8001021F440111143C8F80010EAE7C5
:1040C000386840F40030386009E00198002103F0BE
:1040D000B7FE03E00098002103F042FF044674B1EC
:1040E00000E0012426462888C043800528D4E86DD6
:1040F00080281ED00CDC90B140280ED114E0AA6DAF
:10410000D8F8001021F007011143C8F80010EAE7C1
:10411000C02813D0B0F5807F10D001240FE038689C
:1041200040F40030386009E00198002103F088FE77
:1041300003E00098002103F013FF04469CB12646DB
:104140002888DFF8DC92C04309F12C0940052CD403
:10415000D5F8A800B0F5800F20D00DDCA0B1B0F5E7
:10416000001F0FD115E0EA6DD8F8001021F4E071BE
:104170001143C8F80010E3E7B0F5C00F13D0B0F555
:10418000000F10D001240FE0386840F40030386090
:1041900009E00198002103F053FE03E0009800219C
:1041A00003F0DEFE04467CB126462888C0430005A5
:1041B0002DD4D5F8AC00B0F1007F21D00EDCA8B131
:1041C000B0F1807F10D116E0D5F8A820D9F8001002
:1041D00021F460011143C9F80010E6E7B0F1407F17
:1041E00013D0B0F1806F10D001240FE0386840F494
:1041F0000030386009E00198002103F021FE03E05F
:104200000098002103F0ACFE044674B126462868ED
:10421000C04380011FD4E86CD8B110280FD02028EB
:1042200012D0302815D0012414E0D5F8AC20D9F8EC
:10423000001021F0E0611143C9F80010E7E7386889
:1042400040F40030386004E00198022103F0F8FDEA
:10425000044674B126462888C043C0042BD4286E77
:10426000B0F5005F20D00DDCA0B1B0F5805F0FD1BC
:1042700015E06B48EA6C2030016821F030011143F1
:104280000160E8E7B0F5405F13D0B0F5804F10D083
:1042900001240FE0386840F40030386009E00198EC
:1042A000002103F0CDFD03E00098002103F058FE4B
:1042B00004468CB126462888C043800429D4686E01
:1042C000B0F5403F23D010DC08B3B0F5803F14D0E8
:1042D000B0F5003F0FD115E02A6ED8F8001021F498
:1042E000E0411143C8F80010E5E7B0F5802F0ED08B
:1042F000B0F5A02F0BD001240AE00198012103F0B2
:104300009FFD03E00098012103F02AFE044694B1CA
:1043100026462888C04340042AD4D5F8B000B0F11E
:10432000405F23D010DC08B3B0F1805F14D0B0F14F
:10433000005F0FD115E06A6ED8F8001021F4E0217B
:104340001143C8F80010E4E7B0F1804F0ED0B0F18F
:10435000A04F0BD001240AE00198012103F070FD69
:1043600003E00098012103F0FBFD044674B12646EA
:104370002888C04300041FD4286FD8B1B0F1805FF3
:104380000ED0B0F1005F10D0012414E0D5F8B020B9
:10439000D9F8001021F0E0411143C9F80010E7E717
:1043A000386840F40030386004E00198012103F0DF
:1043B00047FD044674B126462868C043C0011ED498
:1043C000A86CD0B101280ED0022811D0032814D037
:1043D000012413E02A6FD8F8001021F04051114356
:1043E000C8F80010E8E7386840F40030386004E0AE
:1043F0000198022103F024FD0446ACB1264628684A
:10440000DFF81CB0C043ABF11C0B400252D405488E
:10441000016841F480710160FEF7A0FC824611E062
:104420002C44025800480258FA48AA6C016821F04E
:10443000030111430160E2E7FEF790FCA0EB0A00E4
:10444000642835D8F4480068C005F5D58CBBDFF882
:10445000C4A3B5F8B4100AF1240ADAF8000001F494
:10446000407100F44070884211D0DAF80010DAF898
:10447000002021F4407142F48032CAF80020DAF8BA
:10448000002022F48032CAF80020CAF80010D5F8C3
:10449000B400B0F5807F1AD1FEF760FC029012E004
:1044A000FEF75CFC0299411A41F2883081420AD938
:1044B000032426462878DFF85CA3C0430AF1080AE3
:1044C000C00721D03CE0DAF800008007E8D5D5F835
:1044D000B410C1F30120032858460DD0016821F41F
:1044E0007C510160B5F8B420DAF80010C2F30B0279
:1044F0001143CAF80010DDE7C84A036802EA111246
:1045000023F47C511143ECE7E86F182816D005DC42
:10451000A0B1082808D0102804D10AE020280DD026
:1045200028280BD001240AE00198012103F088FC1F
:1045300003E00098012103F013FD044664B1264610
:104540002878C04380071ED4A86F062819D2DFE858
:1045500000F0160C11161616EA6FDAF8001021F0AA
:1045600038011143CAF80010EAE70198012103F06D
:1045700067FC03E00098012103F0F2FC04467CB1E3
:1045800000E0012426462878C04340071FD4D5F810
:104590009400062819D2DFE800F0160C1116161642
:1045A000AA6FDAF8001021F007011143CAF80010D1
:1045B000E9E70198012103F043FC03E000980121A1
:1045C00003F0CEFC0446A4B100E00124264628787E
:1045D000C04380062BD4D5F89000B0F1405F24D0C2
:1045E00011DC10B3B0F1805F15D0B0F1005F10D1D5
:1045F00016E0D5F89420D9F8001021F007011143F6
:10460000C9F80010E3E7B0F1804F0ED0B0F1A04F31
:104610000BD001240AE00198002103F011FC03E013
:104620000098022103F09CFC044694B126462878A9
:10463000C04340062BD4D5F89C00B0F5406F24D081
:1046400011DC10B3B0F5806F15D0B0F5006F10D14C
:1046500016E0D5F89020DAF8001021F0E04111437F
:10466000CAF80010E3E7B0F5805F0ED0B0F5A05FA8
:104670000BD001240AE00198002103F0E1FB03E0E4
:104680000098022103F06CFC044694B12646287879
:10469000C04300062BD4D5F8A000B0F5C04F24D0FD
:1046A00011DC10B3B0F5005F15D0B0F5804F10D11C
:1046B00016E0D5F89C20D9F8001021F4E051114300
:1046C000C9F80010E3E7B0F5004F0ED0B0F5204F69
:1046D0000BD001240AE00198002103F0B1FB03E0B4
:1046E0000098022103F03CFC044654B12646287889
:1046F000C04300071ED4D5F88400B0F5805F0AD00F
:104700000FE0D5F8A020D9F8001021F46041114342
:10471000C9F80010EBE70098022103F021FC00B17A
:104720000126D5F88420DAF8001021F44051114315
:10473000CAF800102878C043C00613D4D5F89800F2
:10474000B0F5807F05D10098022103F009FC00B18B
:104750000126D5F89820D9F8001021F440711143B2
:10476000C9F800102868C043000316D4D5F8A40087
:1047700038B1B0F5803F09D0B0F5003F0BD001242F
:104780000AE00198002103F05BFB03E0009802219E
:1047900003F0E6FB04468CB126462868C04340037C
:1047A00022D4D5F88800B0F5801F11D0B0F5001FD5
:1047B00013D0B0F5401F15D0012414E0D5F8A42083
:1047C000D9F8001021F440311143C9F80010E4E792
:1047D000386840F40030386004E00098012103F0AC
:1047E000BFFB04465CB126462868C043C00323D4FF
:1047F000286DA8B1B0F5803F17D001241BE0D5F893
:104800008820DAF8001021F440111143CAF8001092
:10481000EAE700004C44025800480258CFFFFF006E
:10482000386840F40030386004E00198022103F059
:1048300007FB0446E4B126462868C043800005D43F
:104840000098022103F08CFB00B101262868C043C8
:1048500080031BD4D5F88000B0B1B0F5807F0FD0B5
:10486000B0F5007F10D0B0F5407F0DD001240CE0F2
:104870005A482A6D016821F4803111430160DBE759
:10488000386840F400303860ECB326462868C043EE
:10489000C00207D46A6FD8F8001021F0004111431C
:1048A000C8F800102868C043C00008D4D5F8B82064
:1048B000DBF8001021F480411143CBF80010286888
:1048C000C043800207D4EA6ED8F8001021F080714E
:1048D0001143C8F800102868C04340000CD4DBF82E
:1048E000001021F40041CBF80010DBF80010D5F8DF
:1048F000BC201143CBF800102868C04308D43748C7
:104900006A6D016800E018E021F040511143016038
:104910002868C043000208D4D5F88C20DAF80010CB
:1049200021F440011143CAF8001028790024C04343
:1049300000F0010020430AD00FE0D5F88020DAF81B
:10494000001021F440711143CAF800109EE701984D
:10495000002103F075FA00B106462879C04300F043
:104960000200204305D10198012103F069FA00B14A
:1049700006462879C04300F00400204305D1019881
:10498000022103F05DFA00B106462879C04300F029
:104990000800204305D10098002103F0E1FA00B19E
:1049A00006462879C04300F01000204305D1009846
:1049B000012103F0D5FA00B106462879C04300F082
:1049C0002000044304D10098022103F0C9FA00B981
:1049D00016B10120BDE8FE8F0020FBE74C440258D1
:1049E0002DE9F05F04000F467ED0DFF83882D8F85A
:1049F000000000F00F00B8420CD2D8F8001021F0EF
:104A00000F013943C8F80010D8F8000000F00F007B
:104A1000B84269D12078844D40070AD520692968B9
:104A200001F07001884204D9296821F07001014326
:104A3000296020787C4E361D00070AD560693168F0
:104A400001F07001884204D9316821F070010143FE
:104A500031602078C0060AD5A069316801F4E061B0
:104A6000884204D9316821F4E06101433160207843
:104A7000DFF8B4B180060BF1080B0CD5E16958469C
:104A8000DBF8002002F07002914204D9026822F0A3
:104A900070020A430260207880070AD5E06829681E
:104AA00001F00F01884204D9296821F00F01014368
:104AB00029602078C0073ED05B49A2682868183971
:104AC00020F47060104328606068022818D0032822
:104AD00019D00968012819D0490700294ADADFF8F6
:104AE00048A1AAF1080A00E044E0DAF8002022F028
:104AF00007020243CAF80020FEF730F9814612E0AF
:104B000009688903E9E709688901E6E7C905E4E777
:104B1000FEF724F9A0EB090141F28830814202D965
:104B20000320BDE8F09F6168DAF8000000F038006B
:104B3000B0EBC10FECD1207880070AD5E068296876
:104B400001F00F01884204D2296821F00F010143CE
:104B50002960D8F80010404601F00F01B9420BD986
:104B6000016821F00F0139430160006800F00F0077
:104B7000B84201D00120D4E7207840070AD5206947
:104B8000296801F07001884204D2296821F070017F
:104B900001432960207800070AD56069316801F077
:104BA0007001884204D2316821F070010143316004
:104BB0002078C0060AD5A069316801F4E061884216
:104BC00004D2316821F4E06101433160207880062D
:104BD0000CD5E1695846DBF8002002F070029142E2
:104BE00004D2026822F070020A43026000F09AF8D0
:104BF0000E492A682B68C2F3032203F00F038A5C74
:104C0000C95C02F01F0201F01F01D040084A20FADF
:104C100001F111600749086007480068BDE8F05FCE
:104C2000FEF7CCB90020005218440258EAE100080F
:104C300048000024440000243C00002470B5144CBB
:104C40003F220260124A24680832131D114D04F0FD
:104C50000704446016681C1D06F4706686601668BA
:104C600006F00F06C660126802F0700202611A6850
:104C700002F0700242611A6802F4E0628261226806
:104C800002F07002C261286800F00F00086070BD79
:104C9000104402580020005230B500F043F80B4A8F
:104CA0000B490C4B15681468C5F3032204F00F047C
:104CB0008A5C095D02F01F0201F01F01D040064A24
:104CC00020FA01F119601060084630BD18440258FE
:104CD000EAE10008480000244400002400B5FFF782
:104CE000DBFF05490968054AC1F30211515C01F077
:104CF0001F01C84000BD00001C440258EAE1000842
:104D000000B5FFF7C9FF05490968054AC1F302214B
:104D1000515C01F01F01C84000BD00001C44025856
:104D2000EAE10008454970B545480968434B103B26
:104D300011F0380208D00111082A03D0102A0BD034
:104D4000182A0BD0084670BD19688906FBD519686A
:104D5000C1F3C101C84070BD3A4870BD3749374DF5
:104D600018310C1D24350A68096826682D6802F080
:104D7000030406F00102C1F30511C5F3CC0515FBD0
:104D800002F200EE102AB8EE400AE9B32F4ADFED36
:104D90002E0AB7EE001A6CB1DFED2D1A012C01D0EE
:104DA000022C43D002EE101A1068F8EE422A81EE6F
:104DB000A22A1EE01C68A40611D51B6801EE901AF9
:104DC0001168C3F3C103F8EE612AD84001EE900ADE
:104DD000C1F30800F8EE611A81EEA22A0BE001EEA1
:104DE000901ADFED1C2A00BFF8EE611A106882EEFF
:104DF000A12AC0F3080001EE900AF8EE611A40EE15
:104E0000201A31EE810A00E015E022EE000A106857
:104E1000C0F34620401C00EE900AF8EE600A80EED7
:104E2000201ABCEEC10A10EE100A70BD01EE901AF5
:104E3000DFED092AD8E7002070BD000010440258B9
:104E40000090D00300127A0000000039304402586C
:104E50000024744A0024744C0024F44AF0B50D4632
:104E60001F49204C002887B016464FF000004FF035
:104E700002020F684FF0030319D047F004070F60D8
:104E8000096801F00401059111020091CDE90120AA
:104E9000CDE9033014486946FDF732FE206845EA43
:104EA000C61120F07E400843206007B0F0BD47F0F7
:104EB00001070F60096801F0010105914FF480714D
:104EC0000091CDE90120CDE9033008486946FDF79E
:104ED00017FE2068354320F0FE702843E4E7000009
:104EE000E0440258104402580008025800000258DA
:104EF0002DE9F05F04007DD0FF4F2078FE4D18377C
:104F0000DFF8F493103DC00748D0D9F800003968A5
:104F100000F03800102815D0182803D101F0030044
:104F200002280FD06068B0F5803F12D010B1B0F504
:104F3000A02F18D0286820F480302860286820F43A
:104F4000802009E02868800328D560680028D2D036
:104F500024E0286840F480302860606888B1FDF75C
:104F6000FDFE064609E0286840F480202860F0E74E
:104F7000FDF7F4FE801B64286FD828688003F7D5FE
:104F80000CE0FDF7EBFE064605E000BFFDF7E6FE90
:104F9000801B6428F0D828688003F7D4207841F279
:104FA0000308D54E0C3E800769D5D9F80000396852
:104FB00010F038000ED0182801D188070AD0E06818
:104FC00090B3296821F0190101432960FDF7C6FE5D
:104FD000824631E02868400702D5E06800288AD080
:104FE000E168286820F0190008432860FDF7B6FE44
:104FF000824607E0DFE000BFFDF7B0FEA0EB0A004D
:105000000228B9D828684007F6D500BFFDF7A0FEF2
:1050100040451BD82069402812D0316821F47C31EA
:1050200041EA003030602AE018E000BFFDF796FE4C
:10503000A0EB0A0002289FD828684007F6D5E5E7CC
:10504000306820F47C3040F40030EBE7207C31689D
:1050500021F0FE4141EA0060E4E70DE1286820F01C
:1050600001002860FDF77AFE824605E0FDF776FE36
:10507000A0EB0A0002288DD828684007F6D42078D3
:10508000C0065DD5D9F80000DFF86CB2396800F0D1
:105090003800ABF1040B082810D0182803D101F018
:1050A000030001280AD0E0690028286838D040F0C1
:1050B00080002860FDF752FE824623E02868C00584
:1050C00023D5E069802876D11FE0206A202821D0EE
:1050D000316821F0F84141EA8060306030E000BF83
:1050E00094F82010DBF8002022F07C5242EA0161A3
:1050F000CBF8001024E000BFFDF730FEA0EB0A0063
:10510000022898D82868C005F6D5FDF721FE40454D
:10511000E6D8DAE7306820F0F84040F08040DCE77D
:1051200020F080002860FDF719FE064605E000BF6C
:10513000FDF714FE801B02289DD82868C005F7D40F
:105140002078000729D56C486169643000298046C1
:10515000016811D041F001010160FDF7FFFD064635
:1051600005E000BFFDF7FAFD801B0228C9D8D8F87A
:1051700000008007F6D510E021F001010160FDF785
:10518000EDFD064605E000BFFDF7E8FD801B0228A7
:1051900072D8D8F800008007F6D42078800623D58E
:1051A000A0690028286810D040F480502860FDF7DE
:1051B000D5FD064605E036E1FDF7D0FD801B02284F
:1051C0005AD828688004F7D50EE020F48050286073
:1051D000FDF7C4FD064604E0FDF7C0FD801B022874
:1051E0004AD828688004F7D4207840074FD5DFF8E4
:1051F0000C81D8F8001041F48071C8F80010FDF758
:10520000ADFD064605E000BFFDF7A8FD801B642844
:1052100032D8D8F80000C005F6D5374EA068603601
:1052200001280AD008B1052813D0306820F0010009
:105230003060306820F0040002E0306840F0010087
:105240003060A06841F2883A90B1FDF787FD804652
:105250000AE0306840F004003060EEE7FDF77EFDC4
:10526000A0EB0801514507D830688007F6D50EE05D
:10527000FDF774FD804607E084E000BFFDF76EFD9A
:10528000A0EB080151457DD830688007F6D4606AEC
:10529000B0B3DFF86480D9F8001008F120084FF6A9
:1052A000F87B08F10409C1F3C2010329A8F1040A3B
:1052B00069D00228286820F08070286003D0FDF7AC
:1052C0004DFD044684E0FDF749FD064605E000BFBC
:1052D000FDF744FD801B022877D828688001F7D4A9
:1052E000E26A40F2F331386854F8283F884340EAD4
:1052F00002101843386004E0104402580048025875
:10530000B5E0217B434622894FF4FE0C208A4FF002
:10531000FE474902267D521E401EA1F50071C2F3D0
:1053200008088AB2761E0CEA004042EA08020243EC
:10533000504607EA06610A431A60DAF8002022F0B4
:105340000102CAF80020D9F80020266A22EA0B02DE
:1053500042EAC602C9F80020DAF80010A26921F07A
:105360000C011143CAF800100168E26921F0020142
:1053700011430160016841F480310160016841F42A
:10538000003101E021E027E00160016841F4802163
:105390000160016841F001010160286840F08070FF
:1053A0002860FDF7DBFC044605E000BFFDF7D6FCF6
:1053B000001B022809D828688001F7D557E000BFF4
:1053C000FDF7CCFC001B022802D90320BDE8F09FAA
:1053D00028688001F4D44AE039680128D8F8000030
:1053E00021D0A26A01F0030393421CD1E26AC1F307
:1053F00005118A4217D1216BC0F30802491E8A4267
:1054000011D1616BC0F34622491E91420BD1A16BB1
:10541000C0F30642491E914205D1E16BC0F306601C
:10542000491E814201D00120D0E7A16C4E46D9F837
:105430000000C0F3CC00814219D0DAF800005546D4
:1054400020F00100CAF80000FDF788FC4FEA0007D1
:10545000FDF784FCB842FBD0A26C306820EA0B0058
:1054600040EAC2003060286840F001002860002057
:10547000ACE700002DE9FC5F0446806B0E4603217B
:1054800084F83010002703285CD0B6F5004F59D0BF
:10549000B6F5804F4FF000054FF400684FF080697B
:1054A00004D006B3606B40F000603FE0009500213F
:1054B0000195206803F004F980011CD46946204658
:1054C00003F058F970BB019840032DD5B4F844108F
:1054D0002068090402F0D4FD20BB206802211DE0F1
:1054E000606B284322E0009500210195206803F0BD
:1054F000E7F8800101D54546F2E76946204603F00A
:1055000039F978B90198C0030ED5B4F84410206871
:10551000090402F0B5FD28B92068002102F0FAFD67
:105520000028DDD00546DBE74D46D9E76063606BB8
:105530004FF4007BDFF8B8A040B121680127C1F823
:1055400038A042E0606B40F08050EFE700214FF45C
:105550008030FEF70BFC010032D0264D3346D4E9F3
:1055600004C0B1FBF5F8D4E90192804510D9A66DCD
:105570005E450DD0B6F5807F11D04FEA6506E0B1EB
:105580004FEA4008B1FBF8F8B04501D9B1FBF5F09E
:105590004946CDE900C0206803F096F815E0164EA4
:1055A00030B14FEA4008B1FBF8F8A84502D8EFE760
:1055B000A942EDD9B1FBF6F0EAE7B142E6D8E7E758
:1055C000606B012740F0006060632068594602F07C
:1055D00088FD30B122680127C2F838A0616B014311
:1055E0006163012084F830003846BDE8FC9F00006C
:1055F000FF0FE01F80F0FA0200E1F505F0B5C26D83
:10560000920F0A70C26DC2F383624A70C26DC2F318
:1056100001628A70C26D120CCA70B0F85C20120A66
:105620000A7190F85C204A71026E120DCA80026EF7
:10563000C2F303420A72B0F86020C2F3C0324A7269
:10564000B0F86020C2F380328A72B0F86020C2F3F2
:105650004032CA72B0F860200026C2F300320A73EA
:105660004E730122836B4FF4007463B1012B3AD067
:10567000036850499963416B41F08051416380F860
:1056800030200120F0BDB0F86030456E9B051B0D49
:1056900043EA95730B61436EC3F3C2630B75436EAC
:1056A000C3F302634B75436EC3F342538B75436E72
:1056B000C3F38243CB75436EC3F3C2330B760D69DC
:1056C0006D1C85640B7E03F007039B1C9D40856465
:1056D0000B7A446503F00F0302FA03F35F0A7D437C
:1056E000C0E913350EE090F86050436EAD06AD0A88
:1056F00045EA13430B610B695B1C9B028364C0E9A1
:1057000013434465B0F86430C3F380334B76B0F88C
:105710006430C3F3C6138B7690F8643003F07F03D4
:10572000CB76836EDB0F0B77836EC3F341734B77BE
:10573000836EC3F382638B77836EC3F38353CB771C
:10574000836EC3F3405381F8203081F82160836E6B
:10575000C3F3004381F82230B0F86830C3F3C0339C
:1057600081F82330B0F86830C3F3803381F82430F7
:10577000B0F86830C3F3403381F82530B0F86830B2
:10578000C3F3003381F82630B0F86830C3F38123C7
:1057900081F82730B0F86830C3F3012381F828304E
:1057A00090F86800C0F3460081F8290081F82A20AB
:1057B0000020F0BDFF0FE01F826B0A60C26B4A60E1
:1057C000026C8A60426CCA60826C0A61C26C4A6177
:1057D000026D8A61406DC8610020704770B5B0F8F5
:1057E0004410002504460068090402F080FD18B149
:1057F000616B0143616304E02068002102F060FFF7
:105800000546C5F3432070BD2DE9F041054690F8EB
:10581000300090B00C460026032810D06946284678
:1058200003F0F0F82A4F4FF0010860B12A68012612
:1058300097636A6B02436A6385F830803AE001201F
:1058400010B0BDE8F08100994FF47F40C1F38111A1
:1058500021700099C1F34011617000990A4600EA75
:10586000112141EA12616180019909BA61600299CE
:1058700021720299090A61720299C1F30351A1725E
:10588000DDE9022100EA1240C9B20843A081039871
:10589000C0F38520A0730398C0F30120E073039840
:1058A000C0F303102074039800F00F006074049894
:1058B000000EA07428684FF4007102F012FC28B1A9
:1058C0002A6801269763686385F830803046B7E719
:1058D000FF0FE01FF0B5040085B020D094F8300031
:1058E000002518B92046257600F098F8042084F8A1
:1058F0003000204600F03CF888B969462046FFF7A2
:1059000083FF60B99DF81010A26B9DF81100012A69
:1059100008D0A5652046E168FFF7ACFD58B101202D
:1059200005B0F0BD014302D04FF4007001E04FF428
:105930008070A065EEE7FDF711FA0127064604E046
:10594000FDF70CFA801B401C0AD02046FFF746FFEB
:105950000428F5D16563E56284F830700020DFE744
:105960004FF00040606384F830700320D8E70000F7
:105970002DE9FC414FF0000804464FF480304146C9
:10598000FEF7F4F905004FF0010723D02048434605
:1059900042464146B5FBF0F6CDE90086206802F0AC
:1059A00093FE206802F0A0FE1EB17000B5FBF0F57A
:1059B0002DB11848B0FBF5F0401CFDF783F82046E8
:1059C00002F0C6FF60B100BF84F83070616B014324
:1059D000616319E04FF0006084F83070606313E099
:1059E000204602F039FF0028EED120684FF4007104
:1059F00002F077FB002808D0226807499163616BA9
:105A00000143616384F830700120BDE8FC8100002F
:105A100000350C0010210100FF0FE01FF0B5B7B0FA
:105A20000446142130A8FAF709FFC0216846FAF7A6
:105A300005FF2349206888423FD1002014904FF48D
:105A400080310446CDE900106846FEF7F3FA08B14C
:105A5000FBF729FB1B48016841F4803101600068B5
:105A600000F48030359017480C30016841F0040193
:105A70000160016801F004013591016841F00801FD
:105A800001600068022532AA00F0080035904FF44A
:105A9000F850CDE9300503260B480C2782E8D000EA
:105AA00030A9FDF72DF8042032AACDE930050748CA
:105AB00030A982E8D000FDF723F837B0F0BD000030
:105AC00000700052D444025800080258000C0258DA
:105AD0002DE9F0430F001E4687B00446154607D057
