:020000040800F2
:100000009892002465040008619C0008718A000829
:100010004D980008891D0008EDC800080000000088
:10002000000000000000000000000000A503000820
:10003000A9220008000000000104000879B10008AE
:100040007F0400087F0400087F0400087F04000884
:100050007F0400087F0400087F0400087F04000874
:100060007F0400087F0400087F0400081D1E0008AC
:10007000291E0008351E0008411E00084D1E0008FC
:10008000591E0008651E00087F0400087F04000850
:100090007F0400087F0400087F0400087F04000834
:1000A0007F0400087F0400087F0400087F04000824
:1000B0007F0400087F0400087F0400087F04000814
:1000C0007F0400087F0400087F0400087F04000804
:1000D0007F04000855C6000861C60008D1C60008A4
:1000E0007F0400087F040008000000007F0400086F
:1000F0007F0400087F0400087F0400087F040008D4
:100100007F04000865A200087F0400087F0400083F
:100110007F04000869BD000841B3000861B300080E
:100120007F0400087F0400087F0400087F040008A3
:100130007F0400087F0400087F0400087F04000893
:1001400000000000000000000000000000000000AF
:100150007F0400087F0400087F040008DDC7000852
:100160007F0400087F0400087F0400087F04000863
:100170007F0400087F0400087F04000800000000DE
:100180007F0400087F0400087F040008E1BD000828
:100190007F0400087F0400087F0400087F04000833
:1001A0007F0400087F0400087F0400087F04000823
:1001B0007F0400087F0400087F0400087F04000813
:1001C0007F0400087F0400087F0400087F04000803
:1001D0007F0400087F0400087F0400087F040008F3
:1001E0007F0400087F0400087F0400087F040008E3
:1001F0007F0400087F0400087F0400087F040008D3
:100200007F0400087F0400087F0400087F040008C2
:100210007F0400087F04000835B300087F0400084D
:100220007F0400087F0400087F040008000000002D
:100230007F0400087F040008000000007F0400081D
:100240007F0400087F0400087F0400087F04000882
:100250007F0400087F0400087F0400087F04000872
:100260007F0400087F0400087F0400087F04000862
:100270007F0400087F0400087F04000800000000DD
:100280007F0400087F0400087F04000800000000CD
:10029000000000007F04000800F002F800F072F88F
:1002A0000AA090E8000C82448344AAF10107DA45D1
:1002B00001D100F067F8AFF2090EBAE80F0013F0B1
:1002C000010F18BFFB1A43F00103184740D0030089
:1002D00060D003000A444FF0000C10F8013B13F00B
:1002E000070408BF10F8014B1D1108BF10F8015B8F
:1002F000641E05D010F8016B641E01F8016BF9D182
:1003000013F0080F1EBF10F8014BAD1C0C1B09D1D8
:100310006D1E58BF01F801CBFAD505E014F8016B4A
:1003200001F8016B6D1EF9D59142D6D370470000DC
:100330000023002400250026103A28BF78C1FBD8EE
:10034000520728BF30C148BF0B607047662911F0C3
:100350003887642900F06881752900F06581732968
:1003600000F0D985002070471FB511F025FF00F07F
:10037000E9FD04000020002111F000FFE0601FBD36
:1003800010B510BD00F0E6FE1146FFF7EDFF0FF0CF
:1003900039FB00F004FF03B4FFF7F2FF03BC0DF0DC
:1003A000BEFA00002C4B19680868B0E8F04F80F3E3
:1003B0000988BFF36F8F4FF0000080F311887047FA
:1003C0000000000008480068006880F308884FF0CB
:1003D000000080F3148862B661B6BFF34F8FBFF39D
:1003E0006F8F00DF00BF00BF08ED00E0DFF80C00FA
:1003F000016841F470010160704700BF88ED00E0C2
:10040000EFF30980BFF36F8F134B1A681EF0100FC4
:1004100008BF20ED108A20E9F04F106009B44FF0BA
:10042000500080F31188BFF34F8FBFF36F8F10F030
:1004300053FE4FF0000080F3118809BC196808686A
:10044000B0E8F04F1EF0100F08BFB0EC108A80F338
:100450000988BFF36F8F704734000024EFF30580E5
:10046000704700000948804709480047FEE7FEE75B
:10047000FEE7FEE7FEE7FEE7FEE7FEE7FEE7FEE754
:1004800004480549054A064B7047000059B2000868
:10049000990200089862002498920024987200241F
:1004A00098720024704753EA020C00F069802DE92D
:1004B000F04B4FF00006002B1FBFB3FA83F503FA91
:1004C00005F424FA05F65E4012BF1643B2FA82F52F
:1004D00002FA05F4C5F120051EBF22FA05FC44EA24
:1004E0000C04203556EA044C4FEA144418BF641C2F
:1004F0004FF000084FF00009904271EB030C39D324
:10050000002919BFB1FA81F701FA07F6B0FA80F7AE
:1005100000FA07F6C7F120071EBF20FA07FC46EADB
:100520000C062037B6FBF4FCA7EB0507103F07F0DD
:100530001F0BCBF120060CFA0BFB2CFA06F644BF7E
:10054000B3460026202FA4BF5E464FF0000B5BEAA7
:10055000060C08BF4FF0010B19EB0B09ABFB027C3B
:1005600048EB0608C01B06FB02CC0BFB03CC71EB6F
:100570000C01C1E70B46024641464846BDE8F08BF8
:1005800013B54FF000004FF00001AFF30080BDE85D
:100590001C4070470FB4044910B503AA029800F03C
:1005A000BFFC10BC5DF814FBA80000240FB41CB500
:1005B000074B06AA7B4469460090059800F081FC31
:1005C0000020694600F090FC1CBC5DF814FB0000A4
:1005D0003109000070B50C460546012A05D028787F
:1005E000800600D5EA69002302E0012305E05B1CD8
:1005F000934202D2E05C0028F9D1A869E618C01A3B
:10060000A861286A184428622846AFF3008004E0F5
:10061000D5E9012114F8010B9047B442F8D32846DC
:10062000AFF3008070BD00002DE9F04106460024C4
:1006300010687529314616A510D0AFF30080002848
:1006400002DA404213A507E031688A0701D512A5F6
:1006500002E0490704D511A5012401E0AFF30080B1
:1006600000210A2206F1240709E0B0FBF2FCB0FBEE
:10067000F2F302FB1C00303078541846491C002865
:10068000F3D123462A463046BDE8F04100F0ACB92C
:10069000000000002D0000002B00000020000000E2
:1006A0002DE9F05F894604464FF0000ADFF824B1D7
:1006B000FB44C0F820A02046E168884700287DD090
:1006C000252806D0D4E901219047206A401C2062E9
:1006D000F1E700255F462046E16888472028064666
:1006E00007DB312E05D2B81910F8200C08B10543EC
:1006F000F1E7A80701D525F00405C4F81CA00027E0
:10070000C4F818A02A2E09D030460DF001F938B3EC
:1007100004EB8708303EC8F8186019E059F8041B4C
:10072000204604EB87029161E1688847012F064665
:1007300018D1E069002820DA25F020051DE0D8F85E
:10074000180000EB800006EB40003038C8F81800B5
:100750002046E168884706460DF0DAF80028EED119
:10076000012F0AD02E2E08D12046E16888477F1C31
:100770000646022F45F02005C4DBA069002803DAF5
:10078000404245F00105A061E80701D025F01005C1
:10079000A6B1A6F14100192802D8203645F400651B
:1007A0004A463146204625604D46FFF7CFFD60B1F1
:1007B000012807D0ED1D25F0070000E007E000F15B
:1007C000080978E705F1040975E730467AE7206AF9
:1007D000BDE8F09F74C8030030B505460B462A46B5
:1007E00013F8014B12F8010B08B1A042F8D01CB16C
:1007F000002802D06D1CF1E7284630BD10B5431C1F
:1008000002E010F8011B71B18107FAD14FF00132FB
:1008100002C88C1A8C4314EAC211F9D0C01A0A0615
:1008200003D0C01E10BDC01A10BD0A0401D0801E26
:1008300010BD0902FCD0401E10BD032A40F23080DA
:1008400010F0030C00F0158011F8013BBCF1020F11
:10085000624498BF11F801CB00F8013B38BF11F892
:10086000013BA2F1040298BF00F801CB38BF00F8A9
:10087000013B11F0030300F02580083AC0F0088026
:1008800051F8043B083A51F804CBA0E80810F5E70A
:10089000121D5CBF51F8043B40F8043BAFF30080ED
:1008A000D20724BF11F8013B11F801CB48BF11F862
:1008B000012B24BF00F8013B00F801CB48BF00F832
:1008C000012B704710B5203AC0F00B80B1E81850EA
:1008D000203AA0E81850B1E81850A0E81850BFF42A
:1008E000F5AF5FEA027C24BFB1E81850A0E81850C9
:1008F00044BF18C918C0BDE810405FEA827C24BF1D
:1009000051F8043B40F8043B08BF7047D20728BFAA
:1009100031F8023B48BF11F8012B28BF20F8023BF9
:1009200048BF00F8012B704702F0FF0343EA03229F
:1009300042EA024200F002B84FF000020429C0F07F
:10094000128010F0030C00F01B80CCF1040CBCF101
:10095000020F18BF00F8012BA8BF20F8022BA1EB53
:100960000C0100F00DB85FEAC17C24BF00F8012B38
:1009700000F8012B48BF00F8012B70474FF0000230
:1009800000B5134694469646203922BFA0E80C5085
:10099000A0E80C50B1F12001BFF4F7AF090728BF60
:1009A000A0E80C5048BF0CC05DF804EB890028BFDC
:1009B00040F8042B08BF704748BF20F8022B11F005
:1009C000804F18BF00F8012B704770477047704781
:1009D000704710B500F0BAFA006810BD10B50446B3
:1009E00000F0B4FA046010BD2DE9F0470D469946B9
:1009F0009246044600F124080168880604D5E0699F
:100A000021F01001216000E00120A84201DD471B18
:100A100000E00027A1697A1902EB0900081AA06119
:100A20002078C00602D42046AFF30080002608E0FC
:100A3000D4E901211AF806009047206A401C761C70
:100A400020624E45F4DB2078C0060AD52046AFF37D
:100A5000008006E0D4E9012130209047206A401C44
:100A60002062381EA7F10107F4DC07E0D4E9012178
:100A700018F805009047206A401C2062281EA5F146
:100A80000105F3DC2046AFF300802078000602D594
:100A90000220BDE8F0870120FBE770472DE9FF4FFA
:100AA0000C461E464FF0FF378BB0D2E90001DDF84F
:100AB00060800A908A46C1F30A5505B93D46002177
:100AC00008464FF00000BAF1000F00F4400005DACC
:100AD00000EB80004FF4400101EA50004FEA9059CA
:100AE000B9F1010F00DDB9460A9850EA4A000ED06C
:100AF00044F61050A5F2FF3545432F14B8F1000F0E
:100B00001ED07542291E1EDDC9F100021CE0B8F19D
:100B1000010F4FF0000001D0302103E0F24305E067
:100B20002154401CB042FBDB3046002200212154FE
:100B30000B99C1F80880C1E900200FB0BDE8F08F23
:100B4000BD1B6D1CDEE74A4600DA694206A800F0CC
:100B500087FA06AB93E8070003AB83E8070050462B
:100B60000A9900F059FB8DE80700A0F500501F38E6
:100B700000900398002D0ADD42F21F014A46084406
:100B8000002303A90390684600F0C2FD09E0A0F528
:100B900000504A461F38002303A90390684600F01E
:100BA000CCFD8DE807000004000C03D04FF0FF30AF
:100BB000410800E01046B8F1000F03D00022009277
:100BC00015461EE0751E05D400F0C4F9303262559A
:100BD0006D1EF9D5B3460122084302D000227F1CC6
:100BE00004E02078302801D100227F1E002A0997D6
:100BF00084D01DE0112D07DA00F0ACF930326255D7
:100C00006D1C50EA0102F5D1084302D00098C8B12A
:100C10000EE00021681E05E0235C625C63542254F0
:100C2000401E491C8142F7DBAB46A81B401E0990C1
:100C3000002004F80B000B98099AC0F80880C0E95E
:100C4000002B7AE711264FF0000857E72DE9F04F07
:100C500088460446D21D22F0070191B0D1E9000177
:100C6000CDE90A010BF043FE02460B98C00F01D0FC
:100C70002D2007E02068810701D52B2002E02021EC
:100C800001EAC000032A099001D0072A05DB0346C8
:100C90004146204600F0A4F90BE12078800601D5FA
:100CA000E06900E00620B8F1650F814606D0B8F192
:100CB000660F18D0B8F1670F70D131E00020B9F19C
:100CC000110F009001DB112301E009F101030AAAD1
:100CD00001A90CA8FFF7E2FEDDE90C70002609F17E
:100CE0000105834647E001204B4600904FF0004746
:100CF0000AAA01A90CA8FFF7D1FEDDE90DB00C99F5
:100D00005D46002610B909F101000D18B9EB050088
:100D100003D4C0F1FF3609F10105A5EB09002BE072
:100D2000B9F1010F01DA4FF001090020B9F1110FFB
:100D30000090484601DD112300E003460AAA01A9FC
:100D40000CA8FFF7ABFEDDE90C704D46002683468C
:100D5000207800070AD4AB4500DA5D4601A8012DD2
:100D600004DD411911F8011C302907D04F4502DA82
:100D700017F1040F04DA012082460FE06D1EEEE742
:100D8000002F02DCED1B3E4403E0781CA84200DD8E
:100D90007D1CB81B00F1010A4FF0004720780007C6
:100DA00003D4AA4501DB4FF0FF3A0021B7F1004F11
:100DB0000DF143088DF8431024D002202B23002F7F
:100DC00001DA7F422D230A21021EA0F1010000DC7E
:100DD0005FB197FBF1FC97FBF1F201FB1C7C17461E
:100DE0000CF1300C08F801CDEEE7A8F1010003701A
:100DF0002188090501D5452100E06521A0F1010800
:100E000000F8011C09980FA9A1EB0807FF1D00B10C
:100E10000120411901EBEA70A1693844081A401E0B
:100E2000A0612078C00602D42046AFF30080099864
:100E300028B1D4E901219047206A401C2062207823
:100E4000C00622D52046AFF300801EE0002E04DB52
:100E5000B34502DD01A8805D00E03020D4E9012126
:100E60009047206A401C2062761CAAF101005FEACC
:100E7000000A0AD100F066F8C0680168405CD4E955
:100E800001219047206A401C2062281EA5F101051F
:100E9000DCDC07E0D4E9012118F8010B9047206A57
:100EA000401C2062381EA7F10107F3DC2046AFF397
:100EB0000080032011B041E601694A1C02610878F4
:100EC000704700B58FB0CDE901310021059105498A
:100ED0007944CDE9031011466846FFF7E1FB0FB0F6
:100EE00000BD0000E5FFFFFF0A6802F8010B0A6081
:100EF000704710B5436913B1AFF3008001E0FFF70D
:100F000069FB012010BD127800F124010A70002253
:100F10004A700122EDE711684FF0FF32E9E7000067
:100F2000074B70B50D467B44FFF7CBFF04462846C0
:100F300000F008F910B14FF0FF3070BD204670BDD1
:100F4000EFE70000004870475462002400487047F3
:100F50003462002430B5B0F10A024FEA900E71F10C
:100F600000034EEA817EB0EB0E0061EB91014FEA87
:100F7000101E4EEA017E10EB0E0041EB11114FEAFC
:100F8000102E4EEA016E10EB0E0041EB11214FEADC
:100F9000104E4EEA014E10EB0E0041EB114140188D
:100FA00041F100014FEAD00040EA41704FEAD1011F
:100FB00010EB80054FEA810444EA907444EB01048D
:100FC0006D1944EB0404521BA3414FF0000348BFCA
:100FD0000A3200D530BD401C41F1000130BD000097
:100FE0002DE9F0411F46044603260168072A01F453
:100FF000006004DB08B116A505E016A503E008B102
:1010000015A500E015A521F010002060A069C01E04
:10101000A0610FB1401EA0612046AFF300804FB128
:10102000D4E9012138469047206A401C2062C01C48
:10103000206206E0206AFAE7D4E9012115F8010BE5
:101040009047761EF8D22046AFF30080BDE8F081CD
:101050004E414E006E616E00494E4600696E66005C
:101060002DE9F047814616468AB0354878440DC8C8
:101070008DE80D0032487844801C03AC0DC884E82C
:101080000D0041F69B300844372190FBF1F290FBB4
:10109000F1F5A5F1800501FB12041B3C02D5644269
:1010A000012000E00020DFF898A080460027FA44E5
:1010B000AAF1BE0A0EE0E0070AD03246684607EB06
:1010C000470101230AEB810100F037FB8DE807009F
:1010D00064107F1C002CEED1194F7F44AE3F19E005
:1010E000E80715D007EB04100DF1180A90E80E0080
:1010F0008AE80E00C068F04201D198190890324683
:10110000012306A903A800F018FB03AB83E807003E
:101110006D10641C002DE3D14FF001033246694687
:10112000B8F1000F03A802D000F0F2FA01E000F0DD
:1011300004FBC9E90001C9F808200AB0BDE8F0873E
:10114000FCC00300007B00F080007047004870473F
:10115000346200247546FFF7F9FFAE460500694684
:10116000534620F00700854618B020B5FFF788F9F0
:10117000BDE820404FF000064FF000074FF0000898
:101180004FF0000B21F00701AC46ACE8C009ACE819
:10119000C009ACE8C009ACE8C0098D46704710B57D
:1011A0000446AFF300802046BDE81040FFF7F3B8D7
:1011B0004FF0013C50F8042B51F8043B9A4215D1F2
:1011C000A2EB0C03934313EACC130BD150F8042B7E
:1011D00051F8043B9A4209D1A2EB0C03934313EA62
:1011E000CC13E7D04FF00000704700BFD01A01BA0F
:1011F000B1FA81F101F0180122FA01F0CB40C1F1FE
:101200002001DBB2C0B2C01A2CFA01F3D11A91430B
:1012100011EAC311E6D170475FEA400C08BF91F0B4
:10122000000F4FEA8C234FEAC12243EA51514FEAA3
:101230001C5018BF00F5F0404FEA300018BF41F0D5
:1012400000415FEA6C5C00F02980BCF1FF3F08BF01
:1012500040F080407047130C06BF12044FF0100C92
:101260004FF0000C130E04BF12020CF1080C130F08
:1012700004BF12010CF1040C930F04BF92000CF197
:10128000020CD30F04BF52000CF1010C11464FF0B9
:101290000002A0F11F00A0EB0C00704711F0004FFE
:1012A00008BF704731F000413FF4D5AF0B0C06BFCB
:1012B00009044FF0100C4FF0000C0B0E04BF090294
:1012C0000CF1080C0B0F04BF09010CF1040C8B0F7F
:1012D00004BF89000CF1020CCB0F04BF49000CF1D4
:1012E000010CCCF12003A0EB0C0022FA03F302FA6C
:1012F0000CF241EA030100F10100704720F07F4C3D
:1013000080EA030023F07F47ACEB070303F57C532F
:1013100000F0004003F1FF032DE980494FEA154B2F
:1013200009B44FEA144325EA0B4E24EA03480FF2AE
:10133000042606EB132749083E785FEA320203FBD6
:101340000667C7F5000707FB06F64FEA54374FEA72
:10135000D64606F1020607FB066CCCF1005C4FEAAC
:101360001C472CEA074C07FB06F40CFB06F504EBC4
:1013700015464FEA961634BF00204FF000404FEA62
:10138000D13706FB07FC4FEA1C4C0CFB0BF7D21BBA
:1013900003FB0CF761EB07010CFB0EF7B0EB07400A
:1013A00072EB17420CFB08F734BFA2EB0742B2EB1B
:1013B000074261EB17414FEA0C444FEA910706FBE5
:1013C00007FC4FEA1C4C0CFB0BF7B0EBC74072EB71
:1013D000573203FB0CF734BFA2EBC742B2EBC74254
:1013E00061EB57310CFB0EF7B0EBC70072EB577295
:1013F0000CFB08F734BFA2EBC702B2EBC70261EBEC
:101400005771039F4FEA816141EA921104EBCC04CA
:101410004FEAD1374FEA826206FB07FC42EA90129C
:101420004FEA80604FEA1C4C0CFB0BF7D21B03FB0E
:101430000CF761EB07010CFB0EF7B0EB074072EB0A
:1014400017420CFB08F734BFA2EB0742B2EB07428E
:1014500061EB17414FEA8C554FEA910704EB9C244E
:1014600006FB07FC4FEA1C4C0CFB0BF7B0EBC7402C
:1014700072EB573203FB0CF734BFA2EBC742B2EB5F
:10148000C74261EB57310CFB0EF7B0EBC70072EBB4
:1014900057720CFB08F734BFA2EBC702B2EBC702CE
:1014A00061EB577115EB4C254FEA816141EA9211CE
:1014B0004FEA82624FEAD13742EA901206FB07FCFC
:1014C00044F100044FEA80604FEA1C4C0CFB0BF720
:1014D000D21B03FB0CF761EB07010CFB0EF7B0EB23
:1014E000074072EB17420CFB08F734BFA2EB074230
:1014F000B2EB074261EB174115EB1C154FEA813146
:1015000041EA92414FEA823242EA90424FEA803009
:101510004FEA0C7644F1000448EA03434EEA0B48D4
:101520004FF0000EB2EB080C71EB030724BF6246CC
:1015300039464EEB0E0E4FF0000B00185241494158
:101540004BEB0B0BB2EB080C71EB03077BF1000BC1
:1015500024BF624639464EEB0E0E4FF0000B0018CA
:10156000524149414BEB0B0BB2EB080C71EB0307FB
:101570007BF1000B24BF624639464EEB0E0E51EA5A
:10158000020718BF46F0010616EB0E7655F1000271
:1015900054F1000103D5BDE88901BDE80088BDE82C
:1015A0008901BDE80048B619524141EB0101A3F1A0
:1015B0000103704780807F7E7D7C7B7A79787776A7
:1015C00076757473727171706F6E6E6D6C6C6B6A20
:1015D0006A696868676666656464636362616160BE
:1015E000605F5F5E5E5D5D5C5C5B5B5A5A5959583B
:1015F00058575756565555555454535352525251A5
:10160000515050504F4F4F4E4E4D4D4D4C4C4C4BFA
:101610004B4B4A4A4A494949484848474747474641
:10162000464645454544444444434343434242427D
:1016300042414141002B9C4630D477002BD01CB551
:101640004FEA370703B44FF010004FF01001BAF122
:10165000000F06D0BCF1000FDCBF40F0080040F0E6
:1016600008014FF000000FBCBDE810400BF1010B6A
:10167000BBF1010F08BF5FEA170722BF12F1010299
:1016800011F101014FF0004143F1000300F000406F
:1016900043EA00007047F9D35708D0E746EA064608
:1016A00013F1400F4FEA16461FDD13F1200FDFBF85
:1016B00016430A46002120335B42BED0C3F1200707
:1016C00046EA064602FA07F74FEA164646EA0706D2
:1016D000C3F1200722FA03F201FA07F721FA03F116
:1016E0004FF0000342EA0702A7E746EA020646EA8D
:1016F00006464FEA164646EA0106BCBF46EA0646DB
:10170000360C4FF000034FF000024FF0000194E759
:101710002DE9804C9A46934670B491E8380007C88A
:1017200031EA400C48BF34EA430C03D5FFF7E6FD2D
:10173000FFF780FFF0BCBDE8008C2DE9804C9A4695
:10174000934670B491E8380007C810F0804F08BF86
:1017500013F0804F03D100F005F8FFF76BFFF0BCEA
:10176000BDE8008C20F07F4780EA030023F07F4C27
:1017700007EB0C03A3F57C5300F00040A3F1FE033C
:1017800092F0000F00F0B38095F0000F00F077802A
:101790002DE901494FEA11404FEA144621EA004879
:1017A00000FB06FC24EA064708FB06F607FB08F8E0
:1017B00000FB07F718EB06484CEB164C4FEA124BB0
:1017C00018EB07484FEA15464CEB174022EA0B4E40
:1017D0000BFB06FC25EA06470EFB06F607FB0EFE92
:1017E0000BFB07F71EEB064E4CEB164C4FF00006BA
:1017F0001EEB074E4CEB174B18EB0B0840F10000AB
:1018000018EB0E0B58EB000840F100008F1A4FF058
:1018100000013CBFC943661B14BFB5EB040C00219B
:101820003CBFC943F61B4FEA17444EEA8E0E27EA27
:1018300004454FEA1C4704FB07622CEA074C05FBF2
:1018400007F70CFB05F604FB0CFC16EB074642EB16
:10185000174216EB0C4642EB1C421BEB060658EBFC
:101860000202414146EA9E0601D5BDE80189B6194A
:10187000524141EB0101A3F10103BDE801894FEAA7
:1018800014454FEA114724EA054621EA074C05FBB7
:1018900007F406FB07F70CFB06F105FB0CFC11EB4C
:1018A000074144EB17444FEA124711EB0C4144EB5C
:1018B0001C4422EA074C05FB07F206FB07F70CFB6A
:1018C00006F605FB0CFC16EB074642EB174216EB3F
:1018D0000C4642EB1C456A1854F1000148BF7047A2
:1018E000B619524141EB0101A3F10103704795F094
:1018F000000F37D04FEA11424FEA144721EA02465F
:1019000024EA074C02FB07F106FB07F70CFB06F481
:1019100002FB0CFC14EB074441EB17414FEA15475F
:1019200014EB0C4441EB1C4125EA074C02FB07F584
:1019300006FB07F70CFB06F602FB0CFC16EB074652
:1019400045EB174516EB0C4645EB1C42121951F1BD
:10195000000148BF7047B619524141EB0101A3F1A4
:10196000010370474FEA14454FEA114724EA054640
:1019700021EA074C05FB07F106FB07F70CFB06F213
:101980004FF0000605FB0CFC12EB074241EB174140
:1019900012EB0C4251EB1C4148BF7047921841EBCF
:1019A0000101A3F10103704770B53A49054600688B
:1019B000884202D0384A904202D1D1F8080302E0AE
:1019C0003648D0F8080310F4403F11D004F024FB4F
:1019D00004466868B0F5803F06D0B0F5003F03D0FC
:1019E000B0F5403F27D101E0000C18E0A40822E048
:1019F00000214FF4002003F079FB0446686881035E
:101A0000890B18D181140C2915D2DFE801F01406D6
:101A100006060606060B0D0F1113800C4000B4FBE2
:101A2000F0F408E0240906E0640904E0A40902E0F7
:101A3000E40900E0240A02F06BFF41F2030188424E
:101A400008D8174884422868816813D821F4807127
:101A5000816070BD13496008884204D82868816895
:101A600021F44071F4E71049884206D8286881685B
:101A700021F4407141F48071EAE70C4988422868FA
:101A8000816804D821F4407141F40071E0E741F429
:101A90004071DDE700200240002102400060025852
:101AA000002D3101105E5F0020BCBE0040787D013A
:101AB0002DE9F0410027044600680D4607F09CF927
:101AC0000646206807F094F930435DD020682F4E19
:101AD000C168890105D5617D012902D1217D0129D6
:101AE0000BD0022D1DD0206807F086F9B8B1206810
:101AF0008168C1F3400169B111E02549012502E087
:101B00008F4232D27F1C0268D2435206F8D4402161
:101B10000160E8E78168314041F010018160012DEA
:101B200011D0206807F064F948B120688168C1F3DA
:101B3000400121B98168314041F020018160022DCE
:101B400008D0032D04D0042502F0E8FE064617E075
:101B50000C25F9E70825F7E702F0E0FE801B0528D1
:101B60000ED92068806828420AD0606D40F01000CD
:101B70006065A06D40F00100A0650120BDE8F08126
:101B8000206880682842E7D10020F7E7C0FFFF7F88
:101B900000DC0C0070B50446006881688268C1F3FF
:101BA000400112F0010F28D039BB816801F00D010E
:101BB000012914D18168124A1140891C8160216871
:101BC0000320086002F0AAFE054612E002F0A6FE1D
:101BD000401B02280DD920688068C00709D0606DBD
:101BE00040F010006065A06D40F00100A06501208C
:101BF00070BD20688068C007E8D1002070BD00007B
:101C0000C0FFFF7F70B504460068816811F0010FC6
:101C100040D18168204A11422DD18168D5432940A5
:101C2000491C816002F07AFE1C49064620681C4B64
:101C3000884201D0984201D11A4A00E01A4A9268BB
:101C4000984202F01F0200D0014681421DD0E2B14D
:101C500020E0816811F0010F03D181682940491CFF
:101C6000816002F05BFE801B02280ED920680068AC
:101C7000C043C00709D0606D40F010006065A06DE2
:101C800040F00100A065012070BD20680168C943D3
:101C9000C907DED1002070BD3F0000800020024057
:101CA00000210240002302400063025810B50124C5
:101CB0000348E10302F01AFE00B10024204610BDE3
:101CC000000002580146014804F03CBF9402002481
:101CD00010B5044804F048FF042801D0012010BDCD
:101CE000002010BD9402002410B500F015F8012862
:101CF00001D0022010BD074805F0D2F8044634B9DF
:101D000004484FF4804104F079FD00B101242046DD
:101D100010BD00009402002408B501200090FFF7D8
:101D2000C5FF08B9002000909DF8000008BD000024
:101D300010B5002413460A460146034805F0B6F9DB
:101D400000B10124204610BD940200240248002264
:101D5000012140680EF03AB81C00002410B50024A0
:101D600013460A460146034805F014FA00B101245F
:101D7000204610BD9402002402480022022140683F
:101D80000EF024B81C000024FEE70000084810B53F
:101D900001680020486200F039FB08489FED050B00
:101DA00080ED080BBDE81040014805F0D3BC0000F1
:101DB000500500240000000000000000780100240D
:101DC000034810B505F00CFDBDE8104000F0F8BA6E
:101DD0005005002410B50D4C9FED0D1B04F10801BA
:101DE00094ED080B30EE010B84ED080B60680FF0EA
:101DF0005AFDA068002807D007494FF080500860BE
:101E0000BFF34F8FBFF36F8F10BD00007801002428
:101E10007B14AE47E17A843F04ED00E0014801F015
:101E20008DBD0000000B0024014801F087BD0000BB
:101E3000E00C0024014801F081BD0000880A002464
:101E4000014801F07BBD0000680C0024014801F04E
:101E500075BD0000780B0024014801F06FBD000043
:101E6000580D0024014801F069BD0000F00B00246A
:101E7000294A016891423AD0274A1832914236D015
:101E8000254A3032914232D0234A483291422ED0F4
:101E9000214A603291422AD01F4A7832914226D09C
:101EA0001D4A9032914222D01B4AA83291421ED044
:101EB0001A4A91421BD0194A1832914217D0174A38
:101EC0003032914213D0154A483291420FD0134A12
:101ED000603291420BD0114A7832914207D00F4ABA
:101EE0009032914203D00D4AA832914211D1CAB228
:101EF0001823103AB2FBF3F26FF30901032A02F040
:101F00000703074AD25CC26500D9091D81650846EE
:101F1000704721F0FF01F9E7100002401004024071
:101F2000D422010830B5224A012301689142CAB285
:101F30001BD01F4C1434A14217D01D4C2834A14291
:101F400013D01B4C3C34A1420FD0194C5034A14249
:101F50000BD0174C6434A14207D0154C7834A14201
:101F600003D0134C8C34A1420CD11421114C083AEB
:101F7000B2FBF1F10F4A803201F01F0504EB810141
:101F8000AB4010E00C4D1824103A0D44B2FBF4F1B4
:101F9000A82D00D80831094A01F01F0402EB810185
:101FA000064AA3408032603080E80E0030BD000059
:101FB0000854025800580258F0FBFDBF00080240C8
:101FC00010B50279531E072B2DD8174C0168A1427A
:101FD0001BD0154C1434A14217D0134C2834A14205
:101FE00013D0114C3C34A1420FD00F4C5034A142BD
:101FF0000BD00D4C6434A14207D00B4C7834A14275
:1020000003D0094C8C34A14203D10849074C443118
:1020100002E00749064C443104EB8202C0E91B216F
:1020200001219940416710BD08540258FC580258DC
:10203000FC08024010B583694FF0C074826A014603
:10204000002053B1B3F5005F15D072B1012A0CD056
:10205000022A0AD0032A09D104E01AB1012A06D0C3
:10206000022A03D1C96AC90100D5012010BDC96A7D
:10207000A142FAD010BD002AF7D0012AF2D0022ADC
:10208000F3D0032AF3D010BD2DE9F04F804E804FDE
:10209000DFF8FC911836DFF8F8A148370468856D41
:1020A0000AF1300ADFF8ECB14C45DFF8ECC1DFF89B
:1020B000ECE16DD0B4426BD0544569D0BC4267D0DE
:1020C000DFF8D081A8F11808444561D05C455FD0A5
:1020D00064455DD074455BD0DFF8C481444557D07A
:1020E000DFF8BC8108F11808444551D0DFF8B08111
:1020F00008F1300844454BD0DFF8A48108F14808C6
:10210000444545D0DFF8988108F1600844453FD048
:10211000DFF88C8108F17808444539D0DFF88081F8
:1021200008F19008444533D0DFF8748108F1A8081D
:1021300044452DD0DFF86C81444529D0DFF8648117
:1021400008F11408444523D0DFF8588108F1280825
:1021500044451DD0DFF84C8108F13C08444517D0B8
:10216000DFF8408108F15008444511D0DFF8348190
:1021700008F1640844450BD0DFF8288108F178089D
:10218000444505D0DFF81C8108F18C08444509D18D
:10219000D0E91948C4F80480C46E1CB1D0E91C48C9
:1021A000C4F8048004684C452ED0B4422CD0544569
:1021B0002AD0BC4228D0374E183EB44224D05C45C9
:1021C00022D0644520D074451ED0354EB4421BD079
:1021D000334E1836B44217D0314E3036B44213D095
:1021E0002F4E4836B4420FD02D4E6036B4420BD03D
:1021F0002B4E7836B44207D0294E9036B44203D0E5
:10220000274EA836B44215D190F85C603F2406F002
:102210001F06B440AC600468256825F4802525605D
:102220002EE09A600068C160BDE8F08F9960006898
:10223000C260F9E71B4EB4421BD01A4E1436B442AA
:1022400017D0184E2836B44213D0164E3C36B4423E
:102250000FD0144E5036B4420BD0124E6436B442F6
:1022600007D0104E7836B44203D00E4E8C36B442AE
:10227000DAD190F85C60012406F01F06B4406C606F
:10228000046863608368402B0368CFD1C9E700000E
:102290001000024088000240A0000240B800024046
:1022A0001004024008540258704772B6FEE700223C
:1022B000AFF3008084464DF8044D01200E4B5C7A4C
:1022C000002C16D1587A1C54587A03EB8000C0F8C1
:1022D00004C0587A03F1080C00F80C20587A421C0C
:1022E0005A72303008703A2048702F208870CC70B5
:1022F00000205DF8044B704728160024144C4FF65C
:10230000FF71606A0EF04BFF124F4FF0FF38124D15
:10231000124E414638680FF009FC114800F0E4FA0B
:102320000428607004D030780EA106F037FDF0E785
:10233000307812A106F032FD95ED060BFF2185EDF8
:10234000100B606A0EF05BFF00200EF05DFEE0E710
:10235000AC00002470010024105F002468010024F8
:102360000E5B0024474E53532069732070726570D2
:102370006172696E67210D0A00000000474E5353D9
:10238000206973207265616479210D0A00000000E4
:1023900009484FF0FF3408B50123002200940821BA
:1023A000406A0EF07FFF054D214628680FF0BEFB06
:1023B00000F08CF8F8E70000AC0000247C01002459
:1023C000074810B50CF012F80649074A087028B102
:1023D00006A11078BDE8104006F0E0BC08A1F8E7BF
:1023E000D8130024D9010024680100245446206336
:1023F0006C6F7365206661696C6564210D0A00006D
:10240000544620636C6F7365210D0A001FB5144894
:102410000078042814D0174812A1FEF7C7F8154910
:10242000322215480CF05AFB144900280870144851
:1024300014D014A1007804B0BDE8104006F0AEBC82
:102440001548047AC379827941798DE81E000379B1
:1024500012A142880748FEF7A9F8E0E715A1E9E7CD
:10246000AD0000244E4F5349474E414C2E747874B2
:102470000000000000600024D8130024D9010024CB
:10248000680100245446206F70656E206661696C97
:102490006564210D0A000000585F002425752D2574
:1024A000752D25752025642D25642D25642E7478C1
:1024B000740000005446206F70656E20737563636E
:1024C00065737366756C6C79210D0A00F0B5D74C95
:1024D000D748DE4EDE4DDF4F9FEDD60B9FEDD73B4D
:1024E0009FEDD81B2DED068B99B022788AB1B0EE06
:1024F000009B39469FEDD88B9FEDD96B9FEDDA7B22
:1025000091ED0E4B91ED082B012A33D0022A7DD19B
:1025100011E129880288891A02EE101AB8EEC22B3E
:1025200022EE000B84ED0A0B69884288891A02EEBC
:10253000101AB8EEC22B22EE032B84ED0C2BC088B0
:10254000E988081A02EE100A0020B8EEC22B22EE2B
:10255000011B84ED0E1B08F035FD042094ED0A0BE1
:1025600008F030FD012094ED0C0B08F02BFD94EDEC
:102570000C0B3DE029880288891A05EE101AB8EE86
:10258000C55B25EE000B84ED0A0B30EE440B698829
:102590004288891A04EE101AB8EEC44B20EE090BDB
:1025A00024EE033B02EE480B84ED0C3BC088E98827
:1025B000081A02EE100AB8EEC22B22EE011B86FEAC
:1025C000400B87FE000B84ED0E1B002084ED120BE8
:1025D00084ED143B08F0F6FC042094ED120B08F097
:1025E000F1FC012094ED140B08F0ECFC94ED140BBD
:1025F000052008F0E7FC3168A888C863032094ED43
:102600000E0B08F0DFFC94ED0E0B00E002E006205C
:1026100008F0D8FC964897ED140B00788DED160B5A
:1026200097ED120B00288DED140B97ED100B8DED2F
:10263000120B97ED0E0B8DED100B97ED0C0B8DED36
:102640000E0B97ED0A0B8DED0C0B97ED080B8DED36
:102650000A0B97ED060B8DED080B97ED040B8DED36
:10266000060B97ED020B8DED040B97ED000B7DD063
:1026700080A000BF8DED020B009094ED080B804907
:10268000804853EC102BFDF791FF7E497E480CF0FB
:1026900048FB7E4894ED100B01787D488DED0C0BC6
:1026A000042990ED0E0B8DED0A0B90ED0C0B8DEDCA
:1026B000080B90ED080B8DED060B90ED060B8DEDE4
:1026C000040B90ED020B8DED020B90ED040B8DEDE4
:1026D000000B7CD06FA272496A48FDF767FF694919
:1026E00069480CF01EFB6F4894ED120B00788DEDDD
:1026F0000A0B94ED140B01288DED080BA8880690A9
:1027000094ED0E0B8DED040B94ED0A0B8DED020B89
:1027100094ED0C0B8DED000B7ED063A266495948F9
:10272000FDF744FF19B057495748BDEC068BBDE88B
:10273000F0400CF0F6BA2988028894ED065B891AFD
:1027400003EE101AB8EEC33B03EE005B84ED0A5BA8
:102750006988428894ED043B891A0AEE101AB8EE93
:10276000CAAB0AEE003B84ED0C3B00E058E0C088A9
:10277000E98835EE445B081A00EE100AB8EEC04B4B
:1027800024EE011B25EE090B84ED0E1B97ED0C5B6F
:1027900094ED161B9FED494B33EE453B02EE480B83
:1027A000B0EE085B03EE041BB2EE044B23EE052BE8
:1027B000BAEE043B86FE400B84FE411B83FE011BE8
:1027C00087FE000B84ED161B84ED120B00E029E060
:1027D00097ED063BB6EE004BB2EE0E1B03EE442B1C
:1027E000BAEE0E3B81FE421B83FE011B002084EDEE
:1027F000141B08F0E7FB042094ED120B08F0E2FB39
:1028000094ED140BB1EE044B012030EE040B08F0F4
:10281000D9FB94ED140B00E006E030EE040BE7E684
:1028200028A027E729A256E72BA277E77801002402
:102830003C0100240AD7A3703D0AB73FB81E85EBC0
:1028400051B89E3F0AD7A3703D0AA73F2004002439
:102850008A560024D05500249A9999999999C93F8C
:10286000000000000080464000000000008046C0DC
:10287000AC000024494D5520455252210000000073
:1028800040D2030832600024D8130024AD00002495
:10289000105F0024474E5353204E4F4649582100A5
:1028A000BCD20308AE000024526563656976657288
:1028B0002045525221000000E4D103087B14AE47AA
:1028C000E17A843F494D55204F4B2100474E5353E9
:1028D000204649582100000052656365697665729B
:1028E000204F4B210000000010B5014626482DED79
:1028F000028B00F09BF82448A0F1480490F8711076
:10290000412912D0032020709FED200B84ED020B93
:1029100084ED040B84ED060B84ED080B84ED0E0BA7
:1029200084ED0C0BBDEC028B10BD0421217090EDE9
:10293000162B9FED180B84ED022B90ED1A2B9FEDBB
:10294000171B84ED042B90ED242B84ED062B90EDCA
:10295000282B22EE000B84ED0A0B90ED262B22EEA5
:10296000018B84ED088B09F0EBFF20EE080B84ED62
:102970000E0B94ED0A0B0AF0B7FC20EE080B0420B6
:1029800084ED0C0BCEE70000585F0024000000002F
:10299000000000001239359D46DF913F721CC7715F
:1029A0001CC7D13F0449092204484FF6FF73086051
:1029B00003A105F0BBBF00006C010024F409002452
:1029C0006C6F6720673031687A00000008B5FFF748
:1029D000E9FF124C4FF480620F49206805F080FF38
:1029E00020684FF0FF310068026842F01002026078
:1029F0000B4C0123009100220221606A0EF052FC70
:102A0000084D40F2DC56314628680FF08FF8064832
:102A1000FFF76AFF6070F6E70E5700246C01002490
:102A2000AC000024700100240E5B002470B50C463D
:102A3000054606F021FF21462846BDE8704006F015
:102A40004FBF00002DE9F84F4FF0000B0446E54E54
:102A50000D46CDF800B05F4690F85000DFF888A32F
:102A6000012808D04FF0010984F85090206806F042
:102A7000C3F918B169E10220BDE8F88F2168286820
:102A8000CA69030328D090FAA0F0B0FA80F000BF22
:102A900000F01F0309FA03F00243CA61D5E90012EE
:102AA0004FF00C0C20681F23C1F384610CEA921CC8
:102AB00002F01F02604493409140026B9A430A4324
:102AC0000263206806F098F98046206806F090F9C5
:102AD00058EA000003D07FE0C0F38460D8E72068A4
:102AE000AA68296806F094F9C0490968B9EB117F12
:102AF00006D121686869C968C1F38201490008E00C
:102B00002068C168C906C1686869F5D501F010017F
:102B100049088840296904292ED022682B6802EBD5
:102B2000810103F0F8420B6E024303F000401043B2
:102B30000866697E22682869012917D05FF00001C4
:102B400002EB8000026E22F000420A430266287EF9
:102B500021682A6901280CD000200B6902F01F02AD
:102B6000904023F4F04202430A6135E04FF0004107
:102B7000E6E74FF40060F0E720682978026E02F083
:102B8000F842B2EB816F03D1016E21F00041016682
:102B900020682978426E02F0F842B2EB816F03D1CF
:102BA000416E21F00041416620682978826E02F072
:102BB000F842B2EB816F03D1816E21F00041816652
:102BC00020682978C26E02F0F842B2EB816F03D11F
:102BD000C16E21F00041C1662068816811F0010FCB
:102BE00076D150F8C02F95F80CC0814B29680CF0B5
:102BF000180C23FA0CF3C1F313080B4022EA080265
:102C00001A4302607B48E968814277D12868010352
:102C10001BD090FAA0F1B1FA81F1491C01F01F011B
:102C200009294FEA003131D8002911D090FAA0F1DA
:102C3000B1FA81F101F1010101F01F0109FA01F27C
:102C400009D100BFC0F3846109E0C0F38461E4E707
:102C5000C0F38461EEE790FAA0F1B1FA81F101F1DD
:102C6000010101F01F0142EA816102D1C0F38460D9
:102C700003E090FAA0F0B0FA80F000F1010000F05B
:102C80001F0000EB400041EA005133E000290ED064
:102C900090FAA0F1B1FA81F101F1010101F01F01F7
:102CA00009FA01F206D100BFC0F3846106E0C0F367
:102CB0008461F1E790FAA0F1B1FA81F101F101012B
:102CC00001F01F0142EA816103D1C0F3846004E096
:102CD00040E090FAA0F0B0FA80F0474A00F101001D
:102CE00000F01F0000EB400002EB005041EA000141
:102CF00041F00071AA68206806F08AF8D5F800C093
:102D0000BCF1000F26DA3D4B20683D49DFF8F49016
:102D1000984201D0B04201D10A4600E04A4692688A
:102D2000984202F0E07201D0B04209D19D68D6F815
:102D3000088005F0010508F0010845EA080503E0F0
:102D4000DAF8085005F0010545B1606D012740F043
:102D500020006065384684F850B08DE62A4DAC45B9
:102D60001CD115021AD45045F4D1984202D0B04279
:102D700000D049468B6842F4000023F0E072024321
:102D80008A60234921480968B1FBF0F04000801CAB
:102D900000E0401E00900028FBD1DBE71D4DAC4554
:102DA0000CD1D5010AD45045D4D1984202D0B042BA
:102DB00000D049468B6842F080700EE0164DAC455D
:102DC000C8D15502C6D45045C4D1984202D0B042B1
:102DD00000D049468B6842F4800023F0E072024341
:102DE0008A60B7E700210240006002580010005CD2
:102DF000FFFF0F000000FF47000020FE0020024000
:102E00000023024000630258000084CB400D030001
:102E100014000024000052C70000B8CF0068006C06
:102E200070470000F8B54FF00006040035460096E4
:102E300002D0606D10B107E00120F8BD204600F01F
:102E400005F9A66584F8506020688168C1F3407177
:102E500019B18168704A1140816020688168C1F3AE
:102E6000007181B981686D4A114041F080518160E3
:102E70006C496B480968B1FBF0F0401C00E0401E53
:102E800000900028FBD120688168C1F3007141B92E
:102E9000616D012541F010016165A16D41F00101F5
:102EA000A16505F0A9FF616DC90600D420B1606D70
:102EB000012540F0100093E0606D20F4807040F038
:102EC000020060652068816811F0010F1FD1564A29
:102ED000564B904201D0984207D191689E6801F00C
:102EE000010106F00106314303E05149896801F010
:102EF000010161B9904201D0984201D14D4800E0F2
:102F00004D488268616822F47C120A43826001F0B5
:102F1000FFFC41F20301884202D9A06810280CD0BE
:102F2000617D227FA368206B490341EA0241184377
:102F30000843217F01290CD010E0607D227F216BA6
:102F4000400340EA024241F01000104340F00C0000
:102F5000EFE7218C394A02EB41410843616A29B10C
:102F6000A26A01F47871014342EA01002168344BFE
:102F7000CA681A400243CA60206805F03DFF064651
:102F8000206805F035FF30431DD1216844F203036A
:102F9000267DE26AC86842EA863298431043C860D8
:102FA00094F8380001281ED02068016921F0010141
:102FB00001612068626B016921F070411143016178
:102FC0002046FEF7F1FCE068012820681CD0016B68
:102FD00021F00F010163606D20F0020040F001005C
:102FE00060652846F8BD2068A28F164FD4E9101CF2
:102FF000154E07EB0247A36C026941EA0C013B4303
:10300000324019431143D3E7A269016B521E21F0EC
:103010000F011143DEE70000C0FFFF5FC0FFFF7F2D
:10302000400D030014000024002002400021024053
:103030000060025800230240006302580000FEFFB7
:1030400003C0F0FF0100FFFF1EF800FC70B5B6B032
:103050000446142130A8FDF791FCC0216846FDF715
:103060008DFC1E492068884235D10420242300228B
:1030700001251446CDE903304FF400218DE82600E8
:10308000C026CDE9076209922992CDE90505684677
:1030900002F090F908B1FFF708F91148016841F012
:1030A00080710160016801F080713591016841F023
:1030B00004010160006830A900F00400359003208D
:1030C0003095CDE93104074801F0FAFA4FF000607D
:1030D000014604F00BFA36B070BD000000600258E3
:1030E000E0440258000802582DE9F047434D0446D9
:1030F000006888464249434BA842DFF80C9101D052
:10310000484501D10A4600E01A46926802F01F06BF
:103110002269082A14D0AEB1052E13D0092E11D081
:10312000A84202D0484500D01946886800F44040C3
:1031300058B1606D40F0200060650120BDE8F08767
:10314000082703E0C068C007F2E7042701F0E6FBA8
:10315000824618E0B8F1FF3F15D001F0DFFBA0EB8D
:103160000A01414502D8B8F1000F0CD1206800686F
:10317000384208D1606D002184F8501040F00400FE
:1031800060650320DAE7206800683842E2D0606DAD
:1031900040F400706065206805F032FE80B1607D0B
:1031A00070B92068006800070AD5606D20F480704F
:1031B0006065606DC00403D4606D40F0010060651F
:1031C0002068484501D12A4600E00246824210D0DC
:1031D0007EB1052E0DD0092E0BD0484500D00546F6
:1031E000E968082F07D0490401D40C2101600020B0
:1031F000A4E7C168F5E70821F8E7000000200240D5
:103200000023024000630258002102402DE9F041F2
:103210003B4D044600683B4FA84201D0B84201D163
:10322000394900E03949896801F01F0605F0E4FDDD
:1032300018B102210846BDE8F08194F85000012839
:103240000CD0012084F850002046FEF7DBFC010082
:103250004FF0000204D084F85020EBE70220EAE7A8
:10326000636D40F6016C206823EA0C03B84243F416
:103270008073636501D12B4600E00346834200D092
:103280001EB9636D23F480136365636DDB0404D59D
:10329000A36D23F00603A36500E0A2651C23036071
:1032A00084F850202068B84201D12A4600E0024646
:1032B000824215D0A6B1052E12D0092E10D0626D13
:1032C000B84242F48012626500D00546E868800189
:1032D000B0D5606D20F4005040F480506065A9E7DF
:1032E000C268920105D5626D22F4005242F4805208
:1032F00062658268064B1A40121D82609AE70000E0
:1033000000200240002102400023024000630258D6
:10331000C0FFFF7F10B5044690F85000012808D088
:10332000012084F8500003212046FEF7C1FB10B1B4
:103330000BE0022010BD2046FEF72CFC28B9616D81
:1033400021F4885141F001016165002184F8501099
:1033500010BD00002DE9F84F044601F0DFFA00909F
:103360003CB194F83500022806D080216165002028
:10337000E4E00120BDE8F88FC74DC74EC6491835B7
:1033800020683036DFF81483DFF814938842DFF8C2
:1033900014A3DFF814B32ED0A8422CD0B0422AD008
:1033A000404528D0484526D0504524D0584522D005
:1033B000BD4A183290421ED0BC4A90421BD0BB4A34
:1033C0001832904217D0B94A3032904213D0B74ADF
:1033D000483290420FD0B54A603290420BD0B34A87
:1033E0007832904207D0B14A9032904203D0AF4A2F
:1033F000A832904209D1026822F01E0202602068C1
:10340000426922F08002426103E0026822F00E026B
:10341000026027688F4238464DD0A8424BD0B04258
:1034200049D0404547D0484545D0504543D0584500
:1034300041D09D4A183290423DD09C4A90423AD0A9
:103440009A4A1832904236D0984A3032904232D05E
:10345000964A483290422ED0944A603290422AD006
:10346000924A7832904226D0904A9032904222D0AE
:103470008E4AA83290421ED08D4A90421BD08C4A70
:103480001432904217D08A4A2832904213D0884A88
:103490003C3290420FD0864A503290420BD0844A40
:1034A0006432904207D0824A7832904203D0804AF8
:1034B0008C32974204D1206E026822F4807202603E
:1034C00075492068884228D0A84226D0B04224D02E
:1034D000404522D0484520D050451ED058451CD0EC
:1034E00071491831884218D07049884215D06F4907
:1034F0001831884211D06D49303188420DD06B4966
:103500004831884209D069496031884205D067490D
:103510007831884201D065499031016821F001017C
:1035200001600EE001F0FAF90099401A052808D967
:10353000202262650321002084F8351084F83400CD
:1035400017E73868C007EDD1534A0121206890423F
:103550002ED0A8422CD0B0422AD0404528D0484591
:1035600026D0504524D0584522D04F4B183398428E
:103570001ED04E4B98421BD04C4B1833984217D05C
:103580004A4B3033984213D0484B483398420FD0BF
:10359000464B603398420BD0444B7833984207D067
:1035A000424B9033984203D0404BA833984208D105
:1035B00094F85C703F23A06D07F01F07BB40836049
:1035C00007E094F85C30A06D03F01F0301FA03F3E9
:1035D0004360206890424DD0A8424BD0B04249D0C1
:1035E000404547D0484545D0504543D0584541D047
:1035F0002D4A183290423DD02C4A90423AD02B4A64
:103600001832904236D0294A3032904232D0274A7E
:10361000483290422ED0254A603290422AD0234A26
:103620007832904226D0214A9032904222D01F4ACE
:10363000A83290421ED01E4A90421BD01C4A14321F
:10364000904217D01A4A2832904213D0184A3C327E
:1036500090420FD0164A503290420BD0144A643236
:10366000904207D0124A7832904203D0104A8C32EE
:1036700090420BD1D4E919024260E06E30B1026889
:1036800022F480720260D4E91C024260002084F8B7
:10369000351084F834006DE61000024058000240F6
:1036A0007000024088000240A00002401004024066
:1036B000085402582DE9F05F28B190F8351002291E
:1036C00004D0802141650120BDE8F09F904C904BD3
:1036D0000168183C18338E4ADFF83C92A1428D4CA9
:1036E000DFF838E28E4FDFF83CB2DFF83CA28F4DB6
:1036F0008F4E31D091422FD099422DD0A1422BD064
:10370000494529D0714527D0B94225D0DFF810C2EC
:103710000CF1180C61451FD0DFF808C2ACF1600C49
:10372000614519D0DFF8FCC1ACF1480C614513D0FC
:10373000DFF8F0C1ACF1300C61450DD0DFF8E4C129
:10374000ACF1180C614507D0594505D0514503D05F
:10375000A94201D0B1422CD1DFF8B4C14FF0040826
:1037600080F83580ACF1180C61451DD091421BD01A
:10377000994219D0A14217D0494515D0714513D0AF
:10378000B94211D06648183081420DD06548603882
:10379000814209D063484838814205D061483038B9
:1037A000814201D05F481838086820F001000860A5
:1037B000ABE0D1F800C02CF00E08DFF854C1C1F81E
:1037C0000080ACF1180C0168614527D0914225D0EA
:1037D000994223D0A14221D049451FD071451DD027
:1037E000B9421BD0DFF838C10CF1180C614515D077
:1037F000DFF830C1ACF1600C61450FD0DFF824C1B7
:10380000ACF1480C614509D0DFF818C1ACF1300CBF
:10381000614503D0DFF80CC1ACF1180CD1F800C041
:103820002CF0010CC1F800C0DFF8E4804FF0010C6F
:103830000168A8F11808414546D0914244D0994208
:1038400042D0A14240D049453ED071453CD0B9421A
:103850003AD0334A1832914236D0324A603A9142D5
:1038600032D0304A483A91422ED02E4A303A9142D4
:103870002AD02C4A183A914226D0594524D0514595
:1038800022D0A94220D0B1421ED02A4A91421BD058
:10389000284A1432914217D0264A2832914213D036
:1038A000244A3C3291420FD0224A503291420BD0EE
:1038B000204A6432914207D01E4A7832914203D0A6
:1038C0001C4A8C32914218D1016E0A6822F480722F
:1038D0000A6090F85C20816D02F01F020CFA02F27F
:1038E0004A60D0E919124A60C16E31B10A6822F407
:1038F00080720A60D0E91C124A600022016D80F8D3
:1039000035C080F8342001B188470020DCE6000093
:103910002800024058000240700002408800024027
:10392000A00002407004024088040240A00402404B
:10393000B804024008540258406D70472DE9FC5FFE
:103940000446F74E0020DFF8D88300904FF416525B
:10395000F44808F11808A56DDFF8C493DFF8C0A398
:10396000016809F1300920680AF1480AB1FBF2F157
:10397000B04201912F68D5F800C0DFF8ACB335D064
:103980004146884232D0484530D050452ED0584527
:103990002CD0E5491831884228D0E349303188429B
:1039A00024D0E1494831884220D0E04988421DD0E6
:1039B000DE491831884219D0DC493031884215D0AF
:1039C000DA494831884211D0DFF860E30EF1600E29
:1039D00070450BD0D54A7832904207D0D34B903304
:1039E000984203D0D149A83188427DD194F85C2017
:1039F000082102F01F0201FA02F23A424AD0B04214
:103A000032D0404530D048452ED050452CD0584576
:103A10002AD0C54A1832904226D0C34A303290424A
:103A200022D0C14A483290421ED0C04A90421BD098
:103A3000BE4A1832904217D0BC4A3032904213D05E
:103A4000BA4A483290420FD0B84A603290420BD006
:103A5000B64A7832904207D0B44A9032904203D0AE
:103A6000B24AA832904203D1026802F0040202E096
:103A7000026802F008026AB1026822F004020260E1
:103A800094F85C0000F01F008140A960606D40F078
:103A90000100606594F85C00012100F01F00814086
:103AA000394240D02068B04234D0404532D04845F9
:103AB00030D050452ED058452CD09B4A18329042D9
:103AC00028D0994A3032904224D0974A48329042C6
:103AD00020D0964A90421DD0944A1832904219D074
:103AE000924A3032904200E0AFE113D08F4A483220
:103AF00090420FD08D4A603290420BD08B4A783280
:103B0000904207D0894A9032904203D0874AA83227
:103B100090427DD1406910F0800F04D0A960606DA3
:103B200040F00200606594F85C00042100F01F0082
:103B3000814039423ED02068B04232D0404530D03A
:103B400048452ED050452CD058452AD0764A1832B8
:103B5000904226D0744A3032904222D0724A483283
:103B600090421ED0714A90421BD0704A1832904247
:103B700017D06E4A3032904213D06C4A483290428D
:103B80000FD06A4A603290420BD0684A7832904235
:103B900007D0664A9032904203D0644AA8329042DD
:103BA0004ED1006810F0020F04D0A960606D40F0A3
:103BB0000400606594F85C00102100F01F00814053
:103BC000394258D02068B04234D0404532D04845C0
:103BD00030D050452ED058452CD0534A1832904200
:103BE00028D0514A3032904224D04F4A4832904235
:103BF00020D04E4A90421DD04C4A1832904219D0E3
:103C00004A4A3032904215D0484A4832904200E049
:103C100014E00FD0454A603290420BD0434A7832CC
:103C2000904207D0414A9032904203D03F4AA83296
:103C3000904207D1006800F0080006E0006872E7D3
:103C40000068B7E7006800F00400A0B1A960206830
:103C50000168490304D50068000308D5A16C07E09A
:103C60000168C90503D4016821F008010160216CD5
:103C700009B12046884794F85C00202100F01F001D
:103C80008140394279D02068B04232D0404530D0AE
:103C900048452ED050452CD058452AD0224A1832BB
:103CA000904226D0204A3032904222D01E4A4832DA
:103CB00090421ED01D4A90421BD01C4A183290429E
:103CC00017D01A4A3032904213D0184A48329042E4
:103CD0000FD0164A603290420BD0144A783290428C
:103CE00007D0124A9032904203D0104AA832904234
:103CF00003D1006800F0100002E0006800F002004C
:103D0000B0B3A96094F835000428206801680FD08A
:103D100049037ED5006800032BD4616C2AE00000C3
:103D20001000024014000024700002401004024001
:103D300021F0160101602068416921F08001416194
:103D4000206C08B9A06C20B12068016821F008013E
:103D5000016094F85C303F21012003F01F03002232
:103D60009940A96084F8350084F83420216D65E01D
:103D700003E0E16B09B120468847606D00287DD0E3
:103D8000606DC00759D02068042184F83510B04216
:103D90002BD0404529D0484527D0504525D05845FF
:103DA00023D09D49884220D09B49183188421CD09D
:103DB00099493031884218D09849884215D097499E
:103DC0001831884211D09549303188420DD093493D
:103DD0004831884209D091496031884205D08F49E5
:103DE0007831884201D08D499031016821F001017C
:103DF000016020680099019A491C0091914202D803
:103E00000168C907F6D10068C00710D003200FE091
:103E1000FFE70168C905ACD403680121002223F043
:103E20001003036084F8351084F83420A1E70120E2
:103E300084F83500002084F83400E16C00291DD09E
:103E400002B02046BDE8F05F0847754988421DD0A2
:103E500073491431884219D071492831884215D0EC
:103E60006F493C31884211D06D49503188420DD0A4
:103E70006B496431884209D0694900E084E07831B7
:103E8000884203D066498C3188427DD194F85C80A9
:103E90000427016808F01F0807FA08F717EA0C0F53
:103EA000009746D04F0744D500980F04686003D5AB
:103EB000C8033CD4A16CC1E7880638D42068B0425E
:103EC0002DD055496039884229D0484527D05045E2
:103ED00025D0584523D05049884220D04E4918312A
:103EE00088421CD04C493031884218D04B49884216
:103EF00015D04A491831884211D04849303188429A
:103F00000DD046494831884209D0704507D09042CB
:103F100005D0984203D04149A831884203D10168B5
:103F200021F0080102E0016821F004010160216C28
:103F300084E7022707FA08F717EA0C0F00974ED01C
:103F40008F074CD500980F04686003D5C80344D48C
:103F5000616C73E7880640D42068B0422FD02E49A8
:103F6000603988422BD0484529D0504527D0584544
:103F700025D02949884222D02749183188421ED0AD
:103F800025493031884200E044E018D02349884276
:103F900015D022491831884211D020493031884249
:103FA0000DD01E494831884209D0704507D0904253
:103FB00005D0984203D01949A831884203D101683D
:103FC00021F0140102E0016821F00A0101600121E1
:103FD00084F83510002084F83400E16B2EE70822C5
:103FE00002FA08F212EA0C0F14D0090712D5016880
:103FF00021F00E01016094F85C100120002201F014
:104000001F0100FA01F16960606584F8350084F8E9
:10401000342012E7BDE8FC9F8800024010040240F3
:10402000085402582DE9F05F044600F077FC002C9C
:1040300007467DD0E34E022120684FF00308DFF8E9
:1040400088934FF00005DFF884A3B042DFF880B317
:1040500034D0DC4A1832904230D048452ED05045FA
:104060002CD058452AD0DA4A1832904226D0D84A65
:104070003032904222D0D64A483290421ED0D54AA1
:1040800090421BD0D34A1832904217D0D14A3032D6
:10409000904213D0CF4A483290420FD0CD4A60327E
:1040A00090420BD0CB4A7832904207D0C94A903226
:1040B000904203D0C74AA83290427DD184F835108F
:1040C000B04284F834502ED0BE49183188422AD0EC
:1040D000484528D0504526D0584524D0BC491831F1
:1040E000884220D0BA49303188421CD0B849483182
:1040F000884218D0B749884215D0B649183188424D
:1041000011D0B449303188420DD0B249483188428B
:1041100009D0B0496031884205D0AE497831884233
:1041200001D0AC499031016821F00101016008E043
:1041300027E100BF00F0F2FBC01B052801D92021B8
:104140001CE120680068C007F4D104F10800216870
:10415000D4E9053C8E4685C809681043D4E9072890
:104160001F43636A38439C4F40EA0C0010433940B8
:1041700040EA0800042B40EA010003D1D4E90B1205
:1041800011430843954909686FF30F01B1F1005FCE
:104190000FD36168A1F12902052A08D9163A032A2A
:1041A00005D9083A012A02D94F39032901D840F428
:1041B0008010CEF8000000E023E02068676A4069C4
:1041C000042F20F0070047EA00070DD1D4E90A01C7
:1041D000074349B12046FDF72DFF28B14020606517
:1041E000012184F83510CCE0206847612046FDF7B6
:1041F0003FFE94F85C203F2102F01F029140816055
:1042000054E0774A90421BD0754B1433984217D034
:10421000734B2833984213D0714B3C3398420FD0E4
:104220006F4B503398420BD06D4B6433984207D09C
:104230006B4B7833984203D0694B8C3398427DD1D5
:1042400084F8351084F83450664B0168A26801EA9E
:10425000030E402A73D0802A72D00022D4E903785A
:10426000D4E9053142EAD70242EAD8085C4AD4E9E7
:10427000077C48EAD30848EAD10141EAD701524213
:1042800041EA1C11142341EA0E0101602068104428
:10429000B0FBF3F08000E0652046FDF7E9FD94F8FF
:1042A0005C20012102F01F02914041602068B04271
:1042B00057D044491831884253D0484551D05045D1
:1042C0004FD058454DD042491831884249D04049D5
:1042D0003031884245D03E494831884241D03D493D
:1042E00088423ED03B49183188423AD03949303172
:1042F000884236D037494831884232D0354960311A
:1043000088422ED03349783188422AD031499031C1
:10431000884226D02F49A831884222D0304988428D
:104320001FD02F49143188421BD02D492831884293
:1043300017D02B493C31884213D002E01DE017E032
:1043400018E02749503188420BD025496431884212
:1043500007D023497831884203D021498C318842E3
:1043600029D12046FDF7DEFDA06880280CD00CE0A6
:10437000102273E74FF4804270E74021616584F8B2
:1043800035800120BDE8F09F6560216E20790860CE
:10439000D4E9190141606068401E072808D820460A
:1043A000FDF70EFEE06E0560D4E91C01416002E0FD
:1043B000E566256765670120656584F8350000209E
:1043C000E0E70000100002404000024058000240B8
:1043D00070000240100402403F8010FE0010005C9C
:1043E000085402580F00FEFF2DE9F84F04008C46D8
:1043F0004FF00000009014D094F83400012812D03F
:1044000094F835500120002184F83400012D0CD09F
:10441000C00260650120009084F834100098BDE867
:10442000F88F0120FBE70220F9E78C4D0226206877
:1044300084F83560A8428A4D61658A4E8A4FDFF85C
:104440002C82DFF82C92DFF82CA2DFF82CB226D0D9
:10445000A84224D0B04222D0B84220D040451ED03D
:1044600048451CD050451AD0584518D08349884239
:1044700015D082491831884211D0804930318842A4
:104480000DD07E494831884209D07C49603188424C
:1044900005D07A497831884201D078499031016855
:1044A00021F00101016061462046FDF7EDFD6B49F9
:1044B000206888422CD0A8422AD0B04228D0B842E6
:1044C00026D0404524D0484522D0504520D05845DC
:1044D0001ED06A4A90421BD0684A1832904217D0C8
:1044E000664A3032904213D0644A483290420FD02C
:1044F000624A603290420BD0604A7832904207D0D4
:104500005E4A9032904203D05C4AA83290420CD16D
:10451000026822F01E0242F016020260206C88B18E
:104520002068026842F008020BE0026822F00E02E6
:1045300042F00A020260206C20B12068026842F05A
:1045400004020260206888424BD0A84249D0B042A1
:1045500047D0B84245D0404543D0484541D050456A
:104560003FD058453DD0454A90423AD0434A183250
:10457000904236D0414A3032904232D03F4A48329F
:1045800090422ED03D4A603290422AD03B4A783247
:10459000904226D0394A9032904222D0374AA832EF
:1045A00090421ED0364A90421BD0354A1432904277
:1045B00017D0334A2832904213D0314A3C329042CD
:1045C0000FD02F4A503290420BD02D4A6432904285
:1045D00007D02B4A7832904203D0294A8C3290423D
:1045E0000DD1206E0268D20303D5026842F48072B6
:1045F0000260E06E18B1026842F4807202602068C6
:10460000884226D0A84224D0B04222D0B84220D03E
:1046100040451ED048451CD050451AD0584518D0AA
:104620001649884215D015491831884211D01349CE
:10463000303188420DD011494831884209D00F49A4
:104640006031884205D00D497831884201D00B494C
:104650009031016841F001010160DFE61000024085
:104660002800024040000240580002407000024012
:1046700088000240A0000240B8000240100402403E
:10468000085402580D4900220B685A620A681368E0
:1046900043F00103136009684A6A8242FCD3086A46
:1046A00041F21112104207D1086A9210104203D150
:1046B000086820F00100086070470000040500242D
:1046C0002DE9F84F03247D4D00234FF001094FF0F1
:1046D000B04B4FF00F0AE9E009FA03F73A4076D001
:1046E0000E7906F00306012E01D0022E18D1D0F863
:1046F00008C04FEA430ECE6804FA0EF82CEA080C04
:1047000006FA0EF646EA0C068660D0F804C00E796A
:104710002CEA070CC6F300169E4046EA0C064660DB
:104720000E79F643B6070BD0C6684FEA43088F6888
:1047300004FA08FC26EA0C0607FA08F73743C760B4
:104740000E7906F00306022E12D1DE080F694FEA39
:10475000437C00EB8606B646366A4FEADC6C0AFA02
:104760000CF807FA0CF726EA08063743CEF8207053
:104770000F7906684FEA430807F0030704FA08FCBC
:1047800007FA08F726EA0C06374307604E6816F466
:10479000403F1CD04A4E376847F002073760366802
:1047A0009F0706F00206009623F0030606F1B046C6
:1047B000B6463F0FD6F80864DFF808810AFA07FC0E
:1047C000404526EA0C0603D14FF0000C41E06CE0B6
:1047D000DFF8F4C0604502D14FF0010C39E0DFF89A
:1047E000ECC0604502D14FF0020C32E0DFF8E0C0CF
:1047F000604502D14FF0030C2BE0DFF8D8C06045D4
:1048000002D14FF0040C24E0DFF8CCC0604502D1A7
:104810004FF0050C1DE0DFF8C4C0604502D14FF039
:10482000060C16E0DFF8B8C0604502D14FF0070C67
:104830000FE0DFF8B0C0604502D14FF0080C08E08F
:10484000DFF8A4C0604502D14FF0090C01E04FF041
:104850000A0C0CFA07FC4CEA060CCEF808C44F68A8
:10486000DBF80060FF0226EA020600D516435F4629
:10487000CBF80060D1F804C0DBF804605FEA8C2C50
:1048800026EA020600D516437E606E684F6826EA67
:104890000206BF0300D516436E602E684F6826EAF5
:1048A0000206FF0300D516432E605B1C0A6832FA2D
:1048B00003F67FF411AFBDE8F88F000080000058C8
:1048C000F44402580000025800040258000802583C
:1048D000000C025800100258001402580018025828
:1048E000001C0258002002580024025800690840A9
:1048F00000D001207047426921EA02030A4043EADE
:104900000241816170470AB1816170470904FBE788
:1049100001480068000C70470010005C0148806886
:10492000704700000800002430B590F84120202A8C
:1049300024D190F84020012A20D0012380F8403073
:10494000242280F84120202300240268156825F0E5
:10495000010515600268156825F480551560026828
:1049600015680D43156001680A6842F001020A608B
:1049700080F8413080F84040002030BD022030BD3A
:1049800030B590F84120202A22D190F84020012A09
:104990001ED0012380F84030242280F841202024BA
:1049A00000250268136823F001031360026813688E
:1049B00023F4706343EA0121116001680A6842F040
:1049C00001020A6080F8414080F84050002030BD6C
:1049D000022030BD70B5040004D094F841000025D9
:1049E00010B106E0012070BD204684F8405000F070
:1049F0004DF8242084F841002068016821F001016D
:104A00000160D4E9001020F07060086120688168BE
:104A100021F400418160E06821680128A06806D087
:104A200040F404408860E068022803D006E040F4C7
:104A30000040F7E721684FF40060486020212068BB
:104A4000114A4368134343602068C26822F400425D
:104A5000C26054F8106B0DCC104340EA0320F060A4
:104A600054F81C3CD4E900021043186054F81C0DA3
:104A7000026842F001020260656484F84110256317
:104A800084F84250002070BD0080000210B5B6B01E
:104A90000446142130A8FBF771FFC0216846FBF7DC
:104AA0006DFF1849206888422AD1002021900821F2
:104AB0000446CDE90010684600F07CFC08B1FDF723
:104AC000F4FB1148016841F002010160006830AB5D
:104AD000122100F002003590C020042283E8130068
:104AE0000A4830A9CDE93342FFF7EAFD064808300D
:104AF000016841F400110160006800F40010359075
:104B000036B010BD00540040E04402580004025882
:104B100002488168027811448160704708000024CF
:104B2000032010B500F0ACF801F0BCFA0F4A1049B0
:104B300014681368C4F3032203F00F038A5CC95C92
:104B400002F01F0201F01F01D0400A4A20FA01F1D1
:104B50001160094908600F2000F010F808B1012029
:104B600010BD00F04DF8002010BD000018440258A0
:104B700004230108180000241400002410B5102894
:104B800004468AB02AD200220146762000F058F866
:104B9000762000F047F8154804601548016841F494
:104BA00080210160006808A900F48020099068460F
:104BB00001F004FA01F064FA0E49400000220E4CA4
:104BC000B0FBF1F10D4840F2E7330460C0E9033275
:104BD000491EC0E9011202F0E7FC10B101200AB041
:104BE00010BD064802F0B6FDF9E700000C000024F5
:104BF000F044025840420F00004801405411002484
:104C0000074882B0016841F002010160006800229B
:104C10000F2100F002000090901E02B000F010B8CA
:104C2000F4440258002809DB410900F01F02890002
:104C3000012001F1E0219040C1F80001704700001F
:104C40000E4BF0B41B680D46C3F30223C3F10706F5
:104C5000042E00D90426191D072901D2002300E0E3
:104C6000DB1E012404FA06F19C40491E2940641E03
:104C7000994014402143F0BC07F051BE0CED00E018
:104C8000064900F0070210B54FF6FF040868044B10
:104C9000204040EA02201843086010BD0CED00E0FF
:104CA0000000FA05134970B50A68D243520705D5CA
:104CB000096801F00701814213D118E00A6822F067
:104CC000070202430A60FFF729FE0A4D4FF47A7685
:104CD0000446083D07E000BFFFF720FE001BB0427E
:104CE00001D9012070BD2868C0438004F4D400209D
:104CF00070BD00000C48025810B501F08DF905494F
:104D00000968054AC1F30211515C01F01F01C84056
:104D100010BD000020440258042301084A4930B560
:104D2000494C0B1D0A680C3409681D68246802F0A0
:104D3000030305F00102C1F30511C4F3CC040029FB
:104D400014FB02F200EE102AF8EE400A76D0414A37
:104D50009FED3E1ADFED3E1AB7EE000A23B1012B9C
:104D60005AD0022B18D15CE0374C283C23689B06B4
:104D700012D5394B246801EE901A1168C4F3C104AE
:104D8000F8EE612AE34001EE903AC1F30801F8EE33
:104D9000611A81EEA22A07E002EE101A1168F8EEFD
:104DA000422A81EEA22A45E001EE901A1168F8EE3F
:104DB000611A40EE811A71EE800A62EE200AC1F398
:104DC000462101EE101AB8EE411A31EE001AC0EE7B
:104DD000811ABCEEE11A80ED001A1168C1F3064198
:104DE00001EE101AB8EE411A31EE001AC0EE811A27
:104DF000BCEEE11A80ED011A1168C1F3066101EE03
:104E0000101AB8EE411A31EE000A80EE801ABCEE9C
:104E1000C10A80ED020A30BD01EE901ADFED0F2AC3
:104E200003E001EE901ADFED0E2A1168F8EE611A28
:104E300082EEA12AC1F30801B6E7FFE70021016075
:104E40004160816030BD00002844025800000039F4
:104E50000024744C304402580090D0030024744A5B
:104E60000024F44A494930B5484C0B1D0A681434F3
:104E700009681D68246802F00303C5F30012C1F33A
:104E80000531C4F3CC04002914FB02F200EE102A11
:104E9000F8EE400A75D03F4A9FED3D1AB7EE000A82
:104EA0006BB1DFED3D1A012B01D0022B64D002EE75
:104EB000101A1168F8EE422A81EEA22A21E0334C42
:104EC000283C23689B0612D5344B246801EE901AC7
:104ED0001168C4F3C104F8EE612AE34001EE903A90
:104EE000C1F30801F8EE611A81EEA22A0BE001EE8F
:104EF000901ADFED2B2A00BFF8EE611A116882EEDE
:104F0000A12AC1F3080101EE901A1168F8EE611AA6
:104F100040EE811A71EE800A62EE200AC1F346214A
:104F200001EE101AB8EE411A31EE001AC0EE811AE5
:104F3000BCEEE11A80ED001A1168C1F3064101EEE2
:104F4000101AB8EE411A31EE001AC0EE811ABCEE0A
:104F5000E11A80ED011A1168C1F3066101EE101A21
:104F6000B8EE411A31EE000A80EE801ABCEEC10A9A
:104F700080ED020A30BD04E001EE901ADFED092A4F
:104F8000BAE70021016041608160F3E728440258DC
:104F900000000039384402580024744A0090D003BD
:104FA0000024744C0024F44A494930B5484C0B1D88
:104FB0000A681C3409681D68246802F00303C5F3FD
:104FC0000022C1F30551C4F3CC04002914FB02F202
:104FD00000EE102AF8EE400A75D03F4A9FED3D1AC8
:104FE000B7EE000A6BB1DFED3D1A012B01D0022BA9
:104FF00064D002EE101A1168F8EE422A81EEA22A5D
:1050000021E0334C283C23689B0612D5344B24689E
:1050100001EE901A1168C4F3C104F8EE612AE3406E
:1050200001EE903AC1F30801F8EE611A81EEA22A6E
:105030000BE001EE901ADFED2B2A00BFF8EE611AAB
:10504000116882EEA12AC1F3080101EE901A1168DD
:10505000F8EE611A40EE811A71EE800A62EE200AC3
:10506000C1F3462101EE101AB8EE411A31EE001AD2
:10507000C0EE811ABCEEE11A80ED001A1168C1F38E
:10508000064101EE101AB8EE411A31EE001AC0EED8
:10509000811ABCEEE11A80ED011A1168C1F30661B4
:1050A00001EE101AB8EE411A31EE000A80EE801AB5
:1050B000BCEEC10A80ED020A30BD04E001EE901A98
:1050C000DFED092ABAE70021016041608160F3E762
:1050D0002844025800000039404402580024744A11
:1050E0000090D0030024744C0024F44A2DE9F04FC2
:1050F000AD4A0546DFF8ACA280F48070DFF8AC92D0
:1051000089B01311AA4C0843AAF104064FF0805C41
:105110004FF000584FEAE2002CD085F400770F439F
:1051200057D0DFF880B285F480670F430BF1080B8E
:1051300061D085F400670F4374D085F480570F4326
:105140006ED085F400570F434FF480394FF4003E82
:1051500067D085F400270F4371D085F480370F4363
:105160006ED085F480460E436BD085F400420A432E
:1051700068D02AE0DAF8001001F00701052924D2EE
:10518000DFE801F075BC7D25B10006A8FFF7C6FD7C
:10519000079809B0BDE8F08F6846FFF763FE0098F6
:1051A000F7E703A8FFF700FF0398F2E72068C0F3D2
:1051B000C10022FA00F0ECE72268D20571D5614502
:1051C0006FD11846E5E74145E3D00020E1E74846C6
:1051D000DFE7DAF8001001F4E07180294FD004DC39
:1051E000002944D04029F0D188E0C029EFD0B1F5A2
:1051F000807FEAD177E0DBF8001001F46001B1F5BF
:10520000800F3CD004DC91B3B1F5001FDDD175E017
:10521000B1F5C00FDBD0B1F5000FD6D163E001E0EE
:1052200018E030E0DBF8001001F0E061B1F1007F40
:1052300025D008DCD9B1B1F1807FC6D15EE049E06C
:105240006CE079E09CE0B1F1407FC0D0B1F1806FBB
:10525000BBD148E0DAF8001001F4E041B1F5005F9D
:105260000DD005DC19B1B1F5805FAED146E094E018
:10527000B1F5405FABD0B1F5804FA6D133E02068E7
:105280008000A2D58DE7DAF8001001F4E021B1F535
:10529000403F6CD006DC61B149457AD0714594D16C
:1052A00057E037E0B1F5802F65D0B1F5A02F8CD154
:1052B0000CE000F0D3FE6CE76846FFF7D3FD0198E1
:1052C00067E703A8FFF770FE049862E72168890387
:1052D000F1D47AE7DBF8001011F440310ED04945E3
:1052E00010D07145F5D13168256801F040516D0746
:1052F0007FF562AF00297FF45FAF57E720680001B8
:10530000E7D549E720688000E3D503A8FFF74CFE06
:1053100005983EE722689203DBD554E7306810F425
:1053200080303AD04845D4D120680001D1D56846B4
:10533000FFF798FD02982CE7DBF8001001F0E04140
:10534000B1F1405F13D008DC71B1614521D0414516
:10535000BFD120688000B4D437E7B1F1804F0AD0C4
:10536000B1F1A04FB2D030E7FFF7C6FC11E72068DB
:105370004007AED51AE72068C005AAD521E708E0A6
:10538000DAF8001011F04051A0D0614505D0414538
:105390009FD1206800018FD417E72068800198D53D
:1053A000F3E60000504402580090D0030080BB0098
:1053B000004402582DE9FE4F0546DFF8E48350F81B
:1053C000081B0024F64FC943019005F1280026462A
:1053D00008F12408009008011DD4A86E50B1B0F562
:1053E000801F0CD0B0F5001F0ED0B0F5401F1ED0AE
:1053F00001240FE0386840F40030386017E001986D
:10540000022104F02FFC03E00098022104F0BAFC12
:1054100004000CD026462888C043C00523D4A86DBC
:1054200005281ED2DFE800F00C11161B1B00AA6E27
:10543000D8F8001021F440111143C8F80010EAE731
:10544000386840F40030386009E00198002104F029
:1054500009FC03E00098002104F094FC044674B1B8
:1054600000E0012426462888C043800528D4E86D42
:1054700080281ED00CDC90B140280ED114E0AA6D1B
:10548000D8F8001021F007011143C8F80010EAE72E
:10549000C02813D0B0F5807F10D001240FE0386809
:1054A00040F40030386009E00198002104F0DAFB94
:1054B00003E00098002104F065FC04469CB12646F8
:1054C0002888DFF8DC92C04309F12C0940052CD470
:1054D000D5F8A800B0F5800F20D00DDCA0B1B0F554
:1054E000001F0FD115E0EA6DD8F8001021F4E0712B
:1054F0001143C8F80010E3E7B0F5C00F13D0B0F5C2
:10550000000F10D001240FE0386840F400303860FC
:1055100009E00198002104F0A5FB03E000980021B8
:1055200004F030FC04467CB126462888C0430005C0
:105530002DD4D5F8AC00B0F1007F21D00EDCA8B19D
:10554000B0F1807F10D116E0D5F8A820D9F800106E
:1055500021F460011143C9F80010E6E7B0F1407F83
:1055600013D0B0F1806F10D001240FE0386840F400
:105570000030386009E00198002104F073FB03E07B
:105580000098002104F0FEFB044674B1264628680A
:10559000C04380011FD4E86CD8B110280FD0202858
:1055A00012D0302815D0012414E0D5F8AC20D9F859
:1055B000001021F0E0611143C9F80010E7E73868F6
:1055C00040F40030386004E00198022104F04AFB06
:1055D000044674B126462888C043C0042BD4286EE4
:1055E000B0F5005F20D00DDCA0B1B0F5805F0FD129
:1055F00015E06B48EA6C2030016821F0300111435E
:105600000160E8E7B0F5405F13D0B0F5804F10D0EF
:1056100001240FE0386840F40030386009E0019858
:10562000002104F01FFB03E00098002104F0AAFB16
:1056300004468CB126462888C043800429D4686E6D
:10564000B0F5403F23D010DC08B3B0F5803F14D054
:10565000B0F5003F0FD115E02A6ED8F8001021F404
:10566000E0411143C8F80010E5E7B0F5802F0ED0F7
:10567000B0F5A02F0BD001240AE00198012104F01D
:10568000F1FA03E00098012104F07CFB044694B198
:1056900026462888C04340042AD4D5F8B000B0F18B
:1056A000405F23D010DC08B3B0F1805F14D0B0F1BC
:1056B000005F0FD115E06A6ED8F8001021F4E021E8
:1056C0001143C8F80010E4E7B0F1804F0ED0B0F1FC
:1056D000A04F0BD001240AE00198012104F0C2FA86
:1056E00003E00098012104F04DFB044674B1264606
:1056F0002888C04300041FD4286FD8B1B0F1805F60
:105700000ED0B0F1005F10D0012414E0D5F8B02025
:10571000D9F8001021F0E0411143C9F80010E7E783
:10572000386840F40030386004E00198012104F04A
:1057300099FA044674B126462868C043C0011ED4B5
:10574000A86CD0B101280ED0022811D0032814D0A3
:10575000012413E02A6FD8F8001021F040511143C2
:10576000C8F80010E8E7386840F40030386004E01A
:105770000198022104F076FA0446ACB12646286866
:10578000DFF81CB0C043ABF11C0B400252D40548FB
:10579000016841F480710160FFF7C0F8824611E0B2
:1057A0002C44025800480258FA48AA6C016821F0BB
:1057B000030111430160E2E7FFF7B0F8A0EB0A0034
:1057C000642835D8F4480068C005F5D58CBBDFF8EF
:1057D000C4A3B5F8B4100AF1240ADAF8000001F401
:1057E000407100F44070884211D0DAF80010DAF805
:1057F000002021F4407142F48032CAF80020DAF827
:10580000002022F48032CAF80020CAF80010D5F82F
:10581000B400B0F5807F1AD1FFF780F8029012E053
:10582000FFF77CF80299411A41F2883081420AD987
:10583000032426462878DFF85CA3C0430AF1080A4F
:10584000C00721D03CE0DAF800008007E8D5D5F8A1
:10585000B410C1F30120032858460DD0016821F48B
:105860007C510160B5F8B420DAF80010C2F30B02E5
:105870001143CAF80010DDE7C84A036802EA1112B2
:1058800023F47C511143ECE7E86F182816D005DCAF
:10589000A0B1082808D0102804D10AE020280DD093
:1058A00028280BD001240AE00198012104F0DAF93C
:1058B00003E00098012104F065FA044664B126462D
:1058C0002878C04380071ED4A86F062819D2DFE8C5
:1058D00000F0160C11161616EA6FDAF8001021F017
:1058E00038011143CAF80010EAE70198012104F0D9
:1058F000B9F903E00098012104F044FA04467CB1B0
:1059000000E0012426462878C04340071FD4D5F87C
:105910009400062819D2DFE800F0160C11161616AE
:10592000AA6FDAF8001021F007011143CAF800103D
:10593000E9E70198012104F095F903E000980121BD
:1059400004F020FA0446A4B100E001242646287899
:10595000C04380062BD4D5F89000B0F1405F24D02E
:1059600011DC10B3B0F1805F15D0B0F1005F10D141
:1059700016E0D5F89420D9F8001021F00701114362
:10598000C9F80010E3E7B0F1804F0ED0B0F1A04F9E
:105990000BD001240AE00198002104F063F903E030
:1059A0000098022104F0EEF9044694B126462878C6
:1059B000C04340062BD4D5F89C00B0F5406F24D0EE
:1059C00011DC10B3B0F5806F15D0B0F5006F10D1B9
:1059D00016E0D5F89020DAF8001021F0E0411143EC
:1059E000CAF80010E3E7B0F5805F0ED0B0F5A05F15
:1059F0000BD001240AE00198002104F033F903E000
:105A00000098022104F0BEF9044694B12646287895
:105A1000C04300062BD4D5F8A000B0F5C04F24D069
:105A200011DC10B3B0F5005F15D0B0F5804F10D188
:105A300016E0D5F89C20D9F8001021F4E05111436C
:105A4000C9F80010E3E7B0F5004F0ED0B0F5204FD5
:105A50000BD001240AE00198002104F003F903E0CF
:105A60000098022104F08EF9044654B126462878A5
:105A7000C04300071ED4D5F88400B0F5805F0AD07B
:105A80000FE0D5F8A020D9F8001021F460411143AF
:105A9000C9F80010EBE70098022104F073F900B197
:105AA0000126D5F88420DAF8001021F44051114382
:105AB000CAF800102878C043C00613D4D5F898005F
:105AC000B0F5807F05D10098022104F05BF900B1A8
:105AD0000126D5F89820D9F8001021F4407111431F
