:020000040800F2
:10000000F01C0020F5020008457600087D6A000813
:10001000E1750008FD500008D39F000800000000B3
:10002000000000000000000000000000F78B000846
:10003000555E000800000000E17600082D920008DF
:100040000F0300080F0300080F0300080F03000848
:100050000F0300080F0300080F0300080F03000838
:100060000F0300080F0300080F0300080F03000828
:100070000F0300080F0300080F0300080F03000818
:100080000F0300080F0300080F0300080F03000808
:100090000F0300080F0300080F0300080F030008F8
:1000A0000F0300080F0300080F0300080F030008E8
:1000B000999200080F0300080F0300080F030008BF
:1000C0000F0300080F0300080F0300080F030008C8
:1000D0000F030008E5990008A59A0008219C000874
:1000E0000F0300080F0300080F0300080F030008A8
:1000F0000F0300080F0300080F0300080F03000898
:100100000F0300080F0300080F0300080F03000887
:10011000219700080F0300080F0300080F030008D1
:100120000F0300080F0300080F0300080F03000867
:100130000F0300080F0300080F0300080F03000857
:100140000F0300080F0300080F0300080F03000847
:100150000F0300080F0300080F0300080F03000837
:100160000F0300080F0300080F0300080F03000827
:100170000F0300080F0300080F0300080F03000817
:100180000F0300080F03000800F002F800F0A2F8C7
:100190000AA090E8000C82448344AAF10107DA45E2
:1001A00001D100F097F8AFF2090EBAE80F0013F092
:1001B000010F18BFFB1A43F001031847ECDC0000E5
:1001C0000CDD00000A4410F8014B14F00F0508BFC5
:1001D00010F8015B240908BF10F8014B6D1E05D013
:1001E00010F8013B6D1E01F8013BF9D1641E03D0EC
:1001F000641E01F8015BFBD19142E4D3704700001B
:100200000023002400250026103A28BF78C1FBD81F
:10021000520728BF30C148BF0B6070476E2900F0FD
:10022000DB82702900F0478666290DF0C3836529BB
:100230000DF0C08367290DF0BD8361290DF0BC83EB
:1002400003681B0A28BF41F08001692900F09A80E9
:10025000642900F09780752900F094806F2900F0E0
:10026000D485782900F01386E92900F06F85E42908
:1002700000F06C85F52900F06985EF2900F0D18543
:10028000F82900F012860368DB0928BF41F08001DD
:10029000632901F03180732901F03680E32901F0F0
:1002A0004180F32901F04680002070471FB50DF012
:1002B0007CFB00F00BFE0400002000210CF014FD7C
:1002C000401C6060002000210CF0F8FCE0601FBDC5
:1002D00010B510BD01F0CCF81146FFF7E7FF0CF0A8
:1002E00017F901F0F3F803B4FFF7F2FF03BC0CF0C9
:1002F0006EF800000948804709480047FEE7FEE71E
:10030000FEE7FEE7FEE7FEE7FEE7FEE7FEE7FEE7C5
:1003100004480549054A064B704700003192000821
:1003200089010008F0160020F01C0020F0180020C1
:10033000F0180020704700007CB51D4616460C00E2
:10034000009001D02044401E074B7B442A4669465A
:100350000190304600F069FC05461CB1002069465A
:1003600000F076FC28467CBD0D0900000FB404495E
:1003700010B503AA029800F079FC10BC5DF814FBDC
:10038000100000202DE9F041064600241068752970
:10039000314616A510D000F08BF9002802DA404251
:1003A00013A507E031688A0701D512A502E04907C5
:1003B00004D511A5012401E000F083F900210A22EF
:1003C00006F1240709E0B0FBF2FCB0FBF2F302FBFC
:1003D0001C00303078541846491C0028F3D12346BD
:1003E0002A463046BDE8F04100F09DB9000000000B
:1003F0002D0000002B000000200000002DE9F05F20
:10040000894604464FF0000ADFF874B1FB44C0F897
:1004100020A02046E1688847002874D0252806D00F
:10042000D4E901219047206A401C2062F1E70026B0
:100430005F462046E16888472028054607DB312DC6
:1004400005D2781910F8200C08B10643F1E7B0077F
:1004500001D526F00406C4F81CA00027C4F818A093
:100460002A2D09D028460BF0ABFF38B304EB8708E0
:10047000303DC8F8185019E059F8041B204604EB29
:1004800087029161E1688847012F054618D1E0692C
:10049000002820DA26F020061DE0D8F8180000EB2E
:1004A000800005EB40003038C8F818002046E168AD
:1004B000884705460BF084FF0028EED1012F0AD0B3
:1004C0002E2D08D12046E16888477F1C0546022F63
:1004D00046F02006C4DBA069002803DA404246F05B
:1004E0000106A061F00701D026F010066C2D0BD09C
:1004F000682D09D04C2D39D06A2D35D0742D35D0CA
:100500007A2D33D016E038E0E1682F462046884740
:10051000B842054609D16C2F26D04FF48060E168BF
:10052000064320468847054604E06C2F1AD04FF456
:10053000807006430DB3A5F14100192802D820357B
:1005400046F400664A462946204626604E46FFF796
:1005500065FE80B101280BD0F61D26F0070000F1E2
:10056000080956E74020E4E78020D8E70020D6E7D6
:1005700006F104094DE7284652E7206ABDE8F09FDE
:10058000B0D6000010B5431C02E010F8011B71B199
:100590008107FAD14FF0013202C88C1A8C4314EA59
:1005A000C211F9D0C01A0A0603D0C01E10BDC01A6D
:1005B00010BD0A0401D0801E10BD0902FCD0401EEF
:1005C00010BD00004FF0013C50F8042B51F8043BE3
:1005D0009A4221D1A2EB0C03934313EACC1317D117
:1005E00050F8042B51F8043B9A4215D1A2EB0C03AE
:1005F000934313EACC130BD150F8042B51F8043B6E
:100600009A4209D1A2EB0C03934313EACC13DBD03B
:100610004FF00000704700BFD01A01BAB1FA81F163
:1006200001F0180122FA01F0CB40C1F12001DBB248
:10063000C0B2C01A2CFA01F3D11A914311EAC311C6
:10064000E6D17047704770477047704710B500F0AB
:1006500041FC006810BD10B5044600F03BFC04608E
:1006600010BD70B5044685690068C10601D5302605
:1006700000E02026C00707D070BDD4E90121304634
:100680009047206A401C20626D1EF6D570BD70B583
:10069000044685690078C00707D170BDD4E90121FF
:1006A00020209047206A401C20626D1EF6D570BD48
:1006B00009684A0501D540B27047C905FCD500B2AA
:1006C000704709684A0501D5C0B27047C905FCD515
:1006D00080B2704770B50C460546012A05D02878CF
:1006E000800600D5EA69002302E0012305E05B1CD7
:1006F000934202D2E05C0028F9D1A869E618C01A3A
:10070000A861286A184428622846FFF7AAFF04E077
:10071000D5E9012114F8010B9047B442F8D32846DB
:10072000FFF7B5FF70BD2DE9F0470D46994692469B
:10073000044600F124080168880604D5E06921F028
:100740001001216000E00120A84201DD471B00E00C
:100750000027A1697A1902EB0900081AA061207824
:10076000C00602D42046FFF77CFF002608E0D4E94B
:1007700001211AF806009047206A401C761C20626E
:100780004E45F4DB2078C0060AD52046FFF769FF06
:1007900006E0D4E9012130209047206A401C206205
:1007A000381EA7F10107F4DC07E0D4E9012118F8AD
:1007B00005009047206A401C2062281EA5F1010513
:1007C000F3DC2046FFF763FF2078000602D5022005
:1007D000BDE8F0870120FBE711680268006A530555
:1007E00001D508700AE0D30501D5088006E013069C
:1007F00003D5C217C1E9000200E00860012070477C
:1008000070472DE9FF4F0C461E464FF0FF378BB067
:10081000D2E90001DDF860800A908A46C1F30A55EA
:1008200005B93D46002108464FF00000BAF1000F1F
:1008300000F4400005DA00EB80004FF4400101EACB
:1008400050004FEA9059B9F1010F00DDB9460A98FE
:1008500050EA4A000ED044F61050A5F2FF35454349
:100860002F14B8F1000F1ED07542291E1EDDC9F1EC
:1008700000021CE0B8F1010F4FF0000001D0302160
:1008800003E0F24305E02154401CB042FBDB30465C
:100890000022002121540B99C1F80880C1E90020F1
:1008A0000FB0BDE8F08FBD1B6D1CDEE74A4600DAD5
:1008B000694206A800F042FD06AB93E8070003ABCF
:1008C00083E8070050460A9900F009FE8DE807000A
:1008D000A0F500501F3800900398002D0ADD42F269
:1008E0001F014A460844002303A90390684601F00B
:1008F00072F809E0A0F500504A461F38002303A90A
:100900000390684601F07CF88DE807000004000CB5
:1009100003D04FF0FF30410800E01046B8F1000F5F
:1009200003D00022009215461EE0751E05D400F08B
:10093000D5FA303262556D1EF9D5B346012208430F
:1009400002D000227F1C04E02078302801D1002250
:100950007F1E002A099784D01DE0112D07DA00F0D0
:10096000BDFA303262556D1C50EA0102F5D10843E0
:1009700002D00098C8B10EE00021681E05E0235C9B
:10098000625C63542254401E491C8142F7DBAB4633
:10099000A81B401E0990002004F80B000B98099A30
:1009A000C0F80880C0E9002B7AE711264FF0000854
:1009B00057E72DE9F04F88460446D21D22F0070183
:1009C00091B0D1E90001CDE90A0109F057FD0246D5
:1009D0000B98C00F01D02D2007E02068810701D5BA
:1009E0002B2002E0202101EAC000032A099001D057
:1009F000072A05DB03464146204600F033FC0BE1A5
:100A00002078800601D5E06900E00620B8F1650F86
:100A1000814606D0B8F1660F18D0B8F1670F70D1D3
:100A200031E00020B9F1110F009001DB112301E04A
:100A300009F101030AAA01A90CA8FFF7E2FEDDE90A
:100A40000C70002609F10105834647E001204B4662
:100A500000904FF000470AAA01A90CA8FFF7D1FEA9
:100A6000DDE90DB00C995D46002610B909F10100D1
:100A70000D18B9EB050003D4C0F1FF3609F10105EB
:100A8000A5EB09002BE0B9F1010F01DA4FF00109E4
:100A90000020B9F1110F0090484601DD112300E05C
:100AA00003460AAA01A90CA8FFF7ABFEDDE90C700A
:100AB0004D4600268346207800070AD4AB4500DA6D
:100AC0005D4601A8012D04DD411911F8011C3029F2
:100AD00007D04F4502DA17F1040F04DA01208246ED
:100AE0000FE06D1EEEE7002F02DCED1B3E4403E03D
:100AF000781CA84200DD7D1CB81B00F1010A4FF0F4
:100B000000472078000703D4AA4501DB4FF0FF3AE5
:100B10000021B7F1004F0DF143088DF8431024D0A8
:100B200002202B23002F01DA7F422D230A21021EEF
:100B3000A0F1010000DC5FB197FBF1FC97FBF1F243
:100B400001FB1C7C17460CF1300C08F801CDEEE7D8
:100B5000A8F1010003702188090501D5452100E0B5
:100B60006521A0F1010800F8011C09980FA9A1EB6B
:100B70000807FF1D00B10120411901EBEA70A169CE
:100B80003844081A401EA0612078C00602D42046CE
:100B9000FFF767FD099828B1D4E901219047206A41
:100BA000401C20622078C00622D52046FFF759FD60
:100BB0001EE0002E04DBB34502DD01A8805D00E0ED
:100BC0003020D4E901219047206A401C2062761C25
:100BD000AAF101005FEA000A0AD100F077F9C068C3
:100BE0000168405CD4E901219047206A401C2062E2
:100BF000281EA5F10105DCDC07E0D4E9012118F885
:100C0000010B9047206A401C2062381EA7F10107A3
:100C1000F3DC2046FFF73BFD032011B041E6000066
:100C200001694A1C02610878704700B58FB0CDE9B0
:100C300001310021059105497944CDE903101146A0
:100C40006846FFF7DBFB0FB000BD0000E5FFFFFFCC
:100C50000A6802F8010B0A607047D1E900239A4242
:100C600002D2531C0B60107070470000074B70B528
:100C70000D467B44FFF7D9FF0446284600F0D0FB21
:100C800010B14FF0FF3070BD204670BD7FB800003E
:100C90002DE9FF5F15468A460446DFF8AC80F8442C
:100CA0000027D8E900103E46CDE9001010E03AF8E0
:100CB00016106A4602A800F0B7FB411C07D0217845
:100CC000890603D5E269391891420DD80744761C8C
:100CD0002078800602D5E069B84205DDAE42E6DB49
:100CE0003AF816000028E2D1A069C01BA061204696
:100CF000FFF7B7FCD8E90010CDE90010002017E09D
:100D00003AF818106A4602A800F08EFBB0F1FF3FD7
:100D100081460BD000250DF1080B05E0D4E9012137
:100D20001BF8050090476D1C4D45F7D308F10100F5
:100D3000B0428046E4DB206A384420622046FFF758
:100D4000A6FCBDE8FF9F00000ECF00002DE9F0419A
:100D50008046D21D22F007020025D2E90002F529C3
:100D600015A614D0011E72F1000106DA0023D0EBA3
:100D7000030063EB020211A608E0D8F800108B070D
:100D800001D50FA602E0490701D50EA6012511469F
:100D9000002408F1240704E000F0A0F830323A55AE
:100DA000641C50EA0102F7D12B46324621464046E8
:100DB000BDE8F041FFF7B7BC000000002D000000C7
:100DC0002B0000002000000030B4002100F12404BA
:100DD00008E002F00705D208303542EA4372DB082A
:100DE0006554491C52EA0305F3D10468002310A29C
:100DF000250707D5A40600D421B1C46901230DA29B
:100E0000641EC46130BCFFF78EBC10B50446214699
:100E10001068FFF756FC02462046BDE8104000234C
:100E2000D2E7D21D22F00701D1E90023CCE7000070
:100E30000000000030000000F0B40D4601880905F4
:100E400002D5214C7C4402E01F4C7C440E3400212E
:100E500000F1240608E002F00F071209E75D42EAFC
:100E600003721B097754491C52EA0307F3D1027835
:100E70000023120704D5702D06D009B102231134C6
:100E80002246F0BCFFF74FBC01231034F8E770B5E1
:100E900004460D4621461068FFF713FC024629461A
:100EA0002046BDE870400023C6E7D21D22F00703AC
:100EB000D3E90023C0E70368126843F0200303600E
:100EC0000823C3610023B7E770CD000000487047D6
:100ED000B0160020004870479016002030B5B0F1E1
:100EE0000A024FEA900E71F100034EEA817EB0EBE8
:100EF0000E0061EB91014FEA101E4EEA017E10EBED
:100F00000E0041EB11114FEA102E4EEA016E10EB6C
:100F10000E0041EB11214FEA104E4EEA014E10EB4C
:100F20000E0041EB1141401841F100014FEAD000A1
:100F300040EA41704FEAD10110EB80054FEA81048D
:100F400044EA907444EB01046D1944EB0404521B11
:100F5000A3414FF0000348BF0A3200D530BD401C0A
:100F600041F1000130BD00002DE9F04F04460D466F
:100F7000D21D22F0070089B0D0E9009748463946D3
:100F800009F07CFA0246F80F01D02D2307E0206813
:100F9000810701D52B2302E0202101EAC0038DF84F
:100FA00020300BB1012000E00020032A824601D04E
:100FB000072A04DB2946204600F054F93FE1207857
:100FC000800601D40D2500E0E569C7F30A560D2D12
:100FD00049DA00214FEA175B08464FF00000002F66
:100FE00000F4400007DA00EB80004FF4400100EB12
:100FF000D07001EA60008115012901DD4FF0FF3159
:1010000000224FEA850CBCF1180F06D31346ACF151
:1010100018004FF08052C24003E04FF4801323FACF
:101020000CF30CF10C0CBCF1200F04D3ACF1200C30
:1010300009FA0CF001E007FA0CF000294FF0004823
:1010400001DD18B90FE00ED140450CD319EB0209B0
:101050005F4121B9404502D19F4329EA0209BBEB18
:10106000175F00D0761C2088000502D57B487844A5
:1010700002E07A487844193808AA302302F80A3086
:10108000037C0AF10101002E0AF1020A53546A4658
:1010900002DC4FF0300101E04FF031014FF0010868
:1010A0008DF8001002D0A6F2FF3603E059EA47019E
:1010B00000D06B4E002D02DC2178090704D54FF0DB
:1010C00002082E218DF80110C44600210BE0C7F361
:1010D00003433F01C35C491C6D1E02F8083005291B
:1010E00008F1010801DA002DF1DC00210CE000EB31
:1010F0001973491C1B786D1E082902F808304FEA45
:10110000091908F1010801DA002DF0DC21688B06CD
:1011100002D516E0A8F10108E04505DD02EB080361
:1011200013F8013C302BF5D0B8F1000F09DD02EBCC
:10113000080313F8013C2E2B03D1090701D4A8F1B1
:101140000108002D05DD3E2102F808106D1E08F192
:101150000108407C002E02F8080008F1010804DABA
:101160002D20764202F8080002E02B2002F8080049
:101170000A214FF47A70864208F101080BDB96FBD6
:10118000F0F3303302F8083096FBF0F308F1010871
:1011900000FB136601E0642E0CDB642096FBF0F389
:1011A000303302F8083096FBF0F308F1010800FB39
:1011B000136601E00A2E06DB96FBF1F0303002F8F0
:1011C000080008F1010896FBF1F001FB10603030D7
:1011D00002F80800A16908F1010808EB050202EB1A
:1011E0000A00081AA0612078C00602D42046FFF742
:1011F00038FA216A08AE01EB0A00206204E0D4E963
:10120000012116F8010B9047BAF1010AF7D22078B4
:10121000C00602D52046FFF724FA6E4609E016F80C
:10122000010B3E280FD0D4E901219047206A401CD1
:101230002062B8F10108F2D22046FFF728FA09B07F
:101240000320BDE8F08F206A2844206203E0D4E93F
:101250000121302090476D1EEBD3F8E741CD00000F
:1012600002FCFFFF2DE9F0411F46044603260168FA
:10127000072A01F4006004DB08B116A505E016A5F5
:1012800003E008B115A500E015A521F010002060CD
:10129000A069C01EA0610FB1401EA0612046FFF7EB
:1012A000E0F94FB1D4E9012138469047206A401C4B
:1012B0002062C01C206206E0206AFAE7D4E901211E
:1012C00015F8010B9047761EF8D22046FFF7DFF99C
:1012D000BDE8F0814E414E006E616E00494E460001
:1012E000696E660010B5436913B1AFF3008001E089
:1012F000FFF7F0F9012010BD127800F124010A7007
:1013000000224A700122EDE711684FF0FF32E9E751
:1013100010B5436913B1AFF3008001E0FFF7B8FCEB
:10132000012010BD128800F1240182840022C284B1
:101330000122EDE711684FF0FF32E9E72DE9F047B0
:10134000814616468AB0354878440DC88DE80D00B0
:1013500032487844801C03AC0DC884E80D0041F687
:101360009B300844372190FBF1F290FBF1F5A5F199
:10137000800501FB12041B3C02D56442012000E001
:101380000020DFF898A080460027FA44AAF1BE0AA0
:101390000EE0E0070AD03246684607EB470101231A
:1013A0000AEB810100F02CFB8DE8070064107F1C24
:1013B000002CEED1194F7F44AE3F19E0E80715D05D
:1013C00007EB04100DF1180A90E80E008AE80E00F1
:1013D000C068F04201D1981908903246012306A94D
:1013E00003A800F00DFB03AB83E807006D10641C3D
:1013F000002DE3D14FF0010332466946B8F1000FEA
:1014000003A802D000F0E7FA01E000F0F9FAC9E918
:101410000001C9F808200AB0BDE8F087F8CA00004A
:10142000007B00F08000704770B516460C460546FC
:1014300000F044F8036893F80101012806D0FF2C5E
:101440000FD8185D68B101202C7070BDD3F807016A
:101450003246214603F2071303442846BDE8704094
:1014600018474FF0FF3070BD0048704790160020BD
:101470007546FFF7F9FFAE4605006946534620F072
:101480000700854618B020B5FEF742FFBDE82040B2
:101490004FF000064FF000074FF000084FF0000B30
:1014A00021F00701AC46ACE8C009ACE8C009ACE8E3
:1014B000C009ACE8C0098D467047000010B5FFF7C1
:1014C00005FD001D10BD00BF21B8000010B5044689
:1014D000AFF300802046BDE81040FEF704BF5FEA8E
:1014E000400C08BF91F0000F4FEA8C234FEAC12255
:1014F00043EA51514FEA1C5018BF00F5F0404FEA43
:10150000300018BF41F000415FEA6C5C00F02980B8
:10151000BCF1FF3F08BF40F080407047130C06BF8E
:1015200012044FF0100C4FF0000C130E04BF120207
:101530000CF1080C130F04BF12010CF1040C930FF3
:1015400004BF92000CF1020CD30F04BF52000CF147
:10155000010C11464FF00002A0F11F00A0EB0C009F
:10156000704711F0004F08BF704731F000413FF461
:10157000D5AF0B0C06BF09044FF0100C4FF0000C58
:101580000B0E04BF09020CF1080C0B0F04BF09017C
:101590000CF1040C8B0F04BF89000CF1020CCB0F73
:1015A00004BF49000CF1010CCCF12003A0EB0C00AE
:1015B00022FA03F302FA0CF241EA030100F10100FE
:1015C000704720F07F4C80EA030023F07F47ACEBAC
:1015D000070303F57C5300F0004003F1FF032DE9FE
:1015E00080494FEA154B09B44FEA144325EA0B4EE4
:1015F00024EA03480FF2042606EB132749083E7835
:101600005FEA320203FB0667C7F5000707FB06F631
:101610004FEA54374FEAD64606F1020607FB066C3E
:10162000CCF1005C4FEA1C472CEA074C07FB06F4A0
:101630000CFB06F504EB15464FEA961634BF002066
:101640004FF000404FEAD13706FB07FC4FEA1C4C35
:101650000CFB0BF7D21B03FB0CF761EB07010CFB38
:101660000EF7B0EB074072EB17420CFB08F734BFE4
:10167000A2EB0742B2EB074261EB17414FEA0C4481
:101680004FEA910706FB07FC4FEA1C4C0CFB0BF7DB
:10169000B0EBC74072EB573203FB0CF734BFA2EB41
:1016A000C742B2EBC74261EB57310CFB0EF7B0EB10
:1016B000C70072EB57720CFB08F734BFA2EBC702EE
:1016C000B2EBC70261EB5771039F4FEA816141EAB8
:1016D000921104EBCC044FEAD1374FEA826206FB49
:1016E00007FC42EA90124FEA80604FEA1C4C0CFB68
:1016F0000BF7D21B03FB0CF761EB07010CFB0EF79A
:10170000B0EB074072EB17420CFB08F734BFA2EBBB
:101710000742B2EB074261EB17414FEA8C554FEAA3
:10172000910704EB9C2406FB07FC4FEA1C4C0CFBC6
:101730000BF7B0EBC74072EB573203FB0CF734BF2B
:10174000A2EBC742B2EBC74261EB57310CFB0EF77D
:10175000B0EBC70072EB57720CFB08F734BFA2EB7B
:10176000C702B2EBC70261EB577115EB4C254FEA8C
:10177000816141EA92114FEA82624FEAD13742EA2F
:10178000901206FB07FC44F100044FEA80604FEA28
:101790001C4C0CFB0BF7D21B03FB0CF761EB070196
:1017A0000CFB0EF7B0EB074072EB17420CFB08F78F
:1017B00034BFA2EB0742B2EB074261EB174115EBD6
:1017C0001C154FEA813141EA92414FEA823242EAE6
:1017D00090424FEA80304FEA0C7644F1000448EA28
:1017E00003434EEA0B484FF0000EB2EB080C71EBCE
:1017F000030724BF624639464EEB0E0E4FF0000B36
:101800000018524149414BEB0B0BB2EB080C71EB4A
:1018100003077BF1000B24BF624639464EEB0E0EE8
:101820004FF0000B0018524149414BEB0B0BB2EB50
:10183000080C71EB03077BF1000B24BF62463946AD
:101840004EEB0E0E51EA020718BF46F0010616EBEA
:101850000E7655F1000254F1000103D5BDE889016F
:10186000BDE80088BDE88901BDE80048B6195241CD
:1018700041EB0101A3F10103704780807F7E7D7CF5
:101880007B7A7978777676757473727171706F6E12
:101890006E6D6C6C6B6A6A696868676666656464BD
:1018A000636362616160605F5F5E5E5D5D5C5C5B47
:1018B0005B5A5A59595858575756565555555454B6
:1018C000535352525251515050504F4F4F4E4E4D14
:1018D0004D4D4C4C4C4B4B4B4A4A4A494949484860
:1018E00048474747474646464545454444444443A0
:1018F00043434342424242414141002B9C4630D443
:1019000077002BD01CB54FEA370703B44FF0100017
:101910004FF01001BAF1000F06D0BCF1000FDCBF90
:1019200040F0080040F008014FF000000FBCBDE897
:1019300010400BF1010BBBF1010F08BF5FEA170765
:1019400022BF12F1010211F101014FF0004143F1F8
:10195000000300F0004043EA00007047F9D3570845
:10196000D0E746EA064613F1400F4FEA16461FDD60
:1019700013F1200FDFBF16430A46002120335B42DC
:10198000BED0C3F1200746EA064602FA07F74FEA3F
:10199000164646EA0706C3F1200722FA03F201FAC7
:1019A00007F721FA03F14FF0000342EA0702A7E725
:1019B00046EA020646EA06464FEA164646EA0106A7
:1019C000BCBF46EA0646360C4FF000034FF000025B
:1019D0004FF0000194E72DE9804C9A46934670B48D
:1019E00091E8380007C831EA400C48BF34EA430C9C
:1019F00003D5FFF7E6FDFFF780FFF0BCBDE8008CE4
:101A00002DE9804C9A46934670B491E8380007C897
:101A100010F0804F08BF13F0804F03D100F005F89D
:101A2000FFF76BFFF0BCBDE8008C20F07F4780EA39
:101A3000030023F07F4C07EB0C03A3F57C5300F06D
:101A40000040A3F1FE0392F0000F00F0B38095F088
:101A5000000F00F077802DE901494FEA11404FEA6D
:101A6000144621EA004800FB06FC24EA064708FB6E
:101A700006F607FB08F800FB07F718EB06484CEBE7
:101A8000164C4FEA124B18EB07484FEA15464CEB41
:101A9000174022EA0B4E0BFB06FC25EA06470EFB1D
:101AA00006F607FB0EFE0BFB07F71EEB064E4CEB94
:101AB000164C4FF000061EEB074E4CEB174B18EB85
:101AC0000B0840F1000018EB0E0B58EB000840F13A
:101AD00000008F1A4FF000013CBFC943661B14BFC2
:101AE000B5EB040C00213CBFC943F61B4FEA174479
:101AF0004EEA8E0E27EA04454FEA1C4704FB0762B4
:101B00002CEA074C05FB07F70CFB05F604FB0CFC65
:101B100016EB074642EB174216EB0C4642EB1C4213
:101B20001BEB060658EB0202414146EA9E0601D530
:101B3000BDE80189B619524141EB0101A3F101034E
:101B4000BDE801894FEA14454FEA114724EA0546EA
:101B500021EA074C05FB07F406FB07F70CFB06F12F
:101B600005FB0CFC11EB074144EB17444FEA12470D
:101B700011EB0C4144EB1C4422EA074C05FB07F235
:101B800006FB07F70CFB06F605FB0CFC16EB0746FD
:101B900042EB174216EB0C4642EB1C456A1854F117
:101BA000000148BF7047B619524141EB0101A3F152
:101BB0000103704795F0000F37D04FEA11424FEA0A
:101BC000144721EA024624EA074C02FB07F106FB10
:101BD00007F70CFB06F402FB0CFC14EB074441EB8B
:101BE00017414FEA154714EB0C4441EB1C4125EA21
:101BF000074C02FB07F506FB07F70CFB06F602FB9A
:101C00000CFC16EB074645EB174516EB0C4645EB6F
:101C10001C42121951F1000148BF7047B6195241D8
:101C200041EB0101A3F1010370474FEA14454FEA6C
:101C3000114724EA054621EA074C05FB07F106FB9C
:101C400007F70CFB06F24FF0000605FB0CFC12EB4D
:101C5000074241EB174112EB0C4251EB1C4148BFCC
:101C60007047921841EB0101A3F101037047000096
:101C70001CB504460121042006F038FC4FF48040D6
:101C8000009000208DF8040003208DF8050002204C
:101C90008DF807006946104804F0E8F90321282070
:101CA00000F032F921462C2000F02EF900212D20E1
:101CB00000F02AF9012C03D10A20084908700AE033
:101CC000022C03D114200549087004E0032C02D132
:101CD0002820024908701CBD000802402100002095
:101CE00010B52DED0A8B04460B222146062000F08C
:101CF000E5F820780003617840EA0110001100B295
:101D00002083B4F9180040F25D71081A00EE100A41
:101D1000F8EEC00A9FED631A80EE810AF3EE090A1D
:101D200030EE200A84ED0E0AA0780006E17840EA41
:101D30000140217940EA01200013E060607900064B
:101D4000A17940EA0140E17940EA012000132061D5
:101D5000207A0006617A40EA0140A17A40EA012037
:101D600000136061504890F900000BF050FA41EC0C
:101D70001A0BE0680BF04BFA41EC1C0B9FED4B0B80
:101D800053EC102B0BF08EF841EC1B0B53EC1A2B81
:101D90000BF0A4FA41EC190B464890ED000B53EC04
:101DA000102B51EC190B0BF099FA41EC180B42482F
:101DB00090ED0C1BB0EE410AF0EE610A53EC102BD3
:101DC00051EC180B0BF096FCC4E90801364890F969
:101DD00000000BF01CFA41EC1A0B20690BF017FA0B
:101DE00041EC1C0B9FED310B53EC102B0BF05AF810
:101DF00041EC1B0B53EC1A2B0BF070FA41EC190B56
:101E00002C4890ED000B53EC102B51EC190B0BF000
:101E100065FA41EC180B284890ED0E1BB0EE410A14
:101E2000F0EE610A53EC102B51EC180B0BF062FC36
:101E3000C4E90A011C4890F900000BF0E8F941ECF4
:101E40001A0B60690BF0E3F941EC1C0B9FED170BCB
:101E500053EC102B0BF026F841EC1B0B53EC1A2B18
:101E60000BF03CFA41EC180B124890ED000B53ECD0
:101E7000102B51EC180B0BF031FA41EC190B0E48FA
:101E800090ED101BB0EE410AF0EE610A53EC102BFE
:101E900051EC190B0BF02EFCC4E90C01BDEC0A8BC4
:101EA00010BD0000CDCC104121000020000000003A
:101EB000A0D21E41B0DA00082016002070B50646F8
:101EC0000C46154600200E49086001200AF096FADB
:101ED000012000EB46010B4806F074FE07E00021EC
:101EE000084806F06FFE2070641C681EC5B2002D05
:101EF000F5DC0120024908600AF080FA70BD00009C
:101F0000B40241420030014070B504460D46002045
:101F10000949086001200AF071FA6100074806F0DB
:101F200051FE2946054806F04DFE01200449C1F83E
:101F3000B4020AF063FA70BDB402414200300140BD
:101F40000000414210B52DED108BB0EE408AF0EE4E
:101F5000608AB0EE419AF0EE619AB0EE42AAF0EEDD
:101F600062AA4B4890ED000B53EC102B51EC1A0B6E
:101F70000BF0B4F941EC1B0B464890ED000B53EC11
:101F8000102B51EC190B0BF0A9F941EC1D0B424839
:101F900090ED000B53EC102B51EC180B0BF09EF94D
:101FA00041EC1E0B53EC1D2B0AF0C0FE41EC1C0B48
:101FB00053EC1B2B0AF0BAFE384A03C2384890EDA6
:101FC000000B53EC102B51EC1A0B0BF087F941EC82
:101FD0001B0B344890ED000B53EC102B51EC190BFC
:101FE0000BF07CF941EC1D0B2F4890ED000B53ECEE
:101FF000102B51EC180B0BF071F941EC1E0B53EC4C
:102000001D2B0AF093FE41EC1C0B53EC1B2B0AF02A
:102010008DFE224AC2E90201244890ED000B53ECE8
:10202000102B51EC1A0B0BF059F941EC1C0B20480A
:1020300090ED000B53EC102B51EC190B0BF04EF9FB
:1020400041EC1E0B1B4890ED000B53EC102B51EC98
:10205000180B0BF043F941EC1F0B53EC1E2B0AF04D
:1020600065FE41EC1D0B53EC1C2B0AF05FFE41ECAE
:102070001B0B114890ED000B53EC102B51EC1B0B7C
:102080000BF038FB054AC2E90401BDEC108B10BD12
:1020900080000020780000207000002088150020BB
:1020A000980000209000002088000020B000002050
:1020B000A8000020A0000020B0DA000810B505F04C
:1020C0004DFC06F009FE10BD00B599B09FEDFE0A6B
:1020D0008DED180A9FEDFC0A8DED170A9FEDFB0AA6
:1020E0008DED160AFA4890ED040B8DED080B9FED6F
:1020F000F91B9DED080B08F053FE8DED0C0BF44819
:1021000090ED020B8DED040B9FEDF21B9DED040B8A
:1021100008F046FE8DED080BED4890ED000B8DEDBF
:10212000040B9FEDEC1B9DED040B08F039FE8DEDCB
:10213000060B9DED080B53EC102B9DED060B51EC9F
:10214000100B0AF0F3FDCDE90A019DED0C0B53ECE9
:10215000102B9DED0A0B51EC100B0AF0E7FDCDE9B9
:102160000E019DED0E0B09F0A7FC8DED100B9FED00
:10217000DB0B53EC102B9DED100B51EC100B0BF007
:10218000ABF97DD29FEDD70B53EC102B9DED100BCF
:1021900051EC100B0BF066F8F3D2CD4890ED020B2A
:1021A0008DED0E0BD14890ED000B53EC102B9DEDF7
:1021B0000E0B51EC100B0BF08FF903D2CB4890EDC6
:1021C000000B02E0C24890ED020BC14880ED020B0B
:1021D000C64890ED000B51EC100B0AF09BFDCDE9C9
:1021E0000E01BB4890ED020B8DED0C0B9DED0C0B21
:1021F00053EC102B9DED0E0B51EC100B0BF06CF90A
:1022000007D2BA4890ED000B51EC100B0AF082FD9A
:1022100002E0AF48C1688068AD4AC2E902011046D9
:1022200090ED0C0B8DED0A0B9FEDB10B53EC102BC9
:102230009DED0A0B51EC100B0BF050F8CDE90E019F
:10224000A34890ED020B8DED060B9DED100B53ECAA
:10225000102B9DED060B51EC100B0AF023FECDE97F
:1022600008019DED080B08F023F98DED0A0B9FED99
:10227000A20B53EC102B9DED0A0B51EC100B00E060
:1022800054E00BF02BF8CDE90C019DED0E0B53EC57
:10229000102B9DED0C0B51EC100B0AF047FD8C4AF6
:1022A000C2E90C01104690ED100B8DED0A0B9FED6D
:1022B000900B53EC102B9DED0A0B51EC100B0BF017
:1022C0000DF8CDE90E01824890ED000B8DED060B67
:1022D0009DED060B51EC100B0AF01CFDCDE9080139
:1022E0007B4890ED040B8DED060B9DED061B9DEDDF
:1022F000080B08F0F9FB8DED0A0B9FED7F0B53ECFB
:10230000102B9DED0A0B51EC100B0AF0E7FFCDE905
:102310000C019DED0E0B53EC102B9DED0C0B51ECB5
:10232000100B0AF003FD6A4AC2E91001684890EDFB
:10233000100B8DED080B9DED080B09F059FB8DED91
:102340000A0B6F4890ED080B8DED080B9DED080B07
:1023500053EC102B9DED0A0B51EC100B0AF0BEFF55
:10236000CDE90E015A4890ED100B8DED080B9DED57
:10237000080B08F0B1FC8DED0A0B614890ED060BDF
:102380008DED080B9DED080B53EC102B9DED0A0B0A
:1023900051EC100B0AF0A2FFCDE90C019DED0E0BE4
:1023A00053EC102B9DED0C0B51EC100B0BF0A2F924
:1023B000CDE91401464890ED100B8DED060B9DED17
:1023C000060B08F089FC8DED0A0B414890ED0C0BD3
:1023D0008DED040B9DED040B09F00AFB8DED060B52
:1023E000474890ED080B8DED040B9DED040B53EC6D
:1023F000102B9DED060B51EC100B0AF06FFFCDE991
:1024000008019DED0A0B53EC102B9DED080B51ECD0
:10241000100B0AF063FFCDE90E012D4890ED0C0B77
:102420008DED040B9DED040B08F056FC8DED060BB5
:10243000334890ED040B8DED040B9DED040B53EC34
:10244000102B9DED060B51EC100B0AF047FFCDE968
:102450000A011F4890ED0C0B8DED020B9DED020B58
:1024600009F0C6FA8DED060B194890ED100B8DEDB5
:10247000000B9DED000B09F0BBFA8DED020B20481F
:1024800090ED060B8DED000B9DED000B53EC102B2A
:102490009DED020B51EC100B0AF020FFCDE9040179
:1024A0009DED060B53EC102B9DED040B51EC100B26
:1024B0000AF014FFCDE908019DED0A0B53EC102B37
:1024C0009DED080B1EE00000CDCC4C3DCDCCCC3DAD
:1024D0008815002000000000000000403333333333
:1024E000333323400000000000002440B0DA00082D
:1024F000000000606666EE3F000000A09999A93FC9
:10250000A002002051EC100B0AF010FCCDE90C01E8
:102510009DED0E0B53EC102B9DED0C0B51EC100BA5
:102520000AF004FCCDE91201FE4890ED0E0B8DED92
:102530000A0B9FEDFD0B53EC102B9DED0A0B51EC9C
:10254000100B0AF0CBFECDE90E019DED121B9DEDA7
:10255000140B08F0C9FA8DED0A0B9FEDF50B53EC47
:10256000102B9DED0A0B51EC100B0AF0B7FECDE9D4
:102570000C019DED0E0B53EC102B9DED0C0B51EC53
:10258000100B0AF0D3FBE74AC2E90E01104690EDAA
:102590000E0B8DED060B9DED060B09F029FA8DED66
:1025A0000A0BE04890ED0C0B8DED020B9DED020B3C
:1025B00009F01EFA8DED060BDA4890ED100B8DED4B
:1025C000020B9DED020B09F013FA8DED040B9DED4E
:1025D000060B53EC102B9DED040B51EC100B0AF085
:1025E0007DFECDE908019DED0A0B53EC102B9DED0E
:1025F000080B51EC100B0AF071FECDE90E01C94831
:1026000090ED0E0B8DED060B9DED060B08F064FBB7
:102610008DED0A0BC34890ED100B8DED060B9DED73
:10262000060B08F059FB8DED080B9DED0A0B53ECE2
:10263000102B9DED080B51EC100B0AF04FFECDE96D
:102640000C019DED0E0B53EC102B9DED0C0B51EC82
:10265000100B0BF04FF8B84A03C2B24890ED0E0BC6
:102660008DED060B9DED060B08F036FB8DED0A0B8C
:10267000AC4890ED0C0B8DED020B9DED020B09F0BB
:10268000B7F98DED060BA74890ED100B8DED020B01
:102690009DED020B09F0ACF98DED040B9DED060BE1
:1026A00053EC102B9DED040B51EC100B0AF016FEB1
:1026B000CDE908019DED0A0B53EC102B9DED080BA5
:1026C00051EC100B0AF00AFECDE90E01954890ED91
:1026D0000E0B8DED060B9DED060B09F089F98DEDC6
:1026E0000A0B904890ED100B8DED060B9DED060B3F
:1026F00008F0F2FA8DED080B9DED0A0B53EC102B50
:102700009DED080B51EC100B0AF0E8FDCDE90C0132
:102710009DED0E0B53EC102B9DED0C0B51EC100BA3
:102720000AF004FB854A03C27E4890ED0C0B8DED48
:102730000A0B9DED0A0B08F0CFFA8DED0E0B7948D0
:1027400090ED100B8DED080B9DED080B09F050F985
:102750008DED0A0B9DED0A0B51EC100B0AF0DAFA25
:10276000CDE90C019DED0E0B53EC102B9DED0C0BE8
:1027700051EC100B0AF0B2FD714A03C2694890EDAA
:102780000E0B8DED0A0B9DED0A0B09F031F98DED65
:102790000E0B644890ED0C0B8DED080B9DED080BB6
:1027A00008F09AFA8DED0A0B9DED0A0B51EC100B17
:1027B0000AF0B0FACDE90C019DED0E0B53EC102B95
:1027C0009DED0C0B51EC100B0AF088FD5D4A03C225
:1027D000544890ED0E0B8DED0A0B9DED0A0B08F0A1
:1027E0007BFA8DED0E0B4F4890ED0C0B8DED0A0B27
:1027F0009DED0A0B08F070FA8DED0C0B9DED0E0BA4
:1028000053EC102B9DED0C0B51EC100B0AF066FDF8
:102810004D4A03C2434890ED0C0B8DED0E0B9DED20
:102820000E0B09F0E5F8494880ED000B3D4890EDAE
:102830000E0B8DED060B9DED060B09F0D9F88DED15
:102840000A0B384890ED0C0B8DED020B9DED020B41
:1028500009F0CEF88DED060B324890ED100B8DEDA2
:10286000020B9DED020B08F037FA8DED040B9DED88
:10287000060B53EC102B9DED040B51EC100B0AF0E2
:102880002DFDCDE908019DED0A0B53EC102B9DEDBC
:10289000080B51EC100B0AF021FDCDE90E01214887
:1028A00090ED0E0B8DED060B9DED060B08F014FA66
:1028B0008DED0A0B1B4890ED100B8DED060B9DED79
:1028C000060B09F095F88DED080B9DED0A0B53EC06
:1028D000102B9DED080B51EC100B0AF0FFFCCDE91D
:1028E0000C019DED0E0B53EC102B9DED0C0B51ECE0
:1028F000100B0AF01BFA164A03C20A4890ED0E0BA1
:102900008DED060B9DED060B08F0E6F98DED0A0B3B
:10291000044890ED0C0B8DED020B9DED020B09F0C0
:1029200067F817E088150020000000C0CCCCEC3F11
:10293000000000A09999B93F700000208800002095
:10294000A00000207800002090000020A8000020B7
:10295000800000208DED060BE94890ED100B8DED09
:10296000020B9DED020B08F0B7F98DED040B9DED08
:10297000060B53EC102B9DED040B51EC100B0AF0E1
:10298000ADFCCDE908019DED0A0B53EC102B9DED3C
:10299000080B51EC100B0AF0A1FCCDE90E01D84850
:1029A00090ED0E0B8DED060B9DED060B09F020F85A
:1029B0008DED0A0BD24890ED100B8DED060B9DEDC1
:1029C000060B09F015F88DED080B9DED0A0B53EC85
:1029D000102B9DED080B51EC100B0AF07FFCCDE99C
:1029E0000C019DED0E0B53EC102B9DED0C0B51ECDF
:1029F000100B0AF07FFEC34A03C2C14890ED0C0BD6
:102A00008DED0A0B9DED0A0B08F066F98DED0E0BAE
:102A1000BB4890ED100B8DED0A0B9DED0A0B08F0F5
:102A20005BF98DED0C0B9DED0E0B53EC102B9DED1A
:102A30000C0B51EC100B0AF051FCB34A03C2B34823
:102A400090ED000B53EC102B9FEDB10B51EC100BE4
:102A50000AF06CF9CDE90801AF4890ED000B53EC9A
:102A6000102B9DED080B51EC100B0AF05FF9CDE92E
:102A70000A01A54890ED000B53EC102B9DED0A0BBD
:102A800051EC100B0AF052F9CDE90C019DED0C0B45
:102A900009F012F88DED0E0B9FEDA00B53EC102BEF
:102AA0009DED0E0B51EC100B0AF018FC9D4A03C271
:102AB000964890ED000B53EC102B9FED950B51ECCD
:102AC000100B0AF033F9CDE90801934890ED000BA3
:102AD00053EC102B9DED080B51EC100B0AF00AFE85
:102AE000CDE90A01884890ED000B53EC102B9DEDC9
:102AF0000A0B51EC100B0AF0FDFDCDE90C019DED28
:102B00000C0B08F0D9FF8DED0E0B9FED840B53ECF1
:102B1000102B9DED0E0B51EC100B0AF0DFFB814AE0
:102B2000C2E90201794890ED000B53EC102B9FEDA8
:102B3000780B51EC100B0AF0DDFDCDE90801764869
:102B400090ED000B53EC102B9DED080B51EC100B8E
:102B50000AF0ECF8CDE90A016B4890ED000B53EC5C
:102B6000102B9DED0A0B51EC100B0AF0C3FDCDE9C3
:102B70000C019DED0C0B08F09FFF8DED0E0B9FEDF2
:102B8000670B53EC102B9DED0E0B51EC100B0AF064
:102B9000A5FB644AC2E904015C4890ED000B53ECCC
:102BA000102B9FED5B0B51EC100B0AF0A3FDCDE950
:102BB0000801594890ED000B53EC102B9DED080BCC
:102BC00051EC100B0AF096FDCDE90A014E4890ED4C
:102BD000000B53EC102B9DED0A0B51EC100B0AF07F
:102BE000A5F8CDE90C019DED0C0B08F065FF8DED0E
:102BF0000E0B9FED4A0B53EC102B9DED0E0B51EC81
:102C0000100B0AF06BFB474AC2E906013D4890ED04
:102C1000000B53EC102B444890ED000B51EC100BC3
:102C20000AF068FD9FED410B53EC102BCDE90E012E
:102C30009DED0E0B51EC100B0AF014FB0DD2394830
:102C400090ED020B8DED0E0B9DED0E0B51EC100B6C
:102C50000AF060F8334AC2E90201364890ED000BF1
:102C600053EC102B344890ED000B51EC100B0AF094
:102C700041FD9FED2E0B53EC102BCDE90E019DED88
:102C80000E0B51EC100B0AF0EDFA0DD2254890ED29
:102C9000040B8DED0E0B9DED0E0B51EC100B0AF09D
:102CA00039F8204AC2E90401244890ED000B53ECA6
:102CB000102B234890ED000B51EC100B0AF01AFD7D
:102CC0009FED1A0B53EC102BCDE90E019DED0E0B71
:102CD00051EC100B0AF0C6FA0DD2124890ED060B1B
:102CE0008DED0E0B9DED0E0B51EC100B0AF012F852
:102CF0000C4AC2E906019DED100B19B000BD0000A1
:102D00008815002098000020B000002070000020EE
:102D1000000000000000F03F9000002000000000D4
:102D20000000E03F70160020A80000200000000016
:102D300000000000A000002080000020780000209B
:102D40008800002010B52DED060BA2B09FEDFE0B04
:102D500053EC102B9DED220B51EC100B0AF0BEFA38
:102D60009FEDFB0B53EC102BCDE910019DED100BEB
:102D700051EC100B0AF096F8CDE91C019FEDF20B17
:102D800053EC102B9DED240B51EC100B0AF0A6FA1E
:102D90009FEDEF0B53EC102BCDE910019DED100BC7
:102DA00051EC100B0AF07EF8CDE91E019FEDE60B09
:102DB00053EC102B9DED260B51EC100B0AF08EFA04
:102DC0009FEDE30B53EC102BCDE910019DED100BA3
:102DD00051EC100B0AF066F8CDE92001DE4890EDC9
:102DE000060B8DED0A0B9DED200B8DED080B9DED77
:102DF0000A0B53EC102B9DED080B51EC100B0AF055
:102E00006DFACDE90E01D44890ED040B8DED060B63
:102E10009DED1E0B8DED040B9DED060B53EC102B61
:102E20009DED040B51EC100B0AF058FACDE90A01A4
:102E30009DED1C0B8DED040B9DED040B51EC100B67
:102E400009F068FFCDE90601C34890ED020B8DED56
:102E5000040B9DED040B53EC102B9DED060B51EC78
:102E6000100B0AF03BFACDE908019DED0A0B53EC7B
:102E7000102B9DED080B51EC100B0AF03BFCCDE93B
:102E80000C019DED0E0B53EC102B9DED0C0B51EC3A
:102E9000100B0AF02FFC9FEDB10B53EC102BCDE97A
:102EA00010019DED100B51EC100B0AF017FACDE953
:102EB0001401A94890ED060B8DED0A0B9DED1E0B3C
:102EC0008DED080B9DED0A0B53EC102B9DED080BBF
:102ED00051EC100B0AF002FACDE90E019E4890ED7C
:102EE000040B8DED060B9DED200B8DED040B9DED80
:102EF000060B53EC102B9DED040B51EC100B0AF05C
:102F0000EDF9CDE90A01944890ED000B8DED060B2B
:102F10009DED1C0B8DED040B9DED060B53EC102B62
:102F20009DED040B51EC100B0AF0D8F9CDE9080126
:102F30009DED0A0B53EC102B9DED080B51EC100B83
:102F400009F0F4FECDE90C019DED0E0B53EC102BB6
:102F50009DED0C0B51EC100B0AF0CCFB9FED7F0BA1
:102F600053EC102BCDE910019DED100B51EC100B23
:102F70000AF0B4F9CDE91601774890ED060B8DED16
:102F80000A0B9DED1C0B8DED080B9DED0A0B53EC10
:102F9000102B9DED080B51EC100B0AF09FF9CDE9B9
:102FA0000E016D4890ED020B8DED060B9DED200B93
:102FB0008DED040B9DED060B53EC102B9DED040BDA
:102FC00051EC100B0AF08AF9CDE90A01624890ED44
:102FD000000B8DED060B9DED1E0B8DED040B9DED95
:102FE000060B53EC102B9DED040B51EC100B0AF06B
:102FF00075F9CDE908019DED0A0B53EC102B9DED01
:10300000080B51EC100B0AF075FBCDE90C019DED9E
:103010000E0B53EC102B9DED0C0B51EC100B09F02B
:1030200085FE9FED4E0B53EC102BCDE910019DED6D
:10303000100B51EC100B0AF051F9CDE9180146487C
:1030400090ED040B8DED0A0B9DED1C0B8DED080B27
:103050009DED0A0B53EC102B9DED080B51EC100B62
:103060000AF03CF9CDE90E013B4890ED020B8DEDE5
:10307000060B9DED1E0B8DED040B9DED060B53EC29
:10308000102B9DED040B51EC100B0AF027F9CDE944
:103090000A01314890ED000B8DED060B9DED200BE4
:1030A0008DED040B9DED060B53EC102B9DED040BE9
:1030B00051EC100B0AF012F9CDE908019DED0A0B55
:1030C00053EC102B9DED080B51EC100B09F02EFE6C
:1030D000CDE90C019DED0E0B53EC102B9DED0C0B6F
:1030E00051EC100B0AF006FB9FED1C0B53EC102B60
:1030F000CDE910019DED100B51EC100B0AF0EEF82C
:10310000CDE91A01174800680AF0DEFBCDE90E018F
:103110009DED140B8DED0C0B9DED0C0B53EC102B5A
:103120009DED0E0B51EC100B0AF0D8F8CDE9100113
:10313000094890ED000B8DED0E0B9DED0E0B53EC41
:10314000102B9DED100B0FE050455254FB21094010
:1031500000000000008066407016002000000000A3
:103160000000E03F5C00002051EC100B09F0DEFD98
:10317000FE4A03C2FE4800680AF0A6FBCDE90E0134
:103180009DED160B8DED0C0B9DED0C0B53EC102BE8
:103190009DED0E0B51EC100B0AF0A0F8CDE91001DB
:1031A000F24890ED020B8DED0E0B9DED0E0B53ECE6
:1031B000102B9DED100B51EC100B09F0B7FDEB4AF5
:1031C000C2E90201EA4800680AF07EFBCDE90E017F
:1031D0009DED180B8DED0C0B9DED0C0B53EC102B96
:1031E0009DED0E0B51EC100B0AF078F8CDE91001B3
:1031F000DE4890ED040B8DED0E0B9DED0E0B53ECA8
:10320000102B9DED100B51EC100B09F08FFDD74AE0
:10321000C2E90401D64800680AF056FBCDE90E0168
:103220009DED1A0B8DED0C0B9DED0C0B53EC102B43
:103230009DED0E0B51EC100B0AF050F8CDE910018A
:10324000CA4890ED060B8DED0E0B9DED0E0B53EC69
:10325000102B9DED100B51EC100B09F067FDC34ACC
:10326000C2E90601104690ED060B8DED0C0B90EDBA
:10327000060B8DED0A0B9DED0C0B53EC102B9DED09
:103280000A0B51EC100B0AF029F8CDE91001B748F0
:1032900090ED040B8DED080B90ED040B8DED060BFE
:1032A0009DED080B53EC102B9DED060B51EC100B14
:1032B0000AF014F8CDE90C01AC4890ED020B8DED4D
:1032C000040B90ED020B8DED020B9DED040B53EC06
:1032D000102B9DED020B51EC100B09F0FFFFCDE917
:1032E0000801A24890ED000B8DED040B90ED000B52
:1032F0008DED020B9DED040B53EC102B9DED020B9D
:1033000051EC100B09F0EAFFCDE906019DED080B29
:1033100053EC102B9DED060B51EC100B09F006FD44
:10332000CDE90A019DED0C0B53EC102B9DED0A0B22
:1033300051EC100B09F0FAFCCDE90E019DED100BDC
:1033400053EC102B9DED0E0B51EC100B09F0EEFC25
:10335000CDE912019DED120B08F0AEFB8DED120BC5
:10336000824890ED000B8DED100B9DED120B53EC90
:10337000102B9DED100B51EC100B09F093FD7B4AC7
:1033800003C27A4890ED020B8DED100B9DED120BF0
:1033900053EC102B9DED100B51EC100B09F082FD3E
:1033A000724AC2E90201104690ED040B8DED100B3C
:1033B0009DED120B53EC102B9DED100B51EC100BEF
:1033C00009F070FD694AC2E90401104690ED060B50
:1033D0008DED100B9DED120B53EC102B9DED100B92
:1033E00051EC100B09F05EFD604AC2E9060110467F
:1033F00090ED060B8DED080B90ED040B8DED060B9B
:103400009DED080B53EC102B9DED060B51EC100BB2
:1034100009F064FFCDE90C01544890ED020B8DEDED
:10342000080B90ED000B8DED060B9DED080B53EC9A
:10343000102B9DED060B51EC100B09F04FFFCDE961
:103440000A019DED0C0B53EC102B9DED0A0B51EC7A
:10345000100B09F06BFC9FED470B53EC102BCDE9E3
:103460000E019DED0E0B51EC100B09F037FFCDE96D
:1034700010019DED100B07F01BF8404880ED0C0B80
:103480003A4890ED060B8DED080B9FED3A1B9DED34
:10349000080B07F085FC8DED0C0B344890ED040B08
:1034A0008DED040B9FED331B9DED040B07F078FCB5
:1034B0008DED080B2D4890ED020B8DED000B9FED6F
:1034C0002D1B9DED000B07F06BFC8DED040B2748C9
:1034D00090ED000B8DED000B9FED261B9DED000B7D
:1034E00007F05EFC8DED020B9DED040B53EC102BF1
:1034F0009DED020B51EC100B0AF0FCF8CDE9060132
:103500009DED080B53EC102B9DED060B51EC100BB1
:1035100009F00CFCCDE90A019DED0C0B53EC102BCE
:103520009DED0A0B51EC100B0AF0E4F8CDE9100107
:103530000E4890ED060B8DED060B90ED000B8DED1A
:10354000040B9DED060B53EC102B9DED040B51EC81
:10355000100B09F0C3FECDE90A01044890ED040BFD
:103560008DED060B90ED020B0AE0000070160020B6
:103570005C000020000000000000004088150020D2
:103580008DED040B9DED060B53EC102B9DED040B04
:1035900051EC100B09F0A2FECDE908019DED0A0BDC
:1035A00053EC102B9DED080B51EC100B0AF0A2F818
:1035B0009FEDFE0B53EC102BCDE90C019DED0C0B98
:1035C00051EC100B09F08AFECDE90E019DED101BA8
:1035D0009DED0E0B07F088FAF64880ED0E0BF648CD
:1035E00090ED060B8DED080B1FED1E1B9DED080BDE
:1035F00007F0D6FB8DED0C0BEF4890ED040B8DED35
:10360000040B1FED241B9DED040B07F0C9FB8DED92
:10361000080BE94890ED020B8DED000B1FED2B1B05
:103620009DED000B07F0BCFB8DED040BE24890ED27
:10363000000B8DED000B1FED311B9DED000B07F016
:10364000AFFB8DED020B9DED040B53EC102B9DEDAC
:10365000020B51EC100B0AF04DF8CDE906019DED7F
:10366000080B53EC102B9DED060B51EC100B0AF0E0
:1036700041F8CDE90A019DED0C0B53EC102B9DEDAB
:103680000A0B51EC100B09F051FBCDE91001CA48AF
:1036900090ED040B8DED060B90ED000B8DED040B02
:1036A0009DED060B53EC102B9DED040B51EC100B14
:1036B00009F014FECDE90A01BF4890ED060B8DED2F
:1036C000060B90ED020B8DED040B9DED060B53ECFC
:1036D000102B9DED040B51EC100B09F0FFFDCDE913
:1036E00008019DED0A0B53EC102B9DED080B51ECDE
:1036F000100B09F0FFFF9FEDAD0B53EC102BCDE944
:103700000C019DED0C0B51EC100B09F0E7FDCDE920
:103710000E019DED101B9DED0E0B07F0E5F9A54880
:1037200080ED100B90ED0E0B8DED080B9DED080B51
:1037300008F05EF98DED0C0B9E4890ED0C0B8DEDB5
:10374000040B9DED040B08F053F98DED080B99481F
:1037500090ED100B8DED040B9DED040B08F048F976
:103760008DED060B9DED080B53EC102B9DED060B1C
:1037700051EC100B09F0B2FDCDE90A019DED0C0BE7
:1037800053EC102B9DED0A0B51EC100B09F0A6FD2C
:10379000CDE91001874890ED0E0B8DED080B9DEDE6
:1037A000080B07F099FA8DED0C0B824890ED100B89
:1037B0008DED080B9DED080B07F08EFA8DED0A0BD1
:1037C0009DED0C0B53EC102B9DED0A0B51EC100BE7
:1037D00009F084FDCDE90E019DED100B53EC102B8B
:1037E0009DED0E0B51EC100B09F084FF734A03C2E0
:1037F000704890ED0E0B8DED080B9DED080B07F05A
:103800006BFA8DED0C0B6B4890ED0C0B8DED040BF2
:103810009DED040B08F0ECF88DED080B654890ED7C
:10382000100B8DED040B9DED040B08F0E1F88DED10
:10383000060B9DED080B53EC102B9DED060B51EC88
:10384000100B09F04BFDCDE90A019DED0C0B53EC7B
:10385000102B9DED0A0B51EC100B09F03FFDCDE94B
:103860001001544890ED0E0B8DED080B9DED080BEB
:1038700008F0BEF88DED0C0B4E4890ED100B8DED61
:10388000080B9DED080B07F027FA8DED0A0B9DED57
:103890000C0B53EC102B9DED0A0B51EC100B09F0A7
:1038A0001DFDCDE90E019DED100B53EC102B9DED90
:1038B0000E0B51EC100B09F039FA414A03C23D4896
:1038C00090ED0C0B8DED0C0B9DED0C0B07F004FA3D
:1038D0008DED100B374890ED100B8DED0A0B9DED23
:1038E0000A0B08F085F88DED0C0B9DED0C0B51ECDF
:1038F000100B09F00FFACDE90E019DED100B53EC02
:10390000102B9DED0E0B51EC100B09F0E7FC2D4A2E
:1039100003C2284890ED0E0B8DED0C0B9DED0C0BAA
:1039200008F066F88DED100B224890ED0C0B8DED34
:103930000A0B9DED0A0B07F0CFF98DED0C0B9DEDF9
:103940000C0B51EC100B09F0E5F9CDE90E019DEDE2
:10395000100B53EC102B9DED0E0B51EC100B09F0DE
:10396000BDFC194A03C2134890ED0E0B8DED0C0BF4
:103970009DED0C0B07F0B0F98DED100B0D4890ED9F
:103980000C0B8DED0C0B9DED0C0B07F0A5F98DEDDF
:103990000E0B9DED100B53EC102B9DED0E0B51EC0F
:1039A000100B09F09BFC094A03C211E00000000063
:1039B000000000C088150020701600207000002054
:1039C00088000020A0000020780000209000002047
:1039D0007E4890ED0C0B8DED100B9DED100B08F05B
:1039E00007F87B4880ED000B784890ED0E0B8DEDCD
:1039F000080B9DED080B07F0FBFF8DED0C0B7348DA
:103A000090ED0C0B8DED040B9DED040B07F0F0FF1A
:103A10008DED080B6D4890ED100B8DED040B9DEDB9
:103A2000040B07F059F98DED060B9DED080B53ECD7
:103A3000102B9DED060B51EC100B09F04FFCCDE95E
:103A40000A019DED0C0B53EC102B9DED0A0B51EC74
:103A5000100B09F043FCCDE910015C4890ED0E0B12
:103A60008DED080B9DED080B07F036F98DED0C0B75
:103A7000564890ED100B8DED080B9DED080B07F0EF
:103A8000B7FF8DED0A0B9DED0C0B53EC102B9DED4C
:103A90000A0B51EC100B09F021FCCDE90E019DED54
:103AA000100B53EC102B9DED0E0B51EC100B09F08D
:103AB0003DF9484A03C2454890ED0E0B8DED080BC9
:103AC0009DED080B07F008F98DED0C0B3F4890EDCC
:103AD0000C0B8DED040B9DED040B07F089FF8DEDB4
:103AE000080B3A4890ED100B8DED040B9DED040B87
:103AF00007F0F2F88DED060B9DED080B53EC102B43
:103B00009DED060B51EC100B09F0E8FBCDE90A0125
:103B10009DED0C0B53EC102B9DED0A0B51EC100B93
:103B200009F0DCFBCDE91001284890ED0E0B8DED7E
:103B3000080B9DED080B07F05BFF8DED0C0B234888
:103B400090ED100B8DED080B9DED080B07F050FF6D
:103B50008DED0A0B9DED0C0B53EC102B9DED0A0B1C
:103B600051EC100B09F0BAFBCDE90E019DED100BE5
:103B700053EC102B9DED0E0B51EC100B09F0BAFD20
:103B8000154A03C2114890ED0C0B8DED0C0B9DED09
:103B90000C0B07F0A1F88DED100B0C4890ED100BFD
:103BA0008DED0C0B9DED0C0B07F096F88DED0E0BCB
:103BB0009DED100B53EC102B9DED0E0B51EC100BEB
:103BC00009F08CFB054A03C228B010BD88150020FF
:103BD000A80000208000002098000020B0000020F5
:103BE00010B503F0BBFE05F077F810BD7CB50546B7
:103BF0000C460121042004F079FC0021084600F065
:103C000033FAB6227E21002000F060FAB622142199
:103C1000002000F05BFA012008F0E3FB00210846D9
:103C200000F022FA00227C21104600F04FFA012019
:103C300008F0D7FBA9224021002000F047FA2A46CD
:103C40004121002000F042FA04227D21002000F0F2
:103C50003DFA22460F21012000F038FA06221021F9
:103C6000012000F033FA2820009000208DF8040095
:103C700003208DF8050002208DF8070069461D48D5
:103C800002F0F4F91DB906201B49088010E0012D4F
:103C900003D10C20184908800AE0022D03D1182016
:103CA0001549088004E0032D02D130201249088014
:103CB000042C03D1FA201149088019E0032C04D107
:103CC0004FF4FA700D49088012E0022C04D14FF431
:103CD0007A700A4908800BE0012C04D14FF4FA6095
:103CE0000649088004E01CB94FF47A600349088053
:103CF0007CBD0000000802402400002026000020B7
:103D000010B52DED0A8B0446062322461221002011
:103D100000F070F92078617840EA012000B2E0807C
:103D2000A078E17840EA012000B220812079617911
:103D300040EA012000B260810223224622210020B5
:103D400000F058F96078217840EA01204011A4F889
:103D50004800B4F9480000EE100AF8EEC00AB4EECC
:103D6000001AB3EE070A00EE810A10EE101A084698
:103D700009F0AAFDC4E9140106232246022101200C
:103D800000F038F92078617840EA012000B22085FF
:103D9000A078E17840EA012000B26085207961795D
:103DA00040EA012000B2A0858B48B0F9000009F07C
:103DB0002EFA41EC1A0BB4F9060009F028FA41EC8E
:103DC0001C0B9FED860B53EC102B09F06BF841ECAC
:103DD0001B0B53EC1A2B09F081FA41EC190B9FEDE8
:103DE000810B53EC102B09F079FA41EC180B7F484A
:103DF00090ED001BB0EE410AF0EE610A53EC102B7F
:103E000051EC180B09F076FCC4E904017248B0F9D2
:103E1000000009F0FCF941EC1A0BB4F9080009F0B4
:103E2000F6F941EC1C0B9FED6D0B53EC102B09F0D8
:103E300039F841EC1B0B53EC1A2B09F04FFA41EC0B
:103E4000190B9FED680B53EC102B09F047FA41EC6E
:103E5000180B664890ED021BB0EE410AF0EE610AC5
:103E600053EC102B51EC180B09F044FCC4E906018B
:103E70005948B0F9000009F0CAF941EC1A0BB4F93D
:103E80000A0009F0C4F941EC1C0B9FED540B53ECF4
:103E9000102B09F007F841EC1B0B53EC1A2B09F01F
:103EA0001DFA41EC190B9FED4F0B53EC102B09F051
:103EB00015FA41EC180B4D4890ED041BB0EE410A89
:103EC000F0EE610A53EC102B51EC180B09F012FCC8
:103ED000C4E908014648B0F9000009F098F941EC3E
:103EE000190BB4F9280009F092F941EC1B0B9FED76
:103EF0003B0B53EC102B08F0D5FF41EC1A0B53ECA5
:103F0000192B09F0EBF941EC180B384890ED061B22
:103F1000B0EE410AF0EE610A53EC102B51EC180B95
:103F200009F0E8FBC4E90C013148B0F9000009F0E0
:103F30006EF941EC190BB4F92A0009F068F941EC6B
:103F40001B0B9FED260B53EC102B08F0ABFF41EC45
:103F50001A0B53EC192B09F0C1F941EC180B23484B
:103F600090ED081BB0EE410AF0EE610A53EC102B05
:103F700051EC180B09F0BEFBC4E90E011C48B0F966
:103F8000000009F044F941EC190BB4F92C0009F0D8
:103F90003EF941EC1B0B9FED110B53EC102B08F07D
:103FA00081FF41EC1A0B53EC192B09F097F941EC06
:103FB000180B0E4890ED0A1BB0EE410AF0EE610AB4
:103FC00053EC102B51EC180B09F094FBC4E91001D1
:103FD000BDEC0A8B10BD0000240000200000000092
:103FE000E0FFEF4005A3923A019D234020160020F8
:103FF000260000202DE9F04104460F4615461E46D6
:104000001CB900201649086003E00020144908315B
:104010000860012008F0F2F947F08001114804F02F
:10402000D1FD1CB900210F4804F0CCFD07E00021B0
:104030000C4804F0C7FD28706D1C701EC6B2002E1F
:10404000F5DC1CB901200649086003E001200449A1
:1040500008310860012008F0D1F9BDE8F0810000C6
:10406000880241420030014070B504460D461CB93B
:1040700000201349086003E000201149083108605E
:1040800045F080010F4804F09DFD1CB900210D484A
:1040900004F098FD00210B4804F094FD0A490870D3
:1040A0001CB901200649086003E0012004490831D9
:1040B0000860012008F0A2F90348007870BD0000F4
:1040C00088024142003001402800002070B50446BB
:1040D0000D4616461CB900200F49086003E0002079
:1040E0000D4908310860012008F088F905F07F01CA
:1040F0000A4804F067FD3146084804F063FD1CB926
:1041000001200549086003E00120034908310860E7
:104110000A2008F073F970BD880241420030014066
:104120002DE9F04F2DED048B87B006460C46B6F80E
:104130000EA0A07B80030FFA80F999FBFAF0A0F59E
:1041400080401FFA80FB0FFA8BF515FB05F7384608
:10415000F91707EB5161C91194F90D2051430691EC
:10416000207BC0010590059815FB00F00490049A8F
:1041700006998818C11700EBD151491201F5801139
:10418000039194F90200A0300290DDE9022101FBC5
:1041900002F0C11700EB115109130191B6F90800A3
:1041A000019900FB01F840464FEAE87108EBD14164
:1041B00049130DB294F9001005EBC100C11700EBD3
:1041C00011710D11284609F022F841EC190B9FEDF1
:1041D0000A0B53EC102B08F065FE41EC180B9FED19
:1041E000080B53EC102B09F079F841EC100B07B0D9
:1041F000BDEC048BBDE8F08F000000000000B04073
:1042000000000000005094402DE9F04F2DED048B8C
:1042100085B006460C46B6F80E90E089800390FB08
:10422000F9F004900498A0F580401FFA80FA0FFA84
:104230008AF515FB05F73846F91707EB5161C911E7
:1042400094F90D2051430391207B4FEAC01B039941
:1042500015FB0B10C11700EBD1514912029194F9D3
:104260000300A0300190029901F58011019A01FB31
:1042700002F0C11700EB115109130091B6F90A00C1
:10428000009900FB01F840464FEAE87108EBD14184
:1042900049130DB294F9011005EBC100C11700EBF1
:1042A00011710D11284608F0B2FF41EC190B9FED7A
:1042B0000A0B53EC102B08F0F5FD41EC180B9FEDA9
:1042C000080B53EC102B09F009F841EC100B05B06A
:1042D000BDEC048BBDE8F08F000000000000B04092
:1042E00000000000005094402DE9F05F2DED048B9C
:1042F00005460C46E889E189401A0FFA80F92189C0
:1043000011FB09F0C11700EB91718E10B5F90C008B
:10431000B4F90A10401AC703A088E98909B2490014
:1043200000FB01F808F50040C11700EB11414FEA0E
:10433000214AB81BB4F90610514490FBF1FB5846D2
:1043400008F065FF41EC190B9FED090B53EC102BA6
:1043500008F0A8FD41EC180B9FED070B53EC102B58
:1043600008F0BCFF41EC100BBDEC048BBDE8F09FE6
:1043700000000000C0FFDF40000000000088B340E4
:1043800010B5012008F03AF882214B2000F04EF9D8
:104390000A2008F026F801214B2000F047F90A20F6
:1043A00008F01FF800214E2000F040F9074800F007
:1043B000DBF81721512000F039F95221084600F0AE
:1043C00035F928214C2000F031F910BDC802002039
:1043D00010B52DED048B044608222146422000F042
:1043E0009DF82078617840EA012000B22081B4F97C
:1043F0000800C0102081A078E17840EA012000B2D6
:104400006081B4F90A00C01060812079617940EAC6
:10441000012000B2A081B4F90C004010A081A07965
:10442000E17940EA01208010E0813A492046FFF717
:1044300077FEB0EE409AF0EE609A374890ED001BA0
:10444000B0EE410AF0EE610A53EC102B51EC190B5F
:1044500009F050F941EC180B2F4890ED061BB0EE17
:10446000410AF0EE610A53EC102B51EC180B08F0E6
:1044700035FFC4E9040127492046FFF7C5FEB0EE29
:10448000409AF0EE609A244890ED021BB0EE410A8B
:10449000F0EE610A53EC102B51EC190B09F02AF9DC
:1044A00041EC180B1C4890ED081BB0EE410AF0EEF1
:1044B000610A53EC102B51EC180B08F00FFFC4E904
:1044C000060114492046FFF70FFFB0EE409AF0EEC8
:1044D000609A114890ED041BB0EE410AF0EE610ABB
:1044E00053EC102B51EC190B09F004F941EC180BAB
:1044F000094890ED0A1BB0EE410AF0EE610A53EC58
:10450000102B51EC180B08F0E9FEC4E90801BDECD2
:10451000048B10BDC8020020D802002070B50646EA
:104520000C46154600200E490860012007F066FF82
:1045300046F080010B4804F045FB07E000210948E4
:1045400004F040FB2070641C681EC5B2002DF5DC31
:104550000120034908600A2007F050FF70BD0000E9
:10456000800241420030014030B585B00446002051
:104570000490039000900190029000254FF47A700F
:1045800007F02FFF022204A95D20FFF7C7FF0422D6
:1045900003A96220FFF7C2FF0A2269466820FFF7DD
:1045A000BDFF9DF8100040B220709DF8110040B290
:1045B00060709DF80E0040B2A0709DF80F0040B2F0
:1045C000E0709DF8030005029DF802002843A080DA
:1045D0009DF8010005029DF80000284300B2E0802C
:1045E0009DF8070005029DF80600284300B22081CF
:1045F0009DF80D0005029DF80C00284300B2608173
:104600009DF8090020739DF8080040B260739DF882
:10461000050000F07F004FF6FF7101EA00259DF8CC
:1046200004002843E08105B030BD000070B50446A9
:104630000D4600200A490860012007F0DFFE04F063
:104640007F01084804F0BEFA2946064804F0BAFA89
:1046500001200549C1F880020A2007F0CFFE70BD95
:1046600080024142003001400000414230B52DED52
:10467000048B87B004460D46152201A9312000F0B5
:1046800009FC9DF804009DF8051040EA01202080F7
:104690009DF806009DF8071040EA012060809DF813
:1046A000080040B220719DF809009DF80A1040EA08
:1046B000012000B2E0809DF80B009DF80C1040EA4C
:1046C000012000B220819DF80D0040B2A0729DF83B
:1046D0000E0040B2E0729DF80F009DF8101040EA05
:1046E0000120A0819DF811009DF8121040EA0120E0
:1046F000E0819DF8130040B220749DF8140040B290
:1047000060749DF815009DF8161040EA012000B273
:1047100060829DF8170040B220759DF8180040B2E5
:1047200060759FED800BB0EE408AF0EE608A2088C5
:1047300008F084FD41EC190B53EC182B08F0B2FB88
:10474000C5E900019FED790BB0EE408AF0EE608A7A
:10475000608808F073FD41EC190B53EC182B08F03E
:10476000A1FBC5E902019FED730BB0EE408AF0EEAC
:10477000608A94F9040008F04AFD41EC190B53ECEF
:10478000182B08F08FFBC5E904019FED6C0BB0EE10
:10479000408AF0EE608AB4F90610A1F5804008F076
:1047A00036FD41EC190B53EC182B08F07BFBC5E9E7
:1047B00006019FED640BB0EE408AF0EE608AB4F91A
:1047C0000810A1F5804008F022FD41EC190B53ECD4
:1047D000182B08F067FBC5E908019FED5C0BB0EEF4
:1047E000408AF0EE608A94F90A0008F010FD41EC6E
:1047F000190B53EC182B08F055FBC5E90A019FED86
:10480000550BB0EE408AF0EE608A94F90B0008F088
:10481000FEFC41EC190B53EC182B08F043FBC5E9E7
:104820000C019FED4E0BB0EE408AF0EE608AA0893D
:1048300008F004FD41EC190B53EC182B08F032FB87
:10484000C5E90E019FED470BB0EE408AF0EE608A9D
:10485000E08908F0F3FC41EC190B53EC182B08F03D
:1048600021FBC5E910019FED410BB0EE408AF0EE4F
:10487000608A94F9100008F0CAFC41EC190B53EC63
:10488000182B08F00FFBC5E912019FED3A0BB0EEB3
:10489000408AF0EE608A94F9110008F0B8FC41EC0F
:1048A000190B53EC182B08F0FDFAC5E914019FED24
:1048B000210BB0EE408AF0EE608AB4F9120008F0E5
:1048C000A6FC41EC190B53EC182B08F0EBFAC5E9E8
:1048D00016019FED180BB0EE408AF0EE608A94F955
:1048E000140008F094FC41EC190B53EC182B08F061
:1048F000D9FAC5E918019FED210BB0EE408AF0EE20
:10490000608A94F9150008F082FC41EC190B53EC15
:10491000182B08F0C7FAC5E91A0107B0BDEC048BE3
:1049200030BD0000000000000000703F00000000EB
:104930000000D041000000000000F0420000000034
:1049400000003041000000000000C04100000000F5
:104950000000F041000000000000404200000000A4
:104960000000C03F000000000000504000000000B8
:1049700000007040000000000000E0400000000067
:104980000000004410B514491448FFF76FFEB6212B
:104990007E2000F033FB012007F023FD01211C20C5
:1049A00000F02CFB01211D2000F028FB02211F201C
:1049B00000F024FB33211B2000F020FB142007F023
:1049C00010FD9FED070B084880ED000B00F06CF820
:1049D000054880ED000B10BDF8030020E003002027
:1049E00000000000000000003000002010B52DED98
:1049F0000C8B9FED260BB0EE408AF0EE608A9FEDA7
:104A0000250BB0EE40AAF0EE60AA53EC1A2B51EC45
:104A1000180B08F08BF941EC1B0B53EC1B2B51ECE2
:104A2000180B08F03FFA41EC190B53EC192B9FEDD2
:104A30001B0B51EC100B08F05DFE41EC1D0B1948EF
:104A400090ED201BB0EE410AF0EE610A53EC102B02
:104A500051EC1D0B08F042FC41EC1B0B00F024F85C
:104A6000B0EE40DAF0EE60DA53EC192B51EC1D0B8E
:104A700008F034FC41EC1C0B53EC1B2B08F056F9EE
:104A800041EC100BBDEC0C8B10BD00007B14AE474D
:104A9000E17A843F9A9999999999B93F0000000069
:104AA0000000F03F8815002010B52DED0C8B2B4831
:104AB00000F06EF82A4890ED000B53EC102B9FEDA0
:104AC000290B51EC100B08F0EDF941EC1C0B2348BD
:104AD00090ED041BB0EE410AF0EE610A9FED231B3E
:104AE00053EC112B51EC100B08F0DCF941EC1D0BD1
:104AF000B0EE4C1AF0EE6C1AB0EE4D0AF0EE6D0A04
:104B000006F04EF9B0EE40BAF0EE60BA9FED190B28
:104B100053EC102B51EC1B0B08F014FD41EC1A0B5D
:104B20009FED160B53EC102B08F0D8FB41EC190B42
:104B30009FED140B53EC102B08F0B4F941EC180B5B
:104B4000124890ED000B53EC102B51EC180B08F0B1
:104B5000D1FD41EC100BBDEC0C8B10BD700400209E
:104B6000B0DA000823C95AE07EDAFD3F00000000F9
:104B7000D0BCF840000000000000F03F66666666AA
:104B80006602724039B4C876BE9F7A3F300000207A
:104B900010B52DED108B84B00446204600F0CAF904
:104BA00000BF032000F09EF900200028F9D1032265
:104BB0002146042000F06EF9A0780004617840EAF4
:104BC0000120217808436060AD4890ED1C2BB0EEC9
:104BD000420AF0EE620A90ED102BB0EE421AF0EEAF
:104BE000621A53EC102B51EC110B08F077FB41ECDF
:104BF000180BA34890ED1C1BB0EE410AF0EE610AC1
:104C00009FEDA01B06F0CCF8B0EE40CAF0EE60CAF3
:104C10009B4890ED121BB0EE410AF0EE610A53EC96
:104C2000102B51EC1C0B08F059FB41EC190B94486C
:104C300090ED1C1BB0EE410AF0EE610A9FED931B54
:104C400006F0AEF8B0EE40CAF0EE60CA8C4890EDC7
:104C5000141BB0EE410AF0EE610A53EC102B51EC3C
:104C60001C0B08F03BFB41EC1A0B854890ED0E1B2A
:104C7000B0EE410AF0EE610A53EC182B51EC100B28
:104C800008F054F841EC1D0B53EC192B08F04EF8CA
:104C900041EC1C0B53EC1A2B08F048F8CDE902014B
:104CA000774890ED1C2BB0EE420AF0EE620A90EDD0
:104CB000082BB0EE421AF0EE621A53EC102B51ECB6
:104CC000110B08F00BFB41EC180B6D4890ED1C1B11
:104CD000B0EE410AF0EE610A9FED6A1B06F060F843
:104CE000B0EE40CAF0EE60CA654890ED0A1BB0EE27
:104CF000410AF0EE610A53EC102B51EC1C0B08F04A
:104D0000EDFA41EC190B5E4890ED1C1BB0EE410A28
:104D1000F0EE610A9FED5D1B06F042F8B0EE40CA6E
:104D2000F0EE60CA564890ED0C1BB0EE410AF0EE72
:104D3000610A53EC102B51EC1C0B08F0CFFA41EC3C
:104D40001A0B4F4890ED061BB0EE410AF0EE610AD7
:104D500053EC182B51EC100B07F0E8FF41EC1F0B44
:104D600053EC192B07F0E2FF41EC1E0B53EC1A2B0E
:104D700007F0DCFF41EC1C0B606808F048FA41ECDE
:104D80001D0B53EC1C2B08F0A9FACDE9000160685B
:104D900008F03DFA41EC1C0B9FED3A1BB0EE4C0ABB
:104DA000F0EE6C0A05F0FCFFB0EE408AF0EE608A8F
:104DB000334890ED1C2BB0EE420AF0EE620A90ED03
:104DC000182BB0EE421AF0EE621A53EC102B51EC95
:104DD000110B08F083FA41EC1C0B294890ED161BCF
:104DE000B0EE410AF0EE610A53EC102B51EC1C0BB3
:104DF00007F09CFF41EC190B53EC192B51EC180BED
:104E000008F06CFA41EC1A0B606808F000FA41EC0B
:104E10001E0B9FED1E1BB0EE4E0AF0EE6E0A05F063
:104E2000BFFFB0EE40DAF0EE60DA154890ED1A1BE5
:104E3000B0EE410AF0EE610A53EC102B51EC1D0B61
:104E400008F04CFA41EC1C0B53EC1A2B07F06EFFE8
:104E500041EC1B0B9DED000B53EC102B9DED020B59
:104E600051EC100B07F062FF41EC1C0B53EC1B2BB9
:104E700007F05CFFC4E9040104B0BDEC108B10BD69
:104E8000F8030020000000000000004000000000C7
:104E90000000084070B506460C46154600200F4934
:104EA0000860012007F0AAFA46F080010C4803F0E0
:104EB00089FE00210A4803F085FE07E0002108482A
:104EC00003F080FE2070641C681EC5B2002DF5DC66
:104ED00001200249086007F091FA70BD8402414246
:104EE0000030014010B5044600200E490860012042
:104EF00007F084FA44F080010B4803F063FE0021C0
:104F0000094803F05FFE0021074803F05BFE0749F4
:104F1000087001200649C1F8840207F06FFA0348BF
:104F2000007810BD8402414200300140380000206A
:104F30000000414210B52DED088B044600BF032050
:104F4000FFF7D0FF00200028F9D1032221460720D7
:104F5000FFF7A0FFA0780004617840EA01202178E3
:104F600008436060606808F052F941EC1A0B22486F
:104F700090ED001BB0EE410AF0EE610A53EC102BED
:104F800051EC1A0B08F0B6FB41EC180B1A4890EDE7
:104F9000021BB0EE410AF0EE610A53EC102B51EC0B
:104FA000180B08F09BF941EC190B53EC182B51EC42
:104FB000180B08F093F941EC1B0B0F4890ED041B04
:104FC000B0EE410AF0EE610A53EC102B51EC1B0BD2
:104FD00008F084F941EC1A0B53EC192B07F0A6FEEC
:104FE000054AC2E91C01104690ED1C0B84ED020B32
:104FF000BDEC088B10BD0000F803002070B504461E
:105000000D4600BF0320FFF76DFF00F010000028E1
:10501000F8D0012007F0F2F900200A4908600120C9
:1050200007F0ECF904F07F01074803F0CBFD2946B7
:10503000054803F0C7FD01200449C1F8840207F0C8
:10504000DDF970BD84024142003001400000414260
:1050500010B58AB004460121022003F047FA01216D
:10506000042003F053FA4FF48070089002208DF86A
:10507000240003208DF8250000208DF82600022052
:105080008DF8270008A91B4800F0F0FF0222082134
:10509000184801F033F8D120ADF814000020ADF825
:1050A000160040F2E73006900020ADF81C0005A97C
:1050B000114804F0F3FA6020ADF800000120ADF8CB
:1050C00002000020ADF80C0069460B4804F038FAE5
:1050D0000821094804F084FA0121074804F050F936
:1050E0002146054804F05EF95021034804F0CFFA48
:1050F0000AB010BD000402400008004000BFFEE7F7
:1051000010B5044686A12046FBF75CFA28B90120B9
:105110008649087003F0E0FD00E185A12046FBF719
:1051200051FA28B90A208149087003F0D5FDF5E04D
:1051300082A12046FBF746FA28B920207B49087057
:1051400003F0CAFDEAE080A12046FBF73BFA18B95C
:105150001E2076490870E1E081A12046FBF732FA73
:1051600018B91F2071490870D8E083A12046FBF7C9
:1051700029FA10B903F0DAFDD0E082A12046FBF74E
:1051800021FA10B905F03CF8C8E083A12046FBF7EE
:1051900019FA10B904F0DAFFC0E083A12046FBF74A
:1051A00011FA48B900208449086004F0A9FF0120E1
:1051B0008249C1F8AC02B1E081A12046FBF702FAB6
:1051C00010B902F0CBFBA9E07FA12046FBF7FAF96A
:1051D00028B9462055490870FEF702FD9EE080A1DF
:1051E0002046FBF7EFF928B9492050490870FEF72F
:1051F000F7FC93E081A12046FBF7E4F928B94820A9
:105200004A490870FCF75AFF88E083A12046FBF763
:10521000D9F928B94A204549087004F057FF7DE0C4
:1052200083A12046FBF7CEF928B94B203F490870EF
:1052300002F0D2FA72E084A12046FBF7C3F918B954
:105240006A203A49087069E083A12046FBF7BAF961
:1052500018B96B203549087060E083A12046FBF740
:10526000B1F910B900F010FE58E084A12046FBF718
:10527000A9F928B964202D49087000F0C3FD4DE05C
:1052800082A12046FBF79EF938B9652027490870AE
:105290004FF4803000F0CAFC40E07FA12046FBF7CD
:1052A00091F928B914202149087001F0E9FB35E093
:1052B0007CA12046FBF786F910B902F0CBFA2DE06D
:1052C0007CA12046FBF77EF910B902F0ABFA25E08D
:1052D0007CA12046FBF776F928B9662013490870AF
:1052E00000F00EFC1AE07BA12046FBF76BF910B929
:1052F00000F0ECFB12E07CA12046FBF763F910B94B
:1053000002F070F90AE07CA12046FBF75BF910B9C6
:1053100002F080F902E000200449087010BD00008E
:10532000424D495F544553540000000040000020A6
:105330004144584C5F54455354000000424D4D5F6A
:1053400054455354000000004D61676E65746973E5
:105350006D4F66667365745F494E495400000000E6
:105360004D61676E657469736D4F66667365745FD2
:1053700053544F500000000053616D706C655F53D3
:10538000544F5000573235515F44617461436F6E22
:1053900073756C7400000000573235515F446174BE
:1053A00061436C6561720000573235515F43686933
:1053B0007045726173650000AC02404200004042DB
:1053C000515F494E495400004174746974756465B5
:1053D000536F6C7574696F6E5F54455354000000D1
:1053E0004174746974756465436F6D70656E736143
:1053F00074696F6E5F5445535400000041636365E8
:105400006C65726174696F6E536F6C7574696F6EE1
:105410005F5445535400000056656C6F636974799E
:10542000536F6C7574696F6E5F5445535400000080
:10543000506F736974696F6E536F6C7574696F6EBA
:105440005F54455354000000494D554F66667365DF
:10545000745F494E49540000494D554261636B4F9A
:105460006666736574000000464D554F6666736549
:10547000745F4445494E4954000000004461746122
:105480005F53544F5241474500000000446174612E
:105490005F524541440000004865696768745F5485
:1054A00045535400506F736974696F6E5F494E497C
:1054B00054000000506F736974696F6E5F44454912
:1054C0004E495400436F6E74726F6C5F5354415277
:1054D00054000000436F6E74726F6C5F454D45520F
:1054E00047454E43590000004D6F746F7243616C25
:1054F0005F535441525400004D6F746F7243616C9E
:105500005F53544F5000000010B52DED108BFE4836
:1055100090ED201BB0EE410AF0EE610A53EC102B27
:105520009FEDFA1B51EC110B08F0E4F8F94A03C2A5
:10553000F948006808F0C8F941EC190BF54890EDFE
:10554000000B53EC102B51EC190B07F0C7FE41EC8C
:10555000180BF24890ED000B53EC102B51EC180B8C
:1055600007F0E4FBED4A03C2EB48006808F0ACF931
:1055700041EC180BEA4890ED000B53EC102BE5487A
:1055800090ED000B51EC100B08F0B4F841EC190B46
:1055900053EC182B07F086FCE24A03C2DD4890ED7D
:1055A000000BDF4880ED000BD74890ED0C1BB0EEF0
:1055B000410AF0EE610A05F08FFBB0EE40AAF0EE72
:1055C00060AAD14890ED101BB0EE410AF0EE610ADE
:1055D00005F082FBB0EE40BAF0EE60BA53EC1A2B45
:1055E00051EC1B0B07F07AFE41EC180BCE4890ED06
:1055F000000B53EC102B9FEDC50B51EC100B07F07B
:105600006DFE41EC1A0BC74890ED000B53EC102BCC
:105610009FEDC60B51EC100B07F060FE41EC1C0B2C
:10562000BE4890ED000B53EC102B9FEDC20B51ECDC
:10563000100B07F053FE41EC1E0BB64890ED000B2B
:1056400053EC102B9FEDBD0B51EC100B07F046FEF9
:1056500041EC1F0B53EC1E2B07F068FB41EC1D0BBC
:1056600053EC1C2B07F062FB41EC1B0B53EC1A2B89
:1056700007F05CFB41EC190B53EC182B07F012FC04
:10568000B04A03C2A04890ED0C1BB0EE410AF0EE08
:10569000610A51EC100B07F03DFBAB4A03C29E4878
:1056A000006808F011F941EC190BA74890ED000BC8
:1056B00053EC102B51EC190B07F010FE41EC180BBA
:1056C000A24890ED000B53EC102B51EC180B07F097
:1056D0002DFB9E4A03C29048006808F0F5F841ECA3
:1056E000190B9B4890ED000B53EC102B964890ED56
:1056F000000B51EC100B07F0FDFF41EC180B53ECC5
:10570000192B07F0CFFB934A03C28F4890ED000B93
:105710008F4880ED000B8F4890ED000B53EC102B61
:105720009FED840B51EC100B07F0D8FD41EC180BEA
:10573000864890ED000B53EC102B9FED870B51EC3E
:10574000100B07F0CBFD41EC1A0B7F4890ED000BDE
:1057500053EC102B9FED6D0B51EC100B07F0BEFDC1
:1057600041EC1B0B53EC1A2B07F0E0FA41EC190B40
:1057700053EC182B07F0DAFA794A03C2624890ED2D
:10578000101BB0EE410AF0EE610A51EC100B07F06D
:10579000C1FA744A03C26048006808F095F841EC09
:1057A000190B704890ED000B53EC102B51EC190BBA
:1057B00007F094FD41EC180B6B4890ED000B53EC97
:1057C000102B51EC180B07F0B1FA674A03C252488C
:1057D000006808F079F841EC190B644890ED000B73
:1057E00053EC102B5F4890ED000B51EC100B07F0C1
:1057F00081FF41EC180B53EC192B07F053FB5C4A6B
:1058000003C2584890ED000B584880ED000B5848F3
:1058100090ED000B53EC102B9FED4F0B51EC100B48
:1058200007F05CFD41EC180B4F4890ED000B53EC7A
:10583000102B9FED490B51EC100B07F04FFD41EC85
:105840001A0B484890ED000B53EC102B9FED2F0BDB
:1058500051EC100B07F042FD41EC1B0B53EC1A2BE3
:1058600007F064FA41EC190B53EC182B07F05EFAC1
:10587000404A03C29FED310B53EC102B3D4890ED95
:10588000000B51EC100B07F00DFB41EC180B9FEDDA
:105890002B0B53EC102B324890ED000B51EC100BFE
:1058A00007F000FB41EC1A0B9FED240B53EC102B7F
:1058B000244890ED000B51EC100B07F0F3FA41EC8B
:1058C0001B0B53EC1A2B07F031FA41EC190B53EC7C
:1058D000182B07F00FFF284A03C29FED180B53EC5B
:1058E000102B244890ED000B51EC100B07F0DAFA66
:1058F00041EC180B9FED110B53EC102B184890ED59
:10590000000B51EC100B39E088150020000000005E
:105910000000F03FD00000205C000020D8000020F4
:10592000B8000020E0000020B0DA00089A999999A8
:105930009999C93F0000000000000000000000002D
:105940000000104018010020E8000020F0000020B6
:10595000C0000020F8000020000000000000E03F30
:10596000200100200001002008010020C8000020C4
:1059700010010020280100203001002007F092FAD9
:1059800041EC1A0B1FED130B53EC102B484890ED14
:10599000000B51EC100B07F085FA41EC1B0B53EC9C
:1059A0001A2B07F0C3F941EC190B53EC182B07F035
:1059B000BDF9404A03C21FED1F0B53EC102B3E48AC
:1059C00090ED000B51EC100B07F06CFA41EC180B4A
:1059D0001FED260B53EC102B384890ED000B51ECCB
:1059E000100B07F05FFA41EC1A0B1FED2C0B53EC78
:1059F000102B2F4890ED000B51EC100B07F052FAD2
:105A000041EC1B0B53EC1A2B07F074FE41EC190B05
:105A100053EC182B07F08AF9294A03C21FED390B02
:105A200053EC102B244890ED000B51EC100B07F0B9
:105A300039FA41EC180B1FED3F0B53EC102B1F48AC
:105A400090ED000B51EC100B07F02CFA41EC1A0B07
:105A50001FED460B53EC102B154890ED000B51EC4D
:105A6000100B07F01FFA41EC1B0B53EC1A2B07F03D
:105A700041FE41EC190B53EC182B07F03BFE114A89
:105A800003C2114890ED000B03F092F90C4890ED21
:105A9000000B03F0FFF90A4890ED000B03F06CFADD
:105AA000084890ED000B03F0D9FABDEC108B10BD47
:105AB00018010020380100202801002020010020CA
:105AC00040010020480100203001002010B503F003
:105AD0002DF94FF47A71094803F0D5FD4FF47A712E
