:020000040800F2
:10000000981C0020D50200087D71000811660008C8
:100010001971000835520008DD9B0008000000003F
:1000200000000000000000000000000053890008EC
:100030005D59000800000000F9740008D58C000824
:10004000EF020008EF020008EF020008EF020008CC
:10005000EF020008EF020008EF020008EF020008BC
:10006000EF020008EF020008EF020008EF020008AC
:10007000EF020008EF020008EF020008EF0200089C
:10008000EF020008EF020008EF020008EF0200088C
:10009000EF020008EF020008EF020008EF0200087C
:1000A000EF020008EF020008EF020008EF0200086C
:1000B000418D0008EF020008EF020008EF0200087F
:1000C000EF020008EF020008EF020008EF0200084C
:1000D000EF0200088D940008F9950008CD970008FC
:1000E000EF020008EF020008EF020008EF0200082C
:1000F000EF020008EF020008EF020008EF0200081C
:10010000EF020008EF020008EF020008EF0200080B
:10011000C9910008EF020008EF020008EF02000892
:10012000EF020008EF020008EF020008EF020008EB
:10013000EF020008EF020008EF020008EF020008DB
:10014000EF020008EF020008EF020008EF020008CB
:10015000EF020008EF020008EF020008EF020008BB
:10016000EF020008EF020008EF020008EF020008AB
:10017000EF020008EF020008EF020008EF0200089B
:10018000EF020008EF02000800F002F800F092F819
:100190000AA090E8000C82448344AAF10107DA45E2
:1001A00001D100F087F8AFF2090EBAE80F0013F0A2
:1001B000010F18BFFB1A43F0010318477CD8000059
:1001C0009CD80000103A24BF78C878C1FAD85207EA
:1001D00024BF30C830C144BF04680C6070470000C1
:1001E0000023002400250026103A28BF78C1FBD840
:1001F000520728BF30C148BF0B6070476E2900F01E
:10020000DB82702900F0478666290DF09B81652905
:100210000DF0988167290DF0958161290DF0948189
:1002200003681B0A28BF41F08001692900F09A8009
:10023000642900F09780752900F094806F2900F000
:10024000D485782900F01386E92900F06F85E42928
:1002500000F06C85F52900F06985EF2900F0D18563
:10026000F82900F012860368DB0928BF41F08001FD
:10027000632901F03180732901F03680E32901F010
:100280004180F32901F04680002070471FB50DF032
:1002900054F900F00BFE0400002000210CF0ECFAF1
:1002A000401C6060002000210CF0D0FAE0601FBD0F
:1002B00010B510BD01F0CCF81146FFF7E7FF0BF0C9
:1002C00023FF01F0F3F803B4FFF7F2FF03BC0BF0D8
:1002D0007AFE00000948804709480047FEE7FEE72C
:1002E000FEE7FEE7FEE7FEE7FEE7FEE7FEE7FEE7E6
:1002F00004480549054A064B70470000D98C0008A0
:100300008901000898160020981C002098180020E9
:1003100098180020704700007CB51D4616460C005A
:10032000009001D02044401E074B7B442A4669467A
:100330000190304600F069FC05461CB1002069467A
:1003400000F076FC28467CBD0D0900000FB404497E
:1003500010B503AA029800F079FC10BC5DF814FBFC
:10036000100000202DE9F041064600241068752990
:10037000314616A510D000F08BF9002802DA404271
:1003800013A507E031688A0701D512A502E04907E5
:1003900004D511A5012401E000F083F900210A220F
:1003A00006F1240709E0B0FBF2FCB0FBF2F302FB1C
:1003B0001C00303078541846491C0028F3D12346DD
:1003C0002A463046BDE8F04100F09DB9000000002B
:1003D0002D0000002B000000200000002DE9F05F40
:1003E000894604464FF0000ADFF874B1FB44C0F8B8
:1003F00020A02046E1688847002874D0252806D030
:10040000D4E901219047206A401C2062F1E70026D0
:100410005F462046E16888472028054607DB312DE6
:1004200005D2781910F8200C08B10643F1E7B0079F
:1004300001D526F00406C4F81CA00027C4F818A0B3
:100440002A2D09D028460BF0B7FD38B304EB8708F6
:10045000303DC8F8185019E059F8041B204604EB49
:1004600087029161E1688847012F054618D1E0694C
:10047000002820DA26F020061DE0D8F8180000EB4E
:10048000800005EB40003038C8F818002046E168CD
:10049000884705460BF090FD0028EED1012F0AD0C9
:1004A0002E2D08D12046E16888477F1C0546022F83
:1004B00046F02006C4DBA069002803DA404246F07B
:1004C0000106A061F00701D026F010066C2D0BD0BC
:1004D000682D09D04C2D39D06A2D35D0742D35D0EA
:1004E0007A2D33D016E038E0E1682F462046884761
:1004F000B842054609D16C2F26D04FF48060E168E0
:10050000064320468847054604E06C2F1AD04FF476
:10051000807006430DB3A5F14100192802D820359B
:1005200046F400664A462946204626604E46FFF7B6
:1005300065FE80B101280BD0F61D26F0070000F102
:10054000080956E74020E4E78020D8E70020D6E7F6
:1005500006F104094DE7284652E7206ABDE8F09FFE
:1005600060D2000010B5431C02E010F8011B71B10D
:100570008107FAD14FF0013202C88C1A8C4314EA79
:10058000C211F9D0C01A0A0603D0C01E10BDC01A8D
:1005900010BD0A0401D0801E10BD0902FCD0401E0F
:1005A00010BD00004FF0013C50F8042B51F8043B03
:1005B0009A4221D1A2EB0C03934313EACC1317D137
:1005C00050F8042B51F8043B9A4215D1A2EB0C03CE
:1005D000934313EACC130BD150F8042B51F8043B8E
:1005E0009A4209D1A2EB0C03934313EACC13DBD05C
:1005F0004FF00000704700BFD01A01BAB1FA81F184
:1006000001F0180122FA01F0CB40C1F12001DBB268
:10061000C0B2C01A2CFA01F3D11A914311EAC311E6
:10062000E6D17047704770477047704710B500F0CB
:1006300041FC006810BD10B5044600F03BFC0460AE
:1006400010BD70B5044685690068C10601D5302625
:1006500000E02026C00707D070BDD4E90121304654
:100660009047206A401C20626D1EF6D570BD70B5A3
:10067000044685690078C00707D170BDD4E901211F
:1006800020209047206A401C20626D1EF6D570BD68
:1006900009684A0501D540B27047C905FCD500B2CA
:1006A000704709684A0501D5C0B27047C905FCD535
:1006B00080B2704770B50C460546012A05D02878EF
:1006C000800600D5EA69002302E0012305E05B1CF7
:1006D000934202D2E05C0028F9D1A869E618C01A5A
:1006E000A861286A184428622846FFF7AAFF04E098
:1006F000D5E9012114F8010B9047B442F8D32846FC
:10070000FFF7B5FF70BD2DE9F0470D4699469246BB
:10071000044600F124080168880604D5E06921F048
:100720001001216000E00120A84201DD471B00E02C
:100730000027A1697A1902EB0900081AA061207844
:10074000C00602D42046FFF77CFF002608E0D4E96B
:1007500001211AF806009047206A401C761C20628E
:100760004E45F4DB2078C0060AD52046FFF769FF26
:1007700006E0D4E9012130209047206A401C206225
:10078000381EA7F10107F4DC07E0D4E9012118F8CD
:1007900005009047206A401C2062281EA5F1010533
:1007A000F3DC2046FFF763FF2078000602D5022025
:1007B000BDE8F0870120FBE711680268006A530575
:1007C00001D508700AE0D30501D5088006E01306BC
:1007D00003D5C217C1E9000200E00860012070479C
:1007E00070472DE9FF4F0C461E464FF0FF378BB088
:1007F000D2E90001DDF860800A908A46C1F30A550B
:1008000005B93D46002108464FF00000BAF1000F3F
:1008100000F4400005DA00EB80004FF4400101EAEB
:1008200050004FEA9059B9F1010F00DDB9460A981E
:1008300050EA4A000ED044F61050A5F2FF35454369
:100840002F14B8F1000F1ED07542291E1EDDC9F10C
:1008500000021CE0B8F1010F4FF0000001D0302180
:1008600003E0F24305E02154401CB042FBDB30467C
:100870000022002121540B99C1F80880C1E9002011
:100880000FB0BDE8F08FBD1B6D1CDEE74A4600DAF5
:10089000694206A800F042FD06AB93E8070003ABEF
:1008A00083E8070050460A9900F009FE8DE807002A
:1008B000A0F500501F3800900398002D0ADD42F289
:1008C0001F014A460844002303A90390684601F02B
:1008D00072F809E0A0F500504A461F38002303A92A
:1008E0000390684601F07CF88DE807000004000CD6
:1008F00003D04FF0FF30410800E01046B8F1000F80
:1009000003D00022009215461EE0751E05D400F0AB
:10091000D5FA303262556D1EF9D5B346012208432F
:1009200002D000227F1C04E02078302801D1002270
:100930007F1E002A099784D01DE0112D07DA00F0F0
:10094000BDFA303262556D1C50EA0102F5D1084300
:1009500002D00098C8B10EE00021681E05E0235CBB
:10096000625C63542254401E491C8142F7DBAB4653
:10097000A81B401E0990002004F80B000B98099A50
:10098000C0F80880C0E9002B7AE711264FF0000874
:1009900057E72DE9F04F88460446D21D22F00701A3
:1009A00091B0D1E90001CDE90A0109F065FB0246E9
:1009B0000B98C00F01D02D2007E02068810701D5DA
:1009C0002B2002E0202101EAC000032A099001D077
:1009D000072A05DB03464146204600F033FC0BE1C5
:1009E0002078800601D5E06900E00620B8F1650FA7
:1009F000814606D0B8F1660F18D0B8F1670F70D1F4
:100A000031E00020B9F1110F009001DB112301E06A
:100A100009F101030AAA01A90CA8FFF7E2FEDDE92A
:100A20000C70002609F10105834647E001204B4682
:100A300000904FF000470AAA01A90CA8FFF7D1FEC9
:100A4000DDE90DB00C995D46002610B909F10100F1
:100A50000D18B9EB050003D4C0F1FF3609F101050B
:100A6000A5EB09002BE0B9F1010F01DA4FF0010904
:100A70000020B9F1110F0090484601DD112300E07C
:100A800003460AAA01A90CA8FFF7ABFEDDE90C702A
:100A90004D4600268346207800070AD4AB4500DA8D
:100AA0005D4601A8012D04DD411911F8011C302912
:100AB00007D04F4502DA17F1040F04DA012082460D
:100AC0000FE06D1EEEE7002F02DCED1B3E4403E05D
:100AD000781CA84200DD7D1CB81B00F1010A4FF014
:100AE00000472078000703D4AA4501DB4FF0FF3A06
:100AF0000021B7F1004F0DF143088DF8431024D0C9
:100B000002202B23002F01DA7F422D230A21021E0F
:100B1000A0F1010000DC5FB197FBF1FC97FBF1F263
:100B200001FB1C7C17460CF1300C08F801CDEEE7F8
:100B3000A8F1010003702188090501D5452100E0D5
:100B40006521A0F1010800F8011C09980FA9A1EB8B
:100B50000807FF1D00B10120411901EBEA70A169EE
:100B60003844081A401EA0612078C00602D42046EE
:100B7000FFF767FD099828B1D4E901219047206A61
:100B8000401C20622078C00622D52046FFF759FD80
:100B90001EE0002E04DBB34502DD01A8805D00E00D
:100BA0003020D4E901219047206A401C2062761C45
:100BB000AAF101005FEA000A0AD100F077F9C068E3
:100BC0000168405CD4E901219047206A401C206202
:100BD000281EA5F10105DCDC07E0D4E9012118F8A5
:100BE000010B9047206A401C2062381EA7F10107C4
:100BF000F3DC2046FFF73BFD032011B041E6000087
:100C000001694A1C02610878704700B58FB0CDE9D0
:100C100001310021059105497944CDE903101146C0
:100C20006846FFF7DBFB0FB000BD0000E5FFFFFFEC
:100C30000A6802F8010B0A607047D1E900239A4262
:100C400002D2531C0B60107070470000074B70B548
:100C50000D467B44FFF7D9FF0446284600F0D0FB41
:100C600010B14FF0FF3070BD204670BD97B400004A
:100C70002DE9FF5F15468A460446DFF8AC80F8444C
:100C80000027D8E900103E46CDE9001010E03AF800
:100C900016106A4602A800F0B7FB411C07D0217865
:100CA000890603D5E269391891420DD80744761CAC
:100CB0002078800602D5E069B84205DDAE42E6DB69
:100CC0003AF816000028E2D1A069C01BA0612046B6
:100CD000FFF7B7FCD8E90010CDE90010002017E0BD
:100CE0003AF818106A4602A800F08EFBB0F1FF3FF8
:100CF00081460BD000250DF1080B05E0D4E9012158
:100D00001BF8050090476D1C4D45F7D308F1010015
:100D1000B0428046E4DB206A384420622046FFF778
:100D2000A6FCBDE8FF9F0000BECA00002DE9F0410F
:100D30008046D21D22F007020025D2E90002F529E3
:100D400015A614D0011E72F1000106DA0023D0EBC3
:100D5000030063EB020211A608E0D8F800108B072D
:100D600001D50FA602E0490701D50EA601251146BF
:100D7000002408F1240704E000F0A0F830323A55CE
:100D8000641C50EA0102F7D12B4632462146404608
:100D9000BDE8F041FFF7B7BC000000002D000000E7
:100DA0002B0000002000000030B4002100F12404DA
:100DB00008E002F00705D208303542EA4372DB084A
:100DC0006554491C52EA0305F3D10468002310A2BC
:100DD000250707D5A40600D421B1C46901230DA2BB
:100DE000641EC46130BCFFF78EBC10B504462146BA
:100DF0001068FFF756FC02462046BDE8104000236D
:100E0000D2E7D21D22F00701D1E90023CCE7000090
:100E10000000000030000000F0B40D460188090514
:100E200002D5214C7C4402E01F4C7C440E3400214E
:100E300000F1240608E002F00F071209E75D42EA1C
:100E400003721B097754491C52EA0307F3D1027855
:100E50000023120704D5702D06D009B102231134E6
:100E60002246F0BCFFF74FBC01231034F8E770B501
:100E700004460D4621461068FFF713FC024629463A
:100E80002046BDE870400023C6E7D21D22F00703CC
:100E9000D3E90023C0E70368126843F0200303602E
:100EA0000823C3610023B7E720C90000004870474A
:100EB00058160020004870473816002030B5B0F1B1
:100EC0000A024FEA900E71F100034EEA817EB0EB08
:100ED0000E0061EB91014FEA101E4EEA017E10EB0D
:100EE0000E0041EB11114FEA102E4EEA016E10EB8D
:100EF0000E0041EB11214FEA104E4EEA014E10EB6D
:100F00000E0041EB1141401841F100014FEAD000C1
:100F100040EA41704FEAD10110EB80054FEA8104AD
:100F200044EA907444EB01046D1944EB0404521B31
:100F3000A3414FF0000348BF0A3200D530BD401C2A
:100F400041F1000130BD00002DE9F04F04460D468F
:100F5000D21D22F0070089B0D0E9009748463946F3
:100F600009F08AF80246F80F01D02D2307E0206827
:100F7000810701D52B2302E0202101EAC0038DF86F
:100F800020300BB1012000E00020032A824601D06E
:100F9000072A04DB2946204600F054F93FE1207877
:100FA000800601D40D2500E0E569C7F30A560D2D32
:100FB00049DA00214FEA175B08464FF00000002F86
:100FC00000F4400007DA00EB80004FF4400100EB32
:100FD000D07001EA60008115012901DD4FF0FF3179
:100FE00000224FEA850CBCF1180F06D31346ACF172
:100FF00018004FF08052C24003E04FF4801323FAF0
:101000000CF30CF10C0CBCF1200F04D3ACF1200C50
:1010100009FA0CF001E007FA0CF000294FF0004843
:1010200001DD18B90FE00ED140450CD319EB0209D0
:101030005F4121B9404502D19F4329EA0209BBEB38
:10104000175F00D0761C2088000502D57B487844C5
:1010500002E07A487844193808AA302302F80A30A6
:10106000037C0AF10101002E0AF1020A53546A4678
:1010700002DC4FF0300101E04FF031014FF0010888
:101080008DF8001002D0A6F2FF3603E059EA4701BE
:1010900000D06B4E002D02DC2178090704D54FF0FB
:1010A00002082E218DF80110C44600210BE0C7F381
:1010B00003433F01C35C491C6D1E02F8083005293B
:1010C00008F1010801DA002DF1DC00210CE000EB51
:1010D0001973491C1B786D1E082902F808304FEA65
:1010E000091908F1010801DA002DF0DC21688B06EE
:1010F00002D516E0A8F10108E04505DD02EB080382
:1011000013F8013C302BF5D0B8F1000F09DD02EBEC
:10111000080313F8013C2E2B03D1090701D4A8F1D1
:101120000108002D05DD3E2102F808106D1E08F1B2
:101130000108407C002E02F8080008F1010804DADA
:101140002D20764202F8080002E02B2002F8080069
:101150000A214FF47A70864208F101080BDB96FBF6
:10116000F0F3303302F8083096FBF0F308F1010891
:1011700000FB136601E0642E0CDB642096FBF0F3A9
:10118000303302F8083096FBF0F308F1010800FB59
:10119000136601E00A2E06DB96FBF1F0303002F810
:1011A000080008F1010896FBF1F001FB10603030F7
:1011B00002F80800A16908F1010808EB050202EB3A
:1011C0000A00081AA0612078C00602D42046FFF762
:1011D00038FA216A08AE01EB0A00206204E0D4E983
:1011E000012116F8010B9047BAF1010AF7D22078D5
:1011F000C00602D52046FFF724FA6E4609E016F82D
:10120000010B3E280FD0D4E901219047206A401CF1
:101210002062B8F10108F2D22046FFF728FA09B09F
:101220000320BDE8F08F206A2844206203E0D4E95F
:101230000121302090476D1EEBD3F8E7F1C8000084
:1012400002FCFFFF2DE9F0411F460446032601681A
:10125000072A01F4006004DB08B116A505E016A515
:1012600003E008B115A500E015A521F010002060ED
:10127000A069C01EA0610FB1401EA0612046FFF70B
:10128000E0F94FB1D4E9012138469047206A401C6B
:101290002062C01C206206E0206AFAE7D4E901213E
:1012A00015F8010B9047761EF8D22046FFF7DFF9BC
:1012B000BDE8F0814E414E006E616E00494E460021
:1012C000696E660010B5436913B1AFF3008001E0A9
:1012D000FFF7F0F9012010BD127800F124010A7027
:1012E00000224A700122EDE711684FF0FF32E9E772
:1012F00010B5436913B1AFF3008001E0FFF7B8FC0C
:10130000012010BD128800F1240182840022C284D1
:101310000122EDE711684FF0FF32E9E72DE9F047D0
:10132000814616468AB0354878440DC88DE80D00D0
:1013300032487844801C03AC0DC884E80D0041F6A7
:101340009B300844372190FBF1F290FBF1F5A5F1B9
:10135000800501FB12041B3C02D56442012000E021
:101360000020DFF898A080460027FA44AAF1BE0AC0
:101370000EE0E0070AD03246684607EB470101233A
:101380000AEB810100F02CFB8DE8070064107F1C44
:10139000002CEED1194F7F44AE3F19E0E80715D07D
:1013A00007EB04100DF1180A90E80E008AE80E0011
:1013B000C068F04201D1981908903246012306A96D
:1013C00003A800F00DFB03AB83E807006D10641C5D
:1013D000002DE3D14FF0010332466946B8F1000F0A
:1013E00003A802D000F0E7FA01E000F0F9FAC9E939
:1013F0000001C9F808200AB0BDE8F087A8C60000BF
:10140000007B00F08000704770B516460C4605461C
:1014100000F044F8036893F80101012806D0FF2C7E
:101420000FD8185D68B101202C7070BDD3F807018A
:101430003246214603F2071303442846BDE87040B4
:1014400018474FF0FF3070BD004870473816002035
:101450007546FFF7F9FFAE4605006946534620F092
:101460000700854618B020B5FEF742FFBDE82040D2
:101470004FF000064FF000074FF000084FF0000B50
:1014800021F00701AC46ACE8C009ACE8C009ACE803
:10149000C009ACE8C0098D467047000010B5FFF7E1
:1014A00005FD001D10BD00BFD1B3000010B50446FE
:1014B000AFF300802046BDE81040FEF704BF5FEAAE
:1014C000400C08BF91F0000F4FEA8C234FEAC12275
:1014D00043EA51514FEA1C5018BF00F5F0404FEA63
:1014E000300018BF41F000415FEA6C5C00F02980D9
:1014F000BCF1FF3F08BF40F080407047130C06BFAF
:1015000012044FF0100C4FF0000C130E04BF120227
:101510000CF1080C130F04BF12010CF1040C930F13
:1015200004BF92000CF1020CD30F04BF52000CF167
:10153000010C11464FF00002A0F11F00A0EB0C00BF
:10154000704711F0004F08BF704731F000413FF481
:10155000D5AF0B0C06BF09044FF0100C4FF0000C78
:101560000B0E04BF09020CF1080C0B0F04BF09019C
:101570000CF1040C8B0F04BF89000CF1020CCB0F93
:1015800004BF49000CF1010CCCF12003A0EB0C00CE
:1015900022FA03F302FA0CF241EA030100F101001E
:1015A000704720F07F4C80EA030023F07F47ACEBCC
:1015B000070303F57C5300F0004003F1FF032DE91E
:1015C00080494FEA154B09B44FEA144325EA0B4E04
:1015D00024EA03480FF2042606EB132749083E7855
:1015E0005FEA320203FB0667C7F5000707FB06F652
:1015F0004FEA54374FEAD64606F1020607FB066C5F
:10160000CCF1005C4FEA1C472CEA074C07FB06F4C0
:101610000CFB06F504EB15464FEA961634BF002086
:101620004FF000404FEAD13706FB07FC4FEA1C4C55
:101630000CFB0BF7D21B03FB0CF761EB07010CFB58
:101640000EF7B0EB074072EB17420CFB08F734BF04
:10165000A2EB0742B2EB074261EB17414FEA0C44A1
:101660004FEA910706FB07FC4FEA1C4C0CFB0BF7FB
:10167000B0EBC74072EB573203FB0CF734BFA2EB61
:10168000C742B2EBC74261EB57310CFB0EF7B0EB30
:10169000C70072EB57720CFB08F734BFA2EBC7020E
:1016A000B2EBC70261EB5771039F4FEA816141EAD8
:1016B000921104EBCC044FEAD1374FEA826206FB69
:1016C00007FC42EA90124FEA80604FEA1C4C0CFB88
:1016D0000BF7D21B03FB0CF761EB07010CFB0EF7BA
:1016E000B0EB074072EB17420CFB08F734BFA2EBDC
:1016F0000742B2EB074261EB17414FEA8C554FEAC4
:10170000910704EB9C2406FB07FC4FEA1C4C0CFBE6
:101710000BF7B0EBC74072EB573203FB0CF734BF4B
:10172000A2EBC742B2EBC74261EB57310CFB0EF79D
:10173000B0EBC70072EB57720CFB08F734BFA2EB9B
:10174000C702B2EBC70261EB577115EB4C254FEAAC
:10175000816141EA92114FEA82624FEAD13742EA4F
:10176000901206FB07FC44F100044FEA80604FEA48
:101770001C4C0CFB0BF7D21B03FB0CF761EB0701B6
:101780000CFB0EF7B0EB074072EB17420CFB08F7AF
:1017900034BFA2EB0742B2EB074261EB174115EBF6
:1017A0001C154FEA813141EA92414FEA823242EA06
:1017B00090424FEA80304FEA0C7644F1000448EA48
:1017C00003434EEA0B484FF0000EB2EB080C71EBEE
:1017D000030724BF624639464EEB0E0E4FF0000B56
:1017E0000018524149414BEB0B0BB2EB080C71EB6B
:1017F00003077BF1000B24BF624639464EEB0E0E09
:101800004FF0000B0018524149414BEB0B0BB2EB70
:10181000080C71EB03077BF1000B24BF62463946CD
:101820004EEB0E0E51EA020718BF46F0010616EB0A
:101830000E7655F1000254F1000103D5BDE889018F
:10184000BDE80088BDE88901BDE80048B6195241ED
:1018500041EB0101A3F10103704780807F7E7D7C15
:101860007B7A7978777676757473727171706F6E32
:101870006E6D6C6C6B6A6A696868676666656464DD
:10188000636362616160605F5F5E5E5D5D5C5C5B67
:101890005B5A5A59595858575756565555555454D6
:1018A000535352525251515050504F4F4F4E4E4D34
:1018B0004D4D4C4C4C4B4B4B4A4A4A494949484880
:1018C00048474747474646464545454444444443C0
:1018D00043434342424242414141002B9C4630D463
:1018E00077002BD01CB54FEA370703B44FF0100038
:1018F0004FF01001BAF1000F06D0BCF1000FDCBFB1
:1019000040F0080040F008014FF000000FBCBDE8B7
:1019100010400BF1010BBBF1010F08BF5FEA170785
:1019200022BF12F1010211F101014FF0004143F118
:10193000000300F0004043EA00007047F9D3570865
:10194000D0E746EA064613F1400F4FEA16461FDD80
:1019500013F1200FDFBF16430A46002120335B42FC
:10196000BED0C3F1200746EA064602FA07F74FEA5F
:10197000164646EA0706C3F1200722FA03F201FAE7
:1019800007F721FA03F14FF0000342EA0702A7E745
:1019900046EA020646EA06464FEA164646EA0106C7
:1019A000BCBF46EA0646360C4FF000034FF000027B
:1019B0004FF0000194E72DE9804C9A46934670B4AD
:1019C00091E8380007C831EA400C48BF34EA430CBC
:1019D00003D5FFF7E6FDFFF780FFF0BCBDE8008C04
:1019E0002DE9804C9A46934670B491E8380007C8B8
:1019F00010F0804F08BF13F0804F03D100F005F8BE
:101A0000FFF76BFFF0BCBDE8008C20F07F4780EA59
:101A1000030023F07F4C07EB0C03A3F57C5300F08D
:101A20000040A3F1FE0392F0000F00F0B38095F0A8
:101A3000000F00F077802DE901494FEA11404FEA8D
:101A4000144621EA004800FB06FC24EA064708FB8E
:101A500006F607FB08F800FB07F718EB06484CEB07
:101A6000164C4FEA124B18EB07484FEA15464CEB61
:101A7000174022EA0B4E0BFB06FC25EA06470EFB3D
:101A800006F607FB0EFE0BFB07F71EEB064E4CEBB4
:101A9000164C4FF000061EEB074E4CEB174B18EBA5
:101AA0000B0840F1000018EB0E0B58EB000840F15A
:101AB00000008F1A4FF000013CBFC943661B14BFE2
:101AC000B5EB040C00213CBFC943F61B4FEA174499
:101AD0004EEA8E0E27EA04454FEA1C4704FB0762D4
:101AE0002CEA074C05FB07F70CFB05F604FB0CFC86
:101AF00016EB074642EB174216EB0C4642EB1C4234
:101B00001BEB060658EB0202414146EA9E0601D550
:101B1000BDE80189B619524141EB0101A3F101036E
:101B2000BDE801894FEA14454FEA114724EA05460A
:101B300021EA074C05FB07F406FB07F70CFB06F14F
:101B400005FB0CFC11EB074144EB17444FEA12472D
:101B500011EB0C4144EB1C4422EA074C05FB07F255
:101B600006FB07F70CFB06F605FB0CFC16EB07461D
:101B700042EB174216EB0C4642EB1C456A1854F137
:101B8000000148BF7047B619524141EB0101A3F172
:101B90000103704795F0000F37D04FEA11424FEA2A
:101BA000144721EA024624EA074C02FB07F106FB30
:101BB00007F70CFB06F402FB0CFC14EB074441EBAB
:101BC00017414FEA154714EB0C4441EB1C4125EA41
:101BD000074C02FB07F506FB07F70CFB06F602FBBA
:101BE0000CFC16EB074645EB174516EB0C4645EB90
:101BF0001C42121951F1000148BF7047B6195241F9
:101C000041EB0101A3F1010370474FEA14454FEA8C
:101C1000114724EA054621EA074C05FB07F106FBBC
:101C200007F70CFB06F24FF0000605FB0CFC12EB6D
:101C3000074241EB174112EB0C4251EB1C4148BFEC
:101C40007047921841EB0101A3F1010370470000B6
:101C50001CB504460121042006F0F6FA4FF480403A
:101C6000009000208DF8040003208DF8050002206C
:101C70008DF807006946104803F07AFF03212820F9
:101C800000F032F921462C2000F02EF900212D2001
:101C900000F02AF9012C03D10A20084908700AE053
:101CA000022C03D114200549087004E0032C02D152
:101CB0002820024908701CBD0008024021000020B5
:101CC00010B52DED0A8B04460B222146062000F0AC
:101CD000E5F820780003617840EA0110001100B2B5
:101CE0002083B4F9180040F25D71081A00EE100A62
:101CF000F8EEC00A9FED631A80EE810AF3EE090A3E
:101D000030EE200A84ED0E0AA0780006E17840EA61
:101D10000140217940EA01200013E060607900066B
:101D2000A17940EA0140E17940EA012000132061F5
:101D3000207A0006617A40EA0140A17A40EA012057
:101D400000136061504890F900000BF028F841EC56
:101D50001A0BE0680BF023F841EC1C0B9FED4B0BCA
:101D600053EC102B0AF066FE41EC1B0B53EC1A2BC4
:101D70000BF07CF841EC190B464890ED000B53EC4E
:101D8000102B51EC190B0BF071F841EC180B424879
:101D900090ED0C1BB0EE410AF0EE610A53EC102BF3
:101DA00051EC180B0BF06EFAC4E90801364890F9B3
:101DB00000000AF0F4FF41EC1A0B20690AF0EFFF73
:101DC00041EC1C0B9FED310B53EC102B0AF032FE53
:101DD00041EC1B0B53EC1A2B0BF048F841EC190BA0
:101DE0002C4890ED000B53EC102B51EC190B0BF021
:101DF0003DF841EC180B284890ED0E1BB0EE410A5F
:101E0000F0EE610A53EC102B51EC180B0BF03AFA80
:101E1000C4E90A011C4890F900000AF0C0FF41EC37
:101E20001A0B60690AF0BBFF41EC1C0B9FED170B0E
:101E300053EC102B0AF0FEFD41EC1B0B53EC1A2B5C
:101E40000BF014F841EC180B124890ED000B53EC1A
:101E5000102B51EC180B0BF009F841EC190B0E4844
:101E600090ED101BB0EE410AF0EE610A53EC102B1E
:101E700051EC190B0BF006FAC4E90C01BDEC0A8B0E
:101E800010BD0000CDCC104121000020000000005A
:101E9000A0D21E4140D60008B015002070B50646FD
:101EA0000C46154600200E49086001200AF0A2F8F1
:101EB000012000EB46010B4806F032FD07E000214F
:101EC000084806F02DFD2070641C681EC5B2002D68
:101ED000F5DC0120024908600AF08CF870BD0000B2
:101EE000B40241420030014070B504460D46002066
:101EF0000949086001200AF07DF86100074806F0F2
:101F00000FFD2946054806F00BFD01200449C1F8E4
:101F1000B4020AF06FF870BDB402414200300140D3
:101F2000000041421CB504460121084606F08CF928
:101F30000121042006F088F900214FF4165007F023
:101F400005FB1020009001208DF8040003208DF87F
:101F5000050001208DF807006946324803F008FEAD
:101F60004FF40040009001208DF8040003208DF80C
:101F7000050001208DF8070069462B4803F0F8FDA5
:101F800000202A4908604FF4FA700AF026F8012C64
:101F900003D101202649086002E00020244908609E
:101FA0000A200AF01AF80120204908604FF4FA705C
:101FB0000AF013F81FA007F07FFB4FF47A700AF0C5
:101FC0000CF81EA007F078FB4FF47A700AF005F8C1
:101FD0001FA007F071FB4FF47A7009F0FEFF00209C
:101FE0001F49C1F8AC021F49087001214FF4964007
:101FF00007F0ACFA00BF04F0B5FA0028FBD00120CE
:102000001849087000BF184800780028FBD017A0B6
:10201000FEF79CF915A007F039FC012004491C319A
:1020200008601CBD0000024000080240BC024142A2
:10203000900240420D0A0D0A000000002450434166
:102040005330322C3530302A31410D0A0000000067
:10205000245043415330312C322A31450D0A0000BF
:1020600000004042290000202A0000204750532051
:102070006973207265616479210D0A0010B52DED38
:10208000108BB0EE408AF0EE608AB0EE419AF0EE2E
:10209000619AB0EE42AAF0EE62AA4B4890ED000BB6
:1020A00053EC102B51EC1A0B0AF0E0FE41EC1B0B29
:1020B000464890ED000B53EC102B51EC190B0AF035
:1020C000D5FE41EC1D0B424890ED000B53EC102B5C
:1020D00051EC180B0AF0CAFE41EC1E0B53EC1D2B01
:1020E0000AF0ECFB41EC1C0B53EC1B2B0AF0E6FB5B
:1020F000384A03C2384890ED000B53EC102B51ECDA
:102100001A0B0AF0B3FE41EC1B0B344890ED000BA8
:1021100053EC102B51EC190B0AF0A8FE41EC1D0BEF
:102120002F4890ED000B53EC102B51EC180B0AF0DC
:102130009DFE41EC1E0B53EC1D2B0AF0BFFB41EC46
:102140001C0B53EC1B2B0AF0B9FB224AC2E902011B
:10215000244890ED000B53EC102B51EC1A0B0AF0B5
:1021600085FE41EC1C0B204890ED000B53EC102B2E
:1021700051EC190B0AF07AFE41EC1E0B1B4890ED56
:10218000000B53EC102B51EC180B0AF06FFE41ECD6
:102190001F0B53EC1E2B0AF091FB41EC1D0B53EC73
:1021A0001C2B0AF08BFB41EC1B0B114890ED000B34
:1021B00053EC102B51EC1B0B0BF064F8054AC2E9F1
:1021C0000401BDEC108B10BD8000002078000020C1
:1021D00070000020181500209800002090000020BA
:1021E00088000020B0000020A8000020A0000020EF
:1021F00040D6000810B505F0B9FA06F01BFC10BD7A
:1022000000B599B09FEDFE0A8DED180A9FEDFC0A0E
:102210008DED170A9FEDFB0A8DED160AFA4890ED39
:10222000040B8DED080B9FEDF91B9DED080B08F0DD
:10223000B3FB8DED0C0BF44890ED020B8DED040B10
:102240009FEDF21B9DED040B08F0A6FB8DED080B36
:10225000ED4890ED000B8DED040B9FEDEC1B9DED1B
:10226000040B08F099FB8DED060B9DED080B53EC6C
:10227000102B9DED060B51EC100B0AF01FFBCDE966
:102280000A019DED0C0B53EC102B9DED0A0B51EC4C
:10229000100B0AF013FBCDE90E019DED0E0B09F0BA
:1022A00007FA8DED100B9FEDDB0B53EC102B9DED22
:1022B000100B51EC100B0AF0D7FE7DD29FEDD70B1F
:1022C00053EC102B9DED100B51EC100B0AF092FD0E
:1022D000F3D2CD4890ED020B8DED0E0BD14890ED71
:1022E000000B53EC102B9DED0E0B51EC100B0AF074
:1022F000BBFE03D2CB4890ED000B02E0C24890ED4C
:10230000020BC14880ED020BC64890ED000B51EC6A
:10231000100B0AF0C7FACDE90E01BB4890ED020B95
:102320008DED0C0B9DED0C0B53EC102B9DED0E0B5E
:1023300051EC100B0AF098FE07D2BA4890ED000B52
:1023400051EC100B0AF0AEFA02E0AF48C1688068A9
:10235000AD4AC2E90201104690ED0C0B8DED0A0B5F
:102360009FEDB10B53EC102B9DED0A0B51EC100BB4
:102370000AF07CFDCDE90E01A34890ED020B8DED36
:10238000060B9DED100B53EC102B9DED060B51EC45
:10239000100B0AF04FFBCDE908019DED080B07F08B
:1023A00083FE8DED0A0B9FEDA20B53EC102B9DEDE0
:1023B0000A0B51EC100B00E054E00AF057FDCDE998
:1023C0000C019DED0E0B53EC102B9DED0C0B51EC05
:1023D000100B0AF073FA8C4AC2E90C01104690ED1A
:1023E000100B8DED0A0B9FED900B53EC102B9DED18
:1023F0000A0B51EC100B0AF039FDCDE90E018248B1
:1024000090ED000B8DED060B9DED060B51EC100BC6
:102410000AF048FACDE908017B4890ED040B8DEDF8
:10242000060B9DED061B9DED080B08F059F98DED8F
:102430000A0B9FED7F0B53EC102B9DED0A0B51EC1B
:10244000100B0AF013FDCDE90C019DED0E0B53ECC2
:10245000102B9DED0C0B51EC100B0AF02FFA6A4A71
:10246000C2E91001684890ED100B8DED080B9DED51
:10247000080B09F0B9F88DED0A0B6F4890ED080BC9
:102480008DED080B9DED080B53EC102B9DED0A0B09
:1024900051EC100B0AF0EAFCCDE90E015A4890ED20
:1024A000100B8DED080B9DED080B08F011FA8DED6A
:1024B0000A0B614890ED060B8DED080B9DED080BA6
:1024C00053EC102B9DED0A0B51EC100B0AF0CEFCD7
:1024D000CDE90C019DED0E0B53EC102B9DED0C0B7B
:1024E00051EC100B0AF0CEFECDE91401464890EDF8
:1024F000100B8DED060B9DED060B08F0E9F98DED47
:102500000A0B414890ED0C0B8DED040B9DED040B77
:1025100009F06AF88DED060B474890ED080B8DED3C
:10252000040B9DED040B53EC102B9DED060B51ECB1
:10253000100B0AF09BFCCDE908019DED0A0B53EC52
:10254000102B9DED080B51EC100B0AF08FFCCDE920
:102550000E012D4890ED0C0B8DED040B9DED040B41
:1025600008F0B6F98DED060B334890ED040B8DEDB8
:10257000040B9DED040B53EC102B9DED060B51EC61
:10258000100B0AF073FCCDE90A011F4890ED0C0B0B
:102590008DED020B9DED020B09F026F88DED060B7B
:1025A000194890ED100B8DED000B9DED000B09F01F
:1025B0001BF88DED020B204890ED060B8DED000B06
:1025C0009DED000B53EC102B9DED020B51EC100B0D
:1025D0000AF04CFCCDE904019DED060B53EC102BE9
:1025E0009DED040B51EC100B0AF040FCCDE9080105
:1025F0009DED0A0B53EC102B9DED080B1EE0000027
:10260000CDCC4C3DCDCCCC3D1815002000000000B9
:1026100000000040333333333333234000000000E5
:102620000000244040D60008000000606666EE3FCF
:10263000000000A09999A93F2802002051EC100B3E
:102640000AF03CF9CDE90C019DED0E0B53EC102B7B
:102650009DED0C0B51EC100B0AF030F9CDE9120195
:10266000FE4890ED0E0B8DED0A0B9FEDFD0B53EC2C
:10267000102B9DED0A0B51EC100B0AF0F7FBCDE986
:102680000E019DED121B9DED140B08F029F88DED48
:102690000A0B9FEDF50B53EC102B9DED0A0B51EC43
:1026A000100B0AF0E3FBCDE90C019DED0E0B53EC92
:1026B000102B9DED0C0B51EC100B0AF0FFF8E74AC4
:1026C000C2E90E01104690ED0E0B8DED060B9DED4F
:1026D000060B08F089FF8DED0A0BE04890ED0C0B1E
:1026E0008DED020B9DED020B08F07EFF8DED060BCC
:1026F000DA4890ED100B8DED020B9DED020B08F00A
:1027000073FF8DED040B9DED060B53EC102B9DED2F
:10271000040B51EC100B0AF0A9FBCDE908019DED6B
:102720000A0B53EC102B9DED080B51EC100B0AF02B
:102730009DFBCDE90E01C94890ED0E0B8DED060B0A
:102740009DED060B08F0C4F88DED0A0BC34890ED23
:10275000100B8DED060B9DED060B08F0B9F88DED15
:10276000080B9DED0A0B53EC102B9DED080B51EC63
:10277000100B0AF07BFBCDE90C019DED0E0B53EC29
:10278000102B9DED0C0B51EC100B0AF07BFDB84AA1
:1027900003C2B24890ED0E0B8DED060B9DED060BBE
:1027A00008F096F88DED0A0BAC4890ED0C0B8DED12
:1027B000020B9DED020B08F017FF8DED060BA748ED
:1027C00090ED100B8DED020B9DED020B08F00CFF50
:1027D0008DED040B9DED060B53EC102B9DED040BC2
:1027E00051EC100B0AF042FBCDE908019DED0A0BFC
:1027F00053EC102B9DED080B51EC100B0AF036FB3F
:10280000CDE90E01954890ED0E0B8DED060B9DED7B
:10281000060B08F0E9FE8DED0A0B904890ED100BC9
:102820008DED060B9DED060B08F052F88DED080BB3
:102830009DED0A0B53EC102B9DED080B51EC100B8A
:102840000AF014FBCDE90C019DED0E0B53EC102B9F
:102850009DED0C0B51EC100B0AF030F8854A03C2C9
:102860007E4890ED0C0B8DED0A0B9DED0A0B08F0E8
:102870002FF88DED0E0B794890ED100B8DED080BB8
:102880009DED080B08F0B0FE8DED0A0B9DED0A0BD7
:1028900051EC100B0AF006F8CDE90C019DED0E0B82
:1028A00053EC102B9DED0C0B51EC100B0AF0DEFAE3
:1028B000714A03C2694890ED0E0B8DED0A0B9DED38
:1028C0000A0B08F091FE8DED0E0B644890ED0C0B99
:1028D0008DED080B9DED080B07F0FAFF8DED0A0B4F
:1028E0009DED0A0B51EC100B09F0DCFFCDE90C015A
:1028F0009DED0E0B53EC102B9DED0C0B51EC100BC2
:102900000AF0B4FA5D4A03C2544890ED0E0B8DED07
:102910000A0B9DED0A0B07F0DBFF8DED0E0B4F4808
:1029200090ED0C0B8DED0A0B9DED0A0B07F0D0FF1F
:102930008DED0C0B9DED0E0B53EC102B9DED0C0B48
:1029400051EC100B0AF092FA4D4A03C2434890ED45
:102950000C0B8DED0E0B9DED0E0B08F045FE49485E
:1029600080ED000B3D4890ED0E0B8DED060B9DEDBF
:10297000060B08F039FE8DED0A0B384890ED0C0B74
:102980008DED020B9DED020B08F02EFE8DED060B7A
:10299000324890ED100B8DED020B9DED020B07F010
:1029A00097FF8DED040B9DED060B53EC102B9DED69
:1029B000040B51EC100B0AF059FACDE908019DED1A
:1029C0000A0B53EC102B9DED080B51EC100B0AF089
:1029D0004DFACDE90E01214890ED0E0B8DED060B61
:1029E0009DED060B07F074FF8DED0A0B1B4890ED73
:1029F000100B8DED060B9DED060B08F0F5FD8DED32
:102A0000080B9DED0A0B53EC102B9DED080B51ECC0
:102A1000100B0AF02BFACDE90C019DED0E0B53ECD7
:102A2000102B9DED0C0B51EC100B09F047FF164AD3
:102A300003C20A4890ED0E0B8DED060B9DED060BC3
:102A400007F046FF8DED0A0B044890ED0C0B8DED61
:102A5000020B9DED020B08F0C7FD17E018150020D2
:102A6000000000C0CCCCEC3F000000A09999B93F19
:102A70007000002088000020A000002078000020C6
:102A800090000020A8000020800000208DED060BA3
:102A9000E94890ED100B8DED020B9DED020B07F058
:102AA00017FF8DED040B9DED060B53EC102B9DEDE8
:102AB000040B51EC100B0AF0D9F9CDE908019DED9A
:102AC0000A0B53EC102B9DED080B51EC100B0AF088
:102AD000CDF9CDE90E01D84890ED0E0B8DED060B2A
:102AE0009DED060B08F080FD8DED0A0BD24890EDB0
:102AF000100B8DED060B9DED060B08F075FD8DEDB1
:102B0000080B9DED0A0B53EC102B9DED080B51ECBF
:102B1000100B0AF0ABF9CDE90C019DED0E0B53EC57
:102B2000102B9DED0C0B51EC100B0AF0ABFBC34AC4
:102B300003C2C14890ED0C0B8DED0A0B9DED0A0B05
:102B400007F0C6FE8DED0E0BBB4890ED100B8DED22
:102B50000A0B9DED0A0B07F0BBFE8DED0C0B9DEDF6
:102B60000E0B53EC102B9DED0C0B51EC100B0AF0DF
:102B70007DF9B34A03C2B34890ED000B53EC102B20
:102B80009FEDB10B51EC100B09F098FECDE9080157
:102B9000AF4890ED000B53EC102B9DED080B51EC62
:102BA000100B09F08BFECDE90A01A54890ED000B52
:102BB00053EC102B9DED0A0B51EC100B09F07EFE2F
:102BC000CDE90C019DED0C0B08F072FD8DED0E0BA7
:102BD0009FEDA00B53EC102B9DED0E0B51EC100B49
:102BE0000AF044F99D4A03C2964890ED000B53EC5D
:102BF000102B9FED950B51EC100B09F05FFECDE90A
:102C00000801934890ED000B53EC102B9DED080B41
:102C100051EC100B0AF036FBCDE90A01884890ED23
:102C2000000B53EC102B9DED0A0B51EC100B0AF02E
:102C300029FBCDE90C019DED0C0B08F039FD8DED64
:102C40000E0B9FED840B53EC102B9DED0E0B51ECF6
:102C5000100B0AF00BF9814AC2E90201794890EDA4
:102C6000000B53EC102B9FED780B51EC100B0AF07E
:102C700009FBCDE90801764890ED000B53EC102BD1
:102C80009DED080B51EC100B09F018FECDE90A017F
:102C90006B4890ED000B53EC102B9DED0A0B51ECA3
:102CA000100B0AF0EFFACDE90C019DED0C0B08F0CA
:102CB000FFFC8DED0E0B9FED670B53EC102B9DED84
:102CC0000E0B51EC100B0AF0D1F8644AC2E9040172
:102CD0005C4890ED000B53EC102B9FED5B0B51EC1F
:102CE000100B0AF0CFFACDE90801594890ED000B1E
:102CF00053EC102B9DED080B51EC100B0AF0C2FAAF
:102D0000CDE90A014E4890ED000B53EC102B9DEDE0
:102D10000A0B51EC100B09F0D1FDCDE90C019DED32
:102D20000C0B08F0C5FC8DED0E0B9FED4A0B53EC20
:102D3000102B9DED0E0B51EC100B0AF097F8474A43
:102D4000C2E906013D4890ED000B53EC102B4448BE
:102D500090ED000B51EC100B0AF094FA9FED410B33
:102D600053EC102BCDE90E019DED0E0B51EC100B29
:102D70000AF040F80DD2394890ED020B8DED0E0BA4
:102D80009DED0E0B51EC100B09F08CFD334AC2E99E
:102D90000201364890ED000B53EC102B344890EDB7
:102DA000000B51EC100B0AF06DFA9FED2E0B53EC5B
:102DB000102BCDE90E019DED0E0B51EC100B0AF01E
:102DC00019F80DD2254890ED040B8DED0E0B9DEDFD
:102DD0000E0B51EC100B09F065FD204AC2E904010D
:102DE000244890ED000B53EC102B234890ED000B82
:102DF00051EC100B0AF046FA9FED1A0B53EC102B16
:102E0000CDE90E019DED0E0B51EC100B09F0F2FF18
:102E10000DD2124890ED060B8DED0E0B9DED0E0BB5
:102E200051EC100B09F03EFD0C4AC2E906019DED84
:102E3000100B19B000BD00001815002098000020EC
:102E4000B000002070000020000000000000F03FF3
:102E500090000020000000000000E03F001600206D
:102E6000A80000200000000000000000A0000020DA
:102E700080000020780000208800002010B52DED93
:102E8000060BA2B09FEDFE0B53EC102B9DED220B19
:102E900051EC100B09F0EAFF9FEDFB0B53EC102BEC
:102EA000CDE910019DED100B51EC100B09F0C2FDA6
:102EB000CDE91C019FEDF20B53EC102B9DED240B83
:102EC00051EC100B09F0D2FF9FEDEF0B53EC102BE0
:102ED000CDE910019DED100B51EC100B09F0AAFD8E
:102EE000CDE91E019FEDE60B53EC102B9DED260B5B
:102EF00051EC100B09F0BAFF9FEDE30B53EC102BD4
:102F0000CDE910019DED100B51EC100B09F092FD75
:102F1000CDE92001DE4890ED060B8DED0A0B9DED0D
:102F2000200B8DED080B9DED0A0B53EC102B9DED46
:102F3000080B51EC100B09F099FFCDE90E01D448B4
:102F400090ED040B8DED060B9DED1E0B8DED040B2E
:102F50009DED060B53EC102B9DED040B51EC100B6B
:102F600009F084FFCDE90A019DED1C0B8DED040BEA
:102F70009DED040B51EC100B09F094FCCDE906011A
:102F8000C34890ED020B8DED040B9DED040B53EC4B
:102F9000102B9DED060B51EC100B09F067FFCDE9EE
:102FA00008019DED0A0B53EC102B9DED080B51EC25
:102FB000100B0AF067F9CDE90C019DED0E0B53ECF7
:102FC000102B9DED0C0B51EC100B0AF05BF99FEDF3
:102FD000B10B53EC102BCDE910019DED100B51EC12
:102FE000100B09F043FFCDE91401A94890ED060B41
:102FF0008DED0A0B9DED1E0B8DED080B9DED0A0B63
:1030000053EC102B9DED080B51EC100B09F02EFF2B
:10301000CDE90E019E4890ED040B8DED060B9DED64
:10302000200B8DED040B9DED060B53EC102B9DED4D
:10303000040B51EC100B09F019FFCDE90A0194487B
:1030400090ED000B8DED060B9DED1C0B8DED040B33
:103050009DED060B53EC102B9DED040B51EC100B6A
:1030600009F004FFCDE908019DED0A0B53EC102B8C
:103070009DED080B51EC100B09F020FCCDE90C0183
:103080009DED0E0B53EC102B9DED0C0B51EC100B2A
:103090000AF0F8F89FED7F0B53EC102BCDE91001EF
:1030A0009DED100B51EC100B09F0E0FECDE916017F
:1030B000774890ED060B8DED0A0B9DED1C0B8DED09
:1030C000080B9DED0A0B53EC102B9DED080B51ECFA
:1030D000100B09F0CBFECDE90E016D4890ED020B0F
:1030E0008DED060B9DED200B8DED040B9DED060B7C
:1030F00053EC102B9DED040B51EC100B09F0B6FEB8
:10310000CDE90A01624890ED000B8DED060B9DEDB7
:103110001E0B8DED040B9DED060B53EC102B9DED5E
:10312000040B51EC100B09F0A1FECDE908019DED57
:103130000A0B53EC102B9DED080B51EC100B0AF011
:10314000A1F8CDE90C019DED0E0B53EC102B9DED7C
:103150000C0B51EC100B09F0B1FB9FED4E0B53EC37
:10316000102BCDE910019DED100B51EC100B09F067
:103170007DFECDE91801464890ED040B8DED0A0B5C
:103180009DED1C0B8DED080B9DED0A0B53EC102BE8
:103190009DED080B51EC100B09F068FECDE90E0116
:1031A0003B4890ED020B8DED060B9DED1E0B8DED5A
:1031B000040B9DED060B53EC102B9DED040B51EC15
:1031C000100B09F053FECDE90A01314890ED000BD8
:1031D0008DED060B9DED200B8DED040B9DED060B8B
:1031E00053EC102B9DED040B51EC100B09F03EFE3F
:1031F000CDE908019DED0A0B53EC102B9DED080B5A
:1032000051EC100B09F05AFBCDE90C019DED0E0BB2
:1032100053EC102B9DED0C0B51EC100B0AF032F817
:103220009FED1C0B53EC102BCDE910019DED100B05
:1032300051EC100B09F01AFECDE91A01174800688D
:103240000AF00AF9CDE90E019DED140B8DED0C0B82
:103250009DED0C0B53EC102B9DED0E0B51EC100B58
:1032600009F004FECDE91001094890ED000B8DED49
:103270000E0B9DED0E0B53EC102B9DED100B0FE084
:1032800050455254FB210940000000000080664078
:1032900000160020000000000000E03F5C0000205D
:1032A00051EC100B09F00AFBFE4A03C2FE4800680D
:1032B0000AF0D2F8CDE90E019DED160B8DED0C0B49
:1032C0009DED0C0B53EC102B9DED0E0B51EC100BE8
:1032D00009F0CCFDCDE91001F24890ED020B8DED27
:1032E0000E0B9DED0E0B53EC102B9DED100B51ECC6
:1032F000100B09F0E3FAEB4AC2E90201EA48006860
:103300000AF0AAF8CDE90E019DED180B8DED0C0B1E
:103310009DED0C0B53EC102B9DED0E0B51EC100B97
:1033200009F0A4FDCDE91001DE4890ED040B8DED10
:103330000E0B9DED0E0B53EC102B9DED100B51EC75
:10334000100B09F0BBFAD74AC2E90401D64800685D
:103350000AF082F8CDE90E019DED1A0B8DED0C0BF4
:103360009DED0C0B53EC102B9DED0E0B51EC100B47
:1033700009F07CFDCDE91001CA4890ED060B8DEDFA
:103380000E0B9DED0E0B53EC102B9DED100B51EC25
:10339000100B09F093FAC34AC2E90601104690EDFA
:1033A000060B8DED0C0B90ED060B8DED0A0B9DEDD4
:1033B0000C0B53EC102B9DED0A0B51EC100B09F08C
:1033C00055FDCDE91001B74890ED040B8DED080BCC
:1033D00090ED040B8DED060B9DED080B53EC102BBF
:1033E0009DED060B51EC100B09F040FDCDE90C01F1
:1033F000AC4890ED020B8DED040B90ED020B8DEDC2
:10340000020B9DED040B53EC102B9DED020B51ECC8
:10341000100B09F02BFDCDE90801A24890ED000B3F
:103420008DED040B90ED000B8DED020B9DED040B6B
:1034300053EC102B9DED020B51EC100B09F016FD17
:10344000CDE906019DED080B53EC102B9DED060B0D
:1034500051EC100B09F032FACDE90A019DED0C0B8D
:1034600053EC102B9DED0A0B51EC100B09F026FAD2
:10347000CDE90E019DED100B53EC102B9DED0E0BC5
:1034800051EC100B09F01AFACDE912019DED120B67
:1034900008F00EF98DED120B824890ED000B8DEDCA
:1034A000100B9DED120B53EC102B9DED100B51ECFE
:1034B000100B09F0BFFA7B4A03C27A4890ED020B69
:1034C0008DED100B9DED120B53EC102B9DED100BA1
:1034D00051EC100B09F0AEFA724AC2E90201104633
:1034E00090ED040B8DED100B9DED120B53EC102B9A
:1034F0009DED100B51EC100B09F09CFA694AC2E9E2
:103500000401104690ED060B8DED100B9DED120B96
:1035100053EC102B9DED100B51EC100B09F08AFAB7
:10352000604AC2E90601104690ED060B8DED080BCE
:1035300090ED040B8DED060B9DED080B53EC102B5D
:103540009DED060B51EC100B09F090FCCDE90C0140
:10355000544890ED020B8DED080B90ED000B8DEDB6
:10356000060B9DED080B53EC102B9DED060B51EC5B
:10357000100B09F07BFCCDE90A019DED0C0B53EC1F
:10358000102B9DED0A0B51EC100B09F097F99FEDF4
:10359000470B53EC102BCDE90E019DED0E0B51ECBA
:1035A000100B09F063FCCDE910019DED100B06F046
:1035B0007BFD404880ED0C0B3A4890ED060B8DEDFD
:1035C000080B9FED3A1B9DED080B07F0E5F98DED1B
:1035D0000C0B344890ED040B8DED040B9FED331B69
:1035E0009DED040B07F0D8F98DED080B2D4890EDFB
:1035F000020B8DED000B9FED2D1B9DED000B07F0D9
:10360000CBF98DED040B274890ED000B8DED000BF1
:103610009FED261B9DED000B07F0BEF98DED020B13
:103620009DED040B53EC102B9DED020B51EC100B98
:1036300009F028FECDE906019DED080B53EC102B97
:103640009DED060B51EC100B09F038F9CDE90A019C
:103650009DED0C0B53EC102B9DED0A0B51EC100B58
:1036600009F010FECDE910010E4890ED060B8DED2E
:10367000060B90ED000B8DED040B9DED060B53EC4E
:10368000102B9DED040B51EC100B09F0EFFBCDE975
:103690000A01044890ED040B8DED060B90ED020B32
:1036A0000AE00000001600205C000020000000007E
:1036B00000000040181500208DED040B9DED060B59
:1036C00053EC102B9DED040B51EC100B09F0CEFBCD
:1036D000CDE908019DED0A0B53EC102B9DED080B75
:1036E00051EC100B09F0CEFD9FEDFE0B53EC102BAF
:1036F000CDE90C019DED0C0B51EC100B09F0B6FB64
:10370000CDE90E019DED101B9DED0E0B06F0E8FFBF
:10371000F64880ED0E0BF64890ED060B8DED080B8C
:103720001FED1E1B9DED080B07F036F98DED0C0B00
:10373000EF4890ED040B8DED040B1FED241B9DED68
:10374000040B07F029F98DED080BE94890ED020B09
:103750008DED000B1FED2B1B9DED000B07F01CF9F1
:103760008DED040BE24890ED000B8DED000B1FED8D
:10377000311B9DED000B07F00FF98DED020B9DED58
:10378000040B53EC102B9DED020B51EC100B09F0C8
:1037900079FDCDE906019DED080B53EC102B9DED55
:1037A000060B51EC100B09F06DFDCDE90A019DED02
:1037B0000C0B53EC102B9DED0A0B51EC100B09F088
:1037C0007DF8CDE91001CA4890ED040B8DED060B94
:1037D00090ED000B8DED040B9DED060B53EC102BC3
:1037E0009DED040B51EC100B09F040FBCDE90A01F3
:1037F000BF4890ED060B8DED060B90ED020B8DEDA5
:10380000040B9DED060B53EC102B9DED040B51ECBE
:10381000100B09F02BFBCDE908019DED0A0B53ECD1
:10382000102B9DED080B51EC100B09F02BFD9FEDBB
:10383000AD0B53EC102BCDE90C019DED0C0B51ECB5
:10384000100B09F013FBCDE90E019DED101B9DED52
:103850000E0B06F045FFA54880ED100B90ED0E0B0A
:103860008DED080B9DED080B07F0BEFE8DED0C0BEA
:103870009E4890ED0C0B8DED040B9DED040B07F0B5
:10388000B3FE8DED080B994890ED100B8DED040BF8
:103890009DED040B07F0A8FE8DED060B9DED080BCA
:1038A00053EC102B9DED060B51EC100B09F0DEFADA
:1038B000CDE90A019DED0C0B53EC102B9DED0A0B8D
:1038C00051EC100B09F0D2FACDE91001874890EDC8
:1038D0000E0B8DED080B9DED080B06F0F9FF8DED3D
:1038E0000C0B824890ED100B8DED080B9DED080B35
:1038F00006F0EEFF8DED0A0B9DED0C0B53EC102B3B
:103900009DED0A0B51EC100B09F0B0FACDE90E0158
:103910009DED100B53EC102B9DED0E0B51EC100B8D
:1039200009F0B0FC734A03C2704890ED0E0B8DEDA8
:10393000080B9DED080B06F0CBFF8DED0C0B6B48D3
:1039400090ED0C0B8DED040B9DED040B07F04CFE80
:103950008DED080B654890ED100B8DED040B9DED82
:10396000040B07F041FE8DED060B9DED080B53ECAB
:10397000102B9DED060B51EC100B09F077FACDE9F9
:103980000A019DED0C0B53EC102B9DED0A0B51EC35
:10399000100B09F06BFACDE91001544890ED0E0BB5
:1039A0008DED080B9DED080B07F01EFE8DED0C0B49
:1039B0004E4890ED100B8DED080B9DED080B06F0B9
:1039C00087FF8DED0A0B9DED0C0B53EC102B9DED3D
:1039D0000A0B51EC100B09F049FACDE90E019DEDEF
:1039E000100B53EC102B9DED0E0B51EC100B08F04F
:1039F00065FF414A03C23D4890ED0C0B8DED0C0B69
:103A00009DED0C0B06F064FF8DED100B374890ED2B
:103A1000100B8DED0A0B9DED0A0B07F0E5FD8DED0A
:103A20000C0B9DED0C0B51EC100B08F03BFFCDE99E
:103A30000E019DED100B53EC102B9DED0E0B51EC78
:103A4000100B09F013FA2D4A03C2284890ED0E0B13
:103A50008DED0C0B9DED0C0B07F0C6FD8DED100BE5
:103A6000224890ED0C0B8DED0A0B9DED0A0B06F034
:103A70002FFF8DED0C0B9DED0C0B51EC100B08F096
:103A800011FFCDE90E019DED100B53EC102B9DEDB8
:103A90000E0B51EC100B09F0E9F9194A03C2134857
:103AA00090ED0E0B8DED0C0B9DED0C0B06F010FF49
:103AB0008DED100B0D4890ED0C0B8DED0C0B9DED6D
:103AC0000C0B06F005FF8DED0E0B9DED100B53EC6E
:103AD000102B9DED0E0B51EC100B09F0C7F9094AA4
:103AE00003C211E000000000000000C01815002013
:103AF000001600207000002088000020A000002098
:103B000078000020900000207E4890ED0C0B8DED99
:103B1000100B9DED100B07F067FD7B4880ED000B4F
:103B2000784890ED0E0B8DED080B9DED080B07F01E
:103B30005BFD8DED0C0B734890ED0C0B8DED040BC4
:103B40009DED040B07F050FD8DED080B6D4890EDD9
:103B5000100B8DED040B9DED040B06F0B9FE8DED01
:103B6000060B9DED080B53EC102B9DED060B51EC55
:103B7000100B09F07BF9CDE90A019DED0C0B53EC1C
:103B8000102B9DED0A0B51EC100B09F06FF9CDE9EC
:103B900010015C4890ED0E0B8DED080B9DED080BB0
:103BA00006F096FE8DED0C0B564890ED100B8DED4A
:103BB000080B9DED080B07F017FD8DED0A0B9DED31
:103BC0000C0B53EC102B9DED0A0B51EC100B09F074
:103BD0004DF9CDE90E019DED100B53EC102B9DED31
:103BE0000E0B51EC100B08F069FE484A03C2454821
:103BF00090ED0E0B8DED080B9DED080B06F068FEA9
:103C00008DED0C0B3F4890ED0C0B8DED040B9DEDF5
:103C1000040B07F0E9FC8DED080B3A4890ED100B12
:103C20008DED040B9DED040B06F052FE8DED060BA1
:103C30009DED080B53EC102B9DED060B51EC100B7A
:103C400009F014F9CDE90A019DED0C0B53EC102B92
:103C50009DED0A0B51EC100B09F008F9CDE91001AC
:103C6000284890ED0E0B8DED080B9DED080B07F02D
:103C7000BBFC8DED0C0B234890ED100B8DED080B6C
:103C80009DED080B07F0B0FC8DED0A0B9DED0C0BC4
:103C900053EC102B9DED0A0B51EC100B09F0E6F8DC
:103CA000CDE90E019DED100B53EC102B9DED0E0B8D
:103CB00051EC100B09F0E6FA154A03C2114890EDD9
:103CC0000C0B8DED0C0B9DED0C0B06F001FE8DED3C
:103CD000100B0C4890ED100B8DED0C0B9DED0C0BAB
:103CE00006F0F6FD8DED0E0B9DED100B53EC102B39
:103CF0009DED0E0B51EC100B09F0B8F8054A03C20C
:103D000028B010BD18150020A80000208000002059
:103D100098000020B000002010B503F027FD04F04B
:103D200089FE10BD7CB505460C460121042004F037
:103D30008BFA0021084600F033FAB6227E210020DB
:103D400000F060FAB6221421002000F05BFA012096
:103D500008F043F90021084600F022FA00227C21F5
:103D6000104600F04FFA012008F037F9A92240214F
:103D7000002000F047FA2A464121002000F042FAD4
:103D800004227D21002000F03DFA22460F2101206F
:103D900000F038FA06221021012000F033FA282022
:103DA000009000208DF8040003208DF8050002200B
:103DB0008DF8070069461D4801F0DAFE1DB906209E
:103DC0001B49088010E0012D03D10C201849088000
:103DD0000AE0022D03D118201549088004E0032DC4
:103DE00002D1302012490880042C03D1FA20114955
:103DF000088019E0032C04D14FF4FA700D490880B3
:103E000012E0022C04D14FF47A700A4908800BE0CA
:103E1000012C04D14FF4FA600649088004E01CB973
:103E20004FF47A60034908807CBD0000000802401E
:103E3000240000202600002010B52DED0A8B04463A
:103E4000062322461221002000F070F920786178C4
:103E500040EA012000B2E080A078E17840EA012049
:103E600000B220812079617940EA012000B26081AE
:103E7000022322462221002000F058F960782178A0
:103E800040EA01204011A4F84800B4F9480000EECF
:103E9000100AF8EEC00AB4EE001AB3EE070A00EEFC
:103EA000810A10EE101A084609F0D6FAC4E9140186
:103EB000062322460221012000F038F9207861789B
:103EC00040EA012000B22085A078E17840EA012094
:103ED00000B260852079617940EA012000B2A085B6
:103EE0008B48B0F9000008F05AFF41EC1A0BB4F906
:103EF000060008F054FF41EC1C0B9FED860B53ECC1
:103F0000102B08F097FD41EC1B0B53EC1A2B08F01B
:103F1000ADFF41EC190B9FED810B53EC102B08F01A
:103F2000A5FF41EC180B7F4890ED001BB0EE410A55
:103F3000F0EE610A53EC102B51EC180B09F0A2F9CA
:103F4000C4E904017248B0F9000008F028FF41EC10
:103F50001A0BB4F9080008F022FF41EC1C0B9FED8E
:103F60006D0B53EC102B08F065FD41EC1B0B53EC73
:103F70001A2B08F07BFF41EC190B9FED680B53ECFB
:103F8000102B08F073FF41EC180B664890ED021BF4
:103F9000B0EE410AF0EE610A53EC102B51EC180B15
:103FA00009F070F9C4E906015948B0F9000008F0B9
:103FB000F6FE41EC1A0BB4F90A0008F0F0FE41ECF1
:103FC0001C0B9FED540B53EC102B08F033FD41EC10
:103FD0001B0B53EC1A2B08F049FF41EC190B9FED1A
:103FE0004F0B53EC102B08F041FF41EC180B4D48E0
:103FF00090ED041BB0EE410AF0EE610A53EC102B79
:1040000051EC180B09F03EF9C4E908014648B0F933
:10401000000008F0C4FE41EC190BB4F9280008F0C8
:10402000BEFE41EC1B0B9FED3B0B53EC102B08F03D
:1040300001FD41EC1A0B53EC192B08F017FF41EC72
:10404000180B384890ED061BB0EE410AF0EE610AFD
:1040500053EC102B51EC180B09F014F9C4E90C01C6
:104060003148B0F9000008F09AFE41EC190BB4F9A0
:104070002A0008F094FE41EC1B0B9FED260B53EC3D
:10408000102B08F0D7FC41EC1A0B53EC192B08F05D
:10409000EDFE41EC180B234890ED081BB0EE410AF1
:1040A000F0EE610A53EC102B51EC180B09F0EAF812
:1040B000C4E90E011C48B0F9000008F070FE41ECA4
:1040C000190BB4F92C0008F06AFE41EC1B0B9FEDB4
:1040D000110B53EC102B08F0ADFC41EC1A0B53EC18
:1040E000192B08F0C3FE41EC180B0E4890ED0A1B8B
:1040F000B0EE410AF0EE610A53EC102B51EC180BB4
:1041000009F0C0F8C4E91001BDEC0A8B10BD000035
:104110002400002000000000E0FFEF4005A3923AD9
:10412000019D2340B0150020260000202DE9F0411C
:1041300004460F4615461E461CB900201649086065
:1041400003E00020144908310860012007F052FF05
:1041500047F08001114804F0E3FB1CB900210F482F
:1041600004F0DEFB07E000210C4804F0D9FB2870C6
:104170006D1C701EC6B2002EF5DC1CB9012006496C
:10418000086003E00120044908310860012007F0BD
:1041900031FFBDE8F081000088024142003001405B
:1041A00070B504460D461CB900201349086003E0B1
:1041B000002011490831086045F080010F4804F0E3
:1041C000AFFB1CB900210D4804F0AAFB00210B48ED
:1041D00004F0A6FB0A4908701CB9012006490860D2
:1041E00003E00120044908310860012007F002FFC4
:1041F0000348007870BD0000880241420030014051
:104200002800002070B504460D4616461CB9002053
:104210000F49086003E000200D49083108600120C3
:1042200007F0E8FE05F07F010A4804F079FB31460B
:10423000084804F075FB1CB901200549086003E03B
:1042400001200349083108600A2007F0D3FE70BD41
:1042500088024142003001402DE9F04F2DED048BE2
:1042600087B006460C46B6F80EA0A07B80030FFA76
:1042700080F999FBFAF0A0F580401FFA80FB0FFA55
:104280008BF515FB05F73846F91707EB5161C91196
:1042900094F90D2051430691207BC00105900598AB
:1042A00015FB00F00490049A06998818C11700EBDA
:1042B000D151491201F58011039194F90200A03007
:1042C0000290DDE9022101FB02F0C11700EB115160
:1042D00009130191B6F90800019900FB01F8404665
:1042E0004FEAE87108EBD14149130DB294F900107F
:1042F00005EBC100C11700EB11710D11284608F044
:104300004EFD41EC190B9FED0A0B53EC102B08F0FE
:1043100091FB41EC180B9FED080B53EC102B08F0B0
:10432000A5FD41EC100B07B0BDEC048BBDE8F08F90
:10433000000000000000B040000000000050944069
:104340002DE9F04F2DED048B85B006460C46B6F8EE
:104350000E90E089800390FBF9F004900498A0F59A
:1043600080401FFA80FA0FFA8AF515FB05F73846E8
:10437000F91707EB5161C91194F90D2051430391CD
:10438000207B4FEAC01B039915FB0B10C11700EBF4
:10439000D1514912029194F90300A0300190029981
:1043A00001F58011019A01FB02F0C11700EB1151D8
:1043B00009130091B6F90A00009900FB01F8404684
:1043C0004FEAE87108EBD14149130DB294F901109D
:1043D00005EBC100C11700EB11710D11284608F063
:1043E000DEFC41EC190B9FED0A0B53EC102B08F08F
:1043F00021FB41EC180B9FED080B53EC102B08F040
:1044000035FD41EC100B05B0BDEC048BBDE8F08F21
:10441000000000000000B040000000000050944088
:104420002DE9F05F2DED048B05460C46E889E18906
:10443000401A0FFA80F9218911FB09F0C11700EB2E
:1044400091718E10B5F90C00B4F90A10401AC70327
:10445000A088E98909B2490000FB01F808F500408D
:10446000C11700EB11414FEA214AB81BB4F90610FD
:10447000514490FBF1FB584608F091FC41EC190BBC
:104480009FED090B53EC102B08F0D4FA41EC180BFC
:104490009FED070B53EC102B08F0E8FC41EC100BE0
:1044A000BDEC048BBDE8F09F00000000C0FFDF40C2
:1044B000000000000088B34010B5012007F09AFD0D
:1044C00082214B2000F04EF90A2007F086FD0121E1
:1044D0004B2000F047F90A2007F07FFD00214E2015
:1044E00000F040F9074800F0DBF81721512000F0F8
:1044F00039F95221084600F035F928214C2000F006
:1045000031F910BD5002002010B52DED048B04468A
:1045100008222146422000F09DF82078617840EA88
:10452000012000B22081B4F90800C0102081A078D9
:10453000E17840EA012000B26081B4F90A00C010BD
:1045400060812079617940EA012000B2A081B4F94C
:104550000C004010A081A079E17940EA0120801090
:10456000E0813A492046FFF777FEB0EE409AF0EE40
:10457000609A374890ED001BB0EE410AF0EE610AF8
:1045800053EC102B51EC190B08F07CFE41EC180B8E
:104590002F4890ED061BB0EE410AF0EE610A53EC95
:1045A000102B51EC180B08F061FCC4E904012749F9
:1045B0002046FFF7C5FEB0EE409AF0EE609A244820
:1045C00090ED021BB0EE410AF0EE610A53EC102BA5
:1045D00051EC190B08F056FE41EC180B1C4890EDFD
:1045E000081BB0EE410AF0EE610A53EC102B51ECBF
:1045F000180B08F03BFCC4E9060114492046FFF7FC
:104600000FFFB0EE409AF0EE609A114890ED041B57
:10461000B0EE410AF0EE610A53EC102B51EC190B8D
:1046200008F030FE41EC180B094890ED0A1BB0EE83
:10463000410AF0EE610A53EC102B51EC180B08F014
:1046400015FCC4E90801BDEC048B10BD500200202C
:104650006002002070B506460C46154600200E4943
:104660000860012007F0C6FC46F080010B4804F00A
:1046700057F907E00021094804F052F92070641C42
:10468000681EC5B2002DF5DC0120034908600A2030
:1046900007F0B0FC70BD00008002414200300140D4
:1046A00030B585B00446002004900390009001903E
:1046B000029000254FF47A7007F08FFC022204A9C3
:1046C0005D20FFF7C7FF042203A96220FFF7C2FFA6
:1046D0000A2269466820FFF7BDFF9DF8100040B22E
:1046E00020709DF8110040B260709DF80E0040B23D
:1046F000A0709DF80F0040B2E0709DF80300050225
:104700009DF802002843A0809DF8010005029DF855
:104710000000284300B2E0809DF8070005029DF8E4
:104720000600284300B220819DF80D0005029DF887
:104730000C00284300B260819DF8090020739DF8A9
:10474000080040B260739DF8050000F07F004FF64E
:10475000FF7101EA00259DF804002843E08105B0BF
:1047600030BD000070B504460D4600200A490860BF
:10477000012007F03FFC04F07F01084804F0D0F866
:104780002946064804F0CCF801200549C1F880020A
:104790000A2007F02FFC70BD80024142003001402A
:1047A0000000414230B52DED048B87B004460D4624
:1047B000152201A9312000F009FC9DF804009DF8A4
:1047C000051040EA012020809DF806009DF80710A2
:1047D00040EA012060809DF8080040B220719DF8F9
:1047E00009009DF80A1040EA012000B2E0809DF81F
:1047F0000B009DF80C1040EA012000B220819DF8CA
:104800000D0040B2A0729DF80E0040B2E0729DF81B
:104810000F009DF8101040EA0120A0819DF81100C2
:104820009DF8121040EA0120E0819DF8130040B28B
:1048300020749DF8140040B260749DF815009DF836
:10484000161040EA012000B260829DF8170040B2C5
:1048500020759DF8180040B260759FED800BB0EE9A
:10486000408AF0EE608A208808F0B0FA41EC190B1B
:1048700053EC182B08F0DEF8C5E900019FED790B29
:10488000B0EE408AF0EE608A608808F09FFA41EC52
:10489000190B53EC182B08F0CDF8C5E902019FED78
:1048A000730BB0EE408AF0EE608A94F9040008F0D1
:1048B00076FA41EC190B53EC182B08F0BBF8C5E95C
:1048C00004019FED6C0BB0EE408AF0EE608AB4F903
:1048D0000610A1F5804008F062FA41EC190B53EC88
:1048E000182B08F0A7F8C5E906019FED640BB0EEA0
:1048F000408AF0EE608AB4F90810A1F5804008F013
:104900004EFA41EC190B53EC182B08F093F8C5E95B
:1049100008019FED5C0BB0EE408AF0EE608A94F9DE
:104920000A0008F03CFA41EC190B53EC182B08F084
:1049300081F8C5E90A019FED550BB0EE408AF0EE13
:10494000608A94F90B0008F02AFA41EC190B53EC39
:10495000182B08F06FF8C5E90C019FED4E0BB0EE77
:10496000408AF0EE608AA08908F030FA41EC190B19
:1049700053EC182B08F05EF8C5E90E019FED470BCC
:10498000B0EE408AF0EE608AE08908F01FFA41EC50
:10499000190B53EC182B08F04DF8C5E910019FEDE9
:1049A000410BB0EE408AF0EE608A94F9100008F0F6
:1049B000F6F941EC190B53EC182B08F03BF8C5E95C
:1049C00012019FED3A0BB0EE408AF0EE608A94F946
:1049D000110008F0E4F941EC190B53EC182B08F026
:1049E00029F8C5E914019FED210BB0EE408AF0EEE5
:1049F000608AB4F9120008F0D2F941EC190B53ECBB
:104A0000182B08F017F8C5E916019FED180BB0EE4A
:104A1000408AF0EE608A94F9140008F0C0F941EC85
:104A2000190B53EC182B08F005F8C5E918019FED98
:104A3000210BB0EE408AF0EE608A94F9150008F080
:104A4000AEF941EC190B53EC182B07F0F3FFC5E955
:104A50001A0107B0BDEC048B30BD0000000000005F
:104A60000000703F000000000000D0410000000086
:104A70000000F04200000000000030410000000093
:104A80000000C041000000000000F04100000000F4
:104A900000004042000000000000C03F0000000095
:104AA00000005040000000000000704000000000C6
:104AB0000000E040000000000000004410B5144970
:104AC0001448FFF76FFEB6217E2000F033FB012073
:104AD00007F083FA01211C2000F02CFB01211D208E
:104AE00000F028FB02211F2000F024FB33211B20B3
:104AF00000F020FB142007F070FA9FED070B084828
:104B000080ED000B00F06CF8054880ED000B10BD47
:104B10008803002070030020000000000000000057
:104B20003000002010B52DED0C8B9FED260BB0EE64
:104B3000408AF0EE608A9FED250BB0EE40AAF0EEC1
:104B400060AA53EC1A2B51EC180B07F0B7FE41EC9E
:104B50001B0B53EC1B2B51EC180B07F06BFF41ECBC
:104B6000190B53EC192B9FED1B0B51EC100B08F09C
:104B700089FB41EC1D0B194890ED201BB0EE410A5A
:104B8000F0EE610A53EC102B51EC1D0B08F06EF99E
:104B900041EC1B0B00F024F8B0EE40DAF0EE60DAE6
:104BA00053EC192B51EC1D0B08F060F941EC1C0B78
:104BB00053EC1B2B07F082FE41EC100BBDEC0C8B71
:104BC00010BD00007B14AE47E17A843F9A99999911
:104BD0009999B93F000000000000F03F181500202F
:104BE00010B52DED0C8B2B4800F06EF82A4890ED97
:104BF000000B53EC102B9FED290B51EC100B07F021
:104C000019FF41EC1C0B234890ED041BB0EE410A48
:104C1000F0EE610A9FED231B53EC112B51EC100BAE
:104C200007F008FF41EC1D0BB0EE4C1AF0EE6C1AC9
:104C3000B0EE4D0AF0EE6D0A05F0AEFEB0EE40BAF1
:104C4000F0EE60BA9FED190B53EC102B51EC1B0BDF
:104C500008F040FA41EC1A0B9FED160B53EC102BA9
:104C600008F004F941EC190B9FED140B53EC102BD9
:104C700007F0E0FE41EC180B124890ED000B53ECEE
:104C8000102B51EC180B08F0FDFA41EC100BBDECA9
:104C90000C8B10BD0004002040D6000823C95AE048
:104CA0007EDAFD3F00000000D0BCF84000000000AC
:104CB0000000F03F666666666602724039B4C876E8
:104CC000BE9F7A3F3000002010B52DED108B84B0D0
:104CD0000446204600F0CAF900BF032000F09EF908
:104CE00000200028F9D103222146042000F06EF9AB
:104CF000A0780004617840EA0120217808436060D0
:104D0000AD4890ED1C2BB0EE420AF0EE620A90ED39
:104D1000102BB0EE421AF0EE621A53EC102B51EC4D
:104D2000110B08F0A3F841EC180BA34890ED1C1BE5
:104D3000B0EE410AF0EE610A9FEDA01B05F02CFEDB
:104D4000B0EE40CAF0EE60CA9B4890ED121BB0EE88
:104D5000410AF0EE610A53EC102B51EC1C0B08F0E9
:104D600085F841EC190B944890ED1C1BB0EE410AFC
:104D7000F0EE610A9FED931B05F00EFEB0EE40CA07
:104D8000F0EE60CA8C4890ED141BB0EE410AF0EED4
:104D9000610A53EC102B51EC1C0B08F067F841EC46
:104DA0001A0B854890ED0E1BB0EE410AF0EE610A39
:104DB00053EC182B51EC100B07F080FD41EC1D0B50
:104DC00053EC192B07F07AFD41EC1C0B53EC1A2B1A
:104DD00007F074FDCDE90201774890ED1C2BB0EE91
:104DE000420AF0EE620A90ED082BB0EE421AF0EEA5
:104DF000621A53EC102B51EC110B08F037F841EC10
:104E0000180B6D4890ED1C1BB0EE410AF0EE610AE4
:104E10009FED6A1B05F0C0FDB0EE40CAF0EE60CA1F
:104E2000654890ED0A1BB0EE410AF0EE610A53ECC2
:104E3000102B51EC1C0B08F019F841EC190B5E48D3
:104E400090ED1C1BB0EE410AF0EE610A9FED5D1B78
:104E500005F0A2FDB0EE40CAF0EE60CA564890EDF3
:104E60000C1BB0EE410AF0EE610A53EC102B51EC32
:104E70001C0B07F0FBFF41EC1A0B4F4890ED061B93
:104E8000B0EE410AF0EE610A53EC182B51EC100B16
:104E900007F014FD41EC1F0B53EC192B07F00EFD2E
:104EA00041EC1E0B53EC1A2B07F008FD41EC1C0BD8
:104EB000606807F074FF41EC1D0B53EC1C2B07F0EE
:104EC000D5FFCDE90001606807F069FF41EC1C0BDC
:104ED0009FED3A1BB0EE4C0AF0EE6C0A05F05CFD5B
:104EE000B0EE408AF0EE608A334890ED1C2BB0EEB5
:104EF000420AF0EE620A90ED182BB0EE421AF0EE84
:104F0000621A53EC102B51EC110B07F0AFFF41EC80
:104F10001C0B294890ED161BB0EE410AF0EE610A19
:104F200053EC102B51EC1C0B07F0C8FC41EC190B97
:104F300053EC192B51EC180B07F098FF41EC1A0BAE
:104F4000606807F02CFF41EC1E0B9FED1E1BB0EEBE
:104F50004E0AF0EE6E0A05F01FFDB0EE40DAF0EEFC
:104F600060DA154890ED1A1BB0EE410AF0EE610AC6
:104F700053EC102B51EC1D0B07F078FF41EC1C0B90
:104F800053EC1A2B07F09AFC41EC1B0B9DED000B28
:104F900053EC102B9DED020B51EC100B07F08EFC27
:104FA00041EC1C0B53EC1B2B07F088FCC4E90401FB
:104FB00004B0BDEC108B10BD880300200000000081
:104FC00000000040000000000000084070B50646E8
:104FD0000C46154600200F490860012007F00AF82A
:104FE00046F080010C4803F09BFC00210A4803F0C6
:104FF00097FC07E00021084803F092FC2070641C35
:10500000681EC5B2002DF5DC01200249086006F0DB
:10501000F1FF70BD840241420030014010B50446EA
:1050200000200E490860012006F0E4FF44F08001F2
:105030000B4803F075FC0021094803F071FC0021C6
:10504000074803F06DFC0749087001200649C1F8C4
:10505000840206F0CFFF0348007810BD840241426D
:1050600000300140380000200000414210B52DED15
:10507000088B044600BF0320FFF7D0FF0020002864
:10508000F9D1032221460720FFF7A0FFA0780004F2
:10509000617840EA0120217808436060606807F089
:1050A0007EFE41EC1A0B224890ED001BB0EE410A47
:1050B000F0EE610A53EC102B51EC1A0B08F0E2F8F9
:1050C00041EC180B1A4890ED021BB0EE410AF0EECD
:1050D000610A53EC102B51EC180B07F0C7FE41ECA2
:1050E000190B53EC182B51EC180B07F0BFFE41ECD9
:1050F0001B0B0F4890ED041BB0EE410AF0EE610A65
:1051000053EC102B51EC1B0B07F0B0FE41EC1A0BCB
:1051100053EC192B07F0D2FB054AC2E91C011046DB
:1051200090ED1C0B84ED020BBDEC088B10BD000054
:105130008803002070B504460D4600BF0320FFF72A
:105140006DFF00F010000028F8D0012006F052FF9B
:1051500000200A490860012006F04CFF04F07F019E
:10516000074803F0DDFB2946054803F0D9FB012081
:105170000449C1F8840206F03DFF70BD840241423B
:10518000003001400000414210B58AB004460121C0
:10519000022003F059F80121042003F065F84FF4D0
:1051A0008070089002208DF8240003208DF82500DF
:1051B00000208DF8260002208DF8270008A91B4842
:1051C00000F0D6FC02220821184800F019FDD12079
:1051D000ADF814000020ADF8160040F2E73006905C
:1051E0000020ADF81C0005A9114803F0ABFF6020BA
:1051F000ADF800000120ADF802000020ADF80C0071
:1052000069460B4803F0F0FE0821094803F03CFF13
:105210000121074803F008FE2146054803F016FE69
:105220005021034803F087FF0AB010BD000402407C
:105230000008004000BFFEE710B5044686A12046E6
:10524000FBF7B0F928B901208649087003F0F2FB9A
:1052500000E185A12046FBF7A5F928B90A2081497C
:10526000087003F0E7FBF5E082A12046FBF79AF90E
:1052700028B920207B49087003F0DCFBEAE080A11C
:105280002046FBF78FF918B91E2076490870E1E037
:1052900081A12046FBF786F918B91F2071490870D3
:1052A000D8E083A12046FBF77DF910B903F0ECFBB1
:1052B000D0E082A12046FBF775F910B904F09EFDFD
:1052C000C8E083A12046FBF76DF910B904F042FD58
:1052D000C0E083A12046FBF765F948B90020844966
:1052E000086004F011FD01208249C1F8AC02B1E070
:1052F00081A12046FBF756F910B902F037FAA9E070
:105300007FA12046FBF74EF928B946205549087081
:10531000FEF702FD9EE080A12046FBF743F928B985
:10532000492050490870FEF7F7FC93E081A1204620
:10533000FBF738F928B948204A490870FCF75AFFAA
:1053400088E083A12046FBF72DF928B94A2045497A
:10535000087004F0BFFC7DE083A12046FBF722F932
:1053600028B94B203F49087002F042F972E084A14D
:105370002046FBF717F918B969203A49087069E027
:1053800083A12046FBF70EF918B96A203549087049
:1053900060E083A12046FBF705F910B900F0F8FAA8
:1053A00058E084A12046FBF7FDF828B964202D4978
:1053B000087000F0ADFA4DE082A12046FBF7F2F84C
:1053C00038B96520274908704FF4803000F0B4F9EF
:1053D00040E07FA12046FBF7E5F828B914202149D9
:1053E000087001F017F935E07CA12046FBF7DAF8E8
:1053F00010B902F03BF92DE07CA12046FBF7D2F872
:1054000010B902F01BF925E07CA12046FBF7CAF891
:1054100028B966201349087001F0FEFE1AE07DA14C
:105420002046FBF7BFF810B901F018FF12E07FA18A
:105430002046FBF7B7F810B901F070FE0AE07FA133
:105440002046FBF7AFF810B901F080FE02E0002023
:105450000449087010BD0000424D495F5445535443
:1054600000000000400000204144584C5F54455368
:1054700054000000424D4D5F54455354000000005D
:105480004D61676E657469736D4F66667365745FB1
:10549000494E4954000000004D61676E65746973A0
:1054A0006D4F66667365745F53544F500000000083
:1054B00053616D706C655F53544F500057323551D6
:1054C0005F44617461436F6E73756C74000000001B
:1054D000573235515F44617461436C6561720000FD
:1054E000573235515F4368697045726173650000DA
:1054F000AC02404200004042515F494E4954000016
:105500004174746974756465536F6C7574696F6EFA
:105510005F544553540000004174746974756465A8
:10552000436F6D70656E736174696F6E5F54455340
:1055300054000000416363656C65726174696F6E4D
:10554000536F6C7574696F6E5F544553540000005F
:1055500056656C6F63697479536F6C7574696F6E9F
:105560005F54455354000000506F736974696F6E47
:10557000536F6C7574696F6E5F544553540000002F
:10558000494D554F66667365745F494E4954000036
:10559000494D554261636B4F666673657400000048
:1055A000464D554F66667365745F4445494E495490
:1055B00000000000446174615F53544F52414745FD
:1055C00000000000446174615F52454144000000E6
:1055D0004865696768745F5445535400506F736938
:1055E00074696F6E5F494E4954000000506F7369D3
:1055F00074696F6E5F4445494E4954005061726151
:10560000666F696C436F6E74726F6C5F5354415276
:105610005400000050617261666F696C436F6E7474
:10562000726F6C5F53544F50000000004D6F746FE9
:105630007243616C5F535441525400004D6F746F5C
:105640007243616C5F53544F5000000010B52DED54
:10565000068B324890ED0C2BB0EE420AF0EE620A57
:1056600090ED002BB0EE421AF0EE621A53EC102BC4
:1056700051EC110B07F006FE41EC1A0B284890ED97
:10568000000B53EC102B51EC1A0B07F0EFFB41EC25
:10569000190B9FED240B53EC102B07F0CBF941ECC9
:1056A000180B9FED220B53EC102B07F0DFFB214A68
:1056B000C2E91A01194890ED0E2BB0EE420AF0EE45
:1056C000620A90ED022BB0EE421AF0EE621A53EC31
:1056D000102B51EC110B07F0D5FD41EC1A0B1048C3
:1056E00090ED000B53EC102B51EC1A0B07F0BEFBA6
:1056F00041EC190B9FED0B0B53EC102B07F09AF9B3
:1057000041EC180B9FED090B53EC102B07F0AEFB8F
:10571000084AC2E91801BDEC068B10BD2803002021
:1057200048D60008000000000080664000000040ED
:10573000104E5841181500202DE9F04104461CA0D8
:1057400004F01EFA1F4804F01BFA26E080221E49CE
:10575000204604F089FB1C4E3068401C00B920E054
:1057600041461AA004F00CFA174D00270DE095ED04
:10577000001BB0EE410AF0EE610A53EC102B14A0AE
:1057800004F0FEF90835781CC7B2102FEFDB0CA02F
:1057900004F0F6F9803408F1010810480078652813
:1057A000D4D000BF0EA004F0EBF9BDE8F0810000FA
:1057B000446174612069732073656E64696E67214A
:1057C0000D0A0000ECD900081804002025753A00E5
:1057D0002020252B302E34660000000040000020E1
:1057E0004461746120686173206265656E20736531
:1057F0006E646564210D0A0010B5A0B06C463E4889
:1058000090ED180B8DED000B90ED1A0B8DED020B4A
:1058100090ED200B8DED040B384890ED080B8DEDCD
:10582000060B90ED060B8DED080B334890ED000B49
:105830008DED0A0B90ED020B8DED0C0B90ED040B32
:105840008DED0E0B90ED060B8DED100B90ED080B12
:105850008DED120B90ED0A0B8DED140B90ED0C0BF2
:105860008DED160B90ED100B8DED180B90ED0E0BD2
:105870008DED1A0B90ED220B8DED1C0B90ED240B92
:105880008DED1E0B00BF1E480078C007000E1D499D
:1058900008800AE014F8010B1B491A4A1288885440
:1058A00018480088401C174908801548007800F007
:1058B0000100401C13490988B1EBC01FEAD310480E
:1058C000007800F0010078B90D48006860B14FF42D
:1058D00080720D490D48006804F0FCFA0B4800681E
:1058E00000F580700949086005480068401C0449BB
:1058F000086020B010BD000018150020280300200B
:10590000440000205000002018040020480000201F
:1059100010B501F02BFF0020074908604FF48030DC
:105920000649086000200649086006A004F028F92E
:1059300003F080F810BD0000440000204800002063
:105940004C000020446174612069732073746F728D
:105950006167696E67210D0A000000007047000052
:1059600030B10749096841F48071054A116005E0CA
:105970000349096821F48071014A116070470000F1
:10598000003C0240014A107070470000003C024099
:1059900010B59FED240B254880ED000B9FED210BEA
:1059A00080ED020B9FED1F0B80ED040B9FED1D0B97
:1059B00080ED060B9FED1B0B80ED080B9FED190B87
:1059C00080ED0A0B9FED170B80ED0C0B9FED150B77
:1059D00080ED0E0B9FED130B80ED100B144890ED36
:1059E000000B124880ED120B9FED0E0B114880ED5D
:1059F000000B9FED0C0B80ED020B9FED0A0B80ED71
:105A0000040B9FED0D0B80ED060B9FED0B0B80ED56
:105A1000080B9FED090B80ED0A0B09A004F0B0F80C
:105A200010BD00000000000000000000B0150020C4
:105A300040D6000860020020000000000000F03F97
:105A4000464D55206F6666736574206861732063E8
:105A50006C6561726564210D0A00000010B5244C6C
:105A600080222146002004F0FFF9B4EC020B21480B
:105A700080ED000BB4EC020B80ED020BB4EC020BDA
:105A800080ED040BB4EC020B80ED060BB4EC020BC2
:105A900080ED080BB4EC020B80ED0A0BB4EC020BAA
:105AA00080ED0C0BB4EC020B80ED0E0BB4EC020B92
:105AB00080ED100BB4EC020B80ED120BB4EC020B7A
:105AC0000D4880ED000BB4EC020B80ED020BB4EC42
:105AD000020B80ED040BB4EC020B80ED060BB4EC72
