:020000040800F2
:10000000001C0020D5020008B9620008D95B000876
:10001000FD5D0008554B0008D38300080000000078
:1000200000000000000000000000000087740008CD
:10003000955000080000000055630008A5780008EE
:10004000EF020008EF020008EF020008EF020008CC
:10005000EF020008EF020008EF020008EF020008BC
:10006000EF020008EF020008EF020008EF020008AC
:10007000EF020008EF020008EF020008EF0200089C
:10008000EF020008EF020008EF020008EF0200088C
:10009000EF020008EF020008EF020008EF0200087C
:1000A000EF020008EF020008EF020008EF0200086C
:1000B00011790008EF020008EF020008EF020008C3
:1000C000EF020008EF020008EF020008EF0200084C
:1000D000EF0200083D7E00089D7F00087181000846
:1000E000EF020008EF020008EF020008EF0200082C
:1000F000EF020008EF020008EF020008EF0200081C
:10010000EF020008EF020008EF020008EF0200080B
:10011000EF020008EF020008EF020008EF020008FB
:10012000EF020008EF020008EF020008EF020008EB
:10013000EF020008EF020008EF020008EF020008DB
:10014000EF020008EF020008EF020008EF020008CB
:10015000EF020008EF020008EF020008EF020008BB
:10016000EF020008EF020008EF020008EF020008AB
:10017000EF020008EF020008EF020008EF0200089B
:10018000EF020008EF02000800F002F800F092F819
:100190000AA090E8000C82448344AAF10107DA45E2
:1001A00001D100F087F8AFF2090EBAE80F0013F0A2
:1001B000010F18BFFB1A43F0010318479CBE000053
:1001C000BCBE0000103A24BF78C878C1FAD85207E4
:1001D00024BF30C830C144BF04680C6070470000C1
:1001E0000023002400250026103A28BF78C1FBD840
:1001F000520728BF30C148BF0B6070476E2900F01E
:100200000E83702900F08F8666290BF0AD84652976
:100210000BF0AA8467290BF0A78461290BF0A68450
:1002200003681B0A28BF41F08001692900F0C480DF
:10023000642900F0C180752900F0BE806F2900F0AC
:100240001C86782900F05B86E92900F0B785E4294F
:1002500000F0B485F52900F0B185EF2900F019868A
:10026000F82900F05A860368DB0928BF41F08001B5
:10027000632900F02685732900F02B85E32901F01E
:100280007380F32901F07880002070471FB50BF0D0
:1002900066FC00F053FE0400002000210AF0FEFD81
:1002A000401C6060002000210AF0E2FDE0601FBDFC
:1002B00010B510BD01F0FEF81146FFF7E7FF0AF098
:1002C0005DFB01F025F903B4FFF7F2FF03BC0AF070
:1002D00076FA00000948804709480047FEE7FEE734
:1002E000FEE7FEE7FEE7FEE7FEE7FEE7FEE7FEE7E6
:1002F00004480549054A064B70470000A9780008E4
:100300008901000800160020001C002000180020B1
:1003100000180020704700007CB51D4616460C00F2
:10032000009001D02044401E074B7B442A4669467A
:100330000190304600F09BFC05461CB10020694648
:1003400000F0A8FC28467CBD710900000FB40449E8
:1003500010B503AA029800F0C1FC10BC5DF814FBB4
:100360001000002070B50C460546012A05D02878FB
:10037000800600D5EA69002302E0012305E05B1C4A
:10038000934202D2E05C0028F9D1A869E618C01AAD
:10039000A861286A18442862284600F0AEF904E0F3
:1003A000D5E9012114F8010B9047B442F8D328464F
:1003B00000F0B9F970BD00002DE9F04106460024B7
:1003C00010687529314616A510D000F0BDF9002837
:1003D00002DA404213A507E031688A0701D512A569
:1003E00002E0490704D511A5012401E000F0B5F9A8
:1003F00000210A2206F1240709E0B0FBF2FCB0FB61
:10040000F2F302FB1C00303078541846491C0028D7
:10041000F3D123462A463046BDE8F04100F0A6B9A4
:10042000000000002D0000002B0000002000000054
:100430002DE9F05F894604464FF0000ADFF874B1F9
:10044000FB44C0F820A02046E1688847002874D00B
:10045000252806D0D4E901219047206A401C20625B
:10046000F1E700265F462046E168884720280546D8
:1004700007DB312D05D2781910F8200C08B106439E
:10048000F1E7B00701D526F00406C4F81CA0002748
:10049000C4F818A02A2D09D028460AF089F938B3E3
:1004A00004EB8708303DC8F8185019E059F8041BD0
:1004B000204604EB87029161E1688847012F0546D9
:1004C00018D1E069002820DA26F020061DE0D8F8CF
:1004D000180000EB800005EB40003038C8F8180029
:1004E0002046E168884705460AF062F90028EED107
:1004F000012F0AD02E2D08D12046E16888477F1CA5
:100500000546022F46F02006C4DBA069002803DA66
:10051000404246F00106A061F00701D026F0100627
:100520006C2D0BD0682D09D04C2D39D06A2D35D0CB
:10053000742D35D07A2D33D016E038E0E1682F469F
:1005400020468847B842054609D16C2F26D04FF483
:100550008060E168064320468847054604E06C2F2A
:100560001AD04FF4807006430DB3A5F1410019284D
:1005700002D8203546F400664A46294620462660C1
:100580004E46FFF73BFE80B101280BD0F61D26F04A
:10059000070000F1080956E74020E4E78020D8E78B
:1005A0000020D6E706F104094DE7284652E7206A05
:1005B000BDE8F09F2CB8000010B5431C02E010F815
:1005C000011B71B18107FAD14FF0013202C88C1AB8
:1005D0008C4314EAC211F9D0C01A0A0603D0C01E17
:1005E00010BDC01A10BD0A0401D0801E10BD090242
:1005F000FCD0401E10BD10B5203AC0F00B80B1E811
:100600001850203AA0E81850B1E81850A0E8185047
:10061000BFF4F5AF5FEA027C24BFB1E81850A0E850
:10062000185044BF18C918C0BDE810405FEA827C6A
:1006300024BF51F8043B40F8043B08BF7047D20781
:1006400028BF31F8023B48BF11F8012B28BF20F822
:10065000023B48BF00F8012B704700004FF0013CFF
:1006600050F8042B51F8043B9A4221D1A2EB0C0321
:10067000934313EACC1317D150F8042B51F8043BE1
:100680009A4215D1A2EB0C03934313EACC130BD17E
:1006900050F8042B51F8043B9A4209D1A2EB0C0309
:1006A000934313EACC13DBD04FF00000704700BF38
:1006B000D01A01BAB1FA81F101F0180122FA01F061
:1006C000CB40C1F12001DBB2C0B2C01A2CFA01F359
:1006D000D11A914311EAC311E6D1704770477047B0
:1006E0007047704710B500F02DFC006810BD10B5C4
:1006F000044600F027FC046010BD70B5044685690F
:100700000068C10601D5302600E02026C00707D0CA
:1007100070BDD4E9012130469047206A401C206218
:100720006D1EF6D570BD70B5044685690078C007AA
:1007300007D170BDD4E9012120209047206A401CD8
:1007400020626D1EF6D570BD09684A0501D540B21C
:100750007047C905FCD500B2704709684A0501D544
:10076000C0B27047C905FCD580B270472DE9F0478B
:100770000D4699469246044600F124080168880611
:1007800004D5E06921F01001216000E00120A842B9
:1007900001DD471B00E00027A1697A1902EB09007F
:1007A000081AA0612078C00602D42046FFF7A5FFF2
:1007B000002608E0D4E901211AF806009047206AD3
:1007C000401C761C20624E45F4DB2078C0060AD51A
:1007D0002046FFF792FF06E0D4E901213020904740
:1007E000206A401C2062381EA7F10107F4DC07E0F4
:1007F000D4E9012118F805009047206A401C2062C6
:10080000281EA5F10105F3DC2046FFF78CFF2078B8
:10081000000602D50220BDE8F0870120FBE7116841
:100820000268006A530501D508700AE0D30501D5B6
:10083000088006E0130603D5C217C1E9000200E0F4
:1008400008600120704770472DE9FF4F0C461E4697
:100850004FF0FF378BB0D2E90001DDF860800A90DD
:100860008A46C1F30A5505B93D46002108464FF0B6
:100870000000BAF1000F00F4400005DA00EB800040
:100880004FF4400101EA50004FEA9059B9F1010FCD
:1008900000DDB9460A9850EA4A000ED044F61050DE
:1008A000A5F2FF3545432F14B8F1000F1ED0754255
:1008B000291E1EDDC9F100021CE0B8F1010F4FF046
:1008C000000001D0302103E0F24305E02154401C38
:1008D000B042FBDB30460022002121540B99C1F8C5
:1008E0000880C1E900200FB0BDE8F08FBD1B6D1C72
:1008F000DEE74A4600DA694206A800F041FD06AB91
:1009000093E8070003AB83E8070050460A9900F01C
:1009100008FE8DE80700A0F500501F3800900398EE
:10092000002D0ADD42F21F014A460844002303A9B4
:100930000390684601F071F809E0A0F500504A46BE
:100940001F38002303A90390684601F07BF88DE867
:1009500007000004000C03D04FF0FF30410800E016
:100960001046B8F1000F03D00022009215461EE099
:10097000751E05D400F0EAFA303262556D1EF9D5C5
:10098000B3460122084302D000227F1C04E02078F5
:10099000302801D100227F1E002A099784D01DE053
:1009A000112D07DA00F0D2FA303262556D1C50EA90
:1009B0000102F5D1084302D00098C8B10EE0002131
:1009C000681E05E0235C625C63542254401E491C8F
:1009D0008142F7DBAB46A81B401E0990002004F8BB
:1009E0000B000B98099AC0F80880C0E9002B7AE741
:1009F00011264FF0000857E72DE9F04F88460446CE
:100A0000D21D22F0070191B0D1E90001CDE90A0120
:100A100007F02EFF02460B98C00F01D02D2007E0F3
:100A20002068810701D52B2002E0202101EAC000C7
:100A3000032A099001D0072A05DB034641462046D8
:100A400000F048FC0BE12078800601D5E06900E069
:100A50000620B8F1650F814606D0B8F1660F18D0B0
:100A6000B8F1670F70D131E00020B9F1110F00909B
:100A700001DB112301E009F101030AAA01A90CA875
:100A8000FFF7E2FEDDE90C70002609F1010583465F
:100A900047E001204B4600904FF000470AAA01A909
:100AA0000CA8FFF7D1FEDDE90DB00C995D460026DC
:100AB00010B909F101000D18B9EB050003D4C0F11C
:100AC000FF3609F10105A5EB09002BE0B9F1010F93
:100AD00001DA4FF001090020B9F1110F00904846EA
:100AE00001DD112300E003460AAA01A90CA8FFF7C3
:100AF000ABFEDDE90C704D460026834620780007EA
:100B00000AD4AB4500DA5D4601A8012D04DD411988
:100B100011F8011C302907D04F4502DA17F1040FF4
:100B200004DA012082460FE06D1EEEE7002F02DCA2
:100B3000ED1B3E4403E0781CA84200DD7D1CB81B81
:100B400000F1010A4FF000472078000703D4AA45BE
:100B500001DB4FF0FF3A0021B7F1004F0DF14308E0
:100B60008DF8431024D002202B23002F01DA7F427E
:100B70002D230A21021EA0F1010000DC5FB197FBCA
:100B8000F1FC97FBF1F201FB1C7C17460CF1300CD9
:100B900008F801CDEEE7A8F10100037021880905EE
:100BA00001D5452100E06521A0F1010800F8011CF4
:100BB00009980FA9A1EB0807FF1D00B101204119F9
:100BC00001EBEA70A1693844081A401EA061207840
:100BD000C00602D42046FFF790FD099828B1D4E959
:100BE00001219047206A401C20622078C00622D54F
:100BF0002046FFF782FD1EE0002E04DBB34502DD38
:100C000001A8805D00E03020D4E901219047206AEE
:100C1000401C2062761CAAF101005FEA000A0AD19A
:100C200000F08CF9C0680168405CD4E9012190476C
:100C3000206A401C2062281EA5F10105DCDC07E0CB
:100C4000D4E9012118F8010B9047206A401C20626A
:100C5000381EA7F10107F3DC2046FFF764FD0320EF
:100C600011B041E601694A1C02610878704700B57D
:100C70008FB0CDE901310021059105497944CDE9D5
:100C8000031011466846FFF7D3FB0FB000BD00000C
:100C9000E5FFFFFF0A6802F8010B0A607047D1E91F
:100CA00000239A4202D2531C0B601070704710B59B
:100CB000436913B1AFF3008001E0FFF753FB01205C
:100CC00010BD127800F124010A7000224A7001223E
:100CD000EDE711684FF0FF32E9E70000074B70B510
:100CE0000D467B44FFF7C3FF0446284600F0BAFBDD
:100CF00010B14FF0FF3070BD204670BDFF9B00006B
:100D00002DE9FF5F15468A460446DFF8AC80F844BB
:100D10000027D8E900103E46CDE9001010E03AF86F
:100D200016106A4602A800F0A1FB411C07D02178EA
:100D3000890603D5E269391891420DD80744761C1B
:100D40002078800602D5E069B84205DDAE42E6DBD8
:100D50003AF816000028E2D1A069C01BA061204625
:100D6000FFF7CBFCD8E90010CDE90010002017E018
:100D70003AF818106A4602A800F078FBB0F1FF3F7D
:100D800081460BD000250DF1080B05E0D4E90121C7
:100D90001BF8050090476D1C4D45F7D308F1010085
:100DA000B0428046E4DB206A384420622046FFF7E8
:100DB000BAFCBDE8FF9F00004EB000002DE9F041F5
:100DC0008046D21D22F007020025D2E90002F52953
:100DD00015A614D0011E72F1000106DA0023D0EB33
:100DE000030063EB020211A608E0D8F800108B079D
:100DF00001D50FA602E0490701D50EA6012511462F
:100E0000002408F1240704E000F0A0F830323A553D
:100E1000641C50EA0102F7D12B4632462146404677
:100E2000BDE8F041FFF7A2BC000000002D0000006B
:100E30002B0000002000000030B4002100F1240449
:100E400008E002F00705D208303542EA4372DB08B9
:100E50006554491C52EA0305F3D10468002310A22B
:100E6000250707D5A40600D421B1C46901230DA22A
:100E7000641EC46130BCFFF779BC10B5044621463E
:100E80001068FFF76AFC02462046BDE810400023C8
:100E9000D2E7D21D22F00701D1E90023CCE7000000
:100EA0000000000030000000F0B40D460188090584
:100EB00002D5214C7C4402E01F4C7C440E340021BE
:100EC00000F1240608E002F00F071209E75D42EA8C
:100ED00003721B097754491C52EA0307F3D10278C5
:100EE0000023120704D5702D06D009B10223113456
:100EF0002246F0BCFFF73ABC01231034F8E770B586
:100F000004460D4621461068FFF727FC0246294695
:100F10002046BDE870400023C6E7D21D22F007033B
:100F2000D3E90023C0E70368126843F0200303609D
:100F30000823C3610023B7E7B0AE00000048704744
:100F4000C015002000487047A015002030B5B0F152
:100F50000A024FEA900E71F100034EEA817EB0EB77
:100F60000E0061EB91014FEA101E4EEA017E10EB7C
:100F70000E0041EB11114FEA102E4EEA016E10EBFC
:100F80000E0041EB11214FEA104E4EEA014E10EBDC
:100F90000E0041EB1141401841F100014FEAD00031
:100FA00040EA41704FEAD10110EB80054FEA81041D
:100FB00044EA907444EB01046D1944EB0404521BA1
:100FC000A3414FF0000348BF0A3200D530BD401C9A
:100FD00041F1000130BD00002DE9F04F04460D46FF
:100FE000D21D22F0070089B0D0E900974846394663
:100FF00007F03EFC0246F80F01D02D2307E02068E1
:10100000810701D52B2302E0202101EAC0038DF8DE
:1010100020300BB1012000E00020032A824601D0DD
:10102000072A04DB2946204600F054F93FE12078E6
:10103000800601D40D2500E0E569C7F30A560D2DA1
:1010400049DA00214FEA175B08464FF00000002FF5
:1010500000F4400007DA00EB80004FF4400100EBA1
:10106000D07001EA60008115012901DD4FF0FF31E8
:1010700000224FEA850CBCF1180F06D31346ACF1E1
:1010800018004FF08052C24003E04FF4801323FA5F
:101090000CF30CF10C0CBCF1200F04D3ACF1200CC0
:1010A00009FA0CF001E007FA0CF000294FF00048B3
:1010B00001DD18B90FE00ED140450CD319EB020940
:1010C0005F4121B9404502D19F4329EA0209BBEBA8
:1010D000175F00D0761C2088000502D57B48784435
:1010E00002E07A487844193808AA302302F80A3016
:1010F000037C0AF10101002E0AF1020A53546A46E8
:1011000002DC4FF0300101E04FF031014FF00108F7
:101110008DF8001002D0A6F2FF3603E059EA47012D
:1011200000D06B4E002D02DC2178090704D54FF06A
:1011300002082E218DF80110C44600210BE0C7F3F0
:1011400003433F01C35C491C6D1E02F808300529AA
:1011500008F1010801DA002DF1DC00210CE000EBC0
:101160001973491C1B786D1E082902F808304FEAD4
:10117000091908F1010801DA002DF0DC21688B065D
:1011800002D516E0A8F10108E04505DD02EB0803F1
:1011900013F8013C302BF5D0B8F1000F09DD02EB5C
:1011A000080313F8013C2E2B03D1090701D4A8F141
:1011B0000108002D05DD3E2102F808106D1E08F122
:1011C0000108407C002E02F8080008F1010804DA4A
:1011D0002D20764202F8080002E02B2002F80800D9
:1011E0000A214FF47A70864208F101080BDB96FB66
:1011F000F0F3303302F8083096FBF0F308F1010801
:1012000000FB136601E0642E0CDB642096FBF0F318
:10121000303302F8083096FBF0F308F1010800FBC8
:10122000136601E00A2E06DB96FBF1F0303002F87F
:10123000080008F1010896FBF1F001FB1060303066
:1012400002F80800A16908F1010808EB050202EBA9
:101250000A00081AA0612078C00602D42046FFF7D1
:101260004CFA216A08AE01EB0A00206204E0D4E9DE
:10127000012116F8010B9047BAF1010AF7D2207844
:10128000C00602D52046FFF738FA6E4609E016F888
:10129000010B3E280FD0D4E901219047206A401C61
:1012A0002062B8F10108F2D22046FFF73CFA09B0FB
:1012B0000320BDE8F08F206A2844206203E0D4E9CF
:1012C0000121302090476D1EEBD3F8E781AE00007E
:1012D00002FCFFFF2DE9F0411F460446032601688A
:1012E000072A01F4006004DB08B116A505E016A585
:1012F00003E008B115A500E015A521F0100020605D
:10130000A069C01EA0610FB1401EA0612046FFF77A
:10131000F4F94FB1D4E9012138469047206A401CC6
:101320002062C01C206206E0206AFAE7D4E90121AD
:1013300015F8010B9047761EF8D22046FFF7F3F917
:10134000BDE8F0814E414E006E616E00494E460090
:10135000696E660010B5436913B1AFF3008001E018
:10136000FFF7CEFC012010BD128800F12401828419
:101370000022C2840122EDE711684FF0FF32E9E755
:101380002DE9F047814616468AB0354878440DC8A5
:101390008DE80D0032487844801C03AC0DC884E809
:1013A0000D0041F69B300844372190FBF1F290FB91
:1013B000F1F5A5F1800501FB12041B3C02D5644246
:1013C000012000E00020DFF898A080460027FA44C2
:1013D000AAF1BE0A0EE0E0070AD03246684607EBE3
:1013E000470101230AEB810100F02CFB8DE8070087
:1013F00064107F1C002CEED1194F7F44AE3F19E0E2
:10140000E80715D007EB04100DF1180A90E80E005C
:101410008AE80E00C068F04201D19819089032465F
:10142000012306A903A800F00DFB03AB83E8070026
:101430006D10641C002DE3D14FF001033246694664
:10144000B8F1000F03A802D000F0E7FA01E000F0C5
:10145000F9FAC9E90001C9F808200AB0BDE8F08727
:1014600064AC0000007B00F08000704770B5164649
:101470000C46054600F044F8036893F80101012882
:1014800006D0FF2C0FD8185D68B101202C7070BDFC
:10149000D3F807013246214603F2071303442846D6
:1014A000BDE8704018474FF0FF3070BD00487047EE
:1014B000A01500207546FFF7F9FFAE460500694606
:1014C000534620F00700854618B020B5FEF710FF00
:1014D000BDE820404FF000064FF000074FF0000835
:1014E0004FF0000B21F00701AC46ACE8C009ACE8B6
:1014F000C009ACE8C009ACE8C0098D4670470000DF
:1015000010B5FFF71BFD001D10BD00BF9199000035
:1015100010B50446AFF300802046BDE81040FEF74A
:10152000D2BE5FEA400C08BF91F0000F4FEA8C2357
:101530004FEAC12243EA51514FEA1C5018BF00F54F
:10154000F0404FEA300018BF41F000415FEA6C5CA8
:1015500000F02980BCF1FF3F08BF40F08040704799
:10156000130C06BF12044FF0100C4FF0000C130EBA
:1015700004BF12020CF1080C130F04BF12010CF18E
:10158000040C930F04BF92000CF1020CD30F04BFA4
:1015900052000CF1010C11464FF00002A0F11F00A7
:1015A000A0EB0C00704711F0004F08BF704731F0FE
:1015B00000413FF4D5AF0B0C06BF09044FF0100CEF
:1015C0004FF0000C0B0E04BF09020CF1080C0B0FBE
:1015D00004BF09010CF1040C8B0F04BF89000CF14E
:1015E000020CCB0F04BF49000CF1010CCCF120031D
:1015F000A0EB0C0022FA03F302FA0CF241EA030119
:1016000000F10100704720F07F4C80EA030023F0D6
:101610007F47ACEB070303F57C5300F0004003F178
:10162000FF032DE980494FEA154B09B44FEA1443F3
:1016300025EA0B4E24EA03480FF2042606EB132793
:1016400049083E785FEA320203FB0667C7F50007E8
:1016500007FB06F64FEA54374FEAD64606F1020674
:1016600007FB066CCCF1005C4FEA1C472CEA074CE8
:1016700007FB06F40CFB06F504EB15464FEA96163D
:1016800034BF00204FF000404FEAD13706FB07FC83
:101690004FEA1C4C0CFB0BF7D21B03FB0CF761EB66
:1016A00007010CFB0EF7B0EB074072EB17420CFB87
:1016B00008F734BFA2EB0742B2EB074261EB1741D8
:1016C0004FEA0C444FEA910706FB07FC4FEA1C4C1B
:1016D0000CFB0BF7B0EBC74072EB573203FB0CF778
:1016E00034BFA2EBC742B2EBC74261EB57310CFBF0
:1016F0000EF7B0EBC70072EB57720CFB08F734BF64
:10170000A2EBC702B2EBC70261EB5771039F4FEA2E
:10171000816141EA921104EBCC044FEAD1374FEAE0
:10172000826206FB07FC42EA90124FEA80604FEAB1
:101730001C4C0CFB0BF7D21B03FB0CF761EB0701F6
:101740000CFB0EF7B0EB074072EB17420CFB08F7EF
:1017500034BFA2EB0742B2EB074261EB17414FEAFD
:101760008C554FEA910704EB9C2406FB07FC4FEADB
:101770001C4C0CFB0BF7B0EBC74072EB573203FB72
:101780000CF734BFA2EBC742B2EBC74261EB573153
:101790000CFB0EF7B0EBC70072EB57720CFB08F7AF
:1017A00034BFA2EBC702B2EBC70261EB577115EB76
:1017B0004C254FEA816141EA92114FEA82624FEA79
:1017C000D13742EA901206FB07FC44F100044FEACD
:1017D00080604FEA1C4C0CFB0BF7D21B03FB0CF791
:1017E00061EB07010CFB0EF7B0EB074072EB174201
:1017F0000CFB08F734BFA2EB0742B2EB074261EBE8
:10180000174115EB1C154FEA813141EA92414FEA2D
:10181000823242EA90424FEA80304FEA0C7644F13D
:10182000000448EA03434EEA0B484FF0000EB2EBC7
:10183000080C71EB030724BF624639464EEB0E0ECF
:101840004FF0000B0018524149414BEB0B0BB2EB30
:10185000080C71EB03077BF1000B24BF624639468D
:101860004EEB0E0E4FF0000B0018524149414BEB6E
:101870000B0BB2EB080C71EB03077BF1000B24BFE1
:10188000624639464EEB0E0E51EA020718BF46F08B
:10189000010616EB0E7655F1000254F1000103D556
:1018A000BDE88901BDE80088BDE88901BDE80048C0
:1018B000B619524141EB0101A3F101037047808049
:1018C0007F7E7D7C7B7A797877767675747372719A
:1018D00071706F6E6E6D6C6C6B6A6A696868676652
:1018E00066656464636362616160605F5F5E5E5DE4
:1018F0005D5C5C5B5B5A5A59595858575756565558
:1019000055555454535352525251515050504F4FB9
:101910004F4E4E4D4D4D4C4C4C4B4B4B4A4A4A4909
:10192000494948484847474747464646454545444C
:101930004444444343434342424242414141002BD9
:101940009C4630D477002BD01CB54FEA370703B440
:101950004FF010004FF01001BAF1000F06D0BCF1AB
:10196000000FDCBF40F0080040F008014FF000001D
:101970000FBCBDE810400BF1010BBBF1010F08BF1C
:101980005FEA170722BF12F1010211F101014FF0C6
:10199000004143F1000300F0004043EA00007047BB
:1019A000F9D35708D0E746EA064613F1400F4FEA4D
:1019B00016461FDD13F1200FDFBF16430A46002134
:1019C00020335B42BED0C3F1200746EA064602FA46
:1019D00007F74FEA164646EA0706C3F1200722FA40
:1019E00003F201FA07F721FA03F14FF0000342EA8C
:1019F0000702A7E746EA020646EA06464FEA164607
:101A000046EA0106BCBF46EA0646360C4FF0000324
:101A10004FF000024FF0000194E72DE9804C9A4608
:101A2000934670B491E8380007C831EA400C48BFCB
:101A300034EA430C03D5FFF7E6FDFFF780FFF0BC67
:101A4000BDE8008C2DE9804C9A46934670B491E82D
:101A5000380007C810F0804F08BF13F0804F03D143
:101A600000F005F8FFF76BFFF0BCBDE8008C20F03C
:101A70007F4780EA030023F07F4C07EB0C03A3F5BC
:101A80007C5300F00040A3F1FE0392F0000F00F041
:101A9000B38095F0000F00F077802DE901494FEAFF
:101AA00011404FEA144621EA004800FB06FC24EAF4
:101AB000064708FB06F607FB08F800FB07F718EBDC
:101AC00006484CEB164C4FEA124B18EB07484FEA0E
:101AD00015464CEB174022EA0B4E0BFB06FC25EAA1
:101AE00006470EFB06F607FB0EFE0BFB07F71EEB89
:101AF000064E4CEB164C4FF000061EEB074E4CEB1F
:101B0000174B18EB0B0840F1000018EB0E0B58EBCD
:101B1000000840F100008F1A4FF000013CBFC9439C
:101B2000661B14BFB5EB040C00213CBFC943F61B78
:101B30004FEA17444EEA8E0E27EA04454FEA1C4747
:101B400004FB07622CEA074C05FB07F70CFB05F6C4
:101B500004FB0CFC16EB074642EB174216EB0C4657
:101B600042EB1C421BEB060658EB0202414146EADF
:101B70009E0601D5BDE80189B619524141EB01012C
:101B8000A3F10103BDE801894FEA14454FEA11476B
:101B900024EA054621EA074C05FB07F406FB07F794
:101BA0000CFB06F105FB0CFC11EB074144EB174461
:101BB0004FEA124711EB0C4144EB1C4422EA074C5C
:101BC00005FB07F206FB07F70CFB06F605FB0CFC12
:101BD00016EB074642EB174216EB0C4642EB1C4550
:101BE0006A1854F1000148BF7047B619524141EBE1
:101BF0000101A3F10103704795F0000F37D04FEAC0
:101C000011424FEA144721EA024624EA074C02FB3C
:101C100007F106FB07F70CFB06F402FB0CFC14EBC8
:101C2000074441EB17414FEA154714EB0C4441EBD5
:101C30001C4125EA074C02FB07F506FB07F70CFBE6
:101C400006F602FB0CFC16EB074645EB174516EBB8
:101C50000C4645EB1C42121951F1000148BF704778
:101C6000B619524141EB0101A3F1010370474FEA5C
:101C700014454FEA114724EA054621EA074C05FBC3
:101C800007F106FB07F70CFB06F24FF0000605FB19
:101C90000CFC12EB074241EB174112EB0C4251EBEB
:101CA0001C4148BF7047921841EB0101A3F10103A9
:101CB000704700001CB504460121042005F05EF8C1
:101CC0004FF48040009000208DF8040003208DF830
:101CD000050002208DF807006946104803F02EFA2F
:101CE0000321282000F032F921462C2000F02EF9A3
:101CF00000212D2000F02AF9012C03D114200849DD
:101D000008700AE0022C03D128200549087004E07D
:101D1000032C02D15020024908701CBD000802406B
:101D20001A00002010B52DED0A8B04460B22214627
:101D3000062000F0E5F820780003617840EA011001
:101D4000001100B22083B4F9180040F25D71081A46
:101D500000EE100AF8EEC00A9FED631A80EE810AC9
:101D6000F3EE090A30EE200A84ED0E0AA078000690
:101D7000E17840EA0140217940EA01200013E06067
:101D800060790006A17940EA0140E17940EA01204A
:101D900000132061207A0006617A40EA0140A17AAE
:101DA00040EA012000136061504890F9000009F0FA
:101DB00008FB41EC1A0BE06809F003FB41EC1C0B3B
:101DC0009FED4B0B53EC102B09F046F941EC1B0B2C
:101DD00053EC1A2B09F05CFB41EC190B464890EDD3
:101DE000000B53EC102B51EC190B09F051FB41EC9B
:101DF000180B424890ED0C1BB0EE410AF0EE610A60
:101E000053EC102B51EC180B09F04EFDC4E90801FE
:101E1000364890F9000009F0D4FA41EC1A0B206919
:101E200009F0CFFA41EC1C0B9FED310B53EC102B5A
:101E300009F012F941EC1B0B53EC1A2B09F028FBAB
:101E400041EC190B2C4890ED000B53EC102B51EC8E
:101E5000190B09F01DFB41EC180B284890ED0E1BE7
:101E6000B0EE410AF0EE610A53EC102B51EC180B66
:101E700009F01AFDC4E90A011C4890F9000009F0B4
:101E8000A0FA41EC1A0B606909F09BFA41EC1C0BBB
:101E90009FED170B53EC102B09F0DEF841EC1B0BF8
:101EA00053EC1A2B09F0F4FA41EC180B124890EDA0
:101EB000000B53EC102B51EC180B09F0E9FA41EC34
:101EC000190B0E4890ED101BB0EE410AF0EE610ABE
:101ED00053EC102B51EC190B09F0E6FCC4E90C0192
:101EE000BDEC0A8B10BD0000CDCC10411A000020C3
:101EF00000000000FEFF2F4160BC000838150020E4
:101F000070B506460C46154600200E4908600120B3
:101F100008F06CFC012000EB46010B4805F09AFA32
:101F200007E00021084805F095FA2070641C681E3F
:101F3000C5B2002DF5DC01200249086008F056FC0E
:101F400070BD0000B40241420030014070B504464B
:101F50000D46002009490860012008F047FC610097
:101F6000074805F077FA2946054805F073FA01207D
:101F70000449C1F8B40208F039FC70BDB402414212
:101F800000300140000041421CB5044601210846D2
:101F900004F0F4FE0121042004F0F0FE00214FF4CF
:101FA000964005F0A5FF1020009001208DF8040058
:101FB00003208DF8050001208DF80700694631489F
:101FC00003F0BCF84FF40040009001208DF80400AD
:101FD00003208DF8050001208DF8070069462A4886
:101FE00003F0ACF80020294908604FF4FA7008F0BB
:101FF000F0FB012C03D101202549086002E00020FC
:10200000234908600A2008F0E4FB01201F4908600A
:102010004FF4FA7008F0DDFB1EA006F01FF84FF435
:102020007A7008F0D6FB1DA006F018F84FF47A700D
:1020300008F0CFFB1EA006F011F84FF47A7008F0FC
:10204000C8FB00201E49C1F8AC021E4908700121DE
:102050004FF4964005F04CFF00BF03F06BFD0028E5
:10206000FBD001201749087000BF174800780028EE
:10207000FBD016A0FEF76AF9012005491C31086063
:102080001CBD00000000024000080240BC024142AA
:10209000900240420D0A0D0A000000002450434106
:1020A0005330322C3530302A31410D0A0000000007
:1020B000245043415330312C322A31450D0A00005F
:1020C0000000404221000020220000204750532001
:1020D0006973207265616479210D0A0010B52DEDD8
:1020E000108BB0EE408AF0EE608AB0EE419AF0EECE
:1020F000619AB0EE42AAF0EE62AA4B4890ED000B56
:1021000053EC102B51EC1A0B09F0C2F941EC1B0BEC
:10211000464890ED000B53EC102B51EC190B09F0D5
:10212000B7F941EC1D0B424890ED000B53EC102B1E
:1021300051EC180B09F0ACF941EC1E0B53EC1D2BC4
:1021400008F0CEFE41EC1C0B53EC1B2B08F0C8FE34
:10215000384A03C2384890ED000B53EC102B51EC79
:102160001A0B09F095F941EC1B0B344890ED000B6C
:1021700053EC102B51EC190B09F08AF941EC1D0BB3
:102180002F4890ED000B53EC102B51EC180B09F07D
:102190007FF941EC1E0B53EC1D2B08F0A1FE41EC26
:1021A0001C0B53EC1B2B08F09BFE224AC2E90201D8
:1021B000244890ED000B53EC102B51EC1A0B09F056
:1021C00067F941EC1C0B204890ED000B53EC102BF1
:1021D00051EC190B09F05CF941EC1E0B1B4890ED1A
:1021E000000B53EC102B51EC180B09F051F941EC9A
:1021F0001F0B53EC1E2B08F073FE41EC1D0B53EC30
:102200001C2B08F06DFE41EC1B0B114890ED000BF0
:1022100053EC102B51EC1B0B09F046FB054AC2E9AD
:102220000401BDEC108B10BD700000206800002080
:1022300060000020A0140020880000208000002002
:1022400078000020A00000209800002090000020CE
:1022500060BC000810B504F01FF905F085F910BD49
:1022600000B591B09FEDFE0A8DED100AFD4890ED8E
:10227000040B8DED060B9FEDFC1B9DED060B06F090
:1022800087FF8DED0A0BF74890ED020B8DED020BE9
:102290009FEDF51B9DED020B06F07AFF8DED060B11
:1022A000F04890ED000B8DED020B9FEDEF1B9DEDC7
:1022B000020B06F06DFF8DED040B9DED060B53EC4C
:1022C000102B9DED040B51EC100B08F009FECDE92D
:1022D00008019DED0A0B53EC102B9DED080B51EC02
:1022E000100B08F0FDFDCDE90C019DED0C0B07F086
:1022F000DBFD8DED0E0B9FEDDE0B53EC102B9DEDFA
:102300000E0B51EC100B09F0C1F97DD29FEDDA0BE9
:1023100053EC102B9DED0E0B51EC100B09F07CF8DB
:10232000F3D2D04890ED0C0B8DED080B9FEDD40B44
:1023300053EC102B9DED080B51EC100B09F0A8F895
:10234000CDE90C01C74890ED020B8DED040B9DED1E
:102350000E0B53EC102B9DED040B51EC100B08F001
:102360007BFECDE906019DED060B06F099FA8DED99
:10237000080B9FEDC50B53EC102B9DED080B51EC9A
:10238000100B09F085F8CDE90A019DED0C0B53EC1B
:10239000102B9DED0A0B51EC100B08F0A1FDB14A7A
:1023A000C2E90C01104690ED100B8DED080B9FED6E
:1023B000B40B53EC102B9DED080B51EC100B09F0F6
:1023C00067F8CDE90C01A74890ED000B8DED040BEB
:1023D0009DED040B51EC100B08F076FDCDE90601E4
:1023E000A04890ED040B8DED040B9DED041B9DEDBD
:1023F000060B06F071FD8DED080B9FEDA30B53EC62
:10240000102B9DED080B00E0EAE351EC100B09F0F6
:102410003FF8CDE90A019DED0C0B53EC102B9DED1F
:102420000A0B51EC100B08F05BFD8E4AC2E910015B
:10243000104690ED0E0B8DED040B9DED040B07F097
:10244000CFFC8DED080B874890ED0C0B8DED000B4C
:102450009DED000B07F0C4FC8DED040B814890ED61
:10246000100B8DED000B9DED000B07F0B9FC8DED11
:10247000020B9DED040B53EC102B9DED020B51EC68
:10248000100B09F005F8CDE906019DED080B53ECA2
:10249000102B9DED060B51EC100B08F0F9FFCDE968
:1024A0000C01704890ED0E0B8DED040B9DED040BAF
:1024B00006F00AFE8DED080B6A4890ED100B8DEDCD
:1024C000040B9DED040B06F0FFFD8DED060B9DED5D
:1024D000080B53EC102B9DED060B51EC100B08F084
:1024E000D7FFCDE90A019DED0C0B53EC102B9DEDB0
:1024F0000A0B51EC100B09F0D7F9654A03C2594891
:1025000090ED0E0B8DED040B9DED040B06F0DCFD44
:102510008DED080B534890ED0C0B8DED000B9DEDF0
:10252000000B07F05DFC8DED040B4E4890ED100B99
:102530008DED000B9DED000B07F052FC8DED020BB5
:102540009DED040B53EC102B9DED020B51EC100B89
:1025500008F09EFFCDE906019DED080B53EC102B12
:102560009DED060B51EC100B08F092FFCDE90C012C
:102570003C4890ED0E0B8DED040B9DED040B07F028
:102580002FFC8DED080B374890ED100B8DED040BF3
:102590009DED040B06F098FD8DED060B9DED080BEF
:1025A00053EC102B9DED060B51EC100B08F070FF57
:1025B000CDE90A019DED0C0B53EC102B9DED0A0BA0
:1025C00051EC100B08F08CFC324A03C2254890ED08
:1025D0000C0B8DED080B9DED080B06F075FD8DEDD8
:1025E0000C0B204890ED100B8DED060B9DED060BAE
:1025F00007F0F6FB8DED080B9DED080B51EC100B71
:1026000008F062FCCDE90A019DED0C0B53EC102B98
:102610009DED0A0B51EC100B08F03AFF1E4A03C265
:10262000104890ED0E0B8DED080B9DED080B07F09B
:10263000D7FB8DED0C0B0B4890ED0C0B8DED060BC5
:102640009DED060B06F040FD8DED080B9DED080B92
:1026500051EC100B08F038FCCDE90A011EE0000037
:10266000CDCC4C3DA0140020000000000000004034
:102670003333333333332340000000000000244061
:10268000000000606666EE3F000000A09999A93F37
:102690006000002078000020900000209DED0C0BD1
:1026A00053EC102B9DED0A0B51EC100B08F0F0FED3
:1026B000FD4A03C2FD4890ED0E0B8DED080B9DED1C
:1026C000080B06F001FD8DED0C0BF84890ED0C0B9E
:1026D0008DED080B9DED080B06F0F6FC8DED0A0B59
:1026E0009DED0C0B53EC102B9DED0A0B51EC100BD8
:1026F00008F0CEFEEE4A03C2EC4890ED0C0B8DEDD7
:102700000C0B9DED0C0B07F06BFBEA4880ED000B0A
:10271000E64890ED0E0B8DED040B9DED040B07F0DC
:102720005FFB8DED080BE14890ED0C0B8DED000B80
:102730009DED000B07F054FB8DED040BDB4890ED95
:10274000100B8DED000B9DED000B06F0BDFC8DED2B
:10275000020B9DED040B53EC102B9DED020B51EC85
:10276000100B08F095FECDE906019DED080B53EC2A
:10277000102B9DED060B51EC100B08F089FECDE9F6
:102780000C01CA4890ED0E0B8DED040B9DED040B72
:1027900006F09AFC8DED080BC44890ED100B8DED02
:1027A000040B9DED040B07F01BFB8DED060B9DED5F
:1027B000080B53EC102B9DED060B51EC100B08F0A1
:1027C00067FECDE90A019DED0C0B53EC102B9DED3E
:1027D0000A0B51EC100B08F083FBB74A03C2B34855
:1027E00090ED0E0B8DED040B9DED040B06F06CFCD3
:1027F0008DED080BAD4890ED0C0B8DED000B9DEDB4
:10280000000B07F0EDFA8DED040BA84890ED100BCE
:102810008DED000B9DED000B06F056FC8DED020BCF
:102820009DED040B53EC102B9DED020B51EC100BA6
:1028300008F02EFECDE906019DED080B53EC102BA0
:102840009DED060B51EC100B08F022FECDE90C01BA
:10285000964890ED0E0B8DED040B9DED040B07F0EB
:10286000BFFA8DED080B914890ED100B8DED040B28
:102870009DED040B07F0B4FA8DED060B9DED080BF2
:1028800053EC102B9DED060B51EC100B08F000FEE5
:10289000CDE90A019DED0C0B53EC102B9DED0A0BBD
:1028A00051EC100B09F000F8844A03C27F4890ED08
:1028B0000C0B8DED080B9DED080B06F005FC8DED66
:1028C0000C0B7A4890ED100B8DED080B9DED080B6D
:1028D00006F0FAFB8DED0A0B9DED0C0B53EC102B63
:1028E0009DED0A0B51EC100B08F0D2FD744A03C2A7
:1028F000744890ED000B53EC102B9FED730B51ECD3
:10290000100B08F0EDFACDE90601694890ED000BD7
:1029100053EC102B9DED060B51EC100B08F0E0FA78
:10292000CDE90801664890ED000B53EC102B9DEDAE
:10293000080B51EC100B08F0D3FACDE90A019DED1C
:102940000A0B07F0B1FA8DED0C0B9FED610B53EC08
:10295000102B9DED0C0B51EC100B08F099FD5E4A0D
:1029600003C2584890ED000B53EC102B9FED560B13
:1029700051EC100B08F0B4FACDE906014C4890ED8B
:10298000000B53EC102B9DED060B51EC100B08F0D7
:102990008BFFCDE908014A4890ED000B53EC102B5A
:1029A0009DED080B51EC100B08F07EFFCDE90A01FC
:1029B0009DED0A0B07F078FA8DED0C0B9FED440BA3
:1029C00053EC102B9DED0C0B51EC100B08F060FD3F
:1029D000414AC2E902013B4890ED000B53EC102B39
:1029E0009FED390B51EC100B08F05EFFCDE90601AD
:1029F0002F4890ED000B53EC102B9DED060B51EC86
:102A0000100B08F06DFACDE908012D4890ED000B90
:102A100053EC102B9DED080B51EC100B08F044FF0C
:102A2000CDE90A019DED0A0B07F03EFA8DED0C0B86
:102A30009FED270B53EC102B9DED0C0B51EC100B65
:102A400008F026FD244AC2E904011E4890ED000B5F
:102A500053EC102B9FED1C0B51EC100B08F024FFD6
:102A6000CDE90601124890ED000B53EC102B9DEDC3
:102A7000060B51EC100B08F017FFCDE908011048C8
:102A800090ED000B53EC102B9DED080B51EC100B4F
:102A900008F026FACDE90A019DED0A0B07F004FAC9
:102AA0008DED0C0B1AE0000068000020A01400203F
:102AB0008000002098000020700000208800002086
:102AC000A000002060000020000000000000F03F97
:102AD000000000000000E03F801500201FED040B07
:102AE00053EC102B9DED0C0B51EC100B08F0D0FCAF
:102AF0003D4AC2E906013D4890ED000B53EC102B16
:102B00003B4890ED000B51EC100B08F0CDFE9FED13
:102B1000390B53EC102BCDE90C019DED0C0B51EC56
:102B2000100B08F079FC0DD22F4890ED020B8DEDC3
:102B30000C0B9DED0C0B51EC100B08F0C5F92A4A5B
:102B4000C2E902012D4890ED000B53EC102B2C48EC
:102B500090ED000B51EC100B08F0A6FE9FED250B3D
:102B600053EC102BCDE90C019DED0C0B51EC100B2F
:102B700008F052FC0DD21C4890ED040B8DED0C0BAF
:102B80009DED0C0B51EC100B08F09EF9164AC2E9B2
:102B900004011C4890ED000B53EC102B1A4890EDEB
:102BA000000B51EC100B08F07FFE9FED120B53EC65
:102BB000102BCDE90C019DED0C0B51EC100B08F026
:102BC0002BFC0DD2084890ED060B8DED0C0B9DED06
:102BD0000C0B51EC100B08F077F9034AC2E906011F
:102BE0009DED0E0B11B000BD801500208800002067
:102BF000980000200000000000000000900000206D
:102C000070000020680000207800002010B52DED35
:102C1000060BA2B09FEDFE0B53EC102B9DED220B8B
:102C200051EC100B08F034FC9FEDFB0B53EC102B18
:102C3000CDE910019DED100B51EC100B08F00CFAD2
:102C4000CDE91C019FEDF20B53EC102B9DED240BF5
:102C500051EC100B08F01CFC9FEDEF0B53EC102B0C
:102C6000CDE910019DED100B51EC100B08F0F4F9BB
:102C7000CDE91E019FEDE60B53EC102B9DED260BCD
:102C800051EC100B08F004FC9FEDE30B53EC102B00
:102C9000CDE910019DED100B51EC100B08F0DCF9A3
:102CA000CDE92001DE4890ED060B8DED0A0B9DED80
:102CB000200B8DED080B9DED0A0B53EC102B9DEDB9
:102CC000080B51EC100B08F0E3FBCDE90E01D448E2
:102CD00090ED040B8DED060B9DED1E0B8DED040BA1
:102CE0009DED060B53EC102B9DED040B51EC100BDE
:102CF00008F0CEFBCDE90A019DED1C0B8DED040B18
:102D00009DED040B51EC100B08F0DEF8CDE9060147
:102D1000C34890ED020B8DED040B9DED040B53ECBD
:102D2000102B9DED060B51EC100B08F0B1FBCDE91B
:102D300008019DED0A0B53EC102B9DED080B51EC97
:102D4000100B08F0B1FDCDE90C019DED0E0B53EC1D
:102D5000102B9DED0C0B51EC100B08F0A5FD9FED19
:102D6000B10B53EC102BCDE910019DED100B51EC84
:102D7000100B08F08DFBCDE91401A94890ED060B6E
:102D80008DED0A0B9DED1E0B8DED080B9DED0A0BD5
:102D900053EC102B9DED080B51EC100B08F078FB59
:102DA000CDE90E019E4890ED040B8DED060B9DEDD7
:102DB000200B8DED040B9DED060B53EC102B9DEDC0
:102DC000040B51EC100B08F063FBCDE90A019448A9
:102DD00090ED000B8DED060B9DED1C0B8DED040BA6
:102DE0009DED060B53EC102B9DED040B51EC100BDD
:102DF00008F04EFBCDE908019DED0A0B53EC102BBA
:102E00009DED080B51EC100B08F06AF8CDE90C01B0
:102E10009DED0E0B53EC102B9DED0C0B51EC100B9C
:102E200008F042FD9FED7F0B53EC102BCDE9100114
:102E30009DED100B51EC100B08F02AFBCDE91601AB
:102E4000774890ED060B8DED0A0B9DED1C0B8DED7B
:102E5000080B9DED0A0B53EC102B9DED080B51EC6C
:102E6000100B08F015FBCDE90E016D4890ED020B3B
:102E70008DED060B9DED200B8DED040B9DED060BEE
:102E800053EC102B9DED040B51EC100B08F000FBE4
:102E9000CDE90A01624890ED000B8DED060B9DED2A
:102EA0001E0B8DED040B9DED060B53EC102B9DEDD1
:102EB000040B51EC100B08F0EBFACDE908019DED85
:102EC0000A0B53EC102B9DED080B51EC100B08F086
:102ED000EBFCCDE90C019DED0E0B53EC102B9DEDA1
:102EE0000C0B51EC100B07F0FBFF9FED4E0B53EC5E
:102EF000102BCDE910019DED100B51EC100B08F0DB
:102F0000C7FACDE91801464890ED040B8DED0A0B88
:102F10009DED1C0B8DED080B9DED0A0B53EC102B5A
:102F20009DED080B51EC100B08F0B2FACDE90E0143
:102F30003B4890ED020B8DED060B9DED1E0B8DEDCC
:102F4000040B9DED060B53EC102B9DED040B51EC87
:102F5000100B08F09DFACDE90A01314890ED000B05
:102F60008DED060B9DED200B8DED040B9DED060BFD
:102F700053EC102B9DED040B51EC100B08F088FA6C
:102F8000CDE908019DED0A0B53EC102B9DED080BCC
:102F900051EC100B07F0A4FFCDE90C019DED0E0BD9
:102FA00053EC102B9DED0C0B51EC100B08F07CFC3E
:102FB0009FED1C0B53EC102BCDE910019DED100B78
:102FC00051EC100B08F064FACDE91A0117480068BB
:102FD00008F054FDCDE90E019DED140B8DED0C0BA9
:102FE0009DED0C0B53EC102B9DED0E0B51EC100BCB
:102FF00008F04EFACDE91001094890ED000B8DED77
:103000000E0B9DED0E0B53EC102B9DED100B0FE0F6
:1030100050455254FB2109400000000000806640EA
:1030200080150020000000000000E03F4C00002060
:1030300051EC100B07F054FFFE4A03C2FE48006833
:1030400008F01CFDCDE90E019DED160B8DED0C0B6E
:103050009DED0C0B53EC102B9DED0E0B51EC100B5A
:1030600008F016FACDE91001F24890ED020B8DED53
:103070000E0B9DED0E0B53EC102B9DED100B51EC38
:10308000100B07F02DFFEB4AC2E90201EA48006885
:1030900008F0F4FCCDE90E019DED180B8DED0C0B45
:1030A0009DED0C0B53EC102B9DED0E0B51EC100B0A
:1030B00008F0EEF9CDE91001DE4890ED040B8DED3E
:1030C0000E0B9DED0E0B53EC102B9DED100B51ECE8
:1030D000100B07F005FFD74AC2E90401D648006883
:1030E00008F0CCFCCDE90E019DED1A0B8DED0C0B1B
:1030F0009DED0C0B53EC102B9DED0E0B51EC100BBA
:1031000008F0C6F9CDE91001CA4890ED060B8DED27
:103110000E0B9DED0E0B53EC102B9DED100B51EC97
:10312000100B07F0DDFEC34AC2E90601104690ED20
:10313000060B8DED0C0B90ED060B8DED0A0B9DED46
:103140000C0B53EC102B9DED0A0B51EC100B08F0FF
:103150009FF9CDE91001B74890ED040B8DED080BF8
:1031600090ED040B8DED060B9DED080B53EC102B31
:103170009DED060B51EC100B08F08AF9CDE90C011E
:10318000AC4890ED020B8DED040B90ED020B8DED34
:10319000020B9DED040B53EC102B9DED020B51EC3B
:1031A000100B08F075F9CDE90801A24890ED000B6D
:1031B0008DED040B90ED000B8DED020B9DED040BDE
:1031C00053EC102B9DED020B51EC100B08F060F945
:1031D000CDE906019DED080B53EC102B9DED060B80
:1031E00051EC100B07F07CFECDE90A019DED0C0BB4
:1031F00053EC102B9DED0A0B51EC100B07F070FEF9
:10320000CDE90E019DED100B53EC102B9DED0E0B37
:1032100051EC100B07F064FECDE912019DED120B8D
:1032200006F042FE8DED120B824890ED000B8DED05
:10323000100B9DED120B53EC102B9DED100B51EC70
:10324000100B07F009FF7B4A03C27A4890ED020B8E
:103250008DED100B9DED120B53EC102B9DED100B13
:1032600051EC100B07F0F8FE724AC2E90201104659
:1032700090ED040B8DED100B9DED120B53EC102B0C
:103280009DED100B51EC100B07F0E6FE694AC2E908
:103290000401104690ED060B8DED100B9DED120B09
:1032A00053EC102B9DED100B51EC100B07F0D4FEDE
:1032B000604AC2E90601104690ED060B8DED080B41
:1032C00090ED040B8DED060B9DED080B53EC102BD0
:1032D0009DED060B51EC100B08F0DAF8CDE90C016E
:1032E000544890ED020B8DED080B90ED000B8DED29
:1032F000060B9DED080B53EC102B9DED060B51ECCE
:10330000100B08F0C5F8CDE90A019DED0C0B53EC4C
:10331000102B9DED0A0B51EC100B07F0E1FD9FED1A
:10332000470B53EC102BCDE90E019DED0E0B51EC2C
:10333000100B08F0ADF8CDE910019DED100B05F074
:10334000AFFA404880ED0C0B3A4890ED060B8DED3E
:10335000080B9FED3A1B9DED080B05F019FF8DED55
:103360000C0B344890ED040B8DED040B9FED331BDB
:103370009DED040B05F00CFF8DED080B2D4890ED35
:10338000020B8DED000B9FED2D1B9DED000B05F04D
:10339000FFFE8DED040B274890ED000B8DED000B2B
:1033A0009FED261B9DED000B05F0F2FE8DED020B4F
:1033B0009DED040B53EC102B9DED020B51EC100B0B
:1033C00008F072FACDE906019DED080B53EC102BC5
:1033D0009DED060B51EC100B07F082FDCDE90A01C3
:1033E0009DED0C0B53EC102B9DED0A0B51EC100BCB
:1033F00008F05AFACDE910010E4890ED060B8DED5C
:10340000060B90ED000B8DED040B9DED060B53ECC0
:10341000102B9DED040B51EC100B08F039F8CDE9A1
:103420000A01044890ED040B8DED060B90ED020BA4
:103430000AE00000801500204C0000200000000081
:1034400000000040A01400208DED040B9DED060B44
:1034500053EC102B9DED040B51EC100B08F018F8F9
:10346000CDE908019DED0A0B53EC102B9DED080BE7
:1034700051EC100B08F018FA9FEDFE0B53EC102BDB
:10348000CDE90C019DED0C0B51EC100B08F000F890
:10349000CDE90E019DED101B9DED0E0B05F01CFD01
:1034A000F64880ED0E0BF64890ED060B8DED080BFF
:1034B0001FED1E1B9DED080B05F06AFE8DED0C0B3C
:1034C000EF4890ED040B8DED040B1FED241B9DEDDB
:1034D000040B05F05DFE8DED080BE94890ED020B45
:1034E0008DED000B1FED2B1B9DED000B05F050FE2D
:1034F0008DED040BE24890ED000B8DED000B1FED00
:10350000311B9DED000B05F043FE8DED020B9DED93
:10351000040B53EC102B9DED020B51EC100B08F03B
:10352000C3F9CDE906019DED080B53EC102B9DED81
:10353000060B51EC100B08F0B7F9CDE90A019DED2F
:103540000C0B53EC102B9DED0A0B51EC100B07F0FC
:10355000C7FCCDE91001CA4890ED040B8DED060BB8
:1035600090ED000B8DED040B9DED060B53EC102B35
:103570009DED040B51EC100B07F08AFFCDE90A0119
:10358000BF4890ED060B8DED060B90ED020B8DED17
:10359000040B9DED060B53EC102B9DED040B51EC31
:1035A000100B07F075FFCDE908019DED0A0B53ECF8
:1035B000102B9DED080B51EC100B08F075F99FEDE9
:1035C000AD0B53EC102BCDE90C019DED0C0B51EC28
:1035D000100B07F05DFFCDE90E019DED101B9DED79
:1035E0000E0B05F079FCA54880ED100B90ED0E0B4D
:1035F0008DED080B9DED080B06F0F2FB8DED0C0B2D
:103600009E4890ED0C0B8DED040B9DED040B06F028
:10361000E7FB8DED080B994890ED100B8DED040B39
:103620009DED040B06F0DCFB8DED060B9DED080B0C
:1036300053EC102B9DED060B51EC100B07F028FFFF
:10364000CDE90A019DED0C0B53EC102B9DED0A0BFF
:1036500051EC100B07F01CFFCDE91001874890EDED
:103660000E0B8DED080B9DED080B05F02DFD8DED7E
:103670000C0B824890ED100B8DED080B9DED080BA7
:1036800005F022FD8DED0A0B9DED0C0B53EC102B7C
:103690009DED0A0B51EC100B07F0FAFECDE90E017F
:1036A0009DED100B53EC102B9DED0E0B51EC100B00
:1036B00008F0FAF8734A03C2704890ED0E0B8DEDD6
:1036C000080B9DED080B05F0FFFC8DED0C0B6B4816
:1036D00090ED0C0B8DED040B9DED040B06F080FBC3
:1036E0008DED080B654890ED100B8DED040B9DEDF5
:1036F000040B06F075FB8DED060B9DED080B53ECEE
:10370000102B9DED060B51EC100B07F0C1FECDE91F
:103710000A019DED0C0B53EC102B9DED0A0B51ECA7
:10372000100B07F0B5FECDE91001544890ED0E0BDB
:103730008DED080B9DED080B06F052FB8DED0C0B8B
:103740004E4890ED100B8DED080B9DED080B05F02C
:10375000BBFC8DED0A0B9DED0C0B53EC102B9DED7E
:103760000A0B51EC100B07F093FECDE90E019DED15
:10377000100B53EC102B9DED0E0B51EC100B07F0C2
:10378000AFFB414A03C23D4890ED0C0B8DED0C0B95
:103790009DED0C0B05F098FC8DED100B374890ED6E
:1037A000100B8DED0A0B9DED0A0B06F019FB8DED4C
:1037B0000C0B9DED0C0B51EC100B07F085FBCDE9CC
:1037C0000E019DED100B53EC102B9DED0E0B51ECEB
:1037D000100B07F05DFE2D4A03C2284890ED0E0B3A
:1037E0008DED0C0B9DED0C0B06F0FAFA8DED100B28
:1037F000224890ED0C0B8DED0A0B9DED0A0B05F0A8
:1038000063FC8DED0C0B9DED0C0B51EC100B07F0D8
:103810005BFBCDE90E019DED100B53EC102B9DEDE4
:103820000E0B51EC100B07F033FE194A03C213487C
:1038300090ED0E0B8DED0C0B9DED0C0B05F044FC8B
:103840008DED100B0D4890ED0C0B8DED0C0B9DEDDF
:103850000C0B05F039FC8DED0E0B9DED100B53ECB0
:10386000102B9DED0E0B51EC100B07F011FE094AC9
:1038700003C211E000000000000000C0A0140020FE
:1038800080150020600000207800002090000020BB
:1038900068000020800000207E4890ED0C0B8DED2C
:1038A000100B9DED100B06F09BFA7B4880ED000B92
:1038B000784890ED0E0B8DED080B9DED080B06F092
:1038C0008FFA8DED0C0B734890ED0C0B8DED040B06
:1038D0009DED040B06F084FA8DED080B6D4890ED1C
:1038E000100B8DED040B9DED040B05F0EDFB8DED44
:1038F000060B9DED080B53EC102B9DED060B51ECC8
:10390000100B07F0C5FDCDE90A019DED0C0B53EC42
:10391000102B9DED0A0B51EC100B07F0B9FDCDE912
:1039200010015C4890ED0E0B8DED080B9DED080B22
:1039300005F0CAFB8DED0C0B564890ED100B8DED8C
:10394000080B9DED080B06F04BFA8DED0A0B9DED73
:103950000C0B53EC102B9DED0A0B51EC100B07F0E8
:1039600097FDCDE90E019DED100B53EC102B9DED55
:103970000E0B51EC100B07F0B3FA484A03C245484E
:1039800090ED0E0B8DED080B9DED080B05F09CFBEB
:103990008DED0C0B3F4890ED0C0B8DED040B9DED68
:1039A000040B06F01DFA8DED080B3A4890ED100B54
:1039B0008DED040B9DED040B05F086FB8DED060BE4
:1039C0009DED080B53EC102B9DED060B51EC100BED
:1039D00007F05EFDCDE90A019DED0C0B53EC102BB9
:1039E0009DED0A0B51EC100B07F052FDCDE91001D3
:1039F000284890ED0E0B8DED080B9DED080B06F0A1
:103A0000EFF98DED0C0B234890ED100B8DED080BAD
:103A10009DED080B06F0E4F98DED0A0B9DED0C0B06
:103A200053EC102B9DED0A0B51EC100B07F030FD01
:103A3000CDE90E019DED100B53EC102B9DED0E0BFF
:103A400051EC100B07F030FF154A03C2114890EDFE
:103A50000C0B8DED0C0B9DED0C0B05F035FB8DED7E
:103A6000100B0C4890ED100B8DED0C0B9DED0C0B1D
:103A700005F02AFB8DED0E0B9DED100B53EC102B7A
:103A80009DED0E0B51EC100B07F002FD054A03C231
:103A900028B010BDA0140020980000207000002065
:103AA00088000020A000002010B502F0F5FC03F013
:103AB0005BFD10BD7CB505460C460121042003F0DA
:103AC0005DF90021084600F033FAB6227E2100207D
:103AD00000F060FAB6221421002000F05BFA012009
:103AE00006F077FE0021084600F022FA00227C2131
:103AF000104600F04FFA012006F06BFEA92240218B
:103B0000002000F047FA2A464121002000F042FA46
:103B100004227D21002000F03DFA22460F210120E1
:103B200000F038FA06221021012000F033FA282094
:103B3000009000208DF8040003208DF8050002207D
:103B40008DF8070069461D4801F0F8FA1DB90620F6
:103B50001B49088010E0012D03D10C201849088072
:103B60000AE0022D03D118201549088004E0032D36
:103B700002D1302012490880042C03D1FA201149C7
:103B8000088019E0032C04D14FF4FA700D49088025
:103B900012E0022C04D14FF47A700A4908800BE03D
:103BA000012C04D14FF4FA600649088004E01CB9E6
:103BB0004FF47A60034908807CBD00000008024091
:103BC0001C0000201E00002010B52DED0A8B0446BD
:103BD000062322461221002000F070F92078617837
:103BE00040EA012000B2E080A078E17840EA0120BC
:103BF00000B220812079617940EA012000B2608121
:103C0000022322462221002000F058F96078217812
:103C100040EA01204011A4F84800B4F9480000EE41
:103C2000100AF8EEC00AB4EE001AB3EE070A00EE6E
:103C3000810A10EE101A084607F020FFC4E91401AB
:103C4000062322460221012000F038F9207861780D
:103C500040EA012000B22085A078E17840EA012006
:103C600000B260852079617940EA012000B2A08528
:103C70008B48B0F9000007F0A4FB41EC1A0BB4F933
:103C8000060007F09EFB41EC1C0B9FED860B53ECEE
:103C9000102B07F0E1F941EC1B0B53EC1A2B07F04A
:103CA000F7FB41EC190B9FED810B53EC102B07F048
:103CB000EFFB41EC180B7F4890ED001BB0EE410A82
:103CC000F0EE610A53EC102B51EC180B07F0ECFDF1
:103CD000C4E904017248B0F9000007F072FB41EC3E
:103CE0001A0BB4F9080007F06CFB41EC1C0B9FEDBC
:103CF0006D0B53EC102B07F0AFF941EC1B0B53ECA1
:103D00001A2B07F0C5FB41EC190B9FED680B53EC28
:103D1000102B07F0BDFB41EC180B664890ED021B21
:103D2000B0EE410AF0EE610A53EC102B51EC180B87
:103D300007F0BAFDC4E906015948B0F9000007F0E0
:103D400040FB41EC1A0BB4F90A0007F03AFB41ECD6
:103D50001C0B9FED540B53EC102B07F07DF941EC3D
:103D60001B0B53EC1A2B07F093FB41EC190B9FED47
:103D70004F0B53EC102B07F08BFB41EC180B4D480D
:103D800090ED041BB0EE410AF0EE610A53EC102BEB
:103D900051EC180B07F088FDC4E908014648B0F95A
:103DA000000007F00EFB41EC190BB4F9280007F0F6
:103DB00008FB41EC1B0B9FED3B0B53EC102B07F06A
:103DC0004BF941EC1A0B53EC192B07F061FB41EC5A
:103DD000180B384890ED061BB0EE410AF0EE610A70
:103DE00053EC102B51EC180B07F05EFDC4E90C01ED
:103DF0003148B0F9000007F0E4FA41EC190BB4F9CE
:103E00002A0007F0DEFA41EC1B0B9FED260B53EC6A
:103E1000102B07F021F941EC1A0B53EC192B07F08A
:103E200037FB41EC180B234890ED081BB0EE410A1C
:103E3000F0EE610A53EC102B51EC180B07F034FD37
:103E4000C4E90E011C48B0F9000007F0BAFA41ECD1
:103E5000190BB4F92C0007F0B4FA41EC1B0B9FEDE1
:103E6000110B53EC102B07F0F7F841EC1A0B53EC45
:103E7000192B07F00DFB41EC180B0E4890ED0A1BB7
:103E8000B0EE410AF0EE610A53EC102B51EC180B26
:103E900007F00AFDC4E91001BDEC0A8B10BD00005B
:103EA0001C00002000000000E0FFEF4005A3923A54
:103EB000019D2340381500201E0000202DE9F0410F
:103EC00004460F4615461E461CB9002016490860D8
:103ED00003E00020144908310860012006F086FC48
:103EE00047F08001114803F0B5FA1CB900210F48D2
:103EF00003F0B0FA07E000210C4803F0ABFA287099
:103F00006D1C701EC6B2002EF5DC1CB901200649DE
:103F1000086003E00120044908310860012006F030
:103F200065FCBDE8F081000088024142003001409C
:103F300070B504460D461CB900201349086003E023
:103F4000002011490831086045F080010F4803F056
:103F500081FA1CB900210D4803F07CFA00210B48BE
:103F600003F078FA0A4908701CB901200649086074
:103F700003E00120044908310860012006F036FC06
:103F80000348007870BD00008802414200300140C3
:103F90002000002070B504460D4616461CB90020CE
:103FA0000F49086003E000200D4908310860012036
:103FB00006F01CFC05F07F010A4803F04BFA31467D
:103FC000084803F047FA1CB901200549086003E0DE
:103FD00001200349083108600A2006F007FC70BD83
:103FE000880241420030014010B5012006F0FEFB7E
:103FF00082214B2000F0A4F80A2006F0EAFB012100
:104000004B2000F09DF838214E2000F099F8074829
:1040100000F034F81721512000F092F852210846A0
:1040200000F08EF8642006F0D4FB10BD10020020D2
:1040300070B506460C46154600200E490860012062
:1040400006F0D4FB46F080010B4803F003FA07E0CA
:104050000021094803F0FEF92070641C681EC5B2F7
:10406000002DF5DC0120034908600A2006F0BEFBA4
:1040700070BD0000800241420030014030B585B083
:1040800004460020049003900090019002900025C7
:104090004FF47A7006F09DFB022204A95D20FFF721
:1040A000C7FF042203A96220FFF7C2FF0A22694664
:1040B0006820FFF7BDFF9DF8100040B220709DF80A
:1040C000110040B260709DF80E0040B2A0709DF8E3
:1040D0000F0040B2E0709DF8030005029DF8020059
:1040E0002843A0809DF8010005029DF800002843A8
:1040F00000B2E0809DF8070005029DF80600284305
:1041000000B220819DF80D0005029DF80C002843A7
:1041100000B260819DF8090020739DF8080040B24C
:1041200060739DF8050000F07F004FF6FF7101EA13
:1041300000259DF804002843E08105B030BD000053
:1041400070B504460D4600200A490860012006F0BB
:104150004DFB04F07F01084803F07CF9294606482E
:1041600003F078F901200549C1F880020A2006F021
:104170003DFB70BD800241420030014000004142E1
:1041800030B52DED048B87B004460D46152201A9EC
:10419000312000F0ABFB9DF804009DF8051040EACB
:1041A000012020809DF806009DF8071040EA0120BC
:1041B00060809DF8080040B220719DF809009DF8CC
:1041C0000A1040EA012000B2E0809DF80B009DF843
:1041D0000C1040EA012000B220819DF80D0040B291
:1041E000A0729DF80E0040B2E0729DF80F009DF89D
:1041F000101040EA0120A0819DF811009DF81210D6
:1042000040EA0120E0819DF8130040B220749DF83F
:10421000140040B260749DF815009DF8161040EA35
:10422000012000B260829DF8170040B220759DF811
:10423000180040B260759FED800BB0EE408AF0EE42
:10424000608A208807F0D4F841EC190B53EC182B46
:1042500006F002FFC5E900019FED790BB0EE408A40
:10426000F0EE608A608807F0C3F841EC190B53EC5C
:10427000182B06F0F1FEC5E902019FED730BB0EEBD
:10428000408AF0EE608A94F9040007F09AF841EC55
:10429000190B53EC182B06F0DFFEC5E904019FED66
:1042A0006C0BB0EE408AF0EE608AB4F90610A1F50E
:1042B000804007F086F841EC190B53EC182B06F000
:1042C000CBFEC5E906019FED640BB0EE408AF0EE2F
:1042D000608AB4F90810A1F5804007F072F841EC4B
:1042E000190B53EC182B06F0B7FEC5E908019FED3A
:1042F0005C0BB0EE408AF0EE608A94F90A0007F099
:1043000060F841EC190B53EC182B06F0A5FEC5E93B
:104310000A019FED550BB0EE408AF0EE608A94F9E9
:104320000B0007F04EF841EC190B53EC182B06F07C
:1043300093FEC5E90C019FED4E0BB0EE408AF0EE06
:10434000608AA08907F054F841EC190B53EC182B44
:1043500006F082FEC5E90E019FED470BB0EE408AE4
:10436000F0EE608AE08907F043F841EC190B53EC5A
:10437000182B06F071FEC5E910019FED410BB0EE60
:10438000408AF0EE608A94F9100007F01AF841ECC8
:10439000190B53EC182B06F05FFEC5E912019FEDD7
:1043A0003A0BB0EE408AF0EE608A94F9110007F003
:1043B00008F841EC190B53EC182B06F04DFEC5E93B
:1043C00014019FED210BB0EE408AF0EE608AB4F943
:1043D000120006F0F6FF41EC190B53EC182B06F017
:1043E0003BFEC5E916019FED180BB0EE408AF0EEDA
:1043F000608A94F9140006F0E4FF41EC190B53ECC9
:10440000182B06F029FEC5E918019FED210BB0EE2F
:10441000408AF0EE608A94F9150006F0D2FF41EC74
:10442000190B53EC182B06F017FEC5E91A0107B05B
:10443000BDEC048B30BD0000000000000000703FA8
:10444000000000000000D041000000000000F04229
:104450000000000000003041000000000000C041EA
:10446000000000000000F041000000000000404299
:10447000000000000000C03F0000000000005040AD
:104480000000000000007040000000000000E0405C
:10449000000000000000004410B514491448FFF764
:1044A0006FFEB6217E2000F0D5FA012006F091F9CA
:1044B00001211C2000F0CEFA01211D2000F0CAFAD3
:1044C00002211F2000F0C6FA33211B2000F0C2FA9F
:1044D000142006F07EF99FED070B084880ED000BD5
:1044E00000F00EF8054880ED000B10BD1003002011
:1044F000F80200200000000000000000280000205A
:1045000010B52DED0C8B2B4800F06EF82A4890ED7D
:10451000000B53EC102B9FED290B51EC100B06F008
:104520009BFD41EC1C0B234890ED041BB0EE410AAF
:10453000F0EE610A9FED231B53EC112B51EC100B95
:1045400006F08AFD41EC1D0BB0EE4C1AF0EE6C1A31
:10455000B0EE4D0AF0EE6D0A04F01AFEB0EE40BA6D
:10456000F0EE60BA9FED190B53EC102B51EC1B0BC6
:1045700007F0C2F841EC1A0B9FED160B53EC102B11
:1045800006F086FF41EC190B9FED140B53EC102B3A
:1045900006F062FD41EC180B124890ED000B53EC55
:1045A000102B51EC180B07F07FF941EC100BBDEC10
:1045B0000C8B10BD8803002060BC000823C95AE0A2
:1045C0007EDAFD3F00000000D0BCF8400000000093
:1045D0000000F03F666666666602724039B4C876CF
:1045E000BE9F7A3F2800002010B52DED108B84B0BF
:1045F0000446204600F0CAF900BF032000F09EF9EF
:1046000000200028F9D103222146042000F06EF991
:10461000A0780004617840EA0120217808436060B6
:10462000AD4890ED1C2BB0EE420AF0EE620A90ED20
:10463000102BB0EE421AF0EE621A53EC102B51EC34
:10464000110B06F025FF41EC180BA34890ED1C1B45
:10465000B0EE410AF0EE610A9FEDA01B04F098FD58
:10466000B0EE40CAF0EE60CA9B4890ED121BB0EE6F
:10467000410AF0EE610A53EC102B51EC1C0B06F0D2
:1046800007FF41EC190B944890ED1C1BB0EE410A5A
:10469000F0EE610A9FED931B04F07AFDB0EE40CA84
:1046A000F0EE60CA8C4890ED141BB0EE410AF0EEBB
:1046B000610A53EC102B51EC1C0B06F0E9FE41ECA7
:1046C0001A0B854890ED0E1BB0EE410AF0EE610A20
:1046D00053EC182B51EC100B06F002FC41EC1D0BB7
:1046E00053EC192B06F0FCFB41EC1C0B53EC1A2B82
:1046F00006F0F6FBCDE90201774890ED1C2BB0EEF9
:10470000420AF0EE620A90ED082BB0EE421AF0EE8B
:10471000621A53EC102B51EC110B06F0B9FE41EC70
:10472000180B6D4890ED1C1BB0EE410AF0EE610ACB
:104730009FED6A1B04F02CFDB0EE40CAF0EE60CA9B
:10474000654890ED0A1BB0EE410AF0EE610A53ECA9
:10475000102B51EC1C0B06F09BFE41EC190B5E4834
:1047600090ED1C1BB0EE410AF0EE610A9FED5D1B5F
:1047700004F00EFDB0EE40CAF0EE60CA564890ED6F
:104780000C1BB0EE410AF0EE610A53EC102B51EC19
:104790001C0B06F07DFE41EC1A0B4F4890ED061BFA
:1047A000B0EE410AF0EE610A53EC182B51EC100BFD
:1047B00006F096FB41EC1F0B53EC192B06F090FB17
:1047C00041EC1E0B53EC1A2B06F08AFB41EC1C0B40
:1047D000606806F0F6FD41EC1D0B53EC1C2B06F057
:1047E00057FECDE90001606806F0EBFD41EC1C0BC3
:1047F0009FED3A1BB0EE4C0AF0EE6C0A04F0C8FCD8
:10480000B0EE408AF0EE608A334890ED1C2BB0EE9B
:10481000420AF0EE620A90ED182BB0EE421AF0EE6A
:10482000621A53EC102B51EC110B06F031FE41ECE7
:104830001C0B294890ED161BB0EE410AF0EE610A00
:1048400053EC102B51EC1C0B06F04AFB41EC190BFE
:1048500053EC192B51EC180B06F01AFE41EC1A0B15
:10486000606806F0AEFD41EC1E0B9FED1E1BB0EE26
:104870004E0AF0EE6E0A04F08BFCB0EE40DAF0EE79
:1048800060DA154890ED1A1BB0EE410AF0EE610AAD
:1048900053EC102B51EC1D0B06F0FAFD41EC1C0BF8
:1048A00053EC1A2B06F01CFB41EC1B0B9DED000B8F
:1048B00053EC102B9DED020B51EC100B06F010FB8E
:1048C00041EC1C0B53EC1B2B06F00AFBC4E9040162
:1048D00004B0BDEC108B10BD1003002000000000E0
:1048E00000000040000000000000084070B50646CF
:1048F0000C46154600200F490860012005F076FFA0
:1049000046F080010C4802F0A5FD00210A4802F0A3
:10491000A1FD07E00021084802F09CFD2070641C06
:10492000681EC5B2002DF5DC01200249086005F0C3
:104930005DFF70BD840241420030014010B5044665
:1049400000200E490860012005F050FF44F080016E
:104950000B4802F07FFD0021094802F07BFD002199
:10496000074802F077FD0749087001200649C1F8A1
:10497000840205F03BFF0348007810BD84024142E9
:1049800000300140300000200000414210B52DED04
:10499000088B044600BF0320FFF7D0FF002000284B
:1049A000F9D1032221460720FFF7A0FFA0780004D9
:1049B000617840EA0120217808436060606806F071
:1049C00000FD41EC1A0B224890ED001BB0EE410AAD
:1049D000F0EE610A53EC102B51EC1A0B06F064FF59
:1049E00041EC180B1A4890ED021BB0EE410AF0EEB4
:1049F000610A53EC102B51EC180B06F049FD41EC09
:104A0000190B53EC182B51EC180B06F041FD41EC3F
:104A10001B0B0F4890ED041BB0EE410AF0EE610A4B
:104A200053EC102B51EC1B0B06F032FD41EC1A0B32
:104A300053EC192B06F054FA054AC2E91C01104642
:104A400090ED1C0B84ED020BBDEC088B10BD00003B
:104A50001003002070B504460D4600BF0320FFF789
:104A60006DFF00F010000028F8D0012005F0BEFE18
:104A700000200A490860012005F0B8FE04F07F011B
:104A8000074802F0E7FC2946054802F0E3FC012054
:104A90000449C1F8840205F0A9FE70BD84024142B8
:104AA000003001400000414210B58AB004460121A7
:104AB000022002F063F90121042002F06FF94FF4A3
:104AC0008070089002208DF8240003208DF82500C6
:104AD00000208DF8260002208DF8270008A91B4829
:104AE00000F02CFB02220821184800F06FFBD120B7
:104AF000ADF814000020ADF8160040F2E730069043
:104B00000020ADF81C0005A9114803F0FDF8602055
:104B1000ADF800000120ADF802000020ADF80C0057
:104B200069460B4803F042F80821094803F08EF863
:104B30000121074802F05AFF2146054802F068FFAC
:104B40005021034803F0D9F80AB010BD0004024018
:104B50000008004000BFFEE710B504464AA1204609
:104B6000FBF77CFD28B901204A49087002F0FCFCE3
:104B700088E049A12046FBF771FD28B9022045498C
:104B8000087002F01FFD7DE046A12046FBF766FDA0
:104B900010B903F02FFD75E047A12046FBF75EFD3D
:104BA00010B903F0D3FC6DE047A12046FBF756FD9A
:104BB00048B900204849086003F0A2FC0120474999
:104BC000C1F8AC025EE046A12046FBF747FD28B9DC
:104BD000462030490870FEF767FF53E046A12046A3
:104BE000FBF73CFD10B902F0EDFC4BE045A120467F
:104BF000FBF734FD28B9482026490870FDF72AFB49
:104C000040E047A12046FBF729FD28B9492021496A
:104C1000087003F05BFC35E047A12046FBF71EFD62
:104C200028B94A201B49087001F010FC2AE048A16D
:104C30002046FBF713FD10B901F052F922E049A11B
:104C40002046FBF70BFD10B901F0DAF81AE04AA193
:104C50002046FBF703FD28B964200E49087000F0D8
:104C6000F9F90FE047A12046FBF7F8FC38B96520B9
:104C7000084908704FF4803000F000F902E000208D
:104C80000449087010BD0000424D495F5354415221
:104C90005400000038000020424D495F53544F50EB
:104CA00000000000573235515F44617461436F6EFC
:104CB00073756C7400000000573235515F446174A5
:104CC00061436C6561720000573235515F4368691A
:104CD0007045726173650000AC02404200004042C2
:104CE0004174746974756465536F6C7574696F6E23
:104CF0005F5445535400000053616D706C655F5301
:104D0000544F5000416363656C65726174696F6EE6
:104D1000536F6C7574696F6E5F5445535400000097
:104D200056656C6F63697479536F6C7574696F6ED7
:104D30005F54455354000000506F736974696F6E7F
:104D4000536F6C7574696F6E5F5445535400000067
:104D50004D6F74696F6E4F66667365745F494E4937
:104D6000540000004D6F74696F6E4F666673657412
:104D70005F4445494E4954004461746153746F72F5
:104D80006167650044617461526561640000000000
:104D900010B52DED068B324890ED0A2BB0EE420A8D
:104DA000F0EE620A90ED002BB0EE421AF0EE621ABD
:104DB00053EC102B51EC110B06F076FD41EC1A0B65
:104DC000284890ED000B53EC102B51EC1A0B06F019
:104DD0005FFB41EC190B9FED240B53EC102B06F0FD
:104DE0003BF941EC180B9FED220B53EC102B06F016
:104DF0004FFB214AC2E91A01194890ED0C2BB0EE85
:104E0000420AF0EE620A90ED022BB0EE421AF0EE8A
:104E1000621A53EC102B51EC110B06F045FD41ECDE
:104E20001A0B104890ED000B53EC102B51EC1A0BA1
:104E300006F02EFB41EC190B9FED0B0B53EC102BE6
:104E400006F00AF941EC180B9FED090B53EC102BFF
:104E500006F01EFB084AC2E91801BDEC068B10BD26
:104E6000B802002068BC0008000000000080664016
:104E700000000040104E5841A01400202DE9F041E0
:104E800004461CA0FBF762FA1F48FBF75FFA26E016
:104E900080221E49204603F0E3FB1C4E3068401C74
:104EA00000B920E041461AA0FBF750FA174D002741
:104EB0000DE095ED001BB0EE410AF0EE610A53ECF7
:104EC000102B14A0FBF742FA0835781CC7B2102F3C
:104ED000EFDB0CA0FBF73AFA803408F10108104828
:104EE00000786528D4D000BF0EA0FBF72FFABDE8EC
:104EF000F0810000446174612069732073656E6401
:104F0000696E67210D0A00000CC00008A003002094
:104F100025753A002020252B302E34660000000035
:104F20003800002044617461206861732062656507
:104F30006E2073656E646564210D0A0010B5A0B023
:104F40006C463E4890ED180B8DED000B90ED1A0B62
:104F50008DED020B3A4890ED040B8DED040B90EDB6
:104F6000080B8DED060B90ED060B8DED080B33480D
:104F700090ED000B8DED0A0B90ED020B8DED0C0BFF
:104F800090ED040B8DED0E0B90ED060B8DED100BDF
:104F900090ED080B8DED120B90ED0A0B8DED140BBF
:104FA00090ED0C0B8DED160B90ED100B8DED180B9D
:104FB00090ED0E0B8DED1A0B90ED220B8DED1C0B71
:104FC00090ED240B8DED1E0B00BF1E480078C0072E
:104FD000000E1D4908800AE014F8010B1B491A4A0B
:104FE0001288885418480088401C174908801548C2
:104FF000007800F00100401C13490988B1EBC01F84
:10500000EAD31048007800F0010078B90D48006834
:1050100060B14FF480720D490D48006803F056FBF3
:105020000B48006800F58070094908600548006871
:10503000401C0449086020B010BD0000A0140020EE
:10504000B80200203C00002044000020A003002003
:105050004000002010B501F01FFA0020054908604B
:105060004FF480300449086004A0FBF76FF902F0A8
:105070007BFA10BD3C0000204000002044617461B8
:105080002069732073746F726167696E67210D0AFE
:10509000000000007047000030B10749096841F482
:1050A0008071054A116005E00349096821F48071A7
:1050B000014A116070470000003C0240014A107034
:1050C00070470000003C02401CB50121022001F0A5
:1050D00055FE0121084601F051FE182000900120E4
:1050E0008DF8040000208DF8060002208DF80500E0
:1050F0008DF8070069460D4800F020F800200C49A3
:1051000008600C49C1F890024FF400400090002064
:105110008DF8040002208DF8050001208DF80700AD
:105120006946054800F00AF81CBD00000004024072
:105130008C8240420080404200000240F0B50A46A6
:1051400000210023002400BF3DE0012505FA01F302
:10515000156805EA03049C4234D105684F00032614
:10516000BE40B543056015794E00B540066835432D
:1051700005601579012D02D01579022D16D18568AB
:105180004F000326BE40B543856055794E00B540BB
:10519000866835438560456801268E40B543456085
:1051A000456896798E40B6B235434560C5684F0074
:1051B0000326BE40B543C560D5794E00B540C668EC
:1051C0003543C560491C1029BFD3F0BDF0B500239D
:1051D00000244D07ED0E02FA05F3CE1000F1200574
:1051E00055F826504E07F70E0F26BE40B543CF1098
:1051F00000F1200646F82750CE1000F1200555F8A2
:10520000265045EA0304CE1000F1200545F826405B
:10521000F0BD000030B52DED088B8FB004460020A6
:105220000D90207824287DD1E07852287BD12079F8
:105230004D28FBD160794328F8D101200E905EE320
:105240009DF83800205C2C2816D19DF83400401CB5
:10525000C0B20D909DF834000E2800DD54E39DF897
:105260003400022813D19DF83800401C205C4128EE
:1052700003D10120F74908703BE39DF83800401C3A
:10528000205C5628F8D10220F24908703CE39DF8D2
:10529000340003287DD19DF83800401CC0B20C902A
:1052A0009DF83000205C2C2800D123E3A5E09DF878
:1052B0003050691CC9B20C91615D303901EB81013C
:1052C000480006F07EF8CDE90A019DF83050691CCF
:1052D000C9B20C91615DA1F1300006F072F89DED4C
:1052E0000A0B53EC102B05F0FBFDCDE90A019DF8EC
:1052F0003050691CC9B20C91615DA1F1300006F01B
:1053000060F89FEDD50B53EC102B05F0A5FE9DED3D
:105310000A0B53EC102B05F0E3FDCDE90A019DF8D3
:10532000305001E003E31AE3691CC9B20C91615DDE
:10533000A1F1300006F045F89FEDC90B53EC102B9E
:1053400005F08AFE9DED0A0B53EC102B05F0C8FD0D
:10535000CDE90A019DF83000401CC0B20C909FEDD1
:10536000C20B8DED000B37E09DF83050691CC9B2BF
:105370000C91615DA1F1300006F023F841EC1A0BAD
:105380009DED000B53EC102B06F082F841EC190B4D
:1053900000E034E09FEDB20B53EC102B05F05CFE07
:1053A00041EC180B9DED0A0B53EC102B05F098FD0A
:1053B000CDE90A019DED000B53EC102B9FEDAA0BDC
:1053C00051EC100B06F064F8CDE900019DF83000B7
:1053D000205C2C2800D100E0C6E700BF9DF830001B
:1053E000401C205C532807D19DED0A0B51EC100B9B
:1053F00005F06AFDCDE90A0100E058E779E29DF881
:105400003400052879D19DF83800401CC0B20C90BA
:105410009DF83000205C2C2800D16BE2B5E09DF8AF
:105420003050691CC9B20C91615D3039642211FBA6
:1054300002F005F0C6FFCDE908019DF83050691C67
:10544000C9B20C91615D303901EB8101480005F072
:10545000B8FF9DED080B53EC102B05F041FDCDE995
:1054600008019DF83050691CC9B20C91615DA1F131
:10547000300005F0A6FF9DED080B53EC102B05F056
:105480002FFDCDE908019DF83050691CC9B20C917F
:10549000615DA1F1300005F094FF9FED6F0B53ECBF
:1054A000102B05F0D9FD9DED080B53EC102B05F0EA
:1054B00017FDCDE908019DF83050691CC9B20C9167
:1054C000615DA1F1300005F07CFF9FED650B53ECB1
:1054D000102B05F0C1FD9DED080B53EC102B05F0D2
:1054E000FFFCCDE908019DF83000401CC0B20C90D3
:1054F0009FED5D0B8DED000B36E048E09DF83050E0
:10550000691CC9B20C91615DA1F1300005F059FF31
:1055100041EC1A0B9DED000B53EC102B05F0B8FF7E
:1055200041EC190B9FED4E0B53EC102B05F094FD45
:1055300041EC180B9DED080B53EC102B05F0D0FC43
:10554000CDE908019DED000B53EC102B9FED460BB0
:1055500051EC100B05F09CFFCDE900019DF83000E7
:10556000205C2C2800D100E0C8E700BF9DF8300087
:10557000401C205C572807D19DED080B51EC100B07
:1055800005F0A2FCCDE9080100E048E7B1E19DF893
:1055900034000728FAD19DF83800401C205C2C28E4
:1055A00000D1A7E19DF83800401CC0B20C909DE0EE
:1055B0009DF83000205C2E284BD19FED2D0B8DEDFA
:1055C000040B9DF83800401CC0B20E9031E09DF8ED
:1055D00030109DF83820891A481E05F0F2FE41EC83
:1055E0001B0BB0EE4B1AF0EE6B1A9FED230B03F082
:1055F000CFFDB0EE409AF0EE609A9DF83810615CF5
:10560000A1F1300005F0DDFE41EC1A0B53EC192B33
:1056100005F03EFF41EC180B9DED040B53EC102BF5
:1056200005F05EFCCDE904019DF83800401CC0B2D5
:105630000E909DF838009DF830108842C7DB9FED32
:105640000A0B8DED000B9DF83800401CC0B20E9087
:1056500044E046E021000020000000000000184067
:105660000000000000004E40000000A09999B93FE2
:1056700000000000000000000000000000002440C6
:105680009DF83850691CC9B20E91615DA1F13000DE
:1056900005F097FE41EC190B9DED000B53EC102B20
:1056A00005F0F6FE41EC180B9DED040B53EC102BAE
:1056B00005F016FCCDE904019DF83800205C2C288B
:1056C00000D10CE01FED180B53EC102B9DED000BDF
:1056D00051EC100B05F0DCFECDE90001D0E700BF76
:1056E00009E09DF83000401CC0B20C909DF83000DD
:1056F000C828FFF65DAF00BF9DF83800401C205C55
:105700002C2800D1F6E09DF83800401CC0B20C9067
:1057100087E09DF83000205C2E287DD11FED2C0BFA
:105720008DED020B9DF83800401CC0B20E9031E0A8
:105730009DF830109DF83820891A481E05F041FE6A
:1057400041EC1B0BB0EE4B1AF0EE6B1A1FED360B53
:1057500003F01EFDB0EE409AF0EE609A9DF838100E
:10576000615CA1F1300005F02CFE41EC1A0B53EC0A
:10577000192B05F08DFE41EC180B9DED020B53EC3F
:10578000102B05F0ADFBCDE902019DF83800401C5F
:10579000C0B20E909DF838009DF830108842C7DBEB
:1057A0001FED4F0B8DED000B9DF83800401CC0B273
:1057B0000E902DE09DF83850691CC9B20E91615DC4
:1057C000A1F1300005F0FDFD41EC190B9DED000B42
:1057D00053EC102B05F05CFE41EC180B9DED020B19
:1057E00053EC102B05F07CFBCDE902019DF838004D
:1057F000205C2C2800D10DE01FED650B53EC102B25
:105800009DED000B51EC100B05F042FECDE90001BF
:10581000D0E701E000BF09E09DF83000401CC0B2B5
:105820000C909DF83000C828FFF673AF00BF9FEDC5
:10583000B50B53EC102B9DED020B51EC100B05F04A
:105840000BFC41EC1B0B9FEDB10B53EC102B05F047
:105850001FFE41EC1A0BB0EE4A0AF0EE6A0A03F0A2
:1058600033FCB0EE408AF0EE608A9FEDAA0B53EC59
:10587000102B9DED040B51EC100B05F009FE41ECD3
:10588000190B53EC182B05F003FEA44AC2E90601DC
:105890009FED9C0B53EC102B9DED020B51EC100B6C
:1058A00005F0DAFB41EC1B0B9FED980B53EC102B32
:1058B00005F0EEFD41EC1A0BB0EE4A0AF0EE6A0A72
:1058C00004F08EFAB0EE408AF0EE608A9FED910B04
:1058D00053EC102B9DED040B51EC100B05F0D8FD93
:1058E00041EC190B53EC182B05F0D2FD8B4AC2E9A1
:1058F000080100BF9DF83800401CC0B20E909DF812
:105900003800C828FFF69CAC00BF8548007878B9FD
:105910008448007801280BD1814908709DED0A0B5D
:105920007E4880ED0A0B9DED080B80ED0C0BE5E049
:105930007B4800780028FAD07A4800780128F6D110
:105940009DED0A0B754880ED000B9DED080B80ED79
:10595000020BFFF71DFA012071490870CEE0E078D4
:10596000472877D12079472874D16079412871D1AF
:105970006C48007801286DD10E90BAE09DF838008F
:10598000205C2C2867D19DF83400401CC0B20D90DB
:105990009DF8340009285ED19DF83800401C205C39
:1059A0002C2800D1A0E09DF83800401CC0B20C901B
:1059B00093E09DF83000205C2E286FD11FEDD40BB2
:1059C0008DED060B9DF83800401CC0B20E9031E002
:1059D0009DF830109DF83820891A481E05F0F1FC1A
:1059E00041EC1B0BB0EE4B1AF0EE6B1A1FEDDE0B09
:1059F00003F0CEFBB0EE409AF0EE609A9DF83810BE
:105A0000615CA1F1300005F0DCFC41EC1A0B53ECB9
:105A1000192B05F03DFD41EC180B9DED060B53ECE9
:105A2000102B05F05DFACDE906019DF83800401C09
:105A3000C0B20E909DF838009DF830108842C7DB48
:105A40001FEDF70B8DED000B9DF83000401CC0B230
:105A50000C9030E052E046E09DF83050691CC9B22D
:105A60000C91615DA1F1300005F0ABFC41EC190B2C
:105A70009DED000B53EC102B05F00AFD41EC180BCB
:105A80009DED060B53EC102B05F02AFACDE906012B
:105A90009DF83000205C2C2801D10DE018E09FED2E
:105AA000220B53EC102B9DED000B51EC100B05F06D
:105AB000EFFCCDE90001CFE700BF9DED060B1748D5
:105AC00080ED040B9DED060B194880ED1C0B09E0E1
:105AD0009DF83000401CC0B20C909DF83000C828E2
