:020000040800F2
:10000000401B0020D502000865430008EF3C0008B3
:10001000153F0008B13A00085B57000800000000D7
:10002000000000000000000000000000134B00086A
:10003000713B00080000000001440008154D000855
:10004000EF020008EF020008EF020008EF020008CC
:10005000EF020008EF020008EF020008EF020008BC
:10006000EF020008EF020008EF020008EF020008AC
:10007000EF020008EF020008EF020008EF0200089C
:10008000EF020008EF020008EF020008EF0200088C
:10009000EF020008EF020008EF020008EF0200087C
:1000A000EF020008EF020008EF020008EF0200086C
:1000B000814D0008EF020008EF020008EF0200087F
:1000C000EF020008EF020008EF020008EF0200084C
:1000D000EF020008B552000815540008F954000852
:1000E000EF020008EF020008EF020008EF0200082C
:1000F000EF020008EF020008EF020008EF0200081C
:10010000EF020008EF020008EF020008EF0200080B
:10011000EF020008EF020008EF020008EF020008FB
:10012000EF020008EF020008EF020008EF020008EB
:10013000EF020008EF020008EF020008EF020008DB
:10014000EF020008EF020008EF020008EF020008CB
:10015000EF020008EF020008EF020008EF020008BB
:10016000EF020008EF020008EF020008EF020008AB
:10017000EF020008EF020008EF020008EF0200089B
:10018000EF020008EF02000800F002F800F092F819
:100190000AA090E8000C82448344AAF10107DA45E2
:1001A00001D100F087F8AFF2090EBAE80F0013F0A2
:1001B000010F18BFFB1A43F001031847A881000084
:1001C000C8810000103A24BF78C878C1FAD8520715
:1001D00024BF30C830C144BF04680C6070470000C1
:1001E0000023002400250026103A28BF78C1FBD840
:1001F000520728BF30C148BF0B6070476E2900F01E
:100200008382702900F00586662907F0EF8665294C
:1002100007F0EC86672907F0E986612907F0E88690
:1002200003681B0A28BF41F08001692900F0308271
:10023000642900F02D82752900F02A826F2900F0D0
:100240009285782900F0D185E92900F02D85E429EF
:1002500000F02A85F52900F02785EF2900F08F8529
:10026000F82900F0D0850368DB0928BF41F0800140
:10027000632900F09C84732900F0A184E32901F034
:100280004180F32901F04680002070471FB507F038
:10029000A8FE00F0C9FD04000020002107F09EF830
:1002A000401C60600020002107F082F8E0601FBD64
:1002B00010B510BD01F0CCF81146FFF7E7FF06F0CE
:1002C0006FFF01F0F3F803B4FFF7F2FF03BC06F091
:1002D000C6FE00000948804709480047FEE7FEE7E0
:1002E000FEE7FEE7FEE7FEE7FEE7FEE7FEE7FEE7E6
:1002F00004480549054A064B70470000194D00089F
:100300008901000840150020401B002040170020F4
:1003100040170020704700007CB51D4616460C00B3
:10032000009001D02044401E074B7B442A4669467A
:100330000190304600F011FC05461CB100206946D2
:1003400000F01EFC28467CBD5D0800000FB4044987
:1003500010B503AA029800F037FC10BC5DF814FB3E
:100360001000002070B50C460546012A05D02878FB
:10037000800600D5EA69002302E0012305E05B1C4A
:10038000934202D2E05C0028F9D1A869E618C01AAD
:10039000A861286A18442862284600F040F904E061
:1003A000D5E9012114F8010B9047B442F8D328464F
:1003B00000F04BF970BD00002DE9F05F894604465E
:1003C0004FF0000ADFF874B1FB44C0F820A02046CB
:1003D000E1688847002874D0252806D0D4E9012197
:1003E0009047206A401C2062F1E700265F462046C5
:1003F000E16888472028054607DB312D05D27819AA
:1004000010F8200C08B10643F1E7B00701D526F03B
:100410000406C4F81CA00027C4F818A02A2D09D08F
:10042000284606F015FE38B304EB8708303DC8F8BF
:10043000185019E059F8041B204604EB870291611B
:10044000E1688847012F054618D1E069002820DAC5
:1004500026F020061DE0D8F8180000EB800005EB20
:1004600040003038C8F818002046E1688847054643
:1004700006F0EEFD0028EED1012F0AD02E2D08D176
:100480002046E16888477F1C0546022F46F020067B
:10049000C4DBA069002803DA404246F00106A061EF
:1004A000F00701D026F010066C2D0BD0682D09D076
:1004B0004C2D39D06A2D35D0742D35D07A2D33D0CE
:1004C00016E038E0E1682F4620468847B8420546E6
:1004D00009D16C2F26D04FF48060E1680643204696
:1004E0008847054604E06C2F1AD04FF4807006430D
:1004F0000DB3A5F14100192802D8203546F4006655
:100500004A462946204626604E46FFF777FE80B1D0
:1005100001280BD0F61D26F0070000F1080956E768
:100520004020E4E78020D8E70020D6E706F1040960
:100530004DE7284652E7206ABDE8F09F1C7D000089
:1005400010B5431C02E010F8011B71B18107FAD10C
:100550004FF0013202C88C1A8C4314EAC211F9D050
:10056000C01A0A0603D0C01E10BDC01A10BD0A046E
:1005700001D0801E10BD0902FCD0401E10BD00003D
:100580004FF0013C50F8042B51F8043B9A4221D122
:10059000A2EB0C03934313EACC1317D150F8042BAE
:1005A00051F8043B9A4215D1A2EB0C03934313EA92
:1005B000CC130BD150F8042B51F8043B9A4209D1CB
:1005C000A2EB0C03934313EACC13DBD04FF00000F3
:1005D000704700BFD01A01BAB1FA81F101F01801D9
:1005E00022FA01F0CB40C1F12001DBB2C0B2C01A47
:1005F0002CFA01F3D11A914311EAC311E6D17047E5
:10060000704770477047704710B500F011FC0068E4
:1006100010BD10B5044600F00BFC046010BD70B5B1
:10062000044685690068C10601D5302600E0202611
:10063000C00707D070BDD4E9012130469047206A39
:10064000401C20626D1EF6D570BD70B504468569EC
:100650000078C00707D170BDD4E901212020904760
:10066000206A401C20626D1EF6D570BD09684A05DF
:1006700001D540B27047C905FCD500B27047096882
:100680004A0501D5C0B27047C905FCD580B2704794
:100690002DE9F0410646002410687529314616A55B
:1006A00010D0FFF7E3FF002802DA404213A507E06D
:1006B00031688A0701D512A502E0490704D511A5C2
:1006C000012401E0FFF7DBFF00210A2206F12407E5
:1006D00009E0B0FBF2FCB0FBF2F302FB1C0030308F
:1006E00078541846491C0028F3D123462A46304640
:1006F000BDE8F04100F0E5BB000000002D00000067
:100700002B0000002000000011680268006A5305F9
:1007100001D508700AE0D30501D5088006E013066C
:1007200003D5C217C1E9000200E00860012070474C
:1007300070472DE9FF4F0C461E464FF0FF378BB038
:10074000D2E90001DDF860800A908A46C1F30A55BB
:1007500005B93D46002108464FF00000BAF1000FF0
:1007600000F4400005DA00EB80004FF4400101EA9C
:1007700050004FEA9059B9F1010F00DDB9460A98CF
:1007800050EA4A000ED044F61050A5F2FF3545431A
:100790002F14B8F1000F1ED07542291E1EDDC9F1BD
:1007A00000021CE0B8F1010F4FF0000001D0302131
:1007B00003E0F24305E02154401CB042FBDB30462D
:1007C0000022002121540B99C1F80880C1E90020C2
:1007D0000FB0BDE8F08FBD1B6D1CDEE74A4600DAA6
:1007E000694206A800F09AFD06AB93E8070003AB48
:1007F00083E8070050460A9900F061FE8DE8070083
:10080000A0F500501F3800900398002D0ADD42F239
:100810001F014A460844002303A90390684601F0DB
:10082000CAF809E0A0F500504A461F38002303A982
:100830000390684601F0D4F88DE807000004000C2E
:1008400003D04FF0FF30410800E01046B8F1000F30
:1008500003D00022009215461EE0751E05D400F05C
:10086000EBFA303262556D1EF9D5B34601220843CA
:1008700002D000227F1C04E02078302801D1002221
:100880007F1E002A099784D01DE0112D07DA00F0A1
:10089000D3FA303262556D1C50EA0102F5D108439B
:1008A00002D00098C8B10EE00021681E05E0235C6C
:1008B000625C63542254401E491C8142F7DBAB4604
:1008C000A81B401E0990002004F80B000B98099A01
:1008D000C0F80880C0E9002B7AE711264FF0000825
:1008E00057E72DE9F04F88460446D21D22F0070154
:1008F00091B0D1E90001CDE90A0105F03DF80246C9
:100900000B98C00F01D02D2007E02068810701D58A
:100910002B2002E0202101EAC000032A099001D027
:10092000072A05DB03464146204600F0A1FC0BE107
:100930002078800601D5E06900E00620B8F1650F57
:10094000814606D0B8F1660F18D0B8F1670F70D1A4
:1009500031E00020B9F1110F009001DB112301E01B
:1009600009F101030AAA01A90CA8FFF7E2FEDDE9DB
:100970000C70002609F10105834647E001204B4633
:1009800000904FF000470AAA01A90CA8FFF7D1FE7A
:10099000DDE90DB00C995D46002610B909F10100A2
:1009A0000D18B9EB050003D4C0F1FF3609F10105BC
:1009B000A5EB09002BE0B9F1010F01DA4FF00109B5
:1009C0000020B9F1110F0090484601DD112300E02D
:1009D00003460AAA01A90CA8FFF7ABFEDDE90C70DB
:1009E0004D4600268346207800070AD4AB4500DA3E
:1009F0005D4601A8012D04DD411911F8011C3029C3
:100A000007D04F4502DA17F1040F04DA01208246BD
:100A10000FE06D1EEEE7002F02DCED1B3E4403E00D
:100A2000781CA84200DD7D1CB81B00F1010A4FF0C4
:100A300000472078000703D4AA4501DB4FF0FF3AB6
:100A40000021B7F1004F0DF143088DF8431024D079
:100A500002202B23002F01DA7F422D230A21021EC0
:100A6000A0F1010000DC5FB197FBF1FC97FBF1F214
:100A700001FB1C7C17460CF1300C08F801CDEEE7A9
:100A8000A8F1010003702188090501D5452100E086
:100A90006521A0F1010800F8011C09980FA9A1EB3C
:100AA0000807FF1D00B10120411901EBEA70A1699F
:100AB0003844081A401EA0612078C00602D420469F
:100AC000FFF7ADFD099828B1D4E901219047206ACC
:100AD000401C20622078C00622D52046FFF79FFDEB
:100AE0001EE0002E04DBB34502DD01A8805D00E0BE
:100AF0003020D4E901219047206A401C2062761CF6
:100B0000AAF101005FEA000A0AD100F08DF9C0687D
:100B10000168405CD4E901219047206A401C2062B2
:100B2000281EA5F10105DCDC07E0D4E9012118F855
:100B3000010B9047206A401C2062381EA7F1010774
:100B4000F3DC2046FFF781FD032011B041E60000F1
:100B500001694A1C02610878704700B58FB0CDE981
:100B600001310021059105497944CDE90310114671
:100B70006846FFF721FC0FB000BD0000E5FFFFFF56
:100B80000A6802F8010B0A607047D1E900239A4213
:100B900002D2531C0B601070704710B5436913B13B
:100BA000AFF3008001E0FFF7DDFB012010BD1278FC
:100BB00000F124010A7000224A700122EDE7116859
:100BC0004FF0FF32E9E70000074B70B50D467B445C
:100BD000FFF7C3FF0446284600F012FC10B14FF0A7
:100BE000FF3070BD204670BDB36500002DE9FF5F8A
:100BF00015468A460446DFF8AC80F8440027D8E959
:100C000000103E46CDE9001010E03AF816106A4692
:100C100002A800F0F9FB411C07D02178890603D512
:100C2000E269391891420DD80744761C2078800675
:100C300002D5E069B84205DDAE42E6DB3AF81600BF
:100C40000028E2D1A069C01BA0612046FFF7E7FCA5
:100C5000D8E90010CDE90010002017E03AF818108C
:100C60006A4602A800F0D0FBB0F1FF3F81460BD0EE
:100C700000250DF1080B05E0D4E901211BF8050062
:100C800090476D1C4D45F7D308F10100B0428046F6
:100C9000E4DB206A384420622046FFF7D6FCBDE83A
:100CA000FF9F0000DA7500002DE9F0418046D21D5B
:100CB00022F007020025D2E90002F52915A614D07A
:100CC000011E72F1000106DA0023D0EB030063EB92
:100CD000020211A608E0D8F800108B0701D50FA674
:100CE00002E0490701D50EA601251146002408F1AE
:100CF000240704E000F0A0F830323A55641C50EAB2
:100D00000102F7D12B46324621464046BDE8F0416C
:100D100000F0D7B8000000002D0000002B000000FC
:100D20002000000030B4002100F1240408E002F0AB
:100D30000705D208303542EA4372DB086554491C86
:100D400052EA0305F3D10468002310A2250707D552
:100D5000A40600D421B1C46901230DA2641EC4619C
:100D600030BC00F0AEB810B5044621461068FFF75D
:100D700086FC02462046BDE810400023D2E7D21D83
:100D800022F00701D1E90023CCE7000000000000B9
:100D900030000000F0B40D460188090502D5214C51
:100DA0007C4402E01F4C7C440E34002100F12406F8
:100DB00008E002F00F071209E75D42EA03721B091F
:100DC0007754491C52EA0307F3D102780023120733
:100DD00004D5702D06D009B1022311342246F0BC8F
:100DE00000F06FB801231034F8E770B504460D46E3
:100DF00021461068FFF743FC024629462046BDE81D
:100E000070400023C6E7D21D22F00703D3E9002378
:100E1000C0E70368126843F0200303600823C3613E
:100E20000023B7E73C74000000487047001500201D
:100E300000487047E014002030B5B0F10A024FEAD4
:100E4000900E71F100034EEA817EB0EB0E0061EB73
:100E500091014FEA101E4EEA017E10EB0E0041EBAD
:100E600011114FEA102E4EEA016E10EB0E0041EB0D
:100E700011214FEA104E4EEA014E10EB0E0041EBED
:100E80001141401841F100014FEAD00040EA4170A1
:100E90004FEAD10110EB80054FEA810444EA9074D7
:100EA00044EB01046D1944EB0404521BA3414FF0C1
:100EB000000348BF0A3200D530BD401C41F100019B
:100EC00030BD2DE9F0470D4699469246044600F1A3
:100ED00024080168880604D5E06921F0100121602A
:100EE00000E00120A84201DD471B00E00027A169C6
:100EF0007A1902EB0900081AA0612078C00602D412
:100F00002046FFF78CFB002608E0D4E901211AF8FF
:100F100006009047206A401C761C20624E45F4DB98
:100F20002078C0060AD52046FFF779FB06E0D4E911
:100F3000012130209047206A401C2062381EA7F112
:100F40000107F4DC07E0D4E9012118F80500904717
:100F5000206A401C2062281EA5F10105F3DC204612
:100F6000FFF773FB2078000602D50220BDE8F0876A
:100F70000120FBE72DE9F04F04460D46D21D22F07B
:100F8000070089B0D0E900974846394604F0F4FCE0
:100F90000246F80F01D02D2307E02068810701D514
:100FA0002B2302E0202101EAC0038DF820300BB191
:100FB000012000E00020032A824601D0072A04DB3A
:100FC0002946204600F054F93FE12078800601D4FC
:100FD0000D2500E0E569C7F30A560D2D49DA002119
:100FE0004FEA175B08464FF00000002F00F4400066
:100FF00007DA00EB80004FF4400100EBD07001EA0B
:1010000060008115012901DD4FF0FF3100224FEA18
:10101000850CBCF1180F06D31346ACF118004FF045
:101020008052C24003E04FF4801323FA0CF30CF11A
:101030000C0CBCF1200F04D3ACF1200C09FA0CF01D
:1010400001E007FA0CF000294FF0004801DD18B963
:101050000FE00ED140450CD319EB02095F4121B9D5
:10106000404502D19F4329EA0209BBEB175F00D03C
:10107000761C2088000502D57B48784402E07A4837
:101080007844193808AA302302F80A30037C0AF1A0
:101090000101002E0AF1020A53546A4602DC4FF0A5
:1010A000300101E04FF031014FF001088DF80010E0
:1010B00002D0A6F2FF3603E059EA470100D06B4E9A
:1010C000002D02DC2178090704D54FF002082E21FB
:1010D0008DF80110C44600210BE0C7F303433F0124
:1010E000C35C491C6D1E02F80830052908F101088F
:1010F00001DA002DF1DC00210CE000EB1973491C32
:101100001B786D1E082902F808304FEA091908F10A
:10111000010801DA002DF0DC21688B0602D516E00B
:10112000A8F10108E04505DD02EB080313F8013CD6
:10113000302BF5D0B8F1000F09DD02EB080313F8EE
:10114000013C2E2B03D1090701D4A8F10108002D81
:1011500005DD3E2102F808106D1E08F10108407CF3
:10116000002E02F8080008F1010804DA2D2076426A
:1011700002F8080002E02B2002F808000A214FF4D0
:101180007A70864208F101080BDB96FBF0F33033EE
:1011900002F8083096FBF0F308F1010800FB136633
:1011A00001E0642E0CDB642096FBF0F3303302F890
:1011B000083096FBF0F308F1010800FB136601E02C
:1011C0000A2E06DB96FBF1F0303002F8080008F139
:1011D000010896FBF1F001FB1060303002F80800C6
:1011E000A16908F1010808EB050202EB0A00081AE0
:1011F000A0612078C00602D42046FFF710FA216AC9
:1012000008AE01EB0A00206204E0D4E9012116F8DF
:10121000010B9047BAF1010AF7D22078C00602D537
:101220002046FFF7FCF96E4609E016F8010B3E2850
:101230000FD0D4E901219047206A401C2062B8F108
:101240000108F2D22046FFF700FA09B00320BDE8FA
:10125000F08F206A2844206203E0D4E90121302085
:1012600090476D1EEBD3F8E73D72000002FCFFFFD4
:101270002DE9F0411F46044603260168072A01F4C0
:10128000006004DB08B116A505E016A503E008B16F
:1012900015A500E015A521F010002060A069C01E72
:1012A000A0610FB1401EA0612046FFF7B8F94FB111
:1012B000D4E9012138469047206A401C2062C01CB6
:1012C000206206E0206AFAE7D4E9012115F8010B53
:1012D0009047761EF8D22046FFF7B7F9BDE8F081B7
:1012E0004E414E006E616E00494E4600696E6600CA
:1012F00010B5436913B1AFF3008001E0FFF776FC4E
:10130000012010BD128800F1240182840022C284D1
:101310000122EDE711684FF0FF32E9E72DE9F047D0
:10132000814616468AB0354878440DC88DE80D00D0
:1013300032487844801C03AC0DC884E80D0041F6A7
:101340009B300844372190FBF1F290FBF1F5A5F1B9
:10135000800501FB12041B3C02D56442012000E021
:101360000020DFF898A080460027FA44AAF1BE0AC0
:101370000EE0E0070AD03246684607EB470101233A
:101380000AEB810100F02CFB8DE8070064107F1C44
:10139000002CEED1194F7F44AE3F19E0E80715D07D
:1013A00007EB04100DF1180A90E80E008AE80E0011
:1013B000C068F04201D1981908903246012306A96D
:1013C00003A800F00DFB03AB83E807006D10641C5D
:1013D000002DE3D14FF0010332466946B8F1000F0A
:1013E00003A802D000F0E7FA01E000F0F9FAC9E939
:1013F0000001C9F808200AB0BDE8F087207000009D
:10140000007B00F08000704770B516460C4605461C
:1014100000F044F8036893F80101012806D0FF2C7E
:101420000FD8185D68B101202C7070BDD3F807018A
:101430003246214603F2071303442846BDE87040B4
:1014400018474FF0FF3070BD00487047E01400208F
:101450007546FFF7F9FFAE4605006946534620F092
:101460000700854618B020B5FEF742FFBDE82040D2
:101470004FF000064FF000074FF000084FF0000B50
:1014800021F00701AC46ACE8C009ACE8C009ACE803
:10149000C009ACE8C0098D467047000010B5FFF7E1
:1014A000C3FC001D10BD00BF355F000010B5044631
:1014B000AFF300802046BDE81040FEF704BF5FEAAE
:1014C000400C08BF91F0000F4FEA8C234FEAC12275
:1014D00043EA51514FEA1C5018BF00F5F0404FEA63
:1014E000300018BF41F000415FEA6C5C00F02980D9
:1014F000BCF1FF3F08BF40F080407047130C06BFAF
:1015000012044FF0100C4FF0000C130E04BF120227
:101510000CF1080C130F04BF12010CF1040C930F13
:1015200004BF92000CF1020CD30F04BF52000CF167
:10153000010C11464FF00002A0F11F00A0EB0C00BF
:10154000704711F0004F08BF704731F000413FF481
:10155000D5AF0B0C06BF09044FF0100C4FF0000C78
:101560000B0E04BF09020CF1080C0B0F04BF09019C
:101570000CF1040C8B0F04BF89000CF1020CCB0F93
:1015800004BF49000CF1010CCCF12003A0EB0C00CE
:1015900022FA03F302FA0CF241EA030100F101001E
:1015A000704720F07F4C80EA030023F07F47ACEBCC
:1015B000070303F57C5300F0004003F1FF032DE91E
:1015C00080494FEA154B09B44FEA144325EA0B4E04
:1015D00024EA03480FF2042606EB132749083E7855
:1015E0005FEA320203FB0667C7F5000707FB06F652
:1015F0004FEA54374FEAD64606F1020607FB066C5F
:10160000CCF1005C4FEA1C472CEA074C07FB06F4C0
:101610000CFB06F504EB15464FEA961634BF002086
:101620004FF000404FEAD13706FB07FC4FEA1C4C55
:101630000CFB0BF7D21B03FB0CF761EB07010CFB58
:101640000EF7B0EB074072EB17420CFB08F734BF04
:10165000A2EB0742B2EB074261EB17414FEA0C44A1
:101660004FEA910706FB07FC4FEA1C4C0CFB0BF7FB
:10167000B0EBC74072EB573203FB0CF734BFA2EB61
:10168000C742B2EBC74261EB57310CFB0EF7B0EB30
:10169000C70072EB57720CFB08F734BFA2EBC7020E
:1016A000B2EBC70261EB5771039F4FEA816141EAD8
:1016B000921104EBCC044FEAD1374FEA826206FB69
:1016C00007FC42EA90124FEA80604FEA1C4C0CFB88
:1016D0000BF7D21B03FB0CF761EB07010CFB0EF7BA
:1016E000B0EB074072EB17420CFB08F734BFA2EBDC
:1016F0000742B2EB074261EB17414FEA8C554FEAC4
:10170000910704EB9C2406FB07FC4FEA1C4C0CFBE6
:101710000BF7B0EBC74072EB573203FB0CF734BF4B
:10172000A2EBC742B2EBC74261EB57310CFB0EF79D
:10173000B0EBC70072EB57720CFB08F734BFA2EB9B
:10174000C702B2EBC70261EB577115EB4C254FEAAC
:10175000816141EA92114FEA82624FEAD13742EA4F
:10176000901206FB07FC44F100044FEA80604FEA48
:101770001C4C0CFB0BF7D21B03FB0CF761EB0701B6
:101780000CFB0EF7B0EB074072EB17420CFB08F7AF
:1017900034BFA2EB0742B2EB074261EB174115EBF6
:1017A0001C154FEA813141EA92414FEA823242EA06
:1017B00090424FEA80304FEA0C7644F1000448EA48
:1017C00003434EEA0B484FF0000EB2EB080C71EBEE
:1017D000030724BF624639464EEB0E0E4FF0000B56
:1017E0000018524149414BEB0B0BB2EB080C71EB6B
:1017F00003077BF1000B24BF624639464EEB0E0E09
:101800004FF0000B0018524149414BEB0B0BB2EB70
:10181000080C71EB03077BF1000B24BF62463946CD
:101820004EEB0E0E51EA020718BF46F0010616EB0A
:101830000E7655F1000254F1000103D5BDE889018F
:10184000BDE80088BDE88901BDE80048B6195241ED
:1018500041EB0101A3F10103704780807F7E7D7C15
:101860007B7A7978777676757473727171706F6E32
:101870006E6D6C6C6B6A6A696868676666656464DD
:10188000636362616160605F5F5E5E5D5D5C5C5B67
:101890005B5A5A59595858575756565555555454D6
:1018A000535352525251515050504F4F4F4E4E4D34
:1018B0004D4D4C4C4C4B4B4B4A4A4A494949484880
:1018C00048474747474646464545454444444443C0
:1018D00043434342424242414141002B9C4630D463
:1018E00077002BD01CB54FEA370703B44FF0100038
:1018F0004FF01001BAF1000F06D0BCF1000FDCBFB1
:1019000040F0080040F008014FF000000FBCBDE8B7
:1019100010400BF1010BBBF1010F08BF5FEA170785
:1019200022BF12F1010211F101014FF0004143F118
:10193000000300F0004043EA00007047F9D3570865
:10194000D0E746EA064613F1400F4FEA16461FDD80
:1019500013F1200FDFBF16430A46002120335B42FC
:10196000BED0C3F1200746EA064602FA07F74FEA5F
:10197000164646EA0706C3F1200722FA03F201FAE7
:1019800007F721FA03F14FF0000342EA0702A7E745
:1019900046EA020646EA06464FEA164646EA0106C7
:1019A000BCBF46EA0646360C4FF000034FF000027B
:1019B0004FF0000194E72DE9804C9A46934670B4AD
:1019C00091E8380007C831EA400C48BF34EA430CBC
:1019D00003D5FFF7E6FDFFF780FFF0BCBDE8008C04
:1019E0002DE9804C9A46934670B491E8380007C8B8
:1019F00010F0804F08BF13F0804F03D100F005F8BE
:101A0000FFF76BFFF0BCBDE8008C20F07F4780EA59
:101A1000030023F07F4C07EB0C03A3F57C5300F08D
:101A20000040A3F1FE0392F0000F00F0B38095F0A8
:101A3000000F00F077802DE901494FEA11404FEA8D
:101A4000144621EA004800FB06FC24EA064708FB8E
:101A500006F607FB08F800FB07F718EB06484CEB07
:101A6000164C4FEA124B18EB07484FEA15464CEB61
:101A7000174022EA0B4E0BFB06FC25EA06470EFB3D
:101A800006F607FB0EFE0BFB07F71EEB064E4CEBB4
:101A9000164C4FF000061EEB074E4CEB174B18EBA5
:101AA0000B0840F1000018EB0E0B58EB000840F15A
:101AB00000008F1A4FF000013CBFC943661B14BFE2
:101AC000B5EB040C00213CBFC943F61B4FEA174499
:101AD0004EEA8E0E27EA04454FEA1C4704FB0762D4
:101AE0002CEA074C05FB07F70CFB05F604FB0CFC86
:101AF00016EB074642EB174216EB0C4642EB1C4234
:101B00001BEB060658EB0202414146EA9E0601D550
:101B1000BDE80189B619524141EB0101A3F101036E
:101B2000BDE801894FEA14454FEA114724EA05460A
:101B300021EA074C05FB07F406FB07F70CFB06F14F
:101B400005FB0CFC11EB074144EB17444FEA12472D
:101B500011EB0C4144EB1C4422EA074C05FB07F255
:101B600006FB07F70CFB06F605FB0CFC16EB07461D
:101B700042EB174216EB0C4642EB1C456A1854F137
:101B8000000148BF7047B619524141EB0101A3F172
:101B90000103704795F0000F37D04FEA11424FEA2A
:101BA000144721EA024624EA074C02FB07F106FB30
:101BB00007F70CFB06F402FB0CFC14EB074441EBAB
:101BC00017414FEA154714EB0C4441EB1C4125EA41
:101BD000074C02FB07F506FB07F70CFB06F602FBBA
:101BE0000CFC16EB074645EB174516EB0C4645EB90
:101BF0001C42121951F1000148BF7047B6195241F9
:101C000041EB0101A3F1010370474FEA14454FEA8C
:101C1000114724EA054621EA074C05FB07F106FBBC
:101C200007F70CFB06F24FF0000605FB0CFC12EB6D
:101C3000074241EB174112EB0C4251EB1C4148BFEC
:101C40007047921841EB0101A3F1010370470000B6
:101C50001CB504460121042002F0D4FB4FF480405F
:101C6000009000208DF8040003208DF8050002206C
:101C70008DF807006946104801F0CEFF03212820A7
:101C800000F034F921462C2000F030F900212D20FD
:101C900000F02CF9012C03D11420084908700AE047
:101CA000022C03D128200549087004E0032C02D13E
:101CB0005020024908701CBD000802401A00002094
:101CC00010B52DED0C8B04460B222146062000F0AA
:101CD000E7F820780003617840EA0110001100B2B3
:101CE0002083B4F9180040F25D71081A00EE100A62
:101CF000F8EEC00A9FED641A80EE810AF3EE090A3D
:101D000030EE200A84ED0E0AA0780006E17840EA61
:101D10000140217940EA01200013E060607900066B
:101D2000A17940EA0140E17940EA012000132061F5
:101D3000207A0006617A40EA0140A17A40EA012057
:101D4000001360615148006806F0DAF841EC190BA5
:101D50004F4890F9000005F077FD41EC1B0BE0685F
:101D600005F072FD41EC1D0B9FED4A0B53EC102B5F
:101D700005F012FC41EC1C0B53EC1B2B05F0CAFDCB
:101D800041EC1A0B53EC192B05F0C4FD41EC180B78
:101D9000424890ED0C1BB0EE410AF0EE610A53ECA4
:101DA000102B51EC180B05F0C1FFC4E908013748AE
:101DB000006806F0A5F841EC190B354890F90000D1
:101DC00005F042FD41EC1B0B206905F03DFD41ECA7
:101DD0001D0B9FED300B53EC102B05F0DDFB41ECA0
:101DE0001C0B53EC1B2B05F095FD41EC1A0B53EC2F
:101DF000192B05F08FFD41EC180B284890ED0E1BB8
:101E0000B0EE410AF0EE610A53EC102B51EC180BC6
:101E100005F08CFFC4E90A011C48006806F070F860
:101E200041EC190B1A4890F9000005F00DFD41EC4A
:101E30001B0B606905F008FD41EC1D0B9FED150BB8
:101E400053EC102B05F0A8FB41EC1C0B53EC1B2BA7
:101E500005F060FD41EC1A0B53EC192B05F05AFD0F
:101E600041EC180B0D4890ED101BB0EE410AF0EE5E
:101E7000610A53EC102B51EC180B05F057FFC4E925
:101E80000C01BDEC0C8B10BDCDCC1041E4800008E2
:101E90001A00002000000000FEFF2F4178140020EF
:101EA00070B506460C46154600200E490860012014
:101EB00005F0ECF8012000EB46010B4802F010FEA3
:101EC00007E00021084802F00BFE2070641C681E29
:101ED000C5B2002DF5DC01200249086005F0D6F8F6
:101EE00070BD0000B40241420030014070B50446AC
:101EF0000D46002009490860012005F0C7F861007F
:101F0000074802F0EDFD2946054802F0E9FD0120F1
:101F10000449C1F8B40205F0B9F870BDB4024142F9
:101F200000300140000041421CB504460121084632
:101F300002F068FA0121042002F064FA00214FF453
:101F4000165003F011FA1020009001208DF80400C3
:101F500003208DF8050001208DF8070069460F4821
:101F600001F05AFE4FF40040009001208DF804006B
:101F700003208DF8050001208DF807006946084808
:101F800001F04AFE012007490860012C02D10649F0
:101F9000086002E00020044908601CBD0000024007
:101FA00000080240BC0241429002404200B5A3B08A
:101FB000FE4890ED060B8DED0E0B9FEDFD0B53ECE7
:101FC000102B9DED0E0B51EC100B05F0A3FC9FEDBB
:101FD000FA0B53EC102BCDE910019DED100B51ECD9
:101FE000100B05F0D9FACDE91C01F04890ED080B73
:101FF0008DED0E0B9FEDEE0B53EC102B9DED0E0BAC
:1020000051EC100B05F086FC9FEDEB0B53EC102B05
:10201000CDE910019DED100B51EC100B05F0BCFA51
:10202000CDE91E01E14890ED0A0B8DED0E0B9FED01
:10203000E00B53EC102B9DED0E0B51EC100B05F04B
:1020400069FC9FEDDD0B53EC102BCDE910019DEDEC
:10205000100B51EC100B05F09FFACDE92001D84888
:1020600090ED060B8DED0A0B9DED200B8DED080B11
:102070009DED0A0B53EC102B9DED080B51EC100B52
:1020800005F048FCCDE90E01CD4890ED040B8DED37
:10209000060B9DED1E0B8DED040B9DED060B53EC19
:1020A000102B9DED040B51EC100B05F033FCCDE92A
:1020B0000A019DED1C0B8DED040B9DED040B51EC05
:1020C000100B05F0A1F9CDE90601BD4890ED020B1A
:1020D0008DED040B9DED040B53EC102B9DED060BC9
:1020E00051EC100B05F016FCCDE908019DED0A0B33
:1020F00053EC102B9DED080B51EC100B05F016FE68
:10210000CDE90C019DED0E0B53EC102B9DED0C0B4E
:1021100051EC100B05F00AFE9FEDAA0B53EC102BAF
:10212000CDE910019DED100B51EC100B05F0F2FB09
:10213000CDE91401A24890ED060B8DED0A0B9DED43
:102140001E0B8DED080B9DED0A0B53EC102B9DED36
:10215000080B51EC100B05F0DDFBCDE90E019848A2
:1021600090ED040B8DED060B9DED200B8DED040B1A
:102170009DED060B53EC102B9DED040B51EC100B59
:1021800005F0C8FBCDE90A018D4890ED000B8DEDFF
:10219000060B9DED1C0B8DED040B9DED060B53EC1A
:1021A000102B9DED040B51EC100B05F0B3FBCDE9AA
:1021B00008019DED0A0B53EC102B9DED080B51EC23
:1021C000100B05F02DF9CDE90C019DED0E0B53EC34
:1021D000102B9DED0C0B51EC100B05F0A7FD9FEDA6
:1021E000790B53EC102BCDE910019DED100B51EC48
:1021F000100B05F08FFBCDE91601714890ED060B31
:102200008DED0A0B9DED1C0B8DED080B9DED0A0B62
:1022100053EC102B9DED080B51EC100B05F07AFBE5
:10222000CDE90E01664890ED020B8DED060B9DED9C
:10223000200B8DED040B9DED060B53EC102B9DED4B
:10224000040B51EC100B05F065FBCDE90A015C486D
:1022500090ED000B8DED060B9DED1E0B8DED040B2F
:102260009DED060B53EC102B9DED040B51EC100B68
:1022700005F050FBCDE908019DED0A0B53EC102B46
:102280009DED080B51EC100B05F050FDCDE90C0154
:102290009DED0E0B53EC102B9DED0C0B51EC100B28
:1022A00005F0BEF89FED470B53EC102BCDE9100164
:1022B0009DED100B51EC100B05F02CFBCDE9180136
:1022C0003F4890ED040B8DED0A0B9DED1C0B8DED41
:1022D000080B9DED0A0B53EC102B9DED080B51ECF8
:1022E000100B05F017FBCDE90E01354890ED020B00
:1022F0008DED060B9DED1E0B8DED040B9DED060B7C
:1023000053EC102B9DED040B51EC100B05F002FB70
:10231000CDE90A012A4890ED000B8DED060B9DEDED
:10232000200B8DED040B9DED060B53EC102B9DED5A
:10233000040B51EC100B05F0EDFACDE908019DED11
:102340000A0B53EC102B9DED080B51EC100B05F014
:1023500067F8CDE90C019DED0E0B53EC102B9DEDB4
:102360000C0B51EC100B05F0E1FC9FED160B53EC40
:10237000102BCDE910019DED100B51EC100B05F069
:10238000C9FACDE91A011148006805F0B9FDCDE997
:102390000E019DED140B8DED0C0B9DED0C0B53EC14
:1023A000102B9DED0E0B51EC100B11E0F0130020E3
:1023B00050455254FB210940000000000080664057
:1023C000C0140020000000000000E03F3C0000209E
:1023D00005F0A0FACDE91001FE4890ED000B8DED5F
:1023E0000E0B9DED0E0B53EC102B9DED100B51ECD5
:1023F000100B05F015F8F74A03C2F748006805F01E
:102400007FFDCDE90E019DED160B8DED0C0B9DEDC5
:102410000C0B53EC102B9DED0E0B51EC100B05F03B
:1024200079FACDE91001EB4890ED020B8DED0E0B22
:102430009DED0E0B53EC102B9DED100B51EC100B82
:1024400004F0EEFFE34AC2E90201E348006805F048
:1024500057FDCDE90E019DED180B8DED0C0B9DED9B
:102460000C0B53EC102B9DED0E0B51EC100B05F0EB
:1024700051FACDE91001D74890ED040B8DED0E0B0C
:102480009DED0E0B53EC102B9DED100B51EC100B32
:1024900004F0C6FFCF4AC2E90401CF48006805F046
:1024A0002FFDCDE90E019DED1A0B8DED0C0B9DED71
:1024B0000C0B53EC102B9DED0E0B51EC100B05F09B
:1024C00029FACDE91001C34890ED060B8DED0E0BF6
:1024D0009DED0E0B53EC102B9DED100B51EC100BE2
:1024E00004F09EFFBB4AC2E90601104690ED060BC0
:1024F0008DED0C0B90ED060B8DED0A0B9DED0C0B8D
:1025000053EC102B9DED0A0B51EC100B05F002FA69
:10251000CDE91001AF4890ED040B8DED080B90ED67
:10252000040B8DED060B9DED080B53EC102B9DED70
:10253000060B51EC100B05F0EDF9CDE90C01A548A7
:1025400090ED020B8DED040B90ED020B8DED020B67
:102550009DED040B53EC102B9DED020B51EC100B79
:1025600005F0D8F9CDE908019A4890ED000B8DED02
:10257000040B90ED000B8DED020B9DED040B53EC65
:10258000102B9DED020B51EC100B05F0C3F9CDE9BA
:1025900006019DED080B53EC102B9DED060B51EC45
:1025A000100B04F03DFFCDE90A019DED0C0B53EC3F
:1025B000102B9DED0A0B51EC100B04F031FFCDE90F
:1025C0000E019DED100B53EC102B9DED0E0B51ECFD
:1025D000100B04F025FFCDE912019DED120B04F064
:1025E0001FFC8DED120B7B4890ED000B8DED100B59
:1025F0009DED120B53EC102B9DED100B51EC100BBD
:1026000004F0CAFF734A03C2724890ED020B8DEDCD
:10261000100B9DED120B53EC102B9DED100B51EC9C
:10262000100B04F0B9FF6B4AC2E90201104690EDAD
:10263000040B8DED100B9DED120B53EC102B9DED4B
:10264000100B51EC100B04F0A7FF624AC2E9040121
:10265000104690ED060B8DED100B9DED120B53EC1B
:10266000102B9DED100B51EC100B04F095FF594A07
:10267000C2E90601104690ED060B8DED080B90EDBA
:10268000040B8DED060B9DED080B53EC102B9DED0F
:10269000060B51EC100B05F03DF9CDE90C014D484E
:1026A00090ED020B8DED080B90ED000B8DED060B00
:1026B0009DED080B53EC102B9DED060B51EC100B10
:1026C00005F028F9CDE90A019DED0C0B53EC102B18
:1026D0009DED0A0B51EC100B04F0A2FE9FED3F0B99
:1026E00053EC102BCDE90E019DED0E0B51EC100BB0
:1026F00005F010F9CDE910019DED100B03F054F930
:10270000384880ED0C0B334890ED060B8DED080B2F
:102710009FED321B9DED080B03F05AFD8DED0C0B68
:102720002C4890ED040B8DED040B9FED2C1B9DEDC3
:10273000040B03F04DFD8DED080B264890ED020BC8
:102740008DED000B9FED251B9DED000B03F040FD73
:102750008DED040B1F4890ED000B8DED000B9FEDF0
:102760001F1B9DED000B03F033FD8DED020B9DED66
:10277000040B53EC102B9DED020B51EC100B05F0EC
:10278000D5FACDE906019DED080B53EC102B9DED1C
:10279000060B51EC100B04F043FECDE90A019DED50
:1027A0000C0B53EC102B9DED0A0B51EC100B05F0AC
:1027B000BDFACDE91001074890ED060B8DED060B33
:1027C00090ED000B8DED040B9DED060B53EC102BE3
:1027D0000AE00000C01400203C00002000000000BF
:1027E00000000040F01300209DED040B51EC100B95
:1027F00005F090F8CDE90A016E4890ED040B8DEDDF
:10280000060B90ED020B8DED040B9DED060B53ECCA
:10281000102B9DED040B51EC100B05F07BF8CDE96E
:1028200008019DED0A0B53EC102B9DED080B51ECAC
:10283000100B05F07BFA9FED600B53EC102BCDE9EC
:102840000C019DED0C0B51EC100B05F063F8CDE97C
:102850000E019DED101B9DED0E0B03F0C1FB5848C2
:1028600080ED0E0B534890ED060B8DED080B1FED20
:10287000251B9DED080B03F0ABFC8DED0C0B4D48BB
:1028800090ED040B8DED040B1FED2C1B9DED040B47
:1028900003F09EFC8DED080B464890ED020B8DED8C
:1028A000000B1FED321B9DED000B03F091FC8DED35
:1028B000040B404890ED000B8DED000B1FED391B14
:1028C0009DED000B03F084FC8DED020B9DED040BE0
:1028D00053EC102B9DED020B51EC100B05F026FA7A
:1028E000CDE906019DED080B53EC102B9DED060B79
:1028F00051EC100B05F01AFACDE90A019DED0C0B15
:1029000053EC102B9DED0A0B51EC100B04F088FDDD
:10291000CDE91001274890ED040B8DED060B90EDED
:10292000000B8DED040B9DED060B53EC102B9DED74
:10293000040B51EC100B04F0EDFFCDE90A011D482A
:1029400090ED060B8DED060B90ED020B8DED040B5B
:102950009DED060B53EC102B9DED040B51EC100B71
:1029600004F0D8FFCDE908019DED0A0B53EC102BC4
:102970009DED080B51EC100B05F0D8F99FED0E0BF7
:1029800053EC102BCDE90C019DED0C0B51EC100B11
:1029900004F0C0FFCDE90E019DED101B9DED0E0B67
:1029A00003F01EFB064880ED100B0120054908705E
:1029B00023B000BDC014002000000000000000C0D3
:1029C000F01300203800002010B59FED0A0B0B48D3
:1029D00080ED000B9FED0A0B80ED020B9FED080BC5
:1029E00080ED040B9FED060B80ED060B02F002F963
:1029F00010BD0000000000000000F03FC0140020E7
:102A000000000000000000007CB505460C460121D6
:102A1000042001F0F7FC0021084600F033FAB6224A
:102A20007E21002000F060FAB6221421002000F080
:102A30005BFA012004F01DFB0021084600F022FA99
:102A400000227C21104600F04FFA012004F011FB17
:102A5000A9224021002000F047FA2A464121002007
:102A600000F042FA04227D21002000F03DFA2246C7
:102A70000F21012000F038FA06221021012000F079
:102A800033FA2820009000208DF8040003208DF8F0
:102A9000050002208DF8070069461D4801F0BCF8CA
:102AA0001DB906201B49088010E0012D03D10C2020
:102AB000184908800AE0022D03D118201549088022
:102AC00004E0032D02D1302012490880042C03D1E8
:102AD000FA201149088019E0032C04D14FF4FA7050
:102AE0000D49088012E0022C04D14FF47A700A4993
:102AF00008800BE0012C04D14FF4FA6006490880ED
:102B000004E01CB94FF47A60034908807CBD0000E2
:102B1000000802401C0000201E00002010B52DED12
:102B20000A8B0446062322461221002000F070F989
:102B30002078617840EA012000B2E080A078E17856
:102B400040EA012000B220812079617940EA012029
:102B500000B26081022322462221002000F058F9B1
:102B60006078217840EA01204011A4F84800B4F9C7
:102B7000480000EE100AF8EEC00AB4EE001AB3EEF8
:102B8000070A00EE810A10EE101A084605F0B8F99F
:102B9000C4E91401062322460221012000F038F97D
:102BA0002078617840EA012000B22085A078E178A1
:102BB00040EA012000B260852079617940EA012075
:102BC00000B2A0858B48B0F9000004F03DFE41EC56
:102BD0001A0BB4F9060004F037FE41EC1C0B9FED14
:102BE000860B53EC102B04F0D7FC41EC1B0B53EC81
:102BF0001A2B04F08FFE41EC190B9FED810B53EC67
:102C0000102B04F087FE41EC180B7F4890ED001B61
:102C1000B0EE410AF0EE610A53EC102B51EC180BA8
:102C200005F084F8C4E904017248B0F9000004F02A
:102C30000BFE41EC1A0BB4F9080004F005FE41EC60
:102C40001C0B9FED6D0B53EC102B04F0A5FC41EC1D
:102C50001B0B53EC1A2B04F05DFE41EC190B9FED9E
:102C6000680B53EC102B04F055FE41EC180B664832
:102C700090ED021BB0EE410AF0EE610A53EC102B0E
:102C800051EC180B05F052F8C4E906015948B0F9A7
:102C9000000004F0D9FD41EC1A0BB4F90A0004F06D
:102CA000D3FD41EC1C0B9FED540B53EC102B04F0A7
:102CB00073FC41EC1B0B53EC1A2B04F02BFE41EC84
:102CC000190B9FED4F0B53EC102B04F023FE41EC3E
:102CD000180B4D4890ED041BB0EE410AF0EE610A6E
:102CE00053EC102B51EC180B05F020F8C4E9080147
:102CF0004648B0F9000004F0A7FD41EC190BB4F907
:102D0000280004F0A1FD41EC1B0B9FED3B0B53ECA5
:102D1000102B04F041FC41EC1A0B53EC192B04F07E
:102D2000F9FD41EC180B384890ED061BB0EE410A56
:102D3000F0EE610A53EC102B51EC180B04F0F6FF87
:102D4000C4E90C013148B0F9000004F07DFD41EC0C
:102D5000190BB4F92A0004F077FD41EC1B0B9FED31
:102D6000260B53EC102B04F017FC41EC1A0B53EC20
:102D7000192B04F0CFFD41EC180B234890ED081BF4
:102D8000B0EE410AF0EE610A53EC102B51EC180B37
:102D900004F0CCFFC4E90E011C48B0F9000004F0B7
:102DA00053FD41EC190BB4F92C0004F04DFD41EC3E
:102DB0001B0B9FED110B53EC102B04F0EDFB41ECC2
:102DC0001A0B53EC192B04F0A5FD41EC180B0E481F
:102DD00090ED0A1BB0EE410AF0EE610A53EC102BA5
:102DE00051EC180B04F0A2FFC4E91001BDEC0A8BF2
:102DF00010BD00001C00002000000000E0FFEF40BC
:102E000000000040019D2340781400201E00002097
:102E10002DE9F04104460F4615461E461CB9002018
:102E20001649086003E000201449083108600120B9
:102E300004F02CF947F08001114801F051FE1CB953
:102E400000210F4801F04CFE07E000210C4801F082
:102E500047FE28706D1C701EC6B2002EF5DC1CB932
:102E600001200649086003E0012004490831086098
:102E7000012004F00BF9BDE8F08100008802414216
:102E80000030014070B504460D461CB900201349BE
:102E9000086003E0002011490831086045F0800116
:102EA0000F4801F01DFE1CB900210D4801F018FE6D
:102EB00000210B4801F014FE0A4908701CB90120DA
:102EC0000649086003E00120044908310860012038
:102ED00004F0DCF80348007870BD0000880241422D
:102EE000003001402000002070B504460D46164613
:102EF0001CB900200F49086003E000200D4908318B
:102F00000860012004F0C2F805F07F010A4801F0D2
:102F1000E7FD3146084801F0E3FD1CB901200549F1
:102F2000086003E001200349083108600A2004F02A
:102F3000ADF870BD880241420030014010B501205B
:102F400004F0A4F882214B2000F0A4F80A2004F039
:102F500090F801214B2000F09DF838214E2000F020
:102F600099F8074800F034F81721512000F092F842
:102F70005221084600F08EF8642004F07AF810BD63
:102F8000A001002070B506460C46154600200E49EB
:102F90000860012004F07AF846F080010B4801F047
:102FA0009FFD07E00021094801F09AFD2070641C94
:102FB000681EC5B2002DF5DC0120034908600A2017
:102FC00004F064F870BD000080024142003001400E
:102FD00030B585B004460020049003900090019025
:102FE000029000254FF47A7004F043F8022204A9FD
:102FF0005D20FFF7C7FF042203A96220FFF7C2FF8D
:103000000A2269466820FFF7BDFF9DF8100040B214
:1030100020709DF8110040B260709DF80E0040B223
:10302000A0709DF80F0040B2E0709DF8030005020B
:103030009DF802002843A0809DF8010005029DF83C
:103040000000284300B2E0809DF8070005029DF8CB
:103050000600284300B220819DF80D0005029DF86E
:103060000C00284300B260819DF8090020739DF890
:10307000080040B260739DF8050000F07F004FF635
:10308000FF7101EA00259DF804002843E08105B0A6
:1030900030BD000070B504460D4600200A490860A6
:1030A000012003F0F3FF04F07F01084801F018FD50
:1030B0002946064801F014FD01200549C1F88002A7
:1030C0000A2003F0E3FF70BD80024142003001405E
:1030D0000000414230B52DED048B87B004460D460B
:1030E000152201A9312000F0AFFB9DF804009DF8E6
:1030F000051040EA012020809DF806009DF8071089
:1031000040EA012060809DF8080040B220719DF8DF
:1031100009009DF80A1040EA012000B2E0809DF805
:103120000B009DF80C1040EA012000B220819DF8B0
:103130000D0040B2A0729DF80E0040B2E0729DF802
:103140000F009DF8101040EA0120A0819DF81100A9
:103150009DF8121040EA0120E0819DF8130040B272
:1031600020749DF8140040B260749DF815009DF81D
:10317000161040EA012000B260829DF8170040B2AC
:1031800020759DF8180040B260759FED800BB0EE81
:10319000408AF0EE608A208804F06DFB41EC190B48
:1031A00053EC182B04F0F8F9C5E900019FED790BF9
:1031B000B0EE408AF0EE608A608804F05CFB41EC7F
:1031C000190B53EC182B04F0E7F9C5E902019FED48
:1031D000730BB0EE408AF0EE608A94F9040004F0BC
:1031E00033FB41EC190B53EC182B04F0D5F9C5E96E
:1031F00004019FED6C0BB0EE408AF0EE608AB4F9EA
:103200000610A1F5804004F01FFB41EC190B53ECB4
:10321000182B04F0C1F9C5E906019FED640BB0EE6F
:10322000408AF0EE608AB4F90810A1F5804004F0FD
:103230000BFB41EC190B53EC182B04F0ADF9C5E96D
:1032400008019FED5C0BB0EE408AF0EE608A94F9C5
:103250000A0004F0F9FA41EC190B53EC182B04F0B6
:103260009BF9C5E90A019FED550BB0EE408AF0EEDF
:10327000608A94F90B0004F0E7FA41EC190B53EC67
:10328000182B04F089F9C5E90C019FED4E0BB0EE47
:10329000408AF0EE608AA08904F0EDFA41EC190B47
:1032A00053EC182B04F078F9C5E90E019FED470B9C
:1032B000B0EE408AF0EE608AE08904F0DCFA41EC7E
:1032C000190B53EC182B04F067F9C5E910019FEDB9
:1032D000410BB0EE408AF0EE608A94F9100004F0E1
:1032E000B3FA41EC190B53EC182B04F055F9C5E96E
:1032F00012019FED3A0BB0EE408AF0EE608A94F92D
:10330000110004F0A1FA41EC190B53EC182B04F056
:1033100043F9C5E914019FED210BB0EE408AF0EEB0
:10332000608AB4F9120004F08FFA41EC190B53ECE7
:10333000182B04F031F9C5E916019FED180BB0EE1A
:10334000408AF0EE608A94F9140004F07DFA41ECB2
:10335000190B53EC182B04F01FF9C5E918019FED68
:10336000210BB0EE408AF0EE608A94F9150004F06B
:103370006BFA41EC190B53EC182B04F00DF9C5E96D
:103380001A0107B0BDEC048B30BD00000000000046
:103390000000703F000000000000D041000000006D
:1033A0000000F0420000000000003041000000007A
:1033B0000000C041000000000000F04100000000DB
:1033C00000004042000000000000C03F000000007C
:1033D00000005040000000000000704000000000AD
:1033E0000000E040000000000000004410B5144957
:1033F0001448FFF76FFEB6217E2000F0D9FA0120B5
:1034000003F037FE01211C2000F0D2FA01211D201B
:1034100000F0CEFA02211F2000F0CAFA33211B204F
:1034200000F0C6FA142003F024FE9FED070B0848B5
:1034300080ED000B00F00EF8054880ED000B10BD8C
:103440006002002048020020000000000000000090
:103450002800002010B52DED0E8B2D4800F072F8DD
:103460002C48006804F04CFD41EC1E0B53EC1E2B65
:103470009FED290B51EC100B04F08EF841EC1C0B66
:10348000234890ED041BB0EE410AF0EE610A9FED77
:10349000241B53EC112B51EC100B04F07DF841EC84
:1034A0001D0BB0EE4C1AF0EE6C1AB0EE4D0AF0EEB9
:1034B0006D0A02F08DFEB0EE40BAF0EE60BA9FEDFC
:1034C0001A0B53EC102B51EC1B0B04F057FB41EC87
:1034D0001A0B9FED170B53EC102B04F01BFA41EC69
:1034E000190B9FED150B53EC102B04F055F841EC24
:1034F000180B134890ED000B53EC102B51EC180BEC
:1035000004F014FC41EC100BBDEC0E8B10BD000060
:10351000D8020020E480000823C95AE07EDAFD3F8B
:1035200000000000D0BCF840000000000000F03FA8
:10353000666666666602724039B4C876BE9F7A3F98
:103540002800002010B52DED108B84B004462046D5
:1035500000F0CAF900BF032000F09EF90020002807
:10356000F9D103222146042000F06EF9A07800046E
:10357000617840EA0120217808436060AD4890ED11
:103580001C2BB0EE420AF0EE620A90ED102BB0EE6A
:10359000421AF0EE621A53EC102B51EC110B04F0AE
:1035A000B9F941EC180BA34890ED1C1BB0EE410A91
:1035B000F0EE610A9FEDA01B02F00AFEB0EE40CAD9
:1035C000F0EE60CA9B4890ED121BB0EE410AF0EE9F
:1035D000610A53EC102B51EC1C0B04F09BF941ECED
:1035E000190B944890ED1C1BB0EE410AF0EE610AF5
:1035F0009FED931B02F0ECFDB0EE40CAF0EE60CA06
:103600008C4890ED141BB0EE410AF0EE610A53ECC9
:10361000102B51EC1C0B04F07DF941EC1A0B854882
:1036200090ED0E1BB0EE410AF0EE610A53EC182B40
:1036300051EC100B03F0F4FE41EC1D0B53EC192B75
:1036400003F0EEFE41EC1C0B53EC1A2B03F0E8FEEA
:10365000CDE90201774890ED1C2BB0EE420AF0EE66
:10366000620A90ED082BB0EE421AF0EE621A53ECAB
:10367000102B51EC110B04F04DF941EC180B6D4877
:1036800090ED1C1BB0EE410AF0EE610A9FED6A1B43
:1036900002F09EFDB0EE40CAF0EE60CA654890EDC3
:1036A0000A1BB0EE410AF0EE610A53EC102B51EC0C
:1036B0001C0B04F02FF941EC190B5E4890ED1C1B1C
:1036C000B0EE410AF0EE610A9FED5D1B02F080FD55
:1036D000B0EE40CAF0EE60CA564890ED0C1BB0EE5A
:1036E000410AF0EE610A53EC102B51EC1C0B04F074
:1036F00011F941EC1A0B4F4890ED061BB0EE410A50
:10370000F0EE610A53EC182B51EC100B03F088FE1D
:1037100041EC1F0B53EC192B03F082FE41EC1E0B06
:1037200053EC1A2B03F07CFE41EC1C0B606804F098
:103730008BF841EC1D0B53EC1C2B04F0EBF8CDE99E
:103740000001606804F080F841EC1C0B9FED3A1B0F
:10375000B0EE4C0AF0EE6C0A02F03AFDB0EE408A90
:10376000F0EE608A334890ED1C2BB0EE420AF0EE8A
:10377000620A90ED182BB0EE421AF0EE621A53EC8A
:10378000102B51EC110B04F0C5F841EC1C0B29482F
:1037900090ED161BB0EE410AF0EE610A53EC102BCF
:1037A00051EC1C0B03F03CFE41EC190B53EC192BB4
:1037B00051EC180B04F0AEF841EC1A0B606804F001
:1037C00043F841EC1E0B9FED1E1BB0EE4E0AF0EECF
:1037D0006E0A02F0FDFCB0EE40DAF0EE60DA154859
:1037E00090ED1A1BB0EE410AF0EE610A53EC102B7B
:1037F00051EC1D0B04F08EF841EC1C0B53EC1A2B12
:1038000003F00EFE41EC1B0B9DED000B53EC102B57
:103810009DED020B51EC100B03F002FE41EC1C0B72
:1038200053EC1B2B03F0FCFDC4E9040104B0BDEC18
:10383000108B10BD6002002000000000000000405E
:10384000000000000000084070B506460C46154612
:1038500000200F490860012003F018FC46F08001A9
:103860000C4801F03DF900210A4801F039F907E060
:103870000021084801F034F92070641C681EC5B2AC
:10388000002DF5DC01200249086003F0FFFB70BD4C
:10389000840241420030014010B5044600200E4928
:1038A0000860012003F0F2FB44F080010B4801F0B6
:1038B00017F90021094801F013F90021074801F028
:1038C0000FF90749087001200649C1F8840203F086
:1038D000DDFB0348007810BD840241420030014006
:1038E000300000200000414210B52DED088B044649
:1038F00000BF0320FFF7D0FF00200028F9D10322EA
:1039000021460720FFF7A0FFA0780004617840EA75
:103910000120217808436060606803F095FF41EC66
:103920001A0B224890ED001BB0EE410AF0EE610A3E
:1039300053EC102B51EC1A0B04F0F8F941EC180B76
:103940001A4890ED021BB0EE410AF0EE610A53EC0A
:10395000102B51EC180B03F0DDFF41EC190B53EC6D
:10396000182B51EC180B03F0D5FF41EC1B0B0F4843
:1039700090ED041BB0EE410AF0EE610A53EC102BFF
:1039800051EC1B0B03F0C6FF41EC1A0B53EC192B47
:1039900003F046FD054AC2E91C01104690ED1C0BE0
:1039A00084ED020BBDEC088B10BD0000600200200E
:1039B00070B504460D4600BF0320FFF76DFF00F011
:1039C00010000028F8D0012003F060FB00200A4915
:1039D0000860012003F05AFB04F07F01074801F062
:1039E0007FF82946054801F07BF801200449C1F819
:1039F000840203F04BFB70BD840241420030014061
:103A00000000414210B58AB004460121022000F0B6
:103A1000F9FC0121042000F005FD4FF480700890AE
:103A200002208DF8240003208DF8250000208DF859
:103A3000260002208DF8270008A91B4800F0ECF8AA
:103A400002220821184800F02FF9D120ADF8140007
:103A50000020ADF8160040F2E73006900020ADF8E7
:103A60001C0005A9114801F08BFB6020ADF8000097
:103A70000120ADF802000020ADF80C0069460B48AB
:103A800001F0D0FA0821094801F01CFB0121074888
:103A900001F0E8F92146054801F0F6F95021034804
:103AA00001F067FB0AB010BD0004024000080040AE
:103AB00000BFFEE710B5044618A12046FCF760FDE4
:103AC00018B901201849087027E018A12046FCF712
:103AD00057FD18B90220144908701EE016A12046AF
:103AE000FCF74EFD28B946200F490870FEF76CFF21
:103AF00013E017A12046FCF743FD18B947200A49F7
:103B000008700AE015A12046FCF73AFD10B900F054
:103B100035FA02E000200449087010BD424D495FAB
:103B2000535441525400000036000020424D495F7A
:103B300053544F50000000004174746974756465FB
:103B4000536F6C7574696F6E5F5445535400000079
:103B500053616D706C655F53544F50004D6F7469C5
:103B60006F6E4F66667365745F496E69740000001E
:103B70007047000030B10749096841F48071054A77
:103B8000116005E00349096821F48071014A116060
:103B900070470000003C0240014A1070704700006E
:103BA000003C02401CB50121022000F02BFC012149
:103BB000084600F027FC1820009001208DF8040032
:103BC00000208DF8060002208DF805008DF8070012
:103BD00069460D4800F020F800200C4908600C49A7
:103BE000C1F890024FF40040009000208DF80400CE
:103BF00002208DF8050001208DF807006946054870
:103C000000F00AF81CBD0000000402408C82404213
:103C10000080404200000240F0B50A460021002327
:103C2000002400BF3DE0012505FA01F3156805EA0F
:103C300003049C4234D105684F000326BE40B543BF
:103C4000056015794E00B540066835430560157965
:103C5000012D02D01579022D16D185684F0003265B
:103C6000BE40B543856055794E00B5408668354302
:103C70008560456801268E40B54345604568967964
:103C80008E40B6B235434560C5684F000326BE403E
:103C9000B543C560D5794E00B540C6683543C560AB
:103CA000491C1029BFD3F0BDF0B5002300244D07F7
:103CB000ED0E02FA05F3CE1000F1200555F826505E
:103CC0004E07F70E0F26BE40B543CF1000F1200679
:103CD00046F82750CE1000F1200555F8265045EA49
:103CE0000304CE1000F1200545F82640F0BD00BFCA
:103CF000FEE700001CB50121084600F083FB01210E
:103D0000042000F07FFB4FF40060009001208DF84C
:103D100004008DF8060000208DF8050001208DF8C4
:103D2000070069460F48FFF777FF41F20200009055
:103D300001208DF8040003208DF8050001208DF886
:103D4000070069460848FFF767FF01200749086038
:103D50000749C1F884020549303108600549C1F8B6
:103D6000AC021CBD0000024000080240800241423B
:103D700000004142000040427CB504460D4601214E
:103D8000022000F03FFB4320009001208DF804004A
:103D900000208DF806008DF8050001208DF8070041
:103DA00069463C48FFF738FF2020009000208DF83E
:103DB00004008DF8050001208DF80700694635489C
:103DC000FFF72AFF01203449086000203349C1F879
:103DD0008002314914390860642003F04AF9002157
:103DE0004FF4165001F030FB00BF2B4884380068B8
:103DF0000028FAD0002028491839086001202749F6
:103E0000C1F884020A2003F034F900BF2248843844
:103E100000680028FAD02112002000F041F832207A
:103E200003F027F9E1B2012000F03AF8322003F064
:103E300020F9A721032000F033F8322003F019F90C
:103E40000021042000F02CF8322003F012F9252183
:103E5000052000F025F8322003F00BF900BF0E48D2
:103E6000843800680028FAD000200B49183908600F
:103E70000A49C1F88402012003F0FBF800BF06489C
:103E8000843800680028FAD00121284601F0DCFAC5
:103E90007CBD000000040240988240420080404205
:103EA00070B504460D4600BF4021194801F085FB5E
:103EB0000028F9D0C021164801F04BFC00BF40217A
:103EC000134801F07AFB0028F9D02146104801F090
:103ED00040FC00BF40210E4801F06FFB0028F9D0E4
:103EE00001210B4801F035FC00BF4021084801F0DA
:103EF00064FB0028F9D02946054801F02AFC00BFE0
:103F00004021034801F059FB0028F9D070BD0000A2
:103F10000048004000BFFEE710B5164C482221467D
:103F2000002001F025FCB4EC020B134880ED000BDF
:103F3000B4EC020B80ED020BB4EC020B80ED040B31
:103F4000B4EC020B80ED060BB4EC020B80ED080B19
:103F5000B4EC020B80ED0A0BB4EC020B80ED0C0B01
:103F6000B4EC020B80ED0E0B94ED000B80ED100B0A
:103F700010BD0000F00200207814002030B52DEDB7
:103F8000108B99B006ACE0A0FCF7E0F9DEA001F0E0
:103F9000CDFA9FEDE40BB0EE408AF0EE608A9FED23
:103FA000E10BB0EE409AF0EE609A9FEDDE0BB0EEC2
:103FB00040AAF0EE60AA9FEDDB0BB0EE40BAF0EE47
:103FC00060BA9FEDD80BB0EE40CAF0EE60CA9FED2C
:103FD000D50BB0EE40DAF0EE60DA9FEDD20BB0EE2A
:103FE00040EAF0EE60EA9FEDCF0BB0EE40FAF0EE63
:103FF00060FA9FEDCC0B8DED040B9FEDCA0BCB4807
:1040000080ED000B9FEDC70B80ED020B9FEDC50B04
:1040100080ED040B9FEDC30B80ED060B9FEDC10BF4
:1040200080ED080B9FEDBF0B80ED0A0B9FEDBD0BE4
:1040300080ED0C0B9FEDBB0B80ED0E0B9FEDB90BD4
:1040400080ED100B002001F003FC002593E0B84840
:10405000FEF764FDB748FDF733FEB54890ED041B4D
:10406000B0EE410AF0EE610A53EC102B51EC180B44
:1040700003F0D6F941EC180BAD4890ED061BB0EEFD
:10408000410AF0EE610A53EC102B51EC190B03F0CE
:10409000C7F941EC190BA64890ED081BB0EE410A98
:1040A000F0EE610A53EC102B51EC1A0B03F0B8F947
:1040B00041EC1A0B9E4890ED0C1BB0EE410AF0EE5D
:1040C000610A53EC102B51EC1B0B03F0A9F941ECE6
:1040D0001B0B974890ED0E1BB0EE410AF0EE610A03
:1040E00053EC102B51EC1C0B03F09AF941EC1C0B18
:1040F0008F4890ED101BB0EE410AF0EE610A53ECD0
:10410000102B51EC1D0B03F08BF941EC1D0B894872
:1041100090ED081BB0EE410AF0EE610A53EC102B53
:1041200051EC1E0B03F07CF941EC1E0B814890ED25
:104130000A1BB0EE410AF0EE610A53EC102B51EC71
:104140001F0B03F06DF941EC1F0B7A4890ED0C1B2F
:10415000B0EE410AF0EE610A53EC102B9DED041B0A
:1041600051EC110B03F05CF9CDE90401142002F0CD
:1041700080FF681CC5B2322DFFF669AF9FED6E0B54
:1041800053EC102B51EC180B03F006FA674A03C2EC
:104190009FED690B53EC102B51EC190B03F0FCF95C
:1041A000624AC2E902016648006803F0A9FE9FED79
:1041B000620B53EC102BCDE9020151EC1A0B03F00A
:1041C000EBF9CDE900019DED020B53EC102B9DEDB9
:1041D000000B51EC100B03F0A9FD544AC2E9040195
:1041E0009FED550B53EC102B51EC1B0B03F0D4F946
:1041F0004E4AC2E906019FED500B53EC102B51ECD7
:104200001C0B03F0C9F9494AC2E908019FED4A0BAA
:1042100053EC102B51EC1D0B03F0BEF9434AC2E9DD
:104220000A019FED450B53EC102B51EC1E0B03F0D4
:10423000B3F93E4AC2E90C019FED3F0B53EC102B42
:1042400051EC1F0B03F0A8F9384AC2E90E013C48B3
:10425000006803F055FE9FED380B53EC102BCDE9B1
:1042600002019DED040B51EC100B03F095F9CDE923
:1042700000019DED020B53EC102B9DED000B51EC5A
:10428000100B03F053FD294AC2E91001104690EDCE
:10429000000B8DED060B90ED020B8DED080B90EDF4
:1042A000040B8DED0A0B90ED060B8DED0C0B90EDD4
:1042B000080B8DED0E0B90ED0A0B8DED100B90EDB4
:1042C0000C0B8DED120B90ED0E0B8DED140B90ED94
:1042D000100B8DED160B002005E02178194A1154C2
:1042E000641C411CC8B24828F7DB4822154900204D
:1042F00001F074FA14A0FCF729F813A001F016F9E4
:1043000019B0BDEC108B30BD464D55206F666673FD
:10431000657420697320626567696E696E67210D37
:104320000A000000000000000000000078140020D7
:10433000F0010020B0010020000000000000494012
:10434000E4800008F0020020464D55206F66667339
:104350006574206861732066696E6973686564219D
:104360000D0A0000704710B54FF4407000F03EF8A1
:1043700010BD000070B5002100230F22C4781CB3CB
:10438000174C246804F4E064C4F5E064C4F3072126
:10439000C1F10404E3B20A4144789C40E1B284785C
:1043A000144021430C07210E0E4C0578615504780A
:1043B00004F01F050124AC4005786D11AD0005F136
:1043C000E025C5F8004109E0047804F01F05012448
:1043D000AC40054D0678761145F8264070BD0000CA
:1043E0000CED00E000E400E080E100E00249014360
:1043F000024A1160704700000000FA050CED00E071
:104400007047000029B1064A12680243044B1A6043
:1044100004E0034A12688243014B1A6070470000AF
:104420003038024029B1064A12680243044B1A6030
:1044300004E0034A12688243014B1A60704700008F
:104440004038024029B1064A12680243044B1A6000
:1044500004E0034A12688243014B1A60704700006F
:104460004438024029B1064A12680243044B1A60DC
:1044700004E0034A12688243014B1A60704700004F
:104480002438024038B500F033F8012000F00AF972
:1044900000F04CF90446012C29D1072002234FF4E7
:1044A000A87208210090C80400F022F9002000F052
:1044B000EDF84FF4A05000F0FDF8200300F006F9ED
:1044C0000520FFF769FB0120FFF754FB012000F0F6
:1044D00009F900BF392000F0B1F80028FAD0022015
:1044E00000F018F900BF00F0C9F80828FBD138BD6A
:1044F0001448006840F0010012490860002011498A
:10450000083108600F4800680F4908400D490860ED
:104510000E48091D08600E480A49843108600B489E
:104520001038091D08600748006820F480200549FC
:104530000860002003490C31086002498C31086092
:104540007047000000380240FFFFF6EA10300024F8
:1045500000300020F0B500210022002402250026B2
:104560000223324F3F6807F00C0121B1042905D026
:10457000082937D105E02E4F076036E02D4F076040
:1045800033E02A4F3F1F3F68C7F38056274F3F1F36
:104590003F6807F03F036EB1264FB7FBF3F7DFF834
:1045A0008CC0ACF1040CDCF800C0CCF3881C07FB19
:1045B0000CF40CE01E4FB7FBF3F7DFF870C0ACF162
:1045C000040CDCF800C0CCF3881C07FB0CF4174F7C
:1045D0003F1F3F68C7F301477F1C7D00B4FBF5F721
:1045E000076002E0124F076000BF00BF0F4F3F6837
:1045F00007F0F0010909104F7A5C0768D74047605F
:104600000A4F3F6807F4E051890A0B4F7A5C47680C
:10461000D7408760054F3F6807F46041490B064F5C
:104620007A5C4768D740C760F0BD00000838024098
:104630000024F40000127A000000002010B50146AA
:104640000022002300204A11012A02D10A4C2368CB
:1046500008E0022A03D1084C7034236802E0064CBB
:104660007434236801F01F02012494401C400CB1F3
:10467000012000E0002010BD003802400248006820
:1046800000F00C007047000008380240014600208E
:10469000034A106820F0F0000843106070470000E3
:1046A000083802400021024A117011460870704714
:1046B0000238024001460020034A106820F4E0500E
:1046C000084310607047000008380240014600208F
:1046D000034A106820F4604040EAC100106070474F
:1046E0000838024001490866704700000000474250
:1046F00070B5049C41EA82150126C6EB530645EAD3
:104700000645054345EA0465014E356070BD00006D
:104710000438024001460020034A106820F00300DC
:1047200008431060704700000838024038B5002088
:1047300000900024002500BF3120FFF77FFF0546D1
:104740000098401C00900098B0F5A04F01D0002DBB
:10475000F2D03120FFF772FF08B1012400E00024FD
:10476000204638BD10B58AB0044601210420FFF769
:1047700049FE01210220FFF745FE01210220FFF73B
:1047800051FE4FF48050089001208DF82400032042
:104790008DF8250000208DF8260002208DF82700D6
:1047A00008A94248FFF738FA414804604FF4707096
:1047B000089002208DF8240003208DF825000020A9
:1047C0008DF8260002208DF8270008A93948FFF748
:1047D00023FA022206213748FFF766FA0222072150
:1047E0003448FFF761FA022208213248FFF75CFAE9
:1047F000022209212F48FFF757FA42F20700ADF8CD
:1048000014000020ADF8160042F20F700690002050
:10481000ADF81C0005A9284800F0B2FC6020ADF8F6
:1048200000000120ADF802000020ADF80C00694640
:10483000214800F04FFB69461F4800F093FB694692
:104840001D4800F0EFFB69461B4800F045FC0821BD
:10485000194800F07DFB0821174800F0D5FB08211E
:10486000154800F02FFC0821134800F071FC0121CD
:10487000114800F0F7FA01210F4800F005FB40F263
:10488000DC510D4800F071FC40F2DC510A4800F0A8
:104890006EFC40F2DC51084800F06BFC40F2DC5149
:1048A000054800F068FC0AB010BD0000000402409A
:1048B000B0824042000802400004004000B587B0CA
:1048C00001210846FFF79EFD01210803FFF7BAFD0D
:1048D000E020059002208DF8180000208DF81A00C5
:1048E00003208DF8190000208DF81B0005A9214830
:1048F000FFF792F9052211461E48FFF7D5F9052268
:1049000006211C48FFF7D0F9052207211948FFF7B7
:10491000CBF901210803FFF7A5FD00214FF48050DA
:10492000FFF7A0FD0020ADF800004FF48270ADF855
:1049300002000020ADF80400ADF80600ADF8080054
:104940004FF40070ADF80A001820ADF80C000020FC
:10495000ADF80E000720ADF810006946064800F0DB
:10496000A1F80121044800F083F800F007F807B02F
:1049700000BD000000000240003001401CB50121D4
:104980000420FFF73FFD01210846FFF73BFD4FF4F0
:104990000050009001208DF8040003208DF80500E0
:1049A00001208DF8070069462E48FFF735F90120F0
:1049B0002D4908601420009001208DF80400032088
:1049C0008DF8050001208DF8070069462548FFF79E
:1049D00023F901202549C1F88802234924390860B8
:1049E0000220009001208DF8040000208DF80600C0
:1049F00003208DF8050001208DF80700694619484D
:104A0000FFF70AF901201949C1F8840200908DF8D6
:104A1000040000208DF8060003208DF80500012019
:104A20008DF8070069460F48FFF7F6F801200E4998
:104A3000343908600003009001208DF80400002044
:104A40008DF8060003208DF8050001208DF8070081
:104A500069460448FFF7E0F801200449C1F8B002B4
:104A60001CBD000000080240B40241420000414267
:104A700021B1028842F04002028004E002884FF631
:104A8000BF731A40028070470246002013890B4012
:104A90000BB1012000E00020704701468889704773
:104AA0008181704710B50022028802F441520B88C0
:104AB0004C8823438C882343CC8823430C8923438D
:104AC0004C8923438C892343CC8923431A43028096
:104AD000838B4FF2FF74234083830B8A038210BDC4
:104AE00070B504460D4600BF02212046FFF7CCFFFB
:104AF0000028F9D029462046FFF7D2FF00BF012148
:104B00002046FFF7C1FF0028F9D02046FFF7C5FF78
:104B100070BD70471FB5044601210846FFF782FCAF
:104B20005120ADF804000020ADF806000294ADF865
:104B30000C0001A94FF0804000F022FB1C208DF8F2
:104B4000000001208DF8030003208DF801000020F3
:104B50008DF802006846FFF70DFC0121880700F080
:104B60008DF901221146900700F0ABF900214FF0BA
:104B7000804000F089F91848844205D1B7EE000A58
:104B8000164880ED000A25E01548844205D19FEDC6
:104B9000150A124880ED000A1CE044F61F608442AA
:104BA00005D19FED110A0D4880ED000A12E042F296
:104BB0000F70844205D19FED0D0A084880ED000A70
:104BC00008E041F28730844204D19FED090A03488E
:104BD00080ED000A1FBD00003F420F003C00002096
:104BE0009F860100CDCCCC3D0AD7A33C0AD7233CFD
:104BF0000AD7A33B10B59FED090B0A4880ED000BC7
:104C00000121880700F03AF900214FF0804000F0C0
:104C1000B4FA0121880700F037F910BD0000000048
:104C200000000000400000200CB500200190009022
:104C30003448006840F480303249086000BF314891
:104C4000006800F4003000900198401C019000982A
:104C500018B90198B0F5A04FF1D12A48006800F4C6
:104C6000003010B10120009001E000200090009879
:104C7000012846D123484030006840F08050214947
:104C8000403108602048006840F440401E490860F8
:104C90001C48083000681B49083108600846006855
:104CA00040F4004008600846006840F4A0500860E6
:104CB0001648091F0860081F006840F08070091F2F
:104CC000086000BF0F48006800F000700028F9D0AD
:104CD00040F205700E4908600A480830006820F06C
:104CE00003000849083108600846006840F00200E7
:104CF000086000BF03480830006800F00C00082876
:104D0000F8D10CBD00380240007000400854400744
:104D1000003C02407047000010B51548006840F4A0
:104D20007000134908601348006840F00100114901
:104D3000086000200F49083108600E4800680E49DD
:104D400008400C4908600D48091D0860081F0068EC
:104D500020F48020091F0860002006490C310860FB
:104D6000FFF762FF4FF0006001498039086010BD15
:104D700088ED00E000380240FFFFF6FE103000240E
:104D800010B52DED028B0121880700F089F801286C
:104D900054D10121800700F074F82A48FDF7BEFEC7
:104DA0002948FCF78DFF284890ED080B274880ED37
:104DB000000B254890ED0A0B244880ED020B224899
:104DC00090ED0C0B214880ED040B1E4890ED0C0B70
:104DD0001E4880ED060B1B4890ED0E0B1B4880ED26
:104DE000080B184890ED100B184880ED0A0BFEF7E1
:104DF00031FB164880ED200B154890ED040B13484D
:104E000080ED1E0B0020134908701348006803F062
:104E100077F841EC180B114890ED000B53EC102B78
:104E200051EC180B02F0FCFA0C4A03C20C48006863
:104E300008B9012000E0002009490860BDEC028BA0
:104E400010BD0000F0010020B0010020F013002090
:104E5000D8020020380000203C0000204000002044
:104E6000AC02404221B1028842F08002028004E09C
:104E700002884FF67F731A4002807047CA4302824D
:104E80007047CA430282704721B1028842F0010292
:104E9000028004E002884FF6FE731A4002807047D9
:104EA00030B50246002000230024158A05EA0103DC
:104EB000958905EA010413B10CB1012000E000203E
:104EC00030BD1AB183890B43838102E083898B4310
:104ED0008381704770B5002400220023058C4FF6B3
:104EE000FE7635400584028C8388048B4FF68F75DF
:104EF0002C40B51E2C400D882C43751E2A408D89F0
:104F00002A434D882A43104DA84202D00F4DA84293
:104F100013D14FF6F7752A40CD892A434FF6FB751A
:104F20002A408D882A434FF6FF652B404FF6FF55E8
:104F30002B400D8A2B434D8A2B43838004838D683D
:104F40004563028470BD0000000001400004014080
:104F50000A460021018B4FF6F77319401143018374
:104F60007047000070B5002400220023058C4FF626
:104F7000EF7635400584028C8388048B48F6FF75F4
:104F80002C404FF6FF452C400D884FF6FF7606EA81
:104F900005252C434FF6DF752A408D8906EA051555
:104FA0002A434D8806EA05152A43154DA84202D02A
:104FB000144DA8421DD14FF67F752A40CD894FF67A
:104FC000FF7606EA05152A434FF6BF752A408D88FD
:104FD00006EA05152A434FF6FF352B404FF2FF75C1
:104FE0002B400D8A06EA85052B434D8A06EA850586
:104FF0002B43838004838D688563028470BD000029
:1050000000000140000401400A460021018B4FF2DC
:10501000FF7319404FF6FF7303EA0223194301831C
:105020007047000070B5002400220023058C4FF665
:10503000FF6635400584028C8388848B4FF68F751C
:105040002C404FF6FC752C400D882C434FF6FF5535
:105050002A408D894FF6FF7606EA05252A434D88BA
:1050600006EA05252A43154DA84202D0144DA84250
:105070001DD14FF2FF752A40CD894FF6FF7606EA23
:1050800005252A434FF6FF352A408D8806EA052577
:105090002A434EF6FF752B404DF6FF752B400D8AC7
:1050A00006EA05152B434D8A06EA05152B43838036
:1050B00084838D68C563028470BD000000000140D8
:1050C000000401400A460021818B4FF6F773194016
:1050D000114381837047000070B500220023002433
:1050E000058C4EF6FF7635400584038C8488828BD0
:1050F00048F6FF752A404FF6FF452A400D884FF6C7
:10510000FF7606EA05252A434DF6FF752B408D896B
:1051100006EA05352B434D8806EA05352B430A4D33
:10512000A84202D0094DA84208D14BF6FF752C4089
:105130000D8A4FF6FF7606EA85152C43848082831C
:105140008D680564038470BD0000014000040140C7
:105150000A460021818B4FF2FF7319404FF6FF730F
:1051600003EA0223194381837047416370478163D7
:105170007047C16370470164704741627047000027
:1051800000220288184B98420ED0184B98420BD040
:10519000B0F1804F08D0164B984205D0154B98427D
:1051A00002D0154B984204D14FF68F731A404B88AA
:1051B0001A43124B984207D0114B984204D04FF635
:1051C000FF431A400B891A4302804B68C3620B8865
:1051D0000385054B984202D0044B984201D18B7A4B
:1051E00003860123838270470000014000040140D0
:1051F0000004004000080040000C00400010004087
:105200000014004030B587B005460C46012110203F
:10521000FFF718F901210846FFF7F4F807220921E2
:105220002248FEF741FD07220A212048FEF73CFDF7
:105230004FF4C060059002208DF8180003208DF80F
:10524000190000208DF81A0001208DF81B0005A917
:105250001648FEF7E1FC25208DF8000004208DF8AB
:10526000010000208DF802008DF803406846FFF72A
:1052700081F801950020ADF80800ADF80A00ADF8FE
:105280000C00ADF810000C20ADF80E0001A9084884
:1052900000F0F0F9224640F22551054800F0C4F92B
:1052A0000121034800F07DF907B030BD0000024045
:1052B0000010014010B540F22551284800F08AF94D
:1052C00000284AD040F22551244800F05BF92348D9
:1052D00000F03AFAC4B22248008800F4004058BBFB
:1052E0001F48008800F4804060B10A2C03D00020E1
:1052F0001B49088020E01A48008840F40040184903
:10530000088019E00D2C06D11548008840F4804033
:105310001349088010E012480088C0F30D001149BD
:105320000C540F480088401C0D490880084600882E
:10533000312801DD002008800948008800F4004081
:1053400058B1002006490988C1F30D01054A50549F
:10535000034908801046FEF7ADFB10BD0010014068
:10536000140000204800002030B587B005460C46E8
:1053700001214804FFF756F801210846FFF742F8DB
:10538000072202212148FEF78FFC072203211F4834
:10539000FEF78AFC0C20059002208DF818008DF88D
:1053A000190000208DF81A0001208DF81B0005A9B6
:1053B0001648FEF731FC26208DF8000008208DF8F5
:1053C000010000208DF802008DF803406846FEF7CA
:1053D000D1FF01950020ADF80800ADF80A00ADF846
:1053E0000C00ADF810000C20ADF80E0001A9084823
:1053F00000F040F9224640F22551054800F014F92A
:105400000121034800F0CDF807B030BD0000024094
:105410000044004010B540F22551094800F0DAF888
:1054200060B140F22551064800F0ACF8044800F0A5
:105430008BF9C4B22146034800F08BF910BD00007F
:10544000004400400048004030B587B005460C4697
:1054500001218804FEF7E6FF01210220FEF7D2FFBA
:1054600007220A212248FEF71FFC07220B212048B1
:10547000FEF71AFC4FF44060059002208DF81800EA
:1054800003208DF8190000208DF81A0001208DF8F6
:105490001B0005A91648FEF7BFFB27208DF800006A
:1054A00005208DF8010000208DF802008DF80340E2
:1054B0006846FEF75FFF01950020ADF80800ADF8E3
:1054C0000A00ADF80C00ADF810000C20ADF80E008D
:1054D00001A9084800F0CEF8224640F225510548BF
:1054E00000F0A2F80121034800F05BF807B030BDDE
:1054F000000402400048004010B540F22551094820
:1055000000F068F860B1074800F01EF9C4B2214607
:1055100005A0FAF71BFF40F22551024800F032F8CF
:1055200010BD000000480040256300000FB410B516
:105530008EB0002411A80090332101A8009B109A7E
:10554000FAF7EAFE0EE02046621CD4B201AA115C12
:105550000B4800F0FEF800BF4021094800F02DF88C
:105560000028F9D0322C04DA01A8FAF7E9FFA042AA
:10557000E9D8002000900EB010BC5DF814FB0000CC
:105580000048004010B50022002340F66A14A142F2
:1055900000D100BF0A1201249440A3B2DC4304806E
:1055A00010BD21B1828942F40052828104E08289D7
:1055B0004DF6FF731A408281704702460020B1F514
:1055C000007F00D100BF13880B400BB1012000E029
:1055D0000020704770B502460024002300250020FB
:1055E00040F66A16B14200D100BFC1F3421501F086
:1055F0001F03012606FA03F3012D02D196893340D9
:1056000006E0022D02D1168A334001E0968A33402B
:105610000C12012606FA04F41688344013B10CB1BA
:10562000012000E0002070BDF0B5034600240026F4
:105630000025002040F66A17B94200D100BF184685
:10564000C1F3421401F01F06012707FA06F5012CE9
:1056500001D10C3004E0022C01D1103000E01430F4
:105660001AB107682F43076002E00768AF4307607D
:10567000F0BD00002DE9FF4705460E460024A14677
:1056800000BFA046B08900B100BF2C8A24F440546A
:10569000F08804432C82AC8941F20C608443B088CA
:1056A00031890843718908430443AC81AC8A24F4EE
:1056B0004074B0890443AC826846FEF74BFF204833
:1056C000854202D01F48854202D1DDF80C9001E0EE
:1056D000DDF80890A88900F4004040B109EBC9004A
:1056E00000EB091031684900B0FBF1F707E009EB66
:1056F000C90000EB091031688900B0FBF1F76420A4
:10570000B7FBF0F004012009642101FB1078A8899F
:1057100000F4004040B1322000EBC800B0FBF1F0D3
:1057200000F00700044308E0322000EB0810642179
:10573000B0FBF1F000F00F0004432C81BDE8FF87BF
:10574000001001400014014001468888C0F30800A1
:105750007047C1F308028280704700BFFEE710B5B2
:10576000B72000F0EFF8982000F0ECF810BD000032
:105770002DE9F04104460D46164600201549086003
:10578000012001F083FC13211348FFF7A9F9210E32
:105790001148FFF7A5F9210C0F48FFF7A1F9C4F351
:1057A0000F210D48FFF79CF9A1B20B48FFF798F9BC
:1057B000002706E000210848FFF792F928706D1CC9
:1057C0007F1CB742F6D301200249086001F05EFC5D
:1057D000BDE8F081B0024142003001402DE9F041C6
:1057E00004460E46174600F061F800F07DF80020F0
:1057F00015490860012001F049FC12211348FFF708
:105800006FF9210E1148FFF76BF9210C0F48FFF7D4
:1058100067F9C4F30F210D48FFF762F9A1B20B48F5
:10582000FFF75EF9002505E0715D0848FFF758F9BC
:10583000681C85B2BD42F7DB01200349086001F016
:1058400025FCBDE8F0810000B0024142003001407B
:1058500070B505462C0300F047F800201049086099
:10586000012001F013FC21210E48FFF739F9210E28
:105870000C48FFF735F9210C0A48FFF731F9C4F35A
:105880000F210848FFF72CF9A1B20648FFF728F9C5
:1058900001200549C1F8B00200F008F870BD000011
:1058A000B0024142003001400000414210B50020EA
:1058B0000B490860012001F0E9FB05210948FFF7C9
:1058C0000FF900BF00210748FFF70AF900F00100B7
:1058D0000028F7D101200249086001F0D7FB10BD74
:1058E000B00241420030014010B50020124908606A
:1058F00006211248FFF7F4F801201149C1F8B0025F
:1059000001F0C4FB00200C490860012001F0BEFB3F
:1059100005210A48FFF7E4F800BF00210748FFF718
:10592000DFF800F002000028F7D0012002490860EB
:1059300001F0ACFB10BD0000B0024142003001405C
:105940000000414210B50446FFF7CEFF0020074992
:10595000086021460648FFF7C3F801200549C1F851
:10596000B00201F093FBFFF7A1FF10BDB00241426E
:10597000003001400000414203B40198410000980A
:1059800050EAC12018BF04204A0D18BF40F00100A2
:1059900040F2FF72B2EB515F08BF40F002000128F5
:1059A00008BF052002B0704770B5C1482DED020B4D
:1059B0002DED0E8B82B0119D25F000449FEDBEDBD6
:1059C0009FEDBFEB84423EDBA4F140511098A1F162
:1059D0007F6108430FD0BC48844202DC28D1109874
:1059E00030B39DED100B02B0BDEC0E8B02B0BDE8E4
:1059F000704001F0E9BA9DED100B53EC1D2B51ECFA
:105A0000100B01F087FF9DED100B41EC180B53ECD0
:105A10001E2B51EC100B01F07DFF53EC182B01F005
:105A2000FFFC41EC100B02B0BDEC0E8B02B070BD60
:105A30000120FAF7EEFD02B0BDEC0E8B02B0BDE81E
:105A4000704001F0D5BAA1489FEDA18B844256DA8F
:105A50009DED100BB4F1795F0ADA51EC100BFFF7F2
:105A60008BFF042808BF01F0E3FA9DED100BDAE785
:105A700053EC102B51EC100B01F04CFF41EC190BC7
:105A800095480621B0EE490AF0EE690A784401F023
:105A900004FA53EC192B51EC100B01F03BFF41ECD5
:105AA0001A0B8E48B0EE490AF0EE690A04217844D8
:105AB00001F0F3F953EC192B51EC100B01F02AFF14
:105AC00053EC182B01F0ACFC41EC100B51EC1A0B11
:105AD00053EC102B01F060FDCDE900019DED000BB2
