:020000040800F2
:1000000078200020D5020008A57800089B6500082C
:10001000D17000083D520008D99D00080000000082
:100020000000000000000000000000000B8E00082F
:10003000855C000800000000B3790008D590000836
:10004000EF020008EF020008EF020008EF020008CC
:10005000EF020008EF020008EF020008EF020008BC
:10006000EF020008EF020008EF020008EF020008AC
:10007000EF020008EF020008EF020008EF0200089C
:10008000EF020008EF020008EF020008EF0200088C
:10009000EF020008EF020008EF020008EF0200087C
:1000A000EF020008EF020008EF020008EF0200086C
:1000B00041910008EF020008EF020008EF0200087B
:1000C000EF020008EF020008EF020008EF0200084C
:1000D000EF0200081597000881980008099A0008A7
:1000E000EF020008EF020008EF020008EF0200082C
:1000F000EF020008EF020008EF020008EF0200081C
:10010000EF020008EF020008EF020008EF0200080B
:10011000C9950008EF020008EF020008EF0200088E
:10012000EF020008EF020008EF020008EF020008EB
:10013000EF020008EF020008EF020008EF020008DB
:10014000EF020008EF020008EF020008EF020008CB
:10015000EF020008EF020008EF020008EF020008BB
:10016000EF020008EF020008EF020008EF020008AB
:10017000EF020008EF020008EF020008EF0200089B
:10018000EF020008EF02000800F002F800F092F819
:100190000AA090E8000C82448344AAF10107DA45E2
:1001A00001D100F087F8AFF2090EBAE80F0013F0A2
:1001B000010F18BFFB1A43F00103184780DB000052
:1001C000A0DB0000103A24BF78C878C1FAD85207E3
:1001D00024BF30C830C144BF04680C6070470000C1
:1001E0000023002400250026103A28BF78C1FBD840
:1001F000520728BF30C148BF0B6070476E2900F01E
:100200008382702900F0EF8566290DF00E83652941
:100210000DF00B8367290DF0088361290DF007832A
:1002200003681B0A28BF41F08001692900F0308271
:10023000642900F02D82752900F02A826F2900F0D0
:100240007C85782900F0BB85E92900F01785E42931
:1002500000F01485F52900F01185EF2900F079856B
:10026000F82900F0BA850368DB0928BF41F0800156
:10027000632901F03180732901F03680E32901F010
:100280004180F32901F04680002070471FB50DF032
:10029000C2FA00F0B3FD0400002000210CF028FC9D
:1002A000401C6060002000210CF00CFCE0601FBDD1
:1002B00010B510BD01F0CCF81146FFF7E7FF0CF0C8
:1002C00023F801F0F3F803B4FFF7F2FF03BC0BF0DF
:1002D0007AFF00000948804709480047FEE7FEE72B
:1002E000FEE7FEE7FEE7FEE7FEE7FEE7FEE7FEE7E6
:1002F00004480549054A064B70470000D99000089C
:1003000089010008781A002078200020781C00203D
:10031000781C0020704700007CB51D4616460C0076
:10032000009001D02044401E074B7B442A4669467A
:100330000190304600F011FC05461CB100206946D2
:1003400000F01EFC28467CBD5D0800000FB4044987
:1003500010B503AA029800F021FC10BC5DF814FB54
:10036000100000202DE9F05F894604464FF0000A96
:10037000DFF874B1FB44C0F820A02046E16888474C
:10038000002874D0252806D0D4E901219047206A9E
:10039000401C2062F1E700265F462046E16888475E
:1003A0002028054607DB312D05D2781910F8200CDE
:1003B00008B10643F1E7B00701D526F00406C4F8FA
:1003C0001CA00027C4F818A02A2D09D028460BF03D
:1003D000F3FE38B304EB8708303DC8F8185019E035
:1003E00059F8041B204604EB87029161E1688847B5
:1003F000012F054618D1E069002820DA26F02006F2
:100400001DE0D8F8180000EB800005EB4000303804
:10041000C8F818002046E168884705460BF0CCFE76
:100420000028EED1012F0AD02E2D08D12046E168F8
:1004300088477F1C0546022F46F02006C4DBA069D2
:10044000002803DA404246F00106A061F00701D01F
:1004500026F010066C2D0BD0682D09D04C2D39D00C
:100460006A2D35D0742D35D07A2D33D016E038E092
:10047000E1682F4620468847B842054609D16C2FCF
:1004800026D04FF48060E168064320468847054641
:1004900004E06C2F1AD04FF4807006430DB3A5F121
:1004A0004100192802D8203546F400664A462946FC
:1004B000204626604E46FFF7A1FE80B101280BD0F2
:1004C000F61D26F0070000F1080956E74020E4E792
:1004D0008020D8E70020D6E706F104094DE728463A
:1004E00052E7206ABDE8F09FC0D5000010B5431C5C
:1004F00002E010F8011B71B18107FAD14FF001320F
:1005000002C88C1A8C4314EAC211F9D0C01A0A0628
:1005100003D0C01E10BDC01A10BD0A0401D0801E39
:1005200010BD0902FCD0401E10BD00004FF0013C80
:1005300050F8042B51F8043B9A4221D1A2EB0C0352
:10054000934313EACC1317D150F8042B51F8043B12
:100550009A4215D1A2EB0C03934313EACC130BD1AF
:1005600050F8042B51F8043B9A4209D1A2EB0C033A
:10057000934313EACC13DBD04FF00000704700BF69
:10058000D01A01BAB1FA81F101F0180122FA01F092
:10059000CB40C1F12001DBB2C0B2C01A2CFA01F38A
:1005A000D11A914311EAC311E6D1704770477047E1
:1005B0007047704710B500F025FC006810BD10B5FD
:1005C000044600F01FFC046010BD70B50446856948
:1005D0000068C10601D5302600E02026C00707D0FC
:1005E00070BDD4E9012130469047206A401C20624A
:1005F0006D1EF6D570BD70B5044685690078C007DC
:1006000007D170BDD4E9012120209047206A401C09
:1006100020626D1EF6D570BD09684A0501D540B24D
:100620007047C905FCD500B2704709684A0501D575
:10063000C0B27047C905FCD580B2704770B50C4692
:100640000546012A05D02878800600D5EA690023EE
:1006500002E0012305E05B1C934202D2E05C00282B
:10066000F9D1A869E618C01AA861286A1844286256
:100670002846FFF7AAFF04E0D5E9012114F8010B91
:100680009047B442F8D32846FFF7B5FF70BD00008D
:100690002DE9F0410646002410687529314616A55B
:1006A00010D0FFF7B9FF002802DA404213A507E097
:1006B00031688A0701D512A502E0490704D511A5C2
:1006C000012401E0FFF7B1FF00210A2206F124070F
:1006D00009E0B0FBF2FCB0FBF2F302FB1C0030308F
:1006E00078541846491C0028F3D123462A46304640
:1006F000BDE8F04100F0CFBB000000002D0000007D
:100700002B0000002000000011680268006A5305F9
:1007100001D508700AE0D30501D5088006E013066C
:1007200003D5C217C1E9000200E00860012070474C
:1007300070472DE9FF4F0C461E464FF0FF378BB038
:10074000D2E90001DDF860800A908A46C1F30A55BB
:1007500005B93D46002108464FF00000BAF1000FF0
:1007600000F4400005DA00EB80004FF4400101EA9C
:1007700050004FEA9059B9F1010F00DDB9460A98CF
:1007800050EA4A000ED044F61050A5F2FF3545431A
:100790002F14B8F1000F1ED07542291E1EDDC9F1BD
:1007A00000021CE0B8F1010F4FF0000001D0302131
:1007B00003E0F24305E02154401CB042FBDB30462D
:1007C0000022002121540B99C1F80880C1E90020C2
:1007D0000FB0BDE8F08FBD1B6D1CDEE74A4600DAA6
:1007E000694206A800F09AFD06AB93E8070003AB48
:1007F00083E8070050460A9900F061FE8DE8070083
:10080000A0F500501F3800900398002D0ADD42F239
:100810001F014A460844002303A90390684601F0DB
:10082000CAF809E0A0F500504A461F38002303A982
:100830000390684601F0D4F88DE807000004000C2E
:1008400003D04FF0FF30410800E01046B8F1000F30
:1008500003D00022009215461EE0751E05D400F05C
:10086000D5FA303262556D1EF9D5B34601220843E0
:1008700002D000227F1C04E02078302801D1002221
:100880007F1E002A099784D01DE0112D07DA00F0A1
:10089000BDFA303262556D1C50EA0102F5D10843B1
:1008A00002D00098C8B10EE00021681E05E0235C6C
:1008B000625C63542254401E491C8142F7DBAB4604
:1008C000A81B401E0990002004F80B000B98099A01
:1008D000C0F80880C0E9002B7AE711264FF0000825
:1008E00057E72DE9F04F88460446D21D22F0070154
:1008F00091B0D1E90001CDE90A0109F0BBFC024643
:100900000B98C00F01D02D2007E02068810701D58A
:100910002B2002E0202101EAC000032A099001D027
:10092000072A05DB03464146204600F08BFC0BE11D
:100930002078800601D5E06900E00620B8F1650F57
:10094000814606D0B8F1660F18D0B8F1670F70D1A4
:1009500031E00020B9F1110F009001DB112301E01B
:1009600009F101030AAA01A90CA8FFF7E2FEDDE9DB
:100970000C70002609F10105834647E001204B4633
:1009800000904FF000470AAA01A90CA8FFF7D1FE7A
:10099000DDE90DB00C995D46002610B909F10100A2
:1009A0000D18B9EB050003D4C0F1FF3609F10105BC
:1009B000A5EB09002BE0B9F1010F01DA4FF00109B5
:1009C0000020B9F1110F0090484601DD112300E02D
:1009D00003460AAA01A90CA8FFF7ABFEDDE90C70DB
:1009E0004D4600268346207800070AD4AB4500DA3E
:1009F0005D4601A8012D04DD411911F8011C3029C3
:100A000007D04F4502DA17F1040F04DA01208246BD
:100A10000FE06D1EEEE7002F02DCED1B3E4403E00D
:100A2000781CA84200DD7D1CB81B00F1010A4FF0C4
:100A300000472078000703D4AA4501DB4FF0FF3AB6
:100A40000021B7F1004F0DF143088DF8431024D079
:100A500002202B23002F01DA7F422D230A21021EC0
:100A6000A0F1010000DC5FB197FBF1FC97FBF1F214
:100A700001FB1C7C17460CF1300C08F801CDEEE7A9
:100A8000A8F1010003702188090501D5452100E086
:100A90006521A0F1010800F8011C09980FA9A1EB3C
:100AA0000807FF1D00B10120411901EBEA70A1699F
:100AB0003844081A401EA0612078C00602D420469F
:100AC000FFF783FD099828B1D4E901219047206AF6
:100AD000401C20622078C00622D52046FFF775FD15
:100AE0001EE0002E04DBB34502DD01A8805D00E0BE
:100AF0003020D4E901219047206A401C2062761CF6
:100B0000AAF101005FEA000A0AD100F077F9C06893
:100B10000168405CD4E901219047206A401C2062B2
:100B2000281EA5F10105DCDC07E0D4E9012118F855
:100B3000010B9047206A401C2062381EA7F1010774
:100B4000F3DC2046FFF757FD032011B041E600001B
:100B500001694A1C02610878704700B58FB0CDE981
:100B600001310021059105497944CDE90310114671
:100B70006846FFF7F7FB0FB000BD0000E5FFFFFF81
:100B80000A6802F8010B0A607047D1E900239A4213
:100B900002D2531C0B60107070470000074B70B5F9
:100BA0000D467B44FFF7D9FF0446284600F028FC99
:100BB00010B14FF0FF3070BD204670BD47B7000048
:100BC0002DE9FF5F15468A460446DFF8AC80F844FD
:100BD0000027D8E900103E46CDE9001010E03AF8B1
:100BE00016106A4602A800F00FFC411C07D02178BD
:100BF000890603D5E269391891420DD80744761C5D
:100C00002078800602D5E069B84205DDAE42E6DB19
:100C10003AF816000028E2D1A069C01BA061204666
:100C2000FFF7D3FCD8E90010CDE90010002017E051
:100C30003AF818106A4602A800F0E6FBB0F1FF3F50
:100C400081460BD000250DF1080B05E0D4E9012108
:100C50001BF8050090476D1C4D45F7D308F10100C6
:100C6000B0428046E4DB206A384420622046FFF729
:100C7000C2FCBDE8FF9F000056CE00002DE9F04108
:100C80008046D21D22F007020025D2E90002F52994
:100C900015A614D0011E72F1000106DA0023D0EB74
:100CA000030063EB020211A608E0D8F800108B07DE
:100CB00001D50FA602E0490701D50EA60125114670
:100CC000002408F1240704E000F0A0F830323A557F
:100CD000641C50EA0102F7D12B46324621464046B9
:100CE000BDE8F04100F0D7B8000000002D00000082
:100CF0002B0000002000000030B4002100F124048B
:100D000008E002F00705D208303542EA4372DB08FA
:100D10006554491C52EA0305F3D10468002310A26C
:100D2000250707D5A40600D421B1C46901230DA26B
:100D3000641EC46130BC00F0AEB810B50446214654
:100D40001068FFF772FC02462046BDE81040002301
:100D5000D2E7D21D22F00701D1E90023CCE7000041
:100D60000000000030000000F0B40D4601880905C5
:100D700002D5214C7C4402E01F4C7C440E340021FF
:100D800000F1240608E002F00F071209E75D42EACD
:100D900003721B097754491C52EA0307F3D1027806
:100DA0000023120704D5702D06D009B10223113497
:100DB0002246F0BC00F06FB801231034F8E770B59C
:100DC00004460D4621461068FFF72FFC02462946CF
:100DD0002046BDE870400023C6E7D21D22F007037D
:100DE000D3E90023C0E70368126843F020030360DF
:100DF0000823C3610023B7E7B8CC00000048704760
:100E0000381A002000487047181A002030B5B0F199
:100E10000A024FEA900E71F100034EEA817EB0EBB8
:100E20000E0061EB91014FEA101E4EEA017E10EBBD
:100E30000E0041EB11114FEA102E4EEA016E10EB3D
:100E40000E0041EB11214FEA104E4EEA014E10EB1D
:100E50000E0041EB1141401841F100014FEAD00072
:100E600040EA41704FEAD10110EB80054FEA81045E
:100E700044EA907444EB01046D1944EB0404521BE2
:100E8000A3414FF0000348BF0A3200D530BD401CDB
:100E900041F1000130BD2DE9F0470D4699469246DB
:100EA000044600F124080168880604D5E06921F0B1
:100EB0001001216000E00120A84201DD471B00E095
:100EC0000027A1697A1902EB0900081AA0612078AD
:100ED000C00602D42046FFF778FB002608E0D4E9DC
:100EE00001211AF806009047206A401C761C2062F7
:100EF0004E45F4DB2078C0060AD52046FFF765FB97
:100F000006E0D4E9012130209047206A401C20628D
:100F1000381EA7F10107F4DC07E0D4E9012118F835
:100F200005009047206A401C2062281EA5F101059B
:100F3000F3DC2046FFF75FFB2078000602D5022095
:100F4000BDE8F0870120FBE72DE9F04F04460D4690
:100F5000D21D22F0070089B0D0E9009748463946F3
:100F600009F088F90246F80F01D02D2307E0206828
:100F7000810701D52B2302E0202101EAC0038DF86F
:100F800020300BB1012000E00020032A824601D06E
:100F9000072A04DB2946204600F054F93FE1207877
:100FA000800601D40D2500E0E569C7F30A560D2D32
:100FB00049DA00214FEA175B08464FF00000002F86
:100FC00000F4400007DA00EB80004FF4400100EB32
:100FD000D07001EA60008115012901DD4FF0FF3179
:100FE00000224FEA850CBCF1180F06D31346ACF172
:100FF00018004FF08052C24003E04FF4801323FAF0
:101000000CF30CF10C0CBCF1200F04D3ACF1200C50
:1010100009FA0CF001E007FA0CF000294FF0004843
:1010200001DD18B90FE00ED140450CD319EB0209D0
:101030005F4121B9404502D19F4329EA0209BBEB38
:10104000175F00D0761C2088000502D57B487844C5
:1010500002E07A487844193808AA302302F80A30A6
:10106000037C0AF10101002E0AF1020A53546A4678
:1010700002DC4FF0300101E04FF031014FF0010888
:101080008DF8001002D0A6F2FF3603E059EA4701BE
:1010900000D06B4E002D02DC2178090704D54FF0FB
:1010A00002082E218DF80110C44600210BE0C7F381
:1010B00003433F01C35C491C6D1E02F8083005293B
:1010C00008F1010801DA002DF1DC00210CE000EB51
:1010D0001973491C1B786D1E082902F808304FEA65
:1010E000091908F1010801DA002DF0DC21688B06EE
:1010F00002D516E0A8F10108E04505DD02EB080382
:1011000013F8013C302BF5D0B8F1000F09DD02EBEC
:10111000080313F8013C2E2B03D1090701D4A8F1D1
:101120000108002D05DD3E2102F808106D1E08F1B2
:101130000108407C002E02F8080008F1010804DADA
:101140002D20764202F8080002E02B2002F8080069
:101150000A214FF47A70864208F101080BDB96FBF6
:10116000F0F3303302F8083096FBF0F308F1010891
:1011700000FB136601E0642E0CDB642096FBF0F3A9
:10118000303302F8083096FBF0F308F1010800FB59
:10119000136601E00A2E06DB96FBF1F0303002F810
:1011A000080008F1010896FBF1F001FB10603030F7
:1011B00002F80800A16908F1010808EB050202EB3A
:1011C0000A00081AA0612078C00602D42046FFF762
:1011D000FCF9216A08AE01EB0A00206204E0D4E9C0
:1011E000012116F8010B9047BAF1010AF7D22078D5
:1011F000C00602D52046FFF7E8F96E4609E016F86A
:10120000010B3E280FD0D4E901219047206A401CF1
:101210002062B8F10108F2D22046FFF7ECF909B0DC
:101220000320BDE8F08F206A2844206203E0D4E95F
:101230000121302090476D1EEBD3F8E7D9CB000099
:1012400002FCFFFF2DE9F0411F460446032601681A
:10125000072A01F4006004DB08B116A505E016A515
:1012600003E008B115A500E015A521F010002060ED
:10127000A069C01EA0610FB1401EA0612046FFF70B
:10128000A4F94FB1D4E9012138469047206A401CA7
:101290002062C01C206206E0206AFAE7D4E901213E
:1012A00015F8010B9047761EF8D22046FFF7A3F9F8
:1012B000BDE8F0814E414E006E616E00494E460021
:1012C000696E660010B5436913B1AFF3008001E0A9
:1012D000FFF7B4F9012010BD127800F124010A7063
:1012E00000224A700122EDE711684FF0FF32E9E772
:1012F00010B5436913B1AFF3008001E0FFF760FC64
:10130000012010BD128800F1240182840022C284D1
:101310000122EDE711684FF0FF32E9E72DE9F047D0
:10132000814616468AB0354878440DC88DE80D00D0
:1013300032487844801C03AC0DC884E80D0041F6A7
:101340009B300844372190FBF1F290FBF1F5A5F1B9
:10135000800501FB12041B3C02D56442012000E021
:101360000020DFF898A080460027FA44AAF1BE0AC0
:101370000EE0E0070AD03246684607EB470101233A
:101380000AEB810100F02CFB8DE8070064107F1C44
:10139000002CEED1194F7F44AE3F19E0E80715D07D
:1013A00007EB04100DF1180A90E80E008AE80E0011
:1013B000C068F04201D1981908903246012306A96D
:1013C00003A800F00DFB03AB83E807006D10641C5D
:1013D000002DE3D14FF0010332466946B8F1000F0A
:1013E00003A802D000F0E7FA01E000F0F9FAC9E939
:1013F0000001C9F808200AB0BDE8F08790C90000D4
:10140000007B00F08000704770B516460C4605461C
:1014100000F044F8036893F80101012806D0FF2C7E
:101420000FD8185D68B101202C7070BDD3F807018A
:101430003246214603F2071303442846BDE87040B4
:1014400018474FF0FF3070BD00487047181A002051
:101450007546FFF7F9FFAE4605006946534620F092
:101460000700854618B020B5FEF742FFBDE82040D2
:101470004FF000064FF000074FF000084FF0000B50
:1014800021F00701AC46ACE8C009ACE8C009ACE803
:10149000C009ACE8C0098D467047000010B5FFF7E1
:1014A000ADFC001D10BD00BF49B6000010B50446DC
:1014B000AFF300802046BDE81040FEF704BF5FEAAE
:1014C000400C08BF91F0000F4FEA8C234FEAC12275
:1014D00043EA51514FEA1C5018BF00F5F0404FEA63
:1014E000300018BF41F000415FEA6C5C00F02980D9
:1014F000BCF1FF3F08BF40F080407047130C06BFAF
:1015000012044FF0100C4FF0000C130E04BF120227
:101510000CF1080C130F04BF12010CF1040C930F13
:1015200004BF92000CF1020CD30F04BF52000CF167
:10153000010C11464FF00002A0F11F00A0EB0C00BF
:10154000704711F0004F08BF704731F000413FF481
:10155000D5AF0B0C06BF09044FF0100C4FF0000C78
:101560000B0E04BF09020CF1080C0B0F04BF09019C
:101570000CF1040C8B0F04BF89000CF1020CCB0F93
:1015800004BF49000CF1010CCCF12003A0EB0C00CE
:1015900022FA03F302FA0CF241EA030100F101001E
:1015A000704720F07F4C80EA030023F07F47ACEBCC
:1015B000070303F57C5300F0004003F1FF032DE91E
:1015C00080494FEA154B09B44FEA144325EA0B4E04
:1015D00024EA03480FF2042606EB132749083E7855
:1015E0005FEA320203FB0667C7F5000707FB06F652
:1015F0004FEA54374FEAD64606F1020607FB066C5F
:10160000CCF1005C4FEA1C472CEA074C07FB06F4C0
:101610000CFB06F504EB15464FEA961634BF002086
:101620004FF000404FEAD13706FB07FC4FEA1C4C55
:101630000CFB0BF7D21B03FB0CF761EB07010CFB58
:101640000EF7B0EB074072EB17420CFB08F734BF04
:10165000A2EB0742B2EB074261EB17414FEA0C44A1
:101660004FEA910706FB07FC4FEA1C4C0CFB0BF7FB
:10167000B0EBC74072EB573203FB0CF734BFA2EB61
:10168000C742B2EBC74261EB57310CFB0EF7B0EB30
:10169000C70072EB57720CFB08F734BFA2EBC7020E
:1016A000B2EBC70261EB5771039F4FEA816141EAD8
:1016B000921104EBCC044FEAD1374FEA826206FB69
:1016C00007FC42EA90124FEA80604FEA1C4C0CFB88
:1016D0000BF7D21B03FB0CF761EB07010CFB0EF7BA
:1016E000B0EB074072EB17420CFB08F734BFA2EBDC
:1016F0000742B2EB074261EB17414FEA8C554FEAC4
:10170000910704EB9C2406FB07FC4FEA1C4C0CFBE6
:101710000BF7B0EBC74072EB573203FB0CF734BF4B
:10172000A2EBC742B2EBC74261EB57310CFB0EF79D
:10173000B0EBC70072EB57720CFB08F734BFA2EB9B
:10174000C702B2EBC70261EB577115EB4C254FEAAC
:10175000816141EA92114FEA82624FEAD13742EA4F
:10176000901206FB07FC44F100044FEA80604FEA48
:101770001C4C0CFB0BF7D21B03FB0CF761EB0701B6
:101780000CFB0EF7B0EB074072EB17420CFB08F7AF
:1017900034BFA2EB0742B2EB074261EB174115EBF6
:1017A0001C154FEA813141EA92414FEA823242EA06
:1017B00090424FEA80304FEA0C7644F1000448EA48
:1017C00003434EEA0B484FF0000EB2EB080C71EBEE
:1017D000030724BF624639464EEB0E0E4FF0000B56
:1017E0000018524149414BEB0B0BB2EB080C71EB6B
:1017F00003077BF1000B24BF624639464EEB0E0E09
:101800004FF0000B0018524149414BEB0B0BB2EB70
:10181000080C71EB03077BF1000B24BF62463946CD
:101820004EEB0E0E51EA020718BF46F0010616EB0A
:101830000E7655F1000254F1000103D5BDE889018F
:10184000BDE80088BDE88901BDE80048B6195241ED
:1018500041EB0101A3F10103704780807F7E7D7C15
:101860007B7A7978777676757473727171706F6E32
:101870006E6D6C6C6B6A6A696868676666656464DD
:10188000636362616160605F5F5E5E5D5D5C5C5B67
:101890005B5A5A59595858575756565555555454D6
:1018A000535352525251515050504F4F4F4E4E4D34
:1018B0004D4D4C4C4C4B4B4B4A4A4A494949484880
:1018C00048474747474646464545454444444443C0
:1018D00043434342424242414141002B9C4630D463
:1018E00077002BD01CB54FEA370703B44FF0100038
:1018F0004FF01001BAF1000F06D0BCF1000FDCBFB1
:1019000040F0080040F008014FF000000FBCBDE8B7
:1019100010400BF1010BBBF1010F08BF5FEA170785
:1019200022BF12F1010211F101014FF0004143F118
:10193000000300F0004043EA00007047F9D3570865
:10194000D0E746EA064613F1400F4FEA16461FDD80
:1019500013F1200FDFBF16430A46002120335B42FC
:10196000BED0C3F1200746EA064602FA07F74FEA5F
:10197000164646EA0706C3F1200722FA03F201FAE7
:1019800007F721FA03F14FF0000342EA0702A7E745
:1019900046EA020646EA06464FEA164646EA0106C7
:1019A000BCBF46EA0646360C4FF000034FF000027B
:1019B0004FF0000194E72DE9804C9A46934670B4AD
:1019C00091E8380007C831EA400C48BF34EA430CBC
:1019D00003D5FFF7E6FDFFF780FFF0BCBDE8008C04
:1019E0002DE9804C9A46934670B491E8380007C8B8
:1019F00010F0804F08BF13F0804F03D100F005F8BE
:101A0000FFF76BFFF0BCBDE8008C20F07F4780EA59
:101A1000030023F07F4C07EB0C03A3F57C5300F08D
:101A20000040A3F1FE0392F0000F00F0B38095F0A8
:101A3000000F00F077802DE901494FEA11404FEA8D
:101A4000144621EA004800FB06FC24EA064708FB8E
:101A500006F607FB08F800FB07F718EB06484CEB07
:101A6000164C4FEA124B18EB07484FEA15464CEB61
:101A7000174022EA0B4E0BFB06FC25EA06470EFB3D
:101A800006F607FB0EFE0BFB07F71EEB064E4CEBB4
:101A9000164C4FF000061EEB074E4CEB174B18EBA5
:101AA0000B0840F1000018EB0E0B58EB000840F15A
:101AB00000008F1A4FF000013CBFC943661B14BFE2
:101AC000B5EB040C00213CBFC943F61B4FEA174499
:101AD0004EEA8E0E27EA04454FEA1C4704FB0762D4
:101AE0002CEA074C05FB07F70CFB05F604FB0CFC86
:101AF00016EB074642EB174216EB0C4642EB1C4234
:101B00001BEB060658EB0202414146EA9E0601D550
:101B1000BDE80189B619524141EB0101A3F101036E
:101B2000BDE801894FEA14454FEA114724EA05460A
:101B300021EA074C05FB07F406FB07F70CFB06F14F
:101B400005FB0CFC11EB074144EB17444FEA12472D
:101B500011EB0C4144EB1C4422EA074C05FB07F255
:101B600006FB07F70CFB06F605FB0CFC16EB07461D
:101B700042EB174216EB0C4642EB1C456A1854F137
:101B8000000148BF7047B619524141EB0101A3F172
:101B90000103704795F0000F37D04FEA11424FEA2A
:101BA000144721EA024624EA074C02FB07F106FB30
:101BB00007F70CFB06F402FB0CFC14EB074441EBAB
:101BC00017414FEA154714EB0C4441EB1C4125EA41
:101BD000074C02FB07F506FB07F70CFB06F602FBBA
:101BE0000CFC16EB074645EB174516EB0C4645EB90
:101BF0001C42121951F1000148BF7047B6195241F9
:101C000041EB0101A3F1010370474FEA14454FEA8C
:101C1000114724EA054621EA074C05FB07F106FBBC
:101C200007F70CFB06F24FF0000605FB0CFC12EB6D
:101C3000074241EB174112EB0C4251EB1C4148BFEC
:101C40007047921841EB0101A3F1010370470000B6
:101C50001CB504460121042006F052FD4FF48040DB
:101C6000009000208DF8040003208DF8050002206C
:101C70008DF807006946104804F024FC0321282051
:101C800000F032F921462C2000F02EF900212D2001
:101C900000F02AF9012C03D10A20084908700AE053
:101CA000022C03D114200549087004E0032C02D152
:101CB0002820024908701CBD0008024020000020B6
:101CC00010B52DED0A8B04460B222146062000F0AC
:101CD000E5F820780003617840EA0110001100B2B5
:101CE0002083B4F9180040F25D71081A00EE100A62
:101CF000F8EEC00A9FED631A80EE810AF3EE090A3E
:101D000030EE200A84ED0E0AA0780006E17840EA61
:101D10000140217940EA01200013E060607900066B
:101D2000A17940EA0140E17940EA012000132061F5
:101D3000207A0006617A40EA0140A17A40EA012057
:101D400000136061504890F900000BF096F941ECE7
:101D50001A0BE0680BF091F941EC1C0B9FED4B0B5B
:101D600053EC102B0AF0D4FF41EC1B0B53EC1A2B55
:101D70000BF0EAF941EC190B464890ED000B53ECDF
:101D8000102B51EC190B0BF0DFF941EC180B42480A
:101D900090ED0C1BB0EE410AF0EE610A53EC102BF3
:101DA00051EC180B0BF0DCFBC4E90801364890F944
:101DB00000000BF062F941EC1A0B20690BF05DF9A1
:101DC00041EC1C0B9FED310B53EC102B0AF0A0FFE4
:101DD00041EC1B0B53EC1A2B0BF0B6F941EC190B31
:101DE0002C4890ED000B53EC102B51EC190B0BF021
:101DF000ABF941EC180B284890ED0E1BB0EE410AF0
:101E0000F0EE610A53EC102B51EC180B0BF0A8FB11
:101E1000C4E90A011C4890F900000BF02EF941ECCE
:101E20001A0B60690BF029F941EC1C0B9FED170BA5
:101E300053EC102B0AF06CFF41EC1B0B53EC1A2BEC
:101E40000BF082F941EC180B124890ED000B53ECAB
:101E5000102B51EC180B0BF077F941EC190B0E48D5
:101E600090ED101BB0EE410AF0EE610A53EC102B1E
:101E700051EC190B0BF074FBC4E90C01BDEC0A8B9F
:101E800010BD0000CDCC104120000020000000005B
:101E9000A0D21E4128D90008A819002070B5064616
:101EA0000C46154600200E49086001200AF0A2F9F0
:101EB000012000EB46010B4806F08EFF07E00021F1
:101EC000084806F089FF2070641C681EC5B2002D0A
:101ED000F5DC0120024908600AF08CF970BD0000B1
:101EE000B40241420030014070B504460D46002066
:101EF0000949086001200AF07DF96100074806F0F1
:101F00006BFF2946054806F067FF01200449C1F828
:101F1000B4020AF06FF970BDB402414200300140D2
:101F2000000041421CB504460121084606F0E8FBCA
:101F30000121042006F0E4FB00214FF4165007F0C5
:101F400049FC1020009001208DF8040003208DF83A
:101F5000050001208DF807006946264804F0B2FA12
:101F60004FF40040009001208DF8040003208DF80C
:101F7000050001208DF8070069461F4804F0A2FA09
:101F800000201E4908604FF4FA700AF026F9012C6F
:101F900003D101201A49086002E0002018490860B6
:101FA0000A200AF01AF90120144908604FF4FA7067
:101FB0000AF013F913A007F099FC4FF47A700AF0B5
:101FC0000CF912A007F092FC4FF47A700AF005F9B0
:101FD00013A007F08BFC4FF47A700AF0FEF8002093
:101FE0001349C1F8AC0201214FF4964007F0F2FB0F
:101FF0001CBD00000000024000080240BC0241423B
:10200000900240420D0A0D0A000000002450434196
:102010005330322C3530302A31410D0A0000000097
:10202000245043415330312C322A31450D0A0000EF
:102030000000404210B52DED108BB0EE408AF0EE5E
:10204000608AB0EE419AF0EE619AB0EE42AAF0EEEC
:1020500062AA4B4890ED000B53EC102B51EC1A0B7D
:102060000BF072F841EC1B0B464890ED000B53EC63
:10207000102B51EC190B0BF067F841EC1D0B42488B
:1020800090ED000B53EC102B51EC180B0BF05CF89F
:1020900041EC1E0B53EC1D2B0AF07EFD41EC1C0B9A
:1020A00053EC1B2B0AF078FD384A03C2384890EDF8
:1020B000000B53EC102B51EC1A0B0BF045F841ECD4
:1020C0001B0B344890ED000B53EC102B51EC190B0B
:1020D0000BF03AF841EC1D0B2F4890ED000B53EC40
:1020E000102B51EC180B0BF02FF841EC1E0B53EC9E
:1020F0001D2B0AF051FD41EC1C0B53EC1B2B0AF07D
:102100004BFD224AC2E90201244890ED000B53EC3A
:10211000102B51EC1A0B0BF017F841EC1C0B20485C
:1021200090ED000B53EC102B51EC190B0BF00CF84D
:1021300041EC1E0B1B4890ED000B53EC102B51ECA7
:10214000180B0BF001F841EC1F0B53EC1E2B0AF09F
:1021500023FD41EC1D0B53EC1C2B0AF01DFD41EC43
:102160001B0B114890ED000B53EC102B51EC1B0B8B
:102170000BF0F6F9054AC2E90401BDEC108B10BD65
:102180008800002080000020780000202019002016
:10219000A00000209800002090000020B80000203F
:1021A000B0000020A800002028D9000810B505F0D4
:1021B00039FD06F099FE10BD10B52DED088BF0EE3F
:1021C000408AB0EE609A38EEC90AB0EE408A18EE46
:1021D000100A0BF0AFFA41EC1A0B274890ED000BF8
:1021E00053EC102B51EC1A0B0BF0ACF817D218EE85
:1021F000100A0BF09FFA41EC1B0B1F4890ED000BEF
:1022000053EC102B51EC1B0B0BF0AAF941EC1A0B01
:102210000AF090FC00EE100ABDEC088B10BD1648C9
:1022200090ED000B51EC100B0AF078FC41EC1A0B0E
:1022300018EE100A0BF07EFA41EC1B0B53EC1A2B34
:102240000AF046FF15D218EE100A0BF073FA41ECB3
:102250001B0B094890ED000B53EC102B51EC1B0BA2
:102260000AF09AFC41EC1A0B0AF064FC00EE100A2A
:10227000D2E7B0EE480ACFE730D9000800B599B0F0
:102280009FEDFE0A8DED180A9FEDFC0A8DED170AF1
:102290009FEDFB0A8DED160AFA4890ED040B8DEDCB
:1022A000080B9FEDF91B9DED080B08F075FC8DEDFB
:1022B0000C0BF44890ED020B8DED040B9FEDF21B1F
:1022C0009DED040B08F068FC8DED080BED4890EDDA
:1022D000000B8DED040B9FEDEC1B9DED040B08F046
:1022E0005BFC8DED060B9DED080B53EC102B9DED6B
:1022F000060B51EC100B0AF04FFCCDE90A019DEDE5
:102300000C0B53EC102B9DED0A0B51EC100B0AF04B
:1023100043FCCDE90E019DED0E0B09F0C9FA8DEDE0
:10232000100B9FEDDB0B53EC102B9DED100B51ECC4
:10233000100B0BF007F87DD29FEDD70B53EC102B51
:102340009DED100B51EC100B0AF0C2FEF3D2CD48FC
:1023500090ED020B8DED0E0BD14890ED000B53EC80
:10236000102B9DED0E0B51EC100B0AF0EBFF03D27E
:10237000CB4890ED000B02E0C24890ED020BC14843
:1023800080ED020BC64890ED000B51EC100B0AF0EB
:10239000C5FBCDE90E01BB4890ED020B8DED0C0B9A
:1023A0009DED0C0B53EC102B9DED0E0B51EC100B17
:1023B0000AF0C8FF07D2BA4890ED000B51EC100BA1
:1023C0000AF0ACFB02E0AF48C1688068AD4AC2E9E0
:1023D0000201104690ED0C0B8DED0A0B9FEDB10B39
:1023E00053EC102B9DED0A0B51EC100B0AF0ACFED8
:1023F000CDE90E01A34890ED020B8DED060B9DED8E
:10240000100B53EC102B9DED060B51EC100B0AF04A
:102410007FFCCDE908019DED080B07F045FF8DED30
:102420000A0B9FEDA20B53EC102B9DED0A0B51EC08
:10243000100B00E054E00AF087FECDE90C019DEDA1
:102440000E0B53EC102B9DED0C0B51EC100B0AF006
:10245000A3FB8C4AC2E90C01104690ED100B8DEDE8
:102460000A0B9FED900B53EC102B9DED0A0B51ECDA
:10247000100B0AF069FECDE90E01824890ED000BC9
:102480008DED060B9DED060B51EC100B0AF046FB93
:10249000CDE908017B4890ED040B8DED060B9DED19
:1024A000061B9DED080B08F01BFA8DED0A0B9FED46
:1024B0007F0B53EC102B9DED0A0B51EC100B0AF027
:1024C00043FECDE90C019DED0E0B53EC102B9DED61
:1024D0000C0B51EC100B0AF05FFB6A4AC2E91001C9
:1024E000684890ED100B8DED080B9DED080B09F081
:1024F0007BF98DED0A0B6F4890ED080B8DED080B05
:102500009DED080B53EC102B9DED0A0B51EC100BBD
:102510000AF01AFECDE90E015A4890ED100B8DED30
:10252000080B9DED080B08F0D3FA8DED0A0B6148FE
:1025300090ED060B8DED080B9DED080B53EC102B69
:102540009DED0A0B51EC100B0AF0FEFDCDE90C01DC
:102550009DED0E0B53EC102B9DED0C0B51EC100B65
:102560000AF0FEFFCDE91401464890ED100B8DED09
:10257000060B9DED060B08F0ABFA8DED0A0B4148FA
:1025800090ED0C0B8DED040B9DED040B09F02CF977
:102590008DED060B474890ED080B8DED040B9DED7E
:1025A000040B53EC102B9DED060B51EC100B0AF0B5
:1025B000CBFDCDE908019DED0A0B53EC102B9DEDF1
:1025C000080B51EC100B0AF0BFFDCDE90E012D48B0
:1025D00090ED0C0B8DED040B9DED040B08F078FADB
:1025E0008DED060B334890ED040B8DED040B9DED46
:1025F000040B53EC102B9DED060B51EC100B0AF065
:10260000A3FDCDE90A011F4890ED0C0B8DED020BE7
:102610009DED020B09F0E8F88DED060B194890EDE1
:10262000100B8DED000B9DED000B09F0DDF88DED2D
:10263000020B204890ED060B8DED000B9DED000B7D
:1026400053EC102B9DED020B51EC100B0AF07CFDAE
:10265000CDE904019DED060B53EC102B9DED040B11
:1026600051EC100B0AF070FDCDE908019DED0A0B4D
:1026700053EC102B9DED080B1EE00000CDCC4C3D23
:10268000CDCCCC3D2019002000000000000000400F
:102690003333333333332340000000000000244041
:1026A00028D90008000000606666EE3F000000A028
:1026B0009999A93F2006002051EC100B0AF06CFA02
:1026C000CDE90C019DED0E0B53EC102B9DED0C0B89
:1026D00051EC100B0AF060FACDE91201FE4890EDC2
:1026E0000E0B8DED060B9DED060B09F07DF88DEDC3
:1026F0000A0BF94890ED0C0B8DED020B9DED020BD2
:1027000009F072F88DED060BF34890ED100B8DED8E
:10271000020B9DED020B09F067F88DED040B9DEDAA
:10272000060B53EC102B9DED040B51EC100B0AF033
:102730000BFDCDE908019DED0A0B53EC102B9DED2F
:10274000080B51EC100B0AF0FFFCCDE90E01E2483A
:1027500090ED0E0B8DED060B9DED060B08F0B8F914
:102760008DED0A0BDC4890ED100B8DED060B9DED09
:10277000060B08F0ADF98DED080B9DED0A0B53EC3F
:10278000102B9DED080B51EC100B0AF0DDFCCDE990
:102790000C019DED0E0B53EC102B9DED0C0B51EC31
:1027A000100B0AF0DDFECD4A03C2CB4890ED0E0BB4
:1027B0008DED060B9DED060B08F08AF98DED0A0BE9
:1027C000C54890ED0C0B8DED020B9DED020B09F051
:1027D0000BF88DED060BC04890ED100B8DED020B44
:1027E0009DED020B09F000F88DED040B9DED060B3D
:1027F00053EC102B9DED040B51EC100B0AF0A4FCD4
:10280000CDE908019DED0A0B53EC102B9DED080B53
:1028100051EC100B0AF098FCCDE90E01AE4890ED9A
:102820000E0B8DED060B9DED060B08F0DDFF8DED1B
:102830000A0BA94890ED100B8DED060B9DED060BD4
:1028400008F046F98DED080B9DED0A0B53EC102BAB
:102850009DED080B51EC100B0AF076FCCDE90C0154
:102860009DED0E0B53EC102B9DED0C0B51EC100B52
:102870000AF092F99A4A03C2974890ED0C0B8DED3D
:102880000A0B9DED0A0B08F023F98DED0E0B924813
:1028900090ED100B8DED080B9DED080B08F0A4FFDB
:1028A0008DED0A0B9DED0A0B51EC100B0AF036F979
:1028B000CDE90C019DED0E0B53EC102B9DED0C0B97
:1028C00051EC100B0AF040FC864A03C2824890ED9E
:1028D0000E0B8DED0A0B9DED0A0B08F085FF8DEDBB
:1028E0000E0B7D4890ED0C0B8DED080B9DED080B4C
:1028F00008F0EEF88DED0A0B9DED0A0B51EC100B74
:102900000AF00CF9CDE90C019DED0E0B53EC102BE8
:102910009DED0C0B51EC100B0AF016FC724A03C231
:102920006D4890ED0E0B8DED0A0B9DED0A0B08F036
:10293000CFF88DED0E0B684890ED0C0B8DED0A0B6A
:102940009DED0A0B08F0C4F88DED0C0B9DED0E0B00
:1029500053EC102B9DED0C0B51EC100B0AF0F4FB1B
:10296000624A03C25C4890ED0C0B8DED0E0B9DEDA1
:102970000E0B08F039FF5E4880ED000B564890EDD5
:102980000E0B8DED060B9DED060B08F02DFF8DED6A
:102990000A0B514890ED0C0B8DED020B9DED020BD7
:1029A00008F022FF8DED060B4B4890ED100B8DEDDE
:1029B000020B9DED020B08F08BF88DED040B9DEDE5
:1029C000060B53EC102B9DED040B51EC100B0AF091
:1029D000BBFBCDE908019DED0A0B53EC102B9DEDDF
:1029E000080B51EC100B0AF0AFFBCDE90E013A4891
:1029F00090ED0E0B8DED060B9DED060B08F068F8C3
:102A00008DED0A0B344890ED100B8DED060B9DED0E
:102A1000060B08F0E9FE8DED080B9DED0A0B53EC5B
:102A2000102B9DED080B51EC100B0AF08DFBCDE93E
:102A30000C019DED0E0B53EC102B9DED0C0B51EC8E
:102A4000100B0AF0A9F82B4A03C2234890ED0E0B95
:102A50008DED060B9DED060B08F03AF88DED0A0B97
:102A60001D4890ED0C0B8DED020B9DED020B08F057
:102A7000BBFE8DED060B184890ED100B8DED020B93
:102A80009DED020B08F024F88DED040B9DED060B77
:102A900053EC102B9DED040B51EC100B0AF054FB82
:102AA000CDE908019DED0A0B53EC102B9DED080BB1
:102AB00051EC100B0AF048FBCDE90E01064890EDF1
:102AC0000E0B8DED060B9DED060B08F08DFE8DEDCA
:102AD0000A0B014810E000002019002078000020B7
:102AE00090000020A8000020800000209800002016
:102AF000B00000208800002090ED100B8DED060B3B
:102B00009DED060B08F070FE8DED080B9DED0A0B98
:102B100053EC102B9DED080B51EC100B0AF014FB3D
:102B2000CDE90C019DED0E0B53EC102B9DED0C0B24
:102B300051EC100B0AF014FDC14A03C2C14890EDDC
:102B40000C0B8DED0A0B9DED0A0B07F0C1FF8DED0F
:102B50000E0BBC4890ED100B8DED0A0B9DED0A0B92
:102B600007F0B6FF8DED0C0B9DED0E0B53EC102B0B
:102B70009DED0C0B51EC100B0AF0E6FAB24A03C2C1
:102B8000B24890ED000B53EC102B9FEDB10B51ECC4
:102B9000100B0AF001F8CDE90801AF4890ED000BE9
:102BA00053EC102B9DED080B51EC100B09F0F4FFCA
:102BB000CDE90A01A44890ED000B53EC102B9DEDDC
:102BC0000A0B51EC100B09F0E7FFCDE90C019DED6C
:102BD0000C0B08F06DFE8DED0E0B9FEDA00B53EC72
:102BE000102B9DED0E0B51EC100B0AF0ADFA9D4A27
:102BF00003C2964890ED000B53EC102B9FED940B05
:102C000051EC100B09F0C8FFCDE90801924890ED96
:102C1000000B53EC102B9DED080B51EC100B0AF040
:102C20009FFCCDE90A01884890ED000B53EC102B76
:102C30009DED0A0B51EC100B0AF092FCCDE90C0152
:102C40009DED0C0B08F034FE8DED0E0B9FED830B0C
:102C500053EC102B9DED0E0B51EC100B0AF074FA97
:102C6000804AC2E90201794890ED000B53EC102B29
:102C70009FED770B51EC100B0AF072FCCDE90801C7
:102C8000754890ED000B53EC102B9DED080B51ECAB
:102C9000100B09F081FFCDE90A016B4890ED000BA4
:102CA00053EC102B9DED0A0B51EC100B0AF058FC65
:102CB000CDE90C019DED0C0B08F0FAFD8DED0E0B2E
:102CC0009FED660B53EC102B9DED0E0B51EC100B92
:102CD0000AF03AFA634AC2E904015C4890ED000B3D
:102CE00053EC102B9FED5A0B51EC100B0AF038FCF3
:102CF000CDE90801584890ED000B53EC102B9DEDE9
:102D0000080B51EC100B0AF02BFCCDE90A014E48E0
:102D100090ED000B53EC102B9DED0A0B51EC100BBA
:102D200009F03AFFCDE90C019DED0C0B08F0C0FD58
:102D30008DED0E0B9FED490B53EC102B9DED0E0B03
:102D400051EC100B0AF000FA464AC2E906013C4871
:102D500090ED000B53EC102B434890ED000B51EC21
:102D6000100B0AF0FDFB9FED410B53EC102BCDE94E
:102D70000E019DED0E0B51EC100B0AF0A9F90DD2CE
:102D8000384890ED020B8DED0E0B9DED0E0B51ECC6
:102D9000100B09F0C3FE334AC2E90201354890ED39
:102DA000000B53EC102B344890ED000B51EC100B42
:102DB0000AF0D6FB9FED2D0B53EC102BCDE90E0145
:102DC0009DED0E0B51EC100B0AF082F90DD2254847
:102DD00090ED040B8DED0E0B9DED0E0B51EC100BD9
:102DE00009F09CFE1F4AC2E90401244890ED000B43
:102DF00053EC102B224890ED000B51EC100B0AF015
:102E0000AFFB9FED1A0B53EC102BCDE90E019DED9E
:102E10000E0B51EC100B0AF05BF90DD2114890ED3E
:102E2000060B8DED0E0B9DED0E0B51EC100B09F00A
:102E300075FE0C4AC2E906019DED100B19B000BDEC
:102E4000A000002020190020B800002078000020F9
:102E5000000000000000F03F98000020000000008B
:102E60000000E03FF8190020B00000200000000042
:102E700000000000A8000020880000208000002042
:102E80009000002010B52DED060BA2B09FEDFE0BBB
:102E900053EC102B9DED220B51EC100B0AF054F962
:102EA0009FEDFB0B53EC102BCDE910019DED100BAA
:102EB00051EC100B09F02CFFCDE91C019FEDF20B3A
:102EC00053EC102B9DED240B51EC100B0AF03CF948
:102ED0009FEDEF0B53EC102BCDE910019DED100B86
:102EE00051EC100B09F014FFCDE91E019FEDE60B2C
:102EF00053EC102B9DED260B51EC100B0AF024F92E
:102F00009FEDE30B53EC102BCDE910019DED100B61
:102F100051EC100B09F0FCFECDE92001DE4890EDEC
:102F2000060B8DED0A0B9DED200B8DED080B9DED35
:102F30000A0B53EC102B9DED080B51EC100B0AF013
:102F400003F9CDE90E01D44890ED040B8DED060B8D
:102F50009DED1E0B8DED040B9DED060B53EC102B20
:102F60009DED040B51EC100B0AF0EEF8CDE90A01CF
:102F70009DED1C0B8DED040B9DED040B51EC100B26
:102F800009F0CCFDCDE90601C34890ED020B8DEDB3
:102F9000040B9DED040B53EC102B9DED060B51EC37
:102FA000100B0AF0D1F8CDE908019DED0A0B53ECA6
:102FB000102B9DED080B51EC100B0AF0D1FACDE966
:102FC0000C019DED0E0B53EC102B9DED0C0B51ECF9
:102FD000100B0AF0C5FA9FEDB10B53EC102BCDE9A5
:102FE00010019DED100B51EC100B0AF0ADF8CDE97E
:102FF0001401A94890ED060B8DED0A0B9DED1E0BFB
:103000008DED080B9DED0A0B53EC102B9DED080B7D
:1030100051EC100B0AF098F8CDE90E019E4890EDA6
:10302000040B8DED060B9DED200B8DED040B9DED3E
:10303000060B53EC102B9DED040B51EC100B0AF01A
:1030400083F8CDE90A01944890ED000B8DED060B55
:103050009DED1C0B8DED040B9DED060B53EC102B21
:103060009DED040B51EC100B0AF06EF8CDE9080150
:103070009DED0A0B53EC102B9DED080B51EC100B42
:1030800009F08AFDCDE90C019DED0E0B53EC102BE0
:103090009DED0C0B51EC100B0AF062FA9FED7F0BCB
:1030A00053EC102BCDE910019DED100B51EC100BE2
:1030B0000AF04AF8CDE91601774890ED060B8DED40
:1030C0000A0B9DED1C0B8DED080B9DED0A0B53ECCF
:1030D000102B9DED080B51EC100B0AF035F8CDE9E3
:1030E0000E016D4890ED020B8DED060B9DED200B52
:1030F0008DED040B9DED060B53EC102B9DED040B99
:1031000051EC100B0AF020F8CDE90A01624890ED6D
:10311000000B8DED060B9DED1E0B8DED040B9DED53
:10312000060B53EC102B9DED040B51EC100B0AF029
:103130000BF8CDE908019DED0A0B53EC102B9DED2A
:10314000080B51EC100B0AF00BFACDE90C019DEDC8
:103150000E0B53EC102B9DED0C0B51EC100B09F0EA
:103160001BFD9FED4E0B53EC102BCDE910019DED97
:10317000100B51EC100B09F0E7FFCDE918014648A0
:1031800090ED040B8DED0A0B9DED1C0B8DED080BE6
:103190009DED0A0B53EC102B9DED080B51EC100B21
:1031A00009F0D2FFCDE90E013B4890ED020B8DED09
:1031B000060B9DED1E0B8DED040B9DED060B53ECE8
:1031C000102B9DED040B51EC100B09F0BDFFCDE968
:1031D0000A01314890ED000B8DED060B9DED200BA3
:1031E0008DED040B9DED060B53EC102B9DED040BA8
:1031F00051EC100B09F0A8FFCDE908019DED0A0B79
:1032000053EC102B9DED080B51EC100B09F0C4FC96
:10321000CDE90C019DED0E0B53EC102B9DED0C0B2D
:1032200051EC100B0AF09CF99FED1C0B53EC102B8A
:10323000CDE910019DED100B51EC100B09F084FF4E
:10324000CDE91A01174800680AF074FACDE90E01B9
:103250009DED140B8DED0C0B9DED0C0B53EC102B19
:103260009DED0E0B51EC100B09F06EFFCDE9100136
:10327000094890ED000B8DED0E0B9DED0E0B53EC00
:10328000102B9DED100B0FE050455254FB210940CF
:103290000000000000806640F819002000000000D7
:1032A0000000E03F6400002051EC100B09F074FCBA
:1032B000FE4A03C2FE4800680AF03CFACDE90E015E
:1032C0009DED160B8DED0C0B9DED0C0B53EC102BA7
:1032D0009DED0E0B51EC100B09F036FFCDE91001FE
:1032E000F24890ED020B8DED0E0B9DED0E0B53ECA5
:1032F000102B9DED100B51EC100B09F04DFCEB4A1F
:10330000C2E90201EA4800680AF014FACDE90E01A8
:103310009DED180B8DED0C0B9DED0C0B53EC102B54
:103320009DED0E0B51EC100B09F00EFFCDE91001D5
:10333000DE4890ED040B8DED0E0B9DED0E0B53EC66
:10334000102B9DED100B51EC100B09F025FCD74A0A
:10335000C2E90401D64800680AF0ECF9CDE90E0193
:103360009DED1A0B8DED0C0B9DED0C0B53EC102B02
:103370009DED0E0B51EC100B09F0E6FECDE91001AE
:10338000CA4890ED060B8DED0E0B9DED0E0B53EC28
:10339000102B9DED100B51EC100B09F0FDFBC34AF7
:1033A000C2E90601104690ED060B8DED0C0B90ED79
:1033B000060B8DED0A0B9DED0C0B53EC102B9DEDC8
:1033C0000A0B51EC100B09F0BFFECDE91001B74814
:1033D00090ED040B8DED080B90ED040B8DED060BBD
:1033E0009DED080B53EC102B9DED060B51EC100BD3
:1033F00009F0AAFECDE90C01AC4890ED020B8DED71
:10340000040B90ED020B8DED020B9DED040B53ECC4
:10341000102B9DED020B51EC100B09F095FECDE940
:103420000801A24890ED000B8DED040B90ED000B10
:103430008DED020B9DED040B53EC102B9DED020B5B
:1034400051EC100B09F080FECDE906019DED080B53
:1034500053EC102B9DED060B51EC100B09F09CFB6F
:10346000CDE90A019DED0C0B53EC102B9DED0A0BE1
:1034700051EC100B09F090FBCDE90E019DED100B06
:1034800053EC102B9DED0E0B51EC100B09F084FB4F
:10349000CDE912019DED120B08F00AFA8DED120B29
:1034A000824890ED000B8DED100B9DED120B53EC4F
:1034B000102B9DED100B51EC100B09F029FC7B4AF1
:1034C00003C27A4890ED020B8DED100B9DED120BAF
:1034D00053EC102B9DED100B51EC100B09F018FC68
:1034E000724AC2E90201104690ED040B8DED100BFB
:1034F0009DED120B53EC102B9DED100B51EC100BAE
:1035000009F006FC694AC2E90401104690ED060B79
:103510008DED100B9DED120B53EC102B9DED100B50
:1035200051EC100B09F0F4FB604AC2E906011046A9
:1035300090ED060B8DED080B90ED040B8DED060B59
:103540009DED080B53EC102B9DED060B51EC100B71
:1035500009F0FAFDCDE90C01544890ED020B8DED18
:10356000080B90ED000B8DED060B9DED080B53EC59
:10357000102B9DED060B51EC100B09F0E5FDCDE98C
:103580000A019DED0C0B53EC102B9DED0A0B51EC39
:10359000100B09F001FB9FED470B53EC102BCDE90D
:1035A0000E019DED0E0B51EC100B09F0CDFDCDE998
:1035B00010019DED100B06F077FE404880ED0C0BDE
:1035C0003A4890ED060B8DED080B9FED3A1B9DEDF3
:1035D000080B07F0E1FA8DED0C0B344890ED040B6D
:1035E0008DED040B9FED331B9DED040B07F0D4FA1A
:1035F0008DED080B2D4890ED020B8DED000B9FED2E
:103600002D1B9DED000B07F0C7FA8DED040B27482D
:1036100090ED000B8DED000B9FED261B9DED000B3B
:1036200007F0BAFA8DED020B9DED040B53EC102B55
:103630009DED020B51EC100B09F092FFCDE9060154
:103640009DED080B53EC102B9DED060B51EC100B70
:1036500009F0A2FACDE90A019DED0C0B53EC102BF9
:103660009DED0A0B51EC100B09F07AFFCDE910012A
:103670000E4890ED060B8DED060B90ED000B8DEDD9
:10368000040B9DED060B53EC102B9DED040B51EC40
:10369000100B09F059FDCDE90A01044890ED040B27
:1036A0008DED060B90ED020B0AE00000F8190020EA
:1036B00064000020000000000000004020190020ED
:1036C0008DED040B9DED060B53EC102B9DED040BC3
:1036D00051EC100B09F038FDCDE908019DED0A0B06
:1036E00053EC102B9DED080B51EC100B09F038FF3B
:1036F0009FEDFE0B53EC102BCDE90C019DED0C0B57
:1037000051EC100B09F020FDCDE90E019DED101BD1
:103710009DED0E0B07F0E4F8F64880ED0E0BF64831
:1037200090ED060B8DED080B1FED1E1B9DED080B9C
:1037300007F032FA8DED0C0BEF4890ED040B8DED98
:10374000040B1FED241B9DED040B07F025FA8DEDF6
:10375000080BE94890ED020B8DED000B1FED2B1BC4
:103760009DED000B07F018FA8DED040BE24890ED8B
:10377000000B8DED000B1FED311B9DED000B07F0D5
:103780000BFA8DED020B9DED040B53EC102B9DED10
:10379000020B51EC100B09F0E3FECDE906019DEDA3
:1037A000080B53EC102B9DED060B51EC100B09F0A0
:1037B000D7FECDE90A019DED0C0B53EC102B9DEDCE
:1037C0000A0B51EC100B09F0E7F9CDE91001CA48DA
:1037D00090ED040B8DED060B90ED000B8DED040BC1
:1037E0009DED060B53EC102B9DED040B51EC100BD3
:1037F00009F0AAFCCDE90A01BF4890ED060B8DED5A
:10380000060B90ED020B8DED040B9DED060B53ECBA
:10381000102B9DED040B51EC100B09F095FCCDE93C
:1038200008019DED0A0B53EC102B9DED080B51EC9C
:10383000100B09F095FE9FEDAD0B53EC102BCDE96D
:103840000C019DED0C0B51EC100B09F07DFCCDE94A
:103850000E019DED101B9DED0E0B07F041F8A548E4
:1038600080ED100B90ED0E0B8DED080B9DED080B10
:1038700007F0BAFF8DED0C0B9E4890ED0C0B8DED13
:10388000040B9DED040B07F0AFFF8DED080B99487D
:1038900090ED100B8DED040B9DED040B07F0A4FFD4
:1038A0008DED060B9DED080B53EC102B9DED060BDB
:1038B00051EC100B09F048FCCDE90A019DED0C0B11
:1038C00053EC102B9DED0A0B51EC100B09F03CFC56
:1038D000CDE91001874890ED0E0B8DED080B9DEDA5
:1038E000080B07F0F5F88DED0C0B824890ED100BEE
:1038F0008DED080B9DED080B07F0EAF88DED0A0B36
:103900009DED0C0B53EC102B9DED0A0B51EC100BA5
:1039100009F01AFCCDE90E019DED100B53EC102BB4
:103920009DED0E0B51EC100B09F01AFE734A03C209
:10393000704890ED0E0B8DED080B9DED080B07F018
:10394000C7F88DED0C0B6B4890ED0C0B8DED040B57
:103950009DED040B07F048FF8DED080B654890EDD9
:10396000100B8DED040B9DED040B07F03DFF8DED6D
:10397000060B9DED080B53EC102B9DED060B51EC47
:10398000100B09F0E1FBCDE90A019DED0C0B53ECA6
:10399000102B9DED0A0B51EC100B09F0D5FBCDE976
:1039A0001001544890ED0E0B8DED080B9DED080BAA
:1039B00007F01AFF8DED0C0B4E4890ED100B8DEDBE
:1039C000080B9DED080B07F083F88DED0A0B9DEDBC
:1039D0000C0B53EC102B9DED0A0B51EC100B09F066
:1039E000B3FBCDE90E019DED100B53EC102B9DEDBB
:1039F0000E0B51EC100B09F0CFF8414A03C23D48C1
:103A000090ED0C0B8DED0C0B9DED0C0B07F060F8A1
:103A10008DED100B374890ED100B8DED0A0B9DEDE1
:103A20000A0B07F0E1FE8DED0C0B9DED0C0B51EC3C
:103A3000100B09F073F8CDE90E019DED100B53EC5E
:103A4000102B9DED0E0B51EC100B09F07DFB2D4A58
:103A500003C2284890ED0E0B8DED0C0B9DED0C0B69
:103A600007F0C2FE8DED100B224890ED0C0B8DED92
:103A70000A0B9DED0A0B07F02BF88DED0C0B9DED5D
:103A80000C0B51EC100B09F049F8CDE90E019DED3E
:103A9000100B53EC102B9DED0E0B51EC100B09F09D
:103AA00053FB194A03C2134890ED0E0B8DED0C0B1E
:103AB0009DED0C0B07F00CF88DED100B0D4890ED03
:103AC0000C0B8DED0C0B9DED0C0B07F001F88DED43
:103AD0000E0B9DED100B53EC102B9DED0E0B51ECCE
:103AE000100B09F031FB094A03C211E0000000008D
:103AF000000000C020190020F819002078000020E4
:103B000090000020A80000208000002098000020E5
:103B10007E4890ED0C0B8DED100B9DED100B07F01A
:103B200063FE7B4880ED000B784890ED0E0B8DED29
:103B3000080B9DED080B07F057FE8DED0C0B73483D
:103B400090ED0C0B8DED040B9DED040B07F04CFE7E
:103B50008DED080B6D4890ED100B8DED040B9DED78
:103B6000040B06F0B5FF8DED060B9DED080B53EC35
:103B7000102B9DED060B51EC100B09F0E5FACDE989
:103B80000A019DED0C0B53EC102B9DED0A0B51EC33
:103B9000100B09F0D9FACDE910015C4890ED0E0B3D
:103BA0008DED080B9DED080B06F092FF8DED0C0BD3
:103BB000564890ED100B8DED080B9DED080B07F0AE
:103BC00013FE8DED0A0B9DED0C0B53EC102B9DEDB0
:103BD0000A0B51EC100B09F0B7FACDE90E019DED7F
:103BE000100B53EC102B9DED0E0B51EC100B08F04D
:103BF000D3FF484A03C2454890ED0E0B8DED080BEC
:103C00009DED080B06F064FF8DED0C0B3F4890ED29
:103C10000C0B8DED040B9DED040B07F0E5FD8DED18
:103C2000080B3A4890ED100B8DED040B9DED040B45
:103C300006F04EFF8DED060B9DED080B53EC102B9F
:103C40009DED060B51EC100B09F07EFACDE90A014F
:103C50009DED0C0B53EC102B9DED0A0B51EC100B52
:103C600009F072FACDE91001284890ED0E0B8DEDA8
:103C7000080B9DED080B07F0B7FD8DED0C0B2348ED
:103C800090ED100B8DED080B9DED080B07F0ACFDD2
:103C90008DED0A0B9DED0C0B53EC102B9DED0A0BDB
:103CA00051EC100B09F050FACDE90E019DED100B0F
:103CB00053EC102B9DED0E0B51EC100B09F050FC4A
:103CC000154A03C2114890ED0C0B8DED0C0B9DEDC8
:103CD0000C0B06F0FDFE8DED100B0C4890ED100B5B
:103CE0008DED0C0B9DED0C0B06F0F2FE8DED0E0B29
:103CF0009DED100B53EC102B9DED0E0B51EC100BAA
:103D000009F022FA054A03C228B010BD201900208C
:103D1000B000002088000020A0000020B800002093
:103D200010B503F07FFF05F0DFF810BD7CB5054648
:103D30000C460121042004F0E3FC0021084600F0B9
:103D400033FAB6227E21002000F060FAB622142158
:103D5000002000F05BFA012008F03FFA002108463D
:103D600000F022FA00227C21104600F04FFA0120D8
:103D700008F033FAA9224021002000F047FA2A4631
:103D80004121002000F042FA04227D21002000F0B1
:103D90003DFA22460F21012000F038FA06221021B8
:103DA000012000F033FA2820009000208DF8040054
:103DB00003208DF8050002208DF8070069461D4894
:103DC00002F080FB1DB906201B49088010E0012D80
:103DD00003D10C20184908800AE0022D03D11820D5
:103DE0001549088004E0032D02D1302012490880D3
:103DF000042C03D1FA201149088019E0032C04D1C6
:103E00004FF4FA700D49088012E0022C04D14FF4EF
:103E10007A700A4908800BE0012C04D14FF4FA6053
:103E20000649088004E01CB94FF47A600349088011
:103E30007CBD000000080240220000202400002079
:103E400010B52DED0A8B04460623224612210020D0
:103E500000F070F92078617840EA012000B2E0803B
:103E6000A078E17840EA012000B2208120796179D0
:103E700040EA012000B26081022322462221002074
:103E800000F058F96078217840EA01204011A4F848
:103E90004800B4F9480000EE100AF8EEC00AB4EE8B
:103EA000001AB3EE070A00EE810A10EE101A084657
:103EB00009F040FCC4E91401062322460221012036
:103EC00000F038F92078617840EA012000B22085BE
:103ED000A078E17840EA012000B26085207961791C
:103EE00040EA012000B2A0858B48B0F9000009F03B
:103EF000C4F841EC1A0BB4F9060009F0BEF841EC25
:103F00001C0B9FED860B53EC102B08F001FF41ECCE
:103F10001B0B53EC1A2B09F017F941EC190B9FED11
:103F2000810B53EC102B09F00FF941EC180B7F4873
:103F300090ED001BB0EE410AF0EE610A53EC102B3D
:103F400051EC180B09F00CFBC4E904017248B0F9FC
:103F5000000009F092F841EC1A0BB4F9080009F0DE
:103F60008CF841EC1C0B9FED6D0B53EC102B08F003
:103F7000CFFE41EC1B0B53EC1A2B09F0E5F841EC9A
:103F8000190B9FED680B53EC102B09F0DDF841EC99
:103F9000180B664890ED021BB0EE410AF0EE610A84
:103FA00053EC102B51EC180B09F0DAFAC4E90601B6
:103FB0005948B0F9000009F060F841EC1A0BB4F967
:103FC0000A0009F05AF841EC1C0B9FED540B53EC1E
:103FD000102B08F09DFE41EC1B0B53EC1A2B09F043
:103FE000B3F841EC190B9FED4F0B53EC102B09F07C
:103FF000ABF841EC180B4D4890ED041BB0EE410AB4
:10400000F0EE610A53EC102B51EC180B09F0A8FAF2
:10401000C4E908014648B0F9000009F02EF841EC67
:10402000190BB4F9280009F028F841EC1B0B9FED9F
:104030003B0B53EC102B08F06BFE41EC1A0B53ECCE
:10404000192B09F081F841EC180B384890ED061B4C
:10405000B0EE410AF0EE610A53EC102B51EC180B54
:1040600009F07EFAC4E90C013148B0F9000009F00A
:1040700004F841EC190BB4F92A0008F0FEFF41ECFA
:104080001B0B9FED260B53EC102B08F041FE41EC6F
:104090001A0B53EC192B09F057F841EC180B234875
:1040A00090ED081BB0EE410AF0EE610A53EC102BC4
:1040B00051EC180B09F054FAC4E90E011C48B0F990
:1040C000000008F0DAFF41EC190BB4F92C0008F0FD
:1040D000D4FF41EC1B0B9FED110B53EC102B08F0A0
:1040E00017FE41EC1A0B53EC192B09F02DF841EC9B
:1040F000180B0E4890ED0A1BB0EE410AF0EE610A73
:1041000053EC102B51EC180B09F02AFAC4E91001FA
:10411000BDEC0A8B10BD0000220000200000000052
:10412000E0FFEF4005A3923A019D2340A81900202B
:10413000240000202DE9F04104460F4615461E4696
:104140001CB900201649086003E00020144908311A
:104150000860012008F04EF847F08001114804F093
:104160003BFE1CB900210F4804F036FE07E0002199
:104170000C4804F031FE28706D1C701EC6B2002E73
:10418000F5DC1CB901200649086003E00120044960
:1041900008310860012008F02DF8BDE8F08100002A
:1041A000880241420030014070B504460D461CB9FA
:1041B00000201349086003E000201149083108601D
:1041C00045F080010F4804F007FE1CB900210D489E
:1041D00004F002FE00210B4804F0FEFD0A490870BD
:1041E0001CB901200649086003E001200449083198
:1041F0000860012007F0FEFF0348007870BD000052
:1042000088024142003001402600002070B504467B
:104210000D4616461CB900200F49086003E0002037
:104220000D4908310860012007F0E4FF05F07F0127
:104230000A4804F0D1FD3146084804F0CDFD1CB910
:1042400001200549086003E00120034908310860A6
:104250000A2007F0CFFF70BD8802414200300140C4
:104260002DE9F04F2DED048B87B006460C46B6F8CD
:104270000EA0A07B80030FFA80F999FBFAF0A0F55D
:1042800080401FFA80FB0FFA8BF515FB05F73846C7
:10429000F91707EB5161C91194F90D2051430691AB
:1042A000207BC0010590059815FB00F00490049A4E
:1042B00006998818C11700EBD151491201F58011F8
:1042C000039194F90200A0300290DDE9022101FB84
:1042D00002F0C11700EB115109130191B6F9080062
:1042E000019900FB01F840464FEAE87108EBD14123
:1042F00049130DB294F9001005EBC100C11700EB92
:1043000011710D11284608F0B8FE41EC190B9FED14
:104310000A0B53EC102B08F0FBFC41EC180B9FED43
:10432000080B53EC102B08F00FFF41EC100B07B0FB
:10433000BDEC048BBDE8F08F000000000000B04031
:1043400000000000005094402DE9F04F2DED048B4B
:1043500085B006460C46B6F80E90E089800390FBC7
:10436000F9F004900498A0F580401FFA80FA0FFA43
:104370008AF515FB05F73846F91707EB5161C911A6
:1043800094F90D2051430391207B4FEAC01B039900
:1043900015FB0B10C11700EBD1514912029194F992
:1043A0000300A0300190029901F58011019A01FBF0
:1043B00002F0C11700EB115109130091B6F90A0080
:1043C000009900FB01F840464FEAE87108EBD14143
:1043D00049130DB294F9011005EBC100C11700EBB0
:1043E00011710D11284608F048FE41EC190B9FEDA4
:1043F0000A0B53EC102B08F08BFC41EC180B9FEDD3
:10440000080B53EC102B08F09FFE41EC100B05B08D
:10441000BDEC048BBDE8F08F000000000000B04050
:1044200000000000005094402DE9F05F2DED048B5A
:1044300005460C46E889E189401A0FFA80F921897E
:1044400011FB09F0C11700EB91718E10B5F90C004A
:10445000B4F90A10401AC703A088E98909B24900D3
:1044600000FB01F808F50040C11700EB11414FEACD
:10447000214AB81BB4F90610514490FBF1FB584691
:1044800008F0FBFD41EC190B9FED090B53EC102BD1
:1044900008F03EFC41EC180B9FED070B53EC102B82
:1044A00008F052FE41EC100BBDEC048BBDE8F09F10
:1044B00000000000C0FFDF40000000000088B340A3
:1044C00010B5012007F096FE82214B2000F04EF936
:1044D0000A2007F082FE01214B2000F047F90A2054
:1044E00007F07BFE00214E2000F040F9074800F065
:1044F000DBF81721512000F039F95221084600F06D
:1045000035F928214C2000F031F910BD4806002073
:1045100010B52DED048B044608222146422000F000
:104520009DF82078617840EA012000B22081B4F93A
:104530000800C0102081A078E17840EA012000B294
:104540006081B4F90A00C01060812079617940EA85
:10455000012000B2A081B4F90C004010A081A07924
:10456000E17940EA01208010E0813A492046FFF7D6
:1045700077FEB0EE409AF0EE609A374890ED001B5F
:10458000B0EE410AF0EE610A53EC102B51EC190B1E
:1045900008F0E6FF41EC180B2F4890ED061BB0EE3B
:1045A000410AF0EE610A53EC102B51EC180B08F0A5
:1045B000CBFDC4E9040127492046FFF7C5FEB0EE54
:1045C000409AF0EE609A244890ED021BB0EE410A4A
:1045D000F0EE610A53EC102B51EC190B08F0C0FF00
:1045E00041EC180B1C4890ED081BB0EE410AF0EEB0
:1045F000610A53EC102B51EC180B08F0A5FDC4E92F
:10460000060114492046FFF70FFFB0EE409AF0EE86
:10461000609A114890ED041BB0EE410AF0EE610A79
:1046200053EC102B51EC190B08F09AFF41EC180BCE
:10463000094890ED0A1BB0EE410AF0EE610A53EC16
:10464000102B51EC180B08F07FFDC4E90801BDECFC
:10465000048B10BD480600205806002070B50646A1
:104660000C46154600200E490860012007F0C2FDE7
:1046700046F080010B4804F0AFFB07E00021094839
:1046800004F0AAFB2070641C681EC5B2002DF5DC86
:104690000120034908600A2007F0ACFD70BD00004E
:1046A000800241420030014030B585B00446002010
:1046B0000490039000900190029000254FF47A70CE
:1046C00007F08BFD022204A95D20FFF7C7FF04223B
:1046D00003A96220FFF7C2FF0A2269466820FFF79C
:1046E000BDFF9DF8100040B220709DF8110040B24F
:1046F00060709DF80E0040B2A0709DF80F0040B2AF
:10470000E0709DF8030005029DF802002843A08098
:104710009DF8010005029DF80000284300B2E080EA
:104720009DF8070005029DF80600284300B220818D
:104730009DF80D0005029DF80C00284300B2608131
:104740009DF8090020739DF8080040B260739DF841
:10475000050000F07F004FF6FF7101EA00259DF88B
:1047600004002843E08105B030BD000070B5044668
:104770000D4600200A490860012007F03BFD04F0C7
:104780007F01084804F028FB2946064804F024FB72
:1047900001200549C1F880020A2007F02BFD70BDF9
:1047A00080024142003001400000414230B52DED11
:1047B000048B87B004460D46152201A9312000F074
:1047C00009FC9DF804009DF8051040EA01202080B6
:1047D0009DF806009DF8071040EA012060809DF8D2
:1047E000080040B220719DF809009DF80A1040EAC7
:1047F000012000B2E0809DF80B009DF80C1040EA0B
:10480000012000B220819DF80D0040B2A0729DF8F9
:104810000E0040B2E0729DF80F009DF8101040EAC3
:104820000120A0819DF811009DF8121040EA01209E
:10483000E0819DF8130040B220749DF8140040B24E
:1048400060749DF815009DF8161040EA012000B232
:1048500060829DF8170040B220759DF8180040B2A4
:1048600060759FED800BB0EE408AF0EE608A208884
:1048700008F01AFC41EC190B53EC182B08F048FA1D
:10488000C5E900019FED790BB0EE408AF0EE608A39
:10489000608808F009FC41EC190B53EC182B08F068
:1048A00037FAC5E902019FED730BB0EE408AF0EED6
:1048B000608A94F9040008F0E0FB41EC190B53EC1A
:1048C000182B08F025FAC5E904019FED6C0BB0EE3A
:1048D000408AF0EE608AB4F90610A1F5804008F035
:1048E000CCFB41EC190B53EC182B08F011FAC5E97D
:1048F00006019FED640BB0EE408AF0EE608AB4F9D9
:104900000810A1F5804008F0B8FB41EC190B53ECFE
:10491000182B08F0FDF9C5E908019FED5C0BB0EE1E
:10492000408AF0EE608A94F90A0008F0A6FB41EC98
:10493000190B53EC182B08F0EBF9C5E90A019FEDB0
:10494000550BB0EE408AF0EE608A94F90B0008F047
:1049500094FB41EC190B53EC182B08F0D9F9C5E97D
:104960000C019FED4E0BB0EE408AF0EE608AA089FC
:1049700008F09AFB41EC190B53EC182B08F0C8F91E
:10498000C5E90E019FED470BB0EE408AF0EE608A5C
:10499000E08908F089FB41EC190B53EC182B08F067
:1049A000B7F9C5E910019FED410BB0EE408AF0EE7A
:1049B000608A94F9100008F060FB41EC190B53EC8D
:1049C000182B08F0A5F9C5E912019FED3A0BB0EEDE
:1049D000408AF0EE608A94F9110008F04EFB41EC39
:1049E000190B53EC182B08F093F9C5E914019FED4E
:1049F000210BB0EE408AF0EE608AB4F9120008F0A4
:104A00003CFB41EC190B53EC182B08F081F9C5E97C
:104A100016019FED180BB0EE408AF0EE608A94F913
:104A2000140008F02AFB41EC190B53EC182B08F08A
:104A30006FF9C5E918019FED210BB0EE408AF0EE49
:104A4000608A94F9150008F018FB41EC190B53EC3F
:104A5000182B08F05DF9C5E91A0107B0BDEC048B0D
:104A600030BD0000000000000000703F00000000AA
:104A70000000D041000000000000F04200000000F3
:104A800000003041000000000000C04100000000B4
:104A90000000F04100000000000040420000000063
:104AA0000000C03F00000000000050400000000077
:104AB00000007040000000000000E0400000000026
:104AC0000000004410B514491448FFF76FFEB621EA
:104AD0007E2000F033FB012007F07FFB01211C202A
:104AE00000F02CFB01211D2000F028FB02211F20DB
:104AF00000F024FB33211B2000F020FB142007F0E2
:104B00006CFB9FED070B084880ED000B00F06CF884
:104B1000054880ED000B10BD8007002068070020CD
:104B200000000000000000003000002010B52DED56
:104B30000C8B9FED260BB0EE408AF0EE608A9FED65
:104B4000250BB0EE40AAF0EE60AA53EC1A2B51EC04
:104B5000180B08F021F841EC1B0B53EC1B2B51EC0C
:104B6000180B08F0D5F841EC190B53EC192B9FEDFD
:104B70001B0B51EC100B08F0F3FC41EC1D0B19481A
:104B800090ED201BB0EE410AF0EE610A53EC102BC1
:104B900051EC1D0B08F0D8FA41EC1B0B00F024F887
:104BA000B0EE40DAF0EE60DA53EC192B51EC1D0B4D
:104BB00008F0CAFA41EC1C0B53EC1B2B07F0ECFF7E
:104BC00041EC100BBDEC0C8B10BD00007B14AE470C
:104BD000E17A843F9A9999999999B93F0000000028
:104BE0000000F03F2019002010B52DED0C8B2B4854
:104BF00000F06EF82A4890ED000B53EC102B9FED5F
:104C0000290B51EC100B08F083F841EC1C0B2348E6
:104C100090ED041BB0EE410AF0EE610A9FED231BFC
:104C200053EC112B51EC100B08F072F841EC1D0BFA
:104C3000B0EE4C1AF0EE6C1AB0EE4D0AF0EE6D0AC2
:104C400005F0AAFFB0EE40BAF0EE60BA9FED190B86
:104C500053EC102B51EC1B0B08F0AAFB41EC1A0B88
:104C60009FED160B53EC102B08F06EFA41EC190B6C
:104C70009FED140B53EC102B08F04AF841EC180B85
:104C8000124890ED000B53EC102B51EC180B08F070
:104C900067FC41EC100BBDEC0C8B10BDF80700203D
:104CA00028D9000823C95AE07EDAFD3F0000000041
:104CB000D0BCF840000000000000F03F6666666669
:104CC0006602724039B4C876BE9F7A3F3000002039
:104CD00010B52DED108B84B00446204600F0CAF9C3
:104CE00000BF032000F09EF900200028F9D1032224
:104CF0002146042000F06EF9A0780004617840EAB3
:104D00000120217808436060AD4890ED1C2BB0EE87
:104D1000420AF0EE620A90ED102BB0EE421AF0EE6D
:104D2000621A53EC102B51EC110B08F00DFA41EC08
:104D3000180BA34890ED1C1BB0EE410AF0EE610A7F
:104D40009FEDA01B05F028FFB0EE40CAF0EE60CA50
:104D50009B4890ED121BB0EE410AF0EE610A53EC55
:104D6000102B51EC1C0B08F0EFF941EC190B944897
:104D700090ED1C1BB0EE410AF0EE610A9FED931B13
:104D800005F00AFFB0EE40CAF0EE60CA8C4890ED24
:104D9000141BB0EE410AF0EE610A53EC102B51ECFB
:104DA0001C0B08F0D1F941EC1A0B854890ED0E1B55
:104DB000B0EE410AF0EE610A53EC182B51EC100BE7
:104DC00007F0EAFE41EC1D0B53EC192B07F0E4FE53
:104DD00041EC1C0B53EC1A2B07F0DEFECDE902016F
:104DE000774890ED1C2BB0EE420AF0EE620A90ED8F
:104DF000082BB0EE421AF0EE621A53EC102B51EC75
:104E0000110B08F0A1F941EC180B6D4890ED1C1B3B
:104E1000B0EE410AF0EE610A9FED6A1B05F0BCFEA0
:104E2000B0EE40CAF0EE60CA654890ED0A1BB0EEE5
:104E3000410AF0EE610A53EC102B51EC1C0B08F008
:104E400083F941EC190B5E4890ED1C1BB0EE410A52
:104E5000F0EE610A9FED5D1B05F09EFEB0EE40CACC
:104E6000F0EE60CA564890ED0C1BB0EE410AF0EE31
:104E7000610A53EC102B51EC1C0B08F065F941EC66
:104E80001A0B4F4890ED061BB0EE410AF0EE610A96
:104E900053EC182B51EC100B07F07EFE41EC1F0B6E
:104EA00053EC192B07F078FE41EC1E0B53EC1A2B38
:104EB00007F072FE41EC1C0B606808F0DEF841EC74
:104EC0001D0B53EC1C2B08F03FF9CDE90001606885
:104ED00008F0D3F841EC1C0B9FED3A1BB0EE4C0AE6
:104EE000F0EE6C0A05F058FEB0EE408AF0EE608AF3
:104EF000334890ED1C2BB0EE420AF0EE620A90EDC2
:104F0000182BB0EE421AF0EE621A53EC102B51EC53
:104F1000110B08F019F941EC1C0B294890ED161BF8
:104F2000B0EE410AF0EE610A53EC102B51EC1C0B71
:104F300007F032FE41EC190B53EC192B51EC180B16
:104F400008F002F941EC1A0B606808F096F841ECA1
:104F50001E0B9FED1E1BB0EE4E0AF0EE6E0A05F022
:104F60001BFEB0EE40DAF0EE60DA154890ED1A1B49
:104F7000B0EE410AF0EE610A53EC102B51EC1D0B20
:104F800008F0E2F841EC1C0B53EC1A2B07F004FE7E
:104F900041EC1B0B9DED000B53EC102B9DED020B18
:104FA00051EC100B07F0F8FD41EC1C0B53EC1B2BE4
:104FB00007F0F2FDC4E9040104B0BDEC108B10BD94
:104FC00080070020000000000000004000000000FA
:104FD0000000084070B506460C46154600200F49F3
:104FE0000860012007F006F946F080010C4803F044
:104FF000F3FE00210A4803F0EFFE07E00021084815
:1050000003F0EAFE2070641C681EC5B2002DF5DCBA
:1050100001200249086007F0EDF870BD84024142AA
:105020000030014010B5044600200E490860012000
:1050300007F0E0F844F080010B4803F0CDFE0021BA
:10504000094803F0C9FE0021074803F0C5FE0749DF
:10505000087001200649C1F8840207F0CBF8034824
:10506000007810BD84024142003001403800002029
:105070000000414210B52DED088B044600BF03200F
:10508000FFF7D0FF00200028F9D103222146072096
:10509000FFF7A0FFA0780004617840EA01202178A2
:1050A00008436060606807F0E8FF41EC1A0B224893
:1050B00090ED001BB0EE410AF0EE610A53EC102BAC
:1050C00051EC1A0B08F04CFA41EC180B1A4890ED11
:1050D000021BB0EE410AF0EE610A53EC102B51ECCA
:1050E000180B08F031F841EC190B53EC182B51EC6C
:1050F000180B08F029F841EC1B0B0F4890ED041B2E
:10510000B0EE410AF0EE610A53EC102B51EC1B0B90
:1051100008F01AF841EC1A0B53EC192B07F03CFD80
:10512000054AC2E91C01104690ED1C0B84ED020BF0
:10513000BDEC088B10BD00008007002070B5044650
:105140000D4600BF0320FFF76DFF00F010000028A0
:10515000F8D0012007F04EF800200A49086001202D
:1051600007F048F804F07F01074803F035FE2946B0
:10517000054803F031FE01200449C1F8840207F01C
:1051800039F870BD840241420030014000004142C4
:1051900010B58AB004460121022003F0B1FA0121C2
:1051A000042003F0BDFA4FF48070089002208DF8BF
:1051B000240003208DF8250000208DF82600022011
:1051C0008DF8270008A91B4801F07CF9022208216C
:1051D000184801F0BFF9D120ADF814000020ADF857
:1051E000160040F2E73006900020ADF81C0005A93B
:1051F000114804F0A7F96020ADF800000120ADF8D7
:1052000002000020ADF80C0069460B4804F0ECF8F1
:105210000821094804F038F90121074804F004F88E
:105220002146054804F012F85021034804F083F9A0
:105230000AB010BD000402400008004000BFFEE7B5
:1052400010B504468BA12046FBF770F928B9012060
:105250008B49087003F048FE0BE18AA12046FBF75A
:1052600065F928B90A208649087003F03DFE00E17F
:1052700087A12046FBF75AF928B9202080490870F9
:1052800003F032FEF5E085A12046FBF74FF918B98F
:105290001E207B490870ECE086A12046FBF746F90A
:1052A00018B91F2076490870E3E088A12046FBF773
:1052B0003DF910B903F042FEDBE087A12046FBF781
:1052C00035F910B904F098FED3E088A12046FBF729
:1052D0002DF910B904F03CFECBE088A12046FBF785
:1052E00025F948B900208949086004F00BFE012027
:1052F0008749C1F8AC02BCE086A12046FBF716F94D
:1053000010B902F08FFCB4E084A12046FBF70EF93F
:1053100028B946205A490870FEF702FDA9E085A188
:105320002046FBF703F928B9492055490870FEF7D4
:10533000F7FC9EE086A12046FBF7F8F828B9482044
:105340004F490870FCF732FF93E088A12046FBF735
:10535000EDF828B94A204A49087004F0B9FD88E000
:1053600088A12046FBF7E2F828B94B204449087091
:1053700002F09AFB7DE089A12046FBF7D7F818B927
:1053800069203F49087074E088A12046FBF7CEF8F9
:1053900018B96A203A4908706BE088A12046FBF7EB
:1053A000C5F810B900F088FC63E089A12046FBF73E
:1053B000BDF828B964203249087000F043FC58E079
:1053C00087A12046FBF7B2F838B965202C49087050
:1053D0004FF4803000F0CAFA4BE084A12046FBF77E
:1053E000A5F828B914202649087001F0D8F840E043
:1053F00081A12046FBF79AF810B902F093FB38E040
:1054000081A12046FBF792F810B902F073FB30E05F
:1054100081A12046FBF78AF828B966201849087050
:1054200002F08EFA25E082A12046FBF77FF810B942
:1054300002F0A8FA1DE084A12046FBF777F810B926
:1054400001F048FE15E084A12046FBF76FF810B983
:1054500001F058FE0DE084A12046FBF767F828B95B
:105460006B200749087000F019FD02E00020044994
:10547000087010BD424D495F544553540000000070
:10548000410000204144584C5F54455354000000F3
:10549000424D4D5F54455354000000004D61676E0E
:1054A000657469736D4F66667365745F494E4954E0
:1054B000000000004D61676E657469736D4F66662C
:1054C0007365745F53544F500000000053616D705A
:1054D0006C655F53544F5000573235515F446174CF
:1054E00061436F6E73756C74000000005732355164
:1054F0005F44617461436C656172000057323551DD
:105500005F4368697045726173650000AC02404298
:1055100000004042515F494E495400004174746993
:1055200074756465536F6C7574696F6E5F54455321
:10553000540000004174746974756465436F6D7044
:10554000656E736174696F6E5F544553540000005B
:10555000416363656C65726174696F6E536F6C75DE
:1055600074696F6E5F5445535400000056656C6F4C
:1055700063697479536F6C7574696F6E5F544553CA
:1055800054000000506F736974696F6E536F6C75CF
:1055900074696F6E5F54455354000000494D554F78
:1055A00066667365745F494E49540000494D554223
:1055B00061636B4F6666736574000000464D554F1E
:1055C00066667365745F4445494E495400000000A7
:1055D000446174615F53544F5241474500000000DD
:1055E000446174615F524541440000004865696749
:1055F00068745F5445535400506F736974696F6EDB
:105600005F494E4954000000506F736974696F6EB2
:105610005F4445494E49540050617261666F696C40
:10562000436F6E74726F6C5F5354415254000000AC
:1056300050617261666F696C436F6E74726F6C5FFC
:1056400053544F50000000004D6F746F7243616CF3
:105650005F535441525400004D6F746F7243616C3C
:105660005F53544F500000004669786457696E6775
:10567000436F6E74726F6C5F5445535400000000AA
:105680000246094B9A4201D2084801E00648103808
:1056900001F000531BB1064B0B40C36002E0044B0A
:1056A0000B408360704700001064024000600240BD
:1056B0007D0F7D0F21B1026842F00102026003E01C
:1056C000026822F0010202607047000000B58FB04E
:1056D0000121480503F014F82B4800F05FF800BFE3
:1056E000294800F007F90028FAD14FF00060009037
:1056F0002648019026480290002003900F20049035
:10570000002005904FF480600690002007900890DC
:1057100009904FF480300A9000200B900C900D906F
:105720000E906946184800F0F3F81748483000F02A
:1057300035F800BF1448483000F0DCF80028F9D1F3
:105740004FF0006000901348019013480290002031
:1057500003904FF4FA700490002005904FF480609D
:10576000069000200790089009904FF400300A90AE
:1057700000200B900C900D900E9069460248483026
:1057800000F0C6F80FB000BD40600240044C00407D
:105790000206002004440040E8010020016821F0D6
:1057A000010101600021016041608160C16001610F
:1057B000212141614A49884204D13D21484A103A99
:1057C00091608CE046491831884205D14FF47461EC
:1057D000434A103A916082E041493031884205D114
:1057E0004FF474113E4A103A916078E03C494831D8
:1057F000884205D14FF07461394A103A91606EE0E9
:1058000037496031884204D13649354A103AD1606F
:1058100065E033497831884204D13349304A103A3F
:10582000D1605CE02E499031884204D12F492C4A46
:10583000103AD16053E02A49A831884205D14FF08F
:105840003D51274A103AD16049E02949884204D1A4
:105850003D21274A083A116041E025491831884224
:1058600005D14FF47461224A083A116037E02049AB
:105870003031884205D14FF474111D4A083A116045
:105880002DE01B494831884205D14FF07461184A18
:10589000083A116023E016496031884204D1114969
:1058A000134A121F11601AE011497831884204D15D
:1058B0000D490F4A121F116011E00D4990318842C5
:1058C00004D10A490A4A121F116008E00849A831A8
:1058D000884204D14FF03D51054A121F11607047B4
:1058E000106002403D000020400F002000003D20DD
:1058F00010640240014600200A6802F001020AB169
:10590000012000E0002070470146486880B27047DF
:1059100010B500220268134B1A40CC680B68234371
:105920004C6923438C692343CC6923430C6A23438A
:105930004C6A23438C6A23434C6B23438C6B234375
:105940001A430260426922F00702D1E90B34234373
:105950001A4342610B6943604B6883608B68C36084
:1059600010BD00003F801CF0416070472DE9F047FA
:10597000064630A004F002FA334804F0FFF94EE086
:105980004FF480723149304604F06CFB2F4F386879
:10599000401C00B947E041462DA004F0EFF92B4D23
:1059A000002433E0002C0DDD032C0BDA95ED001BF9
:1059B000B0EE410AF0EE610A53EC102B25A004F082
:1059C000DDF920E0102C01DD162C01DB1B2C0FDD96
:1059D00095ED001BB0EE410AF0EE610A51EC100BA0
:1059E00007F0EEFA814649461DA004F0C7F90AE027
:1059F00095ED001BB0EE410AF0EE610A53EC102B5E
:105A000019A004F0BBF90835601CC4B2202CC9DB16
:105A10000CA004F0B3F906F5807608F101081548EA
:105A200000786528ACD000BF13A004F0A7F9BDE84A
:105A3000F0870000446174612069732073656E64AF
:105A4000696E67210D0A0000D4DC000810080020F0
:105A500025753A002020252B302E386600000000E6
:105A600020202564000000002020252B302E3466E5
:105A700000000000410000204461746120686173EF
:105A8000206265656E2073656E646564210D0A0091
:105A900010B5C0B06C465C4890ED000B8DED000B6E
:105AA0009FED5A0B8DED020B9FED580B8DED040B06
:105AB0009FED560B8DED060B9FED540B8DED080BF6
:105AC0009FED520B8DED0A0B524890ED000B8DEDC2
:105AD0000C0B90ED020B8DED0E0B90ED040B8DED8C
