:020000040800F2
:10000000681C0020D502000875710008DD65000835
:1000100011710008DD5000089996000800000000EA
:10002000000000000000000000000000DB86000867
:10003000215800080000000083720008A58900080C
:10004000EF020008EF020008EF020008EF020008CC
:10005000EF020008EF020008EF020008EF020008BC
:10006000EF020008EF020008EF020008EF020008AC
:10007000EF020008EF020008EF020008EF0200089C
:10008000EF020008EF020008EF020008EF0200088C
:10009000EF020008EF020008EF020008EF0200087C
:1000A000EF020008EF020008EF020008EF0200086C
:1000B000118A0008EF020008EF020008EF020008B2
:1000C000EF020008EF020008EF020008EF0200084C
:1000D000EF0200084D9000080D9100088992000879
:1000E000EF020008EF020008EF020008EF0200082C
:1000F000EF020008EF020008EF020008EF0200081C
:10010000EF020008EF020008EF020008EF0200080B
:10011000998E0008EF020008EF020008EF020008C5
:10012000EF020008EF020008EF020008EF020008EB
:10013000EF020008EF020008EF020008EF020008DB
:10014000EF020008EF020008EF020008EF020008CB
:10015000EF020008EF020008EF020008EF020008BB
:10016000EF020008EF020008EF020008EF020008AB
:10017000EF020008EF020008EF020008EF0200089B
:10018000EF020008EF02000800F002F800F092F819
:100190000AA090E8000C82448344AAF10107DA45E2
:1001A00001D100F087F8AFF2090EBAE80F0013F0A2
:1001B000010F18BFFB1A43F001031847A4D3000036
:1001C000C4D30000103A24BF78C878C1FAD85207C7
:1001D00024BF30C830C144BF04680C6070470000C1
:1001E0000023002400250026103A28BF78C1FBD840
:1001F000520728BF30C148BF0B6070476E2900F01E
:100200008382702900F0EF8566290CF0318765291B
:100210000CF02E8767290CF02B8761290CF02A87B8
:1002200003681B0A28BF41F08001692900F0308271
:10023000642900F02D82752900F02A826F2900F0D0
:100240007C85782900F0BB85E92900F01785E42931
:1002500000F01485F52900F01185EF2900F079856B
:10026000F82900F0BA850368DB0928BF41F0800156
:10027000632901F03180732901F03680E32901F010
:100280004180F32901F04680002070471FB50CF033
:10029000EAFE00F0B3FD0400002000210CF082F81B
:1002A000401C6060002000210CF066F8E0601FBD7B
:1002B00010B510BD01F0CCF81146FFF7E7FF0BF0C9
:1002C00083FC01F0F3F803B4FFF7F2FF03BC0BF07B
:1002D000DAFB00000948804709480047FEE7FEE7CF
:1002E000FEE7FEE7FEE7FEE7FEE7FEE7FEE7FEE7E6
:1002F00004480549054A064B70470000A9890008D3
:100300008901000868160020681C00206818002079
:1003100068180020704700007CB51D4616460C008A
:10032000009001D02044401E074B7B442A4669467A
:100330000190304600F011FC05461CB100206946D2
:1003400000F01EFC28467CBD5D0800000FB4044987
:1003500010B503AA029800F021FC10BC5DF814FB54
:10036000100000202DE9F05F894604464FF0000A96
:10037000DFF874B1FB44C0F820A02046E16888474C
:10038000002874D0252806D0D4E901219047206A9E
:10039000401C2062F1E700265F462046E16888475E
:1003A0002028054607DB312D05D2781910F8200CDE
:1003B00008B10643F1E7B00701D526F00406C4F8FA
:1003C0001CA00027C4F818A02A2D09D028460BF03D
:1003D00053FB38B304EB8708303DC8F8185019E0D8
:1003E00059F8041B204604EB87029161E1688847B5
:1003F000012F054618D1E069002820DA26F02006F2
:100400001DE0D8F8180000EB800005EB4000303804
:10041000C8F818002046E168884705460BF02CFB19
:100420000028EED1012F0AD02E2D08D12046E168F8
:1004300088477F1C0546022F46F02006C4DBA069D2
:10044000002803DA404246F00106A061F00701D01F
:1004500026F010066C2D0BD0682D09D04C2D39D00C
:100460006A2D35D0742D35D07A2D33D016E038E092
:10047000E1682F4620468847B842054609D16C2FCF
:1004800026D04FF48060E168064320468847054641
:1004900004E06C2F1AD04FF4807006430DB3A5F121
:1004A0004100192802D8203546F400664A462946FC
:1004B000204626604E46FFF7A1FE80B101280BD0F2
:1004C000F61D26F0070000F1080956E74020E4E792
:1004D0008020D8E70020D6E706F104094DE728463A
:1004E00052E7206ABDE8F09F00CE000010B5431C23
:1004F00002E010F8011B71B18107FAD14FF001320F
:1005000002C88C1A8C4314EAC211F9D0C01A0A0628
:1005100003D0C01E10BDC01A10BD0A0401D0801E39
:1005200010BD0902FCD0401E10BD00004FF0013C80
:1005300050F8042B51F8043B9A4221D1A2EB0C0352
:10054000934313EACC1317D150F8042B51F8043B12
:100550009A4215D1A2EB0C03934313EACC130BD1AF
:1005600050F8042B51F8043B9A4209D1A2EB0C033A
:10057000934313EACC13DBD04FF00000704700BF69
:10058000D01A01BAB1FA81F101F0180122FA01F092
:10059000CB40C1F12001DBB2C0B2C01A2CFA01F38A
:1005A000D11A914311EAC311E6D1704770477047E1
:1005B0007047704710B500F025FC006810BD10B5FD
:1005C000044600F01FFC046010BD70B50446856948
:1005D0000068C10601D5302600E02026C00707D0FC
:1005E00070BDD4E9012130469047206A401C20624A
:1005F0006D1EF6D570BD70B5044685690078C007DC
:1006000007D170BDD4E9012120209047206A401C09
:1006100020626D1EF6D570BD09684A0501D540B24D
:100620007047C905FCD500B2704709684A0501D575
:10063000C0B27047C905FCD580B2704770B50C4692
:100640000546012A05D02878800600D5EA690023EE
:1006500002E0012305E05B1C934202D2E05C00282B
:10066000F9D1A869E618C01AA861286A1844286256
:100670002846FFF7AAFF04E0D5E9012114F8010B91
:100680009047B442F8D32846FFF7B5FF70BD00008D
:100690002DE9F0410646002410687529314616A55B
:1006A00010D0FFF7B9FF002802DA404213A507E097
:1006B00031688A0701D512A502E0490704D511A5C2
:1006C000012401E0FFF7B1FF00210A2206F124070F
:1006D00009E0B0FBF2FCB0FBF2F302FB1C0030308F
:1006E00078541846491C0028F3D123462A46304640
:1006F000BDE8F04100F0CFBB000000002D0000007D
:100700002B0000002000000011680268006A5305F9
:1007100001D508700AE0D30501D5088006E013066C
:1007200003D5C217C1E9000200E00860012070474C
:1007300070472DE9FF4F0C461E464FF0FF378BB038
:10074000D2E90001DDF860800A908A46C1F30A55BB
:1007500005B93D46002108464FF00000BAF1000FF0
:1007600000F4400005DA00EB80004FF4400101EA9C
:1007700050004FEA9059B9F1010F00DDB9460A98CF
:1007800050EA4A000ED044F61050A5F2FF3545431A
:100790002F14B8F1000F1ED07542291E1EDDC9F1BD
:1007A00000021CE0B8F1010F4FF0000001D0302131
:1007B00003E0F24305E02154401CB042FBDB30462D
:1007C0000022002121540B99C1F80880C1E90020C2
:1007D0000FB0BDE8F08FBD1B6D1CDEE74A4600DAA6
:1007E000694206A800F09AFD06AB93E8070003AB48
:1007F00083E8070050460A9900F061FE8DE8070083
:10080000A0F500501F3800900398002D0ADD42F239
:100810001F014A460844002303A90390684601F0DB
:10082000CAF809E0A0F500504A461F38002303A982
:100830000390684601F0D4F88DE807000004000C2E
:1008400003D04FF0FF30410800E01046B8F1000F30
:1008500003D00022009215461EE0751E05D400F05C
:10086000D5FA303262556D1EF9D5B34601220843E0
:1008700002D000227F1C04E02078302801D1002221
:100880007F1E002A099784D01DE0112D07DA00F0A1
:10089000BDFA303262556D1C50EA0102F5D10843B1
:1008A00002D00098C8B10EE00021681E05E0235C6C
:1008B000625C63542254401E491C8142F7DBAB4604
:1008C000A81B401E0990002004F80B000B98099A01
:1008D000C0F80880C0E9002B7AE711264FF0000825
:1008E00057E72DE9F04F88460446D21D22F0070154
:1008F00091B0D1E90001CDE90A0109F01BF90246E6
:100900000B98C00F01D02D2007E02068810701D58A
:100910002B2002E0202101EAC000032A099001D027
:10092000072A05DB03464146204600F08BFC0BE11D
:100930002078800601D5E06900E00620B8F1650F57
:10094000814606D0B8F1660F18D0B8F1670F70D1A4
:1009500031E00020B9F1110F009001DB112301E01B
:1009600009F101030AAA01A90CA8FFF7E2FEDDE9DB
:100970000C70002609F10105834647E001204B4633
:1009800000904FF000470AAA01A90CA8FFF7D1FE7A
:10099000DDE90DB00C995D46002610B909F10100A2
:1009A0000D18B9EB050003D4C0F1FF3609F10105BC
:1009B000A5EB09002BE0B9F1010F01DA4FF00109B5
:1009C0000020B9F1110F0090484601DD112300E02D
:1009D00003460AAA01A90CA8FFF7ABFEDDE90C70DB
:1009E0004D4600268346207800070AD4AB4500DA3E
:1009F0005D4601A8012D04DD411911F8011C3029C3
:100A000007D04F4502DA17F1040F04DA01208246BD
:100A10000FE06D1EEEE7002F02DCED1B3E4403E00D
:100A2000781CA84200DD7D1CB81B00F1010A4FF0C4
:100A300000472078000703D4AA4501DB4FF0FF3AB6
:100A40000021B7F1004F0DF143088DF8431024D079
:100A500002202B23002F01DA7F422D230A21021EC0
:100A6000A0F1010000DC5FB197FBF1FC97FBF1F214
:100A700001FB1C7C17460CF1300C08F801CDEEE7A9
:100A8000A8F1010003702188090501D5452100E086
:100A90006521A0F1010800F8011C09980FA9A1EB3C
:100AA0000807FF1D00B10120411901EBEA70A1699F
:100AB0003844081A401EA0612078C00602D420469F
:100AC000FFF783FD099828B1D4E901219047206AF6
:100AD000401C20622078C00622D52046FFF775FD15
:100AE0001EE0002E04DBB34502DD01A8805D00E0BE
:100AF0003020D4E901219047206A401C2062761CF6
:100B0000AAF101005FEA000A0AD100F077F9C06893
:100B10000168405CD4E901219047206A401C2062B2
:100B2000281EA5F10105DCDC07E0D4E9012118F855
:100B3000010B9047206A401C2062381EA7F1010774
:100B4000F3DC2046FFF757FD032011B041E600001B
:100B500001694A1C02610878704700B58FB0CDE981
:100B600001310021059105497944CDE90310114671
:100B70006846FFF7F7FB0FB000BD0000E5FFFFFF81
:100B80000A6802F8010B0A607047D1E900239A4213
:100B900002D2531C0B60107070470000074B70B5F9
:100BA0000D467B44FFF7D9FF0446284600F028FC99
:100BB00010B14FF0FF3070BD204670BD07B000008F
:100BC0002DE9FF5F15468A460446DFF8AC80F844FD
:100BD0000027D8E900103E46CDE9001010E03AF8B1
:100BE00016106A4602A800F00FFC411C07D02178BD
:100BF000890603D5E269391891420DD80744761C5D
:100C00002078800602D5E069B84205DDAE42E6DB19
:100C10003AF816000028E2D1A069C01BA061204666
:100C2000FFF7D3FCD8E90010CDE90010002017E051
:100C30003AF818106A4602A800F0E6FBB0F1FF3F50
:100C400081460BD000250DF1080B05E0D4E9012108
:100C50001BF8050090476D1C4D45F7D308F10100C6
:100C6000B0428046E4DB206A384420622046FFF729
:100C7000C2FCBDE8FF9F000096C600002DE9F041D0
:100C80008046D21D22F007020025D2E90002F52994
:100C900015A614D0011E72F1000106DA0023D0EB74
:100CA000030063EB020211A608E0D8F800108B07DE
:100CB00001D50FA602E0490701D50EA60125114670
:100CC000002408F1240704E000F0A0F830323A557F
:100CD000641C50EA0102F7D12B46324621464046B9
:100CE000BDE8F04100F0D7B8000000002D00000082
:100CF0002B0000002000000030B4002100F124048B
:100D000008E002F00705D208303542EA4372DB08FA
:100D10006554491C52EA0305F3D10468002310A26C
:100D2000250707D5A40600D421B1C46901230DA26B
:100D3000641EC46130BC00F0AEB810B50446214654
:100D40001068FFF772FC02462046BDE81040002301
:100D5000D2E7D21D22F00701D1E90023CCE7000041
:100D60000000000030000000F0B40D4601880905C5
:100D700002D5214C7C4402E01F4C7C440E340021FF
:100D800000F1240608E002F00F071209E75D42EACD
:100D900003721B097754491C52EA0307F3D1027806
:100DA0000023120704D5702D06D009B10223113497
:100DB0002246F0BC00F06FB801231034F8E770B59C
:100DC00004460D4621461068FFF72FFC02462946CF
:100DD0002046BDE870400023C6E7D21D22F007037D
:100DE000D3E90023C0E70368126843F020030360DF
:100DF0000823C3610023B7E7F8C400000048704728
:100E000028160020004870470816002030B5B0F1C1
:100E10000A024FEA900E71F100034EEA817EB0EBB8
:100E20000E0061EB91014FEA101E4EEA017E10EBBD
:100E30000E0041EB11114FEA102E4EEA016E10EB3D
:100E40000E0041EB11214FEA104E4EEA014E10EB1D
:100E50000E0041EB1141401841F100014FEAD00072
:100E600040EA41704FEAD10110EB80054FEA81045E
:100E700044EA907444EB01046D1944EB0404521BE2
:100E8000A3414FF0000348BF0A3200D530BD401CDB
:100E900041F1000130BD2DE9F0470D4699469246DB
:100EA000044600F124080168880604D5E06921F0B1
:100EB0001001216000E00120A84201DD471B00E095
:100EC0000027A1697A1902EB0900081AA0612078AD
:100ED000C00602D42046FFF778FB002608E0D4E9DC
:100EE00001211AF806009047206A401C761C2062F7
:100EF0004E45F4DB2078C0060AD52046FFF765FB97
:100F000006E0D4E9012130209047206A401C20628D
:100F1000381EA7F10107F4DC07E0D4E9012118F835
:100F200005009047206A401C2062281EA5F101059B
:100F3000F3DC2046FFF75FFB2078000602D5022095
:100F4000BDE8F0870120FBE72DE9F04F04460D4690
:100F5000D21D22F0070089B0D0E9009748463946F3
:100F600008F0E8FD0246F80F01D02D2307E02068C5
:100F7000810701D52B2302E0202101EAC0038DF86F
:100F800020300BB1012000E00020032A824601D06E
:100F9000072A04DB2946204600F054F93FE1207877
:100FA000800601D40D2500E0E569C7F30A560D2D32
:100FB00049DA00214FEA175B08464FF00000002F86
:100FC00000F4400007DA00EB80004FF4400100EB32
:100FD000D07001EA60008115012901DD4FF0FF3179
:100FE00000224FEA850CBCF1180F06D31346ACF172
:100FF00018004FF08052C24003E04FF4801323FAF0
:101000000CF30CF10C0CBCF1200F04D3ACF1200C50
:1010100009FA0CF001E007FA0CF000294FF0004843
:1010200001DD18B90FE00ED140450CD319EB0209D0
:101030005F4121B9404502D19F4329EA0209BBEB38
:10104000175F00D0761C2088000502D57B487844C5
:1010500002E07A487844193808AA302302F80A30A6
:10106000037C0AF10101002E0AF1020A53546A4678
:1010700002DC4FF0300101E04FF031014FF0010888
:101080008DF8001002D0A6F2FF3603E059EA4701BE
:1010900000D06B4E002D02DC2178090704D54FF0FB
:1010A00002082E218DF80110C44600210BE0C7F381
:1010B00003433F01C35C491C6D1E02F8083005293B
:1010C00008F1010801DA002DF1DC00210CE000EB51
:1010D0001973491C1B786D1E082902F808304FEA65
:1010E000091908F1010801DA002DF0DC21688B06EE
:1010F00002D516E0A8F10108E04505DD02EB080382
:1011000013F8013C302BF5D0B8F1000F09DD02EBEC
:10111000080313F8013C2E2B03D1090701D4A8F1D1
:101120000108002D05DD3E2102F808106D1E08F1B2
:101130000108407C002E02F8080008F1010804DADA
:101140002D20764202F8080002E02B2002F8080069
:101150000A214FF47A70864208F101080BDB96FBF6
:10116000F0F3303302F8083096FBF0F308F1010891
:1011700000FB136601E0642E0CDB642096FBF0F3A9
:10118000303302F8083096FBF0F308F1010800FB59
:10119000136601E00A2E06DB96FBF1F0303002F810
:1011A000080008F1010896FBF1F001FB10603030F7
:1011B00002F80800A16908F1010808EB050202EB3A
:1011C0000A00081AA0612078C00602D42046FFF762
:1011D000FCF9216A08AE01EB0A00206204E0D4E9C0
:1011E000012116F8010B9047BAF1010AF7D22078D5
:1011F000C00602D52046FFF7E8F96E4609E016F86A
:10120000010B3E280FD0D4E901219047206A401CF1
:101210002062B8F10108F2D22046FFF7ECF909B0DC
:101220000320BDE8F08F206A2844206203E0D4E95F
:101230000121302090476D1EEBD3F8E719C4000060
:1012400002FCFFFF2DE9F0411F460446032601681A
:10125000072A01F4006004DB08B116A505E016A515
:1012600003E008B115A500E015A521F010002060ED
:10127000A069C01EA0610FB1401EA0612046FFF70B
:10128000A4F94FB1D4E9012138469047206A401CA7
:101290002062C01C206206E0206AFAE7D4E901213E
:1012A00015F8010B9047761EF8D22046FFF7A3F9F8
:1012B000BDE8F0814E414E006E616E00494E460021
:1012C000696E660010B5436913B1AFF3008001E0A9
:1012D000FFF7B4F9012010BD127800F124010A7063
:1012E00000224A700122EDE711684FF0FF32E9E772
:1012F00010B5436913B1AFF3008001E0FFF760FC64
:10130000012010BD128800F1240182840022C284D1
:101310000122EDE711684FF0FF32E9E72DE9F047D0
:10132000814616468AB0354878440DC88DE80D00D0
:1013300032487844801C03AC0DC884E80D0041F6A7
:101340009B300844372190FBF1F290FBF1F5A5F1B9
:10135000800501FB12041B3C02D56442012000E021
:101360000020DFF898A080460027FA44AAF1BE0AC0
:101370000EE0E0070AD03246684607EB470101233A
:101380000AEB810100F02CFB8DE8070064107F1C44
:10139000002CEED1194F7F44AE3F19E0E80715D07D
:1013A00007EB04100DF1180A90E80E008AE80E0011
:1013B000C068F04201D1981908903246012306A96D
:1013C00003A800F00DFB03AB83E807006D10641C5D
:1013D000002DE3D14FF0010332466946B8F1000F0A
:1013E00003A802D000F0E7FA01E000F0F9FAC9E939
:1013F0000001C9F808200AB0BDE8F087D0C100009C
:10140000007B00F08000704770B516460C4605461C
:1014100000F044F8036893F80101012806D0FF2C7E
:101420000FD8185D68B101202C7070BDD3F807018A
:101430003246214603F2071303442846BDE87040B4
:1014400018474FF0FF3070BD004870470816002065
:101450007546FFF7F9FFAE4605006946534620F092
:101460000700854618B020B5FEF742FFBDE82040D2
:101470004FF000064FF000074FF000084FF0000B50
:1014800021F00701AC46ACE8C009ACE8C009ACE803
:10149000C009ACE8C0098D467047000010B5FFF7E1
:1014A000ADFC001D10BD00BFFDAE000010B5044630
:1014B000AFF300802046BDE81040FEF704BF5FEAAE
:1014C000400C08BF91F0000F4FEA8C234FEAC12275
:1014D00043EA51514FEA1C5018BF00F5F0404FEA63
:1014E000300018BF41F000415FEA6C5C00F02980D9
:1014F000BCF1FF3F08BF40F080407047130C06BFAF
:1015000012044FF0100C4FF0000C130E04BF120227
:101510000CF1080C130F04BF12010CF1040C930F13
:1015200004BF92000CF1020CD30F04BF52000CF167
:10153000010C11464FF00002A0F11F00A0EB0C00BF
:10154000704711F0004F08BF704731F000413FF481
:10155000D5AF0B0C06BF09044FF0100C4FF0000C78
:101560000B0E04BF09020CF1080C0B0F04BF09019C
:101570000CF1040C8B0F04BF89000CF1020CCB0F93
:1015800004BF49000CF1010CCCF12003A0EB0C00CE
:1015900022FA03F302FA0CF241EA030100F101001E
:1015A000704720F07F4C80EA030023F07F47ACEBCC
:1015B000070303F57C5300F0004003F1FF032DE91E
:1015C00080494FEA154B09B44FEA144325EA0B4E04
:1015D00024EA03480FF2042606EB132749083E7855
:1015E0005FEA320203FB0667C7F5000707FB06F652
:1015F0004FEA54374FEAD64606F1020607FB066C5F
:10160000CCF1005C4FEA1C472CEA074C07FB06F4C0
:101610000CFB06F504EB15464FEA961634BF002086
:101620004FF000404FEAD13706FB07FC4FEA1C4C55
:101630000CFB0BF7D21B03FB0CF761EB07010CFB58
:101640000EF7B0EB074072EB17420CFB08F734BF04
:10165000A2EB0742B2EB074261EB17414FEA0C44A1
:101660004FEA910706FB07FC4FEA1C4C0CFB0BF7FB
:10167000B0EBC74072EB573203FB0CF734BFA2EB61
:10168000C742B2EBC74261EB57310CFB0EF7B0EB30
:10169000C70072EB57720CFB08F734BFA2EBC7020E
:1016A000B2EBC70261EB5771039F4FEA816141EAD8
:1016B000921104EBCC044FEAD1374FEA826206FB69
:1016C00007FC42EA90124FEA80604FEA1C4C0CFB88
:1016D0000BF7D21B03FB0CF761EB07010CFB0EF7BA
:1016E000B0EB074072EB17420CFB08F734BFA2EBDC
:1016F0000742B2EB074261EB17414FEA8C554FEAC4
:10170000910704EB9C2406FB07FC4FEA1C4C0CFBE6
:101710000BF7B0EBC74072EB573203FB0CF734BF4B
:10172000A2EBC742B2EBC74261EB57310CFB0EF79D
:10173000B0EBC70072EB57720CFB08F734BFA2EB9B
:10174000C702B2EBC70261EB577115EB4C254FEAAC
:10175000816141EA92114FEA82624FEAD13742EA4F
:10176000901206FB07FC44F100044FEA80604FEA48
:101770001C4C0CFB0BF7D21B03FB0CF761EB0701B6
:101780000CFB0EF7B0EB074072EB17420CFB08F7AF
:1017900034BFA2EB0742B2EB074261EB174115EBF6
:1017A0001C154FEA813141EA92414FEA823242EA06
:1017B00090424FEA80304FEA0C7644F1000448EA48
:1017C00003434EEA0B484FF0000EB2EB080C71EBEE
:1017D000030724BF624639464EEB0E0E4FF0000B56
:1017E0000018524149414BEB0B0BB2EB080C71EB6B
:1017F00003077BF1000B24BF624639464EEB0E0E09
:101800004FF0000B0018524149414BEB0B0BB2EB70
:10181000080C71EB03077BF1000B24BF62463946CD
:101820004EEB0E0E51EA020718BF46F0010616EB0A
:101830000E7655F1000254F1000103D5BDE889018F
:10184000BDE80088BDE88901BDE80048B6195241ED
:1018500041EB0101A3F10103704780807F7E7D7C15
:101860007B7A7978777676757473727171706F6E32
:101870006E6D6C6C6B6A6A696868676666656464DD
:10188000636362616160605F5F5E5E5D5D5C5C5B67
:101890005B5A5A59595858575756565555555454D6
:1018A000535352525251515050504F4F4F4E4E4D34
:1018B0004D4D4C4C4C4B4B4B4A4A4A494949484880
:1018C00048474747474646464545454444444443C0
:1018D00043434342424242414141002B9C4630D463
:1018E00077002BD01CB54FEA370703B44FF0100038
:1018F0004FF01001BAF1000F06D0BCF1000FDCBFB1
:1019000040F0080040F008014FF000000FBCBDE8B7
:1019100010400BF1010BBBF1010F08BF5FEA170785
:1019200022BF12F1010211F101014FF0004143F118
:10193000000300F0004043EA00007047F9D3570865
:10194000D0E746EA064613F1400F4FEA16461FDD80
:1019500013F1200FDFBF16430A46002120335B42FC
:10196000BED0C3F1200746EA064602FA07F74FEA5F
:10197000164646EA0706C3F1200722FA03F201FAE7
:1019800007F721FA03F14FF0000342EA0702A7E745
:1019900046EA020646EA06464FEA164646EA0106C7
:1019A000BCBF46EA0646360C4FF000034FF000027B
:1019B0004FF0000194E72DE9804C9A46934670B4AD
:1019C00091E8380007C831EA400C48BF34EA430CBC
:1019D00003D5FFF7E6FDFFF780FFF0BCBDE8008C04
:1019E0002DE9804C9A46934670B491E8380007C8B8
:1019F00010F0804F08BF13F0804F03D100F005F8BE
:101A0000FFF76BFFF0BCBDE8008C20F07F4780EA59
:101A1000030023F07F4C07EB0C03A3F57C5300F08D
:101A20000040A3F1FE0392F0000F00F0B38095F0A8
:101A3000000F00F077802DE901494FEA11404FEA8D
:101A4000144621EA004800FB06FC24EA064708FB8E
:101A500006F607FB08F800FB07F718EB06484CEB07
:101A6000164C4FEA124B18EB07484FEA15464CEB61
:101A7000174022EA0B4E0BFB06FC25EA06470EFB3D
:101A800006F607FB0EFE0BFB07F71EEB064E4CEBB4
:101A9000164C4FF000061EEB074E4CEB174B18EBA5
:101AA0000B0840F1000018EB0E0B58EB000840F15A
:101AB00000008F1A4FF000013CBFC943661B14BFE2
:101AC000B5EB040C00213CBFC943F61B4FEA174499
:101AD0004EEA8E0E27EA04454FEA1C4704FB0762D4
:101AE0002CEA074C05FB07F70CFB05F604FB0CFC86
:101AF00016EB074642EB174216EB0C4642EB1C4234
:101B00001BEB060658EB0202414146EA9E0601D550
:101B1000BDE80189B619524141EB0101A3F101036E
:101B2000BDE801894FEA14454FEA114724EA05460A
:101B300021EA074C05FB07F406FB07F70CFB06F14F
:101B400005FB0CFC11EB074144EB17444FEA12472D
:101B500011EB0C4144EB1C4422EA074C05FB07F255
:101B600006FB07F70CFB06F605FB0CFC16EB07461D
:101B700042EB174216EB0C4642EB1C456A1854F137
:101B8000000148BF7047B619524141EB0101A3F172
:101B90000103704795F0000F37D04FEA11424FEA2A
:101BA000144721EA024624EA074C02FB07F106FB30
:101BB00007F70CFB06F402FB0CFC14EB074441EBAB
:101BC00017414FEA154714EB0C4441EB1C4125EA41
:101BD000074C02FB07F506FB07F70CFB06F602FBBA
:101BE0000CFC16EB074645EB174516EB0C4645EB90
:101BF0001C42121951F1000148BF7047B6195241F9
:101C000041EB0101A3F1010370474FEA14454FEA8C
:101C1000114724EA054621EA074C05FB07F106FBBC
:101C200007F70CFB06F24FF0000605FB0CFC12EB6D
:101C3000074241EB174112EB0C4251EB1C4148BFEC
:101C40007047921841EB0101A3F1010370470000B6
:101C50001CB504460121042006F0BAF94FF4804077
:101C6000009000208DF8040003208DF8050002206C
:101C70008DF807006946104803F0B6FF03212820BD
:101C800000F032F921462C2000F02EF900212D2001
:101C900000F02AF9012C03D10A20084908700AE053
:101CA000022C03D114200549087004E0032C02D152
:101CB0002820024908701CBD0008024020000020B6
:101CC00010B52DED0A8B04460B222146062000F0AC
:101CD000E5F820780003617840EA0110001100B2B5
:101CE0002083B4F9180040F25D71081A00EE100A62
:101CF000F8EEC00A9FED631A80EE810AF3EE090A3E
:101D000030EE200A84ED0E0AA0780006E17840EA61
:101D10000140217940EA01200013E060607900066B
:101D2000A17940EA0140E17940EA012000132061F5
:101D3000207A0006617A40EA0140A17A40EA012057
:101D400000136061504890F900000AF0BEFD41ECBC
:101D50001A0BE0680AF0B9FD41EC1C0B9FED4B0B30
:101D600053EC102B0AF0FCFB41EC1B0B53EC1A2B31
:101D70000AF012FE41EC190B464890ED000B53ECB3
:101D8000102B51EC190B0AF007FE41EC180B4248DE
:101D900090ED0C1BB0EE410AF0EE610A53EC102BF3
:101DA00051EC180B0BF004F8C4E90801364890F91F
:101DB00000000AF08AFD41EC1A0B20690AF085FD4B
:101DC00041EC1C0B9FED310B53EC102B0AF0C8FBC0
:101DD00041EC1B0B53EC1A2B0AF0DEFD41EC190B06
:101DE0002C4890ED000B53EC102B51EC190B0AF022
:101DF000D3FD41EC180B284890ED0E1BB0EE410AC4
:101E0000F0EE610A53EC102B51EC180B0AF0D0FFE6
:101E1000C4E90A011C4890F900000AF056FD41ECA3
:101E20001A0B60690AF051FD41EC1C0B9FED170B7A
:101E300053EC102B0AF094FB41EC1B0B53EC1A2BC8
:101E40000AF0AAFD41EC180B124890ED000B53EC80
:101E5000102B51EC180B0AF09FFD41EC190B0E48AA
:101E600090ED101BB0EE410AF0EE610A53EC102B1E
:101E700051EC190B0AF09CFFC4E90C01BDEC0A8B74
:101E800010BD0000CDCC104120000020000000005B
:101E9000A0D21E4168D100089815002070B50646F2
:101EA0000C46154600200E490860012009F002FE8C
:101EB000012000EB46010B4806F0F6FB07E000218D
:101EC000084806F0F1FB2070641C681EC5B2002DA6
:101ED000F5DC01200249086009F0ECFD70BD00004E
:101EE000B40241420030014070B504460D46002066
:101EF00009490860012009F0DDFD6100074806F08E
:101F0000D3FB2946054806F0CFFB01200449C1F860
:101F1000B40209F0CFFD70BDB4024142003001406F
:101F20000000414210B52DED108BB0EE408AF0EE6E
:101F3000608AB0EE419AF0EE619AB0EE42AAF0EEFD
:101F400062AA4B4890ED000B53EC102B51EC1A0B8E
:101F50000AF022FD41EC1B0B464890ED000B53ECC0
:101F6000102B51EC190B0AF017FD41EC1D0B4248E8
:101F700090ED000B53EC102B51EC180B0AF00CFDFC
:101F800041EC1E0B53EC1D2B0AF02EFA41EC1C0BFE
:101F900053EC1B2B0AF028FA384A03C2384890ED5C
:101FA000000B53EC102B51EC1A0B0AF0F5FC41EC32
:101FB0001B0B344890ED000B53EC102B51EC190B1C
:101FC0000AF0EAFC41EC1D0B2F4890ED000B53EC9E
:101FD000102B51EC180B0AF0DFFC41EC1E0B53ECFC
:101FE0001D2B0AF001FA41EC1C0B53EC1B2B0AF0E1
:101FF000FBF9224AC2E90201244890ED000B53ECA0
:10200000102B51EC1A0B0AF0C7FC41EC1C0B2048BA
:1020100090ED000B53EC102B51EC190B0AF0BCFCAB
:1020200041EC1E0B1B4890ED000B53EC102B51ECB8
:10203000180B0AF0B1FC41EC1F0B53EC1E2B0AF0FD
:10204000D3F941EC1D0B53EC1C2B0AF0CDF941ECFC
:102050001B0B114890ED000B53EC102B51EC1B0B9C
:102060000AF0A6FE054AC2E90401BDEC108B10BDC2
:102070008000002078000020700000201015002053
:10208000980000209000002088000020B000002070
:10209000A8000020A000002068D1000810B505F0BD
:1020A00029FA06F089FB10BD00B599B09FEDFE0A34
:1020B0008DED180A9FEDFC0A8DED170A9FEDFB0AC6
:1020C0008DED160AFA4890ED040B8DED080B9FED8F
:1020D000F91B9DED080B08F0BFF98DED0C0BF448D2
:1020E00090ED020B8DED040B9FEDF21B9DED040BAB
:1020F00008F0B2F98DED080BED4890ED000B8DED79
:10210000040B9FEDEC1B9DED040B08F0A5F98DED84
:10211000060B9DED080B53EC102B9DED060B51ECBF
:10212000100B0AF061F9CDE90A019DED0C0B53EC9F
:10213000102B9DED0A0B51EC100B0AF055F9CDE96F
:102140000E019DED0E0B09F013F88DED100B9FEDB8
:10215000DB0B53EC102B9DED100B51EC100B0AF028
:1021600019FD7DD29FEDD70B53EC102B9DED100B7D
:1021700051EC100B0AF0D4FBF3D2CD4890ED020BDA
:102180008DED0E0BD14890ED000B53EC102B9DED17
:102190000E0B51EC100B0AF0FDFC03D2CB4890ED76
:1021A000000B02E0C24890ED020BC14880ED020B2B
:1021B000C64890ED000B51EC100B0AF009F9CDE97F
:1021C0000E01BB4890ED020B8DED0C0B9DED0C0B41
:1021D00053EC102B9DED0E0B51EC100B0AF0DAFCBA
:1021E00007D2BA4890ED000B51EC100B0AF0F0F852
:1021F00002E0AF48C1688068AD4AC2E902011046FA
:1022000090ED0C0B8DED0A0B9FEDB10B53EC102BE9
:102210009DED0A0B51EC100B0AF0BEFBCDE90E014F
:10222000A34890ED020B8DED060B9DED100B53ECCA
:10223000102B9DED060B51EC100B0AF091F9CDE936
:1022400008019DED080B07F08FFC8DED0A0B9FED4B
:10225000A20B53EC102B9DED0A0B51EC100B00E080
:1022600054E00AF099FBCDE90C019DED0E0B53EC07
:10227000102B9DED0C0B51EC100B0AF0B5F88C4AAD
:10228000C2E90C01104690ED100B8DED0A0B9FED8D
:10229000900B53EC102B9DED0A0B51EC100B0AF038
:1022A0007BFBCDE90E01824890ED000B8DED060B16
:1022B0009DED060B51EC100B0AF08AF8CDE90801F0
:1022C0007B4890ED040B8DED060B9DED061B9DEDFF
:1022D000080B07F065FF8DED0A0B9FED7F0B53ECAC
:1022E000102B9DED0A0B51EC100B0AF055FBCDE9BC
:1022F0000C019DED0E0B53EC102B9DED0C0B51ECD6
:10230000100B0AF071F86A4AC2E91001684890EDB2
:10231000100B8DED080B9DED080B08F0C5FE8DED43
:102320000A0B6F4890ED080B8DED080B9DED080B27
:1023300053EC102B9DED0A0B51EC100B0AF02CFB0B
:10234000CDE90E015A4890ED100B8DED080B9DED77
:10235000080B08F01DF88DED0A0B614890ED060B97
:102360008DED080B9DED080B53EC102B9DED0A0B2A
:1023700051EC100B0AF010FBCDE90C019DED0E0B9A
:1023800053EC102B9DED0C0B51EC100B0AF010FDD3
:10239000CDE91401464890ED100B8DED060B9DED37
:1023A000060B07F0F5FF8DED0A0B414890ED0C0B85
:1023B0008DED040B9DED040B08F076FE8DED060B04
:1023C000474890ED080B8DED040B9DED040B53EC8D
:1023D000102B9DED060B51EC100B0AF0DDFACDE948
:1023E00008019DED0A0B53EC102B9DED080B51ECF1
:1023F000100B0AF0D1FACDE90E012D4890ED0C0B2F
:102400008DED040B9DED040B07F0C2FF8DED060B67
:10241000334890ED040B8DED040B9DED040B53EC54
:10242000102B9DED060B51EC100B0AF0B5FACDE91F
:102430000A011F4890ED0C0B8DED020B9DED020B78
:1024400008F032FE8DED060B194890ED100B8DED66
:10245000000B9DED000B08F027FE8DED020B2048D0
:1024600090ED060B8DED000B9DED000B53EC102B4A
:102470009DED020B51EC100B0AF08EFACDE9040130
:102480009DED060B53EC102B9DED040B51EC100B46
:102490000AF082FACDE908019DED0A0B53EC102BEE
:1024A0009DED080B1EE00000CDCC4C3DCDCCCC3DCD
:1024B00010150020000000000000004033333333CB
:1024C00033332340000000000000244068D100089E
:1024D000000000606666EE3F000000A09999A93FE9
:1024E0001002002051EC100B09F07EFFCDE90C0129
:1024F0009DED0E0B53EC102B9DED0C0B51EC100BC6
:1025000009F072FFCDE91201FE4890ED0E0B8DED42
:102510000A0B9FEDFD0B53EC102B9DED0A0B51ECBC
:10252000100B0AF039FACDE90E019DED121B9DED5D
:10253000140B07F035FE8DED0A0B9FEDF50B53ECF8
:10254000102B9DED0A0B51EC100B0AF025FACDE98A
:102550000C019DED0E0B53EC102B9DED0C0B51EC73
:10256000100B09F041FFE74AC2E90E01104690ED59
:102570000E0B8DED060B9DED060B08F095FD8DED18
:102580000A0BE04890ED0C0B8DED020B9DED020B5C
:1025900008F08AFD8DED060BDA4890ED100B8DEDFD
:1025A000020B9DED020B08F07FFD8DED040B9DED00
:1025B000060B53EC102B9DED040B51EC100B0AF0A5
:1025C000EBF9CDE908019DED0A0B53EC102B9DEDC5
:1025D000080B51EC100B0AF0DFF9CDE90E01C948E8
:1025E00090ED0E0B8DED060B9DED060B07F0D0FE6A
:1025F0008DED0A0BC34890ED100B8DED060B9DED94
:10260000060B07F0C5FE8DED080B9DED0A0B53EC94
:10261000102B9DED080B51EC100B0AF0BDF9CDE924
:102620000C019DED0E0B53EC102B9DED0C0B51ECA2
:10263000100B0AF0BDFBB84A03C2B24890ED0E0B76
:102640008DED060B9DED060B07F0A2FE8DED0A0B3E
:10265000AC4890ED0C0B8DED020B9DED020B08F0DC
:1026600023FD8DED060BA74890ED100B8DED020BB1
:102670009DED020B08F018FD8DED040B9DED060B92
:1026800053EC102B9DED040B51EC100B0AF084F968
:10269000CDE908019DED0A0B53EC102B9DED080BC5
:1026A00051EC100B0AF078F9CDE90E01954890ED48
:1026B0000E0B8DED060B9DED060B08F0F5FC8DED78
:1026C0000A0B904890ED100B8DED060B9DED060B5F
:1026D00007F05EFE8DED080B9DED0A0B53EC102B01
:1026E0009DED080B51EC100B0AF056F9CDE90C01E9
:1026F0009DED0E0B53EC102B9DED0C0B51EC100BC4
:1027000009F072FE854A03C27E4890ED0C0B8DEDF8
:102710000A0B9DED0A0B07F03BFE8DED0E0B794881
:1027200090ED100B8DED080B9DED080B08F0BCFC37
:102730008DED0A0B9DED0A0B51EC100B09F048FED4
:10274000CDE90C019DED0E0B53EC102B9DED0C0B08
:1027500051EC100B0AF020F9714A03C2694890ED60
:102760000E0B8DED0A0B9DED0A0B08F09DFC8DED17
:102770000E0B644890ED0C0B8DED080B9DED080BD6
:1027800007F006FE8DED0A0B9DED0A0B51EC100BC8
:1027900009F01EFECDE90C019DED0E0B53EC102B44
:1027A0009DED0C0B51EC100B0AF0F6F85D4A03C2DC
:1027B000544890ED0E0B8DED0A0B9DED0A0B07F0C2
:1027C000E7FD8DED0E0B4F4890ED0C0B8DED0A0BD8
:1027D0009DED0A0B07F0DCFD8DED0C0B9DED0E0B56
:1027E00053EC102B9DED0C0B51EC100B0AF0D4F8B0
:1027F0004D4A03C2434890ED0C0B8DED0E0B9DED41
:102800000E0B08F051FC494880ED000B3D4890ED5F
:102810000E0B8DED060B9DED060B08F045FC8DEDC6
:102820000A0B384890ED0C0B8DED020B9DED020B61
:1028300008F03AFC8DED060B324890ED100B8DED53
:10284000020B9DED020B07F0A3FD8DED040B9DED3A
:10285000060B53EC102B9DED040B51EC100B0AF002
:102860009BF8CDE908019DED0A0B53EC102B9DED73
:10287000080B51EC100B0AF08FF8CDE90E0121483E
:1028800090ED0E0B8DED060B9DED060B07F080FD18
:102890008DED0A0B1B4890ED100B8DED060B9DED99
:1028A000060B08F001FC8DED080B9DED0A0B53ECB7
:1028B000102B9DED080B51EC100B0AF06DF8CDE9D3
:1028C0000C019DED0E0B53EC102B9DED0C0B51EC00
:1028D000100B09F089FD164A03C20A4890ED0E0B51
:1028E0008DED060B9DED060B07F052FD8DED0A0BED
:1028F000044890ED0C0B8DED020B9DED020B08F0E2
:10290000D3FB17E010150020000000C0CCCCEC3F3A
:10291000000000A09999B93F7000002088000020B5
:10292000A00000207800002090000020A8000020D7
:10293000800000208DED060BE94890ED100B8DED29
:10294000020B9DED020B07F023FD8DED040B9DEDB9
:10295000060B53EC102B9DED040B51EC100B0AF001
:102960001BF8CDE908019DED0A0B53EC102B9DEDF2
:10297000080B51EC100B0AF00FF8CDE90E01D84806
:1029800090ED0E0B8DED060B9DED060B08F08CFB0C
:102990008DED0A0BD24890ED100B8DED060B9DEDE1
:1029A000060B08F081FB8DED080B9DED0A0B53EC37
:1029B000102B9DED080B51EC100B09F0EDFFCDE94C
:1029C0000C019DED0E0B53EC102B9DED0C0B51ECFF
:1029D000100B0AF0EDF9C34A03C2C14890ED0C0B8D
:1029E0008DED0A0B9DED0A0B07F0D2FC8DED0E0B61
:1029F000BB4890ED100B8DED0A0B9DED0A0B07F017
:102A0000C7FC8DED0C0B9DED0E0B53EC102B9DEDCB
:102A10000C0B51EC100B09F0BFFFB34A03C2B348D3
:102A200090ED000B53EC102B9FEDB10B51EC100B04
:102A300009F0DAFCCDE90801AF4890ED000B53EC4A
:102A4000102B9DED080B51EC100B09F0CDFCCDE9DE
:102A50000A01A54890ED000B53EC102B9DED0A0BDD
:102A600051EC100B09F0C0FCCDE90C019DED0C0BF5
:102A700008F07EFB8DED0E0B9FEDA00B53EC102BA1
:102A80009DED0E0B51EC100B09F086FF9D4A03C221
:102A9000964890ED000B53EC102B9FED950B51ECED
:102AA000100B09F0A1FCCDE90801934890ED000B53
:102AB00053EC102B9DED080B51EC100B0AF078F93C
:102AC000CDE90A01884890ED000B53EC102B9DEDE9
:102AD0000A0B51EC100B0AF06BF9CDE90C019DEDDE
:102AE0000C0B08F045FB8DED0E0B9FED840B53ECAA
:102AF000102B9DED0E0B51EC100B09F04DFF814A90
:102B0000C2E90201794890ED000B53EC102B9FEDC8
:102B1000780B51EC100B0AF04BF9CDE9080176481F
:102B200090ED000B53EC102B9DED080B51EC100BAE
:102B300009F05AFCCDE90A016B4890ED000B53EC0B
:102B4000102B9DED0A0B51EC100B0AF031F9CDE979
:102B50000C019DED0C0B08F00BFB8DED0E0B9FEDAA
:102B6000670B53EC102B9DED0E0B51EC100B09F085
:102B700013FF644AC2E904015C4890ED000B53EC7A
:102B8000102B9FED5B0B51EC100B0AF011F9CDE906
:102B90000801594890ED000B53EC102B9DED080BEC
:102BA00051EC100B0AF004F9CDE90A014E4890ED02
:102BB000000B53EC102B9DED0A0B51EC100B09F0A0
:102BC00013FCCDE90C019DED0C0B08F0D1FA8DED55
:102BD0000E0B9FED4A0B53EC102B9DED0E0B51ECA1
:102BE000100B09F0D9FE474AC2E906013D4890EDB5
:102BF000000B53EC102B444890ED000B51EC100BE4
:102C00000AF0D6F89FED410B53EC102BCDE90E01E5
:102C10009DED0E0B51EC100B09F082FE0DD23948E0
:102C200090ED020B8DED0E0B9DED0E0B51EC100B8C
:102C300009F0CEFB334AC2E90201364890ED000BA1
:102C400053EC102B344890ED000B51EC100B0AF0B4
:102C5000AFF89FED2E0B53EC102BCDE90E019DED3F
:102C60000E0B51EC100B09F05BFE0DD2254890EDD8
:102C7000040B8DED0E0B9DED0E0B51EC100B09F0BE
:102C8000A7FB204AC2E90401244890ED000B53EC55
:102C9000102B234890ED000B51EC100B0AF088F834
:102CA0009FED1A0B53EC102BCDE90E019DED0E0B91
:102CB00051EC100B09F034FE0DD2124890ED060BCA
:102CC0008DED0E0B9DED0E0B51EC100B09F080FB02
:102CD0000C4AC2E906019DED100B19B000BD0000C1
:102CE0001015002098000020B00000207000002087
:102CF000000000000000F03F9000002000000000F5
:102D00000000E03FE8150020A800002000000000BF
:102D100000000000A00000208000002078000020BB
:102D20008800002010B52DED060BA2B09FEDFE0B24
:102D300053EC102B9DED220B51EC100B09F02CFEE7
:102D40009FEDFB0B53EC102BCDE910019DED100B0B
:102D500051EC100B09F004FCCDE91C019FEDF20BC6
:102D600053EC102B9DED240B51EC100B09F014FECD
:102D70009FEDEF0B53EC102BCDE910019DED100BE7
:102D800051EC100B09F0ECFBCDE91E019FEDE60BB9
:102D900053EC102B9DED260B51EC100B09F0FCFDB4
:102DA0009FEDE30B53EC102BCDE910019DED100BC3
:102DB00051EC100B09F0D4FBCDE92001DE4890ED79
:102DC000060B8DED0A0B9DED200B8DED080B9DED97
:102DD0000A0B53EC102B9DED080B51EC100B09F076
:102DE000DBFDCDE90E01D44890ED040B8DED060B13
:102DF0009DED1E0B8DED040B9DED060B53EC102B82
:102E00009DED040B51EC100B09F0C6FDCDE90A0154
:102E10009DED1C0B8DED040B9DED040B51EC100B87
:102E200009F0D6FACDE90601C34890ED020B8DED0D
:102E3000040B9DED040B53EC102B9DED060B51EC98
:102E4000100B09F0A9FDCDE908019DED0A0B53EC2B
:102E5000102B9DED080B51EC100B09F0A9FFCDE9EB
:102E60000C019DED0E0B53EC102B9DED0C0B51EC5A
:102E7000100B09F09DFF9FEDB10B53EC102BCDE92A
:102E800010019DED100B51EC100B09F085FDCDE903
:102E90001401A94890ED060B8DED0A0B9DED1E0B5C
:102EA0008DED080B9DED0A0B53EC102B9DED080BDF
:102EB00051EC100B09F070FDCDE90E019E4890ED2C
:102EC000040B8DED060B9DED200B8DED040B9DEDA0
:102ED000060B53EC102B9DED040B51EC100B09F07D
:102EE0005BFDCDE90A01944890ED000B8DED060BDA
:102EF0009DED1C0B8DED040B9DED060B53EC102B83
:102F00009DED040B51EC100B09F046FDCDE90801D5
:102F10009DED0A0B53EC102B9DED080B51EC100BA3
:102F200009F062FACDE90C019DED0E0B53EC102B6C
:102F30009DED0C0B51EC100B09F03AFF9FED7F0B50
:102F400053EC102BCDE910019DED100B51EC100B43
:102F500009F022FDCDE91601774890ED060B8DEDC5
:102F60000A0B9DED1C0B8DED080B9DED0A0B53EC30
:102F7000102B9DED080B51EC100B09F00DFDCDE968
:102F80000E016D4890ED020B8DED060B9DED200BB3
:102F90008DED040B9DED060B53EC102B9DED040BFA
:102FA00051EC100B09F0F8FCCDE90A01624890EDF4
:102FB000000B8DED060B9DED1E0B8DED040B9DEDB5
:102FC000060B53EC102B9DED040B51EC100B09F08C
:102FD000E3FCCDE908019DED0A0B53EC102B9DEDB0
:102FE000080B51EC100B09F0E3FECDE90C019DED4F
:102FF0000E0B53EC102B9DED0C0B51EC100B09F04C
:10300000F3F99FED4E0B53EC102BCDE910019DED24
:10301000100B51EC100B09F0BFFCCDE9180146482C
:1030200090ED040B8DED0A0B9DED1C0B8DED080B47
:103030009DED0A0B53EC102B9DED080B51EC100B82
:1030400009F0AAFCCDE90E013B4890ED020B8DED95
:10305000060B9DED1E0B8DED040B9DED060B53EC49
:10306000102B9DED040B51EC100B09F095FCCDE9F4
:103070000A01314890ED000B8DED060B9DED200B04
:103080008DED040B9DED060B53EC102B9DED040B09
:1030900051EC100B09F080FCCDE908019DED0A0B05
:1030A00053EC102B9DED080B51EC100B09F09CF923
:1030B000CDE90C019DED0E0B53EC102B9DED0C0B8F
:1030C00051EC100B09F074FE9FED1C0B53EC102B10
:1030D000CDE910019DED100B51EC100B09F05CFCDB
:1030E000CDE91A011748006809F04CFFCDE90E013F
:1030F0009DED140B8DED0C0B9DED0C0B53EC102B7B
:103100009DED0E0B51EC100B09F046FCCDE91001C2
:10311000094890ED000B8DED0E0B9DED0E0B53EC61
:10312000102B9DED100B0FE050455254FB21094030
:103130000000000000806640E8150020000000004C
:103140000000E03F5C00002051EC100B09F04CF94E
:10315000FE4A03C2FE48006809F014FFCDE90E01E3
:103160009DED160B8DED0C0B9DED0C0B53EC102B08
:103170009DED0E0B51EC100B09F00EFCCDE910018A
:10318000F24890ED020B8DED0E0B9DED0E0B53EC06
:10319000102B9DED100B51EC100B09F025F9EB4AAB
:1031A000C2E90201EA48006809F0ECFECDE90E012F
:1031B0009DED180B8DED0C0B9DED0C0B53EC102BB6
:1031C0009DED0E0B51EC100B09F0E6FBCDE9100163
:1031D000DE4890ED040B8DED0E0B9DED0E0B53ECC8
:1031E000102B9DED100B51EC100B09F0FDF8D74A98
:1031F000C2E90401D648006809F0C4FECDE90E0119
:103200009DED1A0B8DED0C0B9DED0C0B53EC102B63
:103210009DED0E0B51EC100B09F0BEFBCDE910013A
:10322000CA4890ED060B8DED0E0B9DED0E0B53EC89
:10323000102B9DED100B51EC100B09F0D5F8C34A83
:10324000C2E90601104690ED060B8DED0C0B90EDDA
:10325000060B8DED0A0B9DED0C0B53EC102B9DED29
:103260000A0B51EC100B09F097FBCDE91001B748A0
:1032700090ED040B8DED080B90ED040B8DED060B1E
:103280009DED080B53EC102B9DED060B51EC100B34
:1032900009F082FBCDE90C01AC4890ED020B8DEDFD
:1032A000040B90ED020B8DED020B9DED040B53EC26
:1032B000102B9DED020B51EC100B09F06DFBCDE9CD
:1032C0000801A24890ED000B8DED040B90ED000B72
:1032D0008DED020B9DED040B53EC102B9DED020BBD
:1032E00051EC100B09F058FBCDE906019DED080BE0
:1032F00053EC102B9DED060B51EC100B09F074F8FC
:10330000CDE90A019DED0C0B53EC102B9DED0A0B42
:1033100051EC100B09F068F8CDE90E019DED100B92
:1033200053EC102B9DED0E0B51EC100B09F05CF8DB
:10333000CDE912019DED120B07F01AFF8DED120B76
:10334000824890ED000B8DED100B9DED120B53ECB0
:10335000102B9DED100B51EC100B09F001F97B4A7D
:1033600003C27A4890ED020B8DED100B9DED120B10
:1033700053EC102B9DED100B51EC100B09F0F0F8F5
:10338000724AC2E90201104690ED040B8DED100B5C
:103390009DED120B53EC102B9DED100B51EC100B0F
:1033A00009F0DEF8694AC2E90401104690ED060B07
:1033B0008DED100B9DED120B53EC102B9DED100BB2
:1033C00051EC100B09F0CCF8604AC2E90601104636
:1033D00090ED060B8DED080B90ED040B8DED060BBB
:1033E0009DED080B53EC102B9DED060B51EC100BD3
:1033F00009F0D2FACDE90C01544890ED020B8DEDA5
:10340000080B90ED000B8DED060B9DED080B53ECBA
:10341000102B9DED060B51EC100B09F0BDFACDE918
:103420000A019DED0C0B53EC102B9DED0A0B51EC9A
:10343000100B08F0D9FF9FED470B53EC102BCDE993
:103440000E019DED0E0B51EC100B09F0A5FACDE924
:1034500010019DED100B06F087FB404880ED0C0B32
:103460003A4890ED060B8DED080B9FED3A1B9DED54
:10347000080B06F0F1FF8DED0C0B344890ED040BBA
:103480008DED040B9FED331B9DED040B06F0E4FF67
:103490008DED080B2D4890ED020B8DED000B9FED8F
:1034A0002D1B9DED000B06F0D7FF8DED040B27487B
:1034B00090ED000B8DED000B9FED261B9DED000B9D
:1034C00006F0CAFF8DED020B9DED040B53EC102BA3
:1034D0009DED020B51EC100B09F06AFCCDE90601E1
:1034E0009DED080B53EC102B9DED060B51EC100BD2
:1034F00008F07AFFCDE90A019DED0C0B53EC102B7F
:103500009DED0A0B51EC100B09F052FCCDE91001B6
:103510000E4890ED060B8DED060B90ED000B8DED3A
:10352000040B9DED060B53EC102B9DED040B51ECA1
:10353000100B09F031FACDE90A01044890ED040BB3
:103540008DED060B90ED020B0AE00000E81500205F
:103550005C0000200000000000000040101500206A
:103560008DED040B9DED060B53EC102B9DED040B24
:1035700051EC100B09F010FACDE908019DED0A0B92
:1035800053EC102B9DED080B51EC100B09F010FCC7
:103590009FEDFE0B53EC102BCDE90C019DED0C0BB8
:1035A00051EC100B09F0F8F9CDE90E019DED101B5F
:1035B0009DED0E0B06F0F4FDF64880ED0E0BF6487F
:1035C00090ED060B8DED080B1FED1E1B9DED080BFE
:1035D00006F042FF8DED0C0BEF4890ED040B8DEDE6
:1035E000040B1FED241B9DED040B06F035FF8DED44
:1035F000080BE94890ED020B8DED000B1FED2B1B26
:103600009DED000B06F028FF8DED040BE24890EDD8
:10361000000B8DED000B1FED311B9DED000B06F037
:103620001BFF8DED020B9DED040B53EC102B9DED5C
:10363000020B51EC100B09F0BBFBCDE906019DED2F
:10364000080B53EC102B9DED060B51EC100B09F001
:10365000AFFBCDE90A019DED0C0B53EC102B9DED5A
:103660000A0B51EC100B08F0BFFECDE91001CA485F
:1036700090ED040B8DED060B90ED000B8DED040B22
:103680009DED060B53EC102B9DED040B51EC100B34
:1036900009F082F9CDE90A01BF4890ED060B8DEDE6
:1036A000060B90ED020B8DED040B9DED060B53EC1C
:1036B000102B9DED040B51EC100B09F06DF9CDE9C9
:1036C00008019DED0A0B53EC102B9DED080B51ECFE
:1036D000100B09F06DFB9FEDAD0B53EC102BCDE9FA
:1036E0000C019DED0C0B51EC100B09F055F9CDE9D7
:1036F0000E019DED101B9DED0E0B06F051FDA54832
:1037000080ED100B90ED0E0B8DED080B9DED080B71
:1037100007F0CAFC8DED0C0B9E4890ED0C0B8DED67
:10372000040B9DED040B07F0BFFC8DED080B9948D1
:1037300090ED100B8DED040B9DED040B07F0B4FC28
:103740008DED060B9DED080B53EC102B9DED060B3C
:1037500051EC100B09F020F9CDE90A019DED0C0B9D
:1037600053EC102B9DED0A0B51EC100B09F014F9E2
:10377000CDE91001874890ED0E0B8DED080B9DED06
:10378000080B06F005FE8DED0C0B824890ED100B3A
:103790008DED080B9DED080B06F0FAFD8DED0A0B83
:1037A0009DED0C0B53EC102B9DED0A0B51EC100B07
:1037B00009F0F2F8CDE90E019DED100B53EC102B42
:1037C0009DED0E0B51EC100B09F0F2FA734A03C297
:1037D000704890ED0E0B8DED080B9DED080B06F07B
:1037E000D7FD8DED0C0B6B4890ED0C0B8DED040BA4
:1037F0009DED040B07F058FC8DED080B654890ED2E
:10380000100B8DED040B9DED040B07F04DFC8DEDC1
:10381000060B9DED080B53EC102B9DED060B51ECA8
:10382000100B09F0B9F8CDE90A019DED0C0B53EC32
:10383000102B9DED0A0B51EC100B09F0ADF8CDE902
:103840001001544890ED0E0B8DED080B9DED080B0B
:1038500007F02AFC8DED0C0B4E4890ED100B8DED12
:10386000080B9DED080B06F093FD8DED0A0B9DED09
:103870000C0B53EC102B9DED0A0B51EC100B09F0C7
:103880008BF8CDE90E019DED100B53EC102B9DED47
:103890000E0B51EC100B08F0A7FD414A03C23D4846
:1038A00090ED0C0B8DED0C0B9DED0C0B06F070FDEF
:1038B0008DED100B374890ED100B8DED0A0B9DED43
:1038C0000A0B07F0F1FB8DED0C0B9DED0C0B51EC91
:1038D000100B08F07DFDCDE90E019DED100B53ECB2
:1038E000102B9DED0E0B51EC100B09F055F82D4AE5
:1038F00003C2284890ED0E0B8DED0C0B9DED0C0BCB
:1039000007F0D2FB8DED100B224890ED0C0B8DEDE6
:103910000A0B9DED0A0B06F03BFD8DED0C0B9DEDAA
:103920000C0B51EC100B08F053FDCDE90E019DED91
:10393000100B53EC102B9DED0E0B51EC100B09F0FE
:103940002BF8194A03C2134890ED0E0B8DED0C0BAA
:103950009DED0C0B06F01CFD8DED100B0D4890ED50
:103960000C0B8DED0C0B9DED0C0B06F011FD8DED90
:103970000E0B9DED100B53EC102B9DED0E0B51EC2F
:10398000100B09F009F8094A03C211E00000000019
:10399000000000C010150020E81500207000002075
:1039A00088000020A0000020780000209000002067
:1039B0007E4890ED0C0B8DED100B9DED100B07F07C
:1039C00073FB7B4880ED000B784890ED0E0B8DED7E
:1039D000080B9DED080B07F067FB8DED0C0B734892
:1039E00090ED0C0B8DED040B9DED040B07F05CFBD3
:1039F0008DED080B6D4890ED100B8DED040B9DEDDA
:103A0000040B06F0C5FC8DED060B9DED080B53EC89
:103A1000102B9DED060B51EC100B08F0BDFFCDE90E
:103A20000A019DED0C0B53EC102B9DED0A0B51EC94
:103A3000100B08F0B1FFCDE910015C4890ED0E0BC2
:103A40008DED080B9DED080B06F0A2FC8DED0C0B27
:103A5000564890ED100B8DED080B9DED080B07F00F
:103A600023FB8DED0A0B9DED0C0B53EC102B9DED04
:103A70000A0B51EC100B08F08FFFCDE90E019DED04
:103A8000100B53EC102B9DED0E0B51EC100B08F0AE
:103A9000ABFC484A03C2454890ED0E0B8DED080B78
:103AA0009DED080B06F074FC8DED0C0B3F4890ED7E
:103AB0000C0B8DED040B9DED040B07F0F5FA8DED6D
:103AC000080B3A4890ED100B8DED040B9DED040BA7
:103AD00006F05EFC8DED060B9DED080B53EC102BF4
:103AE0009DED060B51EC100B08F056FFCDE90A01D5
:103AF0009DED0C0B53EC102B9DED0A0B51EC100BB4
:103B000008F04AFFCDE91001284890ED0E0B8DED2D
:103B1000080B9DED080B07F0C7FA8DED0C0B234841
:103B200090ED100B8DED080B9DED080B07F0BCFA26
:103B30008DED0A0B9DED0C0B53EC102B9DED0A0B3C
:103B400051EC100B08F028FFCDE90E019DED100B94
:103B500053EC102B9DED0E0B51EC100B09F028F9D6
:103B6000154A03C2114890ED0C0B8DED0C0B9DED29
:103B70000C0B06F00DFC8DED100B0C4890ED100BAE
:103B80008DED0C0B9DED0C0B06F002FC8DED0E0B7C
:103B90009DED100B53EC102B9DED0E0B51EC100B0B
:103BA00008F0FAFE054A03C228B010BD1015002027
:103BB000A80000208000002098000020B000002015
:103BC00010B503F097FC04F0F7FD10BD7CB5054679
:103BD0000C460121042004F0FBF90021084600F006
:103BE00033FAB6227E21002000F060FAB6221421BA
:103BF000002000F05BFA012007F04FFF002108468B
:103C000000F022FA00227C21104600F04FFA012039
:103C100007F043FFA9224021002000F047FA2A467E
:103C20004121002000F042FA04227D21002000F012
:103C30003DFA22460F21012000F038FA0622102119
:103C4000012000F033FA2820009000208DF80400B5
:103C500003208DF8050002208DF8070069461D48F5
:103C600001F0C2FF1DB906201B49088010E0012D9C
:103C700003D10C20184908800AE0022D03D1182036
:103C80001549088004E0032D02D130201249088034
:103C9000042C03D1FA201149088019E0032C04D127
:103CA0004FF4FA700D49088012E0022C04D14FF451
:103CB0007A700A4908800BE0012C04D14FF4FA60B5
:103CC0000649088004E01CB94FF47A600349088073
:103CD0007CBD0000000802402200002024000020DB
:103CE00010B52DED0A8B0446062322461221002032
:103CF00000F070F92078617840EA012000B2E0809D
:103D0000A078E17840EA012000B220812079617931
:103D100040EA012000B260810223224622210020D5
:103D200000F058F96078217840EA01204011A4F8A9
:103D30004800B4F9480000EE100AF8EEC00AB4EEEC
:103D4000001AB3EE070A00EE810A10EE101A0846B8
:103D500009F018F9C4E914010623224602210120C2
:103D600000F038F92078617840EA012000B220851F
:103D7000A078E17840EA012000B26085207961797D
:103D800040EA012000B2A0858B48B0F9000008F09D
:103D90009CFD41EC1A0BB4F9060008F096FD41ECCD
:103DA0001C0B9FED860B53EC102B08F0D9FB41EC5C
:103DB0001B0B53EC1A2B08F0EFFD41EC190B9FED98
:103DC000810B53EC102B08F0E7FD41EC180B7F48FA
:103DD00090ED001BB0EE410AF0EE610A53EC102B9F
:103DE00051EC180B08F0E4FFC4E904017248B0F983
:103DF000000008F06AFD41EC1A0BB4F9080008F065
:103E000064FD41EC1C0B9FED6D0B53EC102B08F087
:103E1000A7FB41EC1B0B53EC1A2B08F0BDFD41EC4A
:103E2000190B9FED680B53EC102B08F0B5FD41EC1E
:103E3000180B664890ED021BB0EE410AF0EE610AE5
:103E400053EC102B51EC180B08F0B2FFC4E906013B
:103E50005948B0F9000008F038FD41EC1A0BB4F9EC
:103E60000A0008F032FD41EC1C0B9FED540B53ECA3
:103E7000102B08F075FB41EC1B0B53EC1A2B08F0D0
:103E80008BFD41EC190B9FED4F0B53EC102B08F001
:103E900083FD41EC180B4D4890ED041BB0EE410A38
:103EA000F0EE610A53EC102B51EC180B08F080FF78
:103EB000C4E908014648B0F9000008F006FD41ECED
:103EC000190BB4F9280008F000FD41EC1B0B9FED25
:103ED0003B0B53EC102B08F043FB41EC1A0B53EC5B
:103EE000192B08F059FD41EC180B384890ED061BD2
:103EF000B0EE410AF0EE610A53EC102B51EC180BB6
:103F000008F056FFC4E90C013148B0F9000008F090
:103F1000DCFC41EC190BB4F92A0008F0D6FC41ECAA
:103F20001B0B9FED260B53EC102B08F019FB41ECFB
:103F30001A0B53EC192B08F02FFD41EC180B2348FA
:103F400090ED081BB0EE410AF0EE610A53EC102B25
:103F500051EC180B08F02CFFC4E90E011C48B0F915
:103F6000000008F0B2FC41EC190BB4F92C0008F089
:103F7000ACFC41EC1B0B9FED110B53EC102B08F02C
:103F8000EFFA41EC1A0B53EC192B08F005FD41EC4C
:103F9000180B0E4890ED0A1BB0EE410AF0EE610AD4
:103FA00053EC102B51EC180B08F002FFC4E9100180
:103FB000BDEC0A8B10BD00002200002000000000B4
:103FC000E0FFEF4005A3923A019D234098150020A1
:103FD000240000202DE9F04104460F4615461E46F8
:103FE0001CB900201649086003E00020144908317C
:103FF0000860012007F05EFD47F08001114804F0E1
:1040000053FB1CB900210F4804F04EFB07E00021D0
:104010000C4804F049FB28706D1C701EC6B2002EBF
:10402000F5DC1CB901200649086003E001200449C1
:1040300008310860012007F03DFDBDE8F081000077
:10404000880241420030014070B504460D461CB95B
:1040500000201349086003E000201149083108607E
:1040600045F080010F4804F01FFB1CB900210D48EA
:1040700004F01AFB00210B4804F016FB0A490870F3
:104080001CB901200649086003E0012004490831F9
:104090000860012007F00EFD0348007870BD0000A5
:1040A00088024142003001402600002070B50446DD
:1040B0000D4616461CB900200F49086003E0002099
:1040C0000D4908310860012007F0F4FC05F07F017C
:1040D0000A4804F0E9FA3146084804F0E5FA1CB948
:1040E00001200549086003E0012003490831086008
:1040F0000A2007F0DFFC70BD880241420030014019
:104100002DE9F04F2DED048B87B006460C46B6F82E
:104110000EA0A07B80030FFA80F999FBFAF0A0F5BE
:1041200080401FFA80FB0FFA8BF515FB05F7384628
:10413000F91707EB5161C91194F90D20514306910C
:10414000207BC0010590059815FB00F00490049AAF
:1041500006998818C11700EBD151491201F5801159
:10416000039194F90200A0300290DDE9022101FBE5
:1041700002F0C11700EB115109130191B6F90800C3
:10418000019900FB01F840464FEAE87108EBD14184
:1041900049130DB294F9001005EBC100C11700EBF3
:1041A00011710D11284608F090FB41EC190B9FEDA1
:1041B0000A0B53EC102B08F0D3F941EC180B9FEDD0
:1041C000080B53EC102B08F0E7FB41EC100B07B089
:1041D000BDEC048BBDE8F08F000000000000B04093
:1041E00000000000005094402DE9F04F2DED048BAD
:1041F00085B006460C46B6F80E90E089800390FB29
:10420000F9F004900498A0F580401FFA80FA0FFAA4
:104210008AF515FB05F73846F91707EB5161C91107
:1042200094F90D2051430391207B4FEAC01B039961
:1042300015FB0B10C11700EBD1514912029194F9F3
:104240000300A0300190029901F58011019A01FB51
:1042500002F0C11700EB115109130091B6F90A00E1
:10426000009900FB01F840464FEAE87108EBD141A4
:1042700049130DB294F9011005EBC100C11700EB11
:1042800011710D11284608F020FB41EC190B9FED30
:104290000A0B53EC102B08F063F941EC180B9FED5F
:1042A000080B53EC102B08F077FB41EC100B05B01A
:1042B000BDEC048BBDE8F08F000000000000B040B2
:1042C00000000000005094402DE9F05F2DED048BBC
:1042D00005460C46E889E189401A0FFA80F92189E0
:1042E00011FB09F0C11700EB91718E10B5F90C00AC
:1042F000B4F90A10401AC703A088E98909B2490035
:1043000000FB01F808F50040C11700EB11414FEA2E
:10431000214AB81BB4F90610514490FBF1FB5846F2
:1043200008F0D3FA41EC190B9FED090B53EC102B5D
:1043300008F016F941EC180B9FED070B53EC102B0E
:1043400008F02AFB41EC100BBDEC048BBDE8F09F9C
:1043500000000000C0FFDF40000000000088B34004
:1043600010B5012007F0A6FB82214B2000F04EF98A
:104370000A2007F092FB01214B2000F047F90A20A8
:1043800007F08BFB00214E2000F040F9074800F0B9
:10439000DBF81721512000F039F95221084600F0CE
:1043A00035F928214C2000F031F910BD38020020E9
:1043B00010B52DED048B044608222146422000F062
:1043C0009DF82078617840EA012000B22081B4F99C
:1043D0000800C0102081A078E17840EA012000B2F6
:1043E0006081B4F90A00C01060812079617940EAE7
:1043F000012000B2A081B4F90C004010A081A07986
:10440000E17940EA01208010E0813A492046FFF737
:1044100077FEB0EE409AF0EE609A374890ED001BC0
:10442000B0EE410AF0EE610A53EC102B51EC190B7F
:1044300008F0BEFC41EC180B2F4890ED061BB0EEC7
:10444000410AF0EE610A53EC102B51EC180B08F006
:10445000A3FAC4E9040127492046FFF7C5FEB0EEE0
:10446000409AF0EE609A244890ED021BB0EE410AAB
:10447000F0EE610A53EC102B51EC190B08F098FC8C
:1044800041EC180B1C4890ED081BB0EE410AF0EE11
:10449000610A53EC102B51EC180B08F07DFAC4E9BB
:1044A000060114492046FFF70FFFB0EE409AF0EEE8
:1044B000609A114890ED041BB0EE410AF0EE610ADB
:1044C00053EC102B51EC190B08F072FC41EC180B5B
:1044D000094890ED0A1BB0EE410AF0EE610A53EC78
:1044E000102B51EC180B08F057FAC4E90801BDEC89
:1044F000048B10BD380200204802002070B506462B
:104500000C46154600200E490860012007F0D2FA3B
:1045100046F080010B4804F0C7F807E00021094885
:1045200004F0C2F82070641C681EC5B2002DF5DCD2
:104530000120034908600A2007F0BCFA70BD0000A2
:10454000800241420030014030B585B00446002071
:104550000490039000900190029000254FF47A702F
:1045600007F09BFA022204A95D20FFF7C7FF04228F
:1045700003A96220FFF7C2FF0A2269466820FFF7FD
:10458000BDFF9DF8100040B220709DF8110040B2B0
:1045900060709DF80E0040B2A0709DF80F0040B210
:1045A000E0709DF8030005029DF802002843A080FA
:1045B0009DF8010005029DF80000284300B2E0804C
:1045C0009DF8070005029DF80600284300B22081EF
:1045D0009DF80D0005029DF80C00284300B2608193
:1045E0009DF8090020739DF8080040B260739DF8A3
:1045F000050000F07F004FF6FF7101EA00259DF8ED
:1046000004002843E08105B030BD000070B50446C9
:104610000D4600200A490860012007F04BFA04F01B
:104620007F01084804F040F82946064804F03CF8A9
:1046300001200549C1F880020A2007F03BFA70BD4D
:1046400080024142003001400000414230B52DED72
:10465000048B87B004460D46152201A9312000F0D5
:1046600009FC9DF804009DF8051040EA0120208017
:104670009DF806009DF8071040EA012060809DF833
:10468000080040B220719DF809009DF80A1040EA28
:10469000012000B2E0809DF80B009DF80C1040EA6C
:1046A000012000B220819DF80D0040B2A0729DF85B
:1046B0000E0040B2E0729DF80F009DF8101040EA25
:1046C0000120A0819DF811009DF8121040EA012000
:1046D000E0819DF8130040B220749DF8140040B2B0
:1046E00060749DF815009DF8161040EA012000B294
:1046F00060829DF8170040B220759DF8180040B206
:1047000060759FED800BB0EE408AF0EE608A2088E5
:1047100008F0F2F841EC190B53EC182B07F020FFCE
:10472000C5E900019FED790BB0EE408AF0EE608A9A
:10473000608808F0E1F841EC190B53EC182B07F0F6
:104740000FFFC5E902019FED730BB0EE408AF0EE5A
:10475000608A94F9040008F0B8F841EC190B53ECA6
:10476000182B07F0FDFEC5E904019FED6C0BB0EEC0
:10477000408AF0EE608AB4F90610A1F5804008F096
:10478000A4F841EC190B53EC182B07F0E9FEC5E92E
:1047900006019FED640BB0EE408AF0EE608AB4F93A
:1047A0000810A1F5804008F090F841EC190B53EC8B
:1047B000182B07F0D5FEC5E908019FED5C0BB0EEA4
:1047C000408AF0EE608A94F90A0008F07EF841EC25
:1047D000190B53EC182B07F0C3FEC5E90A019FED36
:1047E000550BB0EE408AF0EE608A94F90B0008F0A9
:1047F0006CF841EC190B53EC182B07F0B1FEC5E92E
:104800000C019FED4E0BB0EE408AF0EE608AA0895D
:1048100008F072F841EC190B53EC182B07F0A0FECE
:10482000C5E90E019FED470BB0EE408AF0EE608ABD
:10483000E08908F061F841EC190B53EC182B07F0F4
:104840008FFEC5E910019FED410BB0EE408AF0EEFE
:10485000608A94F9100008F038F841EC190B53EC19
:10486000182B07F07DFEC5E912019FED3A0BB0EE63
:10487000408AF0EE608A94F9110008F026F841ECC5
:10488000190B53EC182B07F06BFEC5E914019FEDD3
:10489000210BB0EE408AF0EE608AB4F9120008F005
:1048A00014F841EC190B53EC182B07F059FEC5E92D
:1048B00016019FED180BB0EE408AF0EE608A94F975
:1048C000140008F002F841EC190B53EC182B07F018
:1048D00047FEC5E918019FED210BB0EE408AF0EECE
:1048E000608A94F9150007F0F0FF41EC190B53ECC6
:1048F000182B07F035FEC5E91A0107B0BDEC048B93
:1049000030BD0000000000000000703F000000000B
:104910000000D041000000000000F0420000000054
:1049200000003041000000000000C0410000000015
:104930000000F041000000000000404200000000C4
:104940000000C03F000000000000504000000000D8
:1049500000007040000000000000E0400000000087
:104960000000004410B514491448FFF76FFEB6214B
:104970007E2000F033FB012007F08FF801211C207E
:1049800000F02CFB01211D2000F028FB02211F203C
:1049900000F024FB33211B2000F020FB142007F043
:1049A0007CF89FED070B084880ED000B00F06CF8D9
:1049B000054880ED000B10BD700300205803002057
:1049C00000000000000000003000002010B52DEDB8
:1049D0000C8B9FED260BB0EE408AF0EE608A9FEDC7
:1049E000250BB0EE40AAF0EE60AA53EC1A2B51EC66
:1049F000180B07F0F9FC41EC1B0B53EC1B2B51EC93
:104A0000180B07F0ADFD41EC190B53EC192B9FED82
:104A10001B0B51EC100B08F0CBF941EC1D0B1948A6
:104A200090ED201BB0EE410AF0EE610A53EC102B22
:104A300051EC1D0B07F0B0FF41EC1B0B00F024F80C
:104A4000B0EE40DAF0EE60DA53EC192B51EC1D0BAE
:104A500007F0A2FF41EC1C0B53EC1B2B07F0C4FC2E
:104A600041EC100BBDEC0C8B10BD00007B14AE476D
:104A7000E17A843F9A9999999999B93F0000000089
:104A80000000F03F1015002010B52DED0C8B2B48C9
:104A900000F06EF82A4890ED000B53EC102B9FEDC0
:104AA000290B51EC100B07F05BFD41EC1C0B23486C
:104AB00090ED041BB0EE410AF0EE610A9FED231B5E
:104AC00053EC112B51EC100B07F04AFD41EC1D0B80
:104AD000B0EE4C1AF0EE6C1AB0EE4D0AF0EE6D0A24
:104AE00005F0BAFCB0EE40BAF0EE60BA9FED190BDB
:104AF00053EC102B51EC1B0B08F082F841EC1A0B15
:104B00009FED160B53EC102B07F046FF41EC190BF1
:104B10009FED140B53EC102B07F022FD41EC180B0A
:104B2000124890ED000B53EC102B51EC180B08F0D1
:104B30003FF941EC100BBDEC0C8B10BDE8030020DD
:104B400068D1000823C95AE07EDAFD3F000000006A
:104B5000D0BCF840000000000000F03F66666666CA
:104B60006602724039B4C876BE9F7A3F300000209A
:104B700010B52DED108B84B00446204600F0CAF924
:104B800000BF032000F09EF900200028F9D1032285
:104B90002146042000F06EF9A0780004617840EA14
:104BA0000120217808436060AD4890ED1C2BB0EEE9
:104BB000420AF0EE620A90ED102BB0EE421AF0EECF
:104BC000621A53EC102B51EC110B07F0E5FE41EC8F
:104BD000180BA34890ED1C1BB0EE410AF0EE610AE1
:104BE0009FEDA01B05F038FCB0EE40CAF0EE60CAA5
:104BF0009B4890ED121BB0EE410AF0EE610A53ECB7
:104C0000102B51EC1C0B07F0C7FE41EC190B94481C
:104C100090ED1C1BB0EE410AF0EE610A9FED931B74
:104C200005F01AFCB0EE40CAF0EE60CA8C4890ED78
:104C3000141BB0EE410AF0EE610A53EC102B51EC5C
:104C40001C0B07F0A9FE41EC1A0B854890ED0E1BDA
:104C5000B0EE410AF0EE610A53EC182B51EC100B48
:104C600007F0C2FB41EC1D0B53EC192B07F0BCFB0A
:104C700041EC1C0B53EC1A2B07F0B6FBCDE90201FB
:104C8000774890ED1C2BB0EE420AF0EE620A90EDF0
:104C9000082BB0EE421AF0EE621A53EC102B51ECD6
:104CA000110B07F079FE41EC180B6D4890ED1C1BC1
:104CB000B0EE410AF0EE610A9FED6A1B05F0CCFBF5
:104CC000B0EE40CAF0EE60CA654890ED0A1BB0EE47
:104CD000410AF0EE610A53EC102B51EC1C0B07F06B
:104CE0005BFE41EC190B5E4890ED1C1BB0EE410AD7
:104CF000F0EE610A9FED5D1B05F0AEFBB0EE40CA21
:104D0000F0EE60CA564890ED0C1BB0EE410AF0EE92
:104D1000610A53EC102B51EC1C0B07F03DFE41ECEB
:104D20001A0B4F4890ED061BB0EE410AF0EE610AF7
:104D300053EC182B51EC100B07F056FB41EC1F0BFA
:104D400053EC192B07F050FB41EC1E0B53EC1A2BC4
:104D500007F04AFB41EC1C0B606807F0B6FD41EC24
:104D60001D0B53EC1C2B07F017FECDE9000160680A
:104D700007F0ABFD41EC1C0B9FED3A1BB0EE4C0A6B
:104D8000F0EE6C0A05F068FBB0EE408AF0EE608A47
:104D9000334890ED1C2BB0EE420AF0EE620A90ED23
:104DA000182BB0EE421AF0EE621A53EC102B51ECB5
:104DB000110B07F0F1FD41EC1C0B294890ED161B7F
:104DC000B0EE410AF0EE610A53EC102B51EC1C0BD3
:104DD00007F00AFB41EC190B53EC192B51EC180BA3
:104DE00007F0DAFD41EC1A0B606807F06EFD41EC4C
:104DF0001E0B9FED1E1BB0EE4E0AF0EE6E0A05F084
:104E00002BFBB0EE40DAF0EE60DA154890ED1A1B9D
:104E1000B0EE410AF0EE610A53EC102B51EC1D0B81
:104E200007F0BAFD41EC1C0B53EC1A2B07F0DCFA2F
:104E300041EC1B0B9DED000B53EC102B9DED020B79
:104E400051EC100B07F0D0FA41EC1C0B53EC1B2B70
:104E500007F0CAFAC4E9040104B0BDEC108B10BD20
:104E6000700300200000000000000040000000006F
:104E70000000084070B506460C46154600200F4954
:104E80000860012006F016FE46F080010C4803F091
:104E90000BFC00210A4803F007FC07E0002108484A
:104EA00003F002FC2070641C681EC5B2002DF5DC06
:104EB00001200249086006F0FDFD70BD84024142F8
:104EC0000030014010B5044600200E490860012062
:104ED00006F0F0FD44F080010B4803F0E5FB0021F3
:104EE000094803F0E1FB0021074803F0DDFB074917
:104EF000087001200649C1F8840206F0DBFD034872
:104F0000007810BD8402414200300140380000208A
:104F10000000414210B52DED088B044600BF032070
:104F2000FFF7D0FF00200028F9D1032221460720F7
:104F3000FFF7A0FFA0780004617840EA0120217803
:104F400008436060606807F0C0FC41EC1A0B22481F
:104F500090ED001BB0EE410AF0EE610A53EC102B0D
:104F600051EC1A0B07F024FF41EC180B1A4890ED96
:104F7000021BB0EE410AF0EE610A53EC102B51EC2B
:104F8000180B07F009FD41EC190B53EC182B51ECF1
:104F9000180B07F001FD41EC1B0B0F4890ED041BB3
:104FA000B0EE410AF0EE610A53EC102B51EC1B0BF2
:104FB00007F0F2FC41EC1A0B53EC192B07F014FA32
:104FC000054AC2E91C01104690ED1C0B84ED020B52
:104FD000BDEC088B10BD00007003002070B50446C6
:104FE0000D4600BF0320FFF76DFF00F01000002802
:104FF000F8D0012006F05EFD00200A49086001207B
:1050000006F058FD04F07F01074803F04DFB2946E8
:10501000054803F049FB01200449C1F8840206F069
:1050200049FD70BD84024142003001400000414210
:1050300010B58AB004460121022002F0C9FF012107
:10504000042002F0D5FF4FF48070089002208DF804
:10505000240003208DF8250000208DF82600022072
:105060008DF8270008A91B4800F0BEFD0222082188
:10507000184800F001FED120ADF814000020ADF872
:10508000160040F2E73006900020ADF81C0005A99C
:10509000114803F0BFFE6020ADF800000120ADF81C
:1050A00002000020ADF80C0069460B4803F004FE36
:1050B0000821094803F050FE0121074803F01CFDB8
:1050C0002146054803F02AFD5021034803F09BFECA
:1050D0000AB010BD000402400008004000BFFEE717
:1050E00010B504468BA12046FBF720FA28B9012011
:1050F0008B49087003F060FB0BE18AA12046FBF7A7
:1051000015FA28B90A208649087003F055FB00E11A
:1051100087A12046FBF70AFA28B9202080490870A9
:1051200003F04AFBF5E085A12046FBF7FFF918B92B
:105130001E207B490870ECE086A12046FBF7F6F9BB
:1051400018B91F2076490870E3E088A12046FBF7D4
:10515000EDF910B903F05AFBDBE087A12046FBF71D
:10516000E5F910B904F0A8FBD3E088A12046FBF7CD
:10517000DDF910B904F04CFBCBE088A12046FBF729
:10518000D5F948B900208949086004F01BFB0120CB
:105190008749C1F8AC02BCE086A12046FBF7C6F9FE
:1051A00010B902F0A7F9B4E084A12046FBF7BEF9DC
:1051B00028B946205A490870FEF702FDA9E085A1EA
:1051C0002046FBF7B3F928B9492055490870FEF786
:1051D000F7FC9EE086A12046FBF7A8F928B94820F5
:1051E0004F490870FCF75AFF93E088A12046FBF76F
:1051F0009DF928B94A204A49087004F0C9FA88E0A4
:1052000088A12046FBF792F928B94B204449087041
:1052100002F0B2F87DE089A12046FBF787F918B9C2
:1052200069203F49087074E088A12046FBF77EF9A9
:1052300018B96A203A4908706BE088A12046FBF74C
:1052400075F910B900F006FB63E089A12046FBF771
:105250006DF928B964203249087000F0BBFA58E0B3
:1052600087A12046FBF762F938B965202C49087000
:105270004FF4803000F0CAF94BE084A12046FBF7E0
:1052800055F928B914202649087001F0A9F940E021
:1052900081A12046FBF74AF910B902F0ABF838E0DB
:1052A00081A12046FBF742F910B902F08BF830E0FB
:1052B00081A12046FBF73AF928B966201849087001
:1052C00001F0A6FF25E082A12046FBF72FF910B9D7
:1052D00001F0C0FF1DE084A12046FBF727F910B9BB
:1052E00001F018FF15E084A12046FBF71FF910B963
:1052F00001F028FF0DE084A12046FBF717F928B93B
:105300006B200749087000F095FB02E0002004497B
:10531000087010BD424D495F5445535400000000D1
:10532000400000204144584C5F5445535400000055
:10533000424D4D5F54455354000000004D61676E6F
:10534000657469736D4F66667365745F494E495441
:10535000000000004D61676E657469736D4F66668D
:105360007365745F53544F500000000053616D70BB
:105370006C655F53544F5000573235515F44617430
:1053800061436F6E73756C740000000057323551C5
:105390005F44617461436C6561720000573235513E
:1053A0005F4368697045726173650000AC024042FA
:1053B00000004042515F494E4954000041747469F5
:1053C00074756465536F6C7574696F6E5F54455383
:1053D000540000004174746974756465436F6D70A6
:1053E000656E736174696F6E5F54455354000000BD
:1053F000416363656C65726174696F6E536F6C7540
:1054000074696F6E5F5445535400000056656C6FAD
:1054100063697479536F6C7574696F6E5F5445532B
:1054200054000000506F736974696F6E536F6C7530
:1054300074696F6E5F54455354000000494D554FD9
:1054400066667365745F494E49540000494D554284
:1054500061636B4F6666736574000000464D554F7F
:1054600066667365745F4445494E49540000000008
:10547000446174615F53544F52414745000000003E
:10548000446174615F5245414400000048656967AA
:1054900068745F5445535400506F736974696F6E3C
:1054A0005F494E4954000000506F736974696F6E14
:1054B0005F4445494E49540050617261666F696CA2
:1054C000436F6E74726F6C5F53544152540000000E
:1054D00050617261666F696C436F6E74726F6C5F5E
:1054E00053544F50000000004D6F746F7243616C55
:1054F0005F535441525400004D6F746F7243616C9E
:105500005F53544F500000004669786457696E67D6
:10551000436F6E74726F6C5F54455354000000000B
:1055200010B52DED068B324890ED0C2BB0EE420AF3
:10553000F0EE620A90ED002BB0EE421AF0EE621A25
:1055400053EC102B51EC110B07F032FC41EC1A0B11
:10555000284890ED000B53EC102B51EC1A0B07F080
:105560001BFA41EC190B9FED240B53EC102B06F0AA
:10557000F7FF41EC180B9FED220B53EC102B07F0BB
:105580000BFA214AC2E91A01194890ED0E2BB0EE30
:10559000420AF0EE620A90ED022BB0EE421AF0EEF3
:1055A000621A53EC102B51EC110B07F001FC41EC8B
:1055B0001A0B104890ED000B53EC102B51EC1A0B0A
:1055C00007F0EAF941EC190B9FED0B0B53EC102B94
:1055D00006F0C6FF41EC180B9FED090B53EC102BA6
:1055E00007F0DAF9084AC2E91801BDEC068B10BDD4
:1055F0001003002070D10008000000000080664009
:1056000000000040104E5841101500202DE9F041D7
:1056100004461CA004F012F81F4804F00FF826E01E
:1056200080221E49204604F07DF91C4E3068401C43
:1056300000B920E041461AA004F000F8174D0027F9
:105640000DE095ED001BB0EE410AF0EE610A53EC5F
:10565000102B14A003F0F2FF0835781CC7B2102FEE
:10566000EFDB0CA003F0EAFF803408F101081048DA
:1056700000786528D4D000BF0EA003F0DFFFBDE89E
:10568000F0810000446174612069732073656E6469
:10569000696E67210D0A000014D50008000400207F
:1056A00025753A002020252B302E3466000000009E
:1056B0004000002044617461206861732062656568
:1056C0006E2073656E646564210D0A0010B5A0B08C
:1056D0006C463A4890ED180B8DED000B90ED1A0BCF
:1056E0008DED020B90ED200B8DED040B344890ED09
:1056F000080B8DED060B90ED060B8DED080B2F487A
:1057000090ED000B8DED0A0B90ED020B8DED0C0B67
:1057100090ED040B8DED0E0B90ED060B8DED100B47
:1057200090ED080B8DED120B90ED0A0B8DED140B27
:1057300090ED0C0B8DED160B90ED100B8DED180B05
:1057400090ED0E0B8DED1A0B00BF1E480078C007C0
:10575000000E1D4908800AE014F8010B1B491A4A83
:105760001288885418480088401C1749088015483A
:10577000007800F00100401C13490988B1EBC01FFC
:10578000EAD31048007800F0010078B90D480068AD
:1057900060B14FF480720D490D48006804F0F8F8CC
:1057A0000B48006800F580700949086005480068EA
:1057B000401C0449086020B010BD000010150020F6
:1057C00010030020440000205000002000040020AE
:1057D0004800002010B501F08DFE00200749086048
:1057E0004FF480300649086000200649086006A092
:1057F00003F024FF02F0E0FF10BD00004400002091
:10580000480000204C00002044617461206973202E
:1058100073746F726167696E67210D0A0000000082
:105820007047000030B10749096841F48071054AAA
:10583000116005E00349096821F48071014A116093
:1058400070470000003C0240014A107070470000A1
:10585000003C024010B59FED240B254880ED000B65
:105860009FED210B80ED020B9FED1F0B80ED040BD4
:105870009FED1D0B80ED060B9FED1B0B80ED080BC4
:105880009FED190B80ED0A0B9FED170B80ED0C0BB4
:105890009FED150B80ED0E0B9FED130B80ED100BA4
:1058A000144890ED000B124880ED120B9FED0E0B8B
:1058B000114880ED000B9FED0C0B80ED020B9FED6E
:1058C0000A0B80ED040B9FED0D0B80ED060B9FED99
:1058D0000B0B80ED080B9FED090B80ED0A0B09A067
:1058E00003F0ACFE10BD000000000000000000004E
:1058F0009815002068D10008480200200000000030
:105900000000F03F464D55206F6666736574206851
:10591000617320636C6561726564210D0A0000008B
:1059200010B5244C80222146002003F0FBFFB4EC8C
:10593000020B214880ED000BB4EC020B80ED020B52
:10594000B4EC020B80ED040BB4EC020B80ED060B03
:10595000B4EC020B80ED080BB4EC020B80ED0A0BEB
:10596000B4EC020B80ED0C0BB4EC020B80ED0E0BD3
:10597000B4EC020B80ED100BB4EC020B80ED120BBB
:10598000B4EC020B0D4880ED000BB4EC020B80ED83
:10599000020BB4EC020B80ED040BB4EC020B80EDB7
:1059A000060BB4EC020B80ED080B94ED000B80EDC0
:1059B0000A0B10BD000400209815002048020020AA
:1059C0001CB50121022002F003FB0121084602F070
:1059D000FFFA1820009001208DF8040000208DF8B7
:1059E000060002208DF805008DF8070069460D4875
:1059F00000F0FAF800200C4908600C49C1F8900248
:105A00004FF40040009000208DF8040002208DF833
:105A1000050001208DF807006946054800F0E4F80C
:105A20001CBD0000000402408C82404200804042C5
:105A30000000024010B501F05DFD03A003F0FEFD83
:105A400002F0BAFE10BD00004669786457696E67BF
:105A50002074657374206973207374617274210DEE
:105A60000A00000010B52DED088B4F48008940F268
:105A7000DC51884210DD4C49088802F0E5FE4A49B5
:105A8000488802F0EFFE4849888802F0F9FE46494E
:105A9000C88802F003FF83E0444890ED081BB0EE95
:105AA000410AF0EE610A53EC102B9FED411B51ECC3
:105AB000110B06F071FF41EC190B3C4890ED101BE7
:105AC000B0EE410AF0EE610A53EC102B9FED3A1B49
:105AD00051EC110B06F060FF41EC1B0B9FED380BF6
