:020000040800F2
:10000000E81C0020F50200085973000895670008F5
:10001000F5720008A54E0008639C0008000000006F
:10002000000000000000000000000000A38800089D
:100030006D5B000800000000F5730008E18E000809
:100040000F0300080F0300080F0300080F03000848
:100050000F0300080F0300080F0300080F03000838
:100060000F0300080F0300080F0300080F03000828
:100070000F0300080F0300080F0300080F03000818
:100080000F0300080F0300080F0300080F03000808
:100090000F0300080F0300080F0300080F030008F8
:1000A0000F0300080F0300080F0300080F030008E8
:1000B0004D8F00080F0300080F0300080F0300080E
:1000C0000F0300080F0300080F0300080F030008C8
:1000D0000F0300088D96000841970008BD9800089E
:1000E0000F0300080F0300080F0300080F030008A8
:1000F0000F0300080F0300080F0300080F03000898
:100100000F0300080F0300080F0300080F03000887
:10011000C99300080F0300080F0300080F0300082D
:100120000F0300080F0300080F0300080F03000867
:100130000F0300080F0300080F0300080F03000857
:100140000F0300080F0300080F0300080F03000847
:100150000F0300080F0300080F0300080F03000837
:100160000F0300080F0300080F0300080F03000827
:100170000F0300080F0300080F0300080F03000817
:100180000F0300080F03000800F002F800F0A2F8C7
:100190000AA090E8000C82448344AAF10107DA45E2
:1001A00001D100F097F8AFF2090EBAE80F0013F092
:1001B000010F18BFFB1A43F001031847B4DA00001F
:1001C000D4DA00000A4410F8014B14F00F0508BF00
:1001D00010F8015B240908BF10F8014B6D1E05D013
:1001E00010F8013B6D1E01F8013BF9D1641E03D0EC
:1001F000641E01F8015BFBD19142E4D3704700001B
:100200000023002400250026103A28BF78C1FBD81F
:10021000520728BF30C148BF0B6070476E2900F0FD
:10022000DB82702900F0478666290DF0A7826529D8
:100230000DF0A48267290DF0A18261290DF0A08242
:1002400003681B0A28BF41F08001692900F09A80E9
:10025000642900F09780752900F094806F2900F0E0
:10026000D485782900F01386E92900F06F85E42908
:1002700000F06C85F52900F06985EF2900F0D18543
:10028000F82900F012860368DB0928BF41F08001DD
:10029000632901F03180732901F03680E32901F0F0
:1002A0004180F32901F04680002070471FB50DF012
:1002B00060FA00F00BFE0400002000210CF0F8FBB7
:1002C000401C6060002000210CF0DCFBE0601FBDE2
:1002D00010B510BD01F0CCF81146FFF7E7FF0BF0A9
:1002E0005FFF01F0F3F803B4FFF7F2FF03BC0BF07C
:1002F000B6FE00000948804709480047FEE7FEE7D0
:10030000FEE7FEE7FEE7FEE7FEE7FEE7FEE7FEE7C5
:1003100004480549054A064B70470000E58E000871
:1003200089010008E8160020E81C0020E8180020D9
:10033000E8180020704700007CB51D4616460C00EA
:10034000009001D02044401E074B7B442A4669465A
:100350000190304600F069FC05461CB1002069465A
:1003600000F076FC28467CBD0D0900000FB404495E
:1003700010B503AA029800F079FC10BC5DF814FBDC
:10038000100000202DE9F041064600241068752970
:10039000314616A510D000F08BF9002802DA404251
:1003A00013A507E031688A0701D512A502E04907C5
:1003B00004D511A5012401E000F083F900210A22EF
:1003C00006F1240709E0B0FBF2FCB0FBF2F302FBFC
:1003D0001C00303078541846491C0028F3D12346BD
:1003E0002A463046BDE8F04100F09DB9000000000B
:1003F0002D0000002B000000200000002DE9F05F20
:10040000894604464FF0000ADFF874B1FB44C0F897
:1004100020A02046E1688847002874D0252806D00F
:10042000D4E901219047206A401C2062F1E70026B0
:100430005F462046E16888472028054607DB312DC6
:1004400005D2781910F8200C08B10643F1E7B0077F
:1004500001D526F00406C4F81CA00027C4F818A093
:100460002A2D09D028460BF0F3FD38B304EB87089A
:10047000303DC8F8185019E059F8041B204604EB29
:1004800087029161E1688847012F054618D1E0692C
:10049000002820DA26F020061DE0D8F8180000EB2E
:1004A000800005EB40003038C8F818002046E168AD
:1004B000884705460BF0CCFD0028EED1012F0AD06D
:1004C0002E2D08D12046E16888477F1C0546022F63
:1004D00046F02006C4DBA069002803DA404246F05B
:1004E0000106A061F00701D026F010066C2D0BD09C
:1004F000682D09D04C2D39D06A2D35D0742D35D0CA
:100500007A2D33D016E038E0E1682F462046884740
:10051000B842054609D16C2F26D04FF48060E168BF
:10052000064320468847054604E06C2F1AD04FF456
:10053000807006430DB3A5F14100192802D820357B
:1005400046F400664A462946204626604E46FFF796
:1005500065FE80B101280BD0F61D26F0070000F1E2
:10056000080956E74020E4E78020D8E70020D6E7D6
:1005700006F104094DE7284652E7206ABDE8F09FDE
:1005800078D4000010B5431C02E010F8011B71B1D3
:100590008107FAD14FF0013202C88C1A8C4314EA59
:1005A000C211F9D0C01A0A0603D0C01E10BDC01A6D
:1005B00010BD0A0401D0801E10BD0902FCD0401EEF
:1005C00010BD00004FF0013C50F8042B51F8043BE3
:1005D0009A4221D1A2EB0C03934313EACC1317D117
:1005E00050F8042B51F8043B9A4215D1A2EB0C03AE
:1005F000934313EACC130BD150F8042B51F8043B6E
:100600009A4209D1A2EB0C03934313EACC13DBD03B
:100610004FF00000704700BFD01A01BAB1FA81F163
:1006200001F0180122FA01F0CB40C1F12001DBB248
:10063000C0B2C01A2CFA01F3D11A914311EAC311C6
:10064000E6D17047704770477047704710B500F0AB
:1006500041FC006810BD10B5044600F03BFC04608E
:1006600010BD70B5044685690068C10601D5302605
:1006700000E02026C00707D070BDD4E90121304634
:100680009047206A401C20626D1EF6D570BD70B583
:10069000044685690078C00707D170BDD4E90121FF
:1006A00020209047206A401C20626D1EF6D570BD48
:1006B00009684A0501D540B27047C905FCD500B2AA
:1006C000704709684A0501D5C0B27047C905FCD515
:1006D00080B2704770B50C460546012A05D02878CF
:1006E000800600D5EA69002302E0012305E05B1CD7
:1006F000934202D2E05C0028F9D1A869E618C01A3A
:10070000A861286A184428622846FFF7AAFF04E077
:10071000D5E9012114F8010B9047B442F8D32846DB
:10072000FFF7B5FF70BD2DE9F0470D46994692469B
:10073000044600F124080168880604D5E06921F028
:100740001001216000E00120A84201DD471B00E00C
:100750000027A1697A1902EB0900081AA061207824
:10076000C00602D42046FFF77CFF002608E0D4E94B
:1007700001211AF806009047206A401C761C20626E
:100780004E45F4DB2078C0060AD52046FFF769FF06
:1007900006E0D4E9012130209047206A401C206205
:1007A000381EA7F10107F4DC07E0D4E9012118F8AD
:1007B00005009047206A401C2062281EA5F1010513
:1007C000F3DC2046FFF763FF2078000602D5022005
:1007D000BDE8F0870120FBE711680268006A530555
:1007E00001D508700AE0D30501D5088006E013069C
:1007F00003D5C217C1E9000200E00860012070477C
:1008000070472DE9FF4F0C461E464FF0FF378BB067
:10081000D2E90001DDF860800A908A46C1F30A55EA
:1008200005B93D46002108464FF00000BAF1000F1F
:1008300000F4400005DA00EB80004FF4400101EACB
:1008400050004FEA9059B9F1010F00DDB9460A98FE
:1008500050EA4A000ED044F61050A5F2FF35454349
:100860002F14B8F1000F1ED07542291E1EDDC9F1EC
:1008700000021CE0B8F1010F4FF0000001D0302160
:1008800003E0F24305E02154401CB042FBDB30465C
:100890000022002121540B99C1F80880C1E90020F1
:1008A0000FB0BDE8F08FBD1B6D1CDEE74A4600DAD5
:1008B000694206A800F042FD06AB93E8070003ABCF
:1008C00083E8070050460A9900F009FE8DE807000A
:1008D000A0F500501F3800900398002D0ADD42F269
:1008E0001F014A460844002303A90390684601F00B
:1008F00072F809E0A0F500504A461F38002303A90A
:100900000390684601F07CF88DE807000004000CB5
:1009100003D04FF0FF30410800E01046B8F1000F5F
:1009200003D00022009215461EE0751E05D400F08B
:10093000D5FA303262556D1EF9D5B346012208430F
:1009400002D000227F1C04E02078302801D1002250
:100950007F1E002A099784D01DE0112D07DA00F0D0
:10096000BDFA303262556D1C50EA0102F5D10843E0
:1009700002D00098C8B10EE00021681E05E0235C9B
:10098000625C63542254401E491C8142F7DBAB4633
:10099000A81B401E0990002004F80B000B98099A30
:1009A000C0F80880C0E9002B7AE711264FF0000854
:1009B00057E72DE9F04F88460446D21D22F0070183
:1009C00091B0D1E90001CDE90A0109F09FFB02468F
:1009D0000B98C00F01D02D2007E02068810701D5BA
:1009E0002B2002E0202101EAC000032A099001D057
:1009F000072A05DB03464146204600F033FC0BE1A5
:100A00002078800601D5E06900E00620B8F1650F86
:100A1000814606D0B8F1660F18D0B8F1670F70D1D3
:100A200031E00020B9F1110F009001DB112301E04A
:100A300009F101030AAA01A90CA8FFF7E2FEDDE90A
:100A40000C70002609F10105834647E001204B4662
:100A500000904FF000470AAA01A90CA8FFF7D1FEA9
:100A6000DDE90DB00C995D46002610B909F10100D1
:100A70000D18B9EB050003D4C0F1FF3609F10105EB
:100A8000A5EB09002BE0B9F1010F01DA4FF00109E4
:100A90000020B9F1110F0090484601DD112300E05C
:100AA00003460AAA01A90CA8FFF7ABFEDDE90C700A
:100AB0004D4600268346207800070AD4AB4500DA6D
:100AC0005D4601A8012D04DD411911F8011C3029F2
:100AD00007D04F4502DA17F1040F04DA01208246ED
:100AE0000FE06D1EEEE7002F02DCED1B3E4403E03D
:100AF000781CA84200DD7D1CB81B00F1010A4FF0F4
:100B000000472078000703D4AA4501DB4FF0FF3AE5
:100B10000021B7F1004F0DF143088DF8431024D0A8
:100B200002202B23002F01DA7F422D230A21021EEF
:100B3000A0F1010000DC5FB197FBF1FC97FBF1F243
:100B400001FB1C7C17460CF1300C08F801CDEEE7D8
:100B5000A8F1010003702188090501D5452100E0B5
:100B60006521A0F1010800F8011C09980FA9A1EB6B
:100B70000807FF1D00B10120411901EBEA70A169CE
:100B80003844081A401EA0612078C00602D42046CE
:100B9000FFF767FD099828B1D4E901219047206A41
:100BA000401C20622078C00622D52046FFF759FD60
:100BB0001EE0002E04DBB34502DD01A8805D00E0ED
:100BC0003020D4E901219047206A401C2062761C25
:100BD000AAF101005FEA000A0AD100F077F9C068C3
:100BE0000168405CD4E901219047206A401C2062E2
:100BF000281EA5F10105DCDC07E0D4E9012118F885
:100C0000010B9047206A401C2062381EA7F10107A3
:100C1000F3DC2046FFF73BFD032011B041E6000066
:100C200001694A1C02610878704700B58FB0CDE9B0
:100C300001310021059105497944CDE903101146A0
:100C40006846FFF7DBFB0FB000BD0000E5FFFFFFCC
:100C50000A6802F8010B0A607047D1E900239A4242
:100C600002D2531C0B60107070470000074B70B528
:100C70000D467B44FFF7D9FF0446284600F0D0FB21
:100C800010B14FF0FF3070BD204670BD0FB50000B1
:100C90002DE9FF5F15468A460446DFF8AC80F8442C
:100CA0000027D8E900103E46CDE9001010E03AF8E0
:100CB00016106A4602A800F0B7FB411C07D0217845
:100CC000890603D5E269391891420DD80744761C8C
:100CD0002078800602D5E069B84205DDAE42E6DB49
:100CE0003AF816000028E2D1A069C01BA061204696
:100CF000FFF7B7FCD8E90010CDE90010002017E09D
:100D00003AF818106A4602A800F08EFBB0F1FF3FD7
:100D100081460BD000250DF1080B05E0D4E9012137
:100D20001BF8050090476D1C4D45F7D308F10100F5
:100D3000B0428046E4DB206A384420622046FFF758
:100D4000A6FCBDE8FF9F0000D6CC00002DE9F041D5
:100D50008046D21D22F007020025D2E90002F529C3
:100D600015A614D0011E72F1000106DA0023D0EBA3
:100D7000030063EB020211A608E0D8F800108B070D
:100D800001D50FA602E0490701D50EA6012511469F
:100D9000002408F1240704E000F0A0F830323A55AE
:100DA000641C50EA0102F7D12B46324621464046E8
:100DB000BDE8F041FFF7B7BC000000002D000000C7
:100DC0002B0000002000000030B4002100F12404BA
:100DD00008E002F00705D208303542EA4372DB082A
:100DE0006554491C52EA0305F3D10468002310A29C
:100DF000250707D5A40600D421B1C46901230DA29B
:100E0000641EC46130BCFFF78EBC10B50446214699
:100E10001068FFF756FC02462046BDE8104000234C
:100E2000D2E7D21D22F00701D1E90023CCE7000070
:100E30000000000030000000F0B40D4601880905F4
:100E400002D5214C7C4402E01F4C7C440E3400212E
:100E500000F1240608E002F00F071209E75D42EAFC
:100E600003721B097754491C52EA0307F3D1027835
:100E70000023120704D5702D06D009B102231134C6
:100E80002246F0BCFFF74FBC01231034F8E770B5E1
:100E900004460D4621461068FFF713FC024629461A
:100EA0002046BDE870400023C6E7D21D22F00703AC
:100EB000D3E90023C0E70368126843F0200303600E
:100EC0000823C3610023B7E738CB00000048704710
:100ED000A8160020004870478816002030B5B0F1F1
:100EE0000A024FEA900E71F100034EEA817EB0EBE8
:100EF0000E0061EB91014FEA101E4EEA017E10EBED
:100F00000E0041EB11114FEA102E4EEA016E10EB6C
:100F10000E0041EB11214FEA104E4EEA014E10EB4C
:100F20000E0041EB1141401841F100014FEAD000A1
:100F300040EA41704FEAD10110EB80054FEA81048D
:100F400044EA907444EB01046D1944EB0404521B11
:100F5000A3414FF0000348BF0A3200D530BD401C0A
:100F600041F1000130BD00002DE9F04F04460D466F
:100F7000D21D22F0070089B0D0E9009748463946D3
:100F800009F0C4F80246F80F01D02D2307E02068CD
:100F9000810701D52B2302E0202101EAC0038DF84F
:100FA00020300BB1012000E00020032A824601D04E
:100FB000072A04DB2946204600F054F93FE1207857
:100FC000800601D40D2500E0E569C7F30A560D2D12
:100FD00049DA00214FEA175B08464FF00000002F66
:100FE00000F4400007DA00EB80004FF4400100EB12
:100FF000D07001EA60008115012901DD4FF0FF3159
:1010000000224FEA850CBCF1180F06D31346ACF151
:1010100018004FF08052C24003E04FF4801323FACF
:101020000CF30CF10C0CBCF1200F04D3ACF1200C30
:1010300009FA0CF001E007FA0CF000294FF0004823
:1010400001DD18B90FE00ED140450CD319EB0209B0
:101050005F4121B9404502D19F4329EA0209BBEB18
:10106000175F00D0761C2088000502D57B487844A5
:1010700002E07A487844193808AA302302F80A3086
:10108000037C0AF10101002E0AF1020A53546A4658
:1010900002DC4FF0300101E04FF031014FF0010868
:1010A0008DF8001002D0A6F2FF3603E059EA47019E
:1010B00000D06B4E002D02DC2178090704D54FF0DB
:1010C00002082E218DF80110C44600210BE0C7F361
:1010D00003433F01C35C491C6D1E02F8083005291B
:1010E00008F1010801DA002DF1DC00210CE000EB31
:1010F0001973491C1B786D1E082902F808304FEA45
:10110000091908F1010801DA002DF0DC21688B06CD
:1011100002D516E0A8F10108E04505DD02EB080361
:1011200013F8013C302BF5D0B8F1000F09DD02EBCC
:10113000080313F8013C2E2B03D1090701D4A8F1B1
:101140000108002D05DD3E2102F808106D1E08F192
:101150000108407C002E02F8080008F1010804DABA
:101160002D20764202F8080002E02B2002F8080049
:101170000A214FF47A70864208F101080BDB96FBD6
:10118000F0F3303302F8083096FBF0F308F1010871
:1011900000FB136601E0642E0CDB642096FBF0F389
:1011A000303302F8083096FBF0F308F1010800FB39
:1011B000136601E00A2E06DB96FBF1F0303002F8F0
:1011C000080008F1010896FBF1F001FB10603030D7
:1011D00002F80800A16908F1010808EB050202EB1A
:1011E0000A00081AA0612078C00602D42046FFF742
:1011F00038FA216A08AE01EB0A00206204E0D4E963
:10120000012116F8010B9047BAF1010AF7D22078B4
:10121000C00602D52046FFF724FA6E4609E016F80C
:10122000010B3E280FD0D4E901219047206A401CD1
:101230002062B8F10108F2D22046FFF728FA09B07F
:101240000320BDE8F08F206A2844206203E0D4E93F
:101250000121302090476D1EEBD3F8E709CB000049
:1012600002FCFFFF2DE9F0411F46044603260168FA
:10127000072A01F4006004DB08B116A505E016A5F5
:1012800003E008B115A500E015A521F010002060CD
:10129000A069C01EA0610FB1401EA0612046FFF7EB
:1012A000E0F94FB1D4E9012138469047206A401C4B
:1012B0002062C01C206206E0206AFAE7D4E901211E
:1012C00015F8010B9047761EF8D22046FFF7DFF99C
:1012D000BDE8F0814E414E006E616E00494E460001
:1012E000696E660010B5436913B1AFF3008001E089
:1012F000FFF7F0F9012010BD127800F124010A7007
:1013000000224A700122EDE711684FF0FF32E9E751
:1013100010B5436913B1AFF3008001E0FFF7B8FCEB
:10132000012010BD128800F1240182840022C284B1
:101330000122EDE711684FF0FF32E9E72DE9F047B0
:10134000814616468AB0354878440DC88DE80D00B0
:1013500032487844801C03AC0DC884E80D0041F687
:101360009B300844372190FBF1F290FBF1F5A5F199
:10137000800501FB12041B3C02D56442012000E001
:101380000020DFF898A080460027FA44AAF1BE0AA0
:101390000EE0E0070AD03246684607EB470101231A
:1013A0000AEB810100F02CFB8DE8070064107F1C24
:1013B000002CEED1194F7F44AE3F19E0E80715D05D
:1013C00007EB04100DF1180A90E80E008AE80E00F1
:1013D000C068F04201D1981908903246012306A94D
:1013E00003A800F00DFB03AB83E807006D10641C3D
:1013F000002DE3D14FF0010332466946B8F1000FEA
:1014000003A802D000F0E7FA01E000F0F9FAC9E918
:101410000001C9F808200AB0BDE8F087C0C8000084
:10142000007B00F08000704770B516460C460546FC
:1014300000F044F8036893F80101012806D0FF2C5E
:101440000FD8185D68B101202C7070BDD3F807016A
:101450003246214603F2071303442846BDE8704094
:1014600018474FF0FF3070BD0048704788160020C5
:101470007546FFF7F9FFAE4605006946534620F072
:101480000700854618B020B5FEF742FFBDE82040B2
:101490004FF000064FF000074FF000084FF0000B30
:1014A00021F00701AC46ACE8C009ACE8C009ACE8E3
:1014B000C009ACE8C0098D467047000010B5FFF7C1
:1014C00005FD001D10BD00BFE9B5000010B50446C4
:1014D000AFF300802046BDE81040FEF704BF5FEA8E
:1014E000400C08BF91F0000F4FEA8C234FEAC12255
:1014F00043EA51514FEA1C5018BF00F5F0404FEA43
:10150000300018BF41F000415FEA6C5C00F02980B8
:10151000BCF1FF3F08BF40F080407047130C06BF8E
:1015200012044FF0100C4FF0000C130E04BF120207
:101530000CF1080C130F04BF12010CF1040C930FF3
:1015400004BF92000CF1020CD30F04BF52000CF147
:10155000010C11464FF00002A0F11F00A0EB0C009F
:10156000704711F0004F08BF704731F000413FF461
:10157000D5AF0B0C06BF09044FF0100C4FF0000C58
:101580000B0E04BF09020CF1080C0B0F04BF09017C
:101590000CF1040C8B0F04BF89000CF1020CCB0F73
:1015A00004BF49000CF1010CCCF12003A0EB0C00AE
:1015B00022FA03F302FA0CF241EA030100F10100FE
:1015C000704720F07F4C80EA030023F07F47ACEBAC
:1015D000070303F57C5300F0004003F1FF032DE9FE
:1015E00080494FEA154B09B44FEA144325EA0B4EE4
:1015F00024EA03480FF2042606EB132749083E7835
:101600005FEA320203FB0667C7F5000707FB06F631
:101610004FEA54374FEAD64606F1020607FB066C3E
:10162000CCF1005C4FEA1C472CEA074C07FB06F4A0
:101630000CFB06F504EB15464FEA961634BF002066
:101640004FF000404FEAD13706FB07FC4FEA1C4C35
:101650000CFB0BF7D21B03FB0CF761EB07010CFB38
:101660000EF7B0EB074072EB17420CFB08F734BFE4
:10167000A2EB0742B2EB074261EB17414FEA0C4481
:101680004FEA910706FB07FC4FEA1C4C0CFB0BF7DB
:10169000B0EBC74072EB573203FB0CF734BFA2EB41
:1016A000C742B2EBC74261EB57310CFB0EF7B0EB10
:1016B000C70072EB57720CFB08F734BFA2EBC702EE
:1016C000B2EBC70261EB5771039F4FEA816141EAB8
:1016D000921104EBCC044FEAD1374FEA826206FB49
:1016E00007FC42EA90124FEA80604FEA1C4C0CFB68
:1016F0000BF7D21B03FB0CF761EB07010CFB0EF79A
:10170000B0EB074072EB17420CFB08F734BFA2EBBB
:101710000742B2EB074261EB17414FEA8C554FEAA3
:10172000910704EB9C2406FB07FC4FEA1C4C0CFBC6
:101730000BF7B0EBC74072EB573203FB0CF734BF2B
:10174000A2EBC742B2EBC74261EB57310CFB0EF77D
:10175000B0EBC70072EB57720CFB08F734BFA2EB7B
:10176000C702B2EBC70261EB577115EB4C254FEA8C
:10177000816141EA92114FEA82624FEAD13742EA2F
:10178000901206FB07FC44F100044FEA80604FEA28
:101790001C4C0CFB0BF7D21B03FB0CF761EB070196
:1017A0000CFB0EF7B0EB074072EB17420CFB08F78F
:1017B00034BFA2EB0742B2EB074261EB174115EBD6
:1017C0001C154FEA813141EA92414FEA823242EAE6
:1017D00090424FEA80304FEA0C7644F1000448EA28
:1017E00003434EEA0B484FF0000EB2EB080C71EBCE
:1017F000030724BF624639464EEB0E0E4FF0000B36
:101800000018524149414BEB0B0BB2EB080C71EB4A
:1018100003077BF1000B24BF624639464EEB0E0EE8
:101820004FF0000B0018524149414BEB0B0BB2EB50
:10183000080C71EB03077BF1000B24BF62463946AD
:101840004EEB0E0E51EA020718BF46F0010616EBEA
:101850000E7655F1000254F1000103D5BDE889016F
:10186000BDE80088BDE88901BDE80048B6195241CD
:1018700041EB0101A3F10103704780807F7E7D7CF5
:101880007B7A7978777676757473727171706F6E12
:101890006E6D6C6C6B6A6A696868676666656464BD
:1018A000636362616160605F5F5E5E5D5D5C5C5B47
:1018B0005B5A5A59595858575756565555555454B6
:1018C000535352525251515050504F4F4F4E4E4D14
:1018D0004D4D4C4C4C4B4B4B4A4A4A494949484860
:1018E00048474747474646464545454444444443A0
:1018F00043434342424242414141002B9C4630D443
:1019000077002BD01CB54FEA370703B44FF0100017
:101910004FF01001BAF1000F06D0BCF1000FDCBF90
:1019200040F0080040F008014FF000000FBCBDE897
:1019300010400BF1010BBBF1010F08BF5FEA170765
:1019400022BF12F1010211F101014FF0004143F1F8
:10195000000300F0004043EA00007047F9D3570845
:10196000D0E746EA064613F1400F4FEA16461FDD60
:1019700013F1200FDFBF16430A46002120335B42DC
:10198000BED0C3F1200746EA064602FA07F74FEA3F
:10199000164646EA0706C3F1200722FA03F201FAC7
:1019A00007F721FA03F14FF0000342EA0702A7E725
:1019B00046EA020646EA06464FEA164646EA0106A7
:1019C000BCBF46EA0646360C4FF000034FF000025B
:1019D0004FF0000194E72DE9804C9A46934670B48D
:1019E00091E8380007C831EA400C48BF34EA430C9C
:1019F00003D5FFF7E6FDFFF780FFF0BCBDE8008CE4
:101A00002DE9804C9A46934670B491E8380007C897
:101A100010F0804F08BF13F0804F03D100F005F89D
:101A2000FFF76BFFF0BCBDE8008C20F07F4780EA39
:101A3000030023F07F4C07EB0C03A3F57C5300F06D
:101A40000040A3F1FE0392F0000F00F0B38095F088
:101A5000000F00F077802DE901494FEA11404FEA6D
:101A6000144621EA004800FB06FC24EA064708FB6E
:101A700006F607FB08F800FB07F718EB06484CEBE7
:101A8000164C4FEA124B18EB07484FEA15464CEB41
:101A9000174022EA0B4E0BFB06FC25EA06470EFB1D
:101AA00006F607FB0EFE0BFB07F71EEB064E4CEB94
:101AB000164C4FF000061EEB074E4CEB174B18EB85
:101AC0000B0840F1000018EB0E0B58EB000840F13A
:101AD00000008F1A4FF000013CBFC943661B14BFC2
:101AE000B5EB040C00213CBFC943F61B4FEA174479
:101AF0004EEA8E0E27EA04454FEA1C4704FB0762B4
:101B00002CEA074C05FB07F70CFB05F604FB0CFC65
:101B100016EB074642EB174216EB0C4642EB1C4213
:101B20001BEB060658EB0202414146EA9E0601D530
:101B3000BDE80189B619524141EB0101A3F101034E
:101B4000BDE801894FEA14454FEA114724EA0546EA
:101B500021EA074C05FB07F406FB07F70CFB06F12F
:101B600005FB0CFC11EB074144EB17444FEA12470D
:101B700011EB0C4144EB1C4422EA074C05FB07F235
:101B800006FB07F70CFB06F605FB0CFC16EB0746FD
:101B900042EB174216EB0C4642EB1C456A1854F117
:101BA000000148BF7047B619524141EB0101A3F152
:101BB0000103704795F0000F37D04FEA11424FEA0A
:101BC000144721EA024624EA074C02FB07F106FB10
:101BD00007F70CFB06F402FB0CFC14EB074441EB8B
:101BE00017414FEA154714EB0C4441EB1C4125EA21
:101BF000074C02FB07F506FB07F70CFB06F602FB9A
:101C00000CFC16EB074645EB174516EB0C4645EB6F
:101C10001C42121951F1000148BF7047B6195241D8
:101C200041EB0101A3F1010370474FEA14454FEA6C
:101C3000114724EA054621EA074C05FB07F106FB9C
:101C400007F70CFB06F24FF0000605FB0CFC12EB4D
:101C5000074241EB174112EB0C4251EB1C4148BFCC
:101C60007047921841EB0101A3F101037047000096
:101C70001CB504460121042006F08EFA4FF4804082
:101C8000009000208DF8040003208DF8050002204C
:101C90008DF807006946104804F074F803212820E5
:101CA00000F032F921462C2000F02EF900212D20E1
:101CB00000F02AF9012C03D11420084908700AE029
:101CC000022C03D128200549087004E0032C02D11E
:101CD0005020024908701CBD000802401E00002070
:101CE00010B52DED0A8B04460B222146062000F08C
:101CF000E5F820780003617840EA0110001100B295
:101D00002083B4F9180040F25D71081A00EE100A41
:101D1000F8EEC00A9FED631A80EE810AF3EE090A1D
:101D200030EE200A84ED0E0AA0780006E17840EA41
:101D30000140217940EA01200013E060607900064B
:101D4000A17940EA0140E17940EA012000132061D5
:101D5000207A0006617A40EA0140A17A40EA012037
:101D600000136061504890F900000BF034F941EC29
:101D70001A0BE0680BF02FF941EC1C0B9FED4B0B9D
:101D800053EC102B0AF072FF41EC1B0B53EC1A2B97
:101D90000BF088F941EC190B464890ED000B53EC21
:101DA000102B51EC190B0BF07DF941EC180B42484C
:101DB00090ED0C1BB0EE410AF0EE610A53EC102BD3
:101DC00051EC180B0BF07AFBC4E90801364890F986
:101DD00000000BF000F941EC1A0B20690BF0FBF846
:101DE00041EC1C0B9FED310B53EC102B0AF03EFF26
:101DF00041EC1B0B53EC1A2B0BF054F941EC190B73
:101E00002C4890ED000B53EC102B51EC190B0BF000
:101E100049F941EC180B284890ED0E1BB0EE410A31
:101E2000F0EE610A53EC102B51EC180B0BF046FB53
:101E3000C4E90A011C4890F900000BF0CCF841EC11
:101E40001A0B60690BF0C7F841EC1C0B9FED170BE8
:101E500053EC102B0AF00AFF41EC1B0B53EC1A2B2E
:101E60000BF020F941EC180B124890ED000B53ECED
:101E7000102B51EC180B0BF015F941EC190B0E4817
:101E800090ED101BB0EE410AF0EE610A53EC102BFE
:101E900051EC190B0BF012FBC4E90C01BDEC0A8BE1
:101EA00010BD0000CDCC10411E000020000000003D
:101EB000FEFF2F4178D800081816002070B506469E
:101EC0000C46154600200E49086001200AF0DEF895
:101ED000012000EB46010B4806F0CAFC07E0002198
:101EE000084806F0C5FC2070641C681EC5B2002DB1
:101EF000F5DC0120024908600AF0C8F870BD000056
:101F0000B40241420030014070B504460D46002045
:101F10000949086001200AF0B9F86100074806F095
:101F2000A7FC2946054806F0A3FC01200449C1F896
:101F3000B4020AF0ABF870BDB40241420030014077
:101F40000000414210B52DED108BB0EE408AF0EE4E
:101F5000608AB0EE419AF0EE619AB0EE42AAF0EEDD
:101F600062AA4B4890ED000B53EC102B51EC1A0B6E
:101F70000BF098F841EC1B0B464890ED000B53EC2E
:101F8000102B51EC190B0BF08DF841EC1D0B424856
:101F900090ED000B53EC102B51EC180B0BF082F86A
:101FA00041EC1E0B53EC1D2B0AF0A4FD41EC1C0B65
:101FB00053EC1B2B0AF09EFD384A03C2384890EDC3
:101FC000000B53EC102B51EC1A0B0BF06BF841EC9F
:101FD0001B0B344890ED000B53EC102B51EC190BFC
:101FE0000BF060F841EC1D0B2F4890ED000B53EC0B
:101FF000102B51EC180B0BF055F841EC1E0B53EC69
:102000001D2B0AF077FD41EC1C0B53EC1B2B0AF047
:1020100071FD224AC2E90201244890ED000B53EC05
:10202000102B51EC1A0B0BF03DF841EC1C0B204827
:1020300090ED000B53EC102B51EC190B0BF032F818
:1020400041EC1E0B1B4890ED000B53EC102B51EC98
:10205000180B0BF027F841EC1F0B53EC1E2B0AF06A
:1020600049FD41EC1D0B53EC1C2B0AF043FD41ECE8
:102070001B0B114890ED000B53EC102B51EC1B0B7C
:102080000BF01CFA054AC2E90401BDEC108B10BD2F
:1020900078000020700000206800002080150020DB
:1020A000900000208800002080000020A800002070
:1020B000A00000209800002078D8000810B505F096
:1020C000D7FA06F05FFC10BD00B591B09FEDFE0A97
:1020D0008DED100AFD4890ED040B8DED060B9FED84
:1020E000FC1B9DED060B08F0A3FC8DED0A0BF748D9
:1020F00090ED020B8DED020B9FEDF51B9DED020B9C
:1021000008F096FC8DED060BF04890ED000B8DED80
:10211000020B9FEDEF1B9DED020B08F089FC8DED8E
:10212000040B9DED060B53EC102B9DED040B51ECB5
:10213000100B0AF0DFFCCDE908019DED0A0B53EC12
:10214000102B9DED080B51EC100B0AF0D3FCCDE9E0
:102150000C019DED0C0B09F0F7FA8DED0E0B9FEDC8
:10216000DE0B53EC102B9DED0E0B51EC100B0BF016
:1021700097F87DD29FEDDA0B53EC102B9DED0E0BF3
:1021800051EC100B0AF052FFF3D2D04890ED0C0B3B
:102190008DED080B9FEDD40B53EC102B9DED080B30
:1021A00051EC100B0AF07EFFCDE90C01C74890ED11
:1021B000020B8DED040B9DED0E0B53EC102B9DEDE2
:1021C000040B51EC100B0AF051FDCDE906019DED19
:1021D000060B07F0B5FF8DED080B9FEDC50B53EC1B
:1021E000102B9DED080B51EC100B0AF05BFFCDE9B5
:1021F0000A019DED0C0B53EC102B9DED0A0B51ECDD
:10220000100B0AF077FCB14AC2E90C01104690EDC0
:10221000100B8DED080B9FEDB40B53EC102B9DEDC7
:10222000080B51EC100B0AF03DFFCDE90C01A7485B
:1022300090ED000B8DED040B9DED040B51EC100B9C
:102240000AF04CFCCDE90601A04890ED040B8DEDA1
:10225000040B9DED041B9DED060B08F08DFA8DED32
:10226000080B9FEDA30B53EC102B9DED080B00E02A
:10227000EAE351EC100B0AF015FFCDE90A019DEDE0
:102280000C0B53EC102B9DED0A0B51EC100B0AF0CC
:1022900031FC8E4AC2E91001104690ED0E0B8DED17
:1022A000040B9DED040B09F0EBF98DED080B87484D
:1022B00090ED0C0B8DED000B9DED000B09F0E0F99E
:1022C0008DED040B814890ED100B8DED000B9DED15
:1022D000000B09F0D5F98DED020B9DED040B53ECCD
:1022E000102B9DED020B51EC100B0AF0DBFECDE93B
:1022F00006019DED080B53EC102B9DED060B51ECE8
:10230000100B0AF0CFFECDE90C01704890ED0E0BDA
:102310008DED040B9DED040B08F026FB8DED080BF5
:102320006A4890ED100B8DED040B9DED040B08F049
:102330001BFB8DED060B9DED080B53EC102B9DED5B
:10234000060B51EC100B0AF0ADFECDE90A019DED34
:102350000C0B53EC102B9DED0A0B51EC100B0BF0FA
:10236000ADF8654A03C2594890ED0E0B8DED040B94
:102370009DED040B08F0F8FA8DED080B534890ED35
:102380000C0B8DED000B9DED000B09F079F98DED37
:10239000040B4E4890ED100B8DED000B9DED000BE6
:1023A00009F06EF98DED020B9DED040B53EC102B33
:1023B0009DED020B51EC100B0AF074FECDE9060105
:1023C0009DED080B53EC102B9DED060B51EC100B03
:1023D0000AF068FECDE90C013C4890ED0E0B8DED46
:1023E000040B9DED040B09F04BF98DED080B3748FC
:1023F00090ED100B8DED040B9DED040B08F0B4FA7D
:102400008DED060B9DED080B53EC102B9DED060B8F
:1024100051EC100B0AF046FECDE90A019DED0C0BC4
:1024200053EC102B9DED0A0B51EC100B0AF062FBE4
:10243000324A03C2254890ED0C0B8DED080B9DED43
:10244000080B08F091FA8DED0C0B204890ED100B65
:102450008DED060B9DED060B09F012F98DED080BC5
:102460009DED080B51EC100B0AF038FBCDE90A0189
:102470009DED0C0B53EC102B9DED0A0B51EC100B4A
:102480000AF010FE1E4A03C2104890ED0E0B8DEDAF
:10249000080B9DED080B09F0F3F88DED0C0B0B48C4
:1024A00090ED0C0B8DED060B9DED060B08F05CFA24
:1024B0008DED080B9DED080B51EC100B0AF00EFB97
:1024C000CDE90A011EE00000CDCC4C3D8015002076
:1024D0000000000000000040333333333333234027
:1024E0000000000000002440000000606666EE3F2F
:1024F000000000A09999A93F6800002080000020FA
:10250000980000209DED0C0B53EC102B9DED0A0B59
:1025100051EC100B0AF0C6FDFD4A03C2FD4890EDD8
:102520000E0B8DED080B9DED080B08F01DFA8DEDDF
:102530000C0BF84890ED0C0B8DED080B9DED080B86
:1025400008F012FA8DED0A0B9DED0C0B53EC102BDD
:102550009DED0A0B51EC100B0AF0A4FDEE4A03C2EC
:10256000EC4890ED0C0B8DED0C0B9DED0C0B09F078
:1025700087F8EA4880ED000BE64890ED0E0B8DEDF4
:10258000040B9DED040B09F07BF88DED080BE14881
:1025900090ED0C0B8DED000B9DED000B09F070F82C
:1025A0008DED040BDB4890ED100B8DED000B9DEDD8
:1025B000000B08F0D9F98DED020B9DED040B53ECE7
:1025C000102B9DED020B51EC100B0AF06BFDCDE9C9
:1025D00006019DED080B53EC102B9DED060B51EC05
:1025E000100B0AF05FFDCDE90C01CA4890ED0E0B0F
:1025F0008DED040B9DED040B08F0B6F98DED080B85
:10260000C44890ED100B8DED040B9DED040B09F00B
:1026100037F88DED060B9DED080B53EC102B9DED5F
:10262000060B51EC100B0AF03DFDCDE90A019DEDC2
:102630000C0B53EC102B9DED0A0B51EC100B0AF018
:1026400059FAB74A03C2B34890ED0E0B8DED040B57
:102650009DED040B08F088F98DED080BAD4890ED69
:102660000C0B8DED000B9DED000B09F009F88DEDC5
:10267000040BA84890ED100B8DED000B9DED000BA9
:1026800008F072F98DED020B9DED040B53EC102B4D
:102690009DED020B51EC100B0AF004FDCDE9060193
:1026A0009DED080B53EC102B9DED060B51EC100B20
:1026B0000AF0F8FCCDE90C01964890ED0E0B8DED7B
:1026C000040B9DED040B08F0DBFF8DED080B91482A
:1026D00090ED100B8DED040B9DED040B08F0D0FF79
:1026E0008DED060B9DED080B53EC102B9DED060BAD
:1026F00051EC100B0AF0D6FCCDE90A019DED0C0B54
:1027000053EC102B9DED0A0B51EC100B0AF0D6FE8A
:10271000844A03C27F4890ED0C0B8DED080B9DEDB4
:10272000080B08F021F98DED0C0B7A4890ED100B99
:102730008DED080B9DED080B08F016F98DED0A0BD9
:102740009DED0C0B53EC102B9DED0A0B51EC100B77
:102750000AF0A8FC744A03C2744890ED000B53ECD5
:10276000102B9FED730B51EC100B0AF0C3F9CDE960
:102770000601694890ED000B53EC102B9DED060B04
:1027800051EC100B0AF0B6F9CDE90801664890ED5E
:10279000000B53EC102B9DED080B51EC100B0AF0C5
:1027A000A9F9CDE90A019DED0A0B08F0CDFF8DEDE9
:1027B0000C0B9FED610B53EC102B9DED0C0B51ECB2
:1027C000100B0AF06FFC5E4A03C2584890ED000BF4
:1027D00053EC102B9FED560B51EC100B0AF08AF9BD
:1027E000CDE906014C4890ED000B53EC102B9DED0C
:1027F000060B51EC100B0AF061FECDE908014A48C6
:1028000090ED000B53EC102B9DED080B51EC100BD1
:102810000AF054FECDE90A019DED0A0B08F094FF81
:102820008DED0C0B9FED440B53EC102B9DED0C0B21
:1028300051EC100B0AF036FC414AC2E902013B4858
:1028400090ED000B53EC102B9FED390B51EC100B5E
:102850000AF034FECDE906012F4890ED000B53EC51
:10286000102B9DED060B51EC100B0AF043F9CDE94E
:1028700008012D4890ED000B53EC102B9DED080B3B
:1028800051EC100B0AF01AFECDE90A019DED0A0B7E
:1028900008F05AFF8DED0C0B9FED270B53EC102B1E
:1028A0009DED0C0B51EC100B0AF0FCFB244AC2E925
:1028B00004011E4890ED000B53EC102B9FED1C0BF8
:1028C00051EC100B0AF0FAFDCDE90601124890ED2B
:1028D000000B53EC102B9DED060B51EC100B0AF086
:1028E000EDFDCDE90801104890ED000B53EC102BE5
:1028F0009DED080B51EC100B0AF0FCF8CDE90A0134
:102900009DED0A0B08F020FF8DED0C0B1AE0000086
:10291000700000208015002088000020A00000200A
:102920007800002090000020A8000020680000200F
:10293000000000000000F03F000000000000E03F49
:10294000681600201FED040B53EC102B9DED0C0BB3
:1029500051EC100B0AF0A6FB3D4AC2E906013D48C6
:1029600090ED000B53EC102B3B4890ED000B51EC1D
:10297000100B0AF0A3FD9FED390B53EC102BCDE9A2
:102980000C019DED0C0B51EC100B0AF04FFB0DD21E
:102990002F4890ED020B8DED0C0B9DED0C0B51ECC7
:1029A000100B0AF09BF82A4AC2E902012D4890ED6B
:1029B000000B53EC102B2C4890ED000B51EC100B3E
:1029C0000AF07CFD9FED250B53EC102BCDE90C019B
:1029D0009DED0C0B51EC100B0AF028FB0DD21C489E
:1029E00090ED040B8DED0C0B9DED0C0B51EC100BD1
:1029F0000AF074F8164AC2E904011C4890ED000B75
:102A000053EC102B1A4890ED000B51EC100B0AF010
:102A100055FD9FED120B53EC102BCDE90C019DEDF4
:102A20000C0B51EC100B0AF001FB0DD2084890ED95
:102A3000060B8DED0C0B9DED0C0B51EC100B0AF001
:102A40004DF8034AC2E906019DED0E0B11B000BD21
:102A50006816002090000020A00000200000000068
:102A60000000000098000020780000207000002086
:102A70008000002010B52DED060BA2B09FEDFE0BDF
:102A800053EC102B9DED220B51EC100B0AF00AFBBE
:102A90009FEDFB0B53EC102BCDE910019DED100BBE
:102AA00051EC100B0AF0E2F8CDE91C019FEDF20B9E
:102AB00053EC102B9DED240B51EC100B0AF0F2FAA5
:102AC0009FEDEF0B53EC102BCDE910019DED100B9A
:102AD00051EC100B0AF0CAF8CDE91E019FEDE60B90
:102AE00053EC102B9DED260B51EC100B0AF0DAFA8B
:102AF0009FEDE30B53EC102BCDE910019DED100B76
:102B000051EC100B0AF0B2F8CDE92001DE4890ED4F
:102B1000060B8DED0A0B9DED200B8DED080B9DED49
:102B20000A0B53EC102B9DED080B51EC100B0AF027
:102B3000B9FACDE90E01D44890ED040B8DED060BEA
:102B40009DED1E0B8DED040B9DED060B53EC102B34
:102B50009DED040B51EC100B0AF0A4FACDE90A012B
:102B60009DED1C0B8DED040B9DED040B51EC100B3A
:102B700009F0B4FFCDE90601C34890ED020B8DEDDD
:102B8000040B9DED040B53EC102B9DED060B51EC4B
:102B9000100B0AF087FACDE908019DED0A0B53EC02
:102BA000102B9DED080B51EC100B0AF087FCCDE9C2
:102BB0000C019DED0E0B53EC102B9DED0C0B51EC0D
:102BC000100B0AF07BFC9FEDB10B53EC102BCDE901
:102BD00010019DED100B51EC100B0AF063FACDE9DA
:102BE0001401A94890ED060B8DED0A0B9DED1E0B0F
:102BF0008DED080B9DED0A0B53EC102B9DED080B92
:102C000051EC100B0AF04EFACDE90E019E4890ED02
:102C1000040B8DED060B9DED200B8DED040B9DED52
:102C2000060B53EC102B9DED040B51EC100B0AF02E
:102C300039FACDE90A01944890ED000B8DED060BB1
:102C40009DED1C0B8DED040B9DED060B53EC102B35
:102C50009DED040B51EC100B0AF024FACDE90801AC
:102C60009DED0A0B53EC102B9DED080B51EC100B56
:102C700009F040FFCDE90C019DED0E0B53EC102B3C
:102C80009DED0C0B51EC100B0AF018FC9FED7F0B27
:102C900053EC102BCDE910019DED100B51EC100BF6
:102CA0000AF000FACDE91601774890ED060B8DED9C
:102CB0000A0B9DED1C0B8DED080B9DED0A0B53ECE3
:102CC000102B9DED080B51EC100B0AF0EBF9CDE940
:102CD0000E016D4890ED020B8DED060B9DED200B66
:102CE0008DED040B9DED060B53EC102B9DED040BAD
:102CF00051EC100B0AF0D6F9CDE90A01624890EDCB
:102D0000000B8DED060B9DED1E0B8DED040B9DED67
:102D1000060B53EC102B9DED040B51EC100B0AF03D
:102D2000C1F9CDE908019DED0A0B53EC102B9DED87
:102D3000080B51EC100B0AF0C1FBCDE90C019DED25
:102D40000E0B53EC102B9DED0C0B51EC100B09F0FE
:102D5000D1FE9FED4E0B53EC102BCDE910019DEDF4
:102D6000100B51EC100B0AF09DF9CDE91801464803
:102D700090ED040B8DED0A0B9DED1C0B8DED080BFA
:102D80009DED0A0B53EC102B9DED080B51EC100B35
:102D90000AF088F9CDE90E013B4890ED020B8DED6C
:102DA000060B9DED1E0B8DED040B9DED060B53ECFC
:102DB000102B9DED040B51EC100B0AF073F9CDE9CB
:102DC0000A01314890ED000B8DED060B9DED200BB7
:102DD0008DED040B9DED060B53EC102B9DED040BBC
:102DE00051EC100B0AF05EF9CDE908019DED0A0BDC
:102DF00053EC102B9DED080B51EC100B09F07AFEF3
:102E0000CDE90C019DED0E0B53EC102B9DED0C0B41
:102E100051EC100B0AF052FB9FED1C0B53EC102BE6
:102E2000CDE910019DED100B51EC100B0AF03AF9B1
:102E3000CDE91A01174800680AF02AFCCDE90E0115
:102E40009DED140B8DED0C0B9DED0C0B53EC102B2D
:102E50009DED0E0B51EC100B0AF024F9CDE9100199
:102E6000094890ED000B8DED0E0B9DED0E0B53EC14
:102E7000102B9DED100B0FE050455254FB210940E3
:102E8000000000000080664068160020000000007E
:102E90000000E03F5400002051EC100B09F02AFE26
:102EA000FE4A03C2FE4800680AF0F2FBCDE90E01BB
:102EB0009DED160B8DED0C0B9DED0C0B53EC102BBB
:102EC0009DED0E0B51EC100B0AF0ECF8CDE9100162
:102ED000F24890ED020B8DED0E0B9DED0E0B53ECB9
:102EE000102B9DED100B51EC100B09F003FEEB4A7B
:102EF000C2E90201EA4800680AF0CAFBCDE90E0106
:102F00009DED180B8DED0C0B9DED0C0B53EC102B68
:102F10009DED0E0B51EC100B0AF0C4F8CDE9100139
:102F2000DE4890ED040B8DED0E0B9DED0E0B53EC7A
:102F3000102B9DED100B51EC100B09F0DBFDD74A67
:102F4000C2E90401D64800680AF0A2FBCDE90E01EF
:102F50009DED1A0B8DED0C0B9DED0C0B53EC102B16
:102F60009DED0E0B51EC100B0AF09CF8CDE9100111
:102F7000CA4890ED060B8DED0E0B9DED0E0B53EC3C
:102F8000102B9DED100B51EC100B09F0B3FDC34A53
:102F9000C2E90601104690ED060B8DED0C0B90ED8D
:102FA000060B8DED0A0B9DED0C0B53EC102B9DEDDC
:102FB0000A0B51EC100B0AF075F8CDE91001B74877
:102FC00090ED040B8DED080B90ED040B8DED060BD1
:102FD0009DED080B53EC102B9DED060B51EC100BE7
:102FE0000AF060F8CDE90C01AC4890ED020B8DEDD4
:102FF000040B90ED020B8DED020B9DED040B53ECD9
:10300000102B9DED020B51EC100B0AF04BF8CDE9A3
:103010000801A24890ED000B8DED040B90ED000B24
:103020008DED020B9DED040B53EC102B9DED020B6F
:1030300051EC100B0AF036F8CDE906019DED080BB6
:1030400053EC102B9DED060B51EC100B09F052FDCB
:10305000CDE90A019DED0C0B53EC102B9DED0A0BF5
:1030600051EC100B09F046FDCDE90E019DED100B62
:1030700053EC102B9DED0E0B51EC100B09F03AFDAB
:10308000CDE912019DED120B08F05EFB8DED120BE8
:10309000824890ED000B8DED100B9DED120B53EC63
:1030A000102B9DED100B51EC100B09F0DFFD7B4A4E
:1030B00003C27A4890ED020B8DED100B9DED120BC3
:1030C00053EC102B9DED100B51EC100B09F0CEFDC5
:1030D000724AC2E90201104690ED040B8DED100B0F
:1030E0009DED120B53EC102B9DED100B51EC100BC2
:1030F00009F0BCFD694AC2E90401104690ED060BD7
:103100008DED100B9DED120B53EC102B9DED100B64
:1031100051EC100B09F0AAFD604AC2E90601104605
:1031200090ED060B8DED080B90ED040B8DED060B6D
:103130009DED080B53EC102B9DED060B51EC100B85
:1031400009F0B0FFCDE90C01544890ED020B8DED74
:10315000080B90ED000B8DED060B9DED080B53EC6D
:10316000102B9DED060B51EC100B09F09BFFCDE9E8
:103170000A019DED0C0B53EC102B9DED0A0B51EC4D
:10318000100B09F0B7FC9FED470B53EC102BCDE96A
:103190000E019DED0E0B51EC100B09F083FFCDE9F4
:1031A00010019DED100B06F0CBFF404880ED0C0B9D
:1031B0003A4890ED060B8DED080B9FED3A1B9DED07
:1031C000080B07F035FC8DED0C0B344890ED040B2B
:1031D0008DED040B9FED331B9DED040B07F028FCD8
:1031E0008DED080B2D4890ED020B8DED000B9FED42
:1031F0002D1B9DED000B07F01BFC8DED040B2748EC
:1032000090ED000B8DED000B9FED261B9DED000B4F
:1032100007F00EFC8DED020B9DED040B53EC102B13
:103220009DED020B51EC100B0AF048F9CDE90601B7
:103230009DED080B53EC102B9DED060B51EC100B84
:1032400009F058FCCDE90A019DED0C0B53EC102B55
:103250009DED0A0B51EC100B0AF030F9CDE910018D
:103260000E4890ED060B8DED060B90ED000B8DEDED
:10327000040B9DED060B53EC102B9DED040B51EC54
:10328000100B09F00FFFCDE90A01044890ED040B83
:103290008DED060B90ED020B0AE000006816002091
:1032A00054000020000000000000004080150020B5
:1032B0008DED040B9DED060B53EC102B9DED040BD7
:1032C00051EC100B09F0EEFECDE908019DED0A0B63
:1032D00053EC102B9DED080B51EC100B0AF0EEF89F
:1032E0009FEDFE0B53EC102BCDE90C019DED0C0B6B
:1032F00051EC100B09F0D6FECDE90E019DED101B2F
:103300009DED0E0B07F038FAF64880ED0E0BF648EF
:1033100090ED060B8DED080B1FED1E1B9DED080BB0
:1033200007F086FB8DED0C0BEF4890ED040B8DED57
:10333000040B1FED241B9DED040B07F079FB8DEDB5
:10334000080BE94890ED020B8DED000B1FED2B1BD8
:103350009DED000B07F06CFB8DED040BE24890ED4A
:10336000000B8DED000B1FED311B9DED000B07F0E9
:103370005FFB8DED020B9DED040B53EC102B9DEDCF
:10338000020B51EC100B0AF099F8CDE906019DED06
:10339000080B53EC102B9DED060B51EC100B0AF0B3
:1033A0008DF8CDE90A019DED0C0B53EC102B9DED32
:1033B0000A0B51EC100B09F09DFBCDE91001CA4836
:1033C00090ED040B8DED060B90ED000B8DED040BD5
:1033D0009DED060B53EC102B9DED040B51EC100BE7
:1033E00009F060FECDE90A01BF4890ED060B8DEDB6
:1033F000060B90ED020B8DED040B9DED060B53ECCF
:10340000102B9DED040B51EC100B09F04BFECDE998
:1034100008019DED0A0B53EC102B9DED080B51ECB0
:10342000100B0AF04BF89FEDAD0B53EC102BCDE9D0
:103430000C019DED0C0B51EC100B09F033FECDE9A6
:103440000E019DED101B9DED0E0B07F095F9A548A3
:1034500080ED100B90ED0E0B8DED080B9DED080B24
:1034600008F00EF98DED0C0B9E4890ED0C0B8DEDD8
:10347000040B9DED040B08F003F98DED080B994842
:1034800090ED100B8DED040B9DED040B08F0F8F89A
:103490008DED060B9DED080B53EC102B9DED060BEF
:1034A00051EC100B09F0FEFDCDE90A019DED0C0B6E
:1034B00053EC102B9DED0A0B51EC100B09F0F2FDB3
:1034C000CDE91001874890ED0E0B8DED080B9DEDB9
:1034D000080B07F049FA8DED0C0B824890ED100BAC
:1034E0008DED080B9DED080B07F03EFA8DED0A0BF4
:1034F0009DED0C0B53EC102B9DED0A0B51EC100BBA
:1035000009F0D0FDCDE90E019DED100B53EC102B11
:103510009DED0E0B51EC100B09F0D0FF734A03C266
:10352000704890ED0E0B8DED080B9DED080B07F02C
:103530001BFA8DED0C0B6B4890ED0C0B8DED040B15
:103540009DED040B08F09CF88DED080B654890ED9F
:10355000100B8DED040B9DED040B08F091F88DED33
:10356000060B9DED080B53EC102B9DED060B51EC5B
:10357000100B09F097FDCDE90A019DED0C0B53EC02
:10358000102B9DED0A0B51EC100B09F08BFDCDE9D2
:103590001001544890ED0E0B8DED080B9DED080BBE
:1035A00008F06EF88DED0C0B4E4890ED100B8DED84
:1035B000080B9DED080B07F0D7F98DED0A0B9DED7B
:1035C0000C0B53EC102B9DED0A0B51EC100B09F07A
:1035D00069FDCDE90E019DED100B53EC102B9DED17
:1035E0000E0B51EC100B09F085FA414A03C23D481D
:1035F00090ED0C0B8DED0C0B9DED0C0B07F0B4F961
:103600008DED100B374890ED100B8DED0A0B9DEDF5
:103610000A0B08F035F88DED0C0B9DED0C0B51EC01
:10362000100B09F05BFACDE90E019DED100B53EC88
:10363000102B9DED0E0B51EC100B09F033FD2D4AB4
:1036400003C2284890ED0E0B8DED0C0B9DED0C0B7D
:1036500008F016F88DED100B224890ED0C0B8DED57
:103660000A0B9DED0A0B07F07FF98DED0C0B9DED1C
:103670000C0B51EC100B09F031FACDE90E019DED68
:10368000100B53EC102B9DED0E0B51EC100B09F0B1
:1036900009FD194A03C2134890ED0E0B8DED0C0B7A
:1036A0009DED0C0B07F060F98DED100B0D4890EDC2
:1036B0000C0B8DED0C0B9DED0C0B07F055F98DED02
:1036C0000E0B9DED100B53EC102B9DED0E0B51ECE2
:1036D000100B09F0E7FC094A03C211E000000000EA
:1036E000000000C08015002068160020680000203F
:1036F000800000209800002070000020880000203A
:103700007E4890ED0C0B8DED100B9DED100B07F02E
:10371000B7FF7B4880ED000B784890ED0E0B8DEDE8
:10372000080B9DED080B07F0ABFF8DED0C0B7348FC
:1037300090ED0C0B8DED040B9DED040B07F0A0FF3D
:103740008DED080B6D4890ED100B8DED040B9DED8C
:10375000040B07F009F98DED060B9DED080B53ECFA
:10376000102B9DED060B51EC100B09F09BFCCDE9E5
:103770000A019DED0C0B53EC102B9DED0A0B51EC47
:10378000100B09F08FFCCDE910015C4890ED0E0B99
:103790008DED080B9DED080B07F0E6F88DED0C0B99
:1037A000564890ED100B8DED080B9DED080B07F0C2
:1037B00067FF8DED0A0B9DED0C0B53EC102B9DED6F
:1037C0000A0B51EC100B09F06DFCCDE90E019DEDDB
:1037D000100B53EC102B9DED0E0B51EC100B09F060
:1037E00089F9484A03C2454890ED0E0B8DED080B50
:1037F0009DED080B07F0B8F88DED0C0B3F4890EDF0
:103800000C0B8DED040B9DED040B07F039FF8DEDD6
:10381000080B3A4890ED100B8DED040B9DED040B59
:1038200007F0A2F88DED060B9DED080B53EC102B65
:103830009DED060B51EC100B09F034FCCDE90A01AB
:103840009DED0C0B53EC102B9DED0A0B51EC100B66
:1038500009F028FCCDE91001284890ED0E0B8DED04
:10386000080B9DED080B07F00BFF8DED0C0B2348AB
:1038700090ED100B8DED080B9DED080B07F000FF90
:103880008DED0A0B9DED0C0B53EC102B9DED0A0BEF
:1038900051EC100B09F006FCCDE90E019DED100B6B
:1038A00053EC102B9DED0E0B51EC100B09F006FEA6
:1038B000154A03C2114890ED0C0B8DED0C0B9DEDDC
:1038C0000C0B07F051F88DED100B0C4890ED100B20
:1038D0008DED0C0B9DED0C0B07F046F88DED0E0BEE
:1038E0009DED100B53EC102B9DED0E0B51EC100BBE
:1038F00009F0D8FB054A03C228B010BD801500208E
:10390000A00000207800002090000020A8000020E7
:1039100010B503F0ADFE05F035F810BD7CB50546D9
:103920000C460121042004F037FC0021084600F079
:1039300033FAB6227E21002000F060FAB62214216C
:10394000002000F05BFA012008F093FB00210846FC
:1039500000F022FA00227C21104600F04FFA0120EC
:1039600008F087FBA9224021002000F047FA2A46F0
:103970004121002000F042FA04227D21002000F0C5
:103980003DFA22460F21012000F038FA06221021CC
:10399000012000F033FA2820009000208DF8040068
:1039A00003208DF8050002208DF8070069461D48A8
:1039B00002F0E8F91DB906201B49088010E0012D2E
:1039C00003D10C20184908800AE0022D03D11820E9
:1039D0001549088004E0032D02D1302012490880E7
:1039E000042C03D1FA201149088019E0032C04D1DA
:1039F0004FF4FA700D49088012E0022C04D14FF404
:103A00007A700A4908800BE0012C04D14FF4FA6067
:103A10000649088004E01CB94FF47A600349088025
:103A20007CBD000000080240200000202200002091
:103A300010B52DED0A8B04460623224612210020E4
:103A400000F070F92078617840EA012000B2E0804F
:103A5000A078E17840EA012000B2208120796179E4
:103A600040EA012000B26081022322462221002088
:103A700000F058F96078217840EA01204011A4F85C
:103A80004800B4F9480000EE100AF8EEC00AB4EE9F
:103A9000001AB3EE070A00EE810A10EE101A08466B
:103AA00009F0F6FDC4E91401062322460221012093
:103AB00000F038F92078617840EA012000B22085D2
:103AC000A078E17840EA012000B260852079617930
:103AD00040EA012000B2A0858B48B0F9000009F04F
:103AE0007AFA41EC1A0BB4F9060009F074FA41ECC9
:103AF0001C0B9FED860B53EC102B09F0B7F841EC33
:103B00001B0B53EC1A2B09F0CDFA41EC190B9FED6E
:103B1000810B53EC102B09F0C5FA41EC180B7F48D0
:103B200090ED001BB0EE410AF0EE610A53EC102B51
:103B300051EC180B09F0C2FCC4E904017248B0F959
:103B4000000009F048FA41EC1A0BB4F9080009F03A
:103B500042FA41EC1C0B9FED6D0B53EC102B09F05E
:103B600085F841EC1B0B53EC1A2B09F09BFA41EC46
:103B7000190B9FED680B53EC102B09F093FA41ECF5
:103B8000180B664890ED021BB0EE410AF0EE610A98
:103B900053EC102B51EC180B09F090FCC4E9060112
:103BA0005948B0F9000009F016FA41EC1A0BB4F9C3
:103BB0000A0009F010FA41EC1C0B9FED540B53EC7A
:103BC000102B09F053F841EC1B0B53EC1A2B09F0A6
:103BD00069FA41EC190B9FED4F0B53EC102B09F0D8
:103BE00061FA41EC180B4D4890ED041BB0EE410A10
:103BF000F0EE610A53EC102B51EC180B09F05EFC4F
:103C0000C4E908014648B0F9000009F0E4F941ECC4
:103C1000190BB4F9280009F0DEF941EC1B0B9FEDFC
:103C20003B0B53EC102B09F021F841EC1A0B53EC31
:103C3000192B09F037FA41EC180B384890ED061BA8
:103C4000B0EE410AF0EE610A53EC102B51EC180B68
:103C500009F034FCC4E90C013148B0F9000009F066
:103C6000BAF941EC190BB4F92A0009F0B4F941ECA6
:103C70001B0B9FED260B53EC102B08F0F7FF41ECCC
:103C80001A0B53EC192B09F00DFA41EC180B2348D1
:103C900090ED081BB0EE410AF0EE610A53EC102BD8
:103CA00051EC180B09F00AFCC4E90E011C48B0F9EC
:103CB000000009F090F941EC190BB4F92C0009F05F
:103CC0008AF941EC1B0B9FED110B53EC102B08F004
:103CD000CDFF41EC1A0B53EC192B09F0E3F941EC41
:103CE000180B0E4890ED0A1BB0EE410AF0EE610A87
:103CF00053EC102B51EC180B09F0E0FBC4E9100158
:103D0000BDEC0A8B10BD0000200000200000000068
:103D1000E0FFEF4005A3923A019D234018160020D2
:103D2000220000202DE9F04104460F4615461E46AC
:103D30001CB900201649086003E00020144908312E
:103D40000860012008F0A2F947F08001114804F052
:103D50008FFD1CB900210F4804F08AFD07E0002107
:103D60000C4804F085FD28706D1C701EC6B2002E34
:103D7000F5DC1CB901200649086003E00120044974
:103D800008310860012008F081F9BDE8F0810000E9
:103D9000880241420030014070B504460D461CB90E
:103DA00000201349086003E0002011490831086031
:103DB00045F080010F4804F05BFD1CB900210D485F
:103DC00004F056FD00210B4804F052FD0A4908702A
:103DD0001CB901200649086003E0012004490831AC
:103DE0000860012008F052F90348007870BD000017
:103DF00088024142003001402400002070B5044692
:103E00000D4616461CB900200F49086003E000204B
:103E10000D4908310860012008F038F905F07F01EC
:103E20000A4804F025FD3146084804F021FD1CB97C
:103E300001200549086003E00120034908310860BA
:103E40000A2008F023F970BD880241420030014089
:103E50002DE9F04F2DED048B87B006460C46B6F8E1
:103E60000EA0A07B80030FFA80F999FBFAF0A0F571
:103E700080401FFA80FB0FFA8BF515FB05F73846DB
:103E8000F91707EB5161C91194F90D2051430691BF
:103E9000207BC0010590059815FB00F00490049A62
:103EA00006998818C11700EBD151491201F580110C
:103EB000039194F90200A0300290DDE9022101FB98
:103EC00002F0C11700EB115109130191B6F9080076
:103ED000019900FB01F840464FEAE87108EBD14137
:103EE00049130DB294F9001005EBC100C11700EBA6
:103EF00011710D11284609F06EF841EC190B9FED78
:103F00000A0B53EC102B08F0B1FE41EC180B9FED9F
:103F1000080B53EC102B09F0C5F841EC100B07B05F
:103F2000BDEC048BBDE8F08F000000000000B04045
:103F300000000000005094402DE9F04F2DED048B5F
:103F400085B006460C46B6F80E90E089800390FBDB
:103F5000F9F004900498A0F580401FFA80FA0FFA57
:103F60008AF515FB05F73846F91707EB5161C911BA
:103F700094F90D2051430391207B4FEAC01B039914
:103F800015FB0B10C11700EBD1514912029194F9A6
:103F90000300A0300190029901F58011019A01FB04
:103FA00002F0C11700EB115109130091B6F90A0094
:103FB000009900FB01F840464FEAE87108EBD14157
:103FC00049130DB294F9011005EBC100C11700EBC4
:103FD00011710D11284608F0FEFF41EC190B9FED01
:103FE0000A0B53EC102B08F041FE41EC180B9FED2F
:103FF000080B53EC102B09F055F841EC100B05B0F1
:10400000BDEC048BBDE8F08F000000000000B04064
:1040100000000000005094402DE9F05F2DED048B6E
:1040200005460C46E889E189401A0FFA80F9218992
:1040300011FB09F0C11700EB91718E10B5F90C005E
:10404000B4F90A10401AC703A088E98909B24900E7
:1040500000FB01F808F50040C11700EB11414FEAE1
:10406000214AB81BB4F90610514490FBF1FB5846A5
:1040700008F0B1FF41EC190B9FED090B53EC102B2D
:1040800008F0F4FD41EC180B9FED070B53EC102BDF
:1040900009F008F841EC100BBDEC048BBDE8F09F73
:1040A00000000000C0FFDF40000000000088B340B7
:1040B00010B5012007F0EAFF82214B2000F08AF9B9
:1040C0000A2007F0D6FF01214B2000F083F93821A8
:1040D0004E2000F07FF9074800F01AF9172151200F
:1040E00000F078F95221084600F074F9642007F0D6
:1040F000C0FF10BDC002002070B52DED048B04463A
:104100002B214C2000F066F911E04C2000F0DAF889
:104110000546482000F0D6F800F0010000B107E0A5
:1041200005F0020018B105F0040000B100E0ECE772
:1041300000BF08222146422000F09EF820786178D6
:1041400040EA012000B22081B4F90800C0102081AB
:10415000A078E17840EA012000B26081B4F90A0059
:10416000C01060812079617940EA012000B2A0810D
:10417000B4F90C004010A081A079E17940EA012057
:104180008010E0813A492046FFF762FEB0EE409A87
:10419000F0EE609A374890ED001BB0EE410AF0EE69
:1041A000610A53EC102B51EC190B09F087F941EC23
:1041B000180B304890ED061BB0EE410AF0EE610A94
:1041C00053EC102B51EC180B08F06CFFC4E9040100
:1041D00027492046FFF7B0FEB0EE409AF0EE609A15
:1041E000244890ED021BB0EE410AF0EE610A53EC58
:1041F000102B51EC190B09F061F941EC180B1D481B
:1042000090ED081BB0EE410AF0EE610A53EC102B62
:1042100051EC180B08F046FFC4E90601144920468A
:10422000FFF7FAFEB0EE409AF0EE609A114890ED7A
:10423000041BB0EE410AF0EE610A53EC102B51EC76
:10424000190B09F03BF941EC180B0A4890ED0A1BD9
:10425000B0EE410AF0EE610A53EC102B51EC180B52
:1042600008F020FFC4E90801BDEC048B70BD00001C
:10427000C0020020D002002070B506460C4615464C
:1042800000200E490860012007F000FF46F0800181
:104290000B4804F0EDFA07E00021094804F0E8FAC1
:1042A0002070641C681EC5B2002DF5DC0120034996
:1042B00008600A2007F0EAFE70BD0000800241425B
:1042C0000030014010B5044600200D49086001206F
:1042D00007F0DCFE44F080010A4804F0C9FA2146E8
:1042E000084804F0C5FA0849087001200749C1F8D8
:1042F00080020A2007F0CAFE0348007810BD0000C3
:1043000080024142003001401D0000200000414277
:1043100030B585B0044600200490039000900190D1
:10432000029000254FF47A7007F0A3FE022204A940
:104330005D20FFF7A1FF042203A96220FFF79CFF85
:104340000A2269466820FFF797FF9DF8100040B2E7
:1043500020709DF8110040B260709DF80E0040B2D0
:10436000A0709DF80F0040B2E0709DF803000502B8
:104370009DF802002843A0809DF8010005029DF8E9
:104380000000284300B2E0809DF8070005029DF878
:104390000600284300B220819DF80D0005029DF81B
:1043A0000C00284300B260819DF8090020739DF83D
:1043B000080040B260739DF8050000F07F004FF6E2
:1043C000FF7101EA00259DF804002843E08105B053
:1043D00030BD000070B504460D4600200A49086053
:1043E000012007F053FE04F07F01084804F040FA72
:1043F0002946064804F03CFA01200549C1F880022C
:104400000A2007F043FE70BD8002414200300140A7
:104410000000414230B52DED048B87B004460D46B7
:10442000152201A9312000F009FC9DF804009DF837
:10443000051040EA012020809DF806009DF8071035
:1044400040EA012060809DF8080040B220719DF88C
:1044500009009DF80A1040EA012000B2E0809DF8B2
:104460000B009DF80C1040EA012000B220819DF85D
:104470000D0040B2A0729DF80E0040B2E0729DF8AF
:104480000F009DF8101040EA0120A0819DF8110056
:104490009DF8121040EA0120E0819DF8130040B21F
:1044A00020749DF8140040B260749DF815009DF8CA
:1044B000161040EA012000B260829DF8170040B259
:1044C00020759DF8180040B260759FED800BB0EE2E
:1044D000408AF0EE608A208808F094FD41EC190BC8
:1044E00053EC182B08F0C2FBC5E900019FED790BD6
:1044F000B0EE408AF0EE608A608808F083FD41ECFF
:10450000190B53EC182B08F0B1FBC5E902019FED24
:10451000730BB0EE408AF0EE608A94F9040008F064
:104520005AFD41EC190B53EC182B08F09FFBC5E921
:1045300004019FED6C0BB0EE408AF0EE608AB4F996
:104540000610A1F5804008F046FD41EC190B53EC34
:10455000182B08F08BFBC5E906019FED640BB0EE4C
:10456000408AF0EE608AB4F90810A1F5804008F0A6
:1045700032FD41EC190B53EC182B08F077FBC5E921
:1045800008019FED5C0BB0EE408AF0EE608A94F972
:104590000A0008F020FD41EC190B53EC182B08F031
:1045A00065FBC5E90A019FED550BB0EE408AF0EEC0
:1045B000608A94F90B0008F00EFD41EC190B53ECE6
:1045C000182B08F053FBC5E90C019FED4E0BB0EE24
:1045D000408AF0EE608AA08908F014FD41EC190BC6
:1045E00053EC182B08F042FBC5E90E019FED470B79
:1045F000B0EE408AF0EE608AE08908F003FD41ECFD
:10460000190B53EC182B08F031FBC5E910019FED95
:10461000410BB0EE408AF0EE608A94F9100008F089
:10462000DAFC41EC190B53EC182B08F01FFBC5E921
:1046300012019FED3A0BB0EE408AF0EE608A94F9D9
:10464000110008F0C8FC41EC190B53EC182B08F0D2
:104650000DFBC5E914019FED210BB0EE408AF0EE91
:10466000608AB4F9120008F0B6FC41EC190B53EC67
:10467000182B08F0FBFAC5E916019FED180BB0EEF8
:10468000408AF0EE608A94F9140008F0A4FC41EC32
:10469000190B53EC182B08F0E9FAC5E918019FED46
:1046A000210BB0EE408AF0EE608A94F9150008F014
:1046B00092FC41EC190B53EC182B08F0D7FAC5E922
:1046C0001A0107B0BDEC048B30BD000000000000F3
:1046D0000000703F000000000000D041000000001A
:1046E0000000F04200000000000030410000000027
:1046F0000000C041000000000000F0410000000088
:1047000000004042000000000000C03F0000000028
:104710000000504000000000000070400000000059
:104720000000E040000000000000004410B5144903
:104730001448FFF76FFEB6217E2000F033FB012006
:1047400007F097FC01211C2000F02CFB01211D200B
:1047500000F028FB02211F2000F024FB33211B2046
:1047600000F020FB142007F084FC9FED070B0848A5
:1047700080ED000B00F06CF8054880ED000B10BDDB
:10478000F0030020D803002000000000000000001B
:104790002800002010B52DED0C8B9FED260BB0EE00
:1047A000408AF0EE608A9FED250BB0EE40AAF0EE55
:1047B00060AA53EC1A2B51EC180B08F09BF941EC52
:1047C0001B0B53EC1B2B51EC180B08F04FFA41EC70
:1047D000190B53EC192B9FED1B0B51EC100B08F030
:1047E0006DFE41EC1D0B194890ED201BB0EE410A07
:1047F000F0EE610A53EC102B51EC1D0B08F052FC4B
:1048000041EC1B0B00F024F8B0EE40DAF0EE60DA79
:1048100053EC192B51EC1D0B08F044FC41EC1C0B24
:1048200053EC1B2B08F066F941EC100BBDEC0C8B24
:1048300010BD00007B14AE47E17A843F9A999999A4
:104840009999B93F000000000000F03F801500205A
:1048500010B52DED0C8B2B4800F06EF82A4890ED2A
:10486000000B53EC102B9FED290B51EC100B08F0B3
:10487000FDF941EC1C0B234890ED041BB0EE410AFE
:10488000F0EE610A9FED231B53EC112B51EC100B42
:1048900008F0ECF941EC1D0BB0EE4C1AF0EE6C1A7E
:1048A000B0EE4D0AF0EE6D0A06F0C2F8B0EE40BA76
:1048B000F0EE60BA9FED190B53EC102B51EC1B0B73
:1048C00008F024FD41EC1A0B9FED160B53EC102B56
:1048D00008F0E8FB41EC190B9FED140B53EC102B87
:1048E00008F0C4F941EC180B124890ED000B53ECA2
:1048F000102B51EC180B08F0E1FD41EC100BBDEC56
:104900000C8B10BD6804002078D8000823C95AE039
:104910007EDAFD3F00000000D0BCF840000000003F
:104920000000F03F666666666602724039B4C8767B
:10493000BE9F7A3F2800002010B52DED108B84B06B
:104940000446204600F0CAF900BF032000F09EF99B
:1049500000200028F9D103222146042000F06EF93E
:10496000A0780004617840EA012021780843606063
:10497000AD4890ED1C2BB0EE420AF0EE620A90EDCD
:10498000102BB0EE421AF0EE621A53EC102B51ECE1
:10499000110B08F087FB41EC180BA34890ED1C1B92
:1049A000B0EE410AF0EE610A9FEDA01B06F040F860
:1049B000B0EE40CAF0EE60CA9B4890ED121BB0EE1C
:1049C000410AF0EE610A53EC102B51EC1C0B08F07D
:1049D00069FB41EC190B944890ED1C1BB0EE410AA9
:1049E000F0EE610A9FED931B06F022F8B0EE40CA8C
:1049F000F0EE60CA8C4890ED141BB0EE410AF0EE68
:104A0000610A53EC102B51EC1C0B08F04BFB41ECF2
:104A10001A0B854890ED0E1BB0EE410AF0EE610ACC
:104A200053EC182B51EC100B08F064F841EC1D0B03
:104A300053EC192B08F05EF841EC1C0B53EC1A2BCD
:104A400008F058F8CDE90201774890ED1C2BB0EE44
:104A5000420AF0EE620A90ED082BB0EE421AF0EE38
:104A6000621A53EC102B51EC110B08F01BFB41ECBC
:104A7000180B6D4890ED1C1BB0EE410AF0EE610A78
:104A80009FED6A1B05F0D4FFB0EE40CAF0EE60CA9D
:104A9000654890ED0A1BB0EE410AF0EE610A53EC56
:104AA000102B51EC1C0B08F0FDFA41EC190B5E4881
:104AB00090ED1C1BB0EE410AF0EE610A9FED5D1B0C
:104AC00005F0B6FFB0EE40CAF0EE60CA564890ED71
:104AD0000C1BB0EE410AF0EE610A53EC102B51ECC6
:104AE0001C0B08F0DFFA41EC1A0B4F4890ED061B47
:104AF000B0EE410AF0EE610A53EC182B51EC100BAA
:104B000007F0F8FF41EC1F0B53EC192B07F0F2FFF5
:104B100041EC1E0B53EC1A2B07F0ECFF41EC1C0B85
:104B2000606808F058FA41EC1D0B53EC1C2B08F0A0
:104B3000B9FACDE90001606808F04DFA41EC1C0BB0
:104B40009FED3A1BB0EE4C0AF0EE6C0A05F070FFD8
:104B5000B0EE408AF0EE608A334890ED1C2BB0EE48
:104B6000420AF0EE620A90ED182BB0EE421AF0EE17
:104B7000621A53EC102B51EC110B08F093FA41EC34
:104B80001C0B294890ED161BB0EE410AF0EE610AAD
:104B900053EC102B51EC1C0B07F0ACFF41EC190B44
:104BA00053EC192B51EC180B08F07CFA41EC1A0B62
:104BB000606808F010FA41EC1E0B9FED1E1BB0EE72
:104BC0004E0AF0EE6E0A05F033FFB0EE40DAF0EE7A
:104BD00060DA154890ED1A1BB0EE410AF0EE610A5A
:104BE00053EC102B51EC1D0B08F05CFA41EC1C0B44
:104BF00053EC1A2B07F07EFF41EC1B0B9DED000BD5
:104C000053EC102B9DED020B51EC100B07F072FFD3
:104C100041EC1C0B53EC1B2B07F06CFFC4E90401A7
:104C200004B0BDEC108B10BDF003002000000000AC
:104C300000000040000000000000084070B506467B
:104C40000C46154600200F490860012007F01EFAA7
:104C500046F080010C4803F00BFE00210A4803F0E7
:104C600007FE07E00021084803F002FE2070641CE4
:104C7000681EC5B2002DF5DC01200249086007F06E
:104C800005FA70BD840241420030014010B504466F
:104C900000200E490860012007F0F8F944F0800177
:104CA0000B4803F0E5FD0021094803F0E1FD002178
:104CB000074803F0DDFD0749087001200649C1F8E7
:104CC000840207F0E3F90348007810BD84024142F2
:104CD00000300140300000200000414210B52DEDB1
:104CE000088B044600BF0320FFF7D0FF00200028F8
:104CF000F9D1032221460720FFF7A0FFA078000486
:104D0000617840EA0120217808436060606808F01B
:104D100062F941EC1A0B224890ED001BB0EE410AFB
:104D2000F0EE610A53EC102B51EC1A0B08F0C6FBA5
:104D300041EC180B1A4890ED021BB0EE410AF0EE60
:104D4000610A53EC102B51EC180B08F0ABF941EC55
:104D5000190B53EC182B51EC180B08F0A3F941EC8C
:104D60001B0B0F4890ED041BB0EE410AF0EE610AF8
:104D700053EC102B51EC1B0B08F094F941EC1A0B7F
:104D800053EC192B07F0B6FE054AC2E91C01104688
:104D900090ED1C0B84ED020BBDEC088B10BD0000E8
:104DA000F003002070B504460D4600BF0320FFF756
:104DB0006DFF00F010000028F8D0012007F066F920
:104DC00000200A490860012007F060F904F07F0123
:104DD000074803F04DFD2946054803F049FD012031
:104DE0000449C1F8840207F051F970BD84024142C0
:104DF000003001400000414210B58AB00446012154
:104E0000022003F0C9F90121042003F0D5F94FF481
:104E10008070089002208DF8240003208DF8250072
:104E200000208DF8260002208DF8270008A91B48D5
:104E300000F0A8FF02220821184800F0EBFFD12063
:104E4000ADF814000020ADF8160040F2E7300690EF
:104E50000020ADF81C0005A9114804F073FA602089
:104E6000ADF800000120ADF802000020ADF80C0004
:104E700069460B4804F0B8F90821094804F004FA1F
:104E80000121074804F0D0F82146054804F0DEF877
:104E90005021034804F04FFA0AB010BD000402404C
:104EA0000008004000BFFEE710B5044671A120468F
:104EB000FBF788FB28B901207149087003F062FDF7
:104EC000D7E070A12046FBF77DFB18B91E206C4986
:104ED0000870CEE071A12046FBF774FB18B91F20C3
:104EE00067490870C5E073A12046FBF76BFB10B95A
:104EF00003F076FDBDE072A12046FBF763FB10B91D
:104F000004F0C6FFB5E073A12046FBF75BFB10B9C8
:104F100004F064FFADE073A12046FBF753FB48B9F2
:104F200000207449086004F033FF01207249C1F881
:104F3000AC029EE071A12046FBF744FB28B9462055
:104F40004F490870FEF7E4FC93E072A12046FBF79E
:104F500039FB28B948204A490870FDF7AFF888E0C6
:104F600073A12046FBF72EFB28B94920444908705D
:104F700004F0F4FE7DE074A12046FBF723FB28B982
:104F80004A203F49087002F0B1FA72E074A120464D
:104F9000FBF718FB18B96A203949087069E074A159
:104FA0002046FBF70FFB18B96B203549087060E00D
:104FB00073A12046FBF706FB10B900F0F1FD58E0A5
:104FC00074A12046FBF7FEFA28B964202C4908702A
:104FD00000F0A4FD4DE073A12046FBF7F3FA38B9C9
:104FE0006520274908704FF4803000F0ABFC40E0AA
:104FF0006FA12046FBF7E6FA28B914202049087073
:1050000001F0CAFB35E06DA12046FBF7DBFA10B9D1
:1050100002F0AAFA2DE06DA12046FBF7D3FA10B9F1
:1050200002F08AFA25E06DA12046FBF7CBFA28B9F9
:1050300066201349087000F0EFFB1AE06BA12046D0
:10504000FBF7C0FA10B900F0CDFB12E06CA12046CE
:10505000FBF7B8FA10B902F04FF90AE06CA120464C
:10506000FBF7B0FA10B902F05FF902E00020044942
:10507000087010BD424D495F535441525400000026
:10508000380000204D61676E657469736D4F666608
:105090007365745F494E4954000000004D61676EAE
:1050A000657469736D4F66667365745F53544F50D2
:1050B0000000000053616D706C655F53544F5000E9
:1050C000573235515F44617461436F6E73756C7410
:1050D00000000000573235515F44617461436C65D4
:1050E00061720000573235515F43686970457261E3
:1050F00073650000AC024042000040424174746994
:1051000074756465536F6C7574696F6E5F54455345
:1051100054000000416363656C65726174696F6E71
:10512000536F6C7574696F6E5F5445535400000083
:1051300056656C6F63697479536F6C7574696F6EC3
:105140005F54455354000000506F736974696F6E6B
:10515000536F6C7574696F6E5F5445535400000053
:10516000494D554F66667365745F494E495400005A
:10517000494D554261636B4F66667365740000006C
:10518000464D554F66667365745F4445494E4954B4
:1051900000000000446174615F53544F5241474521
:1051A00000000000446174615F524541440000000A
:1051B0004865696768745F5445535400506F73695C
:1051C00074696F6E5F494E4954000000506F7369F7
:1051D00074696F6E5F4445494E495400436F6E7465
:1051E000726F6C5F5354415254000000436F6E74F1
:1051F000726F6C5F454D455247454E435900000064
:105200004D6F746F7243616C5F5354415254000090
:105210004D6F746F7243616C5F53544F50000000C8
:1052200010B52DED108BFE4890ED201BB0EE410A1D
:10523000F0EE610A53EC102B9FEDFA1B51EC110BB1
:1052400008F03CF9F94A03C2F948006808F020FA6E
:1052500041EC190BF54890ED000B53EC102B51EC81
:10526000190B07F01FFF41EC180BF24890ED000BF3
:1052700053EC102B51EC180B07F03CFCED4A03C229
:10528000EB48006808F004FA41EC180BEA4890ED8E
:10529000000B53EC102BE54890ED000B51EC100B7C
:1052A00008F00CF941EC190B53EC182B07F0DEFC5D
:1052B000E24A03C2DD4890ED000BDF4880ED000BB1
:1052C000D74890ED0C1BB0EE410AF0EE610A05F0F4
:1052D0004BFBB0EE40AAF0EE60AAD14890ED101B57
:1052E000B0EE410AF0EE610A05F03EFBB0EE40BAC6
:1052F000F0EE60BA53EC1A2B51EC1B0B07F0D2FE08
:1053000041EC180BCE4890ED000B53EC102B9FEDA9
:10531000C50B51EC100B07F0C5FE41EC1A0BC7484A
:1053200090ED000B53EC102B9FEDC60B51EC100BC6
:1053300007F0B8FE41EC1C0BBE4890ED000B53EC9F
:10534000102B9FEDC20B51EC100B07F0ABFE41ECA4
:105350001E0BB64890ED000B53EC102B9FEDBD0BD0
:1053600051EC100B07F09EFE41EC1F0B53EC1E2B73
:1053700007F0C0FB41EC1D0B53EC1C2B07F0BAFBF4
:1053800041EC1B0B53EC1A2B07F0B4FB41EC190B4F
:1053900053EC182B07F06AFCB04A03C2A04890ED0A
:1053A0000C1BB0EE410AF0EE610A51EC100B07F055
:1053B00095FBAB4A03C29E48006808F069F941ECCE
:1053C000190BA74890ED000B53EC102B51EC190B67
:1053D00007F068FE41EC180BA24890ED000B53EC6F
:1053E000102B51EC180B07F085FB9E4A03C2904826
:1053F000006808F04DF941EC190B9B4890ED000B4B
:1054000053EC102B964890ED000B51EC100B08F06C
:1054100055F841EC180B53EC192B07F027FC934A75
:1054200003C28F4890ED000B8F4880ED000B8F4832
:1054300090ED000B53EC102B9FED840B51EC100BF7
:1054400007F030FE41EC180B864890ED000B53EC52
:10545000102B9FED870B51EC100B07F023FE41EC56
:105460001A0B7F4890ED000B53EC102B9FED6D0B4A
:1054700051EC100B07F016FE41EC1B0B53EC1A2BF2
:1054800007F038FB41EC190B53EC182B07F032FBFB
:10549000794A03C2624890ED101BB0EE410AF0EE6B
:1054A000610A51EC100B07F019FB744A03C2604803
:1054B000006808F0EDF841EC190B704890ED000B16
:1054C00053EC102B51EC190B07F0ECFD41EC180BD1
:1054D0006B4890ED000B53EC102B51EC180B07F0C0
:1054E00009FB674A03C25248006808F0D1F841EC52
:1054F000190B644890ED000B53EC102B5F4890EDB6
:10550000000B51EC100B07F0D9FF41EC180B53ECDA
:10551000192B07F0ABFB5C4A03C2584890ED000B17
:10552000584880ED000B584890ED000B53EC102BC1
:105530009FED4F0B51EC100B07F0B4FD41EC180B35
:105540004F4890ED000B53EC102B9FED490B51ECA5
:10555000100B07F0A7FD41EC1A0B484890ED000B2B
:1055600053EC102B9FED2F0B51EC100B07F09AFD15
:1055700041EC1B0B53EC1A2B07F0BCFA41EC190B56
:1055800053EC182B07F0B6FA404A03C29FED310BDB
:1055900053EC102B3D4890ED000B51EC100B07F035
:1055A00065FB41EC180B9FED2B0B53EC102B324895
:1055B00090ED000B51EC100B07F058FB41EC1A0B6F
:1055C0009FED240B53EC102B244890ED000B51EC75
:1055D000100B07F04BFB41EC1B0B53EC1A2B07F0A5
:1055E00089FA41EC190B53EC182B07F067FF284A96
:1055F00003C29FED180B53EC102B244890ED000BC9
:1056000051EC100B07F032FB41EC180B9FED110B26
:1056100053EC102B184890ED000B51EC100B39E0B7
:1056200080150020000000000000F03FC8000020AE
:1056300054000020D0000020B0000020D80000203E
:1056400078D800089A9999999999C93F0000000063
:1056500000000000000000000000104010010020C9
:10566000E0000020E8000020B8000020F00000204A
:10567000000000000000E03F18010020F8000020BA
:1056800000010020C00000200801002020010020AF
:105690002801002007F0EAFA41EC1A0B1FED130B6A
:1056A00053EC102B484890ED000B51EC100B07F019
:1056B000DDFA41EC1B0B53EC1A2B07F01BFA41EC03
:1056C000190B53EC182B07F015FA404A03C21FEDD3
:1056D0001F0B53EC102B3E4890ED000B51EC100BC0
:1056E00007F0C4FA41EC180B1FED260B53EC102BFE
:1056F000384890ED000B51EC100B07F0B7FA41EC75
:105700001A0B1FED2C0B53EC102B2F4890ED000BB8
:1057100051EC100B07F0AAFA41EC1B0B53EC1A2BBF
:1057200007F0CCFE41EC190B53EC182B07F0E2F913
:10573000294A03C21FED390B53EC102B244890ED7E
:10574000000B51EC100B07F091FA41EC180B1FED18
:105750003F0B53EC102B1F4890ED000B51EC100B3E
:1057600007F084FA41EC1A0B1FED460B53EC102B9B
:10577000154890ED000B51EC100B07F077FA41EC57
:105780001B0B53EC1A2B07F099FE41EC190B53EC51
:10579000182B07F093FE114A03C2114890ED000B3D
:1057A00003F060F90C4890ED000B03F0CDF90A48C6
:1057B00090ED000B03F03AFA084890ED000B03F06F
:1057C000A7FABDEC108B10BD1001002030010020A5
:1057D0002001002018010020380100204001002095
:1057E0002801002010B503F0FBF84FF47A71094846
:1057F00003F09DFD4FF47A71064803F09AFD4FF4D3
:105800007A71044803F097FD4FF47A71014803F070
:1058100094FD10BD0004004010B59FED0A0B0B482D
:1058200080ED000B9FED070B094880ED000B9FED0D
:10583000050B084880ED000B01F01AFF03F0A2F8F9
:1058400010BD00000000000000000000B0000020BB
:10585000B8000020C000002010B52DED068B3248A6
:1058600090ED0A2BB0EE420AF0EE620A90ED002BAA
:10587000B0EE421AF0EE621A53EC102B51EC110B01
:1058800007F01CFE41EC1A0B284890ED000B53EC7E
:10589000102B51EC1A0B07F005FC41EC190B9FED96
:1058A000240B53EC102B07F0E1F941EC180B9FEDA2
:1058B000220B53EC102B07F0F5FB214AC2E91A0129
:1058C000194890ED0C2BB0EE420AF0EE620A90ED12
:1058D000022BB0EE421AF0EE621A53EC102B51EC90
:1058E000110B07F0EBFD41EC1A0B104890ED000B8B
:1058F00053EC102B51EC1A0B07F0D4FB41EC190BB5
:105900009FED0B0B53EC102B07F0B0F941EC180B8B
:105910009FED090B53EC102B07F0C4FB084AC2E9BA
:105920001801BDEC068B10BD9803002080D800083C
:10593000000000000080664000000040104E58410A
:10594000801500202DE9F04104461CA0FAF70EFD59
:105950001F48FAF70BFD26E080221E49204604F07E
:10596000CDFA1C4E3068401C00B920E041461AA018
:10597000FAF7FCFC174D00270DE095ED001BB0EE8B
:10598000410AF0EE610A53EC102B14A0FAF7EEFC7A
:105990000835781CC7B2102FEFDB0CA0FAF7E6FC35
:1059A000803408F10108104800786528D4D000BF81
:1059B0000EA0FAF7DBFCBDE8F081000044617461E1
:1059C0002069732073656E64696E67210D0A00009B
:1059D00024DC00088004002025753A002020252BB7
:1059E000302E3466000000003800002044617461ED
:1059F00020686173206265656E2073656E646564FE
:105A0000210D0A0010B5A0B06C463E4890ED180B71
:105A10008DED000B90ED1A0B8DED020B90ED200B30
:105A20008DED040B384890ED080B8DED060B90EDD5
:105A3000060B8DED080B334890ED000B8DED0A0B36
:105A400090ED020B8DED0C0B90ED040B8DED0E0B1C
:105A500090ED060B8DED100B90ED080B8DED120BFC
:105A600090ED0A0B8DED140B90ED0C0B8DED160BDC
:105A700090ED100B8DED180B90ED0E0B8DED1A0BBC
:105A800090ED220B8DED1C0B90ED240B8DED1E0B7C
:105A900000BF1E480078C007000E1D4908800AE0BC
:105AA00014F8010B1B491A4A1288885418480088B8
:105AB000401C174908801548007800F00100401C80
:105AC00013490988B1EBC01FEAD31048007800F0F1
:105AD000010078B90D48006860B14FF480720D493B
